{
  "_format": "hh-sol-artifact-1",
  "contractName": "AccountRegistry",
  "sourceName": "contracts/AccountRegistry.sol",
  "abi": [
    {
      "inputs": [],
      "name": "AccountAlreadyExists",
      "type": "error"
    },
    {
      "inputs": [],
      "name": "InvalidRecovery",
      "type": "error"
    },
    {
      "inputs": [],
      "name": "InvalidRegistration",
      "type": "error"
    },
    {
      "inputs": [],
      "name": "NoAccount",
      "type": "error"
    },
    {
      "anonymous": false,
      "inputs": [
        {
          "indexed": true,
          "internalType": "uint80",
          "name": "id",
          "type": "uint80"
        },
        {
          "indexed": false,
          "internalType": "string",
          "name": "topic",
          "type": "string"
        },
        {
          "indexed": false,
          "internalType": "string",
          "name": "message",
          "type": "string"
        }
      ],
      "name": "AccountBroadcast",
      "type": "event"
    },
    {
      "anonymous": false,
      "inputs": [
        {
          "indexed": true,
          "internalType": "uint80",
          "name": "id",
          "type": "uint80"
        },
        {
          "indexed": true,
          "internalType": "address",
          "name": "subject",
          "type": "address"
        },
        {
          "indexed": false,
          "internalType": "address",
          "name": "recovery",
          "type": "address"
        },
        {
          "indexed": false,
          "internalType": "string",
          "name": "metadata",
          "type": "string"
        }
      ],
      "name": "AccountCreated",
      "type": "event"
    },
    {
      "anonymous": false,
      "inputs": [
        {
          "indexed": true,
          "internalType": "uint80",
          "name": "id",
          "type": "uint80"
        },
        {
          "indexed": false,
          "internalType": "address",
          "name": "newRecoveryAddress",
          "type": "address"
        }
      ],
      "name": "AccountRecoverySet",
      "type": "event"
    },
    {
      "anonymous": false,
      "inputs": [
        {
          "indexed": true,
          "internalType": "uint80",
          "name": "id",
          "type": "uint80"
        },
        {
          "indexed": false,
          "internalType": "address",
          "name": "newOwner",
          "type": "address"
        }
      ],
      "name": "AccountTransfered",
      "type": "event"
    },
    {
      "inputs": [
        {
          "internalType": "address",
          "name": "",
          "type": "address"
        }
      ],
      "name": "accounts",
      "outputs": [
        {
          "internalType": "uint80",
          "name": "id",
          "type": "uint80"
        },
        {
          "internalType": "address",
          "name": "recovery",
          "type": "address"
        }
      ],
      "stateMutability": "view",
      "type": "function"
    },
    {
      "inputs": [
        {
          "internalType": "string",
          "name": "topic",
          "type": "string"
        },
        {
          "internalType": "string",
          "name": "message",
          "type": "string"
        }
      ],
      "name": "broadcast",
      "outputs": [],
      "stateMutability": "nonpayable",
      "type": "function"
    },
    {
      "inputs": [
        {
          "internalType": "address",
          "name": "subject",
          "type": "address"
        },
        {
          "internalType": "string",
          "name": "metadata",
          "type": "string"
        }
      ],
      "name": "createAccount",
      "outputs": [
        {
          "internalType": "uint80",
          "name": "id",
          "type": "uint80"
        }
      ],
      "stateMutability": "nonpayable",
      "type": "function"
    },
    {
      "inputs": [
        {
          "internalType": "address",
          "name": "subject",
          "type": "address"
        },
        {
          "internalType": "address",
          "name": "recovery",
          "type": "address"
        },
        {
          "internalType": "string",
          "name": "metadata",
          "type": "string"
        }
      ],
      "name": "createAccountWithRecovery",
      "outputs": [
        {
          "internalType": "uint80",
          "name": "id",
          "type": "uint80"
        }
      ],
      "stateMutability": "nonpayable",
      "type": "function"
    },
    {
      "inputs": [
        {
          "internalType": "address",
          "name": "oldOwner",
          "type": "address"
        },
        {
          "internalType": "address",
          "name": "newOwner",
          "type": "address"
        }
      ],
      "name": "recoverAccount",
      "outputs": [],
      "stateMutability": "nonpayable",
      "type": "function"
    },
    {
      "inputs": [
        {
          "internalType": "address",
          "name": "subject",
          "type": "address"
        }
      ],
      "name": "resolveId",
      "outputs": [
        {
          "internalType": "uint80",
          "name": "id",
          "type": "uint80"
        }
      ],
      "stateMutability": "view",
      "type": "function"
    },
    {
      "inputs": [
        {
          "internalType": "address",
          "name": "recovery",
          "type": "address"
        }
      ],
      "name": "setRecovery",
      "outputs": [],
      "stateMutability": "nonpayable",
      "type": "function"
    },
    {
      "inputs": [],
      "name": "totalAccountCount",
      "outputs": [
        {
          "internalType": "uint80",
          "name": "",
          "type": "uint80"
        }
      ],
      "stateMutability": "view",
      "type": "function"
    },
    {
      "inputs": [
        {
          "internalType": "address",
          "name": "newOwner",
          "type": "address"
        }
      ],
      "name": "transferAccount",
      "outputs": [],
      "stateMutability": "nonpayable",
      "type": "function"
    }
  ],
  "bytecode": "0x608060405234801561001057600080fd5b50610a76806100206000396000f3fe608060405234801561001057600080fd5b50600436106100935760003560e01c8063b5516ef111610066578063b5516ef11461016f578063c71cbcf314610182578063e4852b9b14610197578063f0d85c89146101aa578063f8ca7b28146101bd57600080fd5b806310f8a388146100985780632659f394146100c85780635e5c06e2146100db578063641f2bad1461013d575b600080fd5b6000546100ab906001600160501b031681565b6040516001600160501b0390911681526020015b60405180910390f35b6100ab6100d63660046107e3565b6101d0565b6101166100e9366004610836565b6001602052600090815260409020546001600160501b03811690600160501b90046001600160a01b031682565b604080516001600160501b0390931683526001600160a01b039091166020830152016100bf565b6100ab61014b366004610836565b6001600160a01b03166000908152600160205260409020546001600160501b031690565b6100ab61017d366004610858565b61021c565b6101956101903660046108b9565b610291565b005b6101956101a5366004610836565b6103c6565b6101956101b8366004610836565b6104f7565b6101956101cb3660046108ec565b6105e1565b600061021484600085858080601f01602080910402602001604051908101604052809392919081815260200183838082843760009201919091525061066992505050565b949350505050565b6000336001600160a01b0386161461024757604051635118d09560e01b815260040160405180910390fd5b610288858585858080601f01602080910402602001604051908101604052809392919081815260200183838082843760009201919091525061066992505050565b95945050505050565b6001600160a01b038083166000908152600160209081526040918290208251808401909352546001600160501b0381168352600160501b90049092169181018290529033146102f35760405163f7eb744d60e01b815260040160405180910390fd5b6001600160a01b0382166000908152600160205260409020546001600160501b031615610333576040516369783db760e01b815260040160405180910390fd5b6001600160a01b03828116600081815260016020908152604080832086518154888501518816600160501b026001600160f01b03199182166001600160501b0393841617179092559589168452928190208054909316909255845191519283529216917f05249f28c2238b528dc26cd8f2ab2a9d8b7eecd45652b210daf46ad210241639910160405180910390a2505050565b3360009081526001602090815260408083208151808301909252546001600160501b038116808352600160501b9091046001600160a01b0316928201929092529103610425576040516306720c4160e51b815260040160405180910390fd5b6001600160a01b0382166000908152600160205260409020546001600160501b031615610465576040516369783db760e01b815260040160405180910390fd5b6001600160a01b0382811660008181526001602090815260408083208651815488850151909716600160501b026001600160f01b03199788166001600160501b039283161717909155338452928190208054909516909455845193519283529216917f05249f28c2238b528dc26cd8f2ab2a9d8b7eecd45652b210daf46ad21024163991015b60405180910390a25050565b3360009081526001602090815260408083208151808301909252546001600160501b038116808352600160501b9091046001600160a01b0316928201929092529103610556576040516306720c4160e51b815260040160405180910390fd5b3360009081526001602090815260409182902080547fffff0000000000000000000000000000000000000000ffffffffffffffffffff16600160501b6001600160a01b03871690810291909117909155835192519081526001600160501b03909216917f8bf25aa37cc901cea050e218a907fbf8e3d71e0cb647a212e454df00e228a65891016104eb565b336000908152600160205260408120546001600160501b03169081900361061b576040516306720c4160e51b815260040160405180910390fd5b806001600160501b03167fd4248a27cd1bd614056c363a40262d5da0d727a29e65cf588839113cef3c03a18686868660405161065a9493929190610975565b60405180910390a25050505050565b6001600160a01b0383166000908152600160205260408120546001600160501b0316156106a9576040516369783db760e01b815260040160405180910390fd5b6000805481906106c1906001600160501b03166109a7565b82546001600160501b038083166101009490940a84810290820219909216919091179093556040805180820182528381526001600160a01b0380891660208084019182528b83166000818152600190925290859020935184549251909316600160501b026001600160f01b03199092169290971691909117179055519093507f91aa75e811b98013237ad05d28399e6c433623db02313fa85195e87b65fc10bf9061076f90879087906109db565b60405180910390a39392505050565b80356001600160a01b038116811461079557600080fd5b919050565b60008083601f8401126107ac57600080fd5b50813567ffffffffffffffff8111156107c457600080fd5b6020830191508360208285010111156107dc57600080fd5b9250929050565b6000806000604084860312156107f857600080fd5b6108018461077e565b9250602084013567ffffffffffffffff81111561081d57600080fd5b6108298682870161079a565b9497909650939450505050565b60006020828403121561084857600080fd5b6108518261077e565b9392505050565b6000806000806060858703121561086e57600080fd5b6108778561077e565b93506108856020860161077e565b9250604085013567ffffffffffffffff8111156108a157600080fd5b6108ad8782880161079a565b95989497509550505050565b600080604083850312156108cc57600080fd5b6108d58361077e565b91506108e36020840161077e565b90509250929050565b6000806000806040858703121561090257600080fd5b843567ffffffffffffffff8082111561091a57600080fd5b6109268883890161079a565b9096509450602087013591508082111561093f57600080fd5b506108ad8782880161079a565b81835281816020850137506000828201602090810191909152601f909101601f19169091010190565b60408152600061098960408301868861094c565b828103602084015261099c81858761094c565b979650505050505050565b60006001600160501b038083168181036109d157634e487b7160e01b600052601160045260246000fd5b6001019392505050565b60018060a01b038316815260006020604081840152835180604085015260005b81811015610a17578581018301518582016060015282016109fb565b81811115610a29576000606083870101525b50601f01601f19169290920160600194935050505056fea26469706673582212208f1cf55f0082dac705b327c9206e99307c05b2b04ef1b0de2aaad6fb0c7306bf64736f6c634300080d0033",
  "linkReferences": {},
  "deployedLinkReferences": {}
}