{
  "_format": "hh-sol-artifact-1",
  "contractName": "AccountRegistry",
  "sourceName": "contracts/AccountRegistry.sol",
  "abi": [
    {
      "inputs": [
        {
          "internalType": "address",
          "name": "subject",
          "type": "address"
        }
      ],
      "name": "AccountAlreadyExists",
      "type": "error"
    },
    {
      "anonymous": false,
      "inputs": [
        {
          "indexed": true,
          "internalType": "uint80",
          "name": "id",
          "type": "uint80"
        },
        {
          "indexed": true,
          "internalType": "address",
          "name": "subject",
          "type": "address"
        },
        {
          "indexed": false,
          "internalType": "address",
          "name": "recovery",
          "type": "address"
        }
      ],
      "name": "AccountCreated",
      "type": "event"
    },
    {
      "inputs": [
        {
          "internalType": "address",
          "name": "",
          "type": "address"
        }
      ],
      "name": "accounts",
      "outputs": [
        {
          "internalType": "uint80",
          "name": "id",
          "type": "uint80"
        },
        {
          "internalType": "address",
          "name": "recovery",
          "type": "address"
        }
      ],
      "stateMutability": "view",
      "type": "function"
    },
    {
      "inputs": [
        {
          "internalType": "address",
          "name": "subject",
          "type": "address"
        },
        {
          "internalType": "address",
          "name": "recovery",
          "type": "address"
        }
      ],
      "name": "createAccount",
      "outputs": [
        {
          "internalType": "uint80",
          "name": "id",
          "type": "uint80"
        }
      ],
      "stateMutability": "nonpayable",
      "type": "function"
    },
    {
      "inputs": [
        {
          "internalType": "address",
          "name": "subject",
          "type": "address"
        }
      ],
      "name": "resolveId",
      "outputs": [
        {
          "internalType": "uint80",
          "name": "id",
          "type": "uint80"
        }
      ],
      "stateMutability": "view",
      "type": "function"
    },
    {
      "inputs": [],
      "name": "totalAccountCount",
      "outputs": [
        {
          "internalType": "uint80",
          "name": "",
          "type": "uint80"
        }
      ],
      "stateMutability": "view",
      "type": "function"
    }
  ],
  "bytecode": "0x608060405234801561001057600080fd5b50610320806100206000396000f3fe608060405234801561001057600080fd5b506004361061004c5760003560e01c806310f8a38814610051578063133572ba146100815780635e5c06e214610094578063641f2bad146100f6575b600080fd5b600054610064906001600160501b031681565b6040516001600160501b0390911681526020015b60405180910390f35b61006461008f366004610261565b610128565b6100cf6100a2366004610294565b6001602052600090815260409020546001600160501b03811690600160501b90046001600160a01b031682565b604080516001600160501b0390931683526001600160a01b03909116602083015201610078565b610064610104366004610294565b6001600160a01b03166000908152600160205260409020546001600160501b031690565b6001600160a01b0382166000908152600160205260408120546001600160501b03161561017757604051630ce0703b60e21b81526001600160a01b038416600482015260240160405180910390fd5b60008054819061018f906001600160501b03166102b6565b82546001600160501b038281166101009490940a84810290820219909216919091179093556040805180820182528381526001600160a01b0387811660208084018281528b8416600081815260018452879020955186549251909516600160501b026001600160f01b031990921694909916939093179290921790925591519081529194507f5ce049f4eeb1c062a227de1bfdba779f46eb1b576785396970805f1462b4a38a910160405180910390a392915050565b80356001600160a01b038116811461025c57600080fd5b919050565b6000806040838503121561027457600080fd5b61027d83610245565b915061028b60208401610245565b90509250929050565b6000602082840312156102a657600080fd5b6102af82610245565b9392505050565b60006001600160501b038083168181036102e057634e487b7160e01b600052601160045260246000fd5b600101939250505056fea26469706673582212202ab6e6b42fe818fcf6280ad0cde7607c4298eee903afd4676c20f92f7a49e1f664736f6c634300080d0033",
  "linkReferences": {},
  "deployedLinkReferences": {}
}