{
  "_format": "hh-sol-artifact-1",
  "contractName": "AccountRegistry",
  "sourceName": "contracts/AccountRegistry.sol",
  "abi": [
    {
      "inputs": [],
      "name": "AccountAlreadyExists",
      "type": "error"
    },
    {
      "inputs": [],
      "name": "InvalidRegistration",
      "type": "error"
    },
    {
      "anonymous": false,
      "inputs": [
        {
          "indexed": true,
          "internalType": "uint80",
          "name": "id",
          "type": "uint80"
        },
        {
          "indexed": true,
          "internalType": "address",
          "name": "subject",
          "type": "address"
        },
        {
          "indexed": false,
          "internalType": "address",
          "name": "recovery",
          "type": "address"
        },
        {
          "indexed": false,
          "internalType": "string",
          "name": "metadata",
          "type": "string"
        }
      ],
      "name": "AccountCreated",
      "type": "event"
    },
    {
      "anonymous": false,
      "inputs": [
        {
          "indexed": true,
          "internalType": "uint80",
          "name": "id",
          "type": "uint80"
        },
        {
          "indexed": false,
          "internalType": "string",
          "name": "metadata",
          "type": "string"
        }
      ],
      "name": "AccountMetadata",
      "type": "event"
    },
    {
      "inputs": [
        {
          "internalType": "address",
          "name": "",
          "type": "address"
        }
      ],
      "name": "accounts",
      "outputs": [
        {
          "internalType": "uint80",
          "name": "id",
          "type": "uint80"
        },
        {
          "internalType": "address",
          "name": "recovery",
          "type": "address"
        }
      ],
      "stateMutability": "view",
      "type": "function"
    },
    {
      "inputs": [
        {
          "internalType": "address",
          "name": "subject",
          "type": "address"
        },
        {
          "internalType": "string",
          "name": "metadata",
          "type": "string"
        }
      ],
      "name": "createAccount",
      "outputs": [
        {
          "internalType": "uint80",
          "name": "id",
          "type": "uint80"
        }
      ],
      "stateMutability": "nonpayable",
      "type": "function"
    },
    {
      "inputs": [
        {
          "internalType": "address",
          "name": "subject",
          "type": "address"
        },
        {
          "internalType": "address",
          "name": "recovery",
          "type": "address"
        },
        {
          "internalType": "string",
          "name": "metadata",
          "type": "string"
        }
      ],
      "name": "createAccountWithRecovery",
      "outputs": [
        {
          "internalType": "uint80",
          "name": "id",
          "type": "uint80"
        }
      ],
      "stateMutability": "nonpayable",
      "type": "function"
    },
    {
      "inputs": [
        {
          "internalType": "address",
          "name": "subject",
          "type": "address"
        }
      ],
      "name": "resolveId",
      "outputs": [
        {
          "internalType": "uint80",
          "name": "id",
          "type": "uint80"
        }
      ],
      "stateMutability": "view",
      "type": "function"
    },
    {
      "inputs": [],
      "name": "totalAccountCount",
      "outputs": [
        {
          "internalType": "uint80",
          "name": "",
          "type": "uint80"
        }
      ],
      "stateMutability": "view",
      "type": "function"
    }
  ],
  "bytecode": "0x608060405234801561001057600080fd5b50610526806100206000396000f3fe608060405234801561001057600080fd5b50600436106100575760003560e01c806310f8a3881461005c5780632659f3941461008c5780635e5c06e21461009f578063641f2bad14610101578063b5516ef114610133575b600080fd5b60005461006f906001600160501b031681565b6040516001600160501b0390911681526020015b60405180910390f35b61006f61009a366004610381565b610146565b6100da6100ad3660046103d4565b6001602052600090815260409020546001600160501b03811690600160501b90046001600160a01b031682565b604080516001600160501b0390931683526001600160a01b03909116602083015201610083565b61006f61010f3660046103d4565b6001600160a01b03166000908152600160205260409020546001600160501b031690565b61006f6101413660046103f6565b610192565b600061018a84600085858080601f01602080910402602001604051908101604052809392919081815260200183838082843760009201919091525061020792505050565b949350505050565b6000336001600160a01b038616146101bd57604051635118d09560e01b815260040160405180910390fd5b6101fe858585858080601f01602080910402602001604051908101604052809392919081815260200183838082843760009201919091525061020792505050565b95945050505050565b6001600160a01b0383166000908152600160205260408120546001600160501b031615610247576040516369783db760e01b815260040160405180910390fd5b60008054819061025f906001600160501b0316610457565b82546001600160501b038083166101009490940a84810290820219909216919091179093556040805180820182528381526001600160a01b0380891660208084019182528b83166000818152600190925290859020935184549251909316600160501b026001600160f01b03199092169290971691909117179055519093507f91aa75e811b98013237ad05d28399e6c433623db02313fa85195e87b65fc10bf9061030d908790879061048b565b60405180910390a39392505050565b80356001600160a01b038116811461033357600080fd5b919050565b60008083601f84011261034a57600080fd5b50813567ffffffffffffffff81111561036257600080fd5b60208301915083602082850101111561037a57600080fd5b9250929050565b60008060006040848603121561039657600080fd5b61039f8461031c565b9250602084013567ffffffffffffffff8111156103bb57600080fd5b6103c786828701610338565b9497909650939450505050565b6000602082840312156103e657600080fd5b6103ef8261031c565b9392505050565b6000806000806060858703121561040c57600080fd5b6104158561031c565b93506104236020860161031c565b9250604085013567ffffffffffffffff81111561043f57600080fd5b61044b87828801610338565b95989497509550505050565b60006001600160501b0380831681810361048157634e487b7160e01b600052601160045260246000fd5b6001019392505050565b60018060a01b038316815260006020604081840152835180604085015260005b818110156104c7578581018301518582016060015282016104ab565b818111156104d9576000606083870101525b50601f01601f19169290920160600194935050505056fea26469706673582212202785022a655017c87d14d5e59a52ff76f7980686e581ad6d616b8e8b80176e1c64736f6c634300080d0033",
  "linkReferences": {},
  "deployedLinkReferences": {}
}