{
  "_format": "hh-sol-artifact-1",
  "contractName": "AccountRegistry",
  "sourceName": "contracts/AccountRegistry.sol",
  "abi": [
    {
      "inputs": [],
      "name": "AccountAlreadyExists",
      "type": "error"
    },
    {
      "inputs": [],
      "name": "InvalidRegistration",
      "type": "error"
    },
    {
      "anonymous": false,
      "inputs": [
        {
          "indexed": true,
          "internalType": "uint80",
          "name": "id",
          "type": "uint80"
        },
        {
          "indexed": true,
          "internalType": "address",
          "name": "subject",
          "type": "address"
        },
        {
          "indexed": false,
          "internalType": "address",
          "name": "recovery",
          "type": "address"
        }
      ],
      "name": "AccountCreated",
      "type": "event"
    },
    {
      "inputs": [
        {
          "internalType": "address",
          "name": "",
          "type": "address"
        }
      ],
      "name": "accounts",
      "outputs": [
        {
          "internalType": "uint80",
          "name": "id",
          "type": "uint80"
        },
        {
          "internalType": "address",
          "name": "recovery",
          "type": "address"
        }
      ],
      "stateMutability": "view",
      "type": "function"
    },
    {
      "inputs": [
        {
          "internalType": "address",
          "name": "subject",
          "type": "address"
        }
      ],
      "name": "createAccount",
      "outputs": [
        {
          "internalType": "uint80",
          "name": "id",
          "type": "uint80"
        }
      ],
      "stateMutability": "nonpayable",
      "type": "function"
    },
    {
      "inputs": [
        {
          "internalType": "address",
          "name": "subject",
          "type": "address"
        },
        {
          "internalType": "address",
          "name": "recovery",
          "type": "address"
        }
      ],
      "name": "createAccountWithRecovery",
      "outputs": [
        {
          "internalType": "uint80",
          "name": "id",
          "type": "uint80"
        }
      ],
      "stateMutability": "nonpayable",
      "type": "function"
    },
    {
      "inputs": [
        {
          "internalType": "address",
          "name": "subject",
          "type": "address"
        }
      ],
      "name": "resolveId",
      "outputs": [
        {
          "internalType": "uint80",
          "name": "id",
          "type": "uint80"
        }
      ],
      "stateMutability": "view",
      "type": "function"
    },
    {
      "inputs": [],
      "name": "totalAccountCount",
      "outputs": [
        {
          "internalType": "uint80",
          "name": "",
          "type": "uint80"
        }
      ],
      "stateMutability": "view",
      "type": "function"
    }
  ],
  "bytecode": "0x608060405234801561001057600080fd5b50610377806100206000396000f3fe608060405234801561001057600080fd5b50600436106100575760003560e01c8063025fb9431461005c57806310f8a3881461008c5780635e5c06e21461009f578063641f2bad146101015780639859387b14610133575b600080fd5b61006f61006a3660046102bf565b610146565b6040516001600160501b0390911681526020015b60405180910390f35b60005461006f906001600160501b031681565b6100da6100ad3660046102f2565b6001602052600090815260409020546001600160501b03811690600160501b90046001600160a01b031682565b604080516001600160501b0390931683526001600160a01b03909116602083015201610083565b61006f61010f3660046102f2565b6001600160a01b03166000908152600160205260409020546001600160501b031690565b61006f6101413660046102f2565b610182565b6000336001600160a01b0384161461017157604051635118d09560e01b815260040160405180910390fd5b61017b8383610195565b9392505050565b600061018f826000610195565b92915050565b6001600160a01b0382166000908152600160205260408120546001600160501b0316156101d5576040516369783db760e01b815260040160405180910390fd5b6000805481906101ed906001600160501b031661030d565b82546001600160501b038281166101009490940a84810290820219909216919091179093556040805180820182528381526001600160a01b0387811660208084018281528b8416600081815260018452879020955186549251909516600160501b026001600160f01b031990921694909916939093179290921790925591519081529194507f5ce049f4eeb1c062a227de1bfdba779f46eb1b576785396970805f1462b4a38a910160405180910390a392915050565b80356001600160a01b03811681146102ba57600080fd5b919050565b600080604083850312156102d257600080fd5b6102db836102a3565b91506102e9602084016102a3565b90509250929050565b60006020828403121561030457600080fd5b61017b826102a3565b60006001600160501b0380831681810361033757634e487b7160e01b600052601160045260246000fd5b600101939250505056fea26469706673582212207a1af311beec5ffde44124cd73731c1a1525ac03c74be20c5aedff6bd8e25d1c64736f6c634300080d0033",
  "linkReferences": {},
  "deployedLinkReferences": {}
}