{
  "_format": "hh-sol-artifact-1",
  "contractName": "AccountRegistry",
  "sourceName": "contracts/AccountRegistry.sol",
  "abi": [
    {
      "inputs": [
        {
          "internalType": "address",
          "name": "_contractOwner",
          "type": "address"
        }
      ],
      "stateMutability": "nonpayable",
      "type": "constructor"
    },
    {
      "inputs": [],
      "name": "AccountAlreadyExists",
      "type": "error"
    },
    {
      "inputs": [],
      "name": "NoAccount",
      "type": "error"
    },
    {
      "inputs": [],
      "name": "NotAuthorizedAccountIssuer",
      "type": "error"
    },
    {
      "anonymous": false,
      "inputs": [
        {
          "indexed": true,
          "internalType": "uint64",
          "name": "id",
          "type": "uint64"
        },
        {
          "indexed": false,
          "internalType": "string",
          "name": "topic",
          "type": "string"
        },
        {
          "indexed": false,
          "internalType": "string",
          "name": "message",
          "type": "string"
        }
      ],
      "name": "AccountBroadcast",
      "type": "event"
    },
    {
      "anonymous": false,
      "inputs": [
        {
          "indexed": true,
          "internalType": "uint64",
          "name": "id",
          "type": "uint64"
        },
        {
          "indexed": true,
          "internalType": "address",
          "name": "subject",
          "type": "address"
        },
        {
          "indexed": false,
          "internalType": "string",
          "name": "metadata",
          "type": "string"
        }
      ],
      "name": "AccountCreated",
      "type": "event"
    },
    {
      "anonymous": false,
      "inputs": [
        {
          "indexed": true,
          "internalType": "address",
          "name": "issuer",
          "type": "address"
        },
        {
          "indexed": false,
          "internalType": "bool",
          "name": "authorized",
          "type": "bool"
        }
      ],
      "name": "AccountIssuerSet",
      "type": "event"
    },
    {
      "anonymous": false,
      "inputs": [
        {
          "indexed": true,
          "internalType": "uint64",
          "name": "id",
          "type": "uint64"
        },
        {
          "indexed": false,
          "internalType": "address",
          "name": "newOwner",
          "type": "address"
        }
      ],
      "name": "AccountTransferred",
      "type": "event"
    },
    {
      "anonymous": false,
      "inputs": [
        {
          "indexed": true,
          "internalType": "address",
          "name": "user",
          "type": "address"
        },
        {
          "indexed": true,
          "internalType": "address",
          "name": "newOwner",
          "type": "address"
        }
      ],
      "name": "OwnershipTransferred",
      "type": "event"
    },
    {
      "inputs": [
        {
          "internalType": "address",
          "name": "",
          "type": "address"
        }
      ],
      "name": "accountIds",
      "outputs": [
        {
          "internalType": "uint64",
          "name": "",
          "type": "uint64"
        }
      ],
      "stateMutability": "view",
      "type": "function"
    },
    {
      "inputs": [
        {
          "internalType": "string",
          "name": "topic",
          "type": "string"
        },
        {
          "internalType": "string",
          "name": "message",
          "type": "string"
        }
      ],
      "name": "broadcast",
      "outputs": [],
      "stateMutability": "nonpayable",
      "type": "function"
    },
    {
      "inputs": [
        {
          "internalType": "address",
          "name": "subject",
          "type": "address"
        },
        {
          "internalType": "string",
          "name": "metadata",
          "type": "string"
        }
      ],
      "name": "createAccount",
      "outputs": [
        {
          "internalType": "uint64",
          "name": "id",
          "type": "uint64"
        }
      ],
      "stateMutability": "nonpayable",
      "type": "function"
    },
    {
      "inputs": [
        {
          "internalType": "address",
          "name": "",
          "type": "address"
        }
      ],
      "name": "isAccountIssuer",
      "outputs": [
        {
          "internalType": "bool",
          "name": "",
          "type": "bool"
        }
      ],
      "stateMutability": "view",
      "type": "function"
    },
    {
      "inputs": [],
      "name": "owner",
      "outputs": [
        {
          "internalType": "address",
          "name": "",
          "type": "address"
        }
      ],
      "stateMutability": "view",
      "type": "function"
    },
    {
      "inputs": [
        {
          "internalType": "address",
          "name": "subject",
          "type": "address"
        }
      ],
      "name": "resolveId",
      "outputs": [
        {
          "internalType": "uint64",
          "name": "id",
          "type": "uint64"
        }
      ],
      "stateMutability": "view",
      "type": "function"
    },
    {
      "inputs": [
        {
          "internalType": "address",
          "name": "issuer",
          "type": "address"
        },
        {
          "internalType": "bool",
          "name": "authorized",
          "type": "bool"
        }
      ],
      "name": "setAccountIssuer",
      "outputs": [],
      "stateMutability": "nonpayable",
      "type": "function"
    },
    {
      "inputs": [],
      "name": "totalAccountCount",
      "outputs": [
        {
          "internalType": "uint64",
          "name": "",
          "type": "uint64"
        }
      ],
      "stateMutability": "view",
      "type": "function"
    },
    {
      "inputs": [
        {
          "internalType": "address",
          "name": "newOwner",
          "type": "address"
        }
      ],
      "name": "transferAccount",
      "outputs": [],
      "stateMutability": "nonpayable",
      "type": "function"
    },
    {
      "inputs": [
        {
          "internalType": "address",
          "name": "newOwner",
          "type": "address"
        }
      ],
      "name": "transferOwnership",
      "outputs": [],
      "stateMutability": "nonpayable",
      "type": "function"
    },
    {
      "inputs": [
        {
          "internalType": "address",
          "name": "subject",
          "type": "address"
        }
      ],
      "name": "unsafeResolveId",
      "outputs": [
        {
          "internalType": "uint64",
          "name": "id",
          "type": "uint64"
        }
      ],
      "stateMutability": "view",
      "type": "function"
    }
  ],
  "bytecode": "0x608060405234801561001057600080fd5b506040516109de3803806109de83398101604081905261002f9161007e565b600080546001600160a01b0319166001600160a01b03831690811782556040518392907f8be0079c531659141344cd1fd0a4f28419497f9722a3daafe3b4186f6b6457e0908290a350506100ae565b60006020828403121561009057600080fd5b81516001600160a01b03811681146100a757600080fd5b9392505050565b610921806100bd6000396000f3fe608060405234801561001057600080fd5b50600436106100c95760003560e01c80638da5cb5b11610081578063e4852b9b1161005b578063e4852b9b146101fd578063f2fde38b14610210578063f8ca7b281461022357600080fd5b80638da5cb5b14610175578063b16fd766146101a0578063c9d57107146101ca57600080fd5b80634c544a39116100b25780634c544a391461011a57806362226a791461014d578063641f2bad1461016257600080fd5b806310f8a388146100ce5780632659f39414610107575b600080fd5b6000546100e990600160a01b900467ffffffffffffffff1681565b60405167ffffffffffffffff90911681526020015b60405180910390f35b6100e9610115366004610709565b610236565b61013d61012836600461075c565b60026020526000908152604090205460ff1681565b60405190151581526020016100fe565b61016061015b36600461077e565b610389565b005b6100e961017036600461075c565b610437565b600054610188906001600160a01b031681565b6040516001600160a01b0390911681526020016100fe565b6100e96101ae36600461075c565b60016020526000908152604090205467ffffffffffffffff1681565b6100e96101d836600461075c565b6001600160a01b031660009081526001602052604090205467ffffffffffffffff1690565b61016061020b36600461075c565b610480565b61016061021e36600461075c565b610573565b6101606102313660046107ba565b61061f565b6001600160a01b03831660009081526001602052604081205467ffffffffffffffff1615610277576040516369783db760e01b815260040160405180910390fd5b6000546001600160a01b0316158015906102a157503360009081526002602052604090205460ff16155b156102d8576040517f9b4513c300000000000000000000000000000000000000000000000000000000815260040160405180910390fd5b600080546014906102f990600160a01b900467ffffffffffffffff16610826565b825467ffffffffffffffff8083166101009490940a848102910219909116179092556001600160a01b03861660008181526001602052604090819020805467ffffffffffffffff19168417905551929350917f641074c50d2a263dd28c01f3f27515281cfa43acb774745303a9d815264c2f019061037a908790879061089d565b60405180910390a39392505050565b6000546001600160a01b031633146103d75760405162461bcd60e51b815260206004820152600c60248201526b15539055551213d49256915160a21b60448201526064015b60405180910390fd5b6001600160a01b038216600081815260026020908152604091829020805460ff191685151590811790915591519182527f39e4b794593305a7bc23012fd6d35e0f8467661293ccfcc4d0d60e7654cd8a6291015b60405180910390a25050565b6001600160a01b03811660009081526001602052604081205467ffffffffffffffff169081900361047b576040516306720c4160e51b815260040160405180910390fd5b919050565b3360009081526001602052604081205467ffffffffffffffff16908190036104bb576040516306720c4160e51b815260040160405180910390fd5b6001600160a01b03821660009081526001602052604090205467ffffffffffffffff16156104fc576040516369783db760e01b815260040160405180910390fd5b6001600160a01b0382166000818152600160209081526040808320805467ffffffffffffffff871667ffffffffffffffff1991821681179092553385529382902080549094169093555192835290917fe668901f3a7ee1018c2738011621af7721a9a9666454553407e28a2b96ca05c0910161042b565b6000546001600160a01b031633146105bc5760405162461bcd60e51b815260206004820152600c60248201526b15539055551213d49256915160a21b60448201526064016103ce565b600080547fffffffffffffffffffffffff0000000000000000000000000000000000000000166001600160a01b0383169081178255604051909133917f8be0079c531659141344cd1fd0a4f28419497f9722a3daafe3b4186f6b6457e09190a350565b3360009081526001602052604081205467ffffffffffffffff169081900361065a576040516306720c4160e51b815260040160405180910390fd5b8067ffffffffffffffff167f0d37b5d38d18e2f7b031ebf2c94ef4ffd5e95a82f05440102921b316276032e48686868660405161069a94939291906108b9565b60405180910390a25050505050565b80356001600160a01b038116811461047b57600080fd5b60008083601f8401126106d257600080fd5b50813567ffffffffffffffff8111156106ea57600080fd5b60208301915083602082850101111561070257600080fd5b9250929050565b60008060006040848603121561071e57600080fd5b610727846106a9565b9250602084013567ffffffffffffffff81111561074357600080fd5b61074f868287016106c0565b9497909650939450505050565b60006020828403121561076e57600080fd5b610777826106a9565b9392505050565b6000806040838503121561079157600080fd5b61079a836106a9565b9150602083013580151581146107af57600080fd5b809150509250929050565b600080600080604085870312156107d057600080fd5b843567ffffffffffffffff808211156107e857600080fd5b6107f4888389016106c0565b9096509450602087013591508082111561080d57600080fd5b5061081a878288016106c0565b95989497509550505050565b600067ffffffffffffffff80831681810361086a577f4e487b7100000000000000000000000000000000000000000000000000000000600052601160045260246000fd5b6001019392505050565b81835281816020850137506000828201602090810191909152601f909101601f19169091010190565b6020815260006108b1602083018486610874565b949350505050565b6040815260006108cd604083018688610874565b82810360208401526108e0818587610874565b97965050505050505056fea2646970667358221220d337837e4ef69d0add87a5ced6ddb41b4298abb5bcf14283e86c8f35ce57befe64736f6c63430008110033",
  "linkReferences": {},
  "deployedLinkReferences": {}
}