{
  "_format": "hh-sol-artifact-1",
  "contractName": "AccountRegistry",
  "sourceName": "contracts/AccountRegistry.sol",
  "abi": [
    {
      "inputs": [
        {
          "internalType": "address",
          "name": "_contractOwner",
          "type": "address"
        }
      ],
      "stateMutability": "nonpayable",
      "type": "constructor"
    },
    {
      "inputs": [],
      "name": "AccountAlreadyExists",
      "type": "error"
    },
    {
      "inputs": [],
      "name": "InvalidRecovery",
      "type": "error"
    },
    {
      "inputs": [],
      "name": "InvalidRegistration",
      "type": "error"
    },
    {
      "inputs": [],
      "name": "NoAccount",
      "type": "error"
    },
    {
      "inputs": [],
      "name": "NotAuthorizedAccountIssuer",
      "type": "error"
    },
    {
      "anonymous": false,
      "inputs": [
        {
          "indexed": true,
          "internalType": "uint64",
          "name": "id",
          "type": "uint64"
        },
        {
          "indexed": false,
          "internalType": "string",
          "name": "topic",
          "type": "string"
        },
        {
          "indexed": false,
          "internalType": "string",
          "name": "message",
          "type": "string"
        }
      ],
      "name": "AccountBroadcast",
      "type": "event"
    },
    {
      "anonymous": false,
      "inputs": [
        {
          "indexed": true,
          "internalType": "uint64",
          "name": "id",
          "type": "uint64"
        },
        {
          "indexed": true,
          "internalType": "address",
          "name": "subject",
          "type": "address"
        },
        {
          "indexed": false,
          "internalType": "address",
          "name": "recovery",
          "type": "address"
        },
        {
          "indexed": false,
          "internalType": "string",
          "name": "metadata",
          "type": "string"
        }
      ],
      "name": "AccountCreated",
      "type": "event"
    },
    {
      "anonymous": false,
      "inputs": [
        {
          "indexed": true,
          "internalType": "address",
          "name": "issuer",
          "type": "address"
        },
        {
          "indexed": false,
          "internalType": "bool",
          "name": "authorized",
          "type": "bool"
        }
      ],
      "name": "AccountIssuerSet",
      "type": "event"
    },
    {
      "anonymous": false,
      "inputs": [
        {
          "indexed": true,
          "internalType": "uint64",
          "name": "id",
          "type": "uint64"
        },
        {
          "indexed": false,
          "internalType": "address",
          "name": "newRecoveryAddress",
          "type": "address"
        }
      ],
      "name": "AccountRecoverySet",
      "type": "event"
    },
    {
      "anonymous": false,
      "inputs": [
        {
          "indexed": true,
          "internalType": "uint64",
          "name": "id",
          "type": "uint64"
        },
        {
          "indexed": false,
          "internalType": "address",
          "name": "newOwner",
          "type": "address"
        }
      ],
      "name": "AccountTransfered",
      "type": "event"
    },
    {
      "anonymous": false,
      "inputs": [
        {
          "indexed": true,
          "internalType": "address",
          "name": "user",
          "type": "address"
        },
        {
          "indexed": true,
          "internalType": "address",
          "name": "newOwner",
          "type": "address"
        }
      ],
      "name": "OwnershipTransferred",
      "type": "event"
    },
    {
      "inputs": [
        {
          "internalType": "address",
          "name": "",
          "type": "address"
        }
      ],
      "name": "accounts",
      "outputs": [
        {
          "internalType": "uint64",
          "name": "id",
          "type": "uint64"
        },
        {
          "internalType": "address",
          "name": "recovery",
          "type": "address"
        }
      ],
      "stateMutability": "view",
      "type": "function"
    },
    {
      "inputs": [
        {
          "internalType": "string",
          "name": "topic",
          "type": "string"
        },
        {
          "internalType": "string",
          "name": "message",
          "type": "string"
        }
      ],
      "name": "broadcast",
      "outputs": [],
      "stateMutability": "nonpayable",
      "type": "function"
    },
    {
      "inputs": [
        {
          "internalType": "address",
          "name": "subject",
          "type": "address"
        },
        {
          "internalType": "string",
          "name": "metadata",
          "type": "string"
        }
      ],
      "name": "createAccount",
      "outputs": [
        {
          "internalType": "uint64",
          "name": "id",
          "type": "uint64"
        }
      ],
      "stateMutability": "nonpayable",
      "type": "function"
    },
    {
      "inputs": [
        {
          "internalType": "address",
          "name": "subject",
          "type": "address"
        },
        {
          "internalType": "address",
          "name": "recovery",
          "type": "address"
        },
        {
          "internalType": "string",
          "name": "metadata",
          "type": "string"
        }
      ],
      "name": "createAccountWithRecovery",
      "outputs": [
        {
          "internalType": "uint64",
          "name": "id",
          "type": "uint64"
        }
      ],
      "stateMutability": "nonpayable",
      "type": "function"
    },
    {
      "inputs": [
        {
          "internalType": "address",
          "name": "",
          "type": "address"
        }
      ],
      "name": "isAccountIssuer",
      "outputs": [
        {
          "internalType": "bool",
          "name": "",
          "type": "bool"
        }
      ],
      "stateMutability": "view",
      "type": "function"
    },
    {
      "inputs": [],
      "name": "owner",
      "outputs": [
        {
          "internalType": "address",
          "name": "",
          "type": "address"
        }
      ],
      "stateMutability": "view",
      "type": "function"
    },
    {
      "inputs": [
        {
          "internalType": "address",
          "name": "oldOwner",
          "type": "address"
        },
        {
          "internalType": "address",
          "name": "newOwner",
          "type": "address"
        }
      ],
      "name": "recoverAccount",
      "outputs": [],
      "stateMutability": "nonpayable",
      "type": "function"
    },
    {
      "inputs": [
        {
          "internalType": "address",
          "name": "subject",
          "type": "address"
        }
      ],
      "name": "resolveId",
      "outputs": [
        {
          "internalType": "uint64",
          "name": "id",
          "type": "uint64"
        }
      ],
      "stateMutability": "view",
      "type": "function"
    },
    {
      "inputs": [
        {
          "internalType": "address",
          "name": "issuer",
          "type": "address"
        },
        {
          "internalType": "bool",
          "name": "authorized",
          "type": "bool"
        }
      ],
      "name": "setAccountIssuer",
      "outputs": [],
      "stateMutability": "nonpayable",
      "type": "function"
    },
    {
      "inputs": [
        {
          "internalType": "address",
          "name": "recovery",
          "type": "address"
        }
      ],
      "name": "setRecovery",
      "outputs": [],
      "stateMutability": "nonpayable",
      "type": "function"
    },
    {
      "inputs": [],
      "name": "totalAccountCount",
      "outputs": [
        {
          "internalType": "uint64",
          "name": "",
          "type": "uint64"
        }
      ],
      "stateMutability": "view",
      "type": "function"
    },
    {
      "inputs": [
        {
          "internalType": "address",
          "name": "newOwner",
          "type": "address"
        }
      ],
      "name": "transferAccount",
      "outputs": [],
      "stateMutability": "nonpayable",
      "type": "function"
    },
    {
      "inputs": [
        {
          "internalType": "address",
          "name": "newOwner",
          "type": "address"
        }
      ],
      "name": "transferOwnership",
      "outputs": [],
      "stateMutability": "nonpayable",
      "type": "function"
    }
  ],
  "bytecode": "0x608060405234801561001057600080fd5b50604051610dac380380610dac83398101604081905261002f9161007e565b600080546001600160a01b0319166001600160a01b03831690811782556040518392907f8be0079c531659141344cd1fd0a4f28419497f9722a3daafe3b4186f6b6457e0908290a350506100ae565b60006020828403121561009057600080fd5b81516001600160a01b03811681146100a757600080fd5b9392505050565b610cef806100bd6000396000f3fe608060405234801561001057600080fd5b50600436106100cf5760003560e01c80638da5cb5b1161008c578063e4852b9b11610066578063e4852b9b1461024b578063f0d85c891461025e578063f2fde38b14610271578063f8ca7b281461028457600080fd5b80638da5cb5b146101fa578063b5516ef114610225578063c71cbcf31461023857600080fd5b806310f8a388146100d45780632659f3941461010b5780634c544a391461011e5780635e5c06e21461015157806362226a79146101b3578063641f2bad146101c8575b600080fd5b6000546100ee90600160a01b90046001600160401b031681565b6040516001600160401b0390911681526020015b60405180910390f35b6100ee610119366004610a23565b610297565b61014161012c366004610a75565b60026020526000908152604090205460ff1681565b6040519015158152602001610102565b61018c61015f366004610a75565b6001602052600090815260409020546001600160401b03811690600160401b90046001600160a01b031682565b604080516001600160401b0390931683526001600160a01b03909116602083015201610102565b6101c66101c1366004610a97565b6102e3565b005b6100ee6101d6366004610a75565b6001600160a01b03166000908152600160205260409020546001600160401b031690565b60005461020d906001600160a01b031681565b6040516001600160a01b039091168152602001610102565b6100ee610233366004610ad3565b610391565b6101c6610246366004610b33565b610406565b6101c6610259366004610a75565b61053b565b6101c661026c366004610a75565b610664565b6101c661027f366004610a75565b61073e565b6101c6610292366004610b66565b6107d2565b60006102db84600085858080601f01602080910402602001604051908101604052809392919081815260200183838082843760009201919091525061085a92505050565b949350505050565b6000546001600160a01b031633146103315760405162461bcd60e51b815260206004820152600c60248201526b15539055551213d49256915160a21b60448201526064015b60405180910390fd5b6001600160a01b038216600081815260026020908152604091829020805460ff191685151590811790915591519182527f39e4b794593305a7bc23012fd6d35e0f8467661293ccfcc4d0d60e7654cd8a6291015b60405180910390a25050565b6000336001600160a01b038616146103bc57604051635118d09560e01b815260040160405180910390fd5b6103fd858585858080601f01602080910402602001604051908101604052809392919081815260200183838082843760009201919091525061085a92505050565b95945050505050565b6001600160a01b038083166000908152600160209081526040918290208251808401909352546001600160401b0381168352600160401b90049092169181018290529033146104685760405163f7eb744d60e01b815260040160405180910390fd5b6001600160a01b0382166000908152600160205260409020546001600160401b0316156104a8576040516369783db760e01b815260040160405180910390fd5b6001600160a01b03828116600081815260016020908152604080832086518154888501518816600160401b026001600160e01b03199182166001600160401b0393841617179092559589168452928190208054909316909255845191519283529216917fea5e25dfd32cccc51230fd1b44ff975f38579594b7d3e0323cbf1947d43ddf43910160405180910390a2505050565b3360009081526001602090815260408083208151808301909252546001600160401b038116808352600160401b9091046001600160a01b031692820192909252910361059a576040516306720c4160e51b815260040160405180910390fd5b6001600160a01b0382166000908152600160205260409020546001600160401b0316156105da576040516369783db760e01b815260040160405180910390fd5b6001600160a01b0382811660008181526001602090815260408083208651815488850151909716600160401b026001600160e01b03199788166001600160401b039283161717909155338452928190208054909516909455845193519283529216917fea5e25dfd32cccc51230fd1b44ff975f38579594b7d3e0323cbf1947d43ddf439101610385565b3360009081526001602090815260408083208151808301909252546001600160401b038116808352600160401b9091046001600160a01b03169282019290925291036106c3576040516306720c4160e51b815260040160405180910390fd5b33600090815260016020908152604091829020805468010000000000000000600160e01b031916600160401b6001600160a01b03871690810291909117909155835192519081526001600160401b03909216917fdb60cec2e03c22c573191dcb6362b453e95776df7c15f6401cf773a4cd30ef1b9101610385565b6000546001600160a01b031633146107875760405162461bcd60e51b815260206004820152600c60248201526b15539055551213d49256915160a21b6044820152606401610328565b600080546001600160a01b0319166001600160a01b0383169081178255604051909133917f8be0079c531659141344cd1fd0a4f28419497f9722a3daafe3b4186f6b6457e09190a350565b336000908152600160205260408120546001600160401b03169081900361080c576040516306720c4160e51b815260040160405180910390fd5b806001600160401b03167f0d37b5d38d18e2f7b031ebf2c94ef4ffd5e95a82f05440102921b316276032e48686868660405161084b9493929190610bee565b60405180910390a25050505050565b6001600160a01b0383166000908152600160205260408120546001600160401b03161561089a576040516369783db760e01b815260040160405180910390fd5b6000546001600160a01b0316158015906108c457503360009081526002602052604090205460ff16155b156108e257604051639b4513c360e01b815260040160405180910390fd5b6000805460149061090290600160a01b90046001600160401b0316610c20565b82546001600160401b038083166101009490940a84810290820219909216919091179093556040805180820182528381526001600160a01b0380891660208084019182528b83166000818152600190925290859020935184549251909316600160401b026001600160e01b03199092169290971691909117179055519093507f0f2fc919497362bb5e43eb2587afa1084e2e77ba1efc8e07bded1ef0fa5496d7906109b09087908790610c54565b60405180910390a39392505050565b80356001600160a01b03811681146109d657600080fd5b919050565b60008083601f8401126109ed57600080fd5b5081356001600160401b03811115610a0457600080fd5b602083019150836020828501011115610a1c57600080fd5b9250929050565b600080600060408486031215610a3857600080fd5b610a41846109bf565b925060208401356001600160401b03811115610a5c57600080fd5b610a68868287016109db565b9497909650939450505050565b600060208284031215610a8757600080fd5b610a90826109bf565b9392505050565b60008060408385031215610aaa57600080fd5b610ab3836109bf565b915060208301358015158114610ac857600080fd5b809150509250929050565b60008060008060608587031215610ae957600080fd5b610af2856109bf565b9350610b00602086016109bf565b925060408501356001600160401b03811115610b1b57600080fd5b610b27878288016109db565b95989497509550505050565b60008060408385031215610b4657600080fd5b610b4f836109bf565b9150610b5d602084016109bf565b90509250929050565b60008060008060408587031215610b7c57600080fd5b84356001600160401b0380821115610b9357600080fd5b610b9f888389016109db565b90965094506020870135915080821115610bb857600080fd5b50610b27878288016109db565b81835281816020850137506000828201602090810191909152601f909101601f19169091010190565b604081526000610c02604083018688610bc5565b8281036020840152610c15818587610bc5565b979650505050505050565b60006001600160401b03808316818103610c4a57634e487b7160e01b600052601160045260246000fd5b6001019392505050565b60018060a01b038316815260006020604081840152835180604085015260005b81811015610c9057858101830151858201606001528201610c74565b81811115610ca2576000606083870101525b50601f01601f19169290920160600194935050505056fea264697066735822122038ad1092fde9875769935909d5d55e6aa0363ebba6ae5db2542d30cd226bd12964736f6c634300080d0033",
  "linkReferences": {},
  "deployedLinkReferences": {}
}