{
  "_format": "hh-sol-artifact-1",
  "contractName": "AccountRegistry",
  "sourceName": "contracts/AccountRegistry.sol",
  "abi": [
    {
      "inputs": [
        {
          "internalType": "address",
          "name": "_contractOwner",
          "type": "address"
        }
      ],
      "stateMutability": "nonpayable",
      "type": "constructor"
    },
    {
      "inputs": [],
      "name": "AccountAlreadyExists",
      "type": "error"
    },
    {
      "inputs": [],
      "name": "NoAccount",
      "type": "error"
    },
    {
      "inputs": [],
      "name": "NotAuthorizedAccountIssuer",
      "type": "error"
    },
    {
      "anonymous": false,
      "inputs": [
        {
          "indexed": true,
          "internalType": "uint64",
          "name": "id",
          "type": "uint64"
        },
        {
          "indexed": false,
          "internalType": "string",
          "name": "topic",
          "type": "string"
        },
        {
          "indexed": false,
          "internalType": "string",
          "name": "message",
          "type": "string"
        }
      ],
      "name": "AccountBroadcast",
      "type": "event"
    },
    {
      "anonymous": false,
      "inputs": [
        {
          "indexed": true,
          "internalType": "uint64",
          "name": "id",
          "type": "uint64"
        },
        {
          "indexed": true,
          "internalType": "address",
          "name": "subject",
          "type": "address"
        },
        {
          "indexed": false,
          "internalType": "string",
          "name": "metadata",
          "type": "string"
        }
      ],
      "name": "AccountCreated",
      "type": "event"
    },
    {
      "anonymous": false,
      "inputs": [
        {
          "indexed": true,
          "internalType": "address",
          "name": "issuer",
          "type": "address"
        },
        {
          "indexed": false,
          "internalType": "bool",
          "name": "authorized",
          "type": "bool"
        }
      ],
      "name": "AccountIssuerSet",
      "type": "event"
    },
    {
      "anonymous": false,
      "inputs": [
        {
          "indexed": true,
          "internalType": "uint64",
          "name": "id",
          "type": "uint64"
        },
        {
          "indexed": false,
          "internalType": "address",
          "name": "newOwner",
          "type": "address"
        }
      ],
      "name": "AccountTransfered",
      "type": "event"
    },
    {
      "anonymous": false,
      "inputs": [
        {
          "indexed": true,
          "internalType": "address",
          "name": "user",
          "type": "address"
        },
        {
          "indexed": true,
          "internalType": "address",
          "name": "newOwner",
          "type": "address"
        }
      ],
      "name": "OwnershipTransferred",
      "type": "event"
    },
    {
      "inputs": [
        {
          "internalType": "address",
          "name": "",
          "type": "address"
        }
      ],
      "name": "accountIds",
      "outputs": [
        {
          "internalType": "uint64",
          "name": "",
          "type": "uint64"
        }
      ],
      "stateMutability": "view",
      "type": "function"
    },
    {
      "inputs": [
        {
          "internalType": "string",
          "name": "topic",
          "type": "string"
        },
        {
          "internalType": "string",
          "name": "message",
          "type": "string"
        }
      ],
      "name": "broadcast",
      "outputs": [],
      "stateMutability": "nonpayable",
      "type": "function"
    },
    {
      "inputs": [
        {
          "internalType": "address",
          "name": "subject",
          "type": "address"
        },
        {
          "internalType": "string",
          "name": "metadata",
          "type": "string"
        }
      ],
      "name": "createAccount",
      "outputs": [
        {
          "internalType": "uint64",
          "name": "id",
          "type": "uint64"
        }
      ],
      "stateMutability": "nonpayable",
      "type": "function"
    },
    {
      "inputs": [
        {
          "internalType": "address",
          "name": "",
          "type": "address"
        }
      ],
      "name": "isAccountIssuer",
      "outputs": [
        {
          "internalType": "bool",
          "name": "",
          "type": "bool"
        }
      ],
      "stateMutability": "view",
      "type": "function"
    },
    {
      "inputs": [],
      "name": "owner",
      "outputs": [
        {
          "internalType": "address",
          "name": "",
          "type": "address"
        }
      ],
      "stateMutability": "view",
      "type": "function"
    },
    {
      "inputs": [
        {
          "internalType": "address",
          "name": "subject",
          "type": "address"
        }
      ],
      "name": "resolveId",
      "outputs": [
        {
          "internalType": "uint64",
          "name": "id",
          "type": "uint64"
        }
      ],
      "stateMutability": "view",
      "type": "function"
    },
    {
      "inputs": [
        {
          "internalType": "address",
          "name": "issuer",
          "type": "address"
        },
        {
          "internalType": "bool",
          "name": "authorized",
          "type": "bool"
        }
      ],
      "name": "setAccountIssuer",
      "outputs": [],
      "stateMutability": "nonpayable",
      "type": "function"
    },
    {
      "inputs": [],
      "name": "totalAccountCount",
      "outputs": [
        {
          "internalType": "uint64",
          "name": "",
          "type": "uint64"
        }
      ],
      "stateMutability": "view",
      "type": "function"
    },
    {
      "inputs": [
        {
          "internalType": "address",
          "name": "newOwner",
          "type": "address"
        }
      ],
      "name": "transferAccount",
      "outputs": [],
      "stateMutability": "nonpayable",
      "type": "function"
    },
    {
      "inputs": [
        {
          "internalType": "address",
          "name": "newOwner",
          "type": "address"
        }
      ],
      "name": "transferOwnership",
      "outputs": [],
      "stateMutability": "nonpayable",
      "type": "function"
    }
  ],
  "bytecode": "0x608060405234801561001057600080fd5b5060405161090238038061090283398101604081905261002f9161007e565b600080546001600160a01b0319166001600160a01b03831690811782556040518392907f8be0079c531659141344cd1fd0a4f28419497f9722a3daafe3b4186f6b6457e0908290a350506100ae565b60006020828403121561009057600080fd5b81516001600160a01b03811681146100a757600080fd5b9392505050565b610845806100bd6000396000f3fe608060405234801561001057600080fd5b506004361061009e5760003560e01c80638da5cb5b116100665780638da5cb5b14610167578063b16fd76614610192578063e4852b9b146101bb578063f2fde38b146101ce578063f8ca7b28146101e157600080fd5b806310f8a388146100a35780632659f394146100da5780634c544a39146100ed57806362226a7914610120578063641f2bad14610135575b600080fd5b6000546100bd90600160a01b90046001600160401b031681565b6040516001600160401b0390911681526020015b60405180910390f35b6100bd6100e8366004610649565b6101f4565b6101106100fb36600461069b565b60026020526000908152604090205460ff1681565b60405190151581526020016100d1565b61013361012e3660046106bd565b61032b565b005b6100bd61014336600461069b565b6001600160a01b03166000908152600160205260409020546001600160401b031690565b60005461017a906001600160a01b031681565b6040516001600160a01b0390911681526020016100d1565b6100bd6101a036600461069b565b6001602052600090815260409020546001600160401b031681565b6101336101c936600461069b565b6103d9565b6101336101dc36600461069b565b6104c9565b6101336101ef3660046106f9565b61055d565b6001600160a01b0383166000908152600160205260408120546001600160401b031615610234576040516369783db760e01b815260040160405180910390fd5b6000546001600160a01b03161580159061025e57503360009081526002602052604090205460ff16155b1561027c57604051639b4513c360e01b815260040160405180910390fd5b6000805460149061029c90600160a01b90046001600160401b0316610764565b82546001600160401b038083166101009490940a848102910219909116179092556001600160a01b03861660008181526001602052604090819020805467ffffffffffffffff19168417905551929350917f641074c50d2a263dd28c01f3f27515281cfa43acb774745303a9d815264c2f019061031c90879087906107c1565b60405180910390a39392505050565b6000546001600160a01b031633146103795760405162461bcd60e51b815260206004820152600c60248201526b15539055551213d49256915160a21b60448201526064015b60405180910390fd5b6001600160a01b038216600081815260026020908152604091829020805460ff191685151590811790915591519182527f39e4b794593305a7bc23012fd6d35e0f8467661293ccfcc4d0d60e7654cd8a6291015b60405180910390a25050565b336000908152600160205260408120546001600160401b031690819003610413576040516306720c4160e51b815260040160405180910390fd5b6001600160a01b0382166000908152600160205260409020546001600160401b031615610453576040516369783db760e01b815260040160405180910390fd5b6001600160a01b038216600081815260016020908152604080832080546001600160401b03871667ffffffffffffffff1991821681179092553385529382902080549094169093555192835290917fea5e25dfd32cccc51230fd1b44ff975f38579594b7d3e0323cbf1947d43ddf4391016103cd565b6000546001600160a01b031633146105125760405162461bcd60e51b815260206004820152600c60248201526b15539055551213d49256915160a21b6044820152606401610370565b600080546001600160a01b0319166001600160a01b0383169081178255604051909133917f8be0079c531659141344cd1fd0a4f28419497f9722a3daafe3b4186f6b6457e09190a350565b336000908152600160205260408120546001600160401b031690819003610597576040516306720c4160e51b815260040160405180910390fd5b806001600160401b03167f0d37b5d38d18e2f7b031ebf2c94ef4ffd5e95a82f05440102921b316276032e4868686866040516105d694939291906107dd565b60405180910390a25050505050565b80356001600160a01b03811681146105fc57600080fd5b919050565b60008083601f84011261061357600080fd5b5081356001600160401b0381111561062a57600080fd5b60208301915083602082850101111561064257600080fd5b9250929050565b60008060006040848603121561065e57600080fd5b610667846105e5565b925060208401356001600160401b0381111561068257600080fd5b61068e86828701610601565b9497909650939450505050565b6000602082840312156106ad57600080fd5b6106b6826105e5565b9392505050565b600080604083850312156106d057600080fd5b6106d9836105e5565b9150602083013580151581146106ee57600080fd5b809150509250929050565b6000806000806040858703121561070f57600080fd5b84356001600160401b038082111561072657600080fd5b61073288838901610601565b9096509450602087013591508082111561074b57600080fd5b5061075887828801610601565b95989497509550505050565b60006001600160401b0380831681810361078e57634e487b7160e01b600052601160045260246000fd5b6001019392505050565b81835281816020850137506000828201602090810191909152601f909101601f19169091010190565b6020815260006107d5602083018486610798565b949350505050565b6040815260006107f1604083018688610798565b8281036020840152610804818587610798565b97965050505050505056fea26469706673582212207485e7f4862c8c1e6d641ac802906159f61ef2776d7f954a6e03876b73bb69bc64736f6c634300080d0033",
  "linkReferences": {},
  "deployedLinkReferences": {}
}