{
  "_format": "hh-sol-artifact-1",
  "contractName": "Catalog",
  "sourceName": "contracts/Catalog.sol",
  "abi": [
    {
      "inputs": [],
      "stateMutability": "nonpayable",
      "type": "constructor"
    },
    {
      "inputs": [],
      "name": "AlreadyInitialized",
      "type": "error"
    },
    {
      "inputs": [],
      "name": "NotAuthorized",
      "type": "error"
    },
    {
      "anonymous": false,
      "inputs": [
        {
          "indexed": true,
          "internalType": "address",
          "name": "owner",
          "type": "address"
        },
        {
          "indexed": true,
          "internalType": "address",
          "name": "spender",
          "type": "address"
        },
        {
          "indexed": true,
          "internalType": "uint256",
          "name": "id",
          "type": "uint256"
        }
      ],
      "name": "Approval",
      "type": "event"
    },
    {
      "anonymous": false,
      "inputs": [
        {
          "indexed": true,
          "internalType": "address",
          "name": "owner",
          "type": "address"
        },
        {
          "indexed": true,
          "internalType": "address",
          "name": "operator",
          "type": "address"
        },
        {
          "indexed": false,
          "internalType": "bool",
          "name": "approved",
          "type": "bool"
        }
      ],
      "name": "ApprovalForAll",
      "type": "event"
    },
    {
      "anonymous": false,
      "inputs": [
        {
          "indexed": true,
          "internalType": "uint80",
          "name": "controlNode",
          "type": "uint80"
        }
      ],
      "name": "ControlNodeSet",
      "type": "event"
    },
    {
      "anonymous": false,
      "inputs": [
        {
          "indexed": true,
          "internalType": "address",
          "name": "previousOwner",
          "type": "address"
        },
        {
          "indexed": true,
          "internalType": "address",
          "name": "newOwner",
          "type": "address"
        }
      ],
      "name": "OwnershipTransferred",
      "type": "event"
    },
    {
      "anonymous": false,
      "inputs": [
        {
          "indexed": true,
          "internalType": "uint256",
          "name": "tokenId",
          "type": "uint256"
        },
        {
          "indexed": true,
          "internalType": "uint16",
          "name": "sequenceId",
          "type": "uint16"
        },
        {
          "indexed": false,
          "internalType": "uint80",
          "name": "data",
          "type": "uint80"
        },
        {
          "indexed": false,
          "internalType": "string",
          "name": "etching",
          "type": "string"
        }
      ],
      "name": "RecordCreated",
      "type": "event"
    },
    {
      "anonymous": false,
      "inputs": [
        {
          "indexed": true,
          "internalType": "uint16",
          "name": "sequenceId",
          "type": "uint16"
        },
        {
          "indexed": true,
          "internalType": "uint80",
          "name": "dropId",
          "type": "uint80"
        },
        {
          "indexed": false,
          "internalType": "contract IEngine",
          "name": "engine",
          "type": "address"
        }
      ],
      "name": "SequenceConfigured",
      "type": "event"
    },
    {
      "anonymous": false,
      "inputs": [
        {
          "indexed": true,
          "internalType": "address",
          "name": "from",
          "type": "address"
        },
        {
          "indexed": true,
          "internalType": "address",
          "name": "to",
          "type": "address"
        },
        {
          "indexed": true,
          "internalType": "uint256",
          "name": "id",
          "type": "uint256"
        }
      ],
      "name": "Transfer",
      "type": "event"
    },
    {
      "inputs": [
        {
          "internalType": "address",
          "name": "spender",
          "type": "address"
        },
        {
          "internalType": "uint256",
          "name": "id",
          "type": "uint256"
        }
      ],
      "name": "approve",
      "outputs": [],
      "stateMutability": "nonpayable",
      "type": "function"
    },
    {
      "inputs": [
        {
          "internalType": "address",
          "name": "owner",
          "type": "address"
        }
      ],
      "name": "balanceOf",
      "outputs": [
        {
          "internalType": "uint256",
          "name": "",
          "type": "uint256"
        }
      ],
      "stateMutability": "view",
      "type": "function"
    },
    {
      "inputs": [
        {
          "internalType": "uint16",
          "name": "sequenceId",
          "type": "uint16"
        },
        {
          "internalType": "uint80",
          "name": "dropId",
          "type": "uint80"
        },
        {
          "internalType": "contract IEngine",
          "name": "engine",
          "type": "address"
        }
      ],
      "name": "configureSequence",
      "outputs": [],
      "stateMutability": "nonpayable",
      "type": "function"
    },
    {
      "inputs": [],
      "name": "controlNode",
      "outputs": [
        {
          "internalType": "uint80",
          "name": "",
          "type": "uint80"
        }
      ],
      "stateMutability": "view",
      "type": "function"
    },
    {
      "inputs": [
        {
          "internalType": "uint256",
          "name": "",
          "type": "uint256"
        }
      ],
      "name": "getApproved",
      "outputs": [
        {
          "internalType": "address",
          "name": "",
          "type": "address"
        }
      ],
      "stateMutability": "view",
      "type": "function"
    },
    {
      "inputs": [
        {
          "internalType": "uint256",
          "name": "id",
          "type": "uint256"
        }
      ],
      "name": "getTokenData",
      "outputs": [
        {
          "components": [
            {
              "internalType": "address",
              "name": "owner",
              "type": "address"
            },
            {
              "internalType": "uint16",
              "name": "sequenceId",
              "type": "uint16"
            },
            {
              "internalType": "uint80",
              "name": "data",
              "type": "uint80"
            }
          ],
          "internalType": "struct TokenData",
          "name": "",
          "type": "tuple"
        }
      ],
      "stateMutability": "view",
      "type": "function"
    },
    {
      "inputs": [
        {
          "internalType": "string",
          "name": "_name",
          "type": "string"
        },
        {
          "internalType": "string",
          "name": "_symbol",
          "type": "string"
        },
        {
          "internalType": "uint80",
          "name": "_controlNode",
          "type": "uint80"
        },
        {
          "internalType": "contract INodeRegistry",
          "name": "_nodeRegistry",
          "type": "address"
        },
        {
          "internalType": "address",
          "name": "_owner",
          "type": "address"
        }
      ],
      "name": "init",
      "outputs": [],
      "stateMutability": "nonpayable",
      "type": "function"
    },
    {
      "inputs": [
        {
          "internalType": "address",
          "name": "",
          "type": "address"
        },
        {
          "internalType": "address",
          "name": "",
          "type": "address"
        }
      ],
      "name": "isApprovedForAll",
      "outputs": [
        {
          "internalType": "bool",
          "name": "",
          "type": "bool"
        }
      ],
      "stateMutability": "view",
      "type": "function"
    },
    {
      "inputs": [
        {
          "internalType": "address",
          "name": "to",
          "type": "address"
        },
        {
          "internalType": "uint16",
          "name": "sequenceId",
          "type": "uint16"
        },
        {
          "internalType": "uint80",
          "name": "data",
          "type": "uint80"
        },
        {
          "internalType": "string",
          "name": "etching",
          "type": "string"
        }
      ],
      "name": "mintRecord",
      "outputs": [
        {
          "internalType": "uint256",
          "name": "tokenId",
          "type": "uint256"
        }
      ],
      "stateMutability": "nonpayable",
      "type": "function"
    },
    {
      "inputs": [],
      "name": "name",
      "outputs": [
        {
          "internalType": "string",
          "name": "",
          "type": "string"
        }
      ],
      "stateMutability": "view",
      "type": "function"
    },
    {
      "inputs": [],
      "name": "nodeRegistry",
      "outputs": [
        {
          "internalType": "contract INodeRegistry",
          "name": "",
          "type": "address"
        }
      ],
      "stateMutability": "view",
      "type": "function"
    },
    {
      "inputs": [],
      "name": "owner",
      "outputs": [
        {
          "internalType": "address",
          "name": "",
          "type": "address"
        }
      ],
      "stateMutability": "view",
      "type": "function"
    },
    {
      "inputs": [
        {
          "internalType": "uint256",
          "name": "id",
          "type": "uint256"
        }
      ],
      "name": "ownerOf",
      "outputs": [
        {
          "internalType": "address",
          "name": "owner",
          "type": "address"
        }
      ],
      "stateMutability": "view",
      "type": "function"
    },
    {
      "inputs": [
        {
          "internalType": "uint256",
          "name": "tokenId",
          "type": "uint256"
        },
        {
          "internalType": "uint256",
          "name": "salePrice",
          "type": "uint256"
        }
      ],
      "name": "royaltyInfo",
      "outputs": [
        {
          "internalType": "address",
          "name": "receiver",
          "type": "address"
        },
        {
          "internalType": "uint256",
          "name": "royaltyAmount",
          "type": "uint256"
        }
      ],
      "stateMutability": "view",
      "type": "function"
    },
    {
      "inputs": [
        {
          "internalType": "address",
          "name": "from",
          "type": "address"
        },
        {
          "internalType": "address",
          "name": "to",
          "type": "address"
        },
        {
          "internalType": "uint256",
          "name": "id",
          "type": "uint256"
        }
      ],
      "name": "safeTransferFrom",
      "outputs": [],
      "stateMutability": "nonpayable",
      "type": "function"
    },
    {
      "inputs": [
        {
          "internalType": "address",
          "name": "from",
          "type": "address"
        },
        {
          "internalType": "address",
          "name": "to",
          "type": "address"
        },
        {
          "internalType": "uint256",
          "name": "id",
          "type": "uint256"
        },
        {
          "internalType": "bytes",
          "name": "data",
          "type": "bytes"
        }
      ],
      "name": "safeTransferFrom",
      "outputs": [],
      "stateMutability": "nonpayable",
      "type": "function"
    },
    {
      "inputs": [
        {
          "internalType": "uint16",
          "name": "",
          "type": "uint16"
        }
      ],
      "name": "sequences",
      "outputs": [
        {
          "internalType": "uint80",
          "name": "dropId",
          "type": "uint80"
        },
        {
          "internalType": "contract IEngine",
          "name": "engine",
          "type": "address"
        }
      ],
      "stateMutability": "view",
      "type": "function"
    },
    {
      "inputs": [
        {
          "internalType": "address",
          "name": "operator",
          "type": "address"
        },
        {
          "internalType": "bool",
          "name": "approved",
          "type": "bool"
        }
      ],
      "name": "setApprovalForAll",
      "outputs": [],
      "stateMutability": "nonpayable",
      "type": "function"
    },
    {
      "inputs": [
        {
          "internalType": "address",
          "name": "_owner",
          "type": "address"
        }
      ],
      "name": "setOwner",
      "outputs": [],
      "stateMutability": "nonpayable",
      "type": "function"
    },
    {
      "inputs": [
        {
          "internalType": "bytes4",
          "name": "interfaceId",
          "type": "bytes4"
        }
      ],
      "name": "supportsInterface",
      "outputs": [
        {
          "internalType": "bool",
          "name": "",
          "type": "bool"
        }
      ],
      "stateMutability": "view",
      "type": "function"
    },
    {
      "inputs": [],
      "name": "symbol",
      "outputs": [
        {
          "internalType": "string",
          "name": "",
          "type": "string"
        }
      ],
      "stateMutability": "view",
      "type": "function"
    },
    {
      "inputs": [
        {
          "internalType": "uint256",
          "name": "tokenId",
          "type": "uint256"
        }
      ],
      "name": "tokenURI",
      "outputs": [
        {
          "internalType": "string",
          "name": "",
          "type": "string"
        }
      ],
      "stateMutability": "view",
      "type": "function"
    },
    {
      "inputs": [],
      "name": "totalSupply",
      "outputs": [
        {
          "internalType": "uint256",
          "name": "",
          "type": "uint256"
        }
      ],
      "stateMutability": "view",
      "type": "function"
    },
    {
      "inputs": [
        {
          "internalType": "address",
          "name": "from",
          "type": "address"
        },
        {
          "internalType": "address",
          "name": "to",
          "type": "address"
        },
        {
          "internalType": "uint256",
          "name": "id",
          "type": "uint256"
        }
      ],
      "name": "transferFrom",
      "outputs": [],
      "stateMutability": "nonpayable",
      "type": "function"
    }
  ],
  "bytecode": "0x60806040523480156200001157600080fd5b5060405180604001604052806007815260200166436174616c6f6760c81b81525060405180604001604052806007815260200166434154414c4f4760c81b81525081600090805190602001906200006a92919062000096565b5080516200008090600190602084019062000096565b5050600a805460ff191660011790555062000178565b828054620000a4906200013c565b90600052602060002090601f016020900481019282620000c8576000855562000113565b82601f10620000e357805160ff191683800117855562000113565b8280016001018555821562000113579182015b8281111562000113578251825591602001919060010190620000f6565b506200012192915062000125565b5090565b5b8082111562000121576000815560010162000126565b600181811c908216806200015157607f821691505b6020821081036200017257634e487b7160e01b600052602260045260246000fd5b50919050565b611a5780620001886000396000f3fe608060405234801561001057600080fd5b50600436106101585760003560e01c806370a08231116100c3578063bd2868a71161007c578063bd2868a714610369578063c31e408e1461037c578063c87b56dd1461038f578063d9b5c4a5146103a2578063e8e9099e146103b5578063e985e9c5146103fe57600080fd5b806370a08231146102c35780638da5cb5b146102d657806395d89b41146102f0578063a22cb465146102f8578063b09afec11461030b578063b88d4fde1461035657600080fd5b806318160ddd1161011557806318160ddd1461022e57806323b872dd146102455780632a55205a146102585780632fb9e4881461028a57806342842e0e1461029d5780636352211e146102b057600080fd5b806301ffc9a71461015d57806306fdde0314610185578063081812fc1461019a578063095ea7b3146101db57806313af4035146101f05780631616d24914610203575b600080fd5b61017061016b3660046113d8565b61042c565b60405190151581526020015b60405180910390f35b61018d610457565b60405161017c9190611425565b6101c36101a8366004611458565b6004602052600090815260409020546001600160a01b031681565b6040516001600160a01b03909116815260200161017c565b6101ee6101e9366004611486565b6104e5565b005b6101ee6101fe3660046114b2565b6105cc565b600754610216906001600160501b031681565b6040516001600160501b03909116815260200161017c565b61023760065481565b60405190815260200161017c565b6101ee6102533660046114cf565b6106dc565b61026b610266366004611510565b6108a3565b604080516001600160a01b03909316835260208301919091520161017c565b6101ee61029836600461158b565b61096d565b6101ee6102ab3660046114cf565b610a7c565b6101c36102be366004611458565b610b74565b6102376102d13660046114b2565b610bcb565b6007546101c390600160501b90046001600160a01b031681565b61018d610c2e565b6101ee610306366004611641565b610c3b565b61031e610319366004611458565b610ca7565b6040805182516001600160a01b0316815260208084015161ffff1690820152918101516001600160501b03169082015260600161017c565b6101ee61036436600461167a565b610d49565b6102376103773660046116ff565b610e31565b6101ee61038a36600461175a565b610ee0565b61018d61039d366004611458565b6110aa565b6008546101c3906001600160a01b031681565b6103f06103c33660046117a1565b6009602052600090815260409020546001600160501b03811690600160501b90046001600160a01b031682565b60405161017c9291906117bc565b61017061040c3660046117de565b600560209081526000928352604080842090915290825290205460ff1681565b60006001600160e01b0319821663152a902d60e11b148061045157506104518261116f565b92915050565b600080546104649061180c565b80601f01602080910402602001604051908101604052809291908181526020018280546104909061180c565b80156104dd5780601f106104b2576101008083540402835291602001916104dd565b820191906000526020600020905b8154815290600101906020018083116104c057829003601f168201915b505050505081565b6000818152600260205260409020546001600160a01b03163381148061052e57506001600160a01b038116600090815260056020908152604080832033845290915290205460ff165b6105705760405162461bcd60e51b815260206004820152600e60248201526d1393d517d055551213d49256915160921b60448201526064015b60405180910390fd5b60008281526004602052604080822080546001600160a01b0319166001600160a01b0387811691821790925591518593918516917f8c5be1e5ebec7d5bd14f71427d1e84f3dd0314c0f7b2291e5b200ac8c7c3b92591a4505050565b6008546007546040516303e1ae2d60e51b81526001600160a01b0390921691637c35c5a09161060b916001600160501b039091169033906004016117bc565b602060405180830381865afa158015610628573d6000803e3d6000fd5b505050506040513d601f19601f8201168201806040525081019061064c9190611846565b6106695760405163ea8e4eb560e01b815260040160405180910390fd5b600780546001600160a01b03838116600160501b8181027fffff0000000000000000000000000000000000000000ffffffffffffffffffff85161790945560405193909204169182907f8be0079c531659141344cd1fd0a4f28419497f9722a3daafe3b4186f6b6457e090600090a35050565b6000818152600260205260409020546001600160a01b038481169116146107325760405162461bcd60e51b815260206004820152600a60248201526957524f4e475f46524f4d60b01b6044820152606401610567565b6001600160a01b03821661077c5760405162461bcd60e51b81526020600482015260116024820152701253959053125117d49150d25412515395607a1b6044820152606401610567565b336001600160a01b03841614806107b657506001600160a01b038316600090815260056020908152604080832033845290915290205460ff165b806107d757506000818152600460205260409020546001600160a01b031633145b6108145760405162461bcd60e51b815260206004820152600e60248201526d1393d517d055551213d49256915160921b6044820152606401610567565b6001600160a01b0380841660008181526003602090815260408083208054600019019055938616808352848320805460010190558583526002825284832080546001600160a01b03199081168317909155600490925284832080549092169091559251849392917fddf252ad1be2c89b69c2b068fc378daa952ba7f163c4a11628f55a4df523b3ef91a4505050565b600082815260026020908152604080832054600160a01b900461ffff168352600982528083208151808301835290546001600160501b0381168252600160501b90046001600160a01b03169281018390529051631b6f4ba160e11b815230600482015260248101869052604481018590528392906336de9742906064016040805180830381865afa15801561093c573d6000803e3d6000fd5b505050506040513d601f19601f820116820180604052508101906109609190611863565b92509250505b9250929050565b600a5460ff16156109905760405162dc149f60e41b815260040160405180910390fd5b61099c60008888611326565b506109a960018686611326565b5060078054600880546001600160a01b0319166001600160a01b03868116919091179091556001600160501b038681166001600160f01b031990931692909217600160501b918516919091021791829055600a805460ff191660011790556040519116907fa9144b9ed3b92620d2a30f70603aa84f1263c8e241bb23c39d367d3c7a89faf890600090a2600754604051600160501b9091046001600160a01b0316906000907f8be0079c531659141344cd1fd0a4f28419497f9722a3daafe3b4186f6b6457e0908290a350505050505050565b610a878383836106dc565b6001600160a01b0382163b1580610b305750604051630a85bd0160e11b8082523360048301526001600160a01b03858116602484015260448301849052608060648401526000608484015290919084169063150b7a029060a4016020604051808303816000875af1158015610b00573d6000803e3d6000fd5b505050506040513d601f19601f82011682018060405250810190610b249190611891565b6001600160e01b031916145b610b6f5760405162461bcd60e51b815260206004820152601060248201526f155394d0519157d49150d2541251539560821b6044820152606401610567565b505050565b6000818152600260205260409020546001600160a01b031680610bc65760405162461bcd60e51b815260206004820152600a6024820152691393d517d3525395115160b21b6044820152606401610567565b919050565b60006001600160a01b038216610c125760405162461bcd60e51b815260206004820152600c60248201526b5a45524f5f4144445245535360a01b6044820152606401610567565b506001600160a01b031660009081526003602052604090205490565b600180546104649061180c565b3360008181526005602090815260408083206001600160a01b03871680855290835292819020805460ff191686151590811790915590519081529192917f17307eab39ab6107e8899845ad3d59bd9653f200f220920489ca2b5937696c31910160405180910390a35050565b604080516060808201835260008083526020808401829052838501829052858252600281529084902084519283018552546001600160a01b038116808452600160a01b820461ffff1692840192909252600160b01b90046001600160501b03169382019390935290916104515760405162461bcd60e51b815260206004820152600a6024820152691393d517d3525395115160b21b6044820152606401610567565b610d548585856106dc565b6001600160a01b0384163b1580610deb5750604051630a85bd0160e11b808252906001600160a01b0386169063150b7a0290610d9c9033908a908990899089906004016118d7565b6020604051808303816000875af1158015610dbb573d6000803e3d6000fd5b505050506040513d601f19601f82011682018060405250810190610ddf9190611891565b6001600160e01b031916145b610e2a5760405162461bcd60e51b815260206004820152601060248201526f155394d0519157d49150d2541251539560821b6044820152606401610567565b5050505050565b61ffff8416600090815260096020526040812054600160501b90046001600160a01b03163314610e745760405163ea8e4eb560e01b815260040160405180910390fd5b600660008154610e8390611916565b91829055509050610e96868287876111bd565b8461ffff16817f1f34a174d45fbef173e7be31603623846730433a51711231cbbd0f46778b0231868686604051610ecf9392919061193d565b60405180910390a395945050505050565b6008546007546040516303e1ae2d60e51b81526001600160a01b0390921691637c35c5a091610f1f916001600160501b039091169033906004016117bc565b602060405180830381865afa158015610f3c573d6000803e3d6000fd5b505050506040513d601f19601f82011682018060405250810190610f609190611846565b610f7d5760405163ea8e4eb560e01b815260040160405180910390fd5b6008546040516303e1ae2d60e51b81526001600160a01b0390911690637c35c5a090610faf90859033906004016117bc565b602060405180830381865afa158015610fcc573d6000803e3d6000fd5b505050506040513d601f19601f82011682018060405250810190610ff09190611846565b61100d5760405163ea8e4eb560e01b815260040160405180910390fd5b6040805180820182526001600160501b038481168083526001600160a01b03858116602080860182815261ffff8b16600081815260098452899020975188549251909516600160501b026001600160f01b031990921694909616939093179290921790945593519283529290917f72d7426e1a09620a8f742d926e525af09879cd00527ba1e10758fea876a74689910160405180910390a3505050565b600081815260026020908152604080832054600160a01b900461ffff16835260098252918290208251808401845290546001600160501b0381168252600160501b90046001600160a01b031691810182905291516305b1feb160e11b8152306004820152602481018490526060929190630b63fd6290604401600060405180830381865afa158015611140573d6000803e3d6000fd5b505050506040513d6000823e601f3d908101601f19168201604052611168919081019061197f565b9392505050565b60006301ffc9a760e01b6001600160e01b0319831614806111a057506380ac58cd60e01b6001600160e01b03198316145b806104515750506001600160e01b031916635b5e139f60e01b1490565b6001600160a01b0384166112075760405162461bcd60e51b81526020600482015260116024820152701253959053125117d49150d25412515395607a1b6044820152606401610567565b6000838152600260205260409020546001600160a01b03161561125d5760405162461bcd60e51b815260206004820152600e60248201526d1053149150511657d3525395115160921b6044820152606401610567565b6001600160a01b03808516600081815260036020908152604080832080546001019055805160608101825284815261ffff8089168285019081526001600160501b03808a168486019081528c885260029096528487209351845492519651909116600160b01b026001600160b01b0396909316600160a01b026001600160b01b0319909216981697909717969096179290921694909417905591518592907fddf252ad1be2c89b69c2b068fc378daa952ba7f163c4a11628f55a4df523b3ef908290a450505050565b8280546113329061180c565b90600052602060002090601f016020900481019282611354576000855561139a565b82601f1061136d5782800160ff1982351617855561139a565b8280016001018555821561139a579182015b8281111561139a57823582559160200191906001019061137f565b506113a69291506113aa565b5090565b5b808211156113a657600081556001016113ab565b6001600160e01b0319811681146113d557600080fd5b50565b6000602082840312156113ea57600080fd5b8135611168816113bf565b60005b838110156114105781810151838201526020016113f8565b8381111561141f576000848401525b50505050565b60208152600082518060208401526114448160408501602087016113f5565b601f01601f19169190910160400192915050565b60006020828403121561146a57600080fd5b5035919050565b6001600160a01b03811681146113d557600080fd5b6000806040838503121561149957600080fd5b82356114a481611471565b946020939093013593505050565b6000602082840312156114c457600080fd5b813561116881611471565b6000806000606084860312156114e457600080fd5b83356114ef81611471565b925060208401356114ff81611471565b929592945050506040919091013590565b6000806040838503121561152357600080fd5b50508035926020909101359150565b60008083601f84011261154457600080fd5b50813567ffffffffffffffff81111561155c57600080fd5b60208301915083602082850101111561096657600080fd5b80356001600160501b0381168114610bc657600080fd5b600080600080600080600060a0888a0312156115a657600080fd5b873567ffffffffffffffff808211156115be57600080fd5b6115ca8b838c01611532565b909950975060208a01359150808211156115e357600080fd5b506115f08a828b01611532565b9096509450611603905060408901611574565b9250606088013561161381611471565b9150608088013561162381611471565b8091505092959891949750929550565b80151581146113d557600080fd5b6000806040838503121561165457600080fd5b823561165f81611471565b9150602083013561166f81611633565b809150509250929050565b60008060008060006080868803121561169257600080fd5b853561169d81611471565b945060208601356116ad81611471565b935060408601359250606086013567ffffffffffffffff8111156116d057600080fd5b6116dc88828901611532565b969995985093965092949392505050565b803561ffff81168114610bc657600080fd5b60008060008060006080868803121561171757600080fd5b853561172281611471565b9450611730602087016116ed565b935061173e60408701611574565b9250606086013567ffffffffffffffff8111156116d057600080fd5b60008060006060848603121561176f57600080fd5b611778846116ed565b925061178660208501611574565b9150604084013561179681611471565b809150509250925092565b6000602082840312156117b357600080fd5b611168826116ed565b6001600160501b039290921682526001600160a01b0316602082015260400190565b600080604083850312156117f157600080fd5b82356117fc81611471565b9150602083013561166f81611471565b600181811c9082168061182057607f821691505b60208210810361184057634e487b7160e01b600052602260045260246000fd5b50919050565b60006020828403121561185857600080fd5b815161116881611633565b6000806040838503121561187657600080fd5b825161188181611471565b6020939093015192949293505050565b6000602082840312156118a357600080fd5b8151611168816113bf565b81835281816020850137506000828201602090810191909152601f909101601f19169091010190565b6001600160a01b038681168252851660208201526040810184905260806060820181905260009061190b90830184866118ae565b979650505050505050565b60006001820161193657634e487b7160e01b600052601160045260246000fd5b5060010190565b6001600160501b03841681526040602082015260006119606040830184866118ae565b95945050505050565b634e487b7160e01b600052604160045260246000fd5b60006020828403121561199157600080fd5b815167ffffffffffffffff808211156119a957600080fd5b818401915084601f8301126119bd57600080fd5b8151818111156119cf576119cf611969565b604051601f8201601f19908116603f011681019083821181831017156119f7576119f7611969565b81604052828152876020848701011115611a1057600080fd5b61190b8360208301602088016113f556fea26469706673582212207051544786c1763dfb671f198298c0e24dadfde4c356561825e48d8edc665d2664736f6c634300080d0033",
  "linkReferences": {},
  "deployedLinkReferences": {}
}