{
  "_format": "hh-sol-artifact-1",
  "contractName": "Catalog",
  "sourceName": "contracts/Catalog.sol",
  "abi": [
    {
      "inputs": [],
      "stateMutability": "nonpayable",
      "type": "constructor"
    },
    {
      "inputs": [],
      "name": "AlreadyInitialized",
      "type": "error"
    },
    {
      "inputs": [],
      "name": "InvalidSequenceConfig",
      "type": "error"
    },
    {
      "inputs": [],
      "name": "NotAuthorized",
      "type": "error"
    },
    {
      "inputs": [],
      "name": "SequenceIsSealed",
      "type": "error"
    },
    {
      "inputs": [],
      "name": "SequenceSupplyExhausted",
      "type": "error"
    },
    {
      "anonymous": false,
      "inputs": [
        {
          "indexed": true,
          "internalType": "address",
          "name": "owner",
          "type": "address"
        },
        {
          "indexed": true,
          "internalType": "address",
          "name": "spender",
          "type": "address"
        },
        {
          "indexed": true,
          "internalType": "uint256",
          "name": "id",
          "type": "uint256"
        }
      ],
      "name": "Approval",
      "type": "event"
    },
    {
      "anonymous": false,
      "inputs": [
        {
          "indexed": true,
          "internalType": "address",
          "name": "owner",
          "type": "address"
        },
        {
          "indexed": true,
          "internalType": "address",
          "name": "operator",
          "type": "address"
        },
        {
          "indexed": false,
          "internalType": "bool",
          "name": "approved",
          "type": "bool"
        }
      ],
      "name": "ApprovalForAll",
      "type": "event"
    },
    {
      "anonymous": false,
      "inputs": [
        {
          "indexed": false,
          "internalType": "string",
          "name": "collectionURI",
          "type": "string"
        }
      ],
      "name": "ContractURIUpdated",
      "type": "event"
    },
    {
      "anonymous": false,
      "inputs": [
        {
          "indexed": true,
          "internalType": "uint80",
          "name": "controlNode",
          "type": "uint80"
        }
      ],
      "name": "ControlNodeSet",
      "type": "event"
    },
    {
      "anonymous": false,
      "inputs": [
        {
          "indexed": true,
          "internalType": "address",
          "name": "previousOwner",
          "type": "address"
        },
        {
          "indexed": true,
          "internalType": "address",
          "name": "newOwner",
          "type": "address"
        }
      ],
      "name": "OwnershipTransferred",
      "type": "event"
    },
    {
      "anonymous": false,
      "inputs": [
        {
          "indexed": true,
          "internalType": "uint256",
          "name": "tokenId",
          "type": "uint256"
        },
        {
          "indexed": true,
          "internalType": "uint16",
          "name": "sequenceId",
          "type": "uint16"
        },
        {
          "indexed": false,
          "internalType": "uint80",
          "name": "data",
          "type": "uint80"
        },
        {
          "indexed": false,
          "internalType": "string",
          "name": "etching",
          "type": "string"
        }
      ],
      "name": "RecordCreated",
      "type": "event"
    },
    {
      "anonymous": false,
      "inputs": [
        {
          "indexed": true,
          "internalType": "uint16",
          "name": "sequenceId",
          "type": "uint16"
        },
        {
          "components": [
            {
              "internalType": "uint80",
              "name": "dropId",
              "type": "uint80"
            },
            {
              "internalType": "contract IEngine",
              "name": "engine",
              "type": "address"
            },
            {
              "internalType": "uint64",
              "name": "sealedBeforeTimestamp",
              "type": "uint64"
            },
            {
              "internalType": "uint64",
              "name": "sealedAfterTimestamp",
              "type": "uint64"
            },
            {
              "internalType": "uint64",
              "name": "maxSupply",
              "type": "uint64"
            },
            {
              "internalType": "uint64",
              "name": "minted",
              "type": "uint64"
            }
          ],
          "indexed": false,
          "internalType": "struct SequenceData",
          "name": "sequenceData",
          "type": "tuple"
        },
        {
          "indexed": false,
          "internalType": "bytes",
          "name": "engineData",
          "type": "bytes"
        }
      ],
      "name": "SequenceConfigured",
      "type": "event"
    },
    {
      "anonymous": false,
      "inputs": [
        {
          "indexed": true,
          "internalType": "address",
          "name": "from",
          "type": "address"
        },
        {
          "indexed": true,
          "internalType": "address",
          "name": "to",
          "type": "address"
        },
        {
          "indexed": true,
          "internalType": "uint256",
          "name": "id",
          "type": "uint256"
        }
      ],
      "name": "Transfer",
      "type": "event"
    },
    {
      "inputs": [
        {
          "internalType": "address",
          "name": "spender",
          "type": "address"
        },
        {
          "internalType": "uint256",
          "name": "id",
          "type": "uint256"
        }
      ],
      "name": "approve",
      "outputs": [],
      "stateMutability": "nonpayable",
      "type": "function"
    },
    {
      "inputs": [
        {
          "internalType": "address",
          "name": "owner",
          "type": "address"
        }
      ],
      "name": "balanceOf",
      "outputs": [
        {
          "internalType": "uint256",
          "name": "",
          "type": "uint256"
        }
      ],
      "stateMutability": "view",
      "type": "function"
    },
    {
      "inputs": [
        {
          "components": [
            {
              "internalType": "uint80",
              "name": "dropId",
              "type": "uint80"
            },
            {
              "internalType": "contract IEngine",
              "name": "engine",
              "type": "address"
            },
            {
              "internalType": "uint64",
              "name": "sealedBeforeTimestamp",
              "type": "uint64"
            },
            {
              "internalType": "uint64",
              "name": "sealedAfterTimestamp",
              "type": "uint64"
            },
            {
              "internalType": "uint64",
              "name": "maxSupply",
              "type": "uint64"
            },
            {
              "internalType": "uint64",
              "name": "minted",
              "type": "uint64"
            }
          ],
          "internalType": "struct SequenceData",
          "name": "_sequence",
          "type": "tuple"
        },
        {
          "internalType": "bytes",
          "name": "_engineData",
          "type": "bytes"
        }
      ],
      "name": "configureSequence",
      "outputs": [],
      "stateMutability": "nonpayable",
      "type": "function"
    },
    {
      "inputs": [],
      "name": "contractURI",
      "outputs": [
        {
          "internalType": "string",
          "name": "",
          "type": "string"
        }
      ],
      "stateMutability": "view",
      "type": "function"
    },
    {
      "inputs": [],
      "name": "controlNode",
      "outputs": [
        {
          "internalType": "uint80",
          "name": "",
          "type": "uint80"
        }
      ],
      "stateMutability": "view",
      "type": "function"
    },
    {
      "inputs": [
        {
          "internalType": "uint256",
          "name": "",
          "type": "uint256"
        }
      ],
      "name": "getApproved",
      "outputs": [
        {
          "internalType": "address",
          "name": "",
          "type": "address"
        }
      ],
      "stateMutability": "view",
      "type": "function"
    },
    {
      "inputs": [
        {
          "internalType": "uint256",
          "name": "id",
          "type": "uint256"
        }
      ],
      "name": "getTokenData",
      "outputs": [
        {
          "components": [
            {
              "internalType": "address",
              "name": "owner",
              "type": "address"
            },
            {
              "internalType": "uint16",
              "name": "sequenceId",
              "type": "uint16"
            },
            {
              "internalType": "uint80",
              "name": "data",
              "type": "uint80"
            }
          ],
          "internalType": "struct TokenData",
          "name": "",
          "type": "tuple"
        }
      ],
      "stateMutability": "view",
      "type": "function"
    },
    {
      "inputs": [
        {
          "internalType": "string",
          "name": "_name",
          "type": "string"
        },
        {
          "internalType": "string",
          "name": "_symbol",
          "type": "string"
        },
        {
          "internalType": "uint80",
          "name": "_controlNode",
          "type": "uint80"
        },
        {
          "internalType": "contract INodeRegistry",
          "name": "_nodeRegistry",
          "type": "address"
        },
        {
          "internalType": "address",
          "name": "_owner",
          "type": "address"
        },
        {
          "internalType": "string",
          "name": "_contractURI",
          "type": "string"
        }
      ],
      "name": "init",
      "outputs": [],
      "stateMutability": "nonpayable",
      "type": "function"
    },
    {
      "inputs": [
        {
          "internalType": "address",
          "name": "",
          "type": "address"
        },
        {
          "internalType": "address",
          "name": "",
          "type": "address"
        }
      ],
      "name": "isApprovedForAll",
      "outputs": [
        {
          "internalType": "bool",
          "name": "",
          "type": "bool"
        }
      ],
      "stateMutability": "view",
      "type": "function"
    },
    {
      "inputs": [
        {
          "internalType": "address",
          "name": "to",
          "type": "address"
        },
        {
          "internalType": "uint16",
          "name": "sequenceId",
          "type": "uint16"
        },
        {
          "internalType": "uint80",
          "name": "tokenData",
          "type": "uint80"
        },
        {
          "internalType": "string",
          "name": "etching",
          "type": "string"
        }
      ],
      "name": "mintRecord",
      "outputs": [
        {
          "internalType": "uint256",
          "name": "tokenId",
          "type": "uint256"
        }
      ],
      "stateMutability": "nonpayable",
      "type": "function"
    },
    {
      "inputs": [],
      "name": "name",
      "outputs": [
        {
          "internalType": "string",
          "name": "",
          "type": "string"
        }
      ],
      "stateMutability": "view",
      "type": "function"
    },
    {
      "inputs": [],
      "name": "nodeRegistry",
      "outputs": [
        {
          "internalType": "contract INodeRegistry",
          "name": "",
          "type": "address"
        }
      ],
      "stateMutability": "view",
      "type": "function"
    },
    {
      "inputs": [],
      "name": "owner",
      "outputs": [
        {
          "internalType": "address",
          "name": "",
          "type": "address"
        }
      ],
      "stateMutability": "view",
      "type": "function"
    },
    {
      "inputs": [
        {
          "internalType": "uint256",
          "name": "id",
          "type": "uint256"
        }
      ],
      "name": "ownerOf",
      "outputs": [
        {
          "internalType": "address",
          "name": "owner",
          "type": "address"
        }
      ],
      "stateMutability": "view",
      "type": "function"
    },
    {
      "inputs": [
        {
          "internalType": "uint256",
          "name": "tokenId",
          "type": "uint256"
        },
        {
          "internalType": "uint256",
          "name": "salePrice",
          "type": "uint256"
        }
      ],
      "name": "royaltyInfo",
      "outputs": [
        {
          "internalType": "address",
          "name": "receiver",
          "type": "address"
        },
        {
          "internalType": "uint256",
          "name": "royaltyAmount",
          "type": "uint256"
        }
      ],
      "stateMutability": "view",
      "type": "function"
    },
    {
      "inputs": [
        {
          "internalType": "address",
          "name": "from",
          "type": "address"
        },
        {
          "internalType": "address",
          "name": "to",
          "type": "address"
        },
        {
          "internalType": "uint256",
          "name": "id",
          "type": "uint256"
        }
      ],
      "name": "safeTransferFrom",
      "outputs": [],
      "stateMutability": "nonpayable",
      "type": "function"
    },
    {
      "inputs": [
        {
          "internalType": "address",
          "name": "from",
          "type": "address"
        },
        {
          "internalType": "address",
          "name": "to",
          "type": "address"
        },
        {
          "internalType": "uint256",
          "name": "id",
          "type": "uint256"
        },
        {
          "internalType": "bytes",
          "name": "data",
          "type": "bytes"
        }
      ],
      "name": "safeTransferFrom",
      "outputs": [],
      "stateMutability": "nonpayable",
      "type": "function"
    },
    {
      "inputs": [],
      "name": "sequenceCount",
      "outputs": [
        {
          "internalType": "uint16",
          "name": "",
          "type": "uint16"
        }
      ],
      "stateMutability": "view",
      "type": "function"
    },
    {
      "inputs": [
        {
          "internalType": "uint16",
          "name": "",
          "type": "uint16"
        }
      ],
      "name": "sequences",
      "outputs": [
        {
          "internalType": "uint80",
          "name": "dropId",
          "type": "uint80"
        },
        {
          "internalType": "contract IEngine",
          "name": "engine",
          "type": "address"
        },
        {
          "internalType": "uint64",
          "name": "sealedBeforeTimestamp",
          "type": "uint64"
        },
        {
          "internalType": "uint64",
          "name": "sealedAfterTimestamp",
          "type": "uint64"
        },
        {
          "internalType": "uint64",
          "name": "maxSupply",
          "type": "uint64"
        },
        {
          "internalType": "uint64",
          "name": "minted",
          "type": "uint64"
        }
      ],
      "stateMutability": "view",
      "type": "function"
    },
    {
      "inputs": [
        {
          "internalType": "address",
          "name": "operator",
          "type": "address"
        },
        {
          "internalType": "bool",
          "name": "approved",
          "type": "bool"
        }
      ],
      "name": "setApprovalForAll",
      "outputs": [],
      "stateMutability": "nonpayable",
      "type": "function"
    },
    {
      "inputs": [
        {
          "internalType": "string",
          "name": "_uri",
          "type": "string"
        }
      ],
      "name": "setContractURI",
      "outputs": [],
      "stateMutability": "nonpayable",
      "type": "function"
    },
    {
      "inputs": [
        {
          "internalType": "uint80",
          "name": "_controlNode",
          "type": "uint80"
        }
      ],
      "name": "setControlNode",
      "outputs": [],
      "stateMutability": "nonpayable",
      "type": "function"
    },
    {
      "inputs": [
        {
          "internalType": "address",
          "name": "_owner",
          "type": "address"
        }
      ],
      "name": "setOwner",
      "outputs": [],
      "stateMutability": "nonpayable",
      "type": "function"
    },
    {
      "inputs": [
        {
          "internalType": "bytes4",
          "name": "interfaceId",
          "type": "bytes4"
        }
      ],
      "name": "supportsInterface",
      "outputs": [
        {
          "internalType": "bool",
          "name": "",
          "type": "bool"
        }
      ],
      "stateMutability": "view",
      "type": "function"
    },
    {
      "inputs": [],
      "name": "symbol",
      "outputs": [
        {
          "internalType": "string",
          "name": "",
          "type": "string"
        }
      ],
      "stateMutability": "view",
      "type": "function"
    },
    {
      "inputs": [
        {
          "internalType": "uint256",
          "name": "tokenId",
          "type": "uint256"
        }
      ],
      "name": "tokenURI",
      "outputs": [
        {
          "internalType": "string",
          "name": "",
          "type": "string"
        }
      ],
      "stateMutability": "view",
      "type": "function"
    },
    {
      "inputs": [],
      "name": "totalSupply",
      "outputs": [
        {
          "internalType": "uint256",
          "name": "",
          "type": "uint256"
        }
      ],
      "stateMutability": "view",
      "type": "function"
    },
    {
      "inputs": [
        {
          "internalType": "address",
          "name": "from",
          "type": "address"
        },
        {
          "internalType": "address",
          "name": "to",
          "type": "address"
        },
        {
          "internalType": "uint256",
          "name": "id",
          "type": "uint256"
        }
      ],
      "name": "transferFrom",
      "outputs": [],
      "stateMutability": "nonpayable",
      "type": "function"
    }
  ],
  "bytecode": "0x60806040523480156200001157600080fd5b5060405180604001604052806007815260200166436174616c6f6760c81b81525060405180604001604052806007815260200166434154414c4f4760c81b81525081600090805190602001906200006a92919062000096565b5080516200008090600190602084019062000096565b5050600b805460ff191660011790555062000178565b828054620000a4906200013c565b90600052602060002090601f016020900481019282620000c8576000855562000113565b82601f10620000e357805160ff191683800117855562000113565b8280016001018555821562000113579182015b8281111562000113578251825591602001919060010190620000f6565b506200012192915062000125565b5090565b5b8082111562000121576000815560010162000126565b600181811c908216806200015157607f821691505b6020821081036200017257634e487b7160e01b600052602260045260246000fd5b50919050565b61239f80620001886000396000f3fe608060405234801561001057600080fd5b50600436106101c45760003560e01c80638da5cb5b116100f9578063bd2868a711610097578063d9b5c4a511610071578063d9b5c4a51461045b578063e8a3d4851461046e578063e8e9099e14610476578063e985e9c51461053157600080fd5b8063bd2868a714610422578063c87b56dd14610435578063d48b48dc1461044857600080fd5b806398c3ee7a116100d357806398c3ee7a1461039e578063a22cb465146103b1578063b09afec1146103c4578063b88d4fde1461040f57600080fd5b80638da5cb5b14610369578063938e3d7b1461038357806395d89b411461039657600080fd5b806323b872dd116101665780632b67b289116101405780632b67b2891461030f57806342842e0e146103305780636352211e1461034357806370a082311461035657600080fd5b806323b872dd146102b757806325e7a62d146102ca5780632a55205a146102dd57600080fd5b8063095ea7b3116101a2578063095ea7b31461024757806313af40351461025c5780631616d2491461026f57806318160ddd146102a057600080fd5b806301ffc9a7146101c957806306fdde03146101f1578063081812fc14610206575b600080fd5b6101dc6101d73660046119c4565b61055f565b60405190151581526020015b60405180910390f35b6101f961058a565b6040516101e89190611a11565b61022f610214366004611a44565b6004602052600090815260409020546001600160a01b031681565b6040516001600160a01b0390911681526020016101e8565b61025a610255366004611a72565b610618565b005b61025a61026a366004611a9e565b6106ff565b600754610288906201000090046001600160501b031681565b6040516001600160501b0390911681526020016101e8565b6102a960065481565b6040519081526020016101e8565b61025a6102c5366004611abb565b610800565b61025a6102d8366004611b3d565b6109c7565b6102f06102eb366004611b97565b610c4c565b604080516001600160a01b0390931683526020830191909152016101e8565b60075461031d9061ffff1681565b60405161ffff90911681526020016101e8565b61025a61033e366004611abb565b610d56565b61022f610351366004611a44565b610e4e565b6102a9610364366004611a9e565b610ea5565b60075461022f90600160601b90046001600160a01b031681565b61025a610391366004611bb9565b610f08565b6101f9610ff4565b61025a6103ac366004611c0f565b611001565b61025a6103bf366004611c3a565b6110fa565b6103d76103d2366004611a44565b611166565b6040805182516001600160a01b0316815260208084015161ffff1690820152918101516001600160501b0316908201526060016101e8565b61025a61041d366004611c73565b611208565b6102a9610430366004611cf7565b6112f0565b6101f9610443366004611a44565b611510565b61025a610456366004611d53565b611617565b60085461022f906001600160a01b031681565b6101f961174e565b6104e1610484366004611e2c565b600960205260009081526040902080546001909101546001600160501b03821691600160501b90046001600160a01b0316906001600160401b0380821691600160401b8104821691600160801b8204811691600160c01b90041686565b604080516001600160501b0390971687526001600160a01b0390951660208701526001600160401b03938416948601949094529082166060850152811660808401521660a082015260c0016101e8565b6101dc61053f366004611e47565b600560209081526000928352604080842090915290825290205460ff1681565b60006001600160e01b0319821663152a902d60e11b148061058457506105848261175b565b92915050565b6000805461059790611e75565b80601f01602080910402602001604051908101604052809291908181526020018280546105c390611e75565b80156106105780601f106105e557610100808354040283529160200191610610565b820191906000526020600020905b8154815290600101906020018083116105f357829003601f168201915b505050505081565b6000818152600260205260409020546001600160a01b03163381148061066157506001600160a01b038116600090815260056020908152604080832033845290915290205460ff165b6106a35760405162461bcd60e51b815260206004820152600e60248201526d1393d517d055551213d49256915160921b60448201526064015b60405180910390fd5b60008281526004602052604080822080546001600160a01b0319166001600160a01b0387811691821790925591518593918516917f8c5be1e5ebec7d5bd14f71427d1e84f3dd0314c0f7b2291e5b200ac8c7c3b92591a4505050565b6008546007546040516303e1ae2d60e51b81526001600160a01b0390921691637c35c5a09161074391620100009091046001600160501b0316903390600401611eaf565b602060405180830381865afa158015610760573d6000803e3d6000fd5b505050506040513d601f19601f820116820180604052508101906107849190611ed1565b6107a15760405163ea8e4eb560e01b815260040160405180910390fd5b600780546001600160a01b03838116600160601b8181026bffffffffffffffffffffffff85161790945560405193909204169182907f8be0079c531659141344cd1fd0a4f28419497f9722a3daafe3b4186f6b6457e090600090a35050565b6000818152600260205260409020546001600160a01b038481169116146108565760405162461bcd60e51b815260206004820152600a60248201526957524f4e475f46524f4d60b01b604482015260640161069a565b6001600160a01b0382166108a05760405162461bcd60e51b81526020600482015260116024820152701253959053125117d49150d25412515395607a1b604482015260640161069a565b336001600160a01b03841614806108da57506001600160a01b038316600090815260056020908152604080832033845290915290205460ff165b806108fb57506000818152600460205260409020546001600160a01b031633145b6109385760405162461bcd60e51b815260206004820152600e60248201526d1393d517d055551213d49256915160921b604482015260640161069a565b6001600160a01b0380841660008181526003602090815260408083208054600019019055938616808352848320805460010190558583526002825284832080546001600160a01b03199081168317909155600490925284832080549092169091559251849392917fddf252ad1be2c89b69c2b068fc378daa952ba7f163c4a11628f55a4df523b3ef91a4505050565b6008546007546040516303e1ae2d60e51b81526001600160a01b0390921691637c35c5a091610a0b91620100009091046001600160501b0316903390600401611eaf565b602060405180830381865afa158015610a28573d6000803e3d6000fd5b505050506040513d601f19601f82011682018060405250810190610a4c9190611ed1565b610a695760405163ea8e4eb560e01b815260040160405180910390fd5b60078054600091908290610a809061ffff16611f04565b825461ffff8083166101009490940a93840293021916919091179091556008549091506001600160a01b0316637c35c5a0610abe6020870187611c0f565b336040518363ffffffff1660e01b8152600401610adc929190611eaf565b602060405180830381865afa158015610af9573d6000803e3d6000fd5b505050506040513d601f19601f82011682018060405250810190610b1d9190611ed1565b610b3a5760405163ea8e4eb560e01b815260040160405180910390fd5b610b4a60c0850160a08601611f3a565b6001600160401b031615610b7157604051631a359c9b60e01b815260040160405180910390fd5b610b816040850160208601611a9e565b6001600160a01b03166325ba9282828686866040518563ffffffff1660e01b8152600401610bb2949392919061201b565b600060405180830381600087803b158015610bcc57600080fd5b505af1158015610be0573d6000803e3d6000fd5b50505061ffff82166000908152600960205260409020859150610c03828261205f565b9050508061ffff167fc2cd2048687a9c80f95ed5b2da8801cbd8f9202eabd9974606938c058bf9cda0858585604051610c3e93929190612195565b60405180910390a250505050565b600082815260026020908152604080832054600160a01b900461ffff16835260098252808320815160c08101835281546001600160501b0381168252600160501b90046001600160a01b03169381018490526001909101546001600160401b0380821683850152600160401b820481166060840152600160801b820481166080840152600160c01b9091041660a08201529051631b6f4ba160e11b815230600482015260248101869052604481018590528392906336de9742906064016040805180830381865afa158015610d25573d6000803e3d6000fd5b505050506040513d601f19601f82011682018060405250810190610d4991906121bf565b92509250505b9250929050565b610d61838383610800565b6001600160a01b0382163b1580610e0a5750604051630a85bd0160e11b8082523360048301526001600160a01b03858116602484015260448301849052608060648401526000608484015290919084169063150b7a029060a4016020604051808303816000875af1158015610dda573d6000803e3d6000fd5b505050506040513d601f19601f82011682018060405250810190610dfe91906121ed565b6001600160e01b031916145b610e495760405162461bcd60e51b815260206004820152601060248201526f155394d0519157d49150d2541251539560821b604482015260640161069a565b505050565b6000818152600260205260409020546001600160a01b031680610ea05760405162461bcd60e51b815260206004820152600a6024820152691393d517d3525395115160b21b604482015260640161069a565b919050565b60006001600160a01b038216610eec5760405162461bcd60e51b815260206004820152600c60248201526b5a45524f5f4144445245535360a01b604482015260640161069a565b506001600160a01b031660009081526003602052604090205490565b6008546007546040516303e1ae2d60e51b81526001600160a01b0390921691637c35c5a091610f4c91620100009091046001600160501b0316903390600401611eaf565b602060405180830381865afa158015610f69573d6000803e3d6000fd5b505050506040513d601f19601f82011682018060405250810190610f8d9190611ed1565b610faa5760405163ea8e4eb560e01b815260040160405180910390fd5b610fb6600a8383611912565b507f905d981207a7d0b6c62cc46ab0be2a076d0298e4a86d0ab79882dbd01ac373788282604051610fe892919061220a565b60405180910390a15050565b6001805461059790611e75565b6008546007546040516303e1ae2d60e51b81526001600160a01b0390921691637c35c5a09161104591620100009091046001600160501b0316903390600401611eaf565b602060405180830381865afa158015611062573d6000803e3d6000fd5b505050506040513d601f19601f820116820180604052508101906110869190611ed1565b6110a35760405163ea8e4eb560e01b815260040160405180910390fd5b600780546bffffffffffffffffffff00001916620100006001600160501b038416908102919091179091556040517fa9144b9ed3b92620d2a30f70603aa84f1263c8e241bb23c39d367d3c7a89faf890600090a250565b3360008181526005602090815260408083206001600160a01b03871680855290835292819020805460ff191686151590811790915590519081529192917f17307eab39ab6107e8899845ad3d59bd9653f200f220920489ca2b5937696c31910160405180910390a35050565b604080516060808201835260008083526020808401829052838501829052858252600281529084902084519283018552546001600160a01b038116808452600160a01b820461ffff1692840192909252600160b01b90046001600160501b03169382019390935290916105845760405162461bcd60e51b815260206004820152600a6024820152691393d517d3525395115160b21b604482015260640161069a565b611213858585610800565b6001600160a01b0384163b15806112aa5750604051630a85bd0160e11b808252906001600160a01b0386169063150b7a029061125b9033908a90899089908990600401612226565b6020604051808303816000875af115801561127a573d6000803e3d6000fd5b505050506040513d601f19601f8201168201806040525081019061129e91906121ed565b6001600160e01b031916145b6112e95760405162461bcd60e51b815260206004820152601060248201526f155394d0519157d49150d2541251539560821b604482015260640161069a565b5050505050565b61ffff84166000908152600960209081526040808320815160c08101835281546001600160501b0381168252600160501b90046001600160a01b03169381018490526001909101546001600160401b0380821693830193909352600160401b810483166060830152600160801b810483166080830152600160c01b900490911660a08201529033146113955760405163ea8e4eb560e01b815260040160405180910390fd5b80604001516001600160401b03164210806113d55750600081606001516001600160401b03161180156113d5575080606001516001600160401b03164210155b156113f3576040516317444c4d60e01b815260040160405180910390fd5b600081608001516001600160401b031611801561142a575080608001516001600160401b03168160a001516001600160401b031610155b1561144857604051633373ce0b60e21b815260040160405180910390fd5b6006600081546114579061225a565b918290555061ffff871660009081526009602052604090206001018054919350600160c01b9091046001600160401b031690601861149483612273565b91906101000a8154816001600160401b0302191690836001600160401b03160217905550506114c5878388886117a9565b8561ffff16827f1f34a174d45fbef173e7be31603623846730433a51711231cbbd0f46778b02318787876040516114fe9392919061228f565b60405180910390a35095945050505050565b600081815260026020908152604080832054600160a01b900461ffff1683526009825291829020825160c08101845281546001600160501b0381168252600160501b90046001600160a01b03169281018390526001909101546001600160401b0380821683860152600160401b82048116606080850191909152600160801b830482166080850152600160c01b9092041660a083015292516305b1feb160e11b815230600482015260248101859052909190630b63fd6290604401600060405180830381865afa1580156115e8573d6000803e3d6000fd5b505050506040513d6000823e601f3d908101601f1916820160405261161091908101906122c8565b9392505050565b600b5460ff161561163a5760405162dc149f60e41b815260040160405180910390fd5b600b805460ff1916600117905561165360008a8a611912565b5061166060018888611912565b50600880546001600160a01b0319166001600160a01b03868116919091179091556007805461ffff16620100006001600160501b038916026bffffffffffffffffffffffff1617600160601b928616929092029190911790556116c5600a8383611912565b50600754604051620100009091046001600160501b0316907fa9144b9ed3b92620d2a30f70603aa84f1263c8e241bb23c39d367d3c7a89faf890600090a2600754604051600160601b9091046001600160a01b0316906000907f8be0079c531659141344cd1fd0a4f28419497f9722a3daafe3b4186f6b6457e0908290a3505050505050505050565b600a805461059790611e75565b60006301ffc9a760e01b6001600160e01b03198316148061178c57506380ac58cd60e01b6001600160e01b03198316145b806105845750506001600160e01b031916635b5e139f60e01b1490565b6001600160a01b0384166117f35760405162461bcd60e51b81526020600482015260116024820152701253959053125117d49150d25412515395607a1b604482015260640161069a565b6000838152600260205260409020546001600160a01b0316156118495760405162461bcd60e51b815260206004820152600e60248201526d1053149150511657d3525395115160921b604482015260640161069a565b6001600160a01b03808516600081815260036020908152604080832080546001019055805160608101825284815261ffff8089168285019081526001600160501b03808a168486019081528c885260029096528487209351845492519651909116600160b01b026001600160b01b0396909316600160a01b026001600160b01b0319909216981697909717969096179290921694909417905591518592907fddf252ad1be2c89b69c2b068fc378daa952ba7f163c4a11628f55a4df523b3ef908290a450505050565b82805461191e90611e75565b90600052602060002090601f0160209004810192826119405760008555611986565b82601f106119595782800160ff19823516178555611986565b82800160010185558215611986579182015b8281111561198657823582559160200191906001019061196b565b50611992929150611996565b5090565b5b808211156119925760008155600101611997565b6001600160e01b0319811681146119c157600080fd5b50565b6000602082840312156119d657600080fd5b8135611610816119ab565b60005b838110156119fc5781810151838201526020016119e4565b83811115611a0b576000848401525b50505050565b6020815260008251806020840152611a308160408501602087016119e1565b601f01601f19169190910160400192915050565b600060208284031215611a5657600080fd5b5035919050565b6001600160a01b03811681146119c157600080fd5b60008060408385031215611a8557600080fd5b8235611a9081611a5d565b946020939093013593505050565b600060208284031215611ab057600080fd5b813561161081611a5d565b600080600060608486031215611ad057600080fd5b8335611adb81611a5d565b92506020840135611aeb81611a5d565b929592945050506040919091013590565b60008083601f840112611b0e57600080fd5b5081356001600160401b03811115611b2557600080fd5b602083019150836020828501011115610d4f57600080fd5b600080600083850360e0811215611b5357600080fd5b60c0811215611b6157600080fd5b5083925060c08401356001600160401b03811115611b7e57600080fd5b611b8a86828701611afc565b9497909650939450505050565b60008060408385031215611baa57600080fd5b50508035926020909101359150565b60008060208385031215611bcc57600080fd5b82356001600160401b03811115611be257600080fd5b611bee85828601611afc565b90969095509350505050565b6001600160501b03811681146119c157600080fd5b600060208284031215611c2157600080fd5b813561161081611bfa565b80151581146119c157600080fd5b60008060408385031215611c4d57600080fd5b8235611c5881611a5d565b91506020830135611c6881611c2c565b809150509250929050565b600080600080600060808688031215611c8b57600080fd5b8535611c9681611a5d565b94506020860135611ca681611a5d565b93506040860135925060608601356001600160401b03811115611cc857600080fd5b611cd488828901611afc565b969995985093965092949392505050565b803561ffff81168114610ea057600080fd5b600080600080600060808688031215611d0f57600080fd5b8535611d1a81611a5d565b9450611d2860208701611ce5565b93506040860135611d3881611bfa565b925060608601356001600160401b03811115611cc857600080fd5b600080600080600080600080600060c08a8c031215611d7157600080fd5b89356001600160401b0380821115611d8857600080fd5b611d948d838e01611afc565b909b50995060208c0135915080821115611dad57600080fd5b611db98d838e01611afc565b909950975060408c01359150611dce82611bfa565b90955060608b013590611de082611a5d565b90945060808b013590611df282611a5d565b90935060a08b01359080821115611e0857600080fd5b50611e158c828d01611afc565b915080935050809150509295985092959850929598565b600060208284031215611e3e57600080fd5b61161082611ce5565b60008060408385031215611e5a57600080fd5b8235611e6581611a5d565b91506020830135611c6881611a5d565b600181811c90821680611e8957607f821691505b602082108103611ea957634e487b7160e01b600052602260045260246000fd5b50919050565b6001600160501b039290921682526001600160a01b0316602082015260400190565b600060208284031215611ee357600080fd5b815161161081611c2c565b634e487b7160e01b600052601160045260246000fd5b600061ffff808316818103611f1b57611f1b611eee565b6001019392505050565b6001600160401b03811681146119c157600080fd5b600060208284031215611f4c57600080fd5b813561161081611f25565b8035611f6281611bfa565b6001600160501b031682526020810135611f7b81611a5d565b6001600160a01b031660208301526040810135611f9781611f25565b6001600160401b039081166040840152606082013590611fb682611f25565b9081166060840152608082013590611fcd82611f25565b908116608084015260a082013590611fe482611f25565b80821660a085015250505050565b81835281816020850137506000828201602090810191909152601f909101601f19169091010190565b600061010061ffff871683526120346020840187611f57565b8060e08401526120478184018587611ff2565b979650505050505050565b6000813561058481611f25565b813561206a81611bfa565b6001600160501b03811690508154816001600160501b03198216178355602084013561209581611a5d565b6001600160f01b03199190911690911760509190911b600160501b600160f01b03161781556001810160408301356120cc81611f25565b6001600160401b0381166001600160401b0319835416178255506121276120f560608501612052565b82546fffffffffffffffff0000000000000000191660409190911b6fffffffffffffffff000000000000000016178255565b61216261213660808501612052565b82805467ffffffffffffffff60801b191660809290921b67ffffffffffffffff60801b16919091179055565b610e4961217160a08501612052565b8280546001600160c01b031660c09290921b6001600160c01b031916919091179055565b61219f8185611f57565b60e060c082015260006121b660e083018486611ff2565b95945050505050565b600080604083850312156121d257600080fd5b82516121dd81611a5d565b6020939093015192949293505050565b6000602082840312156121ff57600080fd5b8151611610816119ab565b60208152600061221e602083018486611ff2565b949350505050565b6001600160a01b03868116825285166020820152604081018490526080606082018190526000906120479083018486611ff2565b60006001820161226c5761226c611eee565b5060010190565b60006001600160401b03808316818103611f1b57611f1b611eee565b6001600160501b03841681526040602082015260006121b6604083018486611ff2565b634e487b7160e01b600052604160045260246000fd5b6000602082840312156122da57600080fd5b81516001600160401b03808211156122f157600080fd5b818401915084601f83011261230557600080fd5b815181811115612317576123176122b2565b604051601f8201601f19908116603f0116810190838211818310171561233f5761233f6122b2565b8160405282815287602084870101111561235857600080fd5b6120478360208301602088016119e156fea264697066735822122015fba2c47d7991bacc54cfa65d1a148ff81748e9ed142cacea1ce008ff0c85bf64736f6c634300080d0033",
  "linkReferences": {},
  "deployedLinkReferences": {}
}