{
  "_format": "hh-sol-artifact-1",
  "contractName": "CatalogFactory",
  "sourceName": "contracts/CatalogFactory.sol",
  "abi": [
    {
      "inputs": [
        {
          "internalType": "contract INodeRegistry",
          "name": "_nodeRegsitry",
          "type": "address"
        },
        {
          "internalType": "contract Catalog",
          "name": "_implementation",
          "type": "address"
        }
      ],
      "stateMutability": "nonpayable",
      "type": "constructor"
    },
    {
      "inputs": [],
      "name": "NotAuthorized",
      "type": "error"
    },
    {
      "anonymous": false,
      "inputs": [
        {
          "indexed": true,
          "internalType": "address",
          "name": "catalog",
          "type": "address"
        },
        {
          "indexed": false,
          "internalType": "string",
          "name": "name",
          "type": "string"
        },
        {
          "indexed": false,
          "internalType": "string",
          "name": "symbol",
          "type": "string"
        }
      ],
      "name": "CatalogCreated",
      "type": "event"
    },
    {
      "inputs": [
        {
          "internalType": "string",
          "name": "name",
          "type": "string"
        },
        {
          "internalType": "string",
          "name": "symbol",
          "type": "string"
        },
        {
          "internalType": "uint80",
          "name": "controlNode",
          "type": "uint80"
        },
        {
          "internalType": "address",
          "name": "owner",
          "type": "address"
        }
      ],
      "name": "createCatalog",
      "outputs": [
        {
          "internalType": "contract Catalog",
          "name": "catalog",
          "type": "address"
        }
      ],
      "stateMutability": "nonpayable",
      "type": "function"
    },
    {
      "inputs": [],
      "name": "implementation",
      "outputs": [
        {
          "internalType": "contract Catalog",
          "name": "",
          "type": "address"
        }
      ],
      "stateMutability": "view",
      "type": "function"
    },
    {
      "inputs": [],
      "name": "nodeRegistry",
      "outputs": [
        {
          "internalType": "contract INodeRegistry",
          "name": "",
          "type": "address"
        }
      ],
      "stateMutability": "view",
      "type": "function"
    }
  ],
  "bytecode": "0x60c060405234801561001057600080fd5b5060405161060438038061060483398101604081905261002f9161005e565b6001600160a01b039081166080521660a052610098565b6001600160a01b038116811461005b57600080fd5b50565b6000806040838503121561007157600080fd5b825161007c81610046565b602084015190925061008d81610046565b809150509250929050565b60805160a0516105356100cf6000396000818160a10152818160ed01526101d7015260008181607a015261018201526105356000f3fe608060405234801561001057600080fd5b50600436106100415760003560e01c80633e6a34a2146100465780635c60da1b14610075578063d9b5c4a51461009c575b600080fd5b61005961005436600461036e565b6100c3565b6040516001600160a01b03909116815260200160405180910390f35b6100597f000000000000000000000000000000000000000000000000000000000000000081565b6100597f000000000000000000000000000000000000000000000000000000000000000081565b6040516303e1ae2d60e51b815269ffffffffffffffffffff831660048201523360248201526000907f00000000000000000000000000000000000000000000000000000000000000006001600160a01b031690637c35c5a090604401602060405180830381865afa15801561013c573d6000803e3d6000fd5b505050506040513d601f19601f82011682018060405250810190610160919061041e565b61017d5760405163ea8e4eb560e01b815260040160405180910390fd5b6101a67f0000000000000000000000000000000000000000000000000000000000000000610284565b6040516305f73c9160e31b81529091506001600160a01b03821690632fb9e48890610201908a908a908a908a908a907f0000000000000000000000000000000000000000000000000000000000000000908b90600401610470565b600060405180830381600087803b15801561021b57600080fd5b505af115801561022f573d6000803e3d6000fd5b50505050806001600160a01b03167f0a30a1dd9feb65e8d2f4ed3a5695f07c7d35e82675a0653c5b713f258a1aa8698888888860405161027294939291906104cd565b60405180910390a29695505050505050565b6000604051733d602d80600a3d3981f3363d3d373d3d3d363d7360601b81528260601b60148201526e5af43d82803e903d91602b57fd5bf360881b60288201526037816000f09150506001600160a01b0381166103205760405162461bcd60e51b8152602060048201526016602482015275115490cc4c4d8dce8818dc99585d194819985a5b195960521b604482015260640160405180910390fd5b919050565b60008083601f84011261033757600080fd5b50813567ffffffffffffffff81111561034f57600080fd5b60208301915083602082850101111561036757600080fd5b9250929050565b6000806000806000806080878903121561038757600080fd5b863567ffffffffffffffff8082111561039f57600080fd5b6103ab8a838b01610325565b909850965060208901359150808211156103c457600080fd5b506103d189828a01610325565b909550935050604087013569ffffffffffffffffffff811681146103f457600080fd5b915060608701356001600160a01b038116811461041057600080fd5b809150509295509295509295565b60006020828403121561043057600080fd5b8151801515811461044057600080fd5b9392505050565b81835281816020850137506000828201602090810191909152601f909101601f19169091010190565b60a08152600061048460a08301898b610447565b828103602084015261049781888a610447565b69ffffffffffffffffffff96909616604084015250506001600160a01b0392831660608201529116608090910152949350505050565b6040815260006104e1604083018688610447565b82810360208401526104f4818587610447565b97965050505050505056fea2646970667358221220a95a8ec7718313702981b2176f6e6ba038cc286ab41326b94f5ce7718e7b042664736f6c634300080d0033",
  "linkReferences": {},
  "deployedLinkReferences": {}
}