{
  "_format": "hh-sol-artifact-1",
  "contractName": "CatalogFactory",
  "sourceName": "contracts/CatalogFactory.sol",
  "abi": [
    {
      "inputs": [
        {
          "internalType": "contract INodeRegistry",
          "name": "_nodeRegsitry",
          "type": "address"
        },
        {
          "internalType": "contract Catalog",
          "name": "_implementation",
          "type": "address"
        }
      ],
      "stateMutability": "nonpayable",
      "type": "constructor"
    },
    {
      "inputs": [],
      "name": "NotAuthorized",
      "type": "error"
    },
    {
      "anonymous": false,
      "inputs": [
        {
          "indexed": true,
          "internalType": "address",
          "name": "catalog",
          "type": "address"
        },
        {
          "indexed": false,
          "internalType": "string",
          "name": "name",
          "type": "string"
        },
        {
          "indexed": false,
          "internalType": "string",
          "name": "symbol",
          "type": "string"
        }
      ],
      "name": "CatalogCreated",
      "type": "event"
    },
    {
      "inputs": [
        {
          "internalType": "string",
          "name": "name",
          "type": "string"
        },
        {
          "internalType": "string",
          "name": "symbol",
          "type": "string"
        },
        {
          "internalType": "uint80",
          "name": "controlNode",
          "type": "uint80"
        },
        {
          "internalType": "address",
          "name": "owner",
          "type": "address"
        },
        {
          "internalType": "string",
          "name": "collectionURI",
          "type": "string"
        }
      ],
      "name": "createCatalog",
      "outputs": [
        {
          "internalType": "contract Catalog",
          "name": "catalog",
          "type": "address"
        }
      ],
      "stateMutability": "nonpayable",
      "type": "function"
    },
    {
      "inputs": [],
      "name": "implementation",
      "outputs": [
        {
          "internalType": "contract Catalog",
          "name": "",
          "type": "address"
        }
      ],
      "stateMutability": "view",
      "type": "function"
    },
    {
      "inputs": [],
      "name": "nodeRegistry",
      "outputs": [
        {
          "internalType": "contract INodeRegistry",
          "name": "",
          "type": "address"
        }
      ],
      "stateMutability": "view",
      "type": "function"
    }
  ],
  "bytecode": "0x60c060405234801561001057600080fd5b5060405161065038038061065083398101604081905261002f9161005e565b6001600160a01b039081166080521660a052610098565b6001600160a01b038116811461005b57600080fd5b50565b6000806040838503121561007157600080fd5b825161007c81610046565b602084015190925061008d81610046565b809150509250929050565b60805160a0516105816100cf6000396000818160a10152818160ed01526101d7015260008181607a015261018201526105816000f3fe608060405234801561001057600080fd5b50600436106100415760003560e01c80633e21d864146100465780635c60da1b14610075578063d9b5c4a51461009c575b600080fd5b610059610054366004610374565b6100c3565b6040516001600160a01b03909116815260200160405180910390f35b6100597f000000000000000000000000000000000000000000000000000000000000000081565b6100597f000000000000000000000000000000000000000000000000000000000000000081565b6040516303e1ae2d60e51b815269ffffffffffffffffffff851660048201523360248201526000907f00000000000000000000000000000000000000000000000000000000000000006001600160a01b031690637c35c5a090604401602060405180830381865afa15801561013c573d6000803e3d6000fd5b505050506040513d601f19601f820116820180604052508101906101609190610452565b61017d5760405163ea8e4eb560e01b815260040160405180910390fd5b6101a67f000000000000000000000000000000000000000000000000000000000000000061028a565b604051633522d23760e21b81529091506001600160a01b0382169063d48b48dc90610205908c908c908c908c908c907f0000000000000000000000000000000000000000000000000000000000000000908d908d908d906004016104a4565b600060405180830381600087803b15801561021f57600080fd5b505af1158015610233573d6000803e3d6000fd5b50505050806001600160a01b03167f0a30a1dd9feb65e8d2f4ed3a5695f07c7d35e82675a0653c5b713f258a1aa8698a8a8a8a6040516102769493929190610519565b60405180910390a298975050505050505050565b6000604051733d602d80600a3d3981f3363d3d373d3d3d363d7360601b81528260601b60148201526e5af43d82803e903d91602b57fd5bf360881b60288201526037816000f09150506001600160a01b0381166103265760405162461bcd60e51b8152602060048201526016602482015275115490cc4c4d8dce8818dc99585d194819985a5b195960521b604482015260640160405180910390fd5b919050565b60008083601f84011261033d57600080fd5b50813567ffffffffffffffff81111561035557600080fd5b60208301915083602082850101111561036d57600080fd5b9250929050565b60008060008060008060008060a0898b03121561039057600080fd5b883567ffffffffffffffff808211156103a857600080fd5b6103b48c838d0161032b565b909a50985060208b01359150808211156103cd57600080fd5b6103d98c838d0161032b565b909850965060408b0135915069ffffffffffffffffffff821682146103fd57600080fd5b90945060608a0135906001600160a01b038216821461041b57600080fd5b90935060808a0135908082111561043157600080fd5b5061043e8b828c0161032b565b999c989b5096995094979396929594505050565b60006020828403121561046457600080fd5b8151801515811461047457600080fd5b9392505050565b81835281816020850137506000828201602090810191909152601f909101601f19169091010190565b60c0815260006104b860c083018b8d61047b565b82810360208401526104cb818a8c61047b565b69ffffffffffffffffffff891660408501526001600160a01b0388811660608601528716608085015283810360a0850152905061050981858761047b565b9c9b505050505050505050505050565b60408152600061052d60408301868861047b565b828103602084015261054081858761047b565b97965050505050505056fea2646970667358221220e1e83067ebaab56801d24e54b6342d42d90a3b75c666f6b502c0ed0945f00cf864736f6c634300080d0033",
  "linkReferences": {},
  "deployedLinkReferences": {}
}