{
  "_format": "hh-sol-artifact-1",
  "contractName": "Catalog",
  "sourceName": "contracts/Catalog.sol",
  "abi": [
    {
      "inputs": [],
      "stateMutability": "nonpayable",
      "type": "constructor"
    },
    {
      "inputs": [],
      "name": "AlreadyInitialized",
      "type": "error"
    },
    {
      "inputs": [],
      "name": "InvalidSequenceConfig",
      "type": "error"
    },
    {
      "inputs": [],
      "name": "NotAuthorized",
      "type": "error"
    },
    {
      "inputs": [],
      "name": "SequenceIsSealed",
      "type": "error"
    },
    {
      "inputs": [],
      "name": "SequenceSupplyExhausted",
      "type": "error"
    },
    {
      "anonymous": false,
      "inputs": [
        {
          "indexed": true,
          "internalType": "address",
          "name": "owner",
          "type": "address"
        },
        {
          "indexed": true,
          "internalType": "address",
          "name": "spender",
          "type": "address"
        },
        {
          "indexed": true,
          "internalType": "uint256",
          "name": "id",
          "type": "uint256"
        }
      ],
      "name": "Approval",
      "type": "event"
    },
    {
      "anonymous": false,
      "inputs": [
        {
          "indexed": true,
          "internalType": "address",
          "name": "owner",
          "type": "address"
        },
        {
          "indexed": true,
          "internalType": "address",
          "name": "operator",
          "type": "address"
        },
        {
          "indexed": false,
          "internalType": "bool",
          "name": "approved",
          "type": "bool"
        }
      ],
      "name": "ApprovalForAll",
      "type": "event"
    },
    {
      "anonymous": false,
      "inputs": [
        {
          "indexed": true,
          "internalType": "uint80",
          "name": "controlNode",
          "type": "uint80"
        }
      ],
      "name": "ControlNodeSet",
      "type": "event"
    },
    {
      "anonymous": false,
      "inputs": [
        {
          "indexed": true,
          "internalType": "address",
          "name": "previousOwner",
          "type": "address"
        },
        {
          "indexed": true,
          "internalType": "address",
          "name": "newOwner",
          "type": "address"
        }
      ],
      "name": "OwnershipTransferred",
      "type": "event"
    },
    {
      "anonymous": false,
      "inputs": [
        {
          "indexed": true,
          "internalType": "uint256",
          "name": "tokenId",
          "type": "uint256"
        },
        {
          "indexed": true,
          "internalType": "uint16",
          "name": "sequenceId",
          "type": "uint16"
        },
        {
          "indexed": false,
          "internalType": "uint80",
          "name": "data",
          "type": "uint80"
        },
        {
          "indexed": false,
          "internalType": "string",
          "name": "etching",
          "type": "string"
        }
      ],
      "name": "RecordCreated",
      "type": "event"
    },
    {
      "anonymous": false,
      "inputs": [
        {
          "indexed": true,
          "internalType": "uint16",
          "name": "sequenceId",
          "type": "uint16"
        },
        {
          "components": [
            {
              "internalType": "uint80",
              "name": "dropId",
              "type": "uint80"
            },
            {
              "internalType": "contract IEngine",
              "name": "engine",
              "type": "address"
            },
            {
              "internalType": "uint64",
              "name": "sealedBeforeTimestamp",
              "type": "uint64"
            },
            {
              "internalType": "uint64",
              "name": "sealedAfterTimestamp",
              "type": "uint64"
            },
            {
              "internalType": "uint64",
              "name": "maxSupply",
              "type": "uint64"
            },
            {
              "internalType": "uint64",
              "name": "minted",
              "type": "uint64"
            }
          ],
          "indexed": false,
          "internalType": "struct SequenceData",
          "name": "sequenceData",
          "type": "tuple"
        },
        {
          "indexed": false,
          "internalType": "bytes",
          "name": "engineData",
          "type": "bytes"
        }
      ],
      "name": "SequenceConfigured",
      "type": "event"
    },
    {
      "anonymous": false,
      "inputs": [
        {
          "indexed": true,
          "internalType": "address",
          "name": "from",
          "type": "address"
        },
        {
          "indexed": true,
          "internalType": "address",
          "name": "to",
          "type": "address"
        },
        {
          "indexed": true,
          "internalType": "uint256",
          "name": "id",
          "type": "uint256"
        }
      ],
      "name": "Transfer",
      "type": "event"
    },
    {
      "inputs": [
        {
          "internalType": "address",
          "name": "spender",
          "type": "address"
        },
        {
          "internalType": "uint256",
          "name": "id",
          "type": "uint256"
        }
      ],
      "name": "approve",
      "outputs": [],
      "stateMutability": "nonpayable",
      "type": "function"
    },
    {
      "inputs": [
        {
          "internalType": "address",
          "name": "owner",
          "type": "address"
        }
      ],
      "name": "balanceOf",
      "outputs": [
        {
          "internalType": "uint256",
          "name": "",
          "type": "uint256"
        }
      ],
      "stateMutability": "view",
      "type": "function"
    },
    {
      "inputs": [
        {
          "components": [
            {
              "internalType": "uint80",
              "name": "dropId",
              "type": "uint80"
            },
            {
              "internalType": "contract IEngine",
              "name": "engine",
              "type": "address"
            },
            {
              "internalType": "uint64",
              "name": "sealedBeforeTimestamp",
              "type": "uint64"
            },
            {
              "internalType": "uint64",
              "name": "sealedAfterTimestamp",
              "type": "uint64"
            },
            {
              "internalType": "uint64",
              "name": "maxSupply",
              "type": "uint64"
            },
            {
              "internalType": "uint64",
              "name": "minted",
              "type": "uint64"
            }
          ],
          "internalType": "struct SequenceData",
          "name": "_sequence",
          "type": "tuple"
        },
        {
          "internalType": "bytes",
          "name": "_engineData",
          "type": "bytes"
        }
      ],
      "name": "configureSequence",
      "outputs": [],
      "stateMutability": "nonpayable",
      "type": "function"
    },
    {
      "inputs": [],
      "name": "controlNode",
      "outputs": [
        {
          "internalType": "uint80",
          "name": "",
          "type": "uint80"
        }
      ],
      "stateMutability": "view",
      "type": "function"
    },
    {
      "inputs": [
        {
          "internalType": "uint256",
          "name": "",
          "type": "uint256"
        }
      ],
      "name": "getApproved",
      "outputs": [
        {
          "internalType": "address",
          "name": "",
          "type": "address"
        }
      ],
      "stateMutability": "view",
      "type": "function"
    },
    {
      "inputs": [
        {
          "internalType": "uint256",
          "name": "id",
          "type": "uint256"
        }
      ],
      "name": "getTokenData",
      "outputs": [
        {
          "components": [
            {
              "internalType": "address",
              "name": "owner",
              "type": "address"
            },
            {
              "internalType": "uint16",
              "name": "sequenceId",
              "type": "uint16"
            },
            {
              "internalType": "uint80",
              "name": "data",
              "type": "uint80"
            }
          ],
          "internalType": "struct TokenData",
          "name": "",
          "type": "tuple"
        }
      ],
      "stateMutability": "view",
      "type": "function"
    },
    {
      "inputs": [
        {
          "internalType": "string",
          "name": "_name",
          "type": "string"
        },
        {
          "internalType": "string",
          "name": "_symbol",
          "type": "string"
        },
        {
          "internalType": "uint80",
          "name": "_controlNode",
          "type": "uint80"
        },
        {
          "internalType": "contract INodeRegistry",
          "name": "_nodeRegistry",
          "type": "address"
        },
        {
          "internalType": "address",
          "name": "_owner",
          "type": "address"
        }
      ],
      "name": "init",
      "outputs": [],
      "stateMutability": "nonpayable",
      "type": "function"
    },
    {
      "inputs": [
        {
          "internalType": "address",
          "name": "",
          "type": "address"
        },
        {
          "internalType": "address",
          "name": "",
          "type": "address"
        }
      ],
      "name": "isApprovedForAll",
      "outputs": [
        {
          "internalType": "bool",
          "name": "",
          "type": "bool"
        }
      ],
      "stateMutability": "view",
      "type": "function"
    },
    {
      "inputs": [
        {
          "internalType": "address",
          "name": "to",
          "type": "address"
        },
        {
          "internalType": "uint16",
          "name": "sequenceId",
          "type": "uint16"
        },
        {
          "internalType": "uint80",
          "name": "tokenData",
          "type": "uint80"
        },
        {
          "internalType": "string",
          "name": "etching",
          "type": "string"
        }
      ],
      "name": "mintRecord",
      "outputs": [
        {
          "internalType": "uint256",
          "name": "tokenId",
          "type": "uint256"
        }
      ],
      "stateMutability": "nonpayable",
      "type": "function"
    },
    {
      "inputs": [],
      "name": "name",
      "outputs": [
        {
          "internalType": "string",
          "name": "",
          "type": "string"
        }
      ],
      "stateMutability": "view",
      "type": "function"
    },
    {
      "inputs": [],
      "name": "nodeRegistry",
      "outputs": [
        {
          "internalType": "contract INodeRegistry",
          "name": "",
          "type": "address"
        }
      ],
      "stateMutability": "view",
      "type": "function"
    },
    {
      "inputs": [],
      "name": "owner",
      "outputs": [
        {
          "internalType": "address",
          "name": "",
          "type": "address"
        }
      ],
      "stateMutability": "view",
      "type": "function"
    },
    {
      "inputs": [
        {
          "internalType": "uint256",
          "name": "id",
          "type": "uint256"
        }
      ],
      "name": "ownerOf",
      "outputs": [
        {
          "internalType": "address",
          "name": "owner",
          "type": "address"
        }
      ],
      "stateMutability": "view",
      "type": "function"
    },
    {
      "inputs": [
        {
          "internalType": "uint256",
          "name": "tokenId",
          "type": "uint256"
        },
        {
          "internalType": "uint256",
          "name": "salePrice",
          "type": "uint256"
        }
      ],
      "name": "royaltyInfo",
      "outputs": [
        {
          "internalType": "address",
          "name": "receiver",
          "type": "address"
        },
        {
          "internalType": "uint256",
          "name": "royaltyAmount",
          "type": "uint256"
        }
      ],
      "stateMutability": "view",
      "type": "function"
    },
    {
      "inputs": [
        {
          "internalType": "address",
          "name": "from",
          "type": "address"
        },
        {
          "internalType": "address",
          "name": "to",
          "type": "address"
        },
        {
          "internalType": "uint256",
          "name": "id",
          "type": "uint256"
        }
      ],
      "name": "safeTransferFrom",
      "outputs": [],
      "stateMutability": "nonpayable",
      "type": "function"
    },
    {
      "inputs": [
        {
          "internalType": "address",
          "name": "from",
          "type": "address"
        },
        {
          "internalType": "address",
          "name": "to",
          "type": "address"
        },
        {
          "internalType": "uint256",
          "name": "id",
          "type": "uint256"
        },
        {
          "internalType": "bytes",
          "name": "data",
          "type": "bytes"
        }
      ],
      "name": "safeTransferFrom",
      "outputs": [],
      "stateMutability": "nonpayable",
      "type": "function"
    },
    {
      "inputs": [],
      "name": "sequenceCount",
      "outputs": [
        {
          "internalType": "uint16",
          "name": "",
          "type": "uint16"
        }
      ],
      "stateMutability": "view",
      "type": "function"
    },
    {
      "inputs": [
        {
          "internalType": "uint16",
          "name": "",
          "type": "uint16"
        }
      ],
      "name": "sequences",
      "outputs": [
        {
          "internalType": "uint80",
          "name": "dropId",
          "type": "uint80"
        },
        {
          "internalType": "contract IEngine",
          "name": "engine",
          "type": "address"
        },
        {
          "internalType": "uint64",
          "name": "sealedBeforeTimestamp",
          "type": "uint64"
        },
        {
          "internalType": "uint64",
          "name": "sealedAfterTimestamp",
          "type": "uint64"
        },
        {
          "internalType": "uint64",
          "name": "maxSupply",
          "type": "uint64"
        },
        {
          "internalType": "uint64",
          "name": "minted",
          "type": "uint64"
        }
      ],
      "stateMutability": "view",
      "type": "function"
    },
    {
      "inputs": [
        {
          "internalType": "address",
          "name": "operator",
          "type": "address"
        },
        {
          "internalType": "bool",
          "name": "approved",
          "type": "bool"
        }
      ],
      "name": "setApprovalForAll",
      "outputs": [],
      "stateMutability": "nonpayable",
      "type": "function"
    },
    {
      "inputs": [
        {
          "internalType": "address",
          "name": "_owner",
          "type": "address"
        }
      ],
      "name": "setOwner",
      "outputs": [],
      "stateMutability": "nonpayable",
      "type": "function"
    },
    {
      "inputs": [
        {
          "internalType": "bytes4",
          "name": "interfaceId",
          "type": "bytes4"
        }
      ],
      "name": "supportsInterface",
      "outputs": [
        {
          "internalType": "bool",
          "name": "",
          "type": "bool"
        }
      ],
      "stateMutability": "view",
      "type": "function"
    },
    {
      "inputs": [],
      "name": "symbol",
      "outputs": [
        {
          "internalType": "string",
          "name": "",
          "type": "string"
        }
      ],
      "stateMutability": "view",
      "type": "function"
    },
    {
      "inputs": [
        {
          "internalType": "uint256",
          "name": "tokenId",
          "type": "uint256"
        }
      ],
      "name": "tokenURI",
      "outputs": [
        {
          "internalType": "string",
          "name": "",
          "type": "string"
        }
      ],
      "stateMutability": "view",
      "type": "function"
    },
    {
      "inputs": [],
      "name": "totalSupply",
      "outputs": [
        {
          "internalType": "uint256",
          "name": "",
          "type": "uint256"
        }
      ],
      "stateMutability": "view",
      "type": "function"
    },
    {
      "inputs": [
        {
          "internalType": "address",
          "name": "from",
          "type": "address"
        },
        {
          "internalType": "address",
          "name": "to",
          "type": "address"
        },
        {
          "internalType": "uint256",
          "name": "id",
          "type": "uint256"
        }
      ],
      "name": "transferFrom",
      "outputs": [],
      "stateMutability": "nonpayable",
      "type": "function"
    }
  ],
  "bytecode": "0x60806040523480156200001157600080fd5b5060405180604001604052806007815260200166436174616c6f6760c81b81525060405180604001604052806007815260200166434154414c4f4760c81b81525081600090805190602001906200006a92919062000096565b5080516200008090600190602084019062000096565b5050600a805460ff191660011790555062000178565b828054620000a4906200013c565b90600052602060002090601f016020900481019282620000c8576000855562000113565b82601f10620000e357805160ff191683800117855562000113565b8280016001018555821562000113579182015b8281111562000113578251825591602001919060010190620000f6565b506200012192915062000125565b5090565b5b8082111562000121576000815560010162000126565b600181811c908216806200015157607f821691505b6020821081036200017257634e487b7160e01b600052602260045260246000fd5b50919050565b61207780620001886000396000f3fe608060405234801561001057600080fd5b50600436106101735760003560e01c806342842e0e116100de578063b09afec111610097578063c87b56dd11610071578063c87b56dd146103d1578063d9b5c4a5146103e4578063e8e9099e146103f7578063e985e9c5146104b257600080fd5b8063b09afec114610360578063b88d4fde146103ab578063bd2868a7146103be57600080fd5b806342842e0e146102f25780636352211e1461030557806370a08231146103185780638da5cb5b1461032b57806395d89b4114610345578063a22cb4651461034d57600080fd5b806318160ddd1161013057806318160ddd1461024f57806323b872dd1461026657806325e7a62d146102795780632a55205a1461028c5780632b67b289146102be5780632fb9e488146102df57600080fd5b806301ffc9a71461017857806306fdde03146101a0578063081812fc146101b5578063095ea7b3146101f657806313af40351461020b5780631616d2491461021e575b600080fd5b61018b61018636600461174c565b6104e0565b60405190151581526020015b60405180910390f35b6101a861050b565b6040516101979190611799565b6101de6101c33660046117cc565b6004602052600090815260409020546001600160a01b031681565b6040516001600160a01b039091168152602001610197565b6102096102043660046117fa565b610599565b005b610209610219366004611826565b610680565b600754610237906201000090046001600160501b031681565b6040516001600160501b039091168152602001610197565b61025860065481565b604051908152602001610197565b610209610274366004611843565b610780565b6102096102873660046118c5565b610947565b61029f61029a36600461191f565b610bda565b604080516001600160a01b039093168352602083019190915201610197565b6007546102cc9061ffff1681565b60405161ffff9091168152602001610197565b6102096102ed366004611956565b610ce4565b610209610300366004611843565b610e07565b6101de6103133660046117cc565b610eff565b610258610326366004611826565b610f56565b6007546101de90600160601b90046001600160a01b031681565b6101a8610fb9565b61020961035b366004611a0c565b610fc6565b61037361036e3660046117cc565b611032565b6040805182516001600160a01b0316815260208084015161ffff1690820152918101516001600160501b031690820152606001610197565b6102096103b9366004611a45565b6110d4565b6102586103cc366004611ac9565b6111bc565b6101a86103df3660046117cc565b6113dc565b6008546101de906001600160a01b031681565b610462610405366004611b25565b600960205260009081526040902080546001909101546001600160501b03821691600160501b90046001600160a01b0316906001600160401b0380821691600160401b8104821691600160801b8204811691600160c01b90041686565b604080516001600160501b0390971687526001600160a01b0390951660208701526001600160401b03938416948601949094529082166060850152811660808401521660a082015260c001610197565b61018b6104c0366004611b40565b600560209081526000928352604080842090915290825290205460ff1681565b60006001600160e01b0319821663152a902d60e11b14806105055750610505826114e3565b92915050565b6000805461051890611b6e565b80601f016020809104026020016040519081016040528092919081815260200182805461054490611b6e565b80156105915780601f1061056657610100808354040283529160200191610591565b820191906000526020600020905b81548152906001019060200180831161057457829003601f168201915b505050505081565b6000818152600260205260409020546001600160a01b0316338114806105e257506001600160a01b038116600090815260056020908152604080832033845290915290205460ff165b6106245760405162461bcd60e51b815260206004820152600e60248201526d1393d517d055551213d49256915160921b60448201526064015b60405180910390fd5b60008281526004602052604080822080546001600160a01b0319166001600160a01b0387811691821790925591518593918516917f8c5be1e5ebec7d5bd14f71427d1e84f3dd0314c0f7b2291e5b200ac8c7c3b92591a4505050565b6008546007546040516303e1ae2d60e51b8152620100009091046001600160501b031660048201523360248201526001600160a01b0390911690637c35c5a090604401602060405180830381865afa1580156106e0573d6000803e3d6000fd5b505050506040513d601f19601f820116820180604052508101906107049190611ba8565b6107215760405163ea8e4eb560e01b815260040160405180910390fd5b600780546001600160a01b03838116600160601b8181026bffffffffffffffffffffffff85161790945560405193909204169182907f8be0079c531659141344cd1fd0a4f28419497f9722a3daafe3b4186f6b6457e090600090a35050565b6000818152600260205260409020546001600160a01b038481169116146107d65760405162461bcd60e51b815260206004820152600a60248201526957524f4e475f46524f4d60b01b604482015260640161061b565b6001600160a01b0382166108205760405162461bcd60e51b81526020600482015260116024820152701253959053125117d49150d25412515395607a1b604482015260640161061b565b336001600160a01b038416148061085a57506001600160a01b038316600090815260056020908152604080832033845290915290205460ff165b8061087b57506000818152600460205260409020546001600160a01b031633145b6108b85760405162461bcd60e51b815260206004820152600e60248201526d1393d517d055551213d49256915160921b604482015260640161061b565b6001600160a01b0380841660008181526003602090815260408083208054600019019055938616808352848320805460010190558583526002825284832080546001600160a01b03199081168317909155600490925284832080549092169091559251849392917fddf252ad1be2c89b69c2b068fc378daa952ba7f163c4a11628f55a4df523b3ef91a4505050565b6008546007546040516303e1ae2d60e51b8152620100009091046001600160501b031660048201523360248201526001600160a01b0390911690637c35c5a090604401602060405180830381865afa1580156109a7573d6000803e3d6000fd5b505050506040513d601f19601f820116820180604052508101906109cb9190611ba8565b6109e85760405163ea8e4eb560e01b815260040160405180910390fd5b600780546000919082906109ff9061ffff16611bdb565b825461ffff8083166101009490940a93840293021916919091179091556008549091506001600160a01b0316637c35c5a0610a3d6020870187611bfc565b6040516001600160e01b031960e084901b1681526001600160501b039091166004820152336024820152604401602060405180830381865afa158015610a87573d6000803e3d6000fd5b505050506040513d601f19601f82011682018060405250810190610aab9190611ba8565b610ac85760405163ea8e4eb560e01b815260040160405180910390fd5b610ad860c0850160a08601611c2e565b6001600160401b031615610aff57604051631a359c9b60e01b815260040160405180910390fd5b610b0f6040850160208601611826565b6001600160a01b03166325ba9282828686866040518563ffffffff1660e01b8152600401610b409493929190611d0f565b600060405180830381600087803b158015610b5a57600080fd5b505af1158015610b6e573d6000803e3d6000fd5b50505061ffff82166000908152600960205260409020859150610b918282611d53565b9050508061ffff167fc2cd2048687a9c80f95ed5b2da8801cbd8f9202eabd9974606938c058bf9cda0858585604051610bcc93929190611e89565b60405180910390a250505050565b600082815260026020908152604080832054600160a01b900461ffff16835260098252808320815160c08101835281546001600160501b0381168252600160501b90046001600160a01b03169381018490526001909101546001600160401b0380821683850152600160401b820481166060840152600160801b820481166080840152600160c01b9091041660a08201529051631b6f4ba160e11b815230600482015260248101869052604481018590528392906336de9742906064016040805180830381865afa158015610cb3573d6000803e3d6000fd5b505050506040513d601f19601f82011682018060405250810190610cd79190611eb3565b92509250505b9250929050565b600a5460ff1615610d075760405162dc149f60e41b815260040160405180910390fd5b610d136000888861169a565b50610d206001868661169a565b5060078054600880546001600160a01b038087166001600160a01b0319909216919091179091558316600160601b026bffffffffffffffffffffffff6001600160501b03808816620100009081029290921661ffff909416939093179190911792839055600a805460ff19166001179055604051920416907fa9144b9ed3b92620d2a30f70603aa84f1263c8e241bb23c39d367d3c7a89faf890600090a2600754604051600160601b9091046001600160a01b0316906000907f8be0079c531659141344cd1fd0a4f28419497f9722a3daafe3b4186f6b6457e0908290a350505050505050565b610e12838383610780565b6001600160a01b0382163b1580610ebb5750604051630a85bd0160e11b8082523360048301526001600160a01b03858116602484015260448301849052608060648401526000608484015290919084169063150b7a029060a4016020604051808303816000875af1158015610e8b573d6000803e3d6000fd5b505050506040513d601f19601f82011682018060405250810190610eaf9190611ee1565b6001600160e01b031916145b610efa5760405162461bcd60e51b815260206004820152601060248201526f155394d0519157d49150d2541251539560821b604482015260640161061b565b505050565b6000818152600260205260409020546001600160a01b031680610f515760405162461bcd60e51b815260206004820152600a6024820152691393d517d3525395115160b21b604482015260640161061b565b919050565b60006001600160a01b038216610f9d5760405162461bcd60e51b815260206004820152600c60248201526b5a45524f5f4144445245535360a01b604482015260640161061b565b506001600160a01b031660009081526003602052604090205490565b6001805461051890611b6e565b3360008181526005602090815260408083206001600160a01b03871680855290835292819020805460ff191686151590811790915590519081529192917f17307eab39ab6107e8899845ad3d59bd9653f200f220920489ca2b5937696c31910160405180910390a35050565b604080516060808201835260008083526020808401829052838501829052858252600281529084902084519283018552546001600160a01b038116808452600160a01b820461ffff1692840192909252600160b01b90046001600160501b03169382019390935290916105055760405162461bcd60e51b815260206004820152600a6024820152691393d517d3525395115160b21b604482015260640161061b565b6110df858585610780565b6001600160a01b0384163b15806111765750604051630a85bd0160e11b808252906001600160a01b0386169063150b7a02906111279033908a90899089908990600401611efe565b6020604051808303816000875af1158015611146573d6000803e3d6000fd5b505050506040513d601f19601f8201168201806040525081019061116a9190611ee1565b6001600160e01b031916145b6111b55760405162461bcd60e51b815260206004820152601060248201526f155394d0519157d49150d2541251539560821b604482015260640161061b565b5050505050565b61ffff84166000908152600960209081526040808320815160c08101835281546001600160501b0381168252600160501b90046001600160a01b03169381018490526001909101546001600160401b0380821693830193909352600160401b810483166060830152600160801b810483166080830152600160c01b900490911660a08201529033146112615760405163ea8e4eb560e01b815260040160405180910390fd5b80604001516001600160401b03164210806112a15750600081606001516001600160401b03161180156112a1575080606001516001600160401b03164210155b156112bf576040516317444c4d60e01b815260040160405180910390fd5b600081608001516001600160401b03161180156112f6575080608001516001600160401b03168160a001516001600160401b031610155b1561131457604051633373ce0b60e21b815260040160405180910390fd5b60066000815461132390611f32565b918290555061ffff871660009081526009602052604090206001018054919350600160c01b9091046001600160401b031690601861136083611f4b565b91906101000a8154816001600160401b0302191690836001600160401b031602179055505061139187838888611531565b8561ffff16827f1f34a174d45fbef173e7be31603623846730433a51711231cbbd0f46778b02318787876040516113ca93929190611f67565b60405180910390a35095945050505050565b600081815260026020908152604080832054600160a01b900461ffff1683526009825291829020825160c08101845281546001600160501b0381168252600160501b90046001600160a01b03169281018390526001909101546001600160401b0380821683860152600160401b82048116606080850191909152600160801b830482166080850152600160c01b9092041660a083015292516305b1feb160e11b815230600482015260248101859052909190630b63fd6290604401600060405180830381865afa1580156114b4573d6000803e3d6000fd5b505050506040513d6000823e601f3d908101601f191682016040526114dc9190810190611fa0565b9392505050565b60006301ffc9a760e01b6001600160e01b03198316148061151457506380ac58cd60e01b6001600160e01b03198316145b806105055750506001600160e01b031916635b5e139f60e01b1490565b6001600160a01b03841661157b5760405162461bcd60e51b81526020600482015260116024820152701253959053125117d49150d25412515395607a1b604482015260640161061b565b6000838152600260205260409020546001600160a01b0316156115d15760405162461bcd60e51b815260206004820152600e60248201526d1053149150511657d3525395115160921b604482015260640161061b565b6001600160a01b03808516600081815260036020908152604080832080546001019055805160608101825284815261ffff8089168285019081526001600160501b03808a168486019081528c885260029096528487209351845492519651909116600160b01b026001600160b01b0396909316600160a01b026001600160b01b0319909216981697909717969096179290921694909417905591518592907fddf252ad1be2c89b69c2b068fc378daa952ba7f163c4a11628f55a4df523b3ef908290a450505050565b8280546116a690611b6e565b90600052602060002090601f0160209004810192826116c8576000855561170e565b82601f106116e15782800160ff1982351617855561170e565b8280016001018555821561170e579182015b8281111561170e5782358255916020019190600101906116f3565b5061171a92915061171e565b5090565b5b8082111561171a576000815560010161171f565b6001600160e01b03198116811461174957600080fd5b50565b60006020828403121561175e57600080fd5b81356114dc81611733565b60005b8381101561178457818101518382015260200161176c565b83811115611793576000848401525b50505050565b60208152600082518060208401526117b8816040850160208701611769565b601f01601f19169190910160400192915050565b6000602082840312156117de57600080fd5b5035919050565b6001600160a01b038116811461174957600080fd5b6000806040838503121561180d57600080fd5b8235611818816117e5565b946020939093013593505050565b60006020828403121561183857600080fd5b81356114dc816117e5565b60008060006060848603121561185857600080fd5b8335611863816117e5565b92506020840135611873816117e5565b929592945050506040919091013590565b60008083601f84011261189657600080fd5b5081356001600160401b038111156118ad57600080fd5b602083019150836020828501011115610cdd57600080fd5b600080600083850360e08112156118db57600080fd5b60c08112156118e957600080fd5b5083925060c08401356001600160401b0381111561190657600080fd5b61191286828701611884565b9497909650939450505050565b6000806040838503121561193257600080fd5b50508035926020909101359150565b6001600160501b038116811461174957600080fd5b600080600080600080600060a0888a03121561197157600080fd5b87356001600160401b038082111561198857600080fd5b6119948b838c01611884565b909950975060208a01359150808211156119ad57600080fd5b506119ba8a828b01611884565b90965094505060408801356119ce81611941565b925060608801356119de816117e5565b915060808801356119ee816117e5565b8091505092959891949750929550565b801515811461174957600080fd5b60008060408385031215611a1f57600080fd5b8235611a2a816117e5565b91506020830135611a3a816119fe565b809150509250929050565b600080600080600060808688031215611a5d57600080fd5b8535611a68816117e5565b94506020860135611a78816117e5565b93506040860135925060608601356001600160401b03811115611a9a57600080fd5b611aa688828901611884565b969995985093965092949392505050565b803561ffff81168114610f5157600080fd5b600080600080600060808688031215611ae157600080fd5b8535611aec816117e5565b9450611afa60208701611ab7565b93506040860135611b0a81611941565b925060608601356001600160401b03811115611a9a57600080fd5b600060208284031215611b3757600080fd5b6114dc82611ab7565b60008060408385031215611b5357600080fd5b8235611b5e816117e5565b91506020830135611a3a816117e5565b600181811c90821680611b8257607f821691505b602082108103611ba257634e487b7160e01b600052602260045260246000fd5b50919050565b600060208284031215611bba57600080fd5b81516114dc816119fe565b634e487b7160e01b600052601160045260246000fd5b600061ffff808316818103611bf257611bf2611bc5565b6001019392505050565b600060208284031215611c0e57600080fd5b81356114dc81611941565b6001600160401b038116811461174957600080fd5b600060208284031215611c4057600080fd5b81356114dc81611c19565b8035611c5681611941565b6001600160501b031682526020810135611c6f816117e5565b6001600160a01b031660208301526040810135611c8b81611c19565b6001600160401b039081166040840152606082013590611caa82611c19565b9081166060840152608082013590611cc182611c19565b908116608084015260a082013590611cd882611c19565b80821660a085015250505050565b81835281816020850137506000828201602090810191909152601f909101601f19169091010190565b600061010061ffff87168352611d286020840187611c4b565b8060e0840152611d3b8184018587611ce6565b979650505050505050565b6000813561050581611c19565b8135611d5e81611941565b6001600160501b03811690508154816001600160501b031982161783556020840135611d89816117e5565b6001600160f01b03199190911690911760509190911b600160501b600160f01b0316178155600181016040830135611dc081611c19565b6001600160401b0381166001600160401b031983541617825550611e1b611de960608501611d46565b82546fffffffffffffffff0000000000000000191660409190911b6fffffffffffffffff000000000000000016178255565b611e56611e2a60808501611d46565b82805467ffffffffffffffff60801b191660809290921b67ffffffffffffffff60801b16919091179055565b610efa611e6560a08501611d46565b8280546001600160c01b031660c09290921b6001600160c01b031916919091179055565b611e938185611c4b565b60e060c08201526000611eaa60e083018486611ce6565b95945050505050565b60008060408385031215611ec657600080fd5b8251611ed1816117e5565b6020939093015192949293505050565b600060208284031215611ef357600080fd5b81516114dc81611733565b6001600160a01b0386811682528516602082015260408101849052608060608201819052600090611d3b9083018486611ce6565b600060018201611f4457611f44611bc5565b5060010190565b60006001600160401b03808316818103611bf257611bf2611bc5565b6001600160501b0384168152604060208201526000611eaa604083018486611ce6565b634e487b7160e01b600052604160045260246000fd5b600060208284031215611fb257600080fd5b81516001600160401b0380821115611fc957600080fd5b818401915084601f830112611fdd57600080fd5b815181811115611fef57611fef611f8a565b604051601f8201601f19908116603f0116810190838211818310171561201757612017611f8a565b8160405282815287602084870101111561203057600080fd5b611d3b83602083016020880161176956fea2646970667358221220b7a7c4a9cbeb83a84b15452d7012359bb97aac90f54a7432cbce2c4172f883fd64736f6c634300080d0033",
  "linkReferences": {},
  "deployedLinkReferences": {}
}