{
  "_format": "hh-sol-artifact-1",
  "contractName": "CollectionFactory",
  "sourceName": "contracts/CollectionFactory.sol",
  "abi": [
    {
      "inputs": [
        {
          "internalType": "contract INodeRegistry",
          "name": "_nodeRegistry",
          "type": "address"
        },
        {
          "internalType": "contract Collection",
          "name": "_implementation",
          "type": "address"
        }
      ],
      "stateMutability": "nonpayable",
      "type": "constructor"
    },
    {
      "inputs": [],
      "name": "NotAuthorized",
      "type": "error"
    },
    {
      "anonymous": false,
      "inputs": [
        {
          "indexed": true,
          "internalType": "address",
          "name": "collection",
          "type": "address"
        }
      ],
      "name": "CollectionCreated",
      "type": "event"
    },
    {
      "inputs": [
        {
          "components": [
            {
              "internalType": "string",
              "name": "name",
              "type": "string"
            },
            {
              "internalType": "string",
              "name": "symbol",
              "type": "string"
            },
            {
              "internalType": "string",
              "name": "contractURI",
              "type": "string"
            },
            {
              "internalType": "address",
              "name": "owner",
              "type": "address"
            },
            {
              "internalType": "uint64",
              "name": "controlNodeId",
              "type": "uint64"
            },
            {
              "internalType": "string",
              "name": "metadata",
              "type": "string"
            }
          ],
          "internalType": "struct CreateCollectionConfig",
          "name": "config",
          "type": "tuple"
        }
      ],
      "name": "createCollection",
      "outputs": [
        {
          "internalType": "contract Collection",
          "name": "collection",
          "type": "address"
        }
      ],
      "stateMutability": "nonpayable",
      "type": "function"
    },
    {
      "inputs": [],
      "name": "implementation",
      "outputs": [
        {
          "internalType": "contract Collection",
          "name": "",
          "type": "address"
        }
      ],
      "stateMutability": "view",
      "type": "function"
    },
    {
      "inputs": [],
      "name": "nodeRegistry",
      "outputs": [
        {
          "internalType": "contract INodeRegistry",
          "name": "",
          "type": "address"
        }
      ],
      "stateMutability": "view",
      "type": "function"
    }
  ],
  "bytecode": "0x60c060405234801561001057600080fd5b506040516107d73803806107d783398101604081905261002f9161005e565b6001600160a01b039081166080521660a052610098565b6001600160a01b038116811461005b57600080fd5b50565b6000806040838503121561007157600080fd5b825161007c81610046565b602084015190925061008d81610046565b809150509250929050565b60805160a0516107086100cf60003960008181608e0152818160ca015261021a015260008181604b01526101c101526107086000f3fe608060405234801561001057600080fd5b50600436106100415760003560e01c80635c60da1b14610046578063d9b5c4a514610089578063e065b7d7146100b0575b600080fd5b61006d7f000000000000000000000000000000000000000000000000000000000000000081565b6040516001600160a01b03909116815260200160405180910390f35b61006d7f000000000000000000000000000000000000000000000000000000000000000081565b61006d6100be3660046104c6565b60006001600160a01b037f000000000000000000000000000000000000000000000000000000000000000016634acbb4be6100ff60a0850160808601610508565b6040517fffffffff0000000000000000000000000000000000000000000000000000000060e084901b16815267ffffffffffffffff9091166004820152336024820152604401602060405180830381865afa158015610162573d6000803e3d6000fd5b505050506040513d601f19601f820116820180604052508101906101869190610532565b6101bc576040517fea8e4eb500000000000000000000000000000000000000000000000000000000815260040160405180910390fd5b6101e57f00000000000000000000000000000000000000000000000000000000000000006103ed565b90506001600160a01b03811663e112c5cc6102066080850160608601610554565b604080518082019091526001600160a01b037f00000000000000000000000000000000000000000000000000000000000000001681526020810161025060a0880160808901610508565b67ffffffffffffffff16905261026960a087018761057d565b60408051606081019091528061027f8a8061057d565b8080601f0160208091040260200160405190810160405280939291908181526020018383808284376000920191909152505050908252506020908101906102c8908b018b61057d565b8080601f01602080910402602001604051908101604052809392919081815260200183838082843760009201919091525050509082525060200161030f60408b018b61057d565b8080601f01602080910402602001604051908101604052809392919081815260200183838082843760009201919091525050509152506040517fffffffff0000000000000000000000000000000000000000000000000000000060e088901b168152610382959493929190600401610611565b600060405180830381600087803b15801561039c57600080fd5b505af11580156103b0573d6000803e3d6000fd5b50506040516001600160a01b03841692507f75432e2e509efcaf947efcc7a5a6b6b3562425b29e9725c7a4a5c652291ac35d9150600090a2919050565b60006040517f3d602d80600a3d3981f3363d3d373d3d3d363d7300000000000000000000000081528260601b60148201527f5af43d82803e903d91602b57fd5bf3000000000000000000000000000000000060288201526037816000f09150506001600160a01b0381166104c1576040517f08c379a000000000000000000000000000000000000000000000000000000000815260206004820152601660248201527f455243313136373a20637265617465206661696c656400000000000000000000604482015260640160405180910390fd5b919050565b6000602082840312156104d857600080fd5b813567ffffffffffffffff8111156104ef57600080fd5b820160c0818503121561050157600080fd5b9392505050565b60006020828403121561051a57600080fd5b813567ffffffffffffffff8116811461050157600080fd5b60006020828403121561054457600080fd5b8151801515811461050157600080fd5b60006020828403121561056657600080fd5b81356001600160a01b038116811461050157600080fd5b6000808335601e1984360301811261059457600080fd5b83018035915067ffffffffffffffff8211156105af57600080fd5b6020019150368190038213156105c457600080fd5b9250929050565b6000815180845260005b818110156105f1576020818501810151868301820152016105d5565b506000602082860101526020601f19601f83011685010191505092915050565b60006001600160a01b0380881683528087511660208401525067ffffffffffffffff602087015116604083015260a060608301528360a0830152838560c0840137600060c08584010152601f19601f850116820160c08382030160808401528351606060c08301526106876101208301826105cb565b9050602085015160bf19808484030160e08501526106a583836105cb565b9250604087015191508084840301610100850152506106c482826105cb565b9a995050505050505050505056fea26469706673582212208db84087e5dda8bfd688bc65fa5a7d6f8cf9099b2708446d2844ed1e740bb61f64736f6c63430008110033",
  "linkReferences": {},
  "deployedLinkReferences": {}
}