{
  "_format": "hh-sol-artifact-1",
  "contractName": "Collection",
  "sourceName": "contracts/Collection.sol",
  "abi": [
    {
      "inputs": [],
      "stateMutability": "nonpayable",
      "type": "constructor"
    },
    {
      "inputs": [],
      "name": "AlreadyInitialized",
      "type": "error"
    },
    {
      "inputs": [],
      "name": "InvalidMintRequest",
      "type": "error"
    },
    {
      "inputs": [],
      "name": "InvalidSequenceConfig",
      "type": "error"
    },
    {
      "inputs": [],
      "name": "NotAuthorized",
      "type": "error"
    },
    {
      "inputs": [],
      "name": "SequenceIsSealed",
      "type": "error"
    },
    {
      "inputs": [],
      "name": "SequenceSupplyExhausted",
      "type": "error"
    },
    {
      "anonymous": false,
      "inputs": [
        {
          "indexed": true,
          "internalType": "address",
          "name": "owner",
          "type": "address"
        },
        {
          "indexed": true,
          "internalType": "address",
          "name": "spender",
          "type": "address"
        },
        {
          "indexed": true,
          "internalType": "uint256",
          "name": "id",
          "type": "uint256"
        }
      ],
      "name": "Approval",
      "type": "event"
    },
    {
      "anonymous": false,
      "inputs": [
        {
          "indexed": true,
          "internalType": "address",
          "name": "owner",
          "type": "address"
        },
        {
          "indexed": true,
          "internalType": "address",
          "name": "operator",
          "type": "address"
        },
        {
          "indexed": false,
          "internalType": "bool",
          "name": "approved",
          "type": "bool"
        }
      ],
      "name": "ApprovalForAll",
      "type": "event"
    },
    {
      "anonymous": false,
      "inputs": [
        {
          "indexed": false,
          "internalType": "string",
          "name": "topic",
          "type": "string"
        },
        {
          "indexed": false,
          "internalType": "string",
          "name": "message",
          "type": "string"
        }
      ],
      "name": "Broadcast",
      "type": "event"
    },
    {
      "anonymous": false,
      "inputs": [
        {
          "indexed": true,
          "internalType": "address",
          "name": "previousOwner",
          "type": "address"
        },
        {
          "indexed": true,
          "internalType": "address",
          "name": "newOwner",
          "type": "address"
        }
      ],
      "name": "OwnershipTransferred",
      "type": "event"
    },
    {
      "anonymous": false,
      "inputs": [
        {
          "indexed": true,
          "internalType": "uint256",
          "name": "tokenId",
          "type": "uint256"
        },
        {
          "indexed": true,
          "internalType": "uint16",
          "name": "sequenceId",
          "type": "uint16"
        },
        {
          "indexed": false,
          "internalType": "uint80",
          "name": "data",
          "type": "uint80"
        }
      ],
      "name": "RecordCreated",
      "type": "event"
    },
    {
      "anonymous": false,
      "inputs": [
        {
          "indexed": true,
          "internalType": "uint16",
          "name": "sequenceId",
          "type": "uint16"
        },
        {
          "components": [
            {
              "internalType": "uint64",
              "name": "sealedBeforeTimestamp",
              "type": "uint64"
            },
            {
              "internalType": "uint64",
              "name": "sealedAfterTimestamp",
              "type": "uint64"
            },
            {
              "internalType": "uint64",
              "name": "maxSupply",
              "type": "uint64"
            },
            {
              "internalType": "uint64",
              "name": "minted",
              "type": "uint64"
            },
            {
              "internalType": "contract IEngine",
              "name": "engine",
              "type": "address"
            },
            {
              "internalType": "uint64",
              "name": "dropNodeId",
              "type": "uint64"
            }
          ],
          "indexed": false,
          "internalType": "struct SequenceData",
          "name": "sequenceData",
          "type": "tuple"
        },
        {
          "indexed": false,
          "internalType": "bytes",
          "name": "engineData",
          "type": "bytes"
        }
      ],
      "name": "SequenceConfigured",
      "type": "event"
    },
    {
      "anonymous": false,
      "inputs": [
        {
          "indexed": true,
          "internalType": "address",
          "name": "from",
          "type": "address"
        },
        {
          "indexed": true,
          "internalType": "address",
          "name": "to",
          "type": "address"
        },
        {
          "indexed": true,
          "internalType": "uint256",
          "name": "id",
          "type": "uint256"
        }
      ],
      "name": "Transfer",
      "type": "event"
    },
    {
      "inputs": [],
      "name": "accessControl",
      "outputs": [
        {
          "internalType": "contract INodeRegistry",
          "name": "nodeRegistry",
          "type": "address"
        },
        {
          "internalType": "uint64",
          "name": "controlNodeId",
          "type": "uint64"
        }
      ],
      "stateMutability": "view",
      "type": "function"
    },
    {
      "inputs": [
        {
          "internalType": "address",
          "name": "spender",
          "type": "address"
        },
        {
          "internalType": "uint256",
          "name": "id",
          "type": "uint256"
        }
      ],
      "name": "approve",
      "outputs": [],
      "stateMutability": "nonpayable",
      "type": "function"
    },
    {
      "inputs": [
        {
          "internalType": "address",
          "name": "owner",
          "type": "address"
        }
      ],
      "name": "balanceOf",
      "outputs": [
        {
          "internalType": "uint256",
          "name": "",
          "type": "uint256"
        }
      ],
      "stateMutability": "view",
      "type": "function"
    },
    {
      "inputs": [
        {
          "internalType": "string",
          "name": "topic",
          "type": "string"
        },
        {
          "internalType": "string",
          "name": "message",
          "type": "string"
        }
      ],
      "name": "broadcast",
      "outputs": [],
      "stateMutability": "nonpayable",
      "type": "function"
    },
    {
      "inputs": [
        {
          "internalType": "string",
          "name": "topic",
          "type": "string"
        },
        {
          "internalType": "string",
          "name": "message",
          "type": "string"
        }
      ],
      "name": "broadcastAndStore",
      "outputs": [],
      "stateMutability": "nonpayable",
      "type": "function"
    },
    {
      "inputs": [
        {
          "components": [
            {
              "internalType": "uint64",
              "name": "sealedBeforeTimestamp",
              "type": "uint64"
            },
            {
              "internalType": "uint64",
              "name": "sealedAfterTimestamp",
              "type": "uint64"
            },
            {
              "internalType": "uint64",
              "name": "maxSupply",
              "type": "uint64"
            },
            {
              "internalType": "uint64",
              "name": "minted",
              "type": "uint64"
            },
            {
              "internalType": "contract IEngine",
              "name": "engine",
              "type": "address"
            },
            {
              "internalType": "uint64",
              "name": "dropNodeId",
              "type": "uint64"
            }
          ],
          "internalType": "struct SequenceData",
          "name": "_sequence",
          "type": "tuple"
        },
        {
          "internalType": "bytes",
          "name": "_engineData",
          "type": "bytes"
        }
      ],
      "name": "configureSequence",
      "outputs": [],
      "stateMutability": "nonpayable",
      "type": "function"
    },
    {
      "inputs": [],
      "name": "contractURI",
      "outputs": [
        {
          "internalType": "string",
          "name": "value",
          "type": "string"
        }
      ],
      "stateMutability": "view",
      "type": "function"
    },
    {
      "inputs": [],
      "name": "controlNode",
      "outputs": [
        {
          "internalType": "uint64",
          "name": "nodeId",
          "type": "uint64"
        }
      ],
      "stateMutability": "view",
      "type": "function"
    },
    {
      "inputs": [
        {
          "internalType": "uint256",
          "name": "",
          "type": "uint256"
        }
      ],
      "name": "getApproved",
      "outputs": [
        {
          "internalType": "address",
          "name": "",
          "type": "address"
        }
      ],
      "stateMutability": "view",
      "type": "function"
    },
    {
      "inputs": [
        {
          "internalType": "uint16",
          "name": "sequenceId",
          "type": "uint16"
        }
      ],
      "name": "getSequenceData",
      "outputs": [
        {
          "components": [
            {
              "internalType": "uint64",
              "name": "sealedBeforeTimestamp",
              "type": "uint64"
            },
            {
              "internalType": "uint64",
              "name": "sealedAfterTimestamp",
              "type": "uint64"
            },
            {
              "internalType": "uint64",
              "name": "maxSupply",
              "type": "uint64"
            },
            {
              "internalType": "uint64",
              "name": "minted",
              "type": "uint64"
            },
            {
              "internalType": "contract IEngine",
              "name": "engine",
              "type": "address"
            },
            {
              "internalType": "uint64",
              "name": "dropNodeId",
              "type": "uint64"
            }
          ],
          "internalType": "struct SequenceData",
          "name": "sequence",
          "type": "tuple"
        }
      ],
      "stateMutability": "view",
      "type": "function"
    },
    {
      "inputs": [
        {
          "internalType": "uint256",
          "name": "id",
          "type": "uint256"
        }
      ],
      "name": "getTokenData",
      "outputs": [
        {
          "components": [
            {
              "internalType": "address",
              "name": "owner",
              "type": "address"
            },
            {
              "internalType": "uint16",
              "name": "sequenceId",
              "type": "uint16"
            },
            {
              "internalType": "uint80",
              "name": "data",
              "type": "uint80"
            }
          ],
          "internalType": "struct TokenData",
          "name": "",
          "type": "tuple"
        }
      ],
      "stateMutability": "view",
      "type": "function"
    },
    {
      "inputs": [
        {
          "internalType": "address",
          "name": "_owner",
          "type": "address"
        },
        {
          "components": [
            {
              "internalType": "contract INodeRegistry",
              "name": "nodeRegistry",
              "type": "address"
            },
            {
              "internalType": "uint64",
              "name": "controlNodeId",
              "type": "uint64"
            }
          ],
          "internalType": "struct AccessControlData",
          "name": "_accessControl",
          "type": "tuple"
        },
        {
          "internalType": "string",
          "name": "_metadata",
          "type": "string"
        },
        {
          "components": [
            {
              "internalType": "string",
              "name": "name",
              "type": "string"
            },
            {
              "internalType": "string",
              "name": "symbol",
              "type": "string"
            },
            {
              "internalType": "string",
              "name": "contractURI",
              "type": "string"
            }
          ],
          "internalType": "struct ImmutableCollectionData",
          "name": "_data",
          "type": "tuple"
        }
      ],
      "name": "init",
      "outputs": [],
      "stateMutability": "nonpayable",
      "type": "function"
    },
    {
      "inputs": [
        {
          "internalType": "address",
          "name": "",
          "type": "address"
        },
        {
          "internalType": "address",
          "name": "",
          "type": "address"
        }
      ],
      "name": "isApprovedForAll",
      "outputs": [
        {
          "internalType": "bool",
          "name": "",
          "type": "bool"
        }
      ],
      "stateMutability": "view",
      "type": "function"
    },
    {
      "inputs": [
        {
          "internalType": "address",
          "name": "subject",
          "type": "address"
        }
      ],
      "name": "isAuthorized",
      "outputs": [
        {
          "internalType": "bool",
          "name": "authorized",
          "type": "bool"
        }
      ],
      "stateMutability": "view",
      "type": "function"
    },
    {
      "inputs": [
        {
          "internalType": "string",
          "name": "",
          "type": "string"
        }
      ],
      "name": "messageStorage",
      "outputs": [
        {
          "internalType": "string",
          "name": "",
          "type": "string"
        }
      ],
      "stateMutability": "view",
      "type": "function"
    },
    {
      "inputs": [
        {
          "internalType": "address",
          "name": "to",
          "type": "address"
        },
        {
          "internalType": "uint16",
          "name": "sequenceId",
          "type": "uint16"
        }
      ],
      "name": "mintRecord",
      "outputs": [
        {
          "internalType": "uint256",
          "name": "tokenId",
          "type": "uint256"
        }
      ],
      "stateMutability": "nonpayable",
      "type": "function"
    },
    {
      "inputs": [
        {
          "internalType": "address",
          "name": "to",
          "type": "address"
        },
        {
          "internalType": "uint16",
          "name": "sequenceId",
          "type": "uint16"
        },
        {
          "internalType": "uint80",
          "name": "tokenData",
          "type": "uint80"
        }
      ],
      "name": "mintRecord",
      "outputs": [
        {
          "internalType": "uint256",
          "name": "tokenId",
          "type": "uint256"
        }
      ],
      "stateMutability": "nonpayable",
      "type": "function"
    },
    {
      "inputs": [],
      "name": "name",
      "outputs": [
        {
          "internalType": "string",
          "name": "value",
          "type": "string"
        }
      ],
      "stateMutability": "view",
      "type": "function"
    },
    {
      "inputs": [],
      "name": "nodeRegistry",
      "outputs": [
        {
          "internalType": "contract INodeRegistry",
          "name": "",
          "type": "address"
        }
      ],
      "stateMutability": "view",
      "type": "function"
    },
    {
      "inputs": [],
      "name": "owner",
      "outputs": [
        {
          "internalType": "address",
          "name": "",
          "type": "address"
        }
      ],
      "stateMutability": "view",
      "type": "function"
    },
    {
      "inputs": [
        {
          "internalType": "uint256",
          "name": "id",
          "type": "uint256"
        }
      ],
      "name": "ownerOf",
      "outputs": [
        {
          "internalType": "address",
          "name": "owner",
          "type": "address"
        }
      ],
      "stateMutability": "view",
      "type": "function"
    },
    {
      "inputs": [
        {
          "internalType": "uint256",
          "name": "tokenId",
          "type": "uint256"
        },
        {
          "internalType": "uint256",
          "name": "salePrice",
          "type": "uint256"
        }
      ],
      "name": "royaltyInfo",
      "outputs": [
        {
          "internalType": "address",
          "name": "receiver",
          "type": "address"
        },
        {
          "internalType": "uint256",
          "name": "royaltyAmount",
          "type": "uint256"
        }
      ],
      "stateMutability": "view",
      "type": "function"
    },
    {
      "inputs": [
        {
          "internalType": "address",
          "name": "from",
          "type": "address"
        },
        {
          "internalType": "address",
          "name": "to",
          "type": "address"
        },
        {
          "internalType": "uint256",
          "name": "id",
          "type": "uint256"
        }
      ],
      "name": "safeTransferFrom",
      "outputs": [],
      "stateMutability": "nonpayable",
      "type": "function"
    },
    {
      "inputs": [
        {
          "internalType": "address",
          "name": "from",
          "type": "address"
        },
        {
          "internalType": "address",
          "name": "to",
          "type": "address"
        },
        {
          "internalType": "uint256",
          "name": "id",
          "type": "uint256"
        },
        {
          "internalType": "bytes",
          "name": "data",
          "type": "bytes"
        }
      ],
      "name": "safeTransferFrom",
      "outputs": [],
      "stateMutability": "nonpayable",
      "type": "function"
    },
    {
      "inputs": [],
      "name": "sequenceCount",
      "outputs": [
        {
          "internalType": "uint16",
          "name": "",
          "type": "uint16"
        }
      ],
      "stateMutability": "view",
      "type": "function"
    },
    {
      "inputs": [
        {
          "internalType": "address",
          "name": "operator",
          "type": "address"
        },
        {
          "internalType": "bool",
          "name": "approved",
          "type": "bool"
        }
      ],
      "name": "setApprovalForAll",
      "outputs": [],
      "stateMutability": "nonpayable",
      "type": "function"
    },
    {
      "inputs": [
        {
          "internalType": "address",
          "name": "_owner",
          "type": "address"
        }
      ],
      "name": "setOwner",
      "outputs": [],
      "stateMutability": "nonpayable",
      "type": "function"
    },
    {
      "inputs": [
        {
          "internalType": "bytes4",
          "name": "interfaceId",
          "type": "bytes4"
        }
      ],
      "name": "supportsInterface",
      "outputs": [
        {
          "internalType": "bool",
          "name": "",
          "type": "bool"
        }
      ],
      "stateMutability": "view",
      "type": "function"
    },
    {
      "inputs": [],
      "name": "symbol",
      "outputs": [
        {
          "internalType": "string",
          "name": "value",
          "type": "string"
        }
      ],
      "stateMutability": "view",
      "type": "function"
    },
    {
      "inputs": [
        {
          "internalType": "uint256",
          "name": "tokenId",
          "type": "uint256"
        }
      ],
      "name": "tokenMintData",
      "outputs": [
        {
          "internalType": "uint80",
          "name": "data",
          "type": "uint80"
        }
      ],
      "stateMutability": "view",
      "type": "function"
    },
    {
      "inputs": [
        {
          "internalType": "uint256",
          "name": "tokenId",
          "type": "uint256"
        }
      ],
      "name": "tokenSequenceId",
      "outputs": [
        {
          "internalType": "uint16",
          "name": "sequenceId",
          "type": "uint16"
        }
      ],
      "stateMutability": "view",
      "type": "function"
    },
    {
      "inputs": [
        {
          "internalType": "uint256",
          "name": "tokenId",
          "type": "uint256"
        }
      ],
      "name": "tokenURI",
      "outputs": [
        {
          "internalType": "string",
          "name": "uri",
          "type": "string"
        }
      ],
      "stateMutability": "view",
      "type": "function"
    },
    {
      "inputs": [],
      "name": "totalSupply",
      "outputs": [
        {
          "internalType": "uint256",
          "name": "",
          "type": "uint256"
        }
      ],
      "stateMutability": "view",
      "type": "function"
    },
    {
      "inputs": [
        {
          "internalType": "address",
          "name": "from",
          "type": "address"
        },
        {
          "internalType": "address",
          "name": "to",
          "type": "address"
        },
        {
          "internalType": "uint256",
          "name": "id",
          "type": "uint256"
        }
      ],
      "name": "transferFrom",
      "outputs": [],
      "stateMutability": "nonpayable",
      "type": "function"
    }
  ],
  "bytecode": "0x60806040523480156200001157600080fd5b5060408051608081018252600060608201818152825282516020818101855282825280840191909152835180820185529182528284019190915291516200007f926200005f929101620001a7565b604051602081830303815290604052620000a560201b62001ae31760201c565b600880546001600160a01b0319166001600160a01b03929092169190911790556200026c565b60008082604051602001620000bb91906200020e565b6040516020818303038152906040529050600081604051602001620000e1919062000236565b60405160208183030381529060405290508051602082016000f092506001600160a01b0383166200014c5760405162461bcd60e51b81526020600482015260116024820152701111541313d65351539517d19052531151607a1b604482015260640160405180910390fd5b5050919050565b60005b838110156200017057818101518382015260200162000156565b50506000910152565b600081518084526200019381602086016020860162000153565b601f01601f19169290920160200192915050565b602081526000825160606020840152620001c5608084018262000179565b90506020840151601f1980858403016040860152620001e5838362000179565b925060408601519150808584030160608601525062000205828262000179565b95945050505050565b60008152600082516200022981600185016020870162000153565b9190910160010192915050565b6a600b5981380380925939f360a81b815281516000906200025f81600b85016020870162000153565b91909101600b0192915050565b612e6a806200027c6000396000f3fe608060405234801561001057600080fd5b50600436106102265760003560e01c806370a082311161012a578063d9b5c4a5116100bd578063eaa7bb941161008c578063f8ca7b2811610071578063f8ca7b28146106f8578063fc94c7501461070b578063fe9fbb801461071e57600080fd5b8063eaa7bb941461057b578063ef65403c146105c957600080fd5b8063d9b5c4a514610521578063e112c5cc14610532578063e8a3d48514610545578063e985e9c51461054d57600080fd5b8063aa2eb2c3116100f9578063aa2eb2c31461049a578063b09afec1146104ad578063b88d4fde146104fb578063c87b56dd1461050e57600080fd5b806370a08231146104535780638da5cb5b1461046657806395d89b411461047f578063a22cb4651461048757600080fd5b806323b872dd116101bd5780633a20ad391161018c57806342842e0e1161017157806342842e0e1461041a5780636342747b1461042d5780636352211e1461044057600080fd5b80633a20ad39146103f4578063418267f91461040757600080fd5b806323b872dd146103635780632a55205a146103765780632b67b289146103a85780632dad65c8146103c957600080fd5b806313007d55116101f957806313007d55146102be57806313af40351461030c5780631616d2491461031f57806318160ddd1461034c57600080fd5b806301ffc9a71461022b57806306fdde0314610253578063081812fc14610268578063095ea7b3146102a9575b600080fd5b61023e610239366004611fb1565b610731565b60405190151581526020015b60405180910390f35b61025b610775565b60405161024a9190611ff2565b610291610276366004612025565b6002602052600090815260409020546001600160a01b031681565b6040516001600160a01b03909116815260200161024a565b6102bc6102b7366004612053565b610785565b005b6005546102e4906001600160a01b03811690600160a01b900467ffffffffffffffff1682565b604080516001600160a01b03909316835267ffffffffffffffff90911660208301520161024a565b6102bc61031a36600461207f565b61087b565b600554600160a01b900467ffffffffffffffff1660405167ffffffffffffffff909116815260200161024a565b61035560065481565b60405190815260200161024a565b6102bc61037136600461209c565b610983565b6103896103843660046120dd565b610b77565b604080516001600160a01b03909316835260208301919091520161024a565b6007546103b69061ffff1681565b60405161ffff909116815260200161024a565b6103b66103d7366004612025565b600090815260208190526040902054600160a01b900461ffff1690565b6102bc610402366004612141565b610c3d565b6102bc61041536600461219c565b610f43565b6102bc61042836600461209c565b611055565b61035561043b36600461221a565b61115a565b61029161044e366004612025565b6112ad565b61035561046136600461207f565b611304565b600754610291906201000090046001600160a01b031681565b61025b611378565b6102bc61049536600461225d565b61138b565b61025b6104a836600461232e565b6113f7565b6104c06104bb366004612025565b61149c565b6040805182516001600160a01b0316815260208084015161ffff16908201529181015169ffffffffffffffffffff169082015260600161024a565b6102bc6105093660046123ae565b611545565b61025b61051c366004612025565b61163a565b6005546001600160a01b0316610291565b6102bc610540366004612421565b6116fa565b61025b611830565b61023e61055b3660046124c1565b600360209081526000928352604080842090915290825290205460ff1681565b6105ae610589366004612025565b600090815260208190526040902054600160b01b900469ffffffffffffffffffff1690565b60405169ffffffffffffffffffff909116815260200161024a565b61068f6105d73660046124ef565b6040805160c081018252600080825260208201819052918101829052606081018290526080810182905260a08101919091525061ffff16600090815260096020908152604091829020825160c081018452815467ffffffffffffffff8082168352680100000000000000008204811694830194909452600160801b8104841694820194909452600160c01b90930482166060840152600101546001600160a01b0381166080840152600160a01b90041660a082015290565b60405161024a9190600060c08201905067ffffffffffffffff8084511683528060208501511660208401528060408501511660408401528060608501511660608401526001600160a01b0360808501511660808401528060a08501511660a08401525092915050565b6102bc61070636600461219c565b611843565b61035561071936600461250a565b611917565b61023e61072c36600461207f565b611a5e565b60006001600160e01b031982167f2a55205a00000000000000000000000000000000000000000000000000000000148061076f575061076f82611b94565b92915050565b606061077f611c2d565b51919050565b6000818152602081905260409020546001600160a01b0316338114806107ce57506001600160a01b038116600090815260036020908152604080832033845290915290205460ff165b61081f5760405162461bcd60e51b815260206004820152600e60248201527f4e4f545f415554484f52495a454400000000000000000000000000000000000060448201526064015b60405180910390fd5b60008281526002602052604080822080546001600160a01b0319166001600160a01b0387811691821790925591518593918516917f8c5be1e5ebec7d5bd14f71427d1e84f3dd0314c0f7b2291e5b200ac8c7c3b92591a4505050565b600554604051632565da5f60e11b8152600160a01b820467ffffffffffffffff1660048201523360248201526001600160a01b0390911690634acbb4be90604401602060405180830381865afa1580156108d9573d6000803e3d6000fd5b505050506040513d601f19601f820116820180604052508101906108fd9190612562565b61091a5760405163ea8e4eb560e01b815260040160405180910390fd5b600780546001600160a01b038381166201000081810275ffffffffffffffffffffffffffffffffffffffff00001985161790945560405193909204169182907f8be0079c531659141344cd1fd0a4f28419497f9722a3daafe3b4186f6b6457e090600090a35050565b6000818152602081905260409020546001600160a01b038481169116146109ec5760405162461bcd60e51b815260206004820152600a60248201527f57524f4e475f46524f4d000000000000000000000000000000000000000000006044820152606401610816565b6001600160a01b038216610a425760405162461bcd60e51b815260206004820152601160248201527f494e56414c49445f524543495049454e540000000000000000000000000000006044820152606401610816565b336001600160a01b0384161480610a7c57506001600160a01b038316600090815260036020908152604080832033845290915290205460ff165b80610a9d57506000818152600260205260409020546001600160a01b031633145b610ae95760405162461bcd60e51b815260206004820152600e60248201527f4e4f545f415554484f52495a45440000000000000000000000000000000000006044820152606401610816565b6001600160a01b0380841660008181526001602081815260408084208054600019019055948716808452858420805490930190925585835282815284832080546001600160a01b031990811684179091556002909152848320805490911690559251849392917fddf252ad1be2c89b69c2b068fc378daa952ba7f163c4a11628f55a4df523b3ef91a4505050565b60008281526020818152604080832054600160a01b900461ffff16835260099091528082206001015490517f36de9742000000000000000000000000000000000000000000000000000000008152306004820152602481018590526044810184905282916001600160a01b03169081906336de9742906064016040805180830381865afa158015610c0c573d6000803e3d6000fd5b505050506040513d601f19601f82011682018060405250810190610c30919061257f565b92509250505b9250929050565b600554604051632565da5f60e11b8152600160a01b820467ffffffffffffffff1660048201523360248201526001600160a01b0390911690634acbb4be90604401602060405180830381865afa158015610c9b573d6000803e3d6000fd5b505050506040513d601f19601f82011682018060405250810190610cbf9190612562565b610cdc5760405163ea8e4eb560e01b815260040160405180910390fd5b6005546001600160a01b0316634acbb4be610cfd60c0860160a087016125c3565b6040516001600160e01b031960e084901b16815267ffffffffffffffff9091166004820152336024820152604401602060405180830381865afa158015610d48573d6000803e3d6000fd5b505050506040513d601f19601f82011682018060405250810190610d6c9190612562565b610d895760405163ea8e4eb560e01b815260040160405180910390fd5b6000610d9b60408501602086016125c3565b67ffffffffffffffff16118015610de15750610dbd60408401602085016125c3565b67ffffffffffffffff16610dd460208501856125c3565b67ffffffffffffffff1610155b15610dff57604051631a359c9b60e01b815260040160405180910390fd5b610e0f60808401606085016125c3565b67ffffffffffffffff1615610e3757604051631a359c9b60e01b815260040160405180910390fd5b60078054600091908290610e4e9061ffff166125f6565b825461ffff8083166101009490940a8481029102199091161790925560009081526009602052604090209091508490610e878282612631565b9050508061ffff167f2c9830eb4cdee6707c8730aa9aeb6d4102336f1180122d56a593b3dfeb60f93b858585604051610ec29392919061289a565b60405180910390a2610eda60a085016080860161207f565b6001600160a01b03166322a5c8d0828686866040518563ffffffff1660e01b8152600401610f0b94939291906128c4565b600060405180830381600087803b158015610f2557600080fd5b505af1158015610f39573d6000803e3d6000fd5b5050505050505050565b600554604051632565da5f60e11b8152600160a01b820467ffffffffffffffff1660048201523360248201526001600160a01b0390911690634acbb4be90604401602060405180830381865afa158015610fa1573d6000803e3d6000fd5b505050506040513d601f19601f82011682018060405250810190610fc59190612562565b610fe25760405163ea8e4eb560e01b815260040160405180910390fd5b818160048686604051610ff69291906128fb565b90815260200160405180910390209182611011929190612993565b507f297aa6cf51bb39507374bfcb61edead3172fc87755dea183d848c3a23c704967848484846040516110479493929190612a53565b60405180910390a150505050565b611060838383610983565b6001600160a01b0382163b15806111095750604051630a85bd0160e11b8082523360048301526001600160a01b03858116602484015260448301849052608060648401526000608484015290919084169063150b7a029060a4016020604051808303816000875af11580156110d9573d6000803e3d6000fd5b505050506040513d601f19601f820116820180604052508101906110fd9190612a7a565b6001600160e01b031916145b6111555760405162461bcd60e51b815260206004820152601060248201527f554e534146455f524543495049454e54000000000000000000000000000000006044820152606401610816565b505050565b61ffff81166000908152600960209081526040808320815160c081018352815467ffffffffffffffff8082168352680100000000000000008204811695830195909552600160801b8104851693820193909352600160c01b9092048316606083015260018101546001600160a01b0381166080840152600160a01b900490921660a08201526111e890611c7e565b6006600081546111f790612a97565b91829055508154909250600090829060189061122390600160c01b900467ffffffffffffffff16612ab0565b91906101000a81548167ffffffffffffffff021916908367ffffffffffffffff160217905590506112608584868467ffffffffffffffff16611daf565b60405167ffffffffffffffff8216815261ffff85169084907f309d706ccfa16f4de27619e33808b4439484c67998e9a545f4ca492cbc975e619060200160405180910390a3505092915050565b6000818152602081905260409020546001600160a01b0316806112ff5760405162461bcd60e51b815260206004820152600a6024820152691393d517d3525395115160b21b6044820152606401610816565b919050565b60006001600160a01b03821661135c5760405162461bcd60e51b815260206004820152600c60248201527f5a45524f5f4144445245535300000000000000000000000000000000000000006044820152606401610816565b506001600160a01b031660009081526001602052604090205490565b6060611382611c2d565b60200151905090565b3360008181526003602090815260408083206001600160a01b03871680855290835292819020805460ff191686151590811790915590519081529192917f17307eab39ab6107e8899845ad3d59bd9653f200f220920489ca2b5937696c31910160405180910390a35050565b80516020818301810180516004825292820191909301209152805461141b9061290b565b80601f01602080910402602001604051908101604052809291908181526020018280546114479061290b565b80156114945780601f1061146957610100808354040283529160200191611494565b820191906000526020600020905b81548152906001019060200180831161147757829003601f168201915b505050505081565b604080516060810182526000808252602082018190529181019190915260008281526020818152604091829020825160608101845290546001600160a01b038116808352600160a01b820461ffff1693830193909352600160b01b900469ffffffffffffffffffff169281019290925261076f5760405162461bcd60e51b815260206004820152600a6024820152691393d517d3525395115160b21b6044820152606401610816565b611550858585610983565b6001600160a01b0384163b15806115e75750604051630a85bd0160e11b808252906001600160a01b0386169063150b7a02906115989033908a90899089908990600401612acd565b6020604051808303816000875af11580156115b7573d6000803e3d6000fd5b505050506040513d601f19601f820116820180604052508101906115db9190612a7a565b6001600160e01b031916145b6116335760405162461bcd60e51b815260206004820152601060248201527f554e534146455f524543495049454e54000000000000000000000000000000006044820152606401610816565b5050505050565b60008181526020818152604080832054600160a01b900461ffff1683526009909152908190206001015490517f0b63fd62000000000000000000000000000000000000000000000000000000008152306004820152602481018390526060916001600160a01b0316908190630b63fd6290604401600060405180830381865afa1580156116cb573d6000803e3d6000fd5b505050506040513d6000823e601f3d908101601f191682016040526116f39190810190612b4d565b9392505050565b6008546001600160a01b03161561173d576040517f0dc149f000000000000000000000000000000000000000000000000000000000815260040160405180910390fd5b611765816040516020016117519190612bc8565b604051602081830303815290604052611ae3565b600880546001600160a01b0319166001600160a01b039283161790556007805475ffffffffffffffffffffffffffffffffffffffff0000191662010000888416810291909117918290556040519104909116906000907f8be0079c531659141344cd1fd0a4f28419497f9722a3daafe3b4186f6b6457e0908290a38360056117ed8282612c48565b9050507f297aa6cf51bb39507374bfcb61edead3172fc87755dea183d848c3a23c7049678383604051611821929190612cb9565b60405180910390a15050505050565b606061183a611c2d565b60400151905090565b600554604051632565da5f60e11b8152600160a01b820467ffffffffffffffff1660048201523360248201526001600160a01b0390911690634acbb4be90604401602060405180830381865afa1580156118a1573d6000803e3d6000fd5b505050506040513d601f19601f820116820180604052508101906118c59190612562565b6118e25760405163ea8e4eb560e01b815260040160405180910390fd5b7f297aa6cf51bb39507374bfcb61edead3172fc87755dea183d848c3a23c704967848484846040516110479493929190612a53565b61ffff82166000908152600960209081526040808320815160c081018352815467ffffffffffffffff8082168352680100000000000000008204811695830195909552600160801b8104851693820193909352600160c01b9092048316606083015260018101546001600160a01b0381166080840152600160a01b900490921660a08201526119a590611c7e565b6006600081546119b490612a97565b9182905550815490925081906018906119dd90600160c01b900467ffffffffffffffff16612ab0565b91906101000a81548167ffffffffffffffff021916908367ffffffffffffffff160217905550611a0f85838686611daf565b60405169ffffffffffffffffffff8416815261ffff85169083907f309d706ccfa16f4de27619e33808b4439484c67998e9a545f4ca492cbc975e619060200160405180910390a3509392505050565b600554604051632565da5f60e11b8152600160a01b820467ffffffffffffffff1660048201526001600160a01b0383811660248301526000921690634acbb4be90604401602060405180830381865afa158015611abf573d6000803e3d6000fd5b505050506040513d601f19601f8201168201806040525081019061076f9190612562565b60008082604051602001611af79190612d01565b6040516020818303038152906040529050600081604051602001611b1b9190612d27565b60405160208183030381529060405290508051602082016000f092506001600160a01b038316611b8d5760405162461bcd60e51b815260206004820152601160248201527f4445504c4f594d454e545f4641494c45440000000000000000000000000000006044820152606401610816565b5050919050565b60007f01ffc9a7000000000000000000000000000000000000000000000000000000006001600160e01b031983161480611bf757507f80ac58cd000000000000000000000000000000000000000000000000000000006001600160e01b03198316145b8061076f5750506001600160e01b0319167f5b5e139f000000000000000000000000000000000000000000000000000000001490565b611c5160405180606001604052806060815260200160608152602001606081525090565b600854611c66906001600160a01b0316611f5c565b806020019051810190611c799190612d6c565b905090565b60808101516001600160a01b03163314611cc4576040517fa6df31da00000000000000000000000000000000000000000000000000000000815260040160405180910390fd5b805167ffffffffffffffff16421080611d0457506000816020015167ffffffffffffffff16118015611d045750806020015167ffffffffffffffff164210155b15611d3b576040517f17444c4d00000000000000000000000000000000000000000000000000000000815260040160405180910390fd5b6000816040015167ffffffffffffffff16118015611d755750806040015167ffffffffffffffff16816060015167ffffffffffffffff1610155b15611dac576040517fcdcf382c00000000000000000000000000000000000000000000000000000000815260040160405180910390fd5b50565b6001600160a01b038416611e055760405162461bcd60e51b815260206004820152601160248201527f494e56414c49445f524543495049454e540000000000000000000000000000006044820152606401610816565b6000838152602081905260409020546001600160a01b031615611e6a5760405162461bcd60e51b815260206004820152600e60248201527f414c52454144595f4d494e5445440000000000000000000000000000000000006044820152606401610816565b6001600160a01b0384811660008181526001602081815260408084208054909301909255815160608101835284815261ffff88811682840190815269ffffffffffffffffffff8981168487019081528c885294879052858720935184549251955199167fffffffffffffffffffff0000000000000000000000000000000000000000000090921691909117600160a01b94909216939093021775ffffffffffffffffffffffffffffffffffffffffffff16600160b01b96909216959095021790935591518592907fddf252ad1be2c89b69c2b068fc378daa952ba7f163c4a11628f55a4df523b3ef908290a450505050565b606061076f826001611f78816001600160a01b0384163b612e21565b60408051603f8301601f19168101909152818152818360208301863c9392505050565b6001600160e01b031981168114611dac57600080fd5b600060208284031215611fc357600080fd5b81356116f381611f9b565b60005b83811015611fe9578181015183820152602001611fd1565b50506000910152565b6020815260008251806020840152612011816040850160208701611fce565b601f01601f19169190910160400192915050565b60006020828403121561203757600080fd5b5035919050565b6001600160a01b0381168114611dac57600080fd5b6000806040838503121561206657600080fd5b82356120718161203e565b946020939093013593505050565b60006020828403121561209157600080fd5b81356116f38161203e565b6000806000606084860312156120b157600080fd5b83356120bc8161203e565b925060208401356120cc8161203e565b929592945050506040919091013590565b600080604083850312156120f057600080fd5b50508035926020909101359150565b60008083601f84011261211157600080fd5b50813567ffffffffffffffff81111561212957600080fd5b602083019150836020828501011115610c3657600080fd5b600080600083850360e081121561215757600080fd5b60c081121561216557600080fd5b5083925060c084013567ffffffffffffffff81111561218357600080fd5b61218f868287016120ff565b9497909650939450505050565b600080600080604085870312156121b257600080fd5b843567ffffffffffffffff808211156121ca57600080fd5b6121d6888389016120ff565b909650945060208701359150808211156121ef57600080fd5b506121fc878288016120ff565b95989497509550505050565b803561ffff811681146112ff57600080fd5b6000806040838503121561222d57600080fd5b82356122388161203e565b915061224660208401612208565b90509250929050565b8015158114611dac57600080fd5b6000806040838503121561227057600080fd5b823561227b8161203e565b9150602083013561228b8161224f565b809150509250929050565b634e487b7160e01b600052604160045260246000fd5b6040516060810167ffffffffffffffff811182821017156122cf576122cf612296565b60405290565b604051601f8201601f1916810167ffffffffffffffff811182821017156122fe576122fe612296565b604052919050565b600067ffffffffffffffff82111561232057612320612296565b50601f01601f191660200190565b60006020828403121561234057600080fd5b813567ffffffffffffffff81111561235757600080fd5b8201601f8101841361236857600080fd5b803561237b61237682612306565b6122d5565b81815285602083850101111561239057600080fd5b81602084016020830137600091810160200191909152949350505050565b6000806000806000608086880312156123c657600080fd5b85356123d18161203e565b945060208601356123e18161203e565b935060408601359250606086013567ffffffffffffffff81111561240457600080fd5b612410888289016120ff565b969995985093965092949392505050565b600080600080600085870360a081121561243a57600080fd5b86356124458161203e565b95506040601f198201121561245957600080fd5b50602086019350606086013567ffffffffffffffff8082111561247b57600080fd5b61248789838a016120ff565b909550935060808801359150808211156124a057600080fd5b508601606081890312156124b357600080fd5b809150509295509295909350565b600080604083850312156124d457600080fd5b82356124df8161203e565b9150602083013561228b8161203e565b60006020828403121561250157600080fd5b6116f382612208565b60008060006060848603121561251f57600080fd5b833561252a8161203e565b925061253860208501612208565b9150604084013569ffffffffffffffffffff8116811461255757600080fd5b809150509250925092565b60006020828403121561257457600080fd5b81516116f38161224f565b6000806040838503121561259257600080fd5b825161259d8161203e565b6020939093015192949293505050565b67ffffffffffffffff81168114611dac57600080fd5b6000602082840312156125d557600080fd5b81356116f3816125ad565b634e487b7160e01b600052601160045260246000fd5b600061ffff80831681810361260d5761260d6125e0565b6001019392505050565b6000813561076f816125ad565b6000813561076f8161203e565b813561263c816125ad565b67ffffffffffffffff8116905081548167ffffffffffffffff1982161783556020840135612669816125ad565b6fffffffffffffffff00000000000000008160401b16905080837fffffffffffffffffffffffffffffffff0000000000000000000000000000000084161717845560408501356126b8816125ad565b77ffffffffffffffff000000000000000000000000000000008160801b16847fffffffffffffffff00000000000000000000000000000000000000000000000085161783171785555050505061275c61271360608401612617565b825477ffffffffffffffffffffffffffffffffffffffffffffffff1660c09190911b7fffffffffffffffff00000000000000000000000000000000000000000000000016178255565b6001810161278c61276f60808501612624565b82546001600160a01b0319166001600160a01b0391909116178255565b61115561279b60a08501612617565b82547fffffffff0000000000000000ffffffffffffffffffffffffffffffffffffffff1660a09190911b67ffffffffffffffff60a01b16178255565b80356127e2816125ad565b67ffffffffffffffff90811683526020820135906127ff826125ad565b9081166020840152604082013590612816826125ad565b908116604084015260608201359061282d826125ad565b90811660608401526080820135906128448261203e565b6001600160a01b038216608085015260a08301359150612863826125ad565b80821660a085015250505050565b81835281816020850137506000828201602090810191909152601f909101601f19169091010190565b6128a481856127d7565b60e060c082015260006128bb60e083018486612871565b95945050505050565b600061010061ffff871683526128dd60208401876127d7565b8060e08401526128f08184018587612871565b979650505050505050565b8183823760009101908152919050565b600181811c9082168061291f57607f821691505b60208210810361293f57634e487b7160e01b600052602260045260246000fd5b50919050565b601f82111561115557600081815260208120601f850160051c8101602086101561296c5750805b601f850160051c820191505b8181101561298b57828155600101612978565b505050505050565b67ffffffffffffffff8311156129ab576129ab612296565b6129bf836129b9835461290b565b83612945565b6000601f8411600181146129f357600085156129db5750838201355b600019600387901b1c1916600186901b178355611633565b600083815260209020601f19861690835b82811015612a245786850135825560209485019460019092019101612a04565b5086821015612a415760001960f88860031b161c19848701351681555b505060018560011b0183555050505050565b604081526000612a67604083018688612871565b82810360208401526128f0818587612871565b600060208284031215612a8c57600080fd5b81516116f381611f9b565b600060018201612aa957612aa96125e0565b5060010190565b600067ffffffffffffffff80831681810361260d5761260d6125e0565b60006001600160a01b038088168352808716602084015250846040830152608060608301526128f0608083018486612871565b600082601f830112612b1157600080fd5b8151612b1f61237682612306565b818152846020838601011115612b3457600080fd5b612b45826020830160208701611fce565b949350505050565b600060208284031215612b5f57600080fd5b815167ffffffffffffffff811115612b7657600080fd5b612b4584828501612b00565b6000808335601e19843603018112612b9957600080fd5b830160208101925035905067ffffffffffffffff811115612bb957600080fd5b803603821315610c3657600080fd5b602081526000612bd88384612b82565b60606020850152612bed608085018284612871565b915050612bfd6020850185612b82565b601f1980868503016040870152612c15848385612871565b9350612c246040880188612b82565b935091508086850301606087015250612c3e838383612871565b9695505050505050565b8135612c538161203e565b81546001600160a01b0319166001600160a01b038216178255506020820135612c7b816125ad565b81547fffffffff0000000000000000ffffffffffffffffffffffffffffffffffffffff1660a082901b67ffffffffffffffff60a01b16178255505050565b60408152600860408201527f6d657461646174610000000000000000000000000000000000000000000000006060820152608060208201526000612b45608083018486612871565b6000815260008251612d1a816001850160208701611fce565b9190910160010192915050565b7f600b5981380380925939f3000000000000000000000000000000000000000000815260008251612d5f81600b850160208701611fce565b91909101600b0192915050565b600060208284031215612d7e57600080fd5b815167ffffffffffffffff80821115612d9657600080fd5b9083019060608286031215612daa57600080fd5b612db26122ac565b825182811115612dc157600080fd5b612dcd87828601612b00565b825250602083015182811115612de257600080fd5b612dee87828601612b00565b602083015250604083015182811115612e0657600080fd5b612e1287828601612b00565b60408301525095945050505050565b8181038181111561076f5761076f6125e056fea26469706673582212209d48682c9c6c4e33e5ad12e1dbc0887937a3496e0cf1bad10631cb76969980bb64736f6c63430008110033",
  "linkReferences": {},
  "deployedLinkReferences": {}
}