{
  "_format": "hh-sol-artifact-1",
  "contractName": "Collection",
  "sourceName": "contracts/Collection.sol",
  "abi": [
    {
      "inputs": [],
      "stateMutability": "nonpayable",
      "type": "constructor"
    },
    {
      "inputs": [],
      "name": "AlreadyInitialized",
      "type": "error"
    },
    {
      "inputs": [],
      "name": "InvalidMintRequest",
      "type": "error"
    },
    {
      "inputs": [],
      "name": "InvalidSequenceConfig",
      "type": "error"
    },
    {
      "inputs": [],
      "name": "NotAuthorized",
      "type": "error"
    },
    {
      "inputs": [],
      "name": "SequenceIsSealed",
      "type": "error"
    },
    {
      "inputs": [],
      "name": "SequenceSupplyExhausted",
      "type": "error"
    },
    {
      "anonymous": false,
      "inputs": [
        {
          "indexed": true,
          "internalType": "address",
          "name": "owner",
          "type": "address"
        },
        {
          "indexed": true,
          "internalType": "address",
          "name": "spender",
          "type": "address"
        },
        {
          "indexed": true,
          "internalType": "uint256",
          "name": "id",
          "type": "uint256"
        }
      ],
      "name": "Approval",
      "type": "event"
    },
    {
      "anonymous": false,
      "inputs": [
        {
          "indexed": true,
          "internalType": "address",
          "name": "owner",
          "type": "address"
        },
        {
          "indexed": true,
          "internalType": "address",
          "name": "operator",
          "type": "address"
        },
        {
          "indexed": false,
          "internalType": "bool",
          "name": "approved",
          "type": "bool"
        }
      ],
      "name": "ApprovalForAll",
      "type": "event"
    },
    {
      "anonymous": false,
      "inputs": [
        {
          "indexed": false,
          "internalType": "string",
          "name": "topic",
          "type": "string"
        },
        {
          "indexed": false,
          "internalType": "string",
          "name": "message",
          "type": "string"
        }
      ],
      "name": "Broadcast",
      "type": "event"
    },
    {
      "anonymous": false,
      "inputs": [
        {
          "indexed": true,
          "internalType": "address",
          "name": "previousOwner",
          "type": "address"
        },
        {
          "indexed": true,
          "internalType": "address",
          "name": "newOwner",
          "type": "address"
        }
      ],
      "name": "OwnershipTransferred",
      "type": "event"
    },
    {
      "anonymous": false,
      "inputs": [
        {
          "indexed": true,
          "internalType": "uint256",
          "name": "tokenId",
          "type": "uint256"
        },
        {
          "indexed": true,
          "internalType": "uint16",
          "name": "sequenceId",
          "type": "uint16"
        },
        {
          "indexed": false,
          "internalType": "uint80",
          "name": "data",
          "type": "uint80"
        }
      ],
      "name": "RecordCreated",
      "type": "event"
    },
    {
      "anonymous": false,
      "inputs": [
        {
          "indexed": true,
          "internalType": "uint16",
          "name": "sequenceId",
          "type": "uint16"
        },
        {
          "components": [
            {
              "internalType": "uint64",
              "name": "sealedBeforeTimestamp",
              "type": "uint64"
            },
            {
              "internalType": "uint64",
              "name": "sealedAfterTimestamp",
              "type": "uint64"
            },
            {
              "internalType": "uint64",
              "name": "maxSupply",
              "type": "uint64"
            },
            {
              "internalType": "uint64",
              "name": "minted",
              "type": "uint64"
            },
            {
              "internalType": "contract IEngine",
              "name": "engine",
              "type": "address"
            },
            {
              "internalType": "uint64",
              "name": "dropNodeId",
              "type": "uint64"
            }
          ],
          "indexed": false,
          "internalType": "struct SequenceData",
          "name": "sequenceData",
          "type": "tuple"
        },
        {
          "indexed": false,
          "internalType": "bytes",
          "name": "engineData",
          "type": "bytes"
        }
      ],
      "name": "SequenceConfigured",
      "type": "event"
    },
    {
      "anonymous": false,
      "inputs": [
        {
          "indexed": true,
          "internalType": "address",
          "name": "from",
          "type": "address"
        },
        {
          "indexed": true,
          "internalType": "address",
          "name": "to",
          "type": "address"
        },
        {
          "indexed": true,
          "internalType": "uint256",
          "name": "id",
          "type": "uint256"
        }
      ],
      "name": "Transfer",
      "type": "event"
    },
    {
      "inputs": [
        {
          "internalType": "address",
          "name": "spender",
          "type": "address"
        },
        {
          "internalType": "uint256",
          "name": "id",
          "type": "uint256"
        }
      ],
      "name": "approve",
      "outputs": [],
      "stateMutability": "nonpayable",
      "type": "function"
    },
    {
      "inputs": [
        {
          "internalType": "address",
          "name": "owner",
          "type": "address"
        }
      ],
      "name": "balanceOf",
      "outputs": [
        {
          "internalType": "uint256",
          "name": "",
          "type": "uint256"
        }
      ],
      "stateMutability": "view",
      "type": "function"
    },
    {
      "inputs": [
        {
          "internalType": "string",
          "name": "topic",
          "type": "string"
        },
        {
          "internalType": "string",
          "name": "message",
          "type": "string"
        }
      ],
      "name": "broadcast",
      "outputs": [],
      "stateMutability": "nonpayable",
      "type": "function"
    },
    {
      "inputs": [
        {
          "internalType": "string",
          "name": "topic",
          "type": "string"
        },
        {
          "internalType": "string",
          "name": "message",
          "type": "string"
        }
      ],
      "name": "broadcastAndStore",
      "outputs": [],
      "stateMutability": "nonpayable",
      "type": "function"
    },
    {
      "inputs": [
        {
          "components": [
            {
              "internalType": "uint64",
              "name": "sealedBeforeTimestamp",
              "type": "uint64"
            },
            {
              "internalType": "uint64",
              "name": "sealedAfterTimestamp",
              "type": "uint64"
            },
            {
              "internalType": "uint64",
              "name": "maxSupply",
              "type": "uint64"
            },
            {
              "internalType": "uint64",
              "name": "minted",
              "type": "uint64"
            },
            {
              "internalType": "contract IEngine",
              "name": "engine",
              "type": "address"
            },
            {
              "internalType": "uint64",
              "name": "dropNodeId",
              "type": "uint64"
            }
          ],
          "internalType": "struct SequenceData",
          "name": "_sequence",
          "type": "tuple"
        },
        {
          "internalType": "bytes",
          "name": "_engineData",
          "type": "bytes"
        }
      ],
      "name": "configureSequence",
      "outputs": [],
      "stateMutability": "nonpayable",
      "type": "function"
    },
    {
      "inputs": [],
      "name": "contractURI",
      "outputs": [
        {
          "internalType": "string",
          "name": "uri",
          "type": "string"
        }
      ],
      "stateMutability": "view",
      "type": "function"
    },
    {
      "inputs": [],
      "name": "controlNode",
      "outputs": [
        {
          "internalType": "uint64",
          "name": "nodeId",
          "type": "uint64"
        }
      ],
      "stateMutability": "pure",
      "type": "function"
    },
    {
      "inputs": [
        {
          "internalType": "uint256",
          "name": "",
          "type": "uint256"
        }
      ],
      "name": "getApproved",
      "outputs": [
        {
          "internalType": "address",
          "name": "",
          "type": "address"
        }
      ],
      "stateMutability": "view",
      "type": "function"
    },
    {
      "inputs": [
        {
          "internalType": "uint256",
          "name": "id",
          "type": "uint256"
        }
      ],
      "name": "getTokenData",
      "outputs": [
        {
          "components": [
            {
              "internalType": "address",
              "name": "owner",
              "type": "address"
            },
            {
              "internalType": "uint16",
              "name": "sequenceId",
              "type": "uint16"
            },
            {
              "internalType": "uint80",
              "name": "data",
              "type": "uint80"
            }
          ],
          "internalType": "struct TokenData",
          "name": "",
          "type": "tuple"
        }
      ],
      "stateMutability": "view",
      "type": "function"
    },
    {
      "inputs": [
        {
          "internalType": "string",
          "name": "_name",
          "type": "string"
        },
        {
          "internalType": "string",
          "name": "_symbol",
          "type": "string"
        },
        {
          "internalType": "address",
          "name": "_owner",
          "type": "address"
        },
        {
          "internalType": "string",
          "name": "_contractURI",
          "type": "string"
        }
      ],
      "name": "init",
      "outputs": [],
      "stateMutability": "nonpayable",
      "type": "function"
    },
    {
      "inputs": [
        {
          "internalType": "address",
          "name": "",
          "type": "address"
        },
        {
          "internalType": "address",
          "name": "",
          "type": "address"
        }
      ],
      "name": "isApprovedForAll",
      "outputs": [
        {
          "internalType": "bool",
          "name": "",
          "type": "bool"
        }
      ],
      "stateMutability": "view",
      "type": "function"
    },
    {
      "inputs": [
        {
          "internalType": "string",
          "name": "",
          "type": "string"
        }
      ],
      "name": "messageStorage",
      "outputs": [
        {
          "internalType": "string",
          "name": "",
          "type": "string"
        }
      ],
      "stateMutability": "view",
      "type": "function"
    },
    {
      "inputs": [
        {
          "internalType": "address",
          "name": "to",
          "type": "address"
        },
        {
          "internalType": "uint16",
          "name": "sequenceId",
          "type": "uint16"
        }
      ],
      "name": "mintRecord",
      "outputs": [
        {
          "internalType": "uint256",
          "name": "tokenId",
          "type": "uint256"
        }
      ],
      "stateMutability": "nonpayable",
      "type": "function"
    },
    {
      "inputs": [
        {
          "internalType": "address",
          "name": "to",
          "type": "address"
        },
        {
          "internalType": "uint16",
          "name": "sequenceId",
          "type": "uint16"
        },
        {
          "internalType": "uint80",
          "name": "tokenData",
          "type": "uint80"
        }
      ],
      "name": "mintRecord",
      "outputs": [
        {
          "internalType": "uint256",
          "name": "tokenId",
          "type": "uint256"
        }
      ],
      "stateMutability": "nonpayable",
      "type": "function"
    },
    {
      "inputs": [],
      "name": "name",
      "outputs": [
        {
          "internalType": "string",
          "name": "",
          "type": "string"
        }
      ],
      "stateMutability": "view",
      "type": "function"
    },
    {
      "inputs": [],
      "name": "nodeRegistry",
      "outputs": [
        {
          "internalType": "contract INodeRegistry",
          "name": "nodes",
          "type": "address"
        }
      ],
      "stateMutability": "pure",
      "type": "function"
    },
    {
      "inputs": [],
      "name": "owner",
      "outputs": [
        {
          "internalType": "address",
          "name": "",
          "type": "address"
        }
      ],
      "stateMutability": "view",
      "type": "function"
    },
    {
      "inputs": [
        {
          "internalType": "uint256",
          "name": "id",
          "type": "uint256"
        }
      ],
      "name": "ownerOf",
      "outputs": [
        {
          "internalType": "address",
          "name": "owner",
          "type": "address"
        }
      ],
      "stateMutability": "view",
      "type": "function"
    },
    {
      "inputs": [
        {
          "internalType": "uint256",
          "name": "tokenId",
          "type": "uint256"
        },
        {
          "internalType": "uint256",
          "name": "salePrice",
          "type": "uint256"
        }
      ],
      "name": "royaltyInfo",
      "outputs": [
        {
          "internalType": "address",
          "name": "receiver",
          "type": "address"
        },
        {
          "internalType": "uint256",
          "name": "royaltyAmount",
          "type": "uint256"
        }
      ],
      "stateMutability": "view",
      "type": "function"
    },
    {
      "inputs": [
        {
          "internalType": "address",
          "name": "from",
          "type": "address"
        },
        {
          "internalType": "address",
          "name": "to",
          "type": "address"
        },
        {
          "internalType": "uint256",
          "name": "id",
          "type": "uint256"
        }
      ],
      "name": "safeTransferFrom",
      "outputs": [],
      "stateMutability": "nonpayable",
      "type": "function"
    },
    {
      "inputs": [
        {
          "internalType": "address",
          "name": "from",
          "type": "address"
        },
        {
          "internalType": "address",
          "name": "to",
          "type": "address"
        },
        {
          "internalType": "uint256",
          "name": "id",
          "type": "uint256"
        },
        {
          "internalType": "bytes",
          "name": "data",
          "type": "bytes"
        }
      ],
      "name": "safeTransferFrom",
      "outputs": [],
      "stateMutability": "nonpayable",
      "type": "function"
    },
    {
      "inputs": [],
      "name": "sequenceCount",
      "outputs": [
        {
          "internalType": "uint16",
          "name": "",
          "type": "uint16"
        }
      ],
      "stateMutability": "view",
      "type": "function"
    },
    {
      "inputs": [
        {
          "internalType": "uint16",
          "name": "",
          "type": "uint16"
        }
      ],
      "name": "sequences",
      "outputs": [
        {
          "internalType": "uint64",
          "name": "sealedBeforeTimestamp",
          "type": "uint64"
        },
        {
          "internalType": "uint64",
          "name": "sealedAfterTimestamp",
          "type": "uint64"
        },
        {
          "internalType": "uint64",
          "name": "maxSupply",
          "type": "uint64"
        },
        {
          "internalType": "uint64",
          "name": "minted",
          "type": "uint64"
        },
        {
          "internalType": "contract IEngine",
          "name": "engine",
          "type": "address"
        },
        {
          "internalType": "uint64",
          "name": "dropNodeId",
          "type": "uint64"
        }
      ],
      "stateMutability": "view",
      "type": "function"
    },
    {
      "inputs": [
        {
          "internalType": "address",
          "name": "operator",
          "type": "address"
        },
        {
          "internalType": "bool",
          "name": "approved",
          "type": "bool"
        }
      ],
      "name": "setApprovalForAll",
      "outputs": [],
      "stateMutability": "nonpayable",
      "type": "function"
    },
    {
      "inputs": [
        {
          "internalType": "address",
          "name": "_owner",
          "type": "address"
        }
      ],
      "name": "setOwner",
      "outputs": [],
      "stateMutability": "nonpayable",
      "type": "function"
    },
    {
      "inputs": [
        {
          "internalType": "bytes4",
          "name": "interfaceId",
          "type": "bytes4"
        }
      ],
      "name": "supportsInterface",
      "outputs": [
        {
          "internalType": "bool",
          "name": "",
          "type": "bool"
        }
      ],
      "stateMutability": "view",
      "type": "function"
    },
    {
      "inputs": [],
      "name": "symbol",
      "outputs": [
        {
          "internalType": "string",
          "name": "",
          "type": "string"
        }
      ],
      "stateMutability": "view",
      "type": "function"
    },
    {
      "inputs": [
        {
          "internalType": "uint256",
          "name": "tokenId",
          "type": "uint256"
        }
      ],
      "name": "tokenMintData",
      "outputs": [
        {
          "internalType": "uint80",
          "name": "data",
          "type": "uint80"
        }
      ],
      "stateMutability": "view",
      "type": "function"
    },
    {
      "inputs": [
        {
          "internalType": "uint256",
          "name": "tokenId",
          "type": "uint256"
        }
      ],
      "name": "tokenSequenceId",
      "outputs": [
        {
          "internalType": "uint16",
          "name": "sequenceId",
          "type": "uint16"
        }
      ],
      "stateMutability": "view",
      "type": "function"
    },
    {
      "inputs": [
        {
          "internalType": "uint256",
          "name": "tokenId",
          "type": "uint256"
        }
      ],
      "name": "tokenURI",
      "outputs": [
        {
          "internalType": "string",
          "name": "uri",
          "type": "string"
        }
      ],
      "stateMutability": "view",
      "type": "function"
    },
    {
      "inputs": [],
      "name": "totalSupply",
      "outputs": [
        {
          "internalType": "uint256",
          "name": "",
          "type": "uint256"
        }
      ],
      "stateMutability": "view",
      "type": "function"
    },
    {
      "inputs": [
        {
          "internalType": "address",
          "name": "from",
          "type": "address"
        },
        {
          "internalType": "address",
          "name": "to",
          "type": "address"
        },
        {
          "internalType": "uint256",
          "name": "id",
          "type": "uint256"
        }
      ],
      "name": "transferFrom",
      "outputs": [],
      "stateMutability": "nonpayable",
      "type": "function"
    }
  ],
  "bytecode": "0x60806040523480156200001157600080fd5b506040518060400160405280600a81526020016921b7b63632b1ba34b7b760b11b8152506040518060400160405280600a81526020016921a7a62622a1aa24a7a760b11b8152508160009080519060200190620000709291906200009c565b508051620000869060019060208401906200009c565b5050600a805460ff19166001179055506200017e565b828054620000aa9062000142565b90600052602060002090601f016020900481019282620000ce576000855562000119565b82601f10620000e957805160ff191683800117855562000119565b8280016001018555821562000119579182015b8281111562000119578251825591602001919060010190620000fc565b50620001279291506200012b565b5090565b5b808211156200012757600081556001016200012c565b600181811c908216806200015757607f821691505b6020821081036200017857634e487b7160e01b600052602260045260246000fd5b50919050565b6126ac806200018e6000396000f3fe608060405234801561001057600080fd5b50600436106101f05760003560e01c80636352211e1161010f578063c87b56dd116100a2578063e985e9c511610071578063e985e9c51461055e578063eaa7bb941461058c578063f8ca7b28146105d4578063fc94c750146105e757600080fd5b8063c87b56dd1461048d578063d9b5c4a5146104a0578063e8a3d485146104a8578063e8e9099e146104b057600080fd5b8063a22cb465116100de578063a22cb46514610409578063aa2eb2c31461041c578063b09afec11461042f578063b88d4fde1461047a57600080fd5b80636352211e146103c257806370a08231146103d55780638da5cb5b146103e857806395d89b411461040157600080fd5b80632a55205a11610187578063418267f911610156578063418267f91461037657806342842e0e146103895780635002254c1461039c5780636342747b146103af57600080fd5b80632a55205a146102e55780632b67b289146103175780632dad65c8146103385780633a20ad391461036357600080fd5b806313af4035116101c357806313af4035146102885780631616d2491461029b57806318160ddd146102bb57806323b872dd146102d257600080fd5b806301ffc9a7146101f557806306fdde031461021d578063081812fc14610232578063095ea7b314610273575b600080fd5b610208610203366004611bef565b6105fa565b60405190151581526020015b60405180910390f35b610225610625565b6040516102149190611c3c565b61025b610240366004611c6f565b6004602052600090815260409020546001600160a01b031681565b6040516001600160a01b039091168152602001610214565b610286610281366004611c9d565b6106b3565b005b610286610296366004611cc9565b61079a565b6102a3610890565b6040516001600160401b039091168152602001610214565b6102c460075481565b604051908152602001610214565b6102866102e0366004611ce6565b6108a1565b6102f86102f3366004611d27565b610a68565b604080516001600160a01b039093168352602083019190915201610214565b6008546103259061ffff1681565b60405161ffff9091168152602001610214565b610325610346366004611c6f565b600090815260026020526040902054600160a01b900461ffff1690565b610286610371366004611d8a565b610b17565b610286610384366004611de4565b610d9a565b610286610397366004611ce6565b610ea6565b6102866103aa366004611e4f565b610f9e565b6102c46103bd366004611f0f565b6110bc565b61025b6103d0366004611c6f565b611204565b6102c46103e3366004611cc9565b61125b565b60085461025b906201000090046001600160a01b031681565b6102256112be565b610286610417366004611f52565b6112cb565b61022561042a366004611ff8565b611337565b61044261043d366004611c6f565b61135b565b6040805182516001600160a01b0316815260208084015161ffff1690820152918101516001600160501b031690820152606001610214565b610286610488366004612077565b6113fd565b61022561049b366004611c6f565b6114e5565b61025b61158e565b61022561159a565b6105156104be3660046120e9565b600960205260009081526040902080546001909101546001600160401b0380831692600160401b8104821692600160801b8204831692600160c01b9092048216916001600160a01b03821691600160a01b90041686565b604080516001600160401b03978816815295871660208701529386169385019390935290841660608401526001600160a01b0316608083015290911660a082015260c001610214565b61020861056c366004612104565b600560209081526000928352604080842090915290825290205460ff1681565b6105bc61059a366004611c6f565b600090815260026020526040902054600160b01b90046001600160501b031690565b6040516001600160501b039091168152602001610214565b6102866105e2366004611de4565b611655565b6102c46105f5366004612132565b611724565b60006001600160e01b0319821663152a902d60e11b148061061f575061061f8261185f565b92915050565b6000805461063290612187565b80601f016020809104026020016040519081016040528092919081815260200182805461065e90612187565b80156106ab5780601f10610680576101008083540402835291602001916106ab565b820191906000526020600020905b81548152906001019060200180831161068e57829003601f168201915b505050505081565b6000818152600260205260409020546001600160a01b0316338114806106fc57506001600160a01b038116600090815260056020908152604080832033845290915290205460ff165b61073e5760405162461bcd60e51b815260206004820152600e60248201526d1393d517d055551213d49256915160921b60448201526064015b60405180910390fd5b60008281526004602052604080822080546001600160a01b0319166001600160a01b0387811691821790925591518593918516917f8c5be1e5ebec7d5bd14f71427d1e84f3dd0314c0f7b2291e5b200ac8c7c3b92591a4505050565b6107a261158e565b6001600160a01b0316634acbb4be6107b8610890565b336040518363ffffffff1660e01b81526004016107d69291906121c1565b602060405180830381865afa1580156107f3573d6000803e3d6000fd5b505050506040513d601f19601f8201168201806040525081019061081791906121e3565b6108345760405163ea8e4eb560e01b815260040160405180910390fd5b600880546001600160a01b038381166201000081810262010000600160b01b031985161790945560405193909204169182907f8be0079c531659141344cd1fd0a4f28419497f9722a3daafe3b4186f6b6457e090600090a35050565b600061089c60146118ad565b905090565b6000818152600260205260409020546001600160a01b038481169116146108f75760405162461bcd60e51b815260206004820152600a60248201526957524f4e475f46524f4d60b01b6044820152606401610735565b6001600160a01b0382166109415760405162461bcd60e51b81526020600482015260116024820152701253959053125117d49150d25412515395607a1b6044820152606401610735565b336001600160a01b038416148061097b57506001600160a01b038316600090815260056020908152604080832033845290915290205460ff165b8061099c57506000818152600460205260409020546001600160a01b031633145b6109d95760405162461bcd60e51b815260206004820152600e60248201526d1393d517d055551213d49256915160921b6044820152606401610735565b6001600160a01b0380841660008181526003602090815260408083208054600019019055938616808352848320805460010190558583526002825284832080546001600160a01b03199081168317909155600490925284832080549092169091559251849392917fddf252ad1be2c89b69c2b068fc378daa952ba7f163c4a11628f55a4df523b3ef91a4505050565b600082815260026020908152604080832054600160a01b900461ffff1683526009909152808220600101549051631b6f4ba160e11b8152306004820152602481018590526044810184905282916001600160a01b03169081906336de9742906064016040805180830381865afa158015610ae6573d6000803e3d6000fd5b505050506040513d601f19601f82011682018060405250810190610b0a9190612200565b92509250505b9250929050565b610b1f61158e565b6001600160a01b0316634acbb4be610b35610890565b336040518363ffffffff1660e01b8152600401610b539291906121c1565b602060405180830381865afa158015610b70573d6000803e3d6000fd5b505050506040513d601f19601f82011682018060405250810190610b9491906121e3565b610bb15760405163ea8e4eb560e01b815260040160405180910390fd5b610bb961158e565b6001600160a01b0316634acbb4be610bd760c0860160a08701612243565b336040518363ffffffff1660e01b8152600401610bf59291906121c1565b602060405180830381865afa158015610c12573d6000803e3d6000fd5b505050506040513d601f19601f82011682018060405250810190610c3691906121e3565b610c535760405163ea8e4eb560e01b815260040160405180910390fd5b610c636080840160608501612243565b6001600160401b031615610c8a57604051631a359c9b60e01b815260040160405180910390fd5b60088054600091908290610ca19061ffff16612276565b91906101000a81548161ffff021916908361ffff16021790559050836080016020810190610ccf9190611cc9565b6001600160a01b03166322a5c8d0828686866040518563ffffffff1660e01b8152600401610d00949392919061235a565b600060405180830381600087803b158015610d1a57600080fd5b505af1158015610d2e573d6000803e3d6000fd5b50505061ffff82166000908152600960205260409020859150610d5182826123ab565b9050508061ffff167f2c9830eb4cdee6707c8730aa9aeb6d4102336f1180122d56a593b3dfeb60f93b858585604051610d8c939291906124e7565b60405180910390a250505050565b610da261158e565b6001600160a01b0316634acbb4be610db8610890565b336040518363ffffffff1660e01b8152600401610dd69291906121c1565b602060405180830381865afa158015610df3573d6000803e3d6000fd5b505050506040513d601f19601f82011682018060405250810190610e1791906121e3565b610e345760405163ea8e4eb560e01b815260040160405180910390fd5b818160068686604051610e48929190612511565b908152604051908190036020019020610e62929091611b40565b507f297aa6cf51bb39507374bfcb61edead3172fc87755dea183d848c3a23c70496784848484604051610e989493929190612521565b60405180910390a150505050565b610eb18383836108a1565b6001600160a01b0382163b1580610f5a5750604051630a85bd0160e11b8082523360048301526001600160a01b03858116602484015260448301849052608060648401526000608484015290919084169063150b7a029060a4016020604051808303816000875af1158015610f2a573d6000803e3d6000fd5b505050506040513d601f19601f82011682018060405250810190610f4e9190612548565b6001600160e01b031916145b610f995760405162461bcd60e51b815260206004820152601060248201526f155394d0519157d49150d2541251539560821b6044820152606401610735565b505050565b600a5460ff1615610fc15760405162dc149f60e41b815260040160405180910390fd5b600a805460ff19166001179055610fda60008888611b40565b50610fe760018686611b40565b506008805462010000600160b01b031916620100006001600160a01b0386811682029290921792839055604051920416906000907f8be0079c531659141344cd1fd0a4f28419497f9722a3daafe3b4186f6b6457e0908290a38181600660405161105f90676d6574616461746160c01b815260080190565b908152604051908190036020019020611079929091611b40565b507f297aa6cf51bb39507374bfcb61edead3172fc87755dea183d848c3a23c70496782826040516110ab929190612565565b60405180910390a150505050505050565b61ffff81166000908152600960209081526040808320815160c08101835281546001600160401b038082168352600160401b8204811695830195909552600160801b8104851693820193909352600160c01b9092048316606083015260018101546001600160a01b0381166080840152600160a01b900490921660a0820152611144906118d2565b600760008154611153906125a0565b91829055508154909250600090829060189061117e90600160c01b90046001600160401b03166125b9565b91906101000a8154816001600160401b0302191690836001600160401b03160217905590506111b8858486846001600160401b03166119b2565b6040516001600160401b038216815261ffff85169084907f309d706ccfa16f4de27619e33808b4439484c67998e9a545f4ca492cbc975e619060200160405180910390a3505092915050565b6000818152600260205260409020546001600160a01b0316806112565760405162461bcd60e51b815260206004820152600a6024820152691393d517d3525395115160b21b6044820152606401610735565b919050565b60006001600160a01b0382166112a25760405162461bcd60e51b815260206004820152600c60248201526b5a45524f5f4144445245535360a01b6044820152606401610735565b506001600160a01b031660009081526003602052604090205490565b6001805461063290612187565b3360008181526005602090815260408083206001600160a01b03871680855290835292819020805460ff191686151590811790915590519081529192917f17307eab39ab6107e8899845ad3d59bd9653f200f220920489ca2b5937696c31910160405180910390a35050565b80516020818301810180516006825292820191909301209152805461063290612187565b604080516060808201835260008083526020808401829052838501829052858252600281529084902084519283018552546001600160a01b038116808452600160a01b820461ffff1692840192909252600160b01b90046001600160501b031693820193909352909161061f5760405162461bcd60e51b815260206004820152600a6024820152691393d517d3525395115160b21b6044820152606401610735565b6114088585856108a1565b6001600160a01b0384163b158061149f5750604051630a85bd0160e11b808252906001600160a01b0386169063150b7a02906114509033908a908990899089906004016125d5565b6020604051808303816000875af115801561146f573d6000803e3d6000fd5b505050506040513d601f19601f820116820180604052508101906114939190612548565b6001600160e01b031916145b6114de5760405162461bcd60e51b815260206004820152601060248201526f155394d0519157d49150d2541251539560821b6044820152606401610735565b5050505050565b600081815260026020908152604080832054600160a01b900461ffff1683526009909152908190206001015490516305b1feb160e11b8152306004820152602481018390526060916001600160a01b0316908190630b63fd6290604401600060405180830381865afa15801561155f573d6000803e3d6000fd5b505050506040513d6000823e601f3d908101601f191682016040526115879190810190612609565b9392505050565b600061089c6000611b1b565b606060066040516115b990676d6574616461746160c01b815260080190565b908152602001604051809103902080546115d290612187565b80601f01602080910402602001604051908101604052809291908181526020018280546115fe90612187565b801561164b5780601f106116205761010080835404028352916020019161164b565b820191906000526020600020905b81548152906001019060200180831161162e57829003601f168201915b5050505050905090565b61165d61158e565b6001600160a01b0316634acbb4be611673610890565b336040518363ffffffff1660e01b81526004016116919291906121c1565b602060405180830381865afa1580156116ae573d6000803e3d6000fd5b505050506040513d601f19601f820116820180604052508101906116d291906121e3565b6116ef5760405163ea8e4eb560e01b815260040160405180910390fd5b7f297aa6cf51bb39507374bfcb61edead3172fc87755dea183d848c3a23c70496784848484604051610e989493929190612521565b61ffff82166000908152600960209081526040808320815160c08101835281546001600160401b038082168352600160401b8204811695830195909552600160801b8104851693820193909352600160c01b9092048316606083015260018101546001600160a01b0381166080840152600160a01b900490921660a08201526117ac906118d2565b6007600081546117bb906125a0565b9182905550815490925081906018906117e390600160c01b90046001600160401b03166125b9565b91906101000a8154816001600160401b0302191690836001600160401b03160217905550611813858386866119b2565b6040516001600160501b038416815261ffff85169083907f309d706ccfa16f4de27619e33808b4439484c67998e9a545f4ca492cbc975e619060200160405180910390a3509392505050565b60006301ffc9a760e01b6001600160e01b03198316148061189057506380ac58cd60e01b6001600160e01b03198316145b8061061f5750506001600160e01b031916635b5e139f60e01b1490565b6000806118c4600119368181013560f01c90030190565b929092013560c01c92915050565b60808101516001600160a01b031633146118ff5760405163536f98ed60e11b815260040160405180910390fd5b80516001600160401b031642108061193c5750600081602001516001600160401b031611801561193c575080602001516001600160401b03164210155b1561195a576040516317444c4d60e01b815260040160405180910390fd5b600081604001516001600160401b0316118015611991575080604001516001600160401b031681606001516001600160401b031610155b156119af57604051633373ce0b60e21b815260040160405180910390fd5b50565b6001600160a01b0384166119fc5760405162461bcd60e51b81526020600482015260116024820152701253959053125117d49150d25412515395607a1b6044820152606401610735565b6000838152600260205260409020546001600160a01b031615611a525760405162461bcd60e51b815260206004820152600e60248201526d1053149150511657d3525395115160921b6044820152606401610735565b6001600160a01b03808516600081815260036020908152604080832080546001019055805160608101825284815261ffff8089168285019081526001600160501b03808a168486019081528c885260029096528487209351845492519651909116600160b01b026001600160b01b0396909316600160a01b026001600160b01b0319909216981697909717969096179290921694909417905591518592907fddf252ad1be2c89b69c2b068fc378daa952ba7f163c4a11628f55a4df523b3ef908290a450505050565b600080611b32600119368181013560f01c90030190565b929092013560601c92915050565b828054611b4c90612187565b90600052602060002090601f016020900481019282611b6e5760008555611bb4565b82601f10611b875782800160ff19823516178555611bb4565b82800160010185558215611bb4579182015b82811115611bb4578235825591602001919060010190611b99565b50611bc0929150611bc4565b5090565b5b80821115611bc05760008155600101611bc5565b6001600160e01b0319811681146119af57600080fd5b600060208284031215611c0157600080fd5b813561158781611bd9565b60005b83811015611c27578181015183820152602001611c0f565b83811115611c36576000848401525b50505050565b6020815260008251806020840152611c5b816040850160208701611c0c565b601f01601f19169190910160400192915050565b600060208284031215611c8157600080fd5b5035919050565b6001600160a01b03811681146119af57600080fd5b60008060408385031215611cb057600080fd5b8235611cbb81611c88565b946020939093013593505050565b600060208284031215611cdb57600080fd5b813561158781611c88565b600080600060608486031215611cfb57600080fd5b8335611d0681611c88565b92506020840135611d1681611c88565b929592945050506040919091013590565b60008060408385031215611d3a57600080fd5b50508035926020909101359150565b60008083601f840112611d5b57600080fd5b5081356001600160401b03811115611d7257600080fd5b602083019150836020828501011115610b1057600080fd5b600080600083850360e0811215611da057600080fd5b60c0811215611dae57600080fd5b5083925060c08401356001600160401b03811115611dcb57600080fd5b611dd786828701611d49565b9497909650939450505050565b60008060008060408587031215611dfa57600080fd5b84356001600160401b0380821115611e1157600080fd5b611e1d88838901611d49565b90965094506020870135915080821115611e3657600080fd5b50611e4387828801611d49565b95989497509550505050565b60008060008060008060006080888a031215611e6a57600080fd5b87356001600160401b0380821115611e8157600080fd5b611e8d8b838c01611d49565b909950975060208a0135915080821115611ea657600080fd5b611eb28b838c01611d49565b909750955060408a01359150611ec782611c88565b90935060608901359080821115611edd57600080fd5b50611eea8a828b01611d49565b989b979a50959850939692959293505050565b803561ffff8116811461125657600080fd5b60008060408385031215611f2257600080fd5b8235611f2d81611c88565b9150611f3b60208401611efd565b90509250929050565b80151581146119af57600080fd5b60008060408385031215611f6557600080fd5b8235611f7081611c88565b91506020830135611f8081611f44565b809150509250929050565b634e487b7160e01b600052604160045260246000fd5b604051601f8201601f191681016001600160401b0381118282101715611fc957611fc9611f8b565b604052919050565b60006001600160401b03821115611fea57611fea611f8b565b50601f01601f191660200190565b60006020828403121561200a57600080fd5b81356001600160401b0381111561202057600080fd5b8201601f8101841361203157600080fd5b803561204461203f82611fd1565b611fa1565b81815285602083850101111561205957600080fd5b81602084016020830137600091810160200191909152949350505050565b60008060008060006080868803121561208f57600080fd5b853561209a81611c88565b945060208601356120aa81611c88565b93506040860135925060608601356001600160401b038111156120cc57600080fd5b6120d888828901611d49565b969995985093965092949392505050565b6000602082840312156120fb57600080fd5b61158782611efd565b6000806040838503121561211757600080fd5b823561212281611c88565b91506020830135611f8081611c88565b60008060006060848603121561214757600080fd5b833561215281611c88565b925061216060208501611efd565b915060408401356001600160501b038116811461217c57600080fd5b809150509250925092565b600181811c9082168061219b57607f821691505b6020821081036121bb57634e487b7160e01b600052602260045260246000fd5b50919050565b6001600160401b039290921682526001600160a01b0316602082015260400190565b6000602082840312156121f557600080fd5b815161158781611f44565b6000806040838503121561221357600080fd5b825161221e81611c88565b6020939093015192949293505050565b6001600160401b03811681146119af57600080fd5b60006020828403121561225557600080fd5b81356115878161222e565b634e487b7160e01b600052601160045260246000fd5b600061ffff80831681810361228d5761228d612260565b6001019392505050565b80356122a28161222e565b6001600160401b0390811683526020820135906122be8261222e565b90811660208401526040820135906122d58261222e565b90811660408401526060820135906122ec8261222e565b908116606084015260808201359061230382611c88565b6001600160a01b0391909116608084015260a0820135906123238261222e565b80821660a085015250505050565b81835281816020850137506000828201602090810191909152601f909101601f19169091010190565b600061010061ffff871683526123736020840187612297565b8060e08401526123868184018587612331565b979650505050505050565b6000813561061f8161222e565b6000813561061f81611c88565b81356123b68161222e565b6001600160401b03811690508154816001600160401b0319821617835560208401356123e18161222e565b6fffffffffffffffff0000000000000000604091821b166fffffffffffffffffffffffffffffffff1983168417811785559085013561241f8161222e565b6001600160c01b0319929092169092179190911760809190911b67ffffffffffffffff60801b1617815561247c61245860608401612391565b8280546001600160c01b031660c09290921b6001600160c01b031916919091179055565b600181016124ac61248f6080850161239e565b82546001600160a01b0319166001600160a01b0391909116178255565b610f996124bb60a08501612391565b82805467ffffffffffffffff60a01b191660a09290921b67ffffffffffffffff60a01b16919091179055565b6124f18185612297565b60e060c0820152600061250860e083018486612331565b95945050505050565b8183823760009101908152919050565b604081526000612535604083018688612331565b8281036020840152612386818587612331565b60006020828403121561255a57600080fd5b815161158781611bd9565b6040815260086040820152676d6574616461746160c01b6060820152608060208201526000612598608083018486612331565b949350505050565b6000600182016125b2576125b2612260565b5060010190565b60006001600160401b0380831681810361228d5761228d612260565b6001600160a01b03868116825285166020820152604081018490526080606082018190526000906123869083018486612331565b60006020828403121561261b57600080fd5b81516001600160401b0381111561263157600080fd5b8201601f8101841361264257600080fd5b805161265061203f82611fd1565b81815285602083850101111561266557600080fd5b612508826020830160208601611c0c56fea26469706673582212208a6a52b3128cbf50d4d804974d8f8e6e7014c0331697b756d82cafbf5138fd4964736f6c634300080d0033",
  "linkReferences": {},
  "deployedLinkReferences": {}
}