{
  "_format": "hh-sol-artifact-1",
  "contractName": "Collection",
  "sourceName": "contracts/Collection.sol",
  "abi": [
    {
      "inputs": [],
      "stateMutability": "nonpayable",
      "type": "constructor"
    },
    {
      "inputs": [],
      "name": "AlreadyInitialized",
      "type": "error"
    },
    {
      "inputs": [],
      "name": "InvalidMintRequest",
      "type": "error"
    },
    {
      "inputs": [],
      "name": "InvalidSequenceConfig",
      "type": "error"
    },
    {
      "inputs": [],
      "name": "NotAuthorized",
      "type": "error"
    },
    {
      "inputs": [],
      "name": "SequenceIsSealed",
      "type": "error"
    },
    {
      "inputs": [],
      "name": "SequenceSupplyExhausted",
      "type": "error"
    },
    {
      "anonymous": false,
      "inputs": [
        {
          "indexed": true,
          "internalType": "address",
          "name": "owner",
          "type": "address"
        },
        {
          "indexed": true,
          "internalType": "address",
          "name": "spender",
          "type": "address"
        },
        {
          "indexed": true,
          "internalType": "uint256",
          "name": "id",
          "type": "uint256"
        }
      ],
      "name": "Approval",
      "type": "event"
    },
    {
      "anonymous": false,
      "inputs": [
        {
          "indexed": true,
          "internalType": "address",
          "name": "owner",
          "type": "address"
        },
        {
          "indexed": true,
          "internalType": "address",
          "name": "operator",
          "type": "address"
        },
        {
          "indexed": false,
          "internalType": "bool",
          "name": "approved",
          "type": "bool"
        }
      ],
      "name": "ApprovalForAll",
      "type": "event"
    },
    {
      "anonymous": false,
      "inputs": [
        {
          "indexed": false,
          "internalType": "string",
          "name": "topic",
          "type": "string"
        },
        {
          "indexed": false,
          "internalType": "string",
          "name": "message",
          "type": "string"
        }
      ],
      "name": "Broadcast",
      "type": "event"
    },
    {
      "anonymous": false,
      "inputs": [
        {
          "indexed": true,
          "internalType": "address",
          "name": "previousOwner",
          "type": "address"
        },
        {
          "indexed": true,
          "internalType": "address",
          "name": "newOwner",
          "type": "address"
        }
      ],
      "name": "OwnershipTransferred",
      "type": "event"
    },
    {
      "anonymous": false,
      "inputs": [
        {
          "indexed": true,
          "internalType": "uint256",
          "name": "tokenId",
          "type": "uint256"
        },
        {
          "indexed": true,
          "internalType": "uint16",
          "name": "sequenceId",
          "type": "uint16"
        },
        {
          "indexed": false,
          "internalType": "uint64",
          "name": "data",
          "type": "uint64"
        },
        {
          "indexed": false,
          "internalType": "string",
          "name": "etching",
          "type": "string"
        }
      ],
      "name": "RecordCreated",
      "type": "event"
    },
    {
      "anonymous": false,
      "inputs": [
        {
          "indexed": true,
          "internalType": "uint16",
          "name": "sequenceId",
          "type": "uint16"
        },
        {
          "components": [
            {
              "internalType": "uint64",
              "name": "sealedBeforeTimestamp",
              "type": "uint64"
            },
            {
              "internalType": "uint64",
              "name": "sealedAfterTimestamp",
              "type": "uint64"
            },
            {
              "internalType": "uint64",
              "name": "maxSupply",
              "type": "uint64"
            },
            {
              "internalType": "uint64",
              "name": "minted",
              "type": "uint64"
            },
            {
              "internalType": "contract IEngine",
              "name": "engine",
              "type": "address"
            },
            {
              "internalType": "uint64",
              "name": "dropNodeId",
              "type": "uint64"
            }
          ],
          "indexed": false,
          "internalType": "struct SequenceData",
          "name": "sequenceData",
          "type": "tuple"
        },
        {
          "indexed": false,
          "internalType": "bytes",
          "name": "engineData",
          "type": "bytes"
        }
      ],
      "name": "SequenceConfigured",
      "type": "event"
    },
    {
      "anonymous": false,
      "inputs": [
        {
          "indexed": true,
          "internalType": "address",
          "name": "from",
          "type": "address"
        },
        {
          "indexed": true,
          "internalType": "address",
          "name": "to",
          "type": "address"
        },
        {
          "indexed": true,
          "internalType": "uint256",
          "name": "id",
          "type": "uint256"
        }
      ],
      "name": "Transfer",
      "type": "event"
    },
    {
      "inputs": [
        {
          "internalType": "address",
          "name": "spender",
          "type": "address"
        },
        {
          "internalType": "uint256",
          "name": "id",
          "type": "uint256"
        }
      ],
      "name": "approve",
      "outputs": [],
      "stateMutability": "nonpayable",
      "type": "function"
    },
    {
      "inputs": [
        {
          "internalType": "address",
          "name": "owner",
          "type": "address"
        }
      ],
      "name": "balanceOf",
      "outputs": [
        {
          "internalType": "uint256",
          "name": "",
          "type": "uint256"
        }
      ],
      "stateMutability": "view",
      "type": "function"
    },
    {
      "inputs": [
        {
          "internalType": "string",
          "name": "topic",
          "type": "string"
        },
        {
          "internalType": "string",
          "name": "message",
          "type": "string"
        }
      ],
      "name": "broadcast",
      "outputs": [],
      "stateMutability": "nonpayable",
      "type": "function"
    },
    {
      "inputs": [
        {
          "internalType": "string",
          "name": "topic",
          "type": "string"
        },
        {
          "internalType": "string",
          "name": "message",
          "type": "string"
        }
      ],
      "name": "broadcastAndStore",
      "outputs": [],
      "stateMutability": "nonpayable",
      "type": "function"
    },
    {
      "inputs": [
        {
          "components": [
            {
              "internalType": "uint64",
              "name": "sealedBeforeTimestamp",
              "type": "uint64"
            },
            {
              "internalType": "uint64",
              "name": "sealedAfterTimestamp",
              "type": "uint64"
            },
            {
              "internalType": "uint64",
              "name": "maxSupply",
              "type": "uint64"
            },
            {
              "internalType": "uint64",
              "name": "minted",
              "type": "uint64"
            },
            {
              "internalType": "contract IEngine",
              "name": "engine",
              "type": "address"
            },
            {
              "internalType": "uint64",
              "name": "dropNodeId",
              "type": "uint64"
            }
          ],
          "internalType": "struct SequenceData",
          "name": "_sequence",
          "type": "tuple"
        },
        {
          "internalType": "bytes",
          "name": "_engineData",
          "type": "bytes"
        }
      ],
      "name": "configureSequence",
      "outputs": [],
      "stateMutability": "nonpayable",
      "type": "function"
    },
    {
      "inputs": [],
      "name": "contractURI",
      "outputs": [
        {
          "internalType": "string",
          "name": "",
          "type": "string"
        }
      ],
      "stateMutability": "view",
      "type": "function"
    },
    {
      "inputs": [],
      "name": "controlNode",
      "outputs": [
        {
          "internalType": "uint64",
          "name": "",
          "type": "uint64"
        }
      ],
      "stateMutability": "pure",
      "type": "function"
    },
    {
      "inputs": [
        {
          "internalType": "uint256",
          "name": "",
          "type": "uint256"
        }
      ],
      "name": "getApproved",
      "outputs": [
        {
          "internalType": "address",
          "name": "",
          "type": "address"
        }
      ],
      "stateMutability": "view",
      "type": "function"
    },
    {
      "inputs": [
        {
          "internalType": "uint256",
          "name": "id",
          "type": "uint256"
        }
      ],
      "name": "getTokenData",
      "outputs": [
        {
          "components": [
            {
              "internalType": "address",
              "name": "owner",
              "type": "address"
            },
            {
              "internalType": "uint16",
              "name": "sequenceId",
              "type": "uint16"
            },
            {
              "internalType": "uint80",
              "name": "data",
              "type": "uint80"
            }
          ],
          "internalType": "struct TokenData",
          "name": "",
          "type": "tuple"
        }
      ],
      "stateMutability": "view",
      "type": "function"
    },
    {
      "inputs": [
        {
          "internalType": "string",
          "name": "_name",
          "type": "string"
        },
        {
          "internalType": "string",
          "name": "_symbol",
          "type": "string"
        },
        {
          "internalType": "address",
          "name": "_owner",
          "type": "address"
        },
        {
          "internalType": "string",
          "name": "_contractURI",
          "type": "string"
        }
      ],
      "name": "init",
      "outputs": [],
      "stateMutability": "nonpayable",
      "type": "function"
    },
    {
      "inputs": [
        {
          "internalType": "address",
          "name": "",
          "type": "address"
        },
        {
          "internalType": "address",
          "name": "",
          "type": "address"
        }
      ],
      "name": "isApprovedForAll",
      "outputs": [
        {
          "internalType": "bool",
          "name": "",
          "type": "bool"
        }
      ],
      "stateMutability": "view",
      "type": "function"
    },
    {
      "inputs": [
        {
          "internalType": "string",
          "name": "",
          "type": "string"
        }
      ],
      "name": "messageStorage",
      "outputs": [
        {
          "internalType": "string",
          "name": "",
          "type": "string"
        }
      ],
      "stateMutability": "view",
      "type": "function"
    },
    {
      "inputs": [
        {
          "internalType": "address",
          "name": "to",
          "type": "address"
        },
        {
          "internalType": "uint16",
          "name": "sequenceId",
          "type": "uint16"
        },
        {
          "internalType": "uint64",
          "name": "tokenData",
          "type": "uint64"
        },
        {
          "internalType": "string",
          "name": "etching",
          "type": "string"
        }
      ],
      "name": "mintRecord",
      "outputs": [
        {
          "internalType": "uint256",
          "name": "tokenId",
          "type": "uint256"
        }
      ],
      "stateMutability": "nonpayable",
      "type": "function"
    },
    {
      "inputs": [],
      "name": "name",
      "outputs": [
        {
          "internalType": "string",
          "name": "",
          "type": "string"
        }
      ],
      "stateMutability": "view",
      "type": "function"
    },
    {
      "inputs": [],
      "name": "nodeRegistry",
      "outputs": [
        {
          "internalType": "contract INodeRegistry",
          "name": "",
          "type": "address"
        }
      ],
      "stateMutability": "pure",
      "type": "function"
    },
    {
      "inputs": [],
      "name": "owner",
      "outputs": [
        {
          "internalType": "address",
          "name": "",
          "type": "address"
        }
      ],
      "stateMutability": "view",
      "type": "function"
    },
    {
      "inputs": [
        {
          "internalType": "uint256",
          "name": "id",
          "type": "uint256"
        }
      ],
      "name": "ownerOf",
      "outputs": [
        {
          "internalType": "address",
          "name": "owner",
          "type": "address"
        }
      ],
      "stateMutability": "view",
      "type": "function"
    },
    {
      "inputs": [
        {
          "internalType": "uint256",
          "name": "tokenId",
          "type": "uint256"
        },
        {
          "internalType": "uint256",
          "name": "salePrice",
          "type": "uint256"
        }
      ],
      "name": "royaltyInfo",
      "outputs": [
        {
          "internalType": "address",
          "name": "receiver",
          "type": "address"
        },
        {
          "internalType": "uint256",
          "name": "royaltyAmount",
          "type": "uint256"
        }
      ],
      "stateMutability": "view",
      "type": "function"
    },
    {
      "inputs": [
        {
          "internalType": "address",
          "name": "from",
          "type": "address"
        },
        {
          "internalType": "address",
          "name": "to",
          "type": "address"
        },
        {
          "internalType": "uint256",
          "name": "id",
          "type": "uint256"
        }
      ],
      "name": "safeTransferFrom",
      "outputs": [],
      "stateMutability": "nonpayable",
      "type": "function"
    },
    {
      "inputs": [
        {
          "internalType": "address",
          "name": "from",
          "type": "address"
        },
        {
          "internalType": "address",
          "name": "to",
          "type": "address"
        },
        {
          "internalType": "uint256",
          "name": "id",
          "type": "uint256"
        },
        {
          "internalType": "bytes",
          "name": "data",
          "type": "bytes"
        }
      ],
      "name": "safeTransferFrom",
      "outputs": [],
      "stateMutability": "nonpayable",
      "type": "function"
    },
    {
      "inputs": [],
      "name": "sequenceCount",
      "outputs": [
        {
          "internalType": "uint16",
          "name": "",
          "type": "uint16"
        }
      ],
      "stateMutability": "view",
      "type": "function"
    },
    {
      "inputs": [
        {
          "internalType": "uint16",
          "name": "",
          "type": "uint16"
        }
      ],
      "name": "sequences",
      "outputs": [
        {
          "internalType": "uint64",
          "name": "sealedBeforeTimestamp",
          "type": "uint64"
        },
        {
          "internalType": "uint64",
          "name": "sealedAfterTimestamp",
          "type": "uint64"
        },
        {
          "internalType": "uint64",
          "name": "maxSupply",
          "type": "uint64"
        },
        {
          "internalType": "uint64",
          "name": "minted",
          "type": "uint64"
        },
        {
          "internalType": "contract IEngine",
          "name": "engine",
          "type": "address"
        },
        {
          "internalType": "uint64",
          "name": "dropNodeId",
          "type": "uint64"
        }
      ],
      "stateMutability": "view",
      "type": "function"
    },
    {
      "inputs": [
        {
          "internalType": "address",
          "name": "operator",
          "type": "address"
        },
        {
          "internalType": "bool",
          "name": "approved",
          "type": "bool"
        }
      ],
      "name": "setApprovalForAll",
      "outputs": [],
      "stateMutability": "nonpayable",
      "type": "function"
    },
    {
      "inputs": [
        {
          "internalType": "address",
          "name": "_owner",
          "type": "address"
        }
      ],
      "name": "setOwner",
      "outputs": [],
      "stateMutability": "nonpayable",
      "type": "function"
    },
    {
      "inputs": [
        {
          "internalType": "bytes4",
          "name": "interfaceId",
          "type": "bytes4"
        }
      ],
      "name": "supportsInterface",
      "outputs": [
        {
          "internalType": "bool",
          "name": "",
          "type": "bool"
        }
      ],
      "stateMutability": "view",
      "type": "function"
    },
    {
      "inputs": [],
      "name": "symbol",
      "outputs": [
        {
          "internalType": "string",
          "name": "",
          "type": "string"
        }
      ],
      "stateMutability": "view",
      "type": "function"
    },
    {
      "inputs": [
        {
          "internalType": "uint256",
          "name": "tokenId",
          "type": "uint256"
        }
      ],
      "name": "tokenURI",
      "outputs": [
        {
          "internalType": "string",
          "name": "",
          "type": "string"
        }
      ],
      "stateMutability": "view",
      "type": "function"
    },
    {
      "inputs": [],
      "name": "totalSupply",
      "outputs": [
        {
          "internalType": "uint256",
          "name": "",
          "type": "uint256"
        }
      ],
      "stateMutability": "view",
      "type": "function"
    },
    {
      "inputs": [
        {
          "internalType": "address",
          "name": "from",
          "type": "address"
        },
        {
          "internalType": "address",
          "name": "to",
          "type": "address"
        },
        {
          "internalType": "uint256",
          "name": "id",
          "type": "uint256"
        }
      ],
      "name": "transferFrom",
      "outputs": [],
      "stateMutability": "nonpayable",
      "type": "function"
    }
  ],
  "bytecode": "0x60806040523480156200001157600080fd5b506040518060400160405280600a81526020016921b7b63632b1ba34b7b760b11b8152506040518060400160405280600a81526020016921a7a62622a1aa24a7a760b11b8152508160009080519060200190620000709291906200009c565b508051620000869060019060208401906200009c565b5050600a805460ff19166001179055506200017e565b828054620000aa9062000142565b90600052602060002090601f016020900481019282620000ce576000855562000119565b82601f10620000e957805160ff191683800117855562000119565b8280016001018555821562000119579182015b8281111562000119578251825591602001919060010190620000fc565b50620001279291506200012b565b5090565b5b808211156200012757600081556001016200012c565b600181811c908216806200015757607f821691505b6020821081036200017857634e487b7160e01b600052602260045260246000fd5b50919050565b612572806200018e6000396000f3fe608060405234801561001057600080fd5b50600436106101cf5760003560e01c80636352211e11610104578063b09afec1116100a2578063e8a3d48511610071578063e8a3d4851461045f578063e8e9099e14610467578063e985e9c514610515578063f8ca7b281461054357600080fd5b8063b09afec1146103e3578063b88d4fde14610431578063c87b56dd14610444578063d9b5c4a51461045757600080fd5b80638da5cb5b116100de5780638da5cb5b1461039c57806395d89b41146103b5578063a22cb465146103bd578063aa2eb2c3146103d057600080fd5b80636352211e1461036357806370a08231146103765780638c0b4e8b1461038957600080fd5b806323b872dd116101715780633a20ad391161014b5780633a20ad3914610317578063418267f91461032a57806342842e0e1461033d5780635002254c1461035057600080fd5b806323b872dd146102b15780632a55205a146102c45780632b67b289146102f657600080fd5b8063095ea7b3116101ad578063095ea7b31461025257806313af4035146102675780631616d2491461027a57806318160ddd1461029a57600080fd5b806301ffc9a7146101d457806306fdde03146101fc578063081812fc14610211575b600080fd5b6101e76101e2366004611ac0565b610556565b60405190151581526020015b60405180910390f35b610204610581565b6040516101f39190611b0d565b61023a61021f366004611b40565b6004602052600090815260409020546001600160a01b031681565b6040516001600160a01b0390911681526020016101f3565b610265610260366004611b6e565b61060f565b005b610265610275366004611b9a565b6106f6565b6102826107ec565b6040516001600160401b0390911681526020016101f3565b6102a360075481565b6040519081526020016101f3565b6102656102bf366004611bb7565b6107fd565b6102d76102d2366004611bf8565b6109c4565b604080516001600160a01b0390931683526020830191909152016101f3565b6008546103049061ffff1681565b60405161ffff90911681526020016101f3565b610265610325366004611c5b565b610aca565b610265610338366004611cb5565b610d4d565b61026561034b366004611bb7565b610e59565b61026561035e366004611d20565b610f51565b61023a610371366004611b40565b61106f565b6102a3610384366004611b9a565b6110c6565b6102a3610397366004611df5565b611129565b60085461023a906201000090046001600160a01b031681565b610204611348565b6102656103cb366004611e7c565b611355565b6102046103de366004611f22565b6113c1565b6103f66103f1366004611b40565b6113e5565b6040805182516001600160a01b0316815260208084015161ffff16908201529181015169ffffffffffffffffffff16908201526060016101f3565b61026561043f366004611fa1565b61148a565b610204610452366004611b40565b611572565b61023a611674565b610204611680565b6104cc610475366004611ff6565b600960205260009081526040902080546001909101546001600160401b0380831692600160401b8104821692600160801b8204831692600160c01b9092048216916001600160a01b03821691600160a01b90041686565b604080516001600160401b03978816815295871660208701529386169385019390935290841660608401526001600160a01b0316608083015290911660a082015260c0016101f3565b6101e7610523366004612011565b600560209081526000928352604080842090915290825290205460ff1681565b610265610551366004611cb5565b61173b565b60006001600160e01b0319821663152a902d60e11b148061057b575061057b8261180a565b92915050565b6000805461058e9061203f565b80601f01602080910402602001604051908101604052809291908181526020018280546105ba9061203f565b80156106075780601f106105dc57610100808354040283529160200191610607565b820191906000526020600020905b8154815290600101906020018083116105ea57829003601f168201915b505050505081565b6000818152600260205260409020546001600160a01b03163381148061065857506001600160a01b038116600090815260056020908152604080832033845290915290205460ff165b61069a5760405162461bcd60e51b815260206004820152600e60248201526d1393d517d055551213d49256915160921b60448201526064015b60405180910390fd5b60008281526004602052604080822080546001600160a01b0319166001600160a01b0387811691821790925591518593918516917f8c5be1e5ebec7d5bd14f71427d1e84f3dd0314c0f7b2291e5b200ac8c7c3b92591a4505050565b6106fe611674565b6001600160a01b0316634acbb4be6107146107ec565b336040518363ffffffff1660e01b8152600401610732929190612079565b602060405180830381865afa15801561074f573d6000803e3d6000fd5b505050506040513d601f19601f82011682018060405250810190610773919061209b565b6107905760405163ea8e4eb560e01b815260040160405180910390fd5b600880546001600160a01b038381166201000081810262010000600160b01b031985161790945560405193909204169182907f8be0079c531659141344cd1fd0a4f28419497f9722a3daafe3b4186f6b6457e090600090a35050565b60006107f86014611858565b905090565b6000818152600260205260409020546001600160a01b038481169116146108535760405162461bcd60e51b815260206004820152600a60248201526957524f4e475f46524f4d60b01b6044820152606401610691565b6001600160a01b03821661089d5760405162461bcd60e51b81526020600482015260116024820152701253959053125117d49150d25412515395607a1b6044820152606401610691565b336001600160a01b03841614806108d757506001600160a01b038316600090815260056020908152604080832033845290915290205460ff165b806108f857506000818152600460205260409020546001600160a01b031633145b6109355760405162461bcd60e51b815260206004820152600e60248201526d1393d517d055551213d49256915160921b6044820152606401610691565b6001600160a01b0380841660008181526003602090815260408083208054600019019055938616808352848320805460010190558583526002825284832080546001600160a01b03199081168317909155600490925284832080549092169091559251849392917fddf252ad1be2c89b69c2b068fc378daa952ba7f163c4a11628f55a4df523b3ef91a4505050565b600082815260026020908152604080832054600160a01b9081900461ffff16845260098352818420825160c08101845281546001600160401b038082168352600160401b8204811696830196909652600160801b8104861682860152600160c01b9004851660608201526001909101546001600160a01b0381166080830181905292900490931660a08401529051631b6f4ba160e11b81523060048201526024810186905260448101859052839291906336de9742906064016040805180830381865afa158015610a99573d6000803e3d6000fd5b505050506040513d601f19601f82011682018060405250810190610abd91906120b8565b92509250505b9250929050565b610ad2611674565b6001600160a01b0316634acbb4be610ae86107ec565b336040518363ffffffff1660e01b8152600401610b06929190612079565b602060405180830381865afa158015610b23573d6000803e3d6000fd5b505050506040513d601f19601f82011682018060405250810190610b47919061209b565b610b645760405163ea8e4eb560e01b815260040160405180910390fd5b610b6c611674565b6001600160a01b0316634acbb4be610b8a60c0860160a087016120e6565b336040518363ffffffff1660e01b8152600401610ba8929190612079565b602060405180830381865afa158015610bc5573d6000803e3d6000fd5b505050506040513d601f19601f82011682018060405250810190610be9919061209b565b610c065760405163ea8e4eb560e01b815260040160405180910390fd5b610c1660808401606085016120e6565b6001600160401b031615610c3d57604051631a359c9b60e01b815260040160405180910390fd5b60088054600091908290610c549061ffff16612119565b91906101000a81548161ffff021916908361ffff16021790559050836080016020810190610c829190611b9a565b6001600160a01b03166322a5c8d0828686866040518563ffffffff1660e01b8152600401610cb394939291906121fd565b600060405180830381600087803b158015610ccd57600080fd5b505af1158015610ce1573d6000803e3d6000fd5b50505061ffff82166000908152600960205260409020859150610d04828261224e565b9050508061ffff167f2c9830eb4cdee6707c8730aa9aeb6d4102336f1180122d56a593b3dfeb60f93b858585604051610d3f9392919061238a565b60405180910390a250505050565b610d55611674565b6001600160a01b0316634acbb4be610d6b6107ec565b336040518363ffffffff1660e01b8152600401610d89929190612079565b602060405180830381865afa158015610da6573d6000803e3d6000fd5b505050506040513d601f19601f82011682018060405250810190610dca919061209b565b610de75760405163ea8e4eb560e01b815260040160405180910390fd5b818160068686604051610dfb9291906123b4565b908152604051908190036020019020610e15929091611a0e565b507f297aa6cf51bb39507374bfcb61edead3172fc87755dea183d848c3a23c70496784848484604051610e4b94939291906123c4565b60405180910390a150505050565b610e648383836107fd565b6001600160a01b0382163b1580610f0d5750604051630a85bd0160e11b8082523360048301526001600160a01b03858116602484015260448301849052608060648401526000608484015290919084169063150b7a029060a4016020604051808303816000875af1158015610edd573d6000803e3d6000fd5b505050506040513d601f19601f82011682018060405250810190610f0191906123eb565b6001600160e01b031916145b610f4c5760405162461bcd60e51b815260206004820152601060248201526f155394d0519157d49150d2541251539560821b6044820152606401610691565b505050565b600a5460ff1615610f745760405162dc149f60e41b815260040160405180910390fd5b600a805460ff19166001179055610f8d60008888611a0e565b50610f9a60018686611a0e565b506008805462010000600160b01b031916620100006001600160a01b0386811682029290921792839055604051920416906000907f8be0079c531659141344cd1fd0a4f28419497f9722a3daafe3b4186f6b6457e0908290a38181600660405161101290676d6574616461746160c01b815260080190565b90815260405190819003602001902061102c929091611a0e565b507f297aa6cf51bb39507374bfcb61edead3172fc87755dea183d848c3a23c704967828260405161105e929190612408565b60405180910390a150505050505050565b6000818152600260205260409020546001600160a01b0316806110c15760405162461bcd60e51b815260206004820152600a6024820152691393d517d3525395115160b21b6044820152606401610691565b919050565b60006001600160a01b03821661110d5760405162461bcd60e51b815260206004820152600c60248201526b5a45524f5f4144445245535360a01b6044820152606401610691565b506001600160a01b031660009081526003602052604090205490565b61ffff84166000908152600960209081526040808320815160c08101835281546001600160401b038082168352600160401b8204811695830195909552600160801b8104851693820193909352600160c01b90920483166060830152600101546001600160a01b03811660808301819052600160a01b90910490921660a08201529033146111ca5760405163536f98ed60e11b815260040160405180910390fd5b80516001600160401b03164210806112075750600081602001516001600160401b0316118015611207575080602001516001600160401b03164210155b15611225576040516317444c4d60e01b815260040160405180910390fd5b600081604001516001600160401b031611801561125c575080604001516001600160401b031681606001516001600160401b031610155b1561127a57604051633373ce0b60e21b815260040160405180910390fd5b60076000815461128990612443565b918290555061ffff871660009081526009602052604090208054919350600160c01b9091046001600160401b03169060186112c38361245c565b91906101000a8154816001600160401b0302191690836001600160401b03160217905550506112fd878388886001600160401b031661187d565b8561ffff16827f818e5605c892780190e4431f6faa3abb45b266cbb3aefd9e8988533927d43d3b87878760405161133693929190612478565b60405180910390a35095945050505050565b6001805461058e9061203f565b3360008181526005602090815260408083206001600160a01b03871680855290835292819020805460ff191686151590811790915590519081529192917f17307eab39ab6107e8899845ad3d59bd9653f200f220920489ca2b5937696c31910160405180910390a35050565b80516020818301810180516006825292820191909301209152805461058e9061203f565b604080516060808201835260008083526020808401829052838501829052858252600281529084902084519283018552546001600160a01b038116808452600160a01b820461ffff1692840192909252600160b01b900469ffffffffffffffffffff1693820193909352909161057b5760405162461bcd60e51b815260206004820152600a6024820152691393d517d3525395115160b21b6044820152606401610691565b6114958585856107fd565b6001600160a01b0384163b158061152c5750604051630a85bd0160e11b808252906001600160a01b0386169063150b7a02906114dd9033908a9089908990899060040161249b565b6020604051808303816000875af11580156114fc573d6000803e3d6000fd5b505050506040513d601f19601f8201168201806040525081019061152091906123eb565b6001600160e01b031916145b61156b5760405162461bcd60e51b815260206004820152601060248201526f155394d0519157d49150d2541251539560821b6044820152606401610691565b5050505050565b600081815260026020908152604080832054600160a01b9081900461ffff1684526009835292819020815160c08101835281546001600160401b038082168352600160401b8204811695830195909552600160801b8104851682850152600160c01b900484166060808301919091526001909201546001600160a01b0381166080830181905295900490931660a084015290516305b1feb160e11b815230600482015260248101859052909290630b63fd6290604401600060405180830381865afa158015611645573d6000803e3d6000fd5b505050506040513d6000823e601f3d908101601f1916820160405261166d91908101906124cf565b9392505050565b60006107f860006119e9565b6060600660405161169f90676d6574616461746160c01b815260080190565b908152602001604051809103902080546116b89061203f565b80601f01602080910402602001604051908101604052809291908181526020018280546116e49061203f565b80156117315780601f1061170657610100808354040283529160200191611731565b820191906000526020600020905b81548152906001019060200180831161171457829003601f168201915b5050505050905090565b611743611674565b6001600160a01b0316634acbb4be6117596107ec565b336040518363ffffffff1660e01b8152600401611777929190612079565b602060405180830381865afa158015611794573d6000803e3d6000fd5b505050506040513d601f19601f820116820180604052508101906117b8919061209b565b6117d55760405163ea8e4eb560e01b815260040160405180910390fd5b7f297aa6cf51bb39507374bfcb61edead3172fc87755dea183d848c3a23c70496784848484604051610e4b94939291906123c4565b60006301ffc9a760e01b6001600160e01b03198316148061183b57506380ac58cd60e01b6001600160e01b03198316145b8061057b5750506001600160e01b031916635b5e139f60e01b1490565b60008061186f600119368181013560f01c90030190565b929092013560c01c92915050565b6001600160a01b0384166118c75760405162461bcd60e51b81526020600482015260116024820152701253959053125117d49150d25412515395607a1b6044820152606401610691565b6000838152600260205260409020546001600160a01b03161561191d5760405162461bcd60e51b815260206004820152600e60248201526d1053149150511657d3525395115160921b6044820152606401610691565b6001600160a01b03808516600081815260036020908152604080832080546001019055805160608101825284815261ffff80891682850190815269ffffffffffffffffffff808a168486019081528c885260029096528487209351845492519651909116600160b01b026001600160b01b0396909316600160a01b026001600160b01b0319909216981697909717969096179290921694909417905591518592907fddf252ad1be2c89b69c2b068fc378daa952ba7f163c4a11628f55a4df523b3ef908290a450505050565b600080611a00600119368181013560f01c90030190565b929092013560601c92915050565b828054611a1a9061203f565b90600052602060002090601f016020900481019282611a3c5760008555611a82565b82601f10611a555782800160ff19823516178555611a82565b82800160010185558215611a82579182015b82811115611a82578235825591602001919060010190611a67565b50611a8e929150611a92565b5090565b5b80821115611a8e5760008155600101611a93565b6001600160e01b031981168114611abd57600080fd5b50565b600060208284031215611ad257600080fd5b813561166d81611aa7565b60005b83811015611af8578181015183820152602001611ae0565b83811115611b07576000848401525b50505050565b6020815260008251806020840152611b2c816040850160208701611add565b601f01601f19169190910160400192915050565b600060208284031215611b5257600080fd5b5035919050565b6001600160a01b0381168114611abd57600080fd5b60008060408385031215611b8157600080fd5b8235611b8c81611b59565b946020939093013593505050565b600060208284031215611bac57600080fd5b813561166d81611b59565b600080600060608486031215611bcc57600080fd5b8335611bd781611b59565b92506020840135611be781611b59565b929592945050506040919091013590565b60008060408385031215611c0b57600080fd5b50508035926020909101359150565b60008083601f840112611c2c57600080fd5b5081356001600160401b03811115611c4357600080fd5b602083019150836020828501011115610ac357600080fd5b600080600083850360e0811215611c7157600080fd5b60c0811215611c7f57600080fd5b5083925060c08401356001600160401b03811115611c9c57600080fd5b611ca886828701611c1a565b9497909650939450505050565b60008060008060408587031215611ccb57600080fd5b84356001600160401b0380821115611ce257600080fd5b611cee88838901611c1a565b90965094506020870135915080821115611d0757600080fd5b50611d1487828801611c1a565b95989497509550505050565b60008060008060008060006080888a031215611d3b57600080fd5b87356001600160401b0380821115611d5257600080fd5b611d5e8b838c01611c1a565b909950975060208a0135915080821115611d7757600080fd5b611d838b838c01611c1a565b909750955060408a01359150611d9882611b59565b90935060608901359080821115611dae57600080fd5b50611dbb8a828b01611c1a565b989b979a50959850939692959293505050565b803561ffff811681146110c157600080fd5b6001600160401b0381168114611abd57600080fd5b600080600080600060808688031215611e0d57600080fd5b8535611e1881611b59565b9450611e2660208701611dce565b93506040860135611e3681611de0565b925060608601356001600160401b03811115611e5157600080fd5b611e5d88828901611c1a565b969995985093965092949392505050565b8015158114611abd57600080fd5b60008060408385031215611e8f57600080fd5b8235611e9a81611b59565b91506020830135611eaa81611e6e565b809150509250929050565b634e487b7160e01b600052604160045260246000fd5b604051601f8201601f191681016001600160401b0381118282101715611ef357611ef3611eb5565b604052919050565b60006001600160401b03821115611f1457611f14611eb5565b50601f01601f191660200190565b600060208284031215611f3457600080fd5b81356001600160401b03811115611f4a57600080fd5b8201601f81018413611f5b57600080fd5b8035611f6e611f6982611efb565b611ecb565b818152856020838501011115611f8357600080fd5b81602084016020830137600091810160200191909152949350505050565b600080600080600060808688031215611fb957600080fd5b8535611fc481611b59565b94506020860135611fd481611b59565b93506040860135925060608601356001600160401b03811115611e5157600080fd5b60006020828403121561200857600080fd5b61166d82611dce565b6000806040838503121561202457600080fd5b823561202f81611b59565b91506020830135611eaa81611b59565b600181811c9082168061205357607f821691505b60208210810361207357634e487b7160e01b600052602260045260246000fd5b50919050565b6001600160401b039290921682526001600160a01b0316602082015260400190565b6000602082840312156120ad57600080fd5b815161166d81611e6e565b600080604083850312156120cb57600080fd5b82516120d681611b59565b6020939093015192949293505050565b6000602082840312156120f857600080fd5b813561166d81611de0565b634e487b7160e01b600052601160045260246000fd5b600061ffff80831681810361213057612130612103565b6001019392505050565b803561214581611de0565b6001600160401b03908116835260208201359061216182611de0565b908116602084015260408201359061217882611de0565b908116604084015260608201359061218f82611de0565b90811660608401526080820135906121a682611b59565b6001600160a01b0391909116608084015260a0820135906121c682611de0565b80821660a085015250505050565b81835281816020850137506000828201602090810191909152601f909101601f19169091010190565b600061010061ffff87168352612216602084018761213a565b8060e084015261222981840185876121d4565b979650505050505050565b6000813561057b81611de0565b6000813561057b81611b59565b813561225981611de0565b6001600160401b03811690508154816001600160401b03198216178355602084013561228481611de0565b6fffffffffffffffff0000000000000000604091821b166fffffffffffffffffffffffffffffffff198316841781178555908501356122c281611de0565b6001600160c01b0319929092169092179190911760809190911b67ffffffffffffffff60801b1617815561231f6122fb60608401612234565b8280546001600160c01b031660c09290921b6001600160c01b031916919091179055565b6001810161234f61233260808501612241565b82546001600160a01b0319166001600160a01b0391909116178255565b610f4c61235e60a08501612234565b82805467ffffffffffffffff60a01b191660a09290921b67ffffffffffffffff60a01b16919091179055565b612394818561213a565b60e060c082015260006123ab60e0830184866121d4565b95945050505050565b8183823760009101908152919050565b6040815260006123d86040830186886121d4565b82810360208401526122298185876121d4565b6000602082840312156123fd57600080fd5b815161166d81611aa7565b6040815260086040820152676d6574616461746160c01b606082015260806020820152600061243b6080830184866121d4565b949350505050565b60006001820161245557612455612103565b5060010190565b60006001600160401b0380831681810361213057612130612103565b6001600160401b03841681526040602082015260006123ab6040830184866121d4565b6001600160a01b038681168252851660208201526040810184905260806060820181905260009061222990830184866121d4565b6000602082840312156124e157600080fd5b81516001600160401b038111156124f757600080fd5b8201601f8101841361250857600080fd5b8051612516611f6982611efb565b81815285602083850101111561252b57600080fd5b6123ab826020830160208601611add56fea2646970667358221220403ef6ba0f2d3ea4b76af9826c623d9306cbe1894dabc57d79587cee8207e23364736f6c634300080d0033",
  "linkReferences": {},
  "deployedLinkReferences": {}
}