{
  "_format": "hh-sol-artifact-1",
  "contractName": "Collection",
  "sourceName": "contracts/Collection.sol",
  "abi": [
    {
      "inputs": [],
      "stateMutability": "nonpayable",
      "type": "constructor"
    },
    {
      "inputs": [],
      "name": "AlreadyInitialized",
      "type": "error"
    },
    {
      "inputs": [],
      "name": "InvalidMintRequest",
      "type": "error"
    },
    {
      "inputs": [],
      "name": "InvalidSequenceConfig",
      "type": "error"
    },
    {
      "inputs": [],
      "name": "NotAuthorized",
      "type": "error"
    },
    {
      "inputs": [],
      "name": "SequenceIsSealed",
      "type": "error"
    },
    {
      "inputs": [],
      "name": "SequenceSupplyExhausted",
      "type": "error"
    },
    {
      "anonymous": false,
      "inputs": [
        {
          "indexed": true,
          "internalType": "address",
          "name": "owner",
          "type": "address"
        },
        {
          "indexed": true,
          "internalType": "address",
          "name": "spender",
          "type": "address"
        },
        {
          "indexed": true,
          "internalType": "uint256",
          "name": "id",
          "type": "uint256"
        }
      ],
      "name": "Approval",
      "type": "event"
    },
    {
      "anonymous": false,
      "inputs": [
        {
          "indexed": true,
          "internalType": "address",
          "name": "owner",
          "type": "address"
        },
        {
          "indexed": true,
          "internalType": "address",
          "name": "operator",
          "type": "address"
        },
        {
          "indexed": false,
          "internalType": "bool",
          "name": "approved",
          "type": "bool"
        }
      ],
      "name": "ApprovalForAll",
      "type": "event"
    },
    {
      "anonymous": false,
      "inputs": [
        {
          "indexed": false,
          "internalType": "string",
          "name": "topic",
          "type": "string"
        },
        {
          "indexed": false,
          "internalType": "string",
          "name": "message",
          "type": "string"
        }
      ],
      "name": "Broadcast",
      "type": "event"
    },
    {
      "anonymous": false,
      "inputs": [
        {
          "indexed": true,
          "internalType": "address",
          "name": "previousOwner",
          "type": "address"
        },
        {
          "indexed": true,
          "internalType": "address",
          "name": "newOwner",
          "type": "address"
        }
      ],
      "name": "OwnershipTransferred",
      "type": "event"
    },
    {
      "anonymous": false,
      "inputs": [
        {
          "indexed": true,
          "internalType": "uint256",
          "name": "tokenId",
          "type": "uint256"
        },
        {
          "indexed": true,
          "internalType": "uint16",
          "name": "sequenceId",
          "type": "uint16"
        },
        {
          "indexed": false,
          "internalType": "uint80",
          "name": "data",
          "type": "uint80"
        }
      ],
      "name": "RecordCreated",
      "type": "event"
    },
    {
      "anonymous": false,
      "inputs": [
        {
          "indexed": true,
          "internalType": "uint16",
          "name": "sequenceId",
          "type": "uint16"
        },
        {
          "components": [
            {
              "internalType": "uint64",
              "name": "sealedBeforeTimestamp",
              "type": "uint64"
            },
            {
              "internalType": "uint64",
              "name": "sealedAfterTimestamp",
              "type": "uint64"
            },
            {
              "internalType": "uint64",
              "name": "maxSupply",
              "type": "uint64"
            },
            {
              "internalType": "uint64",
              "name": "minted",
              "type": "uint64"
            },
            {
              "internalType": "contract IEngine",
              "name": "engine",
              "type": "address"
            },
            {
              "internalType": "uint64",
              "name": "dropNodeId",
              "type": "uint64"
            }
          ],
          "indexed": false,
          "internalType": "struct SequenceData",
          "name": "sequenceData",
          "type": "tuple"
        },
        {
          "indexed": false,
          "internalType": "bytes",
          "name": "engineData",
          "type": "bytes"
        }
      ],
      "name": "SequenceConfigured",
      "type": "event"
    },
    {
      "anonymous": false,
      "inputs": [
        {
          "indexed": true,
          "internalType": "address",
          "name": "from",
          "type": "address"
        },
        {
          "indexed": true,
          "internalType": "address",
          "name": "to",
          "type": "address"
        },
        {
          "indexed": true,
          "internalType": "uint256",
          "name": "id",
          "type": "uint256"
        }
      ],
      "name": "Transfer",
      "type": "event"
    },
    {
      "inputs": [],
      "name": "accessControl",
      "outputs": [
        {
          "internalType": "contract INodeRegistry",
          "name": "nodeRegistry",
          "type": "address"
        },
        {
          "internalType": "uint64",
          "name": "controlNodeId",
          "type": "uint64"
        }
      ],
      "stateMutability": "view",
      "type": "function"
    },
    {
      "inputs": [
        {
          "internalType": "address",
          "name": "spender",
          "type": "address"
        },
        {
          "internalType": "uint256",
          "name": "id",
          "type": "uint256"
        }
      ],
      "name": "approve",
      "outputs": [],
      "stateMutability": "nonpayable",
      "type": "function"
    },
    {
      "inputs": [
        {
          "internalType": "address",
          "name": "owner",
          "type": "address"
        }
      ],
      "name": "balanceOf",
      "outputs": [
        {
          "internalType": "uint256",
          "name": "",
          "type": "uint256"
        }
      ],
      "stateMutability": "view",
      "type": "function"
    },
    {
      "inputs": [
        {
          "internalType": "string",
          "name": "topic",
          "type": "string"
        },
        {
          "internalType": "string",
          "name": "message",
          "type": "string"
        }
      ],
      "name": "broadcast",
      "outputs": [],
      "stateMutability": "nonpayable",
      "type": "function"
    },
    {
      "inputs": [
        {
          "components": [
            {
              "internalType": "uint64",
              "name": "sealedBeforeTimestamp",
              "type": "uint64"
            },
            {
              "internalType": "uint64",
              "name": "sealedAfterTimestamp",
              "type": "uint64"
            },
            {
              "internalType": "uint64",
              "name": "maxSupply",
              "type": "uint64"
            },
            {
              "internalType": "uint64",
              "name": "minted",
              "type": "uint64"
            },
            {
              "internalType": "contract IEngine",
              "name": "engine",
              "type": "address"
            },
            {
              "internalType": "uint64",
              "name": "dropNodeId",
              "type": "uint64"
            }
          ],
          "internalType": "struct SequenceData",
          "name": "_sequence",
          "type": "tuple"
        },
        {
          "internalType": "bytes",
          "name": "_engineData",
          "type": "bytes"
        }
      ],
      "name": "configureSequence",
      "outputs": [],
      "stateMutability": "nonpayable",
      "type": "function"
    },
    {
      "inputs": [],
      "name": "contractURI",
      "outputs": [
        {
          "internalType": "string",
          "name": "value",
          "type": "string"
        }
      ],
      "stateMutability": "view",
      "type": "function"
    },
    {
      "inputs": [],
      "name": "controlNode",
      "outputs": [
        {
          "internalType": "uint64",
          "name": "nodeId",
          "type": "uint64"
        }
      ],
      "stateMutability": "view",
      "type": "function"
    },
    {
      "inputs": [
        {
          "internalType": "uint256",
          "name": "",
          "type": "uint256"
        }
      ],
      "name": "getApproved",
      "outputs": [
        {
          "internalType": "address",
          "name": "",
          "type": "address"
        }
      ],
      "stateMutability": "view",
      "type": "function"
    },
    {
      "inputs": [
        {
          "internalType": "uint16",
          "name": "sequenceId",
          "type": "uint16"
        }
      ],
      "name": "getSequenceData",
      "outputs": [
        {
          "components": [
            {
              "internalType": "uint64",
              "name": "sealedBeforeTimestamp",
              "type": "uint64"
            },
            {
              "internalType": "uint64",
              "name": "sealedAfterTimestamp",
              "type": "uint64"
            },
            {
              "internalType": "uint64",
              "name": "maxSupply",
              "type": "uint64"
            },
            {
              "internalType": "uint64",
              "name": "minted",
              "type": "uint64"
            },
            {
              "internalType": "contract IEngine",
              "name": "engine",
              "type": "address"
            },
            {
              "internalType": "uint64",
              "name": "dropNodeId",
              "type": "uint64"
            }
          ],
          "internalType": "struct SequenceData",
          "name": "sequence",
          "type": "tuple"
        }
      ],
      "stateMutability": "view",
      "type": "function"
    },
    {
      "inputs": [
        {
          "internalType": "uint256",
          "name": "id",
          "type": "uint256"
        }
      ],
      "name": "getTokenData",
      "outputs": [
        {
          "components": [
            {
              "internalType": "address",
              "name": "owner",
              "type": "address"
            },
            {
              "internalType": "uint16",
              "name": "sequenceId",
              "type": "uint16"
            },
            {
              "internalType": "uint80",
              "name": "data",
              "type": "uint80"
            }
          ],
          "internalType": "struct TokenData",
          "name": "",
          "type": "tuple"
        }
      ],
      "stateMutability": "view",
      "type": "function"
    },
    {
      "inputs": [
        {
          "internalType": "address",
          "name": "_owner",
          "type": "address"
        },
        {
          "components": [
            {
              "internalType": "contract INodeRegistry",
              "name": "nodeRegistry",
              "type": "address"
            },
            {
              "internalType": "uint64",
              "name": "controlNodeId",
              "type": "uint64"
            }
          ],
          "internalType": "struct AccessControlData",
          "name": "_accessControl",
          "type": "tuple"
        },
        {
          "internalType": "string",
          "name": "_metadata",
          "type": "string"
        },
        {
          "components": [
            {
              "internalType": "string",
              "name": "name",
              "type": "string"
            },
            {
              "internalType": "string",
              "name": "symbol",
              "type": "string"
            },
            {
              "internalType": "string",
              "name": "contractURI",
              "type": "string"
            }
          ],
          "internalType": "struct ImmutableCollectionData",
          "name": "_data",
          "type": "tuple"
        }
      ],
      "name": "init",
      "outputs": [],
      "stateMutability": "nonpayable",
      "type": "function"
    },
    {
      "inputs": [
        {
          "internalType": "address",
          "name": "",
          "type": "address"
        },
        {
          "internalType": "address",
          "name": "",
          "type": "address"
        }
      ],
      "name": "isApprovedForAll",
      "outputs": [
        {
          "internalType": "bool",
          "name": "",
          "type": "bool"
        }
      ],
      "stateMutability": "view",
      "type": "function"
    },
    {
      "inputs": [
        {
          "internalType": "address",
          "name": "subject",
          "type": "address"
        }
      ],
      "name": "isAuthorized",
      "outputs": [
        {
          "internalType": "bool",
          "name": "authorized",
          "type": "bool"
        }
      ],
      "stateMutability": "view",
      "type": "function"
    },
    {
      "inputs": [
        {
          "internalType": "address",
          "name": "to",
          "type": "address"
        },
        {
          "internalType": "uint16",
          "name": "sequenceId",
          "type": "uint16"
        }
      ],
      "name": "mintRecord",
      "outputs": [
        {
          "internalType": "uint256",
          "name": "tokenId",
          "type": "uint256"
        }
      ],
      "stateMutability": "nonpayable",
      "type": "function"
    },
    {
      "inputs": [
        {
          "internalType": "address",
          "name": "to",
          "type": "address"
        },
        {
          "internalType": "uint16",
          "name": "sequenceId",
          "type": "uint16"
        },
        {
          "internalType": "uint80",
          "name": "tokenData",
          "type": "uint80"
        }
      ],
      "name": "mintRecord",
      "outputs": [
        {
          "internalType": "uint256",
          "name": "tokenId",
          "type": "uint256"
        }
      ],
      "stateMutability": "nonpayable",
      "type": "function"
    },
    {
      "inputs": [],
      "name": "name",
      "outputs": [
        {
          "internalType": "string",
          "name": "value",
          "type": "string"
        }
      ],
      "stateMutability": "view",
      "type": "function"
    },
    {
      "inputs": [],
      "name": "nodeRegistry",
      "outputs": [
        {
          "internalType": "contract INodeRegistry",
          "name": "",
          "type": "address"
        }
      ],
      "stateMutability": "view",
      "type": "function"
    },
    {
      "inputs": [],
      "name": "owner",
      "outputs": [
        {
          "internalType": "address",
          "name": "",
          "type": "address"
        }
      ],
      "stateMutability": "view",
      "type": "function"
    },
    {
      "inputs": [
        {
          "internalType": "uint256",
          "name": "id",
          "type": "uint256"
        }
      ],
      "name": "ownerOf",
      "outputs": [
        {
          "internalType": "address",
          "name": "owner",
          "type": "address"
        }
      ],
      "stateMutability": "view",
      "type": "function"
    },
    {
      "inputs": [
        {
          "internalType": "uint256",
          "name": "tokenId",
          "type": "uint256"
        },
        {
          "internalType": "uint256",
          "name": "salePrice",
          "type": "uint256"
        }
      ],
      "name": "royaltyInfo",
      "outputs": [
        {
          "internalType": "address",
          "name": "receiver",
          "type": "address"
        },
        {
          "internalType": "uint256",
          "name": "royaltyAmount",
          "type": "uint256"
        }
      ],
      "stateMutability": "view",
      "type": "function"
    },
    {
      "inputs": [
        {
          "internalType": "address",
          "name": "from",
          "type": "address"
        },
        {
          "internalType": "address",
          "name": "to",
          "type": "address"
        },
        {
          "internalType": "uint256",
          "name": "id",
          "type": "uint256"
        }
      ],
      "name": "safeTransferFrom",
      "outputs": [],
      "stateMutability": "nonpayable",
      "type": "function"
    },
    {
      "inputs": [
        {
          "internalType": "address",
          "name": "from",
          "type": "address"
        },
        {
          "internalType": "address",
          "name": "to",
          "type": "address"
        },
        {
          "internalType": "uint256",
          "name": "id",
          "type": "uint256"
        },
        {
          "internalType": "bytes",
          "name": "data",
          "type": "bytes"
        }
      ],
      "name": "safeTransferFrom",
      "outputs": [],
      "stateMutability": "nonpayable",
      "type": "function"
    },
    {
      "inputs": [],
      "name": "sequenceCount",
      "outputs": [
        {
          "internalType": "uint16",
          "name": "",
          "type": "uint16"
        }
      ],
      "stateMutability": "view",
      "type": "function"
    },
    {
      "inputs": [
        {
          "internalType": "address",
          "name": "operator",
          "type": "address"
        },
        {
          "internalType": "bool",
          "name": "approved",
          "type": "bool"
        }
      ],
      "name": "setApprovalForAll",
      "outputs": [],
      "stateMutability": "nonpayable",
      "type": "function"
    },
    {
      "inputs": [
        {
          "internalType": "address",
          "name": "_owner",
          "type": "address"
        }
      ],
      "name": "setOwner",
      "outputs": [],
      "stateMutability": "nonpayable",
      "type": "function"
    },
    {
      "inputs": [
        {
          "internalType": "bytes4",
          "name": "interfaceId",
          "type": "bytes4"
        }
      ],
      "name": "supportsInterface",
      "outputs": [
        {
          "internalType": "bool",
          "name": "",
          "type": "bool"
        }
      ],
      "stateMutability": "view",
      "type": "function"
    },
    {
      "inputs": [],
      "name": "symbol",
      "outputs": [
        {
          "internalType": "string",
          "name": "value",
          "type": "string"
        }
      ],
      "stateMutability": "view",
      "type": "function"
    },
    {
      "inputs": [
        {
          "internalType": "uint256",
          "name": "tokenId",
          "type": "uint256"
        }
      ],
      "name": "tokenMintData",
      "outputs": [
        {
          "internalType": "uint80",
          "name": "data",
          "type": "uint80"
        }
      ],
      "stateMutability": "view",
      "type": "function"
    },
    {
      "inputs": [
        {
          "internalType": "uint256",
          "name": "tokenId",
          "type": "uint256"
        }
      ],
      "name": "tokenSequenceId",
      "outputs": [
        {
          "internalType": "uint16",
          "name": "sequenceId",
          "type": "uint16"
        }
      ],
      "stateMutability": "view",
      "type": "function"
    },
    {
      "inputs": [
        {
          "internalType": "uint256",
          "name": "tokenId",
          "type": "uint256"
        }
      ],
      "name": "tokenURI",
      "outputs": [
        {
          "internalType": "string",
          "name": "uri",
          "type": "string"
        }
      ],
      "stateMutability": "view",
      "type": "function"
    },
    {
      "inputs": [],
      "name": "totalSupply",
      "outputs": [
        {
          "internalType": "uint256",
          "name": "",
          "type": "uint256"
        }
      ],
      "stateMutability": "view",
      "type": "function"
    },
    {
      "inputs": [
        {
          "internalType": "address",
          "name": "from",
          "type": "address"
        },
        {
          "internalType": "address",
          "name": "to",
          "type": "address"
        },
        {
          "internalType": "uint256",
          "name": "id",
          "type": "uint256"
        }
      ],
      "name": "transferFrom",
      "outputs": [],
      "stateMutability": "nonpayable",
      "type": "function"
    }
  ],
  "bytecode": "0x60806040523480156200001157600080fd5b5060408051608081018252600060608201818152825282516020818101855282825280840191909152835180820185529182528284019190915291516200007f926200005f929101620001a7565b604051602081830303815290604052620000a560201b620018e51760201c565b600780546001600160a01b0319166001600160a01b03929092169190911790556200026c565b60008082604051602001620000bb91906200020e565b6040516020818303038152906040529050600081604051602001620000e1919062000236565b60405160208183030381529060405290508051602082016000f092506001600160a01b0383166200014c5760405162461bcd60e51b81526020600482015260116024820152701111541313d65351539517d19052531151607a1b604482015260640160405180910390fd5b5050919050565b60005b838110156200017057818101518382015260200162000156565b50506000910152565b600081518084526200019381602086016020860162000153565b601f01601f19169290920160200192915050565b602081526000825160606020840152620001c5608084018262000179565b90506020840151601f1980858403016040860152620001e5838362000179565b925060408601519150808584030160608601525062000205828262000179565b95945050505050565b60008152600082516200022981600185016020870162000153565b9190910160010192915050565b6a600b5981380380925939f360a81b815281516000906200025f81600b85016020870162000153565b91909101600b0192915050565b612a74806200027c6000396000f3fe608060405234801561001057600080fd5b50600436106101f05760003560e01c806370a082311161010f578063e112c5cc116100a2578063ef65403c11610071578063ef65403c1461056d578063f8ca7b281461069c578063fc94c750146106af578063fe9fbb80146106c257600080fd5b8063e112c5cc146104d6578063e8a3d485146104e9578063e985e9c5146104f1578063eaa7bb941461051f57600080fd5b8063b09afec1116100de578063b09afec114610451578063b88d4fde1461049f578063c87b56dd146104b2578063d9b5c4a5146104c557600080fd5b806370a082311461040a5780638da5cb5b1461041d57806395d89b4114610436578063a22cb4651461043e57600080fd5b806323b872dd116101875780633a20ad39116101565780633a20ad39146103be57806342842e0e146103d15780636342747b146103e45780636352211e146103f757600080fd5b806323b872dd1461032d5780632a55205a146103405780632b67b289146103725780632dad65c81461039357600080fd5b806313007d55116101c357806313007d551461028857806313af4035146102d65780631616d249146102e957806318160ddd1461031657600080fd5b806301ffc9a7146101f557806306fdde031461021d578063081812fc14610232578063095ea7b314610273575b600080fd5b610208610203366004611db3565b6106d5565b60405190151581526020015b60405180910390f35b610225610719565b6040516102149190611df4565b61025b610240366004611e27565b6002602052600090815260409020546001600160a01b031681565b6040516001600160a01b039091168152602001610214565b610286610281366004611e55565b610729565b005b6004546102ae906001600160a01b03811690600160a01b900467ffffffffffffffff1682565b604080516001600160a01b03909316835267ffffffffffffffff909116602083015201610214565b6102866102e4366004611e81565b61081f565b600454600160a01b900467ffffffffffffffff1660405167ffffffffffffffff9091168152602001610214565b61031f60055481565b604051908152602001610214565b61028661033b366004611e9e565b610928565b61035361034e366004611edf565b610b1c565b604080516001600160a01b039093168352602083019190915201610214565b6006546103809061ffff1681565b60405161ffff9091168152602001610214565b6103806103a1366004611e27565b600090815260208190526040902054600160a01b900461ffff1690565b6102866103cc366004611f43565b610be2565b6102866103df366004611e9e565b610ee9565b61031f6103f2366004611fb0565b610fee565b61025b610405366004611e27565b611141565b61031f610418366004611e81565b611198565b60065461025b906201000090046001600160a01b031681565b61022561120c565b61028661044c366004611ff3565b61121f565b61046461045f366004611e27565b61128b565b6040805182516001600160a01b0316815260208084015161ffff16908201529181015169ffffffffffffffffffff1690820152606001610214565b6102866104ad36600461202c565b611334565b6102256104c0366004611e27565b611429565b6004546001600160a01b031661025b565b6102866104e436600461209f565b6114e9565b61022561161f565b6102086104ff36600461213f565b600360209081526000928352604080842090915290825290205460ff1681565b61055261052d366004611e27565b600090815260208190526040902054600160b01b900469ffffffffffffffffffff1690565b60405169ffffffffffffffffffff9091168152602001610214565b61063361057b36600461216d565b6040805160c081018252600080825260208201819052918101829052606081018290526080810182905260a08101919091525061ffff16600090815260086020908152604091829020825160c081018452815467ffffffffffffffff8082168352680100000000000000008204811694830194909452600160801b8104841694820194909452600160c01b90930482166060840152600101546001600160a01b0381166080840152600160a01b90041660a082015290565b6040516102149190600060c08201905067ffffffffffffffff8084511683528060208501511660208401528060408501511660408401528060608501511660608401526001600160a01b0360808501511660808401528060a08501511660a08401525092915050565b6102866106aa366004612188565b611632565b61031f6106bd3660046121f4565b611715565b6102086106d0366004611e81565b61185c565b60006001600160e01b031982167f2a55205a000000000000000000000000000000000000000000000000000000001480610713575061071382611996565b92915050565b6060610723611a2f565b51919050565b6000818152602081905260409020546001600160a01b03163381148061077257506001600160a01b038116600090815260036020908152604080832033845290915290205460ff165b6107c35760405162461bcd60e51b815260206004820152600e60248201527f4e4f545f415554484f52495a454400000000000000000000000000000000000060448201526064015b60405180910390fd5b60008281526002602052604080822080546001600160a01b0319166001600160a01b0387811691821790925591518593918516917f8c5be1e5ebec7d5bd14f71427d1e84f3dd0314c0f7b2291e5b200ac8c7c3b92591a4505050565b60048054604051632565da5f60e11b8152600160a01b820467ffffffffffffffff16928101929092523360248301526001600160a01b031690634acbb4be90604401602060405180830381865afa15801561087e573d6000803e3d6000fd5b505050506040513d601f19601f820116820180604052508101906108a2919061224c565b6108bf5760405163ea8e4eb560e01b815260040160405180910390fd5b600680546001600160a01b038381166201000081810275ffffffffffffffffffffffffffffffffffffffff00001985161790945560405193909204169182907f8be0079c531659141344cd1fd0a4f28419497f9722a3daafe3b4186f6b6457e090600090a35050565b6000818152602081905260409020546001600160a01b038481169116146109915760405162461bcd60e51b815260206004820152600a60248201527f57524f4e475f46524f4d0000000000000000000000000000000000000000000060448201526064016107ba565b6001600160a01b0382166109e75760405162461bcd60e51b815260206004820152601160248201527f494e56414c49445f524543495049454e5400000000000000000000000000000060448201526064016107ba565b336001600160a01b0384161480610a2157506001600160a01b038316600090815260036020908152604080832033845290915290205460ff165b80610a4257506000818152600260205260409020546001600160a01b031633145b610a8e5760405162461bcd60e51b815260206004820152600e60248201527f4e4f545f415554484f52495a454400000000000000000000000000000000000060448201526064016107ba565b6001600160a01b0380841660008181526001602081815260408084208054600019019055948716808452858420805490930190925585835282815284832080546001600160a01b031990811684179091556002909152848320805490911690559251849392917fddf252ad1be2c89b69c2b068fc378daa952ba7f163c4a11628f55a4df523b3ef91a4505050565b60008281526020818152604080832054600160a01b900461ffff16835260089091528082206001015490517f36de9742000000000000000000000000000000000000000000000000000000008152306004820152602481018590526044810184905282916001600160a01b03169081906336de9742906064016040805180830381865afa158015610bb1573d6000803e3d6000fd5b505050506040513d601f19601f82011682018060405250810190610bd59190612269565b92509250505b9250929050565b60048054604051632565da5f60e11b8152600160a01b820467ffffffffffffffff16928101929092523360248301526001600160a01b031690634acbb4be90604401602060405180830381865afa158015610c41573d6000803e3d6000fd5b505050506040513d601f19601f82011682018060405250810190610c65919061224c565b610c825760405163ea8e4eb560e01b815260040160405180910390fd5b6004546001600160a01b0316634acbb4be610ca360c0860160a087016122ad565b6040516001600160e01b031960e084901b16815267ffffffffffffffff9091166004820152336024820152604401602060405180830381865afa158015610cee573d6000803e3d6000fd5b505050506040513d601f19601f82011682018060405250810190610d12919061224c565b610d2f5760405163ea8e4eb560e01b815260040160405180910390fd5b6000610d4160408501602086016122ad565b67ffffffffffffffff16118015610d875750610d6360408401602085016122ad565b67ffffffffffffffff16610d7a60208501856122ad565b67ffffffffffffffff1610155b15610da557604051631a359c9b60e01b815260040160405180910390fd5b610db560808401606085016122ad565b67ffffffffffffffff1615610ddd57604051631a359c9b60e01b815260040160405180910390fd5b60068054600091908290610df49061ffff166122e0565b825461ffff8083166101009490940a8481029102199091161790925560009081526008602052604090209091508490610e2d828261231b565b9050508061ffff167f2c9830eb4cdee6707c8730aa9aeb6d4102336f1180122d56a593b3dfeb60f93b858585604051610e6893929190612584565b60405180910390a2610e8060a0850160808601611e81565b6001600160a01b03166322a5c8d0828686866040518563ffffffff1660e01b8152600401610eb194939291906125ae565b600060405180830381600087803b158015610ecb57600080fd5b505af1158015610edf573d6000803e3d6000fd5b5050505050505050565b610ef4838383610928565b6001600160a01b0382163b1580610f9d5750604051630a85bd0160e11b8082523360048301526001600160a01b03858116602484015260448301849052608060648401526000608484015290919084169063150b7a029060a4016020604051808303816000875af1158015610f6d573d6000803e3d6000fd5b505050506040513d601f19601f82011682018060405250810190610f9191906125e5565b6001600160e01b031916145b610fe95760405162461bcd60e51b815260206004820152601060248201527f554e534146455f524543495049454e540000000000000000000000000000000060448201526064016107ba565b505050565b61ffff81166000908152600860209081526040808320815160c081018352815467ffffffffffffffff8082168352680100000000000000008204811695830195909552600160801b8104851693820193909352600160c01b9092048316606083015260018101546001600160a01b0381166080840152600160a01b900490921660a082015261107c90611a80565b60056000815461108b90612602565b9182905550815490925060009082906018906110b790600160c01b900467ffffffffffffffff1661261b565b91906101000a81548167ffffffffffffffff021916908367ffffffffffffffff160217905590506110f48584868467ffffffffffffffff16611bb1565b60405167ffffffffffffffff8216815261ffff85169084907f309d706ccfa16f4de27619e33808b4439484c67998e9a545f4ca492cbc975e619060200160405180910390a3505092915050565b6000818152602081905260409020546001600160a01b0316806111935760405162461bcd60e51b815260206004820152600a6024820152691393d517d3525395115160b21b60448201526064016107ba565b919050565b60006001600160a01b0382166111f05760405162461bcd60e51b815260206004820152600c60248201527f5a45524f5f41444452455353000000000000000000000000000000000000000060448201526064016107ba565b506001600160a01b031660009081526001602052604090205490565b6060611216611a2f565b60200151905090565b3360008181526003602090815260408083206001600160a01b03871680855290835292819020805460ff191686151590811790915590519081529192917f17307eab39ab6107e8899845ad3d59bd9653f200f220920489ca2b5937696c31910160405180910390a35050565b604080516060810182526000808252602082018190529181019190915260008281526020818152604091829020825160608101845290546001600160a01b038116808352600160a01b820461ffff1693830193909352600160b01b900469ffffffffffffffffffff16928101929092526107135760405162461bcd60e51b815260206004820152600a6024820152691393d517d3525395115160b21b60448201526064016107ba565b61133f858585610928565b6001600160a01b0384163b15806113d65750604051630a85bd0160e11b808252906001600160a01b0386169063150b7a02906113879033908a90899089908990600401612638565b6020604051808303816000875af11580156113a6573d6000803e3d6000fd5b505050506040513d601f19601f820116820180604052508101906113ca91906125e5565b6001600160e01b031916145b6114225760405162461bcd60e51b815260206004820152601060248201527f554e534146455f524543495049454e540000000000000000000000000000000060448201526064016107ba565b5050505050565b60008181526020818152604080832054600160a01b900461ffff1683526008909152908190206001015490517f0b63fd62000000000000000000000000000000000000000000000000000000008152306004820152602481018390526060916001600160a01b0316908190630b63fd6290604401600060405180830381865afa1580156114ba573d6000803e3d6000fd5b505050506040513d6000823e601f3d908101601f191682016040526114e29190810190612732565b9392505050565b6007546001600160a01b03161561152c576040517f0dc149f000000000000000000000000000000000000000000000000000000000815260040160405180910390fd5b6115548160405160200161154091906127b5565b6040516020818303038152906040526118e5565b600780546001600160a01b0319166001600160a01b039283161790556006805475ffffffffffffffffffffffffffffffffffffffff0000191662010000888416810291909117918290556040519104909116906000907f8be0079c531659141344cd1fd0a4f28419497f9722a3daafe3b4186f6b6457e0908290a38360046115dc828261282b565b9050507f297aa6cf51bb39507374bfcb61edead3172fc87755dea183d848c3a23c704967838360405161161092919061289c565b60405180910390a15050505050565b6060611629611a2f565b60400151905090565b60048054604051632565da5f60e11b8152600160a01b820467ffffffffffffffff16928101929092523360248301526001600160a01b031690634acbb4be90604401602060405180830381865afa158015611691573d6000803e3d6000fd5b505050506040513d601f19601f820116820180604052508101906116b5919061224c565b6116d25760405163ea8e4eb560e01b815260040160405180910390fd5b7f297aa6cf51bb39507374bfcb61edead3172fc87755dea183d848c3a23c7049678484848460405161170794939291906128e4565b60405180910390a150505050565b61ffff82166000908152600860209081526040808320815160c081018352815467ffffffffffffffff8082168352680100000000000000008204811695830195909552600160801b8104851693820193909352600160c01b9092048316606083015260018101546001600160a01b0381166080840152600160a01b900490921660a08201526117a390611a80565b6005600081546117b290612602565b9182905550815490925081906018906117db90600160c01b900467ffffffffffffffff1661261b565b91906101000a81548167ffffffffffffffff021916908367ffffffffffffffff16021790555061180d85838686611bb1565b60405169ffffffffffffffffffff8416815261ffff85169083907f309d706ccfa16f4de27619e33808b4439484c67998e9a545f4ca492cbc975e619060200160405180910390a3509392505050565b60048054604051632565da5f60e11b8152600160a01b820467ffffffffffffffff16928101929092526001600160a01b038381166024840152600092911690634acbb4be90604401602060405180830381865afa1580156118c1573d6000803e3d6000fd5b505050506040513d601f19601f82011682018060405250810190610713919061224c565b600080826040516020016118f9919061290b565b604051602081830303815290604052905060008160405160200161191d9190612931565b60405160208183030381529060405290508051602082016000f092506001600160a01b03831661198f5760405162461bcd60e51b815260206004820152601160248201527f4445504c4f594d454e545f4641494c454400000000000000000000000000000060448201526064016107ba565b5050919050565b60007f01ffc9a7000000000000000000000000000000000000000000000000000000006001600160e01b0319831614806119f957507f80ac58cd000000000000000000000000000000000000000000000000000000006001600160e01b03198316145b806107135750506001600160e01b0319167f5b5e139f000000000000000000000000000000000000000000000000000000001490565b611a5360405180606001604052806060815260200160608152602001606081525090565b600754611a68906001600160a01b0316611d5e565b806020019051810190611a7b9190612976565b905090565b60808101516001600160a01b03163314611ac6576040517fa6df31da00000000000000000000000000000000000000000000000000000000815260040160405180910390fd5b805167ffffffffffffffff16421080611b0657506000816020015167ffffffffffffffff16118015611b065750806020015167ffffffffffffffff164210155b15611b3d576040517f17444c4d00000000000000000000000000000000000000000000000000000000815260040160405180910390fd5b6000816040015167ffffffffffffffff16118015611b775750806040015167ffffffffffffffff16816060015167ffffffffffffffff1610155b15611bae576040517fcdcf382c00000000000000000000000000000000000000000000000000000000815260040160405180910390fd5b50565b6001600160a01b038416611c075760405162461bcd60e51b815260206004820152601160248201527f494e56414c49445f524543495049454e5400000000000000000000000000000060448201526064016107ba565b6000838152602081905260409020546001600160a01b031615611c6c5760405162461bcd60e51b815260206004820152600e60248201527f414c52454144595f4d494e54454400000000000000000000000000000000000060448201526064016107ba565b6001600160a01b0384811660008181526001602081815260408084208054909301909255815160608101835284815261ffff88811682840190815269ffffffffffffffffffff8981168487019081528c885294879052858720935184549251955199167fffffffffffffffffffff0000000000000000000000000000000000000000000090921691909117600160a01b94909216939093021775ffffffffffffffffffffffffffffffffffffffffffff16600160b01b96909216959095021790935591518592907fddf252ad1be2c89b69c2b068fc378daa952ba7f163c4a11628f55a4df523b3ef908290a450505050565b6060610713826001611d7a816001600160a01b0384163b612a2b565b60408051603f8301601f19168101909152818152818360208301863c9392505050565b6001600160e01b031981168114611bae57600080fd5b600060208284031215611dc557600080fd5b81356114e281611d9d565b60005b83811015611deb578181015183820152602001611dd3565b50506000910152565b6020815260008251806020840152611e13816040850160208701611dd0565b601f01601f19169190910160400192915050565b600060208284031215611e3957600080fd5b5035919050565b6001600160a01b0381168114611bae57600080fd5b60008060408385031215611e6857600080fd5b8235611e7381611e40565b946020939093013593505050565b600060208284031215611e9357600080fd5b81356114e281611e40565b600080600060608486031215611eb357600080fd5b8335611ebe81611e40565b92506020840135611ece81611e40565b929592945050506040919091013590565b60008060408385031215611ef257600080fd5b50508035926020909101359150565b60008083601f840112611f1357600080fd5b50813567ffffffffffffffff811115611f2b57600080fd5b602083019150836020828501011115610bdb57600080fd5b600080600083850360e0811215611f5957600080fd5b60c0811215611f6757600080fd5b5083925060c084013567ffffffffffffffff811115611f8557600080fd5b611f9186828701611f01565b9497909650939450505050565b803561ffff8116811461119357600080fd5b60008060408385031215611fc357600080fd5b8235611fce81611e40565b9150611fdc60208401611f9e565b90509250929050565b8015158114611bae57600080fd5b6000806040838503121561200657600080fd5b823561201181611e40565b9150602083013561202181611fe5565b809150509250929050565b60008060008060006080868803121561204457600080fd5b853561204f81611e40565b9450602086013561205f81611e40565b935060408601359250606086013567ffffffffffffffff81111561208257600080fd5b61208e88828901611f01565b969995985093965092949392505050565b600080600080600085870360a08112156120b857600080fd5b86356120c381611e40565b95506040601f19820112156120d757600080fd5b50602086019350606086013567ffffffffffffffff808211156120f957600080fd5b61210589838a01611f01565b9095509350608088013591508082111561211e57600080fd5b5086016060818903121561213157600080fd5b809150509295509295909350565b6000806040838503121561215257600080fd5b823561215d81611e40565b9150602083013561202181611e40565b60006020828403121561217f57600080fd5b6114e282611f9e565b6000806000806040858703121561219e57600080fd5b843567ffffffffffffffff808211156121b657600080fd5b6121c288838901611f01565b909650945060208701359150808211156121db57600080fd5b506121e887828801611f01565b95989497509550505050565b60008060006060848603121561220957600080fd5b833561221481611e40565b925061222260208501611f9e565b9150604084013569ffffffffffffffffffff8116811461224157600080fd5b809150509250925092565b60006020828403121561225e57600080fd5b81516114e281611fe5565b6000806040838503121561227c57600080fd5b825161228781611e40565b6020939093015192949293505050565b67ffffffffffffffff81168114611bae57600080fd5b6000602082840312156122bf57600080fd5b81356114e281612297565b634e487b7160e01b600052601160045260246000fd5b600061ffff8083168181036122f7576122f76122ca565b6001019392505050565b6000813561071381612297565b6000813561071381611e40565b813561232681612297565b67ffffffffffffffff8116905081548167ffffffffffffffff198216178355602084013561235381612297565b6fffffffffffffffff00000000000000008160401b16905080837fffffffffffffffffffffffffffffffff0000000000000000000000000000000084161717845560408501356123a281612297565b77ffffffffffffffff000000000000000000000000000000008160801b16847fffffffffffffffff0000000000000000000000000000000000000000000000008516178317178555505050506124466123fd60608401612301565b825477ffffffffffffffffffffffffffffffffffffffffffffffff1660c09190911b7fffffffffffffffff00000000000000000000000000000000000000000000000016178255565b600181016124766124596080850161230e565b82546001600160a01b0319166001600160a01b0391909116178255565b610fe961248560a08501612301565b82547fffffffff0000000000000000ffffffffffffffffffffffffffffffffffffffff1660a09190911b67ffffffffffffffff60a01b16178255565b80356124cc81612297565b67ffffffffffffffff90811683526020820135906124e982612297565b908116602084015260408201359061250082612297565b908116604084015260608201359061251782612297565b908116606084015260808201359061252e82611e40565b6001600160a01b038216608085015260a0830135915061254d82612297565b80821660a085015250505050565b81835281816020850137506000828201602090810191909152601f909101601f19169091010190565b61258e81856124c1565b60e060c082015260006125a560e08301848661255b565b95945050505050565b600061010061ffff871683526125c760208401876124c1565b8060e08401526125da818401858761255b565b979650505050505050565b6000602082840312156125f757600080fd5b81516114e281611d9d565b600060018201612614576126146122ca565b5060010190565b600067ffffffffffffffff8083168181036122f7576122f76122ca565b60006001600160a01b038088168352808716602084015250846040830152608060608301526125da60808301848661255b565b634e487b7160e01b600052604160045260246000fd5b6040516060810167ffffffffffffffff811182821017156126a4576126a461266b565b60405290565b600082601f8301126126bb57600080fd5b815167ffffffffffffffff808211156126d6576126d661266b565b604051601f8301601f19908116603f011681019082821181831017156126fe576126fe61266b565b8160405283815286602085880101111561271757600080fd5b612728846020830160208901611dd0565b9695505050505050565b60006020828403121561274457600080fd5b815167ffffffffffffffff81111561275b57600080fd5b612767848285016126aa565b949350505050565b6000808335601e1984360301811261278657600080fd5b830160208101925035905067ffffffffffffffff8111156127a657600080fd5b803603821315610bdb57600080fd5b6020815260006127c5838461276f565b606060208501526127da60808501828461255b565b9150506127ea602085018561276f565b601f198086850301604087015261280284838561255b565b9350612811604088018861276f565b93509150808685030160608701525061272883838361255b565b813561283681611e40565b81546001600160a01b0319166001600160a01b03821617825550602082013561285e81612297565b81547fffffffff0000000000000000ffffffffffffffffffffffffffffffffffffffff1660a082901b67ffffffffffffffff60a01b16178255505050565b60408152600860408201527f6d65746164617461000000000000000000000000000000000000000000000000606082015260806020820152600061276760808301848661255b565b6040815260006128f860408301868861255b565b82810360208401526125da81858761255b565b6000815260008251612924816001850160208701611dd0565b9190910160010192915050565b7f600b5981380380925939f300000000000000000000000000000000000000000081526000825161296981600b850160208701611dd0565b91909101600b0192915050565b60006020828403121561298857600080fd5b815167ffffffffffffffff808211156129a057600080fd5b90830190606082860312156129b457600080fd5b6129bc612681565b8251828111156129cb57600080fd5b6129d7878286016126aa565b8252506020830151828111156129ec57600080fd5b6129f8878286016126aa565b602083015250604083015182811115612a1057600080fd5b612a1c878286016126aa565b60408301525095945050505050565b81810381811115610713576107136122ca56fea2646970667358221220617f1321b9d999f54ad85bcd379cc13085f26ce39b897d549751df9c0517c9b064736f6c63430008110033",
  "linkReferences": {},
  "deployedLinkReferences": {}
}