{
  "_format": "hh-sol-artifact-1",
  "contractName": "CollectionFactory",
  "sourceName": "contracts/CollectionFactory.sol",
  "abi": [
    {
      "inputs": [
        {
          "internalType": "contract INodeRegistry",
          "name": "_nodeRegistry",
          "type": "address"
        },
        {
          "internalType": "contract Collection",
          "name": "_implementation",
          "type": "address"
        }
      ],
      "stateMutability": "nonpayable",
      "type": "constructor"
    },
    {
      "inputs": [],
      "name": "CreateFail",
      "type": "error"
    },
    {
      "inputs": [],
      "name": "NotAuthorized",
      "type": "error"
    },
    {
      "anonymous": false,
      "inputs": [
        {
          "indexed": true,
          "internalType": "address",
          "name": "collection",
          "type": "address"
        },
        {
          "indexed": false,
          "internalType": "string",
          "name": "name",
          "type": "string"
        },
        {
          "indexed": false,
          "internalType": "string",
          "name": "symbol",
          "type": "string"
        }
      ],
      "name": "CollectionCreated",
      "type": "event"
    },
    {
      "inputs": [
        {
          "internalType": "string",
          "name": "name",
          "type": "string"
        },
        {
          "internalType": "string",
          "name": "symbol",
          "type": "string"
        },
        {
          "internalType": "uint64",
          "name": "controlNode",
          "type": "uint64"
        },
        {
          "internalType": "address",
          "name": "owner",
          "type": "address"
        },
        {
          "internalType": "string",
          "name": "collectionURI",
          "type": "string"
        }
      ],
      "name": "createCollection",
      "outputs": [
        {
          "internalType": "contract Collection",
          "name": "collection",
          "type": "address"
        }
      ],
      "stateMutability": "nonpayable",
      "type": "function"
    },
    {
      "inputs": [],
      "name": "implementation",
      "outputs": [
        {
          "internalType": "contract Collection",
          "name": "",
          "type": "address"
        }
      ],
      "stateMutability": "view",
      "type": "function"
    },
    {
      "inputs": [],
      "name": "nodeRegistry",
      "outputs": [
        {
          "internalType": "contract INodeRegistry",
          "name": "",
          "type": "address"
        }
      ],
      "stateMutability": "view",
      "type": "function"
    }
  ],
  "bytecode": "0x60c060405234801561001057600080fd5b506040516106ef3803806106ef83398101604081905261002f9161005e565b6001600160a01b039081166080521660a052610098565b6001600160a01b038116811461005b57600080fd5b50565b6000806040838503121561007157600080fd5b825161007c81610046565b602084015190925061008d81610046565b809150509250929050565b60805160a0516106206100cf6000396000818160a10152818160eb0152610181015260008181607a01526101e201526106206000f3fe608060405234801561001057600080fd5b50600436106100415760003560e01c8063131f465b146100465780635c60da1b14610075578063d9b5c4a51461009c575b600080fd5b610059610054366004610439565b6100c3565b6040516001600160a01b03909116815260200160405180910390f35b6100597f000000000000000000000000000000000000000000000000000000000000000081565b6100597f000000000000000000000000000000000000000000000000000000000000000081565b604051632565da5f60e11b815267ffffffffffffffff851660048201523360248201526000907f00000000000000000000000000000000000000000000000000000000000000006001600160a01b031690634acbb4be90604401602060405180830381865afa15801561013a573d6000803e3d6000fd5b505050506040513d601f19601f8201168201806040525081019061015e919061050d565b61017b5760405163ea8e4eb560e01b815260040160405180910390fd5b604080517f000000000000000000000000000000000000000000000000000000000000000060601b6bffffffffffffffffffffffff1916602082015260c087901b6001600160c01b03191660348201528151601c818303018152603c9091019091526102107f00000000000000000000000000000000000000000000000000000000000000006001600160a01b0316826102d1565b604051631400895360e21b81529092506001600160a01b03831690635002254c9061024b908d908d908d908d908c908c908c9060040161055f565b600060405180830381600087803b15801561026557600080fd5b505af1158015610279573d6000803e3d6000fd5b50505050816001600160a01b03167f3454b57f2dca4f5a54e8358d096ac9d1a0d2dab98991ddb89ff9ea17462606178b8b8b8b6040516102bc94939291906105b8565b60405180910390a25098975050505050505050565b8051604051613d6160f01b8152603a820160f081811b6002848101919091526680600b3d3981f360c81b600485015264363d3d376160d81b600b8501528401901b6010830181905268603836393d3d3d366160b81b6012840152601b83015262013d7360e81b601d830152606085901b6020808401919091526e5af43d82803e903d91603657fd5bf360881b60348401526000939260458401929186019084604382015b602082106103945783518152602093840193601f199092019101610375565b835160001960208490036101000a0119908116825260f088901b91830191825286846000f098506001600160a01b0389166103e257604051631d7fde3160e31b815260040160405180910390fd5b505050505050505092915050565b60008083601f84011261040257600080fd5b50813567ffffffffffffffff81111561041a57600080fd5b60208301915083602082850101111561043257600080fd5b9250929050565b60008060008060008060008060a0898b03121561045557600080fd5b883567ffffffffffffffff8082111561046d57600080fd5b6104798c838d016103f0565b909a50985060208b013591508082111561049257600080fd5b61049e8c838d016103f0565b909850965060408b0135915080821682146104b857600080fd5b90945060608a0135906001600160a01b03821682146104d657600080fd5b90935060808a013590808211156104ec57600080fd5b506104f98b828c016103f0565b999c989b5096995094979396929594505050565b60006020828403121561051f57600080fd5b8151801515811461052f57600080fd5b9392505050565b81835281816020850137506000828201602090810191909152601f909101601f19169091010190565b60808152600061057360808301898b610536565b828103602084015261058681888a610536565b6001600160a01b0387166040850152838103606085015290506105aa818587610536565b9a9950505050505050505050565b6040815260006105cc604083018688610536565b82810360208401526105df818587610536565b97965050505050505056fea26469706673582212209b1081b59dce02d9556d5c1c6c2848acf419d82c2071f0ee2eb53edcdd5d310f64736f6c634300080d0033",
  "linkReferences": {},
  "deployedLinkReferences": {}
}