{
  "_format": "hh-sol-artifact-1",
  "contractName": "ControllerV1",
  "sourceName": "contracts/ControllerV1.sol",
  "abi": [
    {
      "inputs": [
        {
          "internalType": "contract INodeRegistry",
          "name": "_nodeRegistry",
          "type": "address"
        },
        {
          "internalType": "contract IAccountRegistry",
          "name": "_accountRegistry",
          "type": "address"
        },
        {
          "internalType": "contract CollectionFactory",
          "name": "_collectionFactory",
          "type": "address"
        },
        {
          "internalType": "contract MembershipsFactory",
          "name": "_membershipsFactory",
          "type": "address"
        },
        {
          "internalType": "address",
          "name": "_contractOwner",
          "type": "address"
        }
      ],
      "stateMutability": "nonpayable",
      "type": "constructor"
    },
    {
      "inputs": [],
      "name": "InvalidProof",
      "type": "error"
    },
    {
      "inputs": [],
      "name": "NotAuthorized",
      "type": "error"
    },
    {
      "inputs": [],
      "name": "SubdomainAlreadyReserved",
      "type": "error"
    },
    {
      "anonymous": false,
      "inputs": [
        {
          "indexed": false,
          "internalType": "bytes32",
          "name": "allowlistRoot",
          "type": "bytes32"
        }
      ],
      "name": "AllowlistRootUpdated",
      "type": "event"
    },
    {
      "anonymous": false,
      "inputs": [
        {
          "indexed": true,
          "internalType": "address",
          "name": "user",
          "type": "address"
        },
        {
          "indexed": true,
          "internalType": "address",
          "name": "newOwner",
          "type": "address"
        }
      ],
      "name": "OwnershipTransferred",
      "type": "event"
    },
    {
      "anonymous": false,
      "inputs": [
        {
          "indexed": true,
          "internalType": "uint64",
          "name": "metalabelNodeId",
          "type": "uint64"
        },
        {
          "indexed": false,
          "internalType": "string",
          "name": "subdomain",
          "type": "string"
        }
      ],
      "name": "SubdomainReserved",
      "type": "event"
    },
    {
      "inputs": [],
      "name": "accountRegistry",
      "outputs": [
        {
          "internalType": "contract IAccountRegistry",
          "name": "",
          "type": "address"
        }
      ],
      "stateMutability": "view",
      "type": "function"
    },
    {
      "inputs": [],
      "name": "allowlistRoot",
      "outputs": [
        {
          "internalType": "bytes32",
          "name": "",
          "type": "bytes32"
        }
      ],
      "stateMutability": "view",
      "type": "function"
    },
    {
      "inputs": [],
      "name": "collectionFactory",
      "outputs": [
        {
          "internalType": "contract CollectionFactory",
          "name": "",
          "type": "address"
        }
      ],
      "stateMutability": "view",
      "type": "function"
    },
    {
      "inputs": [],
      "name": "membershipsFactory",
      "outputs": [
        {
          "internalType": "contract MembershipsFactory",
          "name": "",
          "type": "address"
        }
      ],
      "stateMutability": "view",
      "type": "function"
    },
    {
      "inputs": [],
      "name": "nodeRegistry",
      "outputs": [
        {
          "internalType": "contract INodeRegistry",
          "name": "",
          "type": "address"
        }
      ],
      "stateMutability": "view",
      "type": "function"
    },
    {
      "inputs": [],
      "name": "owner",
      "outputs": [
        {
          "internalType": "address",
          "name": "",
          "type": "address"
        }
      ],
      "stateMutability": "view",
      "type": "function"
    },
    {
      "inputs": [
        {
          "components": [
            {
              "internalType": "uint64",
              "name": "metalabelNodeId",
              "type": "uint64"
            },
            {
              "internalType": "string",
              "name": "releaseMetadata",
              "type": "string"
            },
            {
              "internalType": "contract Collection",
              "name": "recordCollection",
              "type": "address"
            },
            {
              "components": [
                {
                  "components": [
                    {
                      "internalType": "uint64",
                      "name": "sealedBeforeTimestamp",
                      "type": "uint64"
                    },
                    {
                      "internalType": "uint64",
                      "name": "sealedAfterTimestamp",
                      "type": "uint64"
                    },
                    {
                      "internalType": "uint64",
                      "name": "maxSupply",
                      "type": "uint64"
                    },
                    {
                      "internalType": "uint64",
                      "name": "minted",
                      "type": "uint64"
                    },
                    {
                      "internalType": "contract IEngine",
                      "name": "engine",
                      "type": "address"
                    },
                    {
                      "internalType": "uint64",
                      "name": "dropNodeId",
                      "type": "uint64"
                    }
                  ],
                  "internalType": "struct SequenceData",
                  "name": "sequenceData",
                  "type": "tuple"
                },
                {
                  "internalType": "bytes",
                  "name": "engineData",
                  "type": "bytes"
                }
              ],
              "internalType": "struct SequenceConfig[]",
              "name": "sequences",
              "type": "tuple[]"
            }
          ],
          "internalType": "struct PublishReleaseConfig",
          "name": "config",
          "type": "tuple"
        }
      ],
      "name": "publishRelease",
      "outputs": [
        {
          "internalType": "uint64",
          "name": "releaseNodeId",
          "type": "uint64"
        }
      ],
      "stateMutability": "nonpayable",
      "type": "function"
    },
    {
      "inputs": [
        {
          "components": [
            {
              "internalType": "uint64",
              "name": "metalabelNodeId",
              "type": "uint64"
            },
            {
              "internalType": "string",
              "name": "subdomain",
              "type": "string"
            },
            {
              "internalType": "string",
              "name": "collectionName",
              "type": "string"
            },
            {
              "internalType": "string",
              "name": "collectionSymbol",
              "type": "string"
            },
            {
              "internalType": "string",
              "name": "collectionContractURI",
              "type": "string"
            },
            {
              "internalType": "string",
              "name": "collectionMetadata",
              "type": "string"
            },
            {
              "internalType": "string",
              "name": "membershipsName",
              "type": "string"
            },
            {
              "internalType": "string",
              "name": "membershipsSymbol",
              "type": "string"
            },
            {
              "internalType": "string",
              "name": "membershipsBaseURI",
              "type": "string"
            },
            {
              "internalType": "string",
              "name": "membershipsMetadata",
              "type": "string"
            },
            {
              "internalType": "bytes32",
              "name": "membershipsListRoot",
              "type": "bytes32"
            },
            {
              "components": [
                {
                  "internalType": "address",
                  "name": "to",
                  "type": "address"
                },
                {
                  "internalType": "uint16",
                  "name": "sequenceId",
                  "type": "uint16"
                }
              ],
              "internalType": "struct AdminMembershipMint[]",
              "name": "members",
              "type": "tuple[]"
            },
            {
              "internalType": "bytes32[]",
              "name": "proof",
              "type": "bytes32[]"
            }
          ],
          "internalType": "struct SetupMetalabelConfig",
          "name": "config",
          "type": "tuple"
        }
      ],
      "name": "setupMetalabel",
      "outputs": [
        {
          "internalType": "contract Collection",
          "name": "recordCollection",
          "type": "address"
        },
        {
          "internalType": "contract Memberships",
          "name": "memberships",
          "type": "address"
        }
      ],
      "stateMutability": "nonpayable",
      "type": "function"
    },
    {
      "inputs": [
        {
          "internalType": "string",
          "name": "",
          "type": "string"
        }
      ],
      "name": "subdomains",
      "outputs": [
        {
          "internalType": "uint64",
          "name": "",
          "type": "uint64"
        }
      ],
      "stateMutability": "view",
      "type": "function"
    },
    {
      "inputs": [
        {
          "internalType": "address",
          "name": "newOwner",
          "type": "address"
        }
      ],
      "name": "transferOwnership",
      "outputs": [],
      "stateMutability": "nonpayable",
      "type": "function"
    },
    {
      "inputs": [
        {
          "internalType": "bytes32",
          "name": "_allowlistRoot",
          "type": "bytes32"
        },
        {
          "components": [
            {
              "internalType": "address",
              "name": "subject",
              "type": "address"
            },
            {
              "internalType": "string",
              "name": "metadata",
              "type": "string"
            }
          ],
          "internalType": "struct IssueAccountConfig[]",
          "name": "accountsToIssue",
          "type": "tuple[]"
        }
      ],
      "name": "updateAllowlist",
      "outputs": [],
      "stateMutability": "nonpayable",
      "type": "function"
    }
  ],
  "bytecode": "0x6101006040523480156200001257600080fd5b50604051620019dd380380620019dd8339810160408190526200003591620000bb565b600080546001600160a01b0319166001600160a01b03831690811782556040518392907f8be0079c531659141344cd1fd0a4f28419497f9722a3daafe3b4186f6b6457e0908290a350506001600160a01b0393841660805291831660a052821660c0521660e0526200013b565b6001600160a01b0381168114620000b857600080fd5b50565b600080600080600060a08688031215620000d457600080fd5b8551620000e181620000a2565b6020870151909550620000f481620000a2565b60408701519094506200010781620000a2565b60608701519093506200011a81620000a2565b60808701519092506200012d81620000a2565b809150509295509295909350565b60805160a05160c05160e051611831620001ac6000396000818160d301526108670152600081816101b501526106840152600081816101dc0152610300015260008181610238015281816104a101528181610ae301528181610bab01528181610c7c0152610dc101526118316000f3fe608060405234801561001057600080fd5b50600436106100c95760003560e01c8063ca34bb3211610081578063d08f4ec71161005b578063d08f4ec7146101fe578063d9b5c4a514610233578063f2fde38b1461025a57600080fd5b8063ca34bb3214610184578063cf25a2fd146101b0578063d089e11a146101d757600080fd5b80635f39f46f116100b25780635f39f46f146101275780638da5cb5b1461015a5780639c9c66691461016d57600080fd5b80632ba0fd07146100ce5780635adb14fb14610112575b600080fd5b6100f57f000000000000000000000000000000000000000000000000000000000000000081565b6040516001600160a01b0390911681526020015b60405180910390f35b61012561012036600461108b565b61026d565b005b61013a61013536600461110a565b61040b565b604080516001600160a01b03938416815292909116602083015201610109565b6000546100f5906001600160a01b031681565b61017660025481565b604051908152602001610109565b61019761019236600461114d565b610ad7565b60405167ffffffffffffffff9091168152602001610109565b6100f57f000000000000000000000000000000000000000000000000000000000000000081565b6100f57f000000000000000000000000000000000000000000000000000000000000000081565b61019761020c36600461119e565b805160208183018101805160018252928201919093012091525467ffffffffffffffff1681565b6100f57f000000000000000000000000000000000000000000000000000000000000000081565b610125610268366004611267565b610fa5565b6000546001600160a01b031633146102bb5760405162461bcd60e51b815260206004820152600c60248201526b15539055551213d49256915160a21b60448201526064015b60405180910390fd5b60028390556040518381527f3acc3a8ccad9989eb960fa656ab3fe7c50873af2f06d0e4eeddd7081890e7e5e9060200160405180910390a160005b81811015610405577f00000000000000000000000000000000000000000000000000000000000000006001600160a01b0316632659f39484848481811061033f5761033f611284565b9050602002810190610351919061129a565b61035f906020810190611267565b85858581811061037157610371611284565b9050602002810190610383919061129a565b6103919060208101906112ba565b6040518463ffffffff1660e01b81526004016103af93929190611331565b6020604051808303816000875af11580156103ce573d6000803e3d6000fd5b505050506040513d601f19601f820116820180604052508101906103f29190611373565b50806103fd81611390565b9150506102f6565b50505050565b6000808061045e6104206101808601866113b7565b60025461043060208901896112ba565b3360405160200161044393929190611401565b60405160208183030381529060405280519060200120611051565b905080610497576040517f09bde33900000000000000000000000000000000000000000000000000000000815260040160405180910390fd5b6001600160a01b037f000000000000000000000000000000000000000000000000000000000000000016634acbb4be6104d36020870187611427565b6040516001600160e01b031960e084901b16815267ffffffffffffffff9091166004820152336024820152604401602060405180830381865afa15801561051e573d6000803e3d6000fd5b505050506040513d601f19601f820116820180604052508101906105429190611444565b61055f5760405163ea8e4eb560e01b815260040160405180910390fd5b600161056e60208601866112ba565b60405161057c929190611466565b9081526040519081900360200190205467ffffffffffffffff16156105cd576040517fde80955800000000000000000000000000000000000000000000000000000000815260040160405180910390fd5b6105da6020850185611427565b60016105e960208701876112ba565b6040516105f7929190611466565b90815260405160209181900382019020805467ffffffffffffffff191667ffffffffffffffff939093169290921790915561063490850185611427565b67ffffffffffffffff167fd168d2c258876bcf10da068836c0dcaa8d7d7a189326a19e8b73f2365128848a61066c60208701876112ba565b60405161067a929190611476565b60405180910390a27f00000000000000000000000000000000000000000000000000000000000000006001600160a01b031663e065b7d76040518060c001604052808780604001906106cc91906112ba565b8080601f01602080910402602001604051908101604052809392919081815260200183838082843760009201919091525050509082525060200161071360608901896112ba565b8080601f01602080910402602001604051908101604052809392919081815260200183838082843760009201919091525050509082525060200161075a60808901896112ba565b8080601f016020809104026020016040519081016040528093929190818152602001838380828437600092019190915250505090825250336020808301919091526040909101906107ad90890189611427565b67ffffffffffffffff1681526020016107c960a08901896112ba565b8080601f01602080910402602001604051908101604052809392919081815260200183838082843760009201919091525050509152506040516001600160e01b031960e084901b1681526108209190600401611561565b6020604051808303816000875af115801561083f573d6000803e3d6000fd5b505050506040513d601f19601f820116820180604052508101906108639190611574565b92507f00000000000000000000000000000000000000000000000000000000000000006001600160a01b0316634fffb7d06040518060c00160405280878060c001906108af91906112ba565b8080601f0160208091040260200160405190810160405280939291908181526020018383808284376000920191909152505050908252506020016108f660e08901896112ba565b8080601f01602080910402602001604051908101604052809392919081815260200183838082843760009201919091525050509082525060200161093e6101008901896112ba565b8080601f0160208091040260200160405190810160405280939291908181526020018383808284376000920191909152505050908252503360208083019190915260409091019061099190890189611427565b67ffffffffffffffff1681526020016109ae6101208901896112ba565b8080601f01602080910402602001604051908101604052809392919081815260200183838082843760009201919091525050509152506040516001600160e01b031960e084901b168152610a059190600401611561565b6020604051808303816000875af1158015610a24573d6000803e3d6000fd5b505050506040513d601f19601f82011682018060405250810190610a489190611574565b91506001600160a01b03821663b2b66227610140860135610a6d610160880188611591565b604080516000815260208101918290526001600160e01b031960e087901b16909152610a9f93929190602481016115db565b600060405180830381600087803b158015610ab957600080fd5b505af1158015610acd573d6000803e3d6000fd5b5050505050915091565b60006001600160a01b037f000000000000000000000000000000000000000000000000000000000000000016634acbb4be610b156020850185611427565b6040516001600160e01b031960e084901b16815267ffffffffffffffff9091166004820152336024820152604401602060405180830381865afa158015610b60573d6000803e3d6000fd5b505050506040513d601f19601f82011682018060405250810190610b849190611444565b610ba15760405163ea8e4eb560e01b815260040160405180910390fd5b6001600160a01b037f000000000000000000000000000000000000000000000000000000000000000016630fe2757760026000610be16020870187611427565b610bee6020880188611427565b6040805160008152602080820190925290610c0b908a018a6112ba565b6040518863ffffffff1660e01b8152600401610c2d9796959493929190611688565b6020604051808303816000875af1158015610c4c573d6000803e3d6000fd5b505050506040513d601f19601f82011682018060405250810190610c709190611373565b90506001600160a01b037f000000000000000000000000000000000000000000000000000000000000000016634acbb4be610cb16060850160408601611267565b6001600160a01b0316631616d2496040518163ffffffff1660e01b8152600401602060405180830381865afa158015610cee573d6000803e3d6000fd5b505050506040513d601f19601f82011682018060405250810190610d129190611373565b6040516001600160e01b031960e084901b16815267ffffffffffffffff9091166004820152336024820152604401602060405180830381865afa158015610d5d573d6000803e3d6000fd5b505050506040513d601f19601f82011682018060405250810190610d819190611444565b610d9e5760405163ea8e4eb560e01b815260040160405180910390fd5b60005b610dae60608401846113b7565b9050811015610f9f576001600160a01b037f000000000000000000000000000000000000000000000000000000000000000016634acbb4be610df360608601866113b7565b84818110610e0357610e03611284565b9050602002810190610e159190611737565b610e269060c081019060a001611427565b6040516001600160e01b031960e084901b16815267ffffffffffffffff9091166004820152336024820152604401602060405180830381865afa158015610e71573d6000803e3d6000fd5b505050506040513d601f19601f82011682018060405250810190610e959190611444565b610eb25760405163ea8e4eb560e01b815260040160405180910390fd5b610ec26060840160408501611267565b6001600160a01b0316633a20ad39610edd60608601866113b7565b84818110610eed57610eed611284565b9050602002810190610eff9190611737565b610f0c60608701876113b7565b85818110610f1c57610f1c611284565b9050602002810190610f2e9190611737565b610f3c9060c08101906112ba565b6040518463ffffffff1660e01b8152600401610f5a9392919061174d565b600060405180830381600087803b158015610f7457600080fd5b505af1158015610f88573d6000803e3d6000fd5b505050508080610f9790611390565b915050610da1565b50919050565b6000546001600160a01b03163314610fee5760405162461bcd60e51b815260206004820152600c60248201526b15539055551213d49256915160a21b60448201526064016102b2565b600080547fffffffffffffffffffffffff0000000000000000000000000000000000000000166001600160a01b0383169081178255604051909133917f8be0079c531659141344cd1fd0a4f28419497f9722a3daafe3b4186f6b6457e09190a350565b60008315611083578360051b8501855b803580851160051b948552602094851852604060002093018181106110615750505b501492915050565b6000806000604084860312156110a057600080fd5b83359250602084013567ffffffffffffffff808211156110bf57600080fd5b818601915086601f8301126110d357600080fd5b8135818111156110e257600080fd5b8760208260051b85010111156110f757600080fd5b6020830194508093505050509250925092565b60006020828403121561111c57600080fd5b813567ffffffffffffffff81111561113357600080fd5b82016101a0818503121561114657600080fd5b9392505050565b60006020828403121561115f57600080fd5b813567ffffffffffffffff81111561117657600080fd5b82016080818503121561114657600080fd5b634e487b7160e01b600052604160045260246000fd5b6000602082840312156111b057600080fd5b813567ffffffffffffffff808211156111c857600080fd5b818401915084601f8301126111dc57600080fd5b8135818111156111ee576111ee611188565b604051601f8201601f19908116603f0116810190838211818310171561121657611216611188565b8160405282815287602084870101111561122f57600080fd5b826020860160208301376000928101602001929092525095945050505050565b6001600160a01b038116811461126457600080fd5b50565b60006020828403121561127957600080fd5b81356111468161124f565b634e487b7160e01b600052603260045260246000fd5b60008235603e198336030181126112b057600080fd5b9190910192915050565b6000808335601e198436030181126112d157600080fd5b83018035915067ffffffffffffffff8211156112ec57600080fd5b60200191503681900382131561130157600080fd5b9250929050565b81835281816020850137506000828201602090810191909152601f909101601f19169091010190565b6001600160a01b0384168152604060208201526000611354604083018486611308565b95945050505050565b67ffffffffffffffff8116811461126457600080fd5b60006020828403121561138557600080fd5b81516111468161135d565b6000600182016113b057634e487b7160e01b600052601160045260246000fd5b5060010190565b6000808335601e198436030181126113ce57600080fd5b83018035915067ffffffffffffffff8211156113e957600080fd5b6020019150600581901b360382131561130157600080fd5b8284823760609190911b6bffffffffffffffffffffffff19169101908152601401919050565b60006020828403121561143957600080fd5b81356111468161135d565b60006020828403121561145657600080fd5b8151801515811461114657600080fd5b8183823760009101908152919050565b60208152600061148a602083018486611308565b949350505050565b6000815180845260005b818110156114b85760208185018101518683018201520161149c565b506000602082860101526020601f19601f83011685010191505092915050565b6000815160c084526114ed60c0850182611492565b9050602083015184820360208601526115068282611492565b915050604083015184820360408601526115208282611492565b9150506001600160a01b03606084015116606085015267ffffffffffffffff608084015116608085015260a083015184820360a08601526113548282611492565b60208152600061114660208301846114d8565b60006020828403121561158657600080fd5b81516111468161124f565b6000808335601e198436030181126115a857600080fd5b83018035915067ffffffffffffffff8211156115c357600080fd5b6020019150600681901b360382131561130157600080fd5b84815260606020808301829052908201849052600090859060808401835b8781101561164357833561160c8161124f565b6001600160a01b031682528383013561ffff811680821461162c57600080fd5b8385015250604093840193909101906001016115f9565b508481036040860152855180825290820192508186019060005b818110156116795782518552938301939183019160010161165d565b50929998505050505050505050565b600060c0820160038a106116ac57634e487b7160e01b600052602160045260246000fd5b898352602067ffffffffffffffff808b1682860152808a16604086015280891660608601525060c0608085015281875180845260e086019150828901935060005b818110156117125784516001600160a01b0316835293830193918301916001016116ed565b505084810360a0860152611727818789611308565b9c9b505050505050505050505050565b6000823560de198336030181126112b057600080fd5b6000843561175a8161135d565b67ffffffffffffffff90811683526020860135906117778261135d565b908116602084015260408601359061178e8261135d565b90811660408401526060860135906117a58261135d565b16606083015260808501356117b98161124f565b6001600160a01b0316608083015260a08501356117d58161135d565b67ffffffffffffffff811660a08401525060e060c083015261135460e08301848661130856fea2646970667358221220594e2d9270348ab57dff39f0e5ad4169bc49191a316349327c7c500b9f116b2664736f6c63430008110033",
  "linkReferences": {},
  "deployedLinkReferences": {}
}