{
  "_format": "hh-sol-artifact-1",
  "contractName": "ControllerV1",
  "sourceName": "contracts/ControllerV1.sol",
  "abi": [
    {
      "inputs": [
        {
          "internalType": "contract INodeRegistry",
          "name": "_nodeRegistry",
          "type": "address"
        },
        {
          "internalType": "contract IAccountRegistry",
          "name": "_accountRegistry",
          "type": "address"
        },
        {
          "internalType": "contract CollectionFactory",
          "name": "_collectionFactory",
          "type": "address"
        },
        {
          "internalType": "contract MembershipsFactory",
          "name": "_membershipsFactory",
          "type": "address"
        },
        {
          "internalType": "address",
          "name": "_contractOwner",
          "type": "address"
        }
      ],
      "stateMutability": "nonpayable",
      "type": "constructor"
    },
    {
      "inputs": [],
      "name": "InvalidProof",
      "type": "error"
    },
    {
      "inputs": [],
      "name": "NotAuthorized",
      "type": "error"
    },
    {
      "inputs": [],
      "name": "SubdomainAlreadyReserved",
      "type": "error"
    },
    {
      "anonymous": false,
      "inputs": [
        {
          "indexed": false,
          "internalType": "bytes32",
          "name": "allowlistRoot",
          "type": "bytes32"
        }
      ],
      "name": "AllowlistRootUpdated",
      "type": "event"
    },
    {
      "anonymous": false,
      "inputs": [
        {
          "indexed": true,
          "internalType": "address",
          "name": "user",
          "type": "address"
        },
        {
          "indexed": true,
          "internalType": "address",
          "name": "newOwner",
          "type": "address"
        }
      ],
      "name": "OwnershipTransferred",
      "type": "event"
    },
    {
      "anonymous": false,
      "inputs": [
        {
          "indexed": true,
          "internalType": "uint64",
          "name": "metalabelNodeId",
          "type": "uint64"
        },
        {
          "indexed": false,
          "internalType": "string",
          "name": "subdomain",
          "type": "string"
        }
      ],
      "name": "SubdomainReserved",
      "type": "event"
    },
    {
      "inputs": [],
      "name": "accountRegistry",
      "outputs": [
        {
          "internalType": "contract IAccountRegistry",
          "name": "",
          "type": "address"
        }
      ],
      "stateMutability": "view",
      "type": "function"
    },
    {
      "inputs": [],
      "name": "allowlistRoot",
      "outputs": [
        {
          "internalType": "bytes32",
          "name": "",
          "type": "bytes32"
        }
      ],
      "stateMutability": "view",
      "type": "function"
    },
    {
      "inputs": [],
      "name": "collectionFactory",
      "outputs": [
        {
          "internalType": "contract CollectionFactory",
          "name": "",
          "type": "address"
        }
      ],
      "stateMutability": "view",
      "type": "function"
    },
    {
      "inputs": [],
      "name": "membershipsFactory",
      "outputs": [
        {
          "internalType": "contract MembershipsFactory",
          "name": "",
          "type": "address"
        }
      ],
      "stateMutability": "view",
      "type": "function"
    },
    {
      "inputs": [],
      "name": "nodeRegistry",
      "outputs": [
        {
          "internalType": "contract INodeRegistry",
          "name": "",
          "type": "address"
        }
      ],
      "stateMutability": "view",
      "type": "function"
    },
    {
      "inputs": [],
      "name": "owner",
      "outputs": [
        {
          "internalType": "address",
          "name": "",
          "type": "address"
        }
      ],
      "stateMutability": "view",
      "type": "function"
    },
    {
      "inputs": [
        {
          "components": [
            {
              "internalType": "uint64",
              "name": "metalabelNodeId",
              "type": "uint64"
            },
            {
              "internalType": "string",
              "name": "releaseMetadata",
              "type": "string"
            },
            {
              "internalType": "contract Collection",
              "name": "recordCollection",
              "type": "address"
            },
            {
              "components": [
                {
                  "components": [
                    {
                      "internalType": "uint64",
                      "name": "sealedBeforeTimestamp",
                      "type": "uint64"
                    },
                    {
                      "internalType": "uint64",
                      "name": "sealedAfterTimestamp",
                      "type": "uint64"
                    },
                    {
                      "internalType": "uint64",
                      "name": "maxSupply",
                      "type": "uint64"
                    },
                    {
                      "internalType": "uint64",
                      "name": "minted",
                      "type": "uint64"
                    },
                    {
                      "internalType": "contract IEngine",
                      "name": "engine",
                      "type": "address"
                    },
                    {
                      "internalType": "uint64",
                      "name": "dropNodeId",
                      "type": "uint64"
                    }
                  ],
                  "internalType": "struct SequenceData",
                  "name": "sequenceData",
                  "type": "tuple"
                },
                {
                  "internalType": "bytes",
                  "name": "engineData",
                  "type": "bytes"
                }
              ],
              "internalType": "struct SequenceConfig[]",
              "name": "sequences",
              "type": "tuple[]"
            }
          ],
          "internalType": "struct PublishReleaseConfig",
          "name": "config",
          "type": "tuple"
        }
      ],
      "name": "publishRelease",
      "outputs": [
        {
          "internalType": "uint64",
          "name": "releaseNodeId",
          "type": "uint64"
        }
      ],
      "stateMutability": "nonpayable",
      "type": "function"
    },
    {
      "inputs": [
        {
          "components": [
            {
              "internalType": "uint64",
              "name": "metalabelNodeId",
              "type": "uint64"
            },
            {
              "internalType": "string",
              "name": "subdomain",
              "type": "string"
            },
            {
              "internalType": "string",
              "name": "collectionName",
              "type": "string"
            },
            {
              "internalType": "string",
              "name": "collectionSymbol",
              "type": "string"
            },
            {
              "internalType": "string",
              "name": "collectionContractURI",
              "type": "string"
            },
            {
              "internalType": "string",
              "name": "collectionMetadata",
              "type": "string"
            },
            {
              "internalType": "string",
              "name": "membershipsName",
              "type": "string"
            },
            {
              "internalType": "string",
              "name": "membershipsSymbol",
              "type": "string"
            },
            {
              "internalType": "string",
              "name": "membershipsBaseURI",
              "type": "string"
            },
            {
              "internalType": "string",
              "name": "membershipsMetadata",
              "type": "string"
            },
            {
              "internalType": "bytes32",
              "name": "membershipsListRoot",
              "type": "bytes32"
            },
            {
              "components": [
                {
                  "internalType": "address",
                  "name": "to",
                  "type": "address"
                },
                {
                  "internalType": "uint16",
                  "name": "sequenceId",
                  "type": "uint16"
                }
              ],
              "internalType": "struct AdminMembershipMint[]",
              "name": "members",
              "type": "tuple[]"
            },
            {
              "internalType": "bytes32[]",
              "name": "proof",
              "type": "bytes32[]"
            }
          ],
          "internalType": "struct SetupMetalabelConfig",
          "name": "config",
          "type": "tuple"
        }
      ],
      "name": "setupMetalabel",
      "outputs": [
        {
          "internalType": "contract Collection",
          "name": "recordCollection",
          "type": "address"
        },
        {
          "internalType": "contract Memberships",
          "name": "memberships",
          "type": "address"
        }
      ],
      "stateMutability": "nonpayable",
      "type": "function"
    },
    {
      "inputs": [
        {
          "internalType": "string",
          "name": "",
          "type": "string"
        }
      ],
      "name": "subdomains",
      "outputs": [
        {
          "internalType": "uint64",
          "name": "",
          "type": "uint64"
        }
      ],
      "stateMutability": "view",
      "type": "function"
    },
    {
      "inputs": [
        {
          "internalType": "address",
          "name": "newOwner",
          "type": "address"
        }
      ],
      "name": "transferOwnership",
      "outputs": [],
      "stateMutability": "nonpayable",
      "type": "function"
    },
    {
      "inputs": [
        {
          "internalType": "bytes32",
          "name": "_allowlistRoot",
          "type": "bytes32"
        },
        {
          "components": [
            {
              "internalType": "address",
              "name": "subject",
              "type": "address"
            },
            {
              "internalType": "string",
              "name": "metadata",
              "type": "string"
            }
          ],
          "internalType": "struct IssueAccountConfig[]",
          "name": "accountsToIssue",
          "type": "tuple[]"
        }
      ],
      "name": "updateAllowlist",
      "outputs": [],
      "stateMutability": "nonpayable",
      "type": "function"
    }
  ],
  "bytecode": "0x6101006040523480156200001257600080fd5b5060405162001968380380620019688339810160408190526200003591620000bb565b600080546001600160a01b0319166001600160a01b03831690811782556040518392907f8be0079c531659141344cd1fd0a4f28419497f9722a3daafe3b4186f6b6457e0908290a350506001600160a01b0393841660805291831660a052821660c0521660e0526200013b565b6001600160a01b0381168114620000b857600080fd5b50565b600080600080600060a08688031215620000d457600080fd5b8551620000e181620000a2565b6020870151909550620000f481620000a2565b60408701519094506200010781620000a2565b60608701519093506200011a81620000a2565b60808701519092506200012d81620000a2565b809150509295509295909350565b60805160a05160c05160e0516117c3620001a56000396000818160d301526108670152600081816101b501526106840152600081816101dc0152610300015260008181610238015281816104a101528181610ae301528181610bab0152610c7c01526117c36000f3fe608060405234801561001057600080fd5b50600436106100c95760003560e01c8063ca34bb3211610081578063d08f4ec71161005b578063d08f4ec7146101fe578063d9b5c4a514610233578063f2fde38b1461025a57600080fd5b8063ca34bb3214610184578063cf25a2fd146101b0578063d089e11a146101d757600080fd5b80635f39f46f116100b25780635f39f46f146101275780638da5cb5b1461015a5780639c9c66691461016d57600080fd5b80632ba0fd07146100ce5780635adb14fb14610112575b600080fd5b6100f57f000000000000000000000000000000000000000000000000000000000000000081565b6040516001600160a01b0390911681526020015b60405180910390f35b610125610120366004610fb6565b61026d565b005b61013a610135366004611035565b61040b565b604080516001600160a01b03938416815292909116602083015201610109565b6000546100f5906001600160a01b031681565b61017660025481565b604051908152602001610109565b610197610192366004611078565b610ad7565b60405167ffffffffffffffff9091168152602001610109565b6100f57f000000000000000000000000000000000000000000000000000000000000000081565b6100f57f000000000000000000000000000000000000000000000000000000000000000081565b61019761020c3660046110c9565b805160208183018101805160018252928201919093012091525467ffffffffffffffff1681565b6100f57f000000000000000000000000000000000000000000000000000000000000000081565b610125610268366004611192565b610ed0565b6000546001600160a01b031633146102bb5760405162461bcd60e51b815260206004820152600c60248201526b15539055551213d49256915160a21b60448201526064015b60405180910390fd5b60028390556040518381527f3acc3a8ccad9989eb960fa656ab3fe7c50873af2f06d0e4eeddd7081890e7e5e9060200160405180910390a160005b81811015610405577f00000000000000000000000000000000000000000000000000000000000000006001600160a01b0316632659f39484848481811061033f5761033f6111af565b905060200281019061035191906111c5565b61035f906020810190611192565b858585818110610371576103716111af565b905060200281019061038391906111c5565b6103919060208101906111e5565b6040518463ffffffff1660e01b81526004016103af9392919061125c565b6020604051808303816000875af11580156103ce573d6000803e3d6000fd5b505050506040513d601f19601f820116820180604052508101906103f2919061129e565b50806103fd816112bb565b9150506102f6565b50505050565b6000808061045e6104206101808601866112e2565b60025461043060208901896111e5565b336040516020016104439392919061132c565b60405160208183030381529060405280519060200120610f7c565b905080610497576040517f09bde33900000000000000000000000000000000000000000000000000000000815260040160405180910390fd5b6001600160a01b037f000000000000000000000000000000000000000000000000000000000000000016634acbb4be6104d36020870187611352565b6040516001600160e01b031960e084901b16815267ffffffffffffffff9091166004820152336024820152604401602060405180830381865afa15801561051e573d6000803e3d6000fd5b505050506040513d601f19601f82011682018060405250810190610542919061136f565b61055f5760405163ea8e4eb560e01b815260040160405180910390fd5b600161056e60208601866111e5565b60405161057c929190611391565b9081526040519081900360200190205467ffffffffffffffff16156105cd576040517fde80955800000000000000000000000000000000000000000000000000000000815260040160405180910390fd5b6105da6020850185611352565b60016105e960208701876111e5565b6040516105f7929190611391565b90815260405160209181900382019020805467ffffffffffffffff191667ffffffffffffffff939093169290921790915561063490850185611352565b67ffffffffffffffff167fd168d2c258876bcf10da068836c0dcaa8d7d7a189326a19e8b73f2365128848a61066c60208701876111e5565b60405161067a9291906113a1565b60405180910390a27f00000000000000000000000000000000000000000000000000000000000000006001600160a01b031663e065b7d76040518060c001604052808780604001906106cc91906111e5565b8080601f01602080910402602001604051908101604052809392919081815260200183838082843760009201919091525050509082525060200161071360608901896111e5565b8080601f01602080910402602001604051908101604052809392919081815260200183838082843760009201919091525050509082525060200161075a60808901896111e5565b8080601f016020809104026020016040519081016040528093929190818152602001838380828437600092019190915250505090825250336020808301919091526040909101906107ad90890189611352565b67ffffffffffffffff1681526020016107c960a08901896111e5565b8080601f01602080910402602001604051908101604052809392919081815260200183838082843760009201919091525050509152506040516001600160e01b031960e084901b168152610820919060040161148c565b6020604051808303816000875af115801561083f573d6000803e3d6000fd5b505050506040513d601f19601f82011682018060405250810190610863919061149f565b92507f00000000000000000000000000000000000000000000000000000000000000006001600160a01b0316634fffb7d06040518060c00160405280878060c001906108af91906111e5565b8080601f0160208091040260200160405190810160405280939291908181526020018383808284376000920191909152505050908252506020016108f660e08901896111e5565b8080601f01602080910402602001604051908101604052809392919081815260200183838082843760009201919091525050509082525060200161093e6101008901896111e5565b8080601f0160208091040260200160405190810160405280939291908181526020018383808284376000920191909152505050908252503360208083019190915260409091019061099190890189611352565b67ffffffffffffffff1681526020016109ae6101208901896111e5565b8080601f01602080910402602001604051908101604052809392919081815260200183838082843760009201919091525050509152506040516001600160e01b031960e084901b168152610a05919060040161148c565b6020604051808303816000875af1158015610a24573d6000803e3d6000fd5b505050506040513d601f19601f82011682018060405250810190610a48919061149f565b91506001600160a01b03821663b2b66227610140860135610a6d6101608801886114bc565b604080516000815260208101918290526001600160e01b031960e087901b16909152610a9f9392919060248101611506565b600060405180830381600087803b158015610ab957600080fd5b505af1158015610acd573d6000803e3d6000fd5b5050505050915091565b60006001600160a01b037f000000000000000000000000000000000000000000000000000000000000000016634acbb4be610b156020850185611352565b6040516001600160e01b031960e084901b16815267ffffffffffffffff9091166004820152336024820152604401602060405180830381865afa158015610b60573d6000803e3d6000fd5b505050506040513d601f19601f82011682018060405250810190610b84919061136f565b610ba15760405163ea8e4eb560e01b815260040160405180910390fd5b6001600160a01b037f000000000000000000000000000000000000000000000000000000000000000016630fe2757760026000610be16020870187611352565b610bee6020880188611352565b6040805160008152602080820190925290610c0b908a018a6111e5565b6040518863ffffffff1660e01b8152600401610c2d97969594939291906115b3565b6020604051808303816000875af1158015610c4c573d6000803e3d6000fd5b505050506040513d601f19601f82011682018060405250810190610c70919061129e565b90506001600160a01b037f000000000000000000000000000000000000000000000000000000000000000016634acbb4be610cb16060850160408601611192565b6001600160a01b0316631616d2496040518163ffffffff1660e01b8152600401602060405180830381865afa158015610cee573d6000803e3d6000fd5b505050506040513d601f19601f82011682018060405250810190610d12919061129e565b6040516001600160e01b031960e084901b16815267ffffffffffffffff9091166004820152336024820152604401602060405180830381865afa158015610d5d573d6000803e3d6000fd5b505050506040513d601f19601f82011682018060405250810190610d81919061136f565b610d9e5760405163ea8e4eb560e01b815260040160405180910390fd5b60005b610dae60608401846112e2565b9050811015610eca576000610dc660608501856112e2565b83818110610dd657610dd66111af565b9050602002810190610de89190611662565b610df89036819003810190611678565b67ffffffffffffffff841660a08201529050610e1a6060850160408601611192565b6001600160a01b0316633a20ad3982610e3660608801886112e2565b86818110610e4657610e466111af565b9050602002810190610e589190611662565b610e669060c08101906111e5565b6040518463ffffffff1660e01b8152600401610e8493929190611723565b600060405180830381600087803b158015610e9e57600080fd5b505af1158015610eb2573d6000803e3d6000fd5b50505050508080610ec2906112bb565b915050610da1565b50919050565b6000546001600160a01b03163314610f195760405162461bcd60e51b815260206004820152600c60248201526b15539055551213d49256915160a21b60448201526064016102b2565b600080547fffffffffffffffffffffffff0000000000000000000000000000000000000000166001600160a01b0383169081178255604051909133917f8be0079c531659141344cd1fd0a4f28419497f9722a3daafe3b4186f6b6457e09190a350565b60008315610fae578360051b8501855b803580851160051b94855260209485185260406000209301818110610f8c5750505b501492915050565b600080600060408486031215610fcb57600080fd5b83359250602084013567ffffffffffffffff80821115610fea57600080fd5b818601915086601f830112610ffe57600080fd5b81358181111561100d57600080fd5b8760208260051b850101111561102257600080fd5b6020830194508093505050509250925092565b60006020828403121561104757600080fd5b813567ffffffffffffffff81111561105e57600080fd5b82016101a0818503121561107157600080fd5b9392505050565b60006020828403121561108a57600080fd5b813567ffffffffffffffff8111156110a157600080fd5b82016080818503121561107157600080fd5b634e487b7160e01b600052604160045260246000fd5b6000602082840312156110db57600080fd5b813567ffffffffffffffff808211156110f357600080fd5b818401915084601f83011261110757600080fd5b813581811115611119576111196110b3565b604051601f8201601f19908116603f01168101908382118183101715611141576111416110b3565b8160405282815287602084870101111561115a57600080fd5b826020860160208301376000928101602001929092525095945050505050565b6001600160a01b038116811461118f57600080fd5b50565b6000602082840312156111a457600080fd5b81356110718161117a565b634e487b7160e01b600052603260045260246000fd5b60008235603e198336030181126111db57600080fd5b9190910192915050565b6000808335601e198436030181126111fc57600080fd5b83018035915067ffffffffffffffff82111561121757600080fd5b60200191503681900382131561122c57600080fd5b9250929050565b81835281816020850137506000828201602090810191909152601f909101601f19169091010190565b6001600160a01b038416815260406020820152600061127f604083018486611233565b95945050505050565b67ffffffffffffffff8116811461118f57600080fd5b6000602082840312156112b057600080fd5b815161107181611288565b6000600182016112db57634e487b7160e01b600052601160045260246000fd5b5060010190565b6000808335601e198436030181126112f957600080fd5b83018035915067ffffffffffffffff82111561131457600080fd5b6020019150600581901b360382131561122c57600080fd5b8284823760609190911b6bffffffffffffffffffffffff19169101908152601401919050565b60006020828403121561136457600080fd5b813561107181611288565b60006020828403121561138157600080fd5b8151801515811461107157600080fd5b8183823760009101908152919050565b6020815260006113b5602083018486611233565b949350505050565b6000815180845260005b818110156113e3576020818501810151868301820152016113c7565b506000602082860101526020601f19601f83011685010191505092915050565b6000815160c0845261141860c08501826113bd565b90506020830151848203602086015261143182826113bd565b9150506040830151848203604086015261144b82826113bd565b9150506001600160a01b03606084015116606085015267ffffffffffffffff608084015116608085015260a083015184820360a086015261127f82826113bd565b6020815260006110716020830184611403565b6000602082840312156114b157600080fd5b81516110718161117a565b6000808335601e198436030181126114d357600080fd5b83018035915067ffffffffffffffff8211156114ee57600080fd5b6020019150600681901b360382131561122c57600080fd5b84815260606020808301829052908201849052600090859060808401835b8781101561156e5783356115378161117a565b6001600160a01b031682528383013561ffff811680821461155757600080fd5b838501525060409384019390910190600101611524565b508481036040860152855180825290820192508186019060005b818110156115a457825185529383019391830191600101611588565b50929998505050505050505050565b600060c0820160038a106115d757634e487b7160e01b600052602160045260246000fd5b898352602067ffffffffffffffff808b1682860152808a16604086015280891660608601525060c0608085015281875180845260e086019150828901935060005b8181101561163d5784516001600160a01b031683529383019391830191600101611618565b505084810360a0860152611652818789611233565b9c9b505050505050505050505050565b6000823560de198336030181126111db57600080fd5b600060c0828403121561168a57600080fd5b60405160c0810181811067ffffffffffffffff821117156116ad576116ad6110b3565b60405282356116bb81611288565b815260208301356116cb81611288565b602082015260408301356116de81611288565b604082015260608301356116f181611288565b606082015260808301356117048161117a565b608082015260a083013561171781611288565b60a08201529392505050565b600067ffffffffffffffff8086511683528060208701511660208401528060408701511660408401528060608701511660608401526001600160a01b0360808701511660808401528060a08701511660a08401525060e060c083015261127f60e08301848661123356fea2646970667358221220e6f133dda9f60c98c6113058820eb96a5d7a942161fde5c9dc335819c06fbe8464736f6c63430008110033",
  "linkReferences": {},
  "deployedLinkReferences": {}
}