{
  "_format": "hh-sol-artifact-1",
  "contractName": "Core",
  "sourceName": "contracts/Core.sol",
  "abi": [
    {
      "inputs": [],
      "stateMutability": "nonpayable",
      "type": "constructor"
    },
    {
      "inputs": [],
      "name": "NotAuthorized",
      "type": "error"
    },
    {
      "anonymous": false,
      "inputs": [
        {
          "indexed": false,
          "internalType": "address",
          "name": "adapter",
          "type": "address"
        },
        {
          "indexed": false,
          "internalType": "bool",
          "name": "isRegistered",
          "type": "bool"
        }
      ],
      "name": "AdapterRegistration",
      "type": "event"
    },
    {
      "anonymous": false,
      "inputs": [
        {
          "indexed": false,
          "internalType": "uint256",
          "name": "metalabelId",
          "type": "uint256"
        },
        {
          "indexed": false,
          "internalType": "address",
          "name": "admin",
          "type": "address"
        }
      ],
      "name": "MetalabelAdminUpdated",
      "type": "event"
    },
    {
      "anonymous": false,
      "inputs": [
        {
          "indexed": false,
          "internalType": "uint256",
          "name": "metalabelId",
          "type": "uint256"
        },
        {
          "indexed": false,
          "internalType": "address",
          "name": "admin",
          "type": "address"
        },
        {
          "indexed": false,
          "internalType": "string",
          "name": "metadataUri",
          "type": "string"
        }
      ],
      "name": "MetalabelCreated",
      "type": "event"
    },
    {
      "anonymous": false,
      "inputs": [
        {
          "indexed": false,
          "internalType": "uint256",
          "name": "metalabelId",
          "type": "uint256"
        },
        {
          "indexed": false,
          "internalType": "string",
          "name": "metadataUri",
          "type": "string"
        }
      ],
      "name": "MetalabelMetadataUpdated",
      "type": "event"
    },
    {
      "anonymous": false,
      "inputs": [
        {
          "indexed": true,
          "internalType": "address",
          "name": "user",
          "type": "address"
        },
        {
          "indexed": true,
          "internalType": "address",
          "name": "newOwner",
          "type": "address"
        }
      ],
      "name": "OwnerUpdated",
      "type": "event"
    },
    {
      "anonymous": false,
      "inputs": [
        {
          "indexed": false,
          "internalType": "uint256",
          "name": "metalabelId",
          "type": "uint256"
        },
        {
          "indexed": false,
          "internalType": "uint48",
          "name": "releaseId",
          "type": "uint48"
        },
        {
          "indexed": false,
          "internalType": "string",
          "name": "releaseUri",
          "type": "string"
        }
      ],
      "name": "ReleaseCreated",
      "type": "event"
    },
    {
      "anonymous": false,
      "inputs": [
        {
          "indexed": false,
          "internalType": "uint256",
          "name": "metalabelId",
          "type": "uint256"
        },
        {
          "indexed": false,
          "internalType": "uint48",
          "name": "releaseId",
          "type": "uint48"
        },
        {
          "indexed": false,
          "internalType": "string",
          "name": "releaseUri",
          "type": "string"
        }
      ],
      "name": "ReleaseMetadataUpdated",
      "type": "event"
    },
    {
      "inputs": [
        {
          "internalType": "address",
          "name": "admin",
          "type": "address"
        },
        {
          "internalType": "string",
          "name": "metadataUri",
          "type": "string"
        }
      ],
      "name": "createMetalabel",
      "outputs": [
        {
          "internalType": "uint256",
          "name": "metalabelId",
          "type": "uint256"
        }
      ],
      "stateMutability": "nonpayable",
      "type": "function"
    },
    {
      "inputs": [
        {
          "internalType": "uint256",
          "name": "metalabelId",
          "type": "uint256"
        },
        {
          "internalType": "string",
          "name": "releaseUri",
          "type": "string"
        }
      ],
      "name": "createRelease",
      "outputs": [
        {
          "internalType": "uint48",
          "name": "releaseId",
          "type": "uint48"
        }
      ],
      "stateMutability": "nonpayable",
      "type": "function"
    },
    {
      "inputs": [
        {
          "internalType": "address",
          "name": "",
          "type": "address"
        }
      ],
      "name": "isAdapter",
      "outputs": [
        {
          "internalType": "bool",
          "name": "",
          "type": "bool"
        }
      ],
      "stateMutability": "view",
      "type": "function"
    },
    {
      "inputs": [],
      "name": "metalabelCount",
      "outputs": [
        {
          "internalType": "uint256",
          "name": "",
          "type": "uint256"
        }
      ],
      "stateMutability": "view",
      "type": "function"
    },
    {
      "inputs": [
        {
          "internalType": "uint256",
          "name": "",
          "type": "uint256"
        }
      ],
      "name": "metalabels",
      "outputs": [
        {
          "internalType": "address",
          "name": "admin",
          "type": "address"
        }
      ],
      "stateMutability": "view",
      "type": "function"
    },
    {
      "inputs": [],
      "name": "owner",
      "outputs": [
        {
          "internalType": "address",
          "name": "",
          "type": "address"
        }
      ],
      "stateMutability": "view",
      "type": "function"
    },
    {
      "inputs": [
        {
          "internalType": "address",
          "name": "adapter",
          "type": "address"
        }
      ],
      "name": "registerAdapter",
      "outputs": [],
      "stateMutability": "nonpayable",
      "type": "function"
    },
    {
      "inputs": [],
      "name": "releaseCount",
      "outputs": [
        {
          "internalType": "uint48",
          "name": "",
          "type": "uint48"
        }
      ],
      "stateMutability": "view",
      "type": "function"
    },
    {
      "inputs": [
        {
          "internalType": "uint256",
          "name": "metalabelId",
          "type": "uint256"
        },
        {
          "internalType": "address",
          "name": "admin",
          "type": "address"
        }
      ],
      "name": "setMetalabelAdmin",
      "outputs": [],
      "stateMutability": "nonpayable",
      "type": "function"
    },
    {
      "inputs": [
        {
          "internalType": "uint256",
          "name": "metalabelId",
          "type": "uint256"
        },
        {
          "internalType": "string",
          "name": "metadataUri",
          "type": "string"
        }
      ],
      "name": "setMetalabelMetadataUri",
      "outputs": [],
      "stateMutability": "nonpayable",
      "type": "function"
    },
    {
      "inputs": [
        {
          "internalType": "address",
          "name": "newOwner",
          "type": "address"
        }
      ],
      "name": "setOwner",
      "outputs": [],
      "stateMutability": "nonpayable",
      "type": "function"
    },
    {
      "inputs": [
        {
          "internalType": "address",
          "name": "adapter",
          "type": "address"
        }
      ],
      "name": "unregisterAdapter",
      "outputs": [],
      "stateMutability": "nonpayable",
      "type": "function"
    }
  ],
  "bytecode": "0x608060405260006002556003805465ffffffffffff1916905534801561002457600080fd5b50600080546001600160a01b031916339081178255604051909182917f8292fce18fa69edf4db7b94ea2e58241df0ae57f97e0a6c9b29067028bf92d76908290a3506108a6806100756000396000f3fe608060405234801561001057600080fd5b50600436106100b45760003560e01c80638b418654116100715780638b4186541461018e5780638da5cb5b146101975780639e9a3717146101aa578063b8d08db2146101bd578063c6124145146101e6578063e348cf47146101f957600080fd5b806313af4035146100b957806322f2caf1146100ce5780635bbde9ae146100e1578063618295df1461012757806368c18beb1461013a5780638186caca1461016d575b600080fd5b6100cc6100c7366004610617565b61020c565b005b6100cc6100dc366004610617565b61028a565b61010a6100ef366004610639565b6004602052600090815260409020546001600160a01b031681565b6040516001600160a01b0390911681526020015b60405180910390f35b6100cc610135366004610617565b610311565b61015d610148366004610617565b60016020526000908152604090205460ff1681565b604051901515815260200161011e565b61018061017b36600461069b565b610392565b60405190815260200161011e565b61018060025481565b60005461010a906001600160a01b031681565b6100cc6101b83660046106ee565b610455565b6003546101cf9065ffffffffffff1681565b60405165ffffffffffff909116815260200161011e565b6100cc6101f436600461071a565b6104eb565b6101cf61020736600461071a565b61055b565b6000546001600160a01b0316331461023f5760405162461bcd60e51b81526004016102369061074d565b60405180910390fd5b600080546001600160a01b0319166001600160a01b0383169081178255604051909133917f8292fce18fa69edf4db7b94ea2e58241df0ae57f97e0a6c9b29067028bf92d769190a350565b6000546001600160a01b031633146102b45760405162461bcd60e51b81526004016102369061074d565b6001600160a01b038116600081815260016020818152604092839020805460ff19168317905582519384528301527f7fbd890c57e4e2e48b0bf16ac8fc663ae6d75e7da71a3ac8e6038631c06f32d791015b60405180910390a150565b6000546001600160a01b0316331461033b5760405162461bcd60e51b81526004016102369061074d565b6001600160a01b0381166000818152600160209081526040808320805460ff191690558051938452908301919091527f7fbd890c57e4e2e48b0bf16ac8fc663ae6d75e7da71a3ac8e6038631c06f32d79101610306565b3360009081526001602052604081205460ff166103c25760405163ea8e4eb560e01b815260040160405180910390fd5b6002600081546103d190610789565b918290555060408051602080820183526001600160a01b0388811683526000858152600490925290839020915182546001600160a01b0319169116179055519091507ff5468b28827e8d0cc85089edd0d0a86e17de1525952dcd8175181e6cdc3e4c99906104469083908790879087906107cb565b60405180910390a19392505050565b3360009081526001602052604090205460ff166104855760405163ea8e4eb560e01b815260040160405180910390fd5b60008281526004602090815260409182902080546001600160a01b0319166001600160a01b0385169081179091558251858152918201527f79a937b5e7f85a17e48ce910177ee8ccbeacda4ae53b840b6defba9898474252910160405180910390a15050565b3360009081526001602052604090205460ff1661051b5760405163ea8e4eb560e01b815260040160405180910390fd5b7fe55fa5c5ec76313e5d6165f954b684ac4188a3471b751051db308f475f32f3ef83838360405161054e93929190610800565b60405180910390a1505050565b3360009081526001602052604081205460ff1661058b5760405163ea8e4eb560e01b815260040160405180910390fd5b600380546000906105a39065ffffffffffff16610823565b91906101000a81548165ffffffffffff021916908365ffffffffffff160217905590507f767c475c07e4e41ebb2490b54059c23060a1b1804c1d09aab29619c2d392c0c6848285856040516104469493929190610848565b80356001600160a01b038116811461061257600080fd5b919050565b60006020828403121561062957600080fd5b610632826105fb565b9392505050565b60006020828403121561064b57600080fd5b5035919050565b60008083601f84011261066457600080fd5b50813567ffffffffffffffff81111561067c57600080fd5b60208301915083602082850101111561069457600080fd5b9250929050565b6000806000604084860312156106b057600080fd5b6106b9846105fb565b9250602084013567ffffffffffffffff8111156106d557600080fd5b6106e186828701610652565b9497909650939450505050565b6000806040838503121561070157600080fd5b82359150610711602084016105fb565b90509250929050565b60008060006040848603121561072f57600080fd5b83359250602084013567ffffffffffffffff8111156106d557600080fd5b6020808252600c908201526b15539055551213d49256915160a21b604082015260600190565b634e487b7160e01b600052601160045260246000fd5b60006001820161079b5761079b610773565b5060010190565b81835281816020850137506000828201602090810191909152601f909101601f19169091010190565b8481526001600160a01b03841660208201526060604082018190526000906107f690830184866107a2565b9695505050505050565b83815260406020820152600061081a6040830184866107a2565b95945050505050565b600065ffffffffffff80831681810361083e5761083e610773565b6001019392505050565b84815265ffffffffffff841660208201526060604082015260006107f66060830184866107a256fea26469706673582212204308922a1217b7e884f6c51e00f34218d92d002808688b59098fcb541242c83464736f6c634300080d0033",
  "linkReferences": {},
  "deployedLinkReferences": {}
}