{
  "_format": "hh-sol-artifact-1",
  "contractName": "DropEngineV2",
  "sourceName": "contracts/engines/DropEngineV2.sol",
  "abi": [
    {
      "inputs": [
        {
          "internalType": "address",
          "name": "_contractOwner",
          "type": "address"
        },
        {
          "internalType": "contract INodeRegistry",
          "name": "_nodeRegistry",
          "type": "address"
        }
      ],
      "stateMutability": "nonpayable",
      "type": "constructor"
    },
    {
      "inputs": [],
      "name": "CouldNotTransferEth",
      "type": "error"
    },
    {
      "inputs": [],
      "name": "IncorrectPaymentAmount",
      "type": "error"
    },
    {
      "inputs": [],
      "name": "InvalidMintAmount",
      "type": "error"
    },
    {
      "inputs": [],
      "name": "InvalidPriceOrRecipient",
      "type": "error"
    },
    {
      "inputs": [],
      "name": "InvalidPrimarySaleFee",
      "type": "error"
    },
    {
      "inputs": [],
      "name": "InvalidRoyaltyBps",
      "type": "error"
    },
    {
      "inputs": [],
      "name": "MinterMustBeEOA",
      "type": "error"
    },
    {
      "anonymous": false,
      "inputs": [
        {
          "indexed": false,
          "internalType": "address",
          "name": "collection",
          "type": "address"
        },
        {
          "indexed": false,
          "internalType": "uint16",
          "name": "sequenceId",
          "type": "uint16"
        },
        {
          "components": [
            {
              "internalType": "uint32",
              "name": "priceUnits",
              "type": "uint32"
            },
            {
              "internalType": "uint16",
              "name": "royaltyBps",
              "type": "uint16"
            },
            {
              "internalType": "bool",
              "name": "allowContractMints",
              "type": "bool"
            },
            {
              "internalType": "bool",
              "name": "randomizeMetadataVariations",
              "type": "bool"
            },
            {
              "internalType": "uint8",
              "name": "maxRecordsPerTransaction",
              "type": "uint8"
            },
            {
              "internalType": "address",
              "name": "revenueRecipient",
              "type": "address"
            },
            {
              "internalType": "uint16",
              "name": "primarySaleFeeBps",
              "type": "uint16"
            }
          ],
          "indexed": false,
          "internalType": "struct DropData",
          "name": "dropData",
          "type": "tuple"
        }
      ],
      "name": "DropCreated",
      "type": "event"
    },
    {
      "anonymous": false,
      "inputs": [
        {
          "indexed": true,
          "internalType": "address",
          "name": "user",
          "type": "address"
        },
        {
          "indexed": true,
          "internalType": "address",
          "name": "newOwner",
          "type": "address"
        }
      ],
      "name": "OwnershipTransferred",
      "type": "event"
    },
    {
      "anonymous": false,
      "inputs": [
        {
          "indexed": false,
          "internalType": "uint16",
          "name": "primarySaleFeeBps",
          "type": "uint16"
        }
      ],
      "name": "PrimarySaleFeeSet",
      "type": "event"
    },
    {
      "inputs": [
        {
          "internalType": "address",
          "name": "",
          "type": "address"
        },
        {
          "internalType": "uint16",
          "name": "",
          "type": "uint16"
        }
      ],
      "name": "baseTokenURIs",
      "outputs": [
        {
          "internalType": "string",
          "name": "",
          "type": "string"
        }
      ],
      "stateMutability": "view",
      "type": "function"
    },
    {
      "inputs": [
        {
          "internalType": "uint16",
          "name": "sequenceId",
          "type": "uint16"
        },
        {
          "components": [
            {
              "internalType": "uint64",
              "name": "sealedBeforeTimestamp",
              "type": "uint64"
            },
            {
              "internalType": "uint64",
              "name": "sealedAfterTimestamp",
              "type": "uint64"
            },
            {
              "internalType": "uint64",
              "name": "maxSupply",
              "type": "uint64"
            },
            {
              "internalType": "uint64",
              "name": "minted",
              "type": "uint64"
            },
            {
              "internalType": "contract IEngine",
              "name": "engine",
              "type": "address"
            },
            {
              "internalType": "uint64",
              "name": "dropNodeId",
              "type": "uint64"
            }
          ],
          "internalType": "struct SequenceData",
          "name": "",
          "type": "tuple"
        },
        {
          "internalType": "bytes",
          "name": "engineData",
          "type": "bytes"
        }
      ],
      "name": "configureSequence",
      "outputs": [],
      "stateMutability": "nonpayable",
      "type": "function"
    },
    {
      "inputs": [
        {
          "internalType": "address",
          "name": "",
          "type": "address"
        },
        {
          "internalType": "uint16",
          "name": "",
          "type": "uint16"
        }
      ],
      "name": "drops",
      "outputs": [
        {
          "internalType": "uint32",
          "name": "priceUnits",
          "type": "uint32"
        },
        {
          "internalType": "uint16",
          "name": "royaltyBps",
          "type": "uint16"
        },
        {
          "internalType": "bool",
          "name": "allowContractMints",
          "type": "bool"
        },
        {
          "internalType": "bool",
          "name": "randomizeMetadataVariations",
          "type": "bool"
        },
        {
          "internalType": "uint8",
          "name": "maxRecordsPerTransaction",
          "type": "uint8"
        },
        {
          "internalType": "address",
          "name": "revenueRecipient",
          "type": "address"
        },
        {
          "internalType": "uint16",
          "name": "primarySaleFeeBps",
          "type": "uint16"
        }
      ],
      "stateMutability": "view",
      "type": "function"
    },
    {
      "inputs": [
        {
          "internalType": "address",
          "name": "collection",
          "type": "address"
        },
        {
          "internalType": "uint256",
          "name": "tokenId",
          "type": "uint256"
        },
        {
          "internalType": "uint256",
          "name": "salePrice",
          "type": "uint256"
        }
      ],
      "name": "getRoyaltyInfo",
      "outputs": [
        {
          "internalType": "address",
          "name": "",
          "type": "address"
        },
        {
          "internalType": "uint256",
          "name": "",
          "type": "uint256"
        }
      ],
      "stateMutability": "view",
      "type": "function"
    },
    {
      "inputs": [
        {
          "internalType": "address",
          "name": "collection",
          "type": "address"
        },
        {
          "internalType": "uint256",
          "name": "tokenId",
          "type": "uint256"
        }
      ],
      "name": "getStoredMetadataVariation",
      "outputs": [
        {
          "components": [
            {
              "internalType": "string",
              "name": "name",
              "type": "string"
            },
            {
              "internalType": "string",
              "name": "description",
              "type": "string"
            },
            {
              "internalType": "string",
              "name": "image",
              "type": "string"
            },
            {
              "internalType": "string",
              "name": "external_url",
              "type": "string"
            },
            {
              "internalType": "string",
              "name": "metalabel_record_variation_name",
              "type": "string"
            },
            {
              "internalType": "string",
              "name": "metalabel_release_metadata_uri",
              "type": "string"
            },
            {
              "internalType": "uint16[]",
              "name": "metalabel_record_contents",
              "type": "uint16[]"
            },
            {
              "components": [
                {
                  "internalType": "string",
                  "name": "trait_type",
                  "type": "string"
                },
                {
                  "internalType": "string",
                  "name": "value",
                  "type": "string"
                }
              ],
              "internalType": "struct NFTMetadataAttribute[]",
              "name": "attributes",
              "type": "tuple[]"
            }
          ],
          "internalType": "struct NFTMetadata",
          "name": "metadata",
          "type": "tuple"
        }
      ],
      "stateMutability": "view",
      "type": "function"
    },
    {
      "inputs": [
        {
          "internalType": "address",
          "name": "collection",
          "type": "address"
        },
        {
          "internalType": "uint256",
          "name": "tokenId",
          "type": "uint256"
        }
      ],
      "name": "getTokenURI",
      "outputs": [
        {
          "internalType": "string",
          "name": "tokenURI",
          "type": "string"
        }
      ],
      "stateMutability": "view",
      "type": "function"
    },
    {
      "inputs": [
        {
          "internalType": "address",
          "name": "",
          "type": "address"
        },
        {
          "internalType": "uint16",
          "name": "",
          "type": "uint16"
        }
      ],
      "name": "metadataStoragePointers",
      "outputs": [
        {
          "internalType": "address",
          "name": "",
          "type": "address"
        }
      ],
      "stateMutability": "view",
      "type": "function"
    },
    {
      "inputs": [
        {
          "internalType": "contract ICollection",
          "name": "collection",
          "type": "address"
        },
        {
          "internalType": "uint16",
          "name": "sequenceId",
          "type": "uint16"
        },
        {
          "internalType": "uint8",
          "name": "count",
          "type": "uint8"
        }
      ],
      "name": "mint",
      "outputs": [
        {
          "internalType": "uint256",
          "name": "tokenId",
          "type": "uint256"
        }
      ],
      "stateMutability": "payable",
      "type": "function"
    },
    {
      "inputs": [
        {
          "internalType": "address",
          "name": "",
          "type": "address"
        },
        {
          "internalType": "uint16",
          "name": "",
          "type": "uint16"
        }
      ],
      "name": "mintAuthorities",
      "outputs": [
        {
          "internalType": "address",
          "name": "",
          "type": "address"
        }
      ],
      "stateMutability": "view",
      "type": "function"
    },
    {
      "inputs": [],
      "name": "nodeRegistry",
      "outputs": [
        {
          "internalType": "contract INodeRegistry",
          "name": "",
          "type": "address"
        }
      ],
      "stateMutability": "view",
      "type": "function"
    },
    {
      "inputs": [],
      "name": "owner",
      "outputs": [
        {
          "internalType": "address",
          "name": "",
          "type": "address"
        }
      ],
      "stateMutability": "view",
      "type": "function"
    },
    {
      "inputs": [],
      "name": "primarySaleFeeBps",
      "outputs": [
        {
          "internalType": "uint16",
          "name": "",
          "type": "uint16"
        }
      ],
      "stateMutability": "view",
      "type": "function"
    },
    {
      "inputs": [
        {
          "internalType": "uint16",
          "name": "fee",
          "type": "uint16"
        }
      ],
      "name": "setPrimarySaleFeeBps",
      "outputs": [],
      "stateMutability": "nonpayable",
      "type": "function"
    },
    {
      "inputs": [
        {
          "internalType": "address",
          "name": "newOwner",
          "type": "address"
        }
      ],
      "name": "transferOwnership",
      "outputs": [],
      "stateMutability": "nonpayable",
      "type": "function"
    },
    {
      "inputs": [],
      "name": "withdrawFees",
      "outputs": [],
      "stateMutability": "nonpayable",
      "type": "function"
    }
  ],
  "bytecode": "0x60a06040523480156200001157600080fd5b506040516200322d3803806200322d8339810160408190526200003491620000a9565b600080546001600160a01b0319166001600160a01b03841690811782556040518492907f8be0079c531659141344cd1fd0a4f28419497f9722a3daafe3b4186f6b6457e0908290a3506001600160a01b031660805250620000e8565b6001600160a01b0381168114620000a657600080fd5b50565b60008060408385031215620000bd57600080fd5b8251620000ca8162000090565b6020840151909250620000dd8162000090565b809150509250929050565b6080516131226200010b600039600081816102bf01526108cc01526131226000f3fe6080604052600436106100e85760003560e01c80638da5cb5b1161008a578063f11c801c11610059578063f11c801c146102e1578063f2c565db14610302578063f2fde38b14610343578063f746f01f1461036357600080fd5b80638da5cb5b1461024d5780639b46c29f1461026d578063cfd88a361461028d578063d9b5c4a5146102ad57600080fd5b806322a5c8d0116100c657806322a5c8d0146101aa57806336de9742146101cc578063476343ee1461020b57806378559c101461022057600080fd5b80630b63fd62146100ed5780630c8caf9a14610123578063161822931461017c575b600080fd5b3480156100f957600080fd5b5061010d610108366004611a77565b61044d565b60405161011a9190611af3565b60405180910390f35b34801561012f57600080fd5b5061016461013e366004611b28565b60046020908152600092835260408084209091529082529020546001600160a01b031681565b6040516001600160a01b03909116815260200161011a565b34801561018857600080fd5b506005546101979061ffff1681565b60405161ffff909116815260200161011a565b3480156101b657600080fd5b506101ca6101c5366004611b61565b610965565b005b3480156101d857600080fd5b506101ec6101e7366004611bfe565b610c06565b604080516001600160a01b03909316835260208301919091520161011a565b34801561021757600080fd5b506101ca610d59565b34801561022c57600080fd5b5061024061023b366004611a77565b610dd0565b60405161011a9190611dc2565b34801561025957600080fd5b50600054610164906001600160a01b031681565b34801561027957600080fd5b5061010d610288366004611b28565b611044565b34801561029957600080fd5b506101ca6102a8366004611dd5565b6110e9565b3480156102b957600080fd5b506101647f000000000000000000000000000000000000000000000000000000000000000081565b6102f46102ef366004611e03565b6111c1565b60405190815260200161011a565b34801561030e57600080fd5b5061016461031d366004611b28565b60036020908152600092835260408084209091529082529020546001600160a01b031681565b34801561034f57600080fd5b506101ca61035e366004611e4a565b611497565b34801561036f57600080fd5b506103fe61037e366004611b28565b600160209081526000928352604080842090915290825290205463ffffffff81169061ffff640100000000820481169160ff660100000000000082048116926701000000000000008304821692680100000000000000008104909216916001600160a01b03690100000000000000000082041691600160e81b9091041687565b6040805163ffffffff909816885261ffff968716602089015294151594870194909452911515606086015260ff1660808501526001600160a01b031660a08401521660c082015260e00161011a565b6040516305b5acb960e31b8152600481018290526060906000906001600160a01b03851690632dad65c890602401602060405180830381865afa158015610498573d6000803e3d6000fd5b505050506040513d601f19601f820116820180604052508101906104bc9190611e67565b604051633aa9eee560e21b8152600481018590529091506000906001600160a01b0386169063eaa7bb9490602401602060405180830381865afa158015610507573d6000803e3d6000fd5b505050506040513d601f19601f8201168201806040525081019061052b9190611e84565b6040517fef65403c00000000000000000000000000000000000000000000000000000000815261ffff841660048201529091506000906001600160a01b0387169063ef65403c9060240160c060405180830381865afa158015610592573d6000803e3d6000fd5b505050506040513d601f19601f820116820180604052508101906105b69190611f7f565b905060006105c48787610dd0565b90506000826040015167ffffffffffffffff1660001461062f576105f38469ffffffffffffffffffff16611538565b61060a846040015167ffffffffffffffff16611538565b60405160200161061b92919061203c565b604051602081830303815290604052610644565b6106448469ffffffffffffffffffff16611538565b9050600081836080015160008560e001515111610670576040518060200160405280600081525061068c565b60405180604001604052806002815260200161016160f51b8152505b60405160200161069e93929190612094565b604051602081830303815290604052905060005b8360e00151518110156107745781600082116106dd57604051806020016040528060008152506106f9565b60405180604001604052806002815260200161016160f51b8152505b8560e00151838151811061070f5761070f612185565b6020026020010151600001518660e00151848151811061073157610731612185565b602002602001015160200151604051602001610750949392919061219b565b6040516020818303038152906040529150808061076c9061226b565b9150506106b2565b5060408051808201909152600181527f5b00000000000000000000000000000000000000000000000000000000000000602082015260005b8460c001515181101561088957816107e48660c0015183815181106107d3576107d3612185565b602002602001015161ffff16611538565b60018760c00151516107f69190612284565b831461081c5760405180604001604052806002815260200161016160f51b815250610853565b6040518060400160405280600181526020017f5d000000000000000000000000000000000000000000000000000000000000008152505b60405160200161086593929190612297565b604051602081830303815290604052915080806108819061226b565b9150506107ac565b5060008460000151848660200151876040015188606001516040516020016108b59594939291906122da565b6040516020818303038152906040529050806108fb7f00000000000000000000000000000000000000000000000000000000000000006001600160a01b03166014611641565b86608001518760a00151858760405160200161091c96959493929190612448565b60405160208183030381529060405290506109368161180f565b60405160200161094691906125e6565b6040516020818303038152906040529850505050505050505092915050565b600080610974838501856129fe565b60a082015182519294509092506001600160a01b03161563ffffffff90911615146109cb576040517ff1c970d100000000000000000000000000000000000000000000000000000000815260040160405180910390fd5b612710826020015161ffff161115610a0f576040517f2568952000000000000000000000000000000000000000000000000000000000815260040160405180910390fd5b60055461ffff1660c0830152604051610a4490610a30908390602001612ad8565b604051602081830303815290604052611962565b33600081815260046020908152604080832061ffff808d1680865291845282852080546001600160a01b0398891673ffffffffffffffffffffffffffffffffffffffff19909116179055858552600184528285209185529083529281902087518154938901518984015160608b015160808c015160a08d015160c08e01518a16600160e81b027fff0000ffffffffffffffffffffffffffffffffffffffffffffffffffffffffff91909c166901000000000000000000027fffffff0000000000000000000000000000000000000000ffffffffffffffffff60ff939093166801000000000000000002929092167fffffff000000000000000000000000000000000000000000ffffffffffffffff9315156701000000000000000267ff00000000000000199515156601000000000000029590951667ffff0000000000001996909b166401000000000265ffffffffffff19909a1663ffffffff90971696909617989098179390931697909717179590951617939093179190911693909317905590517f6ac37324bcfd449d115fe77290fdb08c01ea3fc05d6798f18020bcea84245cfd91610bf69189908690612b3a565b60405180910390a1505050505050565b6000806000856001600160a01b0316632dad65c8866040518263ffffffff1660e01b8152600401610c3991815260200190565b602060405180830381865afa158015610c56573d6000803e3d6000fd5b505050506040513d601f19601f82011682018060405250810190610c7a9190611e67565b6001600160a01b03808816600090815260016020908152604080832061ffff808716855290835292819020815160e081018352905463ffffffff811682526401000000008104851693820184905260ff660100000000000082048116151593830193909352670100000000000000810483161515606083015268010000000000000000810490921660808201526901000000000000000000820490941660a08501819052600160e81b90910490921660c0840152929350909161271090610d419088612bcd565b610d4b9190612bfa565b935093505050935093915050565b600080546040516001600160a01b039091169047908381818185875af1925050503d8060008114610da6576040519150601f19603f3d011682016040523d82523d6000602084013e610dab565b606091505b5050905080610dcd57604051634917cec360e11b815260040160405180910390fd5b50565b610e1860405180610100016040528060608152602001606081526020016060815260200160608152602001606081526020016060815260200160608152602001606081525090565b6040516305b5acb960e31b8152600481018390526000906001600160a01b03851690632dad65c890602401602060405180830381865afa158015610e60573d6000803e3d6000fd5b505050506040513d601f19601f82011682018060405250810190610e849190611e67565b604051633aa9eee560e21b8152600481018590529091506000906001600160a01b0386169063eaa7bb9490602401602060405180830381865afa158015610ecf573d6000803e3d6000fd5b505050506040513d601f19601f82011682018060405250810190610ef39190611e84565b6001600160a01b03808716600090815260046020908152604080832061ffff8816845290915281205492935091610f2a9116611a13565b806020019051810190610f3d9190612d96565b905060008151600184610f509190612f86565b69ffffffffffffffffffff16610f669190612fb0565b6001600160a01b038816600090815260016020908152604080832061ffff89168452909152902054909150670100000000000000900460ff161561101e5781516040516bffffffffffffffffffffffff1960608a901b1660208201527fffffffffffffffffffff0000000000000000000000000000000000000000000060b086901b166034820152603e8101889052605e016040516020818303038152906040528051906020012060001c61101b9190612fb0565b90505b81818151811061103057611030612185565b602002602001015194505050505092915050565b60026020908152600092835260408084209091529082529020805461106890612fc4565b80601f016020809104026020016040519081016040528092919081815260200182805461109490612fc4565b80156110e15780601f106110b6576101008083540402835291602001916110e1565b820191906000526020600020905b8154815290600101906020018083116110c457829003601f168201915b505050505081565b6000546001600160a01b031633146111375760405162461bcd60e51b815260206004820152600c60248201526b15539055551213d49256915160a21b60448201526064015b60405180910390fd5b6127108161ffff161115611177576040517f62ce3dcd00000000000000000000000000000000000000000000000000000000815260040160405180910390fd5b6005805461ffff191661ffff83169081179091556040519081527fc26f8db1267f65723040652d335ca099d7f37fb82ee03cb67ee19bc815b5fd959060200160405180910390a150565b6001600160a01b038316600090815260016020908152604080832061ffff86168452909152812080546601000000000000900460ff161580156112045750333214155b1561123b576040517ff000bcf600000000000000000000000000000000000000000000000000000000815260040160405180910390fd5b805468010000000000000000900460ff161580159061126d5750805460ff680100000000000000009091048116908416115b156112a4576040517fccfad01800000000000000000000000000000000000000000000000000000000815260040160405180910390fd5b805460ff8416906112c290655af3107a40009063ffffffff16612bcd565b6112cc9190612bcd565b3414611304576040517f6992e1ff00000000000000000000000000000000000000000000000000000000815260040160405180910390fd5b80546000906127109061132290600160e81b900461ffff1634612bcd565b61132c9190612bfa565b6113369034612284565b905060005b8460ff168110156113fe576040517f6342747b00000000000000000000000000000000000000000000000000000000815233600482015261ffff871660248201526000906001600160a01b03891690636342747b906044016020604051808303816000875af11580156113b2573d6000803e3d6000fd5b505050506040513d601f19601f820116820180604052508101906113d69190612ffe565b9050846000036113e657806113e8565b845b94505080806113f69061226b565b91505061133b565b50815463ffffffff161561148e578154604051600091690100000000000000000090046001600160a01b03169083908381818185875af1925050503d8060008114611465576040519150601f19603f3d011682016040523d82523d6000602084013e61146a565b606091505b505090508061148c57604051634917cec360e11b815260040160405180910390fd5b505b50509392505050565b6000546001600160a01b031633146114e05760405162461bcd60e51b815260206004820152600c60248201526b15539055551213d49256915160a21b604482015260640161112e565b6000805473ffffffffffffffffffffffffffffffffffffffff19166001600160a01b0383169081178255604051909133917f8be0079c531659141344cd1fd0a4f28419497f9722a3daafe3b4186f6b6457e09190a350565b60608160000361155f5750506040805180820190915260018152600360fc1b602082015290565b8160005b811561158957806115738161226b565b91506115829050600a83612bfa565b9150611563565b60008167ffffffffffffffff8111156115a4576115a4611eb0565b6040519080825280601f01601f1916602001820160405280156115ce576020820181803683370190505b5090505b8415611639576115e3600183612284565b91506115f0600a86612fb0565b6115fb906030613017565b60f81b81838151811061161057611610612185565b60200101906001600160f81b031916908160001a905350611632600a86612bfa565b94506115d2565b949350505050565b60606000611650836002612bcd565b61165b906002613017565b67ffffffffffffffff81111561167357611673611eb0565b6040519080825280601f01601f19166020018201604052801561169d576020820181803683370190505b509050600360fc1b816000815181106116b8576116b8612185565b60200101906001600160f81b031916908160001a9053507f78000000000000000000000000000000000000000000000000000000000000008160018151811061170357611703612185565b60200101906001600160f81b031916908160001a9053506000611727846002612bcd565b611732906001613017565b90505b60018111156117b7577f303132333435363738396162636465660000000000000000000000000000000085600f166010811061177357611773612185565b1a60f81b82828151811061178957611789612185565b60200101906001600160f81b031916908160001a90535060049490941c936117b08161302a565b9050611735565b5083156118065760405162461bcd60e51b815260206004820181905260248201527f537472696e67733a20686578206c656e67746820696e73756666696369656e74604482015260640161112e565b90505b92915050565b6060815160000361182e57505060408051602081019091526000815290565b60006040518060600160405280604081526020016130ad604091399050600060038451600261185d9190613017565b6118679190612bfa565b611872906004612bcd565b67ffffffffffffffff81111561188a5761188a611eb0565b6040519080825280601f01601f1916602001820160405280156118b4576020820181803683370190505b509050600182016020820185865187015b80821015611920576003820191508151603f8160121c168501518453600184019350603f81600c1c168501518453600184019350603f8160061c168501518453600184019350603f81168501518453506001830192506118c5565b505060038651066001811461193c576002811461194f57611957565b603d6001830353603d6002830353611957565b603d60018303535b509195945050505050565b600080826040516020016119769190613041565b604051602081830303815290604052905060008160405160200161199a9190613067565b60405160208183030381529060405290508051602082016000f092506001600160a01b038316611a0c5760405162461bcd60e51b815260206004820152601160248201527f4445504c4f594d454e545f4641494c4544000000000000000000000000000000604482015260640161112e565b5050919050565b6060611809826001611a2f816001600160a01b0384163b612284565b60408051603f8301601f19168101909152818152818360208301863c9392505050565b6001600160a01b0381168114610dcd57600080fd5b8035611a7281611a52565b919050565b60008060408385031215611a8a57600080fd5b8235611a9581611a52565b946020939093013593505050565b60005b83811015611abe578181015183820152602001611aa6565b50506000910152565b60008151808452611adf816020860160208601611aa3565b601f01601f19169290920160200192915050565b602081526000611b066020830184611ac7565b9392505050565b61ffff81168114610dcd57600080fd5b8035611a7281611b0d565b60008060408385031215611b3b57600080fd5b8235611b4681611a52565b91506020830135611b5681611b0d565b809150509250929050565b600080600080848603610100811215611b7957600080fd5b8535611b8481611b0d565b945060c0601f1982011215611b9857600080fd5b5060208501925060e085013567ffffffffffffffff80821115611bba57600080fd5b818701915087601f830112611bce57600080fd5b813581811115611bdd57600080fd5b886020828501011115611bef57600080fd5b95989497505060200194505050565b600080600060608486031215611c1357600080fd5b8335611c1e81611a52565b95602085013595506040909401359392505050565b600081518084526020808501945080840160005b83811015611c6757815161ffff1687529582019590820190600101611c47565b509495945050505050565b600081518084526020808501808196508360051b8101915082860160005b85811015611ce0578284038952815160408151818752611cb282880182611ac7565b91505086820151915085810387870152611ccc8183611ac7565b9a87019a9550505090840190600101611c90565b5091979650505050505050565b60006101008251818552611d0382860182611ac7565b91505060208301518482036020860152611d1d8282611ac7565b91505060408301518482036040860152611d378282611ac7565b91505060608301518482036060860152611d518282611ac7565b91505060808301518482036080860152611d6b8282611ac7565b91505060a083015184820360a0860152611d858282611ac7565b91505060c083015184820360c0860152611d9f8282611c33565b91505060e083015184820360e0860152611db98282611c72565b95945050505050565b602081526000611b066020830184611ced565b600060208284031215611de757600080fd5b813561180681611b0d565b803560ff81168114611a7257600080fd5b600080600060608486031215611e1857600080fd5b8335611e2381611a52565b92506020840135611e3381611b0d565b9150611e4160408501611df2565b90509250925092565b600060208284031215611e5c57600080fd5b813561180681611a52565b600060208284031215611e7957600080fd5b815161180681611b0d565b600060208284031215611e9657600080fd5b815169ffffffffffffffffffff8116811461180657600080fd5b634e487b7160e01b600052604160045260246000fd5b6040805190810167ffffffffffffffff81118282101715611ee957611ee9611eb0565b60405290565b604051610100810167ffffffffffffffff81118282101715611ee957611ee9611eb0565b60405160e0810167ffffffffffffffff81118282101715611ee957611ee9611eb0565b604051601f8201601f1916810167ffffffffffffffff81118282101715611f5f57611f5f611eb0565b604052919050565b805167ffffffffffffffff81168114611a7257600080fd5b600060c08284031215611f9157600080fd5b60405160c0810181811067ffffffffffffffff82111715611fb457611fb4611eb0565b604052611fc083611f67565b8152611fce60208401611f67565b6020820152611fdf60408401611f67565b6040820152611ff060608401611f67565b6060820152608083015161200381611a52565b608082015261201460a08401611f67565b60a08201529392505050565b60008151612032818560208601611aa3565b9290920192915050565b6000835161204e818460208801611aa3565b7f2f000000000000000000000000000000000000000000000000000000000000009083019081528351612088816001840160208801611aa3565b01600101949350505050565b7f7b2274726169745f74797065223a20225265636f72642045646974696f6e222c81527f202276616c7565223a20220000000000000000000000000000000000000000006020820152600084516120f281602b850160208901611aa3565b7f227d2c207b2274726169745f74797065223a20225265636f7264205661726961602b918401918201527f74696f6e222c202276616c7565223a2022000000000000000000000000000000604b820152845161215581605c840160208901611aa3565b61227d60f01b605c9290910191820152835161217881605e840160208801611aa3565b01605e0195945050505050565b634e487b7160e01b600052603260045260246000fd5b600085516121ad818460208a01611aa3565b8551908301906121c1818360208a01611aa3565b7f7b2274726169745f74797065223a202200000000000000000000000000000000910190815284516121fa816010840160208901611aa3565b7f222c202276616c7565223a20220000000000000000000000000000000000000060109290910191820152835161223881601d840160208801611aa3565b61227d60f01b601d9290910191820152601f019695505050505050565b634e487b7160e01b600052601160045260246000fd5b60006001820161227d5761227d612255565b5060010190565b8181038181111561180957611809612255565b600084516122a9818460208901611aa3565b8451908301906122bd818360208901611aa3565b84519101906122d0818360208801611aa3565b0195945050505050565b7f7b226e616d65223a220000000000000000000000000000000000000000000000815260008651612312816009850160208b01611aa3565b7f2000000000000000000000000000000000000000000000000000000000000000600991840191820152865161234f81600a840160208b01611aa3565b7f222c20226465736372697074696f6e223a220000000000000000000000000000600a9290910191820152855161238d81601c840160208a01611aa3565b7f222c2022696d616765223a202200000000000000000000000000000000000000601c929091019182015284516123cb816029840160208901611aa3565b7f222c202265787465726e616c5f75726c223a202200000000000000000000000060299290910191820152835161240981603d840160208801611aa3565b61243b603d828401017f222c200000000000000000000000000000000000000000000000000000000000815260030190565b9998505050505050505050565b60008751602061245b8285838d01611aa3565b7f226d6574616c6162656c223a207b20226e6f64655f72656769737472795f61649184019182527f6472657373223a202200000000000000000000000000000000000000000000008183015288516124b981602985018c8501611aa3565b7f222c20227265636f72645f766172696174696f6e5f6e616d65223a20220000006029939091019283015287516124f68160468501848c01611aa3565b7f222c202272656c656173655f6d657461646174615f757269223a2022000000006046939091019283015286516125338160628501848b01611aa3565b7f222c20227265636f72645f636f6e74656e7473223a20000000000000000000006062939091019283015285516125708160788501848a01611aa3565b6125d76125ae6125a86078848701017f7d2c202261747472696275746573223a205b0000000000000000000000000000815260120190565b88612020565b7f5d7d000000000000000000000000000000000000000000000000000000000000815260020190565b9b9a5050505050505050505050565b7f646174613a6170706c69636174696f6e2f6a736f6e3b6261736536342c00000081526000825161261e81601d850160208701611aa3565b91909101601d0192915050565b80358015158114611a7257600080fd5b600067ffffffffffffffff82111561265557612655611eb0565b5060051b60200190565b600067ffffffffffffffff82111561267957612679611eb0565b50601f01601f191660200190565b600082601f83011261269857600080fd5b81356126ab6126a68261265f565b611f36565b8181528460208386010111156126c057600080fd5b816020850160208301376000918101602001919091529392505050565b600082601f8301126126ee57600080fd5b813560206126fe6126a68361263b565b82815260059290921b8401810191818101908684111561271d57600080fd5b8286015b8481101561274157803561273481611b0d565b8352918301918301612721565b509695505050505050565b600082601f83011261275d57600080fd5b8135602061276d6126a68361263b565b82815260059290921b8401810191818101908684111561278c57600080fd5b8286015b8481101561274157803567ffffffffffffffff808211156127b15760008081fd5b908801906040828b03601f19018113156127cb5760008081fd5b6127d3611ec6565b87840135838111156127e55760008081fd5b6127f38d8a83880101612687565b8252509083013590828211156128095760008081fd5b6128178c8984870101612687565b818901528652505050918301918301612790565b600082601f83011261283c57600080fd5b8135602061284c6126a68361263b565b82815260059290921b8401810191818101908684111561286b57600080fd5b8286015b8481101561274157803567ffffffffffffffff808211156128905760008081fd5b90880190610100828b03601f19018113156128ab5760008081fd5b6128b3611eef565b87840135838111156128c55760008081fd5b6128d38d8a83880101612687565b825250604080850135848111156128ea5760008081fd5b6128f88e8b83890101612687565b8a84015250606080860135858111156129115760008081fd5b61291f8f8c838a0101612687565b838501525060809150818601358581111561293a5760008081fd5b6129488f8c838a0101612687565b82850152505060a080860135858111156129625760008081fd5b6129708f8c838a0101612687565b838501525060c09150818601358581111561298b5760008081fd5b6129998f8c838a0101612687565b82850152505060e080860135858111156129b35760008081fd5b6129c18f8c838a01016126dd565b84840152509285013592848411156129db57600091508182fd5b6129e98e8b8689010161274c565b9083015250865250505091830191830161286f565b600080828403610100811215612a1357600080fd5b60e0811215612a2157600080fd5b50612a2a611f13565b833563ffffffff81168114612a3e57600080fd5b8152612a4c60208501611b1d565b6020820152612a5d6040850161262b565b6040820152612a6e6060850161262b565b6060820152612a7f60808501611df2565b6080820152612a9060a08501611a67565b60a0820152612aa160c08501611b1d565b60c0820152915060e083013567ffffffffffffffff811115612ac257600080fd5b612ace8582860161282b565b9150509250929050565b6000602080830181845280855180835260408601915060408160051b870101925083870160005b82811015612b2d57603f19888603018452612b1b858351611ced565b94509285019290850190600101612aff565b5092979650505050505050565b6000610120820190506001600160a01b038516825261ffff808516602084015263ffffffff8451166040840152806020850151166060840152506040830151151560808301526060830151151560a083015260ff60808401511660c083015260a0830151612bb360e08401826001600160a01b03169052565b5060c083015161ffff811661010084015250949350505050565b808202811582820484141761180957611809612255565b634e487b7160e01b600052601260045260246000fd5b600082612c0957612c09612be4565b500490565b600082601f830112612c1f57600080fd5b8151612c2d6126a68261265f565b818152846020838601011115612c4257600080fd5b611639826020830160208701611aa3565b600082601f830112612c6457600080fd5b81516020612c746126a68361263b565b82815260059290921b84018101918181019086841115612c9357600080fd5b8286015b84811015612741578051612caa81611b0d565b8352918301918301612c97565b600082601f830112612cc857600080fd5b81516020612cd86126a68361263b565b82815260059290921b84018101918181019086841115612cf757600080fd5b8286015b8481101561274157805167ffffffffffffffff80821115612d1c5760008081fd5b908801906040828b03601f1901811315612d365760008081fd5b612d3e611ec6565b8784015183811115612d505760008081fd5b612d5e8d8a83880101612c0e565b825250908301519082821115612d745760008081fd5b612d828c8984870101612c0e565b818901528652505050918301918301612cfb565b60006020808385031215612da957600080fd5b825167ffffffffffffffff80821115612dc157600080fd5b818501915085601f830112612dd557600080fd5b8151612de36126a68261263b565b81815260059190911b83018401908481019088831115612e0257600080fd5b8585015b83811015612f7957805185811115612e1d57600080fd5b8601610100818c03601f1901811315612e3557600080fd5b612e3d611eef565b8983015188811115612e4e57600080fd5b612e5c8e8c83870101612c0e565b825250604083015188811115612e7157600080fd5b612e7f8e8c83870101612c0e565b8b83015250606083015188811115612e9657600080fd5b612ea48e8c83870101612c0e565b604083015250608083015188811115612ebc57600080fd5b612eca8e8c83870101612c0e565b60608301525060a083015188811115612ee257600080fd5b612ef08e8c83870101612c0e565b60808301525060c083015188811115612f095760008081fd5b612f178e8c83870101612c0e565b60a08301525060e08084015189811115612f315760008081fd5b612f3f8f8d83880101612c53565b60c084015250918301519188831115612f585760008081fd5b612f668e8c85870101612cb7565b9082015285525050918601918601612e06565b5098975050505050505050565b69ffffffffffffffffffff828116828216039080821115612fa957612fa9612255565b5092915050565b600082612fbf57612fbf612be4565b500690565b600181811c90821680612fd857607f821691505b602082108103612ff857634e487b7160e01b600052602260045260246000fd5b50919050565b60006020828403121561301057600080fd5b5051919050565b8082018082111561180957611809612255565b60008161303957613039612255565b506000190190565b600081526000825161305a816001850160208701611aa3565b9190910160010192915050565b7f600b5981380380925939f300000000000000000000000000000000000000000081526000825161309f81600b850160208701611aa3565b91909101600b019291505056fe4142434445464748494a4b4c4d4e4f505152535455565758595a6162636465666768696a6b6c6d6e6f707172737475767778797a303132333435363738392b2fa264697066735822122005246efc0aa69f844395246742d1161f36da88b7b975d2aaf82ec92c12fddeb064736f6c63430008110033",
  "linkReferences": {},
  "deployedLinkReferences": {}
}