{
  "_format": "hh-sol-artifact-1",
  "contractName": "DropEngineV2",
  "sourceName": "contracts/engines/DropEngineV2.sol",
  "abi": [
    {
      "inputs": [
        {
          "internalType": "address",
          "name": "_contractOwner",
          "type": "address"
        },
        {
          "internalType": "contract INodeRegistry",
          "name": "_nodeRegistry",
          "type": "address"
        }
      ],
      "stateMutability": "nonpayable",
      "type": "constructor"
    },
    {
      "inputs": [],
      "name": "CouldNotTransferEth",
      "type": "error"
    },
    {
      "inputs": [],
      "name": "IncorrectPaymentAmount",
      "type": "error"
    },
    {
      "inputs": [],
      "name": "InvalidMintAmount",
      "type": "error"
    },
    {
      "inputs": [],
      "name": "InvalidPriceDecayConfig",
      "type": "error"
    },
    {
      "inputs": [],
      "name": "InvalidPriceOrRecipient",
      "type": "error"
    },
    {
      "inputs": [],
      "name": "InvalidPrimarySaleFee",
      "type": "error"
    },
    {
      "inputs": [],
      "name": "InvalidRoyaltyBps",
      "type": "error"
    },
    {
      "inputs": [],
      "name": "MinterMustBeEOA",
      "type": "error"
    },
    {
      "anonymous": false,
      "inputs": [
        {
          "indexed": false,
          "internalType": "address",
          "name": "collection",
          "type": "address"
        },
        {
          "indexed": false,
          "internalType": "uint16",
          "name": "sequenceId",
          "type": "uint16"
        },
        {
          "components": [
            {
              "internalType": "uint96",
              "name": "price",
              "type": "uint96"
            },
            {
              "internalType": "uint16",
              "name": "royaltyBps",
              "type": "uint16"
            },
            {
              "internalType": "bool",
              "name": "allowContractMints",
              "type": "bool"
            },
            {
              "internalType": "bool",
              "name": "randomizeMetadataVariants",
              "type": "bool"
            },
            {
              "internalType": "uint8",
              "name": "maxRecordsPerTransaction",
              "type": "uint8"
            },
            {
              "internalType": "address",
              "name": "revenueRecipient",
              "type": "address"
            },
            {
              "internalType": "uint16",
              "name": "primarySaleFeeBps",
              "type": "uint16"
            },
            {
              "internalType": "uint96",
              "name": "priceDecayPerDay",
              "type": "uint96"
            },
            {
              "internalType": "uint64",
              "name": "decayStopTimestamp",
              "type": "uint64"
            }
          ],
          "indexed": false,
          "internalType": "struct DropData",
          "name": "dropData",
          "type": "tuple"
        }
      ],
      "name": "DropCreated",
      "type": "event"
    },
    {
      "anonymous": false,
      "inputs": [
        {
          "indexed": true,
          "internalType": "address",
          "name": "user",
          "type": "address"
        },
        {
          "indexed": true,
          "internalType": "address",
          "name": "newOwner",
          "type": "address"
        }
      ],
      "name": "OwnershipTransferred",
      "type": "event"
    },
    {
      "anonymous": false,
      "inputs": [
        {
          "indexed": false,
          "internalType": "uint16",
          "name": "primarySaleFeeBps",
          "type": "uint16"
        }
      ],
      "name": "PrimarySaleFeeSet",
      "type": "event"
    },
    {
      "inputs": [
        {
          "internalType": "uint16",
          "name": "sequenceId",
          "type": "uint16"
        },
        {
          "components": [
            {
              "internalType": "uint64",
              "name": "sealedBeforeTimestamp",
              "type": "uint64"
            },
            {
              "internalType": "uint64",
              "name": "sealedAfterTimestamp",
              "type": "uint64"
            },
            {
              "internalType": "uint64",
              "name": "maxSupply",
              "type": "uint64"
            },
            {
              "internalType": "uint64",
              "name": "minted",
              "type": "uint64"
            },
            {
              "internalType": "contract IEngine",
              "name": "engine",
              "type": "address"
            },
            {
              "internalType": "uint64",
              "name": "dropNodeId",
              "type": "uint64"
            }
          ],
          "internalType": "struct SequenceData",
          "name": "",
          "type": "tuple"
        },
        {
          "internalType": "bytes",
          "name": "engineData",
          "type": "bytes"
        }
      ],
      "name": "configureSequence",
      "outputs": [],
      "stateMutability": "nonpayable",
      "type": "function"
    },
    {
      "inputs": [
        {
          "internalType": "contract ICollection",
          "name": "collection",
          "type": "address"
        },
        {
          "internalType": "uint16",
          "name": "sequenceId",
          "type": "uint16"
        }
      ],
      "name": "currentPrice",
      "outputs": [
        {
          "internalType": "uint256",
          "name": "unitPrice",
          "type": "uint256"
        }
      ],
      "stateMutability": "view",
      "type": "function"
    },
    {
      "inputs": [
        {
          "internalType": "address",
          "name": "",
          "type": "address"
        },
        {
          "internalType": "uint16",
          "name": "",
          "type": "uint16"
        }
      ],
      "name": "drops",
      "outputs": [
        {
          "internalType": "uint96",
          "name": "price",
          "type": "uint96"
        },
        {
          "internalType": "uint16",
          "name": "royaltyBps",
          "type": "uint16"
        },
        {
          "internalType": "bool",
          "name": "allowContractMints",
          "type": "bool"
        },
        {
          "internalType": "bool",
          "name": "randomizeMetadataVariants",
          "type": "bool"
        },
        {
          "internalType": "uint8",
          "name": "maxRecordsPerTransaction",
          "type": "uint8"
        },
        {
          "internalType": "address",
          "name": "revenueRecipient",
          "type": "address"
        },
        {
          "internalType": "uint16",
          "name": "primarySaleFeeBps",
          "type": "uint16"
        },
        {
          "internalType": "uint96",
          "name": "priceDecayPerDay",
          "type": "uint96"
        },
        {
          "internalType": "uint64",
          "name": "decayStopTimestamp",
          "type": "uint64"
        }
      ],
      "stateMutability": "view",
      "type": "function"
    },
    {
      "inputs": [
        {
          "internalType": "address",
          "name": "collection",
          "type": "address"
        },
        {
          "internalType": "uint256",
          "name": "tokenId",
          "type": "uint256"
        },
        {
          "internalType": "uint256",
          "name": "salePrice",
          "type": "uint256"
        }
      ],
      "name": "getRoyaltyInfo",
      "outputs": [
        {
          "internalType": "address",
          "name": "",
          "type": "address"
        },
        {
          "internalType": "uint256",
          "name": "",
          "type": "uint256"
        }
      ],
      "stateMutability": "view",
      "type": "function"
    },
    {
      "inputs": [
        {
          "internalType": "address",
          "name": "collection",
          "type": "address"
        },
        {
          "internalType": "uint256",
          "name": "tokenId",
          "type": "uint256"
        }
      ],
      "name": "getStoredMetadataVariant",
      "outputs": [
        {
          "components": [
            {
              "internalType": "string",
              "name": "name",
              "type": "string"
            },
            {
              "internalType": "string",
              "name": "description",
              "type": "string"
            },
            {
              "internalType": "string",
              "name": "image",
              "type": "string"
            },
            {
              "internalType": "string",
              "name": "external_url",
              "type": "string"
            },
            {
              "internalType": "string",
              "name": "metalabel_record_variant_name",
              "type": "string"
            },
            {
              "internalType": "string",
              "name": "metalabel_release_metadata_uri",
              "type": "string"
            },
            {
              "internalType": "uint16[]",
              "name": "metalabel_record_contents",
              "type": "uint16[]"
            },
            {
              "components": [
                {
                  "internalType": "string",
                  "name": "trait_type",
                  "type": "string"
                },
                {
                  "internalType": "string",
                  "name": "value",
                  "type": "string"
                }
              ],
              "internalType": "struct NFTMetadataAttribute[]",
              "name": "attributes",
              "type": "tuple[]"
            }
          ],
          "internalType": "struct NFTMetadata",
          "name": "metadata",
          "type": "tuple"
        }
      ],
      "stateMutability": "view",
      "type": "function"
    },
    {
      "inputs": [
        {
          "internalType": "address",
          "name": "collection",
          "type": "address"
        },
        {
          "internalType": "uint256",
          "name": "tokenId",
          "type": "uint256"
        }
      ],
      "name": "getTokenURI",
      "outputs": [
        {
          "internalType": "string",
          "name": "tokenURI",
          "type": "string"
        }
      ],
      "stateMutability": "view",
      "type": "function"
    },
    {
      "inputs": [
        {
          "internalType": "address",
          "name": "",
          "type": "address"
        },
        {
          "internalType": "uint16",
          "name": "",
          "type": "uint16"
        }
      ],
      "name": "metadataStoragePointers",
      "outputs": [
        {
          "internalType": "address",
          "name": "",
          "type": "address"
        }
      ],
      "stateMutability": "view",
      "type": "function"
    },
    {
      "inputs": [
        {
          "internalType": "contract ICollection",
          "name": "collection",
          "type": "address"
        },
        {
          "internalType": "uint16",
          "name": "sequenceId",
          "type": "uint16"
        },
        {
          "internalType": "uint8",
          "name": "count",
          "type": "uint8"
        }
      ],
      "name": "mint",
      "outputs": [
        {
          "internalType": "uint256",
          "name": "tokenId",
          "type": "uint256"
        }
      ],
      "stateMutability": "payable",
      "type": "function"
    },
    {
      "inputs": [],
      "name": "nodeRegistry",
      "outputs": [
        {
          "internalType": "contract INodeRegistry",
          "name": "",
          "type": "address"
        }
      ],
      "stateMutability": "view",
      "type": "function"
    },
    {
      "inputs": [],
      "name": "owner",
      "outputs": [
        {
          "internalType": "address",
          "name": "",
          "type": "address"
        }
      ],
      "stateMutability": "view",
      "type": "function"
    },
    {
      "inputs": [],
      "name": "primarySaleFeeBps",
      "outputs": [
        {
          "internalType": "uint16",
          "name": "",
          "type": "uint16"
        }
      ],
      "stateMutability": "view",
      "type": "function"
    },
    {
      "inputs": [
        {
          "internalType": "uint16",
          "name": "fee",
          "type": "uint16"
        }
      ],
      "name": "setPrimarySaleFeeBps",
      "outputs": [],
      "stateMutability": "nonpayable",
      "type": "function"
    },
    {
      "inputs": [],
      "name": "transferFeesToOwner",
      "outputs": [],
      "stateMutability": "nonpayable",
      "type": "function"
    },
    {
      "inputs": [
        {
          "internalType": "address",
          "name": "newOwner",
          "type": "address"
        }
      ],
      "name": "transferOwnership",
      "outputs": [],
      "stateMutability": "nonpayable",
      "type": "function"
    }
  ],
  "bytecode": "0x60a06040523480156200001157600080fd5b506040516200338e3803806200338e8339810160408190526200003491620000a9565b600080546001600160a01b0319166001600160a01b03841690811782556040518492907f8be0079c531659141344cd1fd0a4f28419497f9722a3daafe3b4186f6b6457e0908290a3506001600160a01b031660805250620000e8565b6001600160a01b0381168114620000a657600080fd5b50565b60008060408385031215620000bd57600080fd5b8251620000ca8162000090565b6020840151909250620000dd8162000090565b809150509250929050565b6080516132836200010b6000396000818161029501526108b701526132836000f3fe6080604052600436106100dd5760003560e01c8063b1e8d9701161007f578063e289208711610059578063e2892087146102b7578063f11c801c146102e4578063f2fde38b146102f7578063f746f01f1461031757600080fd5b8063b1e8d9701461024e578063cfd88a3614610263578063d9b5c4a51461028357600080fd5b806322a5c8d0116100bb57806322a5c8d01461019f57806336de9742146101c1578063502493c1146102005780638da5cb5b1461022e57600080fd5b80630b63fd62146100e25780630c8caf9a146101185780631618229314610171575b600080fd5b3480156100ee57600080fd5b506101026100fd366004611b63565b610438565b60405161010f9190611bdf565b60405180910390f35b34801561012457600080fd5b50610159610133366004611c14565b60026020908152600092835260408084209091529082529020546001600160a01b031681565b6040516001600160a01b03909116815260200161010f565b34801561017d57600080fd5b5060035461018c9061ffff1681565b60405161ffff909116815260200161010f565b3480156101ab57600080fd5b506101bf6101ba366004611c4d565b610950565b005b3480156101cd57600080fd5b506101e16101dc366004611cea565b610cb4565b604080516001600160a01b03909316835260208301919091520161010f565b34801561020c57600080fd5b5061022061021b366004611c14565b610d8d565b60405190815260200161010f565b34801561023a57600080fd5b50600054610159906001600160a01b031681565b34801561025a57600080fd5b506101bf610e5f565b34801561026f57600080fd5b506101bf61027e366004611d1f565b610ed6565b34801561028f57600080fd5b506101597f000000000000000000000000000000000000000000000000000000000000000081565b3480156102c357600080fd5b506102d76102d2366004611b63565b610fae565b60405161010f9190611ecb565b6102206102f2366004611eef565b61123f565b34801561030357600080fd5b506101bf610312366004611f36565b611583565b34801561032357600080fd5b506103c2610332366004611c14565b600160208181526000938452604080852090915291835291208054918101546002909101546bffffffffffffffffffffffff8084169361ffff600160601b80830482169560ff600160701b8504811696600160781b8604821696600160801b909604909116946001600160a01b03831694600160a01b909304909216929181169167ffffffffffffffff91041689565b604080516bffffffffffffffffffffffff9a8b16815261ffff998a16602082015297151590880152941515606087015260ff9390931660808601526001600160a01b039190911660a085015290931660c08301529190921660e083015267ffffffffffffffff166101008201526101200161010f565b6040516305b5acb960e31b8152600481018290526060906000906001600160a01b03851690632dad65c890602401602060405180830381865afa158015610483573d6000803e3d6000fd5b505050506040513d601f19601f820116820180604052508101906104a79190611f53565b604051633aa9eee560e21b8152600481018590529091506000906001600160a01b0386169063eaa7bb9490602401602060405180830381865afa1580156104f2573d6000803e3d6000fd5b505050506040513d601f19601f820116820180604052508101906105169190611f70565b6040517fef65403c00000000000000000000000000000000000000000000000000000000815261ffff841660048201529091506000906001600160a01b0387169063ef65403c9060240160c060405180830381865afa15801561057d573d6000803e3d6000fd5b505050506040513d601f19601f820116820180604052508101906105a1919061206a565b905060006105af8787610fae565b90506000826040015167ffffffffffffffff1660001461061a576105de8469ffffffffffffffffffff16611624565b6105f5846040015167ffffffffffffffff16611624565b604051602001610606929190612131565b60405160208183030381529060405261062f565b61062f8469ffffffffffffffffffff16611624565b9050600081836080015160008560e00151511161065b5760405180602001604052806000815250610677565b60405180604001604052806002815260200161016160f51b8152505b60405160200161068993929190612189565b604051602081830303815290604052905060005b8360e001515181101561075f5781600082116106c857604051806020016040528060008152506106e4565b60405180604001604052806002815260200161016160f51b8152505b8560e0015183815181106106fa576106fa61227a565b6020026020010151600001518660e00151848151811061071c5761071c61227a565b60200260200101516020015160405160200161073b9493929190612290565b6040516020818303038152906040529150808061075790612360565b91505061069d565b5060408051808201909152600181527f5b00000000000000000000000000000000000000000000000000000000000000602082015260005b8460c001515181101561087457816107cf8660c0015183815181106107be576107be61227a565b602002602001015161ffff16611624565b60018760c00151516107e19190612379565b83146108075760405180604001604052806002815260200161016160f51b81525061083e565b6040518060400160405280600181526020017f5d000000000000000000000000000000000000000000000000000000000000008152505b6040516020016108509392919061238c565b6040516020818303038152906040529150808061086c90612360565b915050610797565b5060008460000151848660200151876040015188606001516040516020016108a09594939291906123cf565b6040516020818303038152906040529050806108e67f00000000000000000000000000000000000000000000000000000000000000006001600160a01b0316601461172d565b86608001518760a0015185876040516020016109079695949392919061253d565b6040516020818303038152906040529050610921816118fb565b60405160200161093191906126db565b6040516020818303038152906040529850505050505050505092915050565b60008061095f83850185612b1a565b60a082015182519294509092506001600160a01b0316156bffffffffffffffffffffffff90911615146109be576040517ff1c970d100000000000000000000000000000000000000000000000000000000815260040160405180910390fd5b61010082015167ffffffffffffffff16158015906109ea57504282610100015167ffffffffffffffff16105b15610a085760405163564646d560e11b815260040160405180910390fd5b60e082015161010083015167ffffffffffffffff16156bffffffffffffffffffffffff9091161514610a4d5760405163564646d560e11b815260040160405180910390fd5b612710826020015161ffff161115610a91576040517f2568952000000000000000000000000000000000000000000000000000000000815260040160405180910390fd5b60035461ffff1660c0830152604051610ac690610ab2908390602001612c0e565b604051602081830303815290604052611a4e565b33600081815260026020818152604080842061ffff808e1680875291845282862080546001600160a01b03998a1673ffffffffffffffffffffffffffffffffffffffff19918216179091558787526001808652848820938852928552958390208a518154958c01518c86015160608e015160808f015160ff16600160801b027fffffffffffffffffffffffffffffff00ffffffffffffffffffffffffffffffff911515600160781b027fffffffffffffffffffffffffffffffff00ffffffffffffffffffffffffffffff931515600160701b02939093167fffffffffffffffffffffffffffffffff0000ffffffffffffffffffffffffffff948816600160601b9081026dffffffffffffffffffffffffffff19909c166bffffffffffffffffffffffff978816179b909b179490941693909317919091171617825560a08c0151938201805460c08e0151909416600160a01b0275ffffffffffffffffffffffffffffffffffffffffffff1990941694909a16939093179190911790975560e08901519690930180546101008a015167ffffffffffffffff1690930292909416959092169490941793909317905590517fc64b0f1a277fb0efdf2ed63e3c5a529f5c80920863464b9b44695ad9c041fa0a91610ca49189908690612c70565b60405180910390a1505050505050565b6000806000856001600160a01b0316632dad65c8866040518263ffffffff1660e01b8152600401610ce791815260200190565b602060405180830381865afa158015610d04573d6000803e3d6000fd5b505050506040513d601f19601f82011682018060405250810190610d289190611f53565b6001600160a01b03808816600090815260016020818152604080842061ffff80881686529252909220908101548154949550909392169161271091610d7591600160601b90041688612d47565b610d7f9190612d74565b935093505050935093915050565b6001600160a01b038216600090815260016020908152604080832061ffff85168452909152812060028101548290600160601b900467ffffffffffffffff164210610dd9576000610dfa565b6002820154610dfa904290600160601b900467ffffffffffffffff16612d88565b60028301549091506000906201518090610e2d9067ffffffffffffffff8516906bffffffffffffffffffffffff16612d47565b610e379190612d74565b8354909150610e559082906bffffffffffffffffffffffff16612db0565b9695505050505050565b600080546040516001600160a01b039091169047908381818185875af1925050503d8060008114610eac576040519150601f19603f3d011682016040523d82523d6000602084013e610eb1565b606091505b5050905080610ed357604051634917cec360e11b815260040160405180910390fd5b50565b6000546001600160a01b03163314610f245760405162461bcd60e51b815260206004820152600c60248201526b15539055551213d49256915160a21b60448201526064015b60405180910390fd5b6127108161ffff161115610f64576040517f62ce3dcd00000000000000000000000000000000000000000000000000000000815260040160405180910390fd5b6003805461ffff191661ffff83169081179091556040519081527fc26f8db1267f65723040652d335ca099d7f37fb82ee03cb67ee19bc815b5fd959060200160405180910390a150565b610ff660405180610100016040528060608152602001606081526020016060815260200160608152602001606081526020016060815260200160608152602001606081525090565b6040516305b5acb960e31b8152600481018390526000906001600160a01b03851690632dad65c890602401602060405180830381865afa15801561103e573d6000803e3d6000fd5b505050506040513d601f19601f820116820180604052508101906110629190611f53565b604051633aa9eee560e21b8152600481018590529091506000906001600160a01b0386169063eaa7bb9490602401602060405180830381865afa1580156110ad573d6000803e3d6000fd5b505050506040513d601f19601f820116820180604052508101906110d19190611f70565b6001600160a01b03808716600090815260026020908152604080832061ffff88168452909152812054929350916111089116611aff565b80602001905181019061111b9190612f4b565b90506000815160018461112e919061313b565b69ffffffffffffffffffff16611144919061315e565b6001600160a01b038816600090815260016020908152604080832061ffff89168452909152902054909150600160781b900460ff16156112195781516040805160608a811b6bffffffffffffffffffffffff1916602083015260f088901b7fffff00000000000000000000000000000000000000000000000000000000000016603483015260b087901b75ffffffffffffffffffffffffffffffffffffffffffff19166036830152918101899052016040516020818303038152906040528051906020012060001c611216919061315e565b90505b81818151811061122b5761122b61227a565b602002602001015194505050505092915050565b6001600160a01b038316600090815260016020908152604080832061ffff8616845290915281208054600160701b900460ff1615801561127f5750333214155b156112b6576040517ff000bcf600000000000000000000000000000000000000000000000000000000815260040160405180910390fd5b8054600160801b900460ff16158015906112de5750805460ff600160801b9091048116908416115b15611315576040517fccfad01800000000000000000000000000000000000000000000000000000000815260040160405180910390fd5b60006113218686610d8d565b9050600061133260ff861683612d47565b90508034101561136e576040517f6992e1ff00000000000000000000000000000000000000000000000000000000815260040160405180910390fd5b60005b8560ff16811015611434576040517f6342747b00000000000000000000000000000000000000000000000000000000815233600482015261ffff881660248201526000906001600160a01b038a1690636342747b906044016020604051808303816000875af11580156113e8573d6000803e3d6000fd5b505050506040513d601f19601f8201168201806040525081019061140c9190613172565b90508560000361141c578061141e565b855b955050808061142c90612360565b915050611371565b5060018301546000906127109061145690600160a01b900461ffff1684612d47565b6114609190612d74565b61146a9083612379565b9050600082341161147c576000611486565b6114868334612379565b905080156114f957604051600090339083908381818185875af1925050503d80600081146114d0576040519150601f19603f3d011682016040523d82523d6000602084013e6114d5565b606091505b50509050806114f757604051634917cec360e11b815260040160405180910390fd5b505b81156115775760018501546040516000916001600160a01b03169084908381818185875af1925050503d806000811461154e576040519150601f19603f3d011682016040523d82523d6000602084013e611553565b606091505b505090508061157557604051634917cec360e11b815260040160405180910390fd5b505b50505050509392505050565b6000546001600160a01b031633146115cc5760405162461bcd60e51b815260206004820152600c60248201526b15539055551213d49256915160a21b6044820152606401610f1b565b6000805473ffffffffffffffffffffffffffffffffffffffff19166001600160a01b0383169081178255604051909133917f8be0079c531659141344cd1fd0a4f28419497f9722a3daafe3b4186f6b6457e09190a350565b60608160000361164b5750506040805180820190915260018152600360fc1b602082015290565b8160005b8115611675578061165f81612360565b915061166e9050600a83612d74565b915061164f565b60008167ffffffffffffffff81111561169057611690611f9c565b6040519080825280601f01601f1916602001820160405280156116ba576020820181803683370190505b5090505b8415611725576116cf600183612379565b91506116dc600a8661315e565b6116e7906030612db0565b60f81b8183815181106116fc576116fc61227a565b60200101906001600160f81b031916908160001a90535061171e600a86612d74565b94506116be565b949350505050565b6060600061173c836002612d47565b611747906002612db0565b67ffffffffffffffff81111561175f5761175f611f9c565b6040519080825280601f01601f191660200182016040528015611789576020820181803683370190505b509050600360fc1b816000815181106117a4576117a461227a565b60200101906001600160f81b031916908160001a9053507f7800000000000000000000000000000000000000000000000000000000000000816001815181106117ef576117ef61227a565b60200101906001600160f81b031916908160001a9053506000611813846002612d47565b61181e906001612db0565b90505b60018111156118a3577f303132333435363738396162636465660000000000000000000000000000000085600f166010811061185f5761185f61227a565b1a60f81b8282815181106118755761187561227a565b60200101906001600160f81b031916908160001a90535060049490941c9361189c8161318b565b9050611821565b5083156118f25760405162461bcd60e51b815260206004820181905260248201527f537472696e67733a20686578206c656e67746820696e73756666696369656e746044820152606401610f1b565b90505b92915050565b6060815160000361191a57505060408051602081019091526000815290565b600060405180606001604052806040815260200161320e60409139905060006003845160026119499190612db0565b6119539190612d74565b61195e906004612d47565b67ffffffffffffffff81111561197657611976611f9c565b6040519080825280601f01601f1916602001820160405280156119a0576020820181803683370190505b509050600182016020820185865187015b80821015611a0c576003820191508151603f8160121c168501518453600184019350603f81600c1c168501518453600184019350603f8160061c168501518453600184019350603f81168501518453506001830192506119b1565b5050600386510660018114611a285760028114611a3b57611a43565b603d6001830353603d6002830353611a43565b603d60018303535b509195945050505050565b60008082604051602001611a6291906131a2565b6040516020818303038152906040529050600081604051602001611a8691906131c8565b60405160208183030381529060405290508051602082016000f092506001600160a01b038316611af85760405162461bcd60e51b815260206004820152601160248201527f4445504c4f594d454e545f4641494c45440000000000000000000000000000006044820152606401610f1b565b5050919050565b60606118f5826001611b1b816001600160a01b0384163b612379565b60408051603f8301601f19168101909152818152818360208301863c9392505050565b6001600160a01b0381168114610ed357600080fd5b8035611b5e81611b3e565b919050565b60008060408385031215611b7657600080fd5b8235611b8181611b3e565b946020939093013593505050565b60005b83811015611baa578181015183820152602001611b92565b50506000910152565b60008151808452611bcb816020860160208601611b8f565b601f01601f19169290920160200192915050565b602081526000611bf26020830184611bb3565b9392505050565b61ffff81168114610ed357600080fd5b8035611b5e81611bf9565b60008060408385031215611c2757600080fd5b8235611c3281611b3e565b91506020830135611c4281611bf9565b809150509250929050565b600080600080848603610100811215611c6557600080fd5b8535611c7081611bf9565b945060c0601f1982011215611c8457600080fd5b5060208501925060e085013567ffffffffffffffff80821115611ca657600080fd5b818701915087601f830112611cba57600080fd5b813581811115611cc957600080fd5b886020828501011115611cdb57600080fd5b95989497505060200194505050565b600080600060608486031215611cff57600080fd5b8335611d0a81611b3e565b95602085013595506040909401359392505050565b600060208284031215611d3157600080fd5b81356118f281611bf9565b600081518084526020808501945080840160005b83811015611d7057815161ffff1687529582019590820190600101611d50565b509495945050505050565b600081518084526020808501808196508360051b8101915082860160005b85811015611de9578284038952815160408151818752611dbb82880182611bb3565b91505086820151915085810387870152611dd58183611bb3565b9a87019a9550505090840190600101611d99565b5091979650505050505050565b60006101008251818552611e0c82860182611bb3565b91505060208301518482036020860152611e268282611bb3565b91505060408301518482036040860152611e408282611bb3565b91505060608301518482036060860152611e5a8282611bb3565b91505060808301518482036080860152611e748282611bb3565b91505060a083015184820360a0860152611e8e8282611bb3565b91505060c083015184820360c0860152611ea88282611d3c565b91505060e083015184820360e0860152611ec28282611d7b565b95945050505050565b602081526000611bf26020830184611df6565b803560ff81168114611b5e57600080fd5b600080600060608486031215611f0457600080fd5b8335611f0f81611b3e565b92506020840135611f1f81611bf9565b9150611f2d60408501611ede565b90509250925092565b600060208284031215611f4857600080fd5b81356118f281611b3e565b600060208284031215611f6557600080fd5b81516118f281611bf9565b600060208284031215611f8257600080fd5b815169ffffffffffffffffffff811681146118f257600080fd5b634e487b7160e01b600052604160045260246000fd5b6040805190810167ffffffffffffffff81118282101715611fd557611fd5611f9c565b60405290565b604051610100810167ffffffffffffffff81118282101715611fd557611fd5611f9c565b604051610120810167ffffffffffffffff81118282101715611fd557611fd5611f9c565b604051601f8201601f1916810167ffffffffffffffff8111828210171561204c5761204c611f9c565b604052919050565b67ffffffffffffffff81168114610ed357600080fd5b600060c0828403121561207c57600080fd5b60405160c0810181811067ffffffffffffffff8211171561209f5761209f611f9c565b60405282516120ad81612054565b815260208301516120bd81612054565b602082015260408301516120d081612054565b604082015260608301516120e381612054565b606082015260808301516120f681611b3e565b608082015260a083015161210981612054565b60a08201529392505050565b60008151612127818560208601611b8f565b9290920192915050565b60008351612143818460208801611b8f565b7f2f00000000000000000000000000000000000000000000000000000000000000908301908152835161217d816001840160208801611b8f565b01600101949350505050565b7f7b2274726169745f74797065223a20225265636f72642045646974696f6e222c81527f202276616c7565223a20220000000000000000000000000000000000000000006020820152600084516121e781602b850160208901611b8f565b7f227d2c207b2274726169745f74797065223a20225265636f7264205661726961602b918401918201527f6e74222c202276616c7565223a20220000000000000000000000000000000000604b820152845161224a81605a840160208901611b8f565b61227d60f01b605a9290910191820152835161226d81605c840160208801611b8f565b01605c0195945050505050565b634e487b7160e01b600052603260045260246000fd5b600085516122a2818460208a01611b8f565b8551908301906122b6818360208a01611b8f565b7f7b2274726169745f74797065223a202200000000000000000000000000000000910190815284516122ef816010840160208901611b8f565b7f222c202276616c7565223a20220000000000000000000000000000000000000060109290910191820152835161232d81601d840160208801611b8f565b61227d60f01b601d9290910191820152601f019695505050505050565b634e487b7160e01b600052601160045260246000fd5b6000600182016123725761237261234a565b5060010190565b818103818111156118f5576118f561234a565b6000845161239e818460208901611b8f565b8451908301906123b2818360208901611b8f565b84519101906123c5818360208801611b8f565b0195945050505050565b7f7b226e616d65223a220000000000000000000000000000000000000000000000815260008651612407816009850160208b01611b8f565b7f2000000000000000000000000000000000000000000000000000000000000000600991840191820152865161244481600a840160208b01611b8f565b7f222c20226465736372697074696f6e223a220000000000000000000000000000600a9290910191820152855161248281601c840160208a01611b8f565b7f222c2022696d616765223a202200000000000000000000000000000000000000601c929091019182015284516124c0816029840160208901611b8f565b7f222c202265787465726e616c5f75726c223a20220000000000000000000000006029929091019182015283516124fe81603d840160208801611b8f565b612530603d828401017f222c200000000000000000000000000000000000000000000000000000000000815260030190565b9998505050505050505050565b6000875160206125508285838d01611b8f565b7f226d6574616c6162656c223a207b20226e6f64655f72656769737472795f61649184019182527f6472657373223a202200000000000000000000000000000000000000000000008183015288516125ae81602985018c8501611b8f565b7f222c20227265636f72645f76617269616e745f6e616d65223a202200000000006029939091019283015287516125eb8160448501848c01611b8f565b7f222c202272656c656173655f6d657461646174615f757269223a2022000000006044939091019283015286516126288160608501848b01611b8f565b7f222c20227265636f72645f636f6e74656e7473223a20000000000000000000006060939091019283015285516126658160768501848a01611b8f565b6126cc6126a361269d6076848701017f7d2c202261747472696275746573223a205b0000000000000000000000000000815260120190565b88612115565b7f5d7d000000000000000000000000000000000000000000000000000000000000815260020190565b9b9a5050505050505050505050565b7f646174613a6170706c69636174696f6e2f6a736f6e3b6261736536342c00000081526000825161271381601d850160208701611b8f565b91909101601d0192915050565b80356bffffffffffffffffffffffff81168114611b5e57600080fd5b80358015158114611b5e57600080fd5b8035611b5e81612054565b600067ffffffffffffffff82111561277157612771611f9c565b5060051b60200190565b600067ffffffffffffffff82111561279557612795611f9c565b50601f01601f191660200190565b600082601f8301126127b457600080fd5b81356127c76127c28261277b565b612023565b8181528460208386010111156127dc57600080fd5b816020850160208301376000918101602001919091529392505050565b600082601f83011261280a57600080fd5b8135602061281a6127c283612757565b82815260059290921b8401810191818101908684111561283957600080fd5b8286015b8481101561285d57803561285081611bf9565b835291830191830161283d565b509695505050505050565b600082601f83011261287957600080fd5b813560206128896127c283612757565b82815260059290921b840181019181810190868411156128a857600080fd5b8286015b8481101561285d57803567ffffffffffffffff808211156128cd5760008081fd5b908801906040828b03601f19018113156128e75760008081fd5b6128ef611fb2565b87840135838111156129015760008081fd5b61290f8d8a838801016127a3565b8252509083013590828211156129255760008081fd5b6129338c89848701016127a3565b8189015286525050509183019183016128ac565b600082601f83011261295857600080fd5b813560206129686127c283612757565b82815260059290921b8401810191818101908684111561298757600080fd5b8286015b8481101561285d57803567ffffffffffffffff808211156129ac5760008081fd5b90880190610100828b03601f19018113156129c75760008081fd5b6129cf611fdb565b87840135838111156129e15760008081fd5b6129ef8d8a838801016127a3565b82525060408085013584811115612a065760008081fd5b612a148e8b838901016127a3565b8a8401525060608086013585811115612a2d5760008081fd5b612a3b8f8c838a01016127a3565b8385015250608091508186013585811115612a565760008081fd5b612a648f8c838a01016127a3565b82850152505060a08086013585811115612a7e5760008081fd5b612a8c8f8c838a01016127a3565b838501525060c091508186013585811115612aa75760008081fd5b612ab58f8c838a01016127a3565b82850152505060e08086013585811115612acf5760008081fd5b612add8f8c838a01016127f9565b8484015250928501359284841115612af757600091508182fd5b612b058e8b86890101612868565b9083015250865250505091830191830161298b565b600080828403610140811215612b2f57600080fd5b61012080821215612b3f57600080fd5b612b47611fff565b9150612b5285612720565b8252612b6060208601611c09565b6020830152612b716040860161273c565b6040830152612b826060860161273c565b6060830152612b9360808601611ede565b6080830152612ba460a08601611b53565b60a0830152612bb560c08601611c09565b60c0830152612bc660e08601612720565b60e0830152610100612bd981870161274c565b9083015290925083013567ffffffffffffffff811115612bf857600080fd5b612c0485828601612947565b9150509250929050565b6000602080830181845280855180835260408601915060408160051b870101925083870160005b82811015612c6357603f19888603018452612c51858351611df6565b94509285019290850190600101612c35565b5092979650505050505050565b6000610160820190506001600160a01b038516825261ffff80851660208401526bffffffffffffffffffffffff8451166040840152806020850151166060840152506040830151612cc5608084018215159052565b50606083015180151560a084015250608083015160ff811660c08401525060a08301516001600160a01b03811660e08401525060c0830151610100612d0f8185018361ffff169052565b60e08501516bffffffffffffffffffffffff166101208501529093015167ffffffffffffffff16610140909201919091529392505050565b80820281158282048414176118f5576118f561234a565b634e487b7160e01b600052601260045260246000fd5b600082612d8357612d83612d5e565b500490565b67ffffffffffffffff828116828216039080821115612da957612da961234a565b5092915050565b808201808211156118f5576118f561234a565b600082601f830112612dd457600080fd5b8151612de26127c28261277b565b818152846020838601011115612df757600080fd5b611725826020830160208701611b8f565b600082601f830112612e1957600080fd5b81516020612e296127c283612757565b82815260059290921b84018101918181019086841115612e4857600080fd5b8286015b8481101561285d578051612e5f81611bf9565b8352918301918301612e4c565b600082601f830112612e7d57600080fd5b81516020612e8d6127c283612757565b82815260059290921b84018101918181019086841115612eac57600080fd5b8286015b8481101561285d57805167ffffffffffffffff80821115612ed15760008081fd5b908801906040828b03601f1901811315612eeb5760008081fd5b612ef3611fb2565b8784015183811115612f055760008081fd5b612f138d8a83880101612dc3565b825250908301519082821115612f295760008081fd5b612f378c8984870101612dc3565b818901528652505050918301918301612eb0565b60006020808385031215612f5e57600080fd5b825167ffffffffffffffff80821115612f7657600080fd5b818501915085601f830112612f8a57600080fd5b8151612f986127c282612757565b81815260059190911b83018401908481019088831115612fb757600080fd5b8585015b8381101561312e57805185811115612fd257600080fd5b8601610100818c03601f1901811315612fea57600080fd5b612ff2611fdb565b898301518881111561300357600080fd5b6130118e8c83870101612dc3565b82525060408301518881111561302657600080fd5b6130348e8c83870101612dc3565b8b8301525060608301518881111561304b57600080fd5b6130598e8c83870101612dc3565b60408301525060808301518881111561307157600080fd5b61307f8e8c83870101612dc3565b60608301525060a08301518881111561309757600080fd5b6130a58e8c83870101612dc3565b60808301525060c0830151888111156130be5760008081fd5b6130cc8e8c83870101612dc3565b60a08301525060e080840151898111156130e65760008081fd5b6130f48f8d83880101612e08565b60c08401525091830151918883111561310d5760008081fd5b61311b8e8c85870101612e6c565b9082015285525050918601918601612fbb565b5098975050505050505050565b69ffffffffffffffffffff828116828216039080821115612da957612da961234a565b60008261316d5761316d612d5e565b500690565b60006020828403121561318457600080fd5b5051919050565b60008161319a5761319a61234a565b506000190190565b60008152600082516131bb816001850160208701611b8f565b9190910160010192915050565b7f600b5981380380925939f300000000000000000000000000000000000000000081526000825161320081600b850160208701611b8f565b91909101600b019291505056fe4142434445464748494a4b4c4d4e4f505152535455565758595a6162636465666768696a6b6c6d6e6f707172737475767778797a303132333435363738392b2fa2646970667358221220aed9ed7b3d53712930a7ccd2f3bd4611b404ce1c1bc7041c19e4c1e901c3e94564736f6c63430008110033",
  "linkReferences": {},
  "deployedLinkReferences": {}
}