{
  "_format": "hh-sol-artifact-1",
  "contractName": "DropEngine",
  "sourceName": "contracts/engines/DropEngine.sol",
  "abi": [
    {
      "inputs": [],
      "name": "IncorrectPaymentAmount",
      "type": "error"
    },
    {
      "anonymous": false,
      "inputs": [
        {
          "indexed": false,
          "internalType": "address",
          "name": "collection",
          "type": "address"
        },
        {
          "indexed": false,
          "internalType": "uint16",
          "name": "sequenceId",
          "type": "uint16"
        },
        {
          "indexed": false,
          "internalType": "uint80",
          "name": "price",
          "type": "uint80"
        },
        {
          "indexed": false,
          "internalType": "uint16",
          "name": "royaltyBps",
          "type": "uint16"
        },
        {
          "indexed": false,
          "internalType": "address",
          "name": "recipient",
          "type": "address"
        },
        {
          "indexed": false,
          "internalType": "string",
          "name": "uriPrefix",
          "type": "string"
        }
      ],
      "name": "DropCreated",
      "type": "event"
    },
    {
      "inputs": [
        {
          "internalType": "address",
          "name": "",
          "type": "address"
        },
        {
          "internalType": "uint16",
          "name": "",
          "type": "uint16"
        }
      ],
      "name": "baseTokenURIs",
      "outputs": [
        {
          "internalType": "string",
          "name": "",
          "type": "string"
        }
      ],
      "stateMutability": "view",
      "type": "function"
    },
    {
      "inputs": [
        {
          "internalType": "uint16",
          "name": "sequenceId",
          "type": "uint16"
        },
        {
          "components": [
            {
              "internalType": "uint64",
              "name": "sealedBeforeTimestamp",
              "type": "uint64"
            },
            {
              "internalType": "uint64",
              "name": "sealedAfterTimestamp",
              "type": "uint64"
            },
            {
              "internalType": "uint64",
              "name": "maxSupply",
              "type": "uint64"
            },
            {
              "internalType": "uint64",
              "name": "minted",
              "type": "uint64"
            },
            {
              "internalType": "contract IEngine",
              "name": "engine",
              "type": "address"
            },
            {
              "internalType": "uint64",
              "name": "dropNodeId",
              "type": "uint64"
            }
          ],
          "internalType": "struct SequenceData",
          "name": "",
          "type": "tuple"
        },
        {
          "internalType": "bytes",
          "name": "engineData",
          "type": "bytes"
        }
      ],
      "name": "configureSequence",
      "outputs": [],
      "stateMutability": "nonpayable",
      "type": "function"
    },
    {
      "inputs": [
        {
          "internalType": "address",
          "name": "",
          "type": "address"
        },
        {
          "internalType": "uint16",
          "name": "",
          "type": "uint16"
        }
      ],
      "name": "drops",
      "outputs": [
        {
          "internalType": "uint80",
          "name": "price",
          "type": "uint80"
        },
        {
          "internalType": "uint16",
          "name": "royaltyBps",
          "type": "uint16"
        },
        {
          "internalType": "address payable",
          "name": "revenueRecipient",
          "type": "address"
        }
      ],
      "stateMutability": "view",
      "type": "function"
    },
    {
      "inputs": [
        {
          "internalType": "address",
          "name": "collection",
          "type": "address"
        },
        {
          "internalType": "uint256",
          "name": "tokenId",
          "type": "uint256"
        },
        {
          "internalType": "uint256",
          "name": "salePrice",
          "type": "uint256"
        }
      ],
      "name": "getRoyaltyInfo",
      "outputs": [
        {
          "internalType": "address",
          "name": "",
          "type": "address"
        },
        {
          "internalType": "uint256",
          "name": "",
          "type": "uint256"
        }
      ],
      "stateMutability": "view",
      "type": "function"
    },
    {
      "inputs": [
        {
          "internalType": "address",
          "name": "collection",
          "type": "address"
        },
        {
          "internalType": "uint256",
          "name": "tokenId",
          "type": "uint256"
        }
      ],
      "name": "getTokenURI",
      "outputs": [
        {
          "internalType": "string",
          "name": "",
          "type": "string"
        }
      ],
      "stateMutability": "view",
      "type": "function"
    },
    {
      "inputs": [
        {
          "internalType": "contract ICollection",
          "name": "collection",
          "type": "address"
        },
        {
          "internalType": "uint16",
          "name": "sequenceId",
          "type": "uint16"
        }
      ],
      "name": "mint",
      "outputs": [
        {
          "internalType": "uint256",
          "name": "tokenId",
          "type": "uint256"
        }
      ],
      "stateMutability": "payable",
      "type": "function"
    }
  ],
  "bytecode": "0x608060405234801561001057600080fd5b50610d5e806100206000396000f3fe6080604052600436106100555760003560e01c80630b63fd621461005a57806322a5c8d01461009057806336de9742146100b25780639b46c29f146100f1578063ad0be4bd14610111578063f746f01f14610132575b600080fd5b34801561006657600080fd5b5061007a61007536600461084c565b6101bf565b60405161008791906108d4565b60405180910390f35b34801561009c57600080fd5b506100b06100ab3660046108fe565b610303565b005b3480156100be57600080fd5b506100d26100cd36600461099b565b6104a8565b604080516001600160a01b039093168352602083019190915201610087565b3480156100fd57600080fd5b5061007a61010c3660046109d0565b6105a6565b61012461011f3660046109d0565b61064b565b604051908152602001610087565b34801561013e57600080fd5b5061018e61014d3660046109d0565b60006020818152928152604080822090935290815220546001600160501b03811690600160501b810461ffff1690600160601b90046001600160a01b031683565b604080516001600160501b03909416845261ffff90921660208401526001600160a01b031690820152606001610087565b6040516305b5acb960e31b8152600481018290526060906000906001600160a01b03851690632dad65c890602401602060405180830381865afa15801561020a573d6000803e3d6000fd5b505050506040513d601f19601f8201168201806040525081019061022e9190610a09565b604051633aa9eee560e21b8152600481018590529091506000906001600160a01b0386169063eaa7bb9490602401602060405180830381865afa158015610279573d6000803e3d6000fd5b505050506040513d601f19601f8201168201806040525081019061029d9190610a3b565b6001600160a01b038616600090815260016020908152604080832061ffff8716845290915290209091506102d96001600160501b038316610757565b6040516020016102ea929190610aae565b6040516020818303038152906040529250505092915050565b600080808061031485870187610b7e565b93509350935093506040518060600160405280856001600160501b031681526020018461ffff168152602001836001600160a01b0316815250600080336001600160a01b03166001600160a01b0316815260200190815260200160002060008a61ffff1661ffff16815260200190815260200160002060008201518160000160006101000a8154816001600160501b0302191690836001600160501b03160217905550602082015181600001600a6101000a81548161ffff021916908361ffff160217905550604082015181600001600c6101000a8154816001600160a01b0302191690836001600160a01b031602179055509050508060016000336001600160a01b03166001600160a01b0316815260200190815260200160002060008a61ffff1661ffff168152602001908152602001600020908051906020019061045c92919061079b565b507fb439b024bcda02b0710dee1372f852dd3488bb1e150af291210e06d517eaa3b133898686868660405161049696959493929190610c67565b60405180910390a15050505050505050565b6000806000856001600160a01b0316632dad65c8866040518263ffffffff1660e01b81526004016104db91815260200190565b602060405180830381865afa1580156104f8573d6000803e3d6000fd5b505050506040513d601f19601f8201168201806040525081019061051c9190610a09565b6001600160a01b0380881660009081526020818152604080832061ffff808716855290835292819020815160608101835290546001600160501b0381168252600160501b8104909416928101839052600160601b909304909316928201839052929350916127109061058e9088610cc0565b6105989190610ced565b935093505050935093915050565b6001602090815260009283526040808420909152908252902080546105ca90610a58565b80601f01602080910402602001604051908101604052809291908181526020018280546105f690610a58565b80156106435780601f1061061857610100808354040283529160200191610643565b820191906000526020600020905b81548152906001019060200180831161062657829003601f168201915b505050505081565b6001600160a01b03821660009081526020818152604080832061ffff85168452909152812080546001600160501b0316341461069a57604051636992e1ff60e01b815260040160405180910390fd5b604051636342747b60e01b815233600482015261ffff841660248201526001600160a01b03851690636342747b906044016020604051808303816000875af11580156106ea573d6000803e3d6000fd5b505050506040513d601f19601f8201168201806040525081019061070e9190610d0f565b81546040519193506001600160a01b03600160601b90910416903480156108fc02916000818181858888f1935050505015801561074f573d6000803e3d6000fd5b505092915050565b606060a06040510180604052602081039150506000815280825b600183039250600a81066030018353600a9004806107715750819003601f19909101908152919050565b8280546107a790610a58565b90600052602060002090601f0160209004810192826107c9576000855561080f565b82601f106107e257805160ff191683800117855561080f565b8280016001018555821561080f579182015b8281111561080f5782518255916020019190600101906107f4565b5061081b92915061081f565b5090565b5b8082111561081b5760008155600101610820565b6001600160a01b038116811461084957600080fd5b50565b6000806040838503121561085f57600080fd5b823561086a81610834565b946020939093013593505050565b60005b8381101561089357818101518382015260200161087b565b838111156108a2576000848401525b50505050565b600081518084526108c0816020860160208601610878565b601f01601f19169290920160200192915050565b6020815260006108e760208301846108a8565b9392505050565b61ffff8116811461084957600080fd5b60008060008084860361010081121561091657600080fd5b8535610921816108ee565b945060c0601f198201121561093557600080fd5b5060208501925060e085013567ffffffffffffffff8082111561095757600080fd5b818701915087601f83011261096b57600080fd5b81358181111561097a57600080fd5b88602082850101111561098c57600080fd5b95989497505060200194505050565b6000806000606084860312156109b057600080fd5b83356109bb81610834565b95602085013595506040909401359392505050565b600080604083850312156109e357600080fd5b82356109ee81610834565b915060208301356109fe816108ee565b809150509250929050565b600060208284031215610a1b57600080fd5b81516108e7816108ee565b6001600160501b038116811461084957600080fd5b600060208284031215610a4d57600080fd5b81516108e781610a26565b600181811c90821680610a6c57607f821691505b602082108103610a8c57634e487b7160e01b600052602260045260246000fd5b50919050565b60008151610aa4818560208601610878565b9290920192915050565b600080845481600182811c915080831680610aca57607f831692505b60208084108203610ae957634e487b7160e01b86526022600452602486fd5b818015610afd5760018114610b0e57610b3b565b60ff19861689528489019650610b3b565b60008b81526020902060005b86811015610b335781548b820152908501908301610b1a565b505084890196505b505050505050610b5f610b4e8286610a92565b64173539b7b760d91b815260050190565b95945050505050565b634e487b7160e01b600052604160045260246000fd5b60008060008060808587031215610b9457600080fd5b8435610b9f81610a26565b93506020850135610baf816108ee565b92506040850135610bbf81610834565b9150606085013567ffffffffffffffff80821115610bdc57600080fd5b818701915087601f830112610bf057600080fd5b813581811115610c0257610c02610b68565b604051601f8201601f19908116603f01168101908382118183101715610c2a57610c2a610b68565b816040528281528a6020848701011115610c4357600080fd5b82602086016020830137600060208483010152809550505050505092959194509250565b6001600160a01b03878116825261ffff87811660208401526001600160501b0387166040840152851660608301528316608082015260c060a08201819052600090610cb4908301846108a8565b98975050505050505050565b6000816000190483118215151615610ce857634e487b7160e01b600052601160045260246000fd5b500290565b600082610d0a57634e487b7160e01b600052601260045260246000fd5b500490565b600060208284031215610d2157600080fd5b505191905056fea264697066735822122087d70dab121a0f968305875ba6874752b6a0cbc93b0df5a6ca0cb0b6dfa4532764736f6c634300080d0033",
  "linkReferences": {},
  "deployedLinkReferences": {}
}