{
  "_format": "hh-sol-artifact-1",
  "contractName": "DropEngineV2",
  "sourceName": "contracts/engines/DropEngineV2.sol",
  "abi": [
    {
      "inputs": [
        {
          "internalType": "address",
          "name": "_contractOwner",
          "type": "address"
        },
        {
          "internalType": "contract INodeRegistry",
          "name": "_nodeRegistry",
          "type": "address"
        }
      ],
      "stateMutability": "nonpayable",
      "type": "constructor"
    },
    {
      "inputs": [],
      "name": "CouldNotTransferEth",
      "type": "error"
    },
    {
      "inputs": [],
      "name": "IncorrectPaymentAmount",
      "type": "error"
    },
    {
      "inputs": [],
      "name": "InvalidMintAmount",
      "type": "error"
    },
    {
      "inputs": [],
      "name": "InvalidPriceOrRecipient",
      "type": "error"
    },
    {
      "inputs": [],
      "name": "InvalidPrimarySaleFee",
      "type": "error"
    },
    {
      "inputs": [],
      "name": "InvalidRoyaltyBps",
      "type": "error"
    },
    {
      "inputs": [],
      "name": "MinterMustBeEOA",
      "type": "error"
    },
    {
      "anonymous": false,
      "inputs": [
        {
          "indexed": false,
          "internalType": "address",
          "name": "collection",
          "type": "address"
        },
        {
          "indexed": false,
          "internalType": "uint16",
          "name": "sequenceId",
          "type": "uint16"
        },
        {
          "components": [
            {
              "internalType": "uint32",
              "name": "priceUnits",
              "type": "uint32"
            },
            {
              "internalType": "uint16",
              "name": "royaltyBps",
              "type": "uint16"
            },
            {
              "internalType": "bool",
              "name": "allowContractMints",
              "type": "bool"
            },
            {
              "internalType": "bool",
              "name": "randomizeMetadataVariants",
              "type": "bool"
            },
            {
              "internalType": "uint8",
              "name": "maxRecordsPerTransaction",
              "type": "uint8"
            },
            {
              "internalType": "address",
              "name": "revenueRecipient",
              "type": "address"
            },
            {
              "internalType": "uint16",
              "name": "primarySaleFeeBps",
              "type": "uint16"
            },
            {
              "internalType": "uint32",
              "name": "priceUnitsDecayPerDay",
              "type": "uint32"
            },
            {
              "internalType": "uint64",
              "name": "decayStopTimestamp",
              "type": "uint64"
            }
          ],
          "indexed": false,
          "internalType": "struct DropData",
          "name": "dropData",
          "type": "tuple"
        }
      ],
      "name": "DropCreated",
      "type": "event"
    },
    {
      "anonymous": false,
      "inputs": [
        {
          "indexed": true,
          "internalType": "address",
          "name": "user",
          "type": "address"
        },
        {
          "indexed": true,
          "internalType": "address",
          "name": "newOwner",
          "type": "address"
        }
      ],
      "name": "OwnershipTransferred",
      "type": "event"
    },
    {
      "anonymous": false,
      "inputs": [
        {
          "indexed": false,
          "internalType": "uint16",
          "name": "primarySaleFeeBps",
          "type": "uint16"
        }
      ],
      "name": "PrimarySaleFeeSet",
      "type": "event"
    },
    {
      "inputs": [
        {
          "internalType": "address",
          "name": "",
          "type": "address"
        },
        {
          "internalType": "uint16",
          "name": "",
          "type": "uint16"
        }
      ],
      "name": "baseTokenURIs",
      "outputs": [
        {
          "internalType": "string",
          "name": "",
          "type": "string"
        }
      ],
      "stateMutability": "view",
      "type": "function"
    },
    {
      "inputs": [
        {
          "internalType": "uint16",
          "name": "sequenceId",
          "type": "uint16"
        },
        {
          "components": [
            {
              "internalType": "uint64",
              "name": "sealedBeforeTimestamp",
              "type": "uint64"
            },
            {
              "internalType": "uint64",
              "name": "sealedAfterTimestamp",
              "type": "uint64"
            },
            {
              "internalType": "uint64",
              "name": "maxSupply",
              "type": "uint64"
            },
            {
              "internalType": "uint64",
              "name": "minted",
              "type": "uint64"
            },
            {
              "internalType": "contract IEngine",
              "name": "engine",
              "type": "address"
            },
            {
              "internalType": "uint64",
              "name": "dropNodeId",
              "type": "uint64"
            }
          ],
          "internalType": "struct SequenceData",
          "name": "",
          "type": "tuple"
        },
        {
          "internalType": "bytes",
          "name": "engineData",
          "type": "bytes"
        }
      ],
      "name": "configureSequence",
      "outputs": [],
      "stateMutability": "nonpayable",
      "type": "function"
    },
    {
      "inputs": [
        {
          "internalType": "address",
          "name": "",
          "type": "address"
        },
        {
          "internalType": "uint16",
          "name": "",
          "type": "uint16"
        }
      ],
      "name": "drops",
      "outputs": [
        {
          "internalType": "uint32",
          "name": "priceUnits",
          "type": "uint32"
        },
        {
          "internalType": "uint16",
          "name": "royaltyBps",
          "type": "uint16"
        },
        {
          "internalType": "bool",
          "name": "allowContractMints",
          "type": "bool"
        },
        {
          "internalType": "bool",
          "name": "randomizeMetadataVariants",
          "type": "bool"
        },
        {
          "internalType": "uint8",
          "name": "maxRecordsPerTransaction",
          "type": "uint8"
        },
        {
          "internalType": "address",
          "name": "revenueRecipient",
          "type": "address"
        },
        {
          "internalType": "uint16",
          "name": "primarySaleFeeBps",
          "type": "uint16"
        },
        {
          "internalType": "uint32",
          "name": "priceUnitsDecayPerDay",
          "type": "uint32"
        },
        {
          "internalType": "uint64",
          "name": "decayStopTimestamp",
          "type": "uint64"
        }
      ],
      "stateMutability": "view",
      "type": "function"
    },
    {
      "inputs": [
        {
          "internalType": "address",
          "name": "collection",
          "type": "address"
        },
        {
          "internalType": "uint256",
          "name": "tokenId",
          "type": "uint256"
        },
        {
          "internalType": "uint256",
          "name": "salePrice",
          "type": "uint256"
        }
      ],
      "name": "getRoyaltyInfo",
      "outputs": [
        {
          "internalType": "address",
          "name": "",
          "type": "address"
        },
        {
          "internalType": "uint256",
          "name": "",
          "type": "uint256"
        }
      ],
      "stateMutability": "view",
      "type": "function"
    },
    {
      "inputs": [
        {
          "internalType": "address",
          "name": "collection",
          "type": "address"
        },
        {
          "internalType": "uint256",
          "name": "tokenId",
          "type": "uint256"
        }
      ],
      "name": "getStoredMetadataVariant",
      "outputs": [
        {
          "components": [
            {
              "internalType": "string",
              "name": "name",
              "type": "string"
            },
            {
              "internalType": "string",
              "name": "description",
              "type": "string"
            },
            {
              "internalType": "string",
              "name": "image",
              "type": "string"
            },
            {
              "internalType": "string",
              "name": "external_url",
              "type": "string"
            },
            {
              "internalType": "string",
              "name": "metalabel_record_variant_name",
              "type": "string"
            },
            {
              "internalType": "string",
              "name": "metalabel_release_metadata_uri",
              "type": "string"
            },
            {
              "internalType": "uint16[]",
              "name": "metalabel_record_contents",
              "type": "uint16[]"
            },
            {
              "components": [
                {
                  "internalType": "string",
                  "name": "trait_type",
                  "type": "string"
                },
                {
                  "internalType": "string",
                  "name": "value",
                  "type": "string"
                }
              ],
              "internalType": "struct NFTMetadataAttribute[]",
              "name": "attributes",
              "type": "tuple[]"
            }
          ],
          "internalType": "struct NFTMetadata",
          "name": "metadata",
          "type": "tuple"
        }
      ],
      "stateMutability": "view",
      "type": "function"
    },
    {
      "inputs": [
        {
          "internalType": "address",
          "name": "collection",
          "type": "address"
        },
        {
          "internalType": "uint256",
          "name": "tokenId",
          "type": "uint256"
        }
      ],
      "name": "getTokenURI",
      "outputs": [
        {
          "internalType": "string",
          "name": "tokenURI",
          "type": "string"
        }
      ],
      "stateMutability": "view",
      "type": "function"
    },
    {
      "inputs": [
        {
          "internalType": "address",
          "name": "",
          "type": "address"
        },
        {
          "internalType": "uint16",
          "name": "",
          "type": "uint16"
        }
      ],
      "name": "metadataStoragePointers",
      "outputs": [
        {
          "internalType": "address",
          "name": "",
          "type": "address"
        }
      ],
      "stateMutability": "view",
      "type": "function"
    },
    {
      "inputs": [
        {
          "internalType": "contract ICollection",
          "name": "collection",
          "type": "address"
        },
        {
          "internalType": "uint16",
          "name": "sequenceId",
          "type": "uint16"
        },
        {
          "internalType": "uint8",
          "name": "count",
          "type": "uint8"
        }
      ],
      "name": "mint",
      "outputs": [
        {
          "internalType": "uint256",
          "name": "tokenId",
          "type": "uint256"
        }
      ],
      "stateMutability": "payable",
      "type": "function"
    },
    {
      "inputs": [
        {
          "internalType": "address",
          "name": "",
          "type": "address"
        },
        {
          "internalType": "uint16",
          "name": "",
          "type": "uint16"
        }
      ],
      "name": "mintAuthorities",
      "outputs": [
        {
          "internalType": "address",
          "name": "",
          "type": "address"
        }
      ],
      "stateMutability": "view",
      "type": "function"
    },
    {
      "inputs": [],
      "name": "nodeRegistry",
      "outputs": [
        {
          "internalType": "contract INodeRegistry",
          "name": "",
          "type": "address"
        }
      ],
      "stateMutability": "view",
      "type": "function"
    },
    {
      "inputs": [],
      "name": "owner",
      "outputs": [
        {
          "internalType": "address",
          "name": "",
          "type": "address"
        }
      ],
      "stateMutability": "view",
      "type": "function"
    },
    {
      "inputs": [],
      "name": "primarySaleFeeBps",
      "outputs": [
        {
          "internalType": "uint16",
          "name": "",
          "type": "uint16"
        }
      ],
      "stateMutability": "view",
      "type": "function"
    },
    {
      "inputs": [
        {
          "internalType": "uint16",
          "name": "fee",
          "type": "uint16"
        }
      ],
      "name": "setPrimarySaleFeeBps",
      "outputs": [],
      "stateMutability": "nonpayable",
      "type": "function"
    },
    {
      "inputs": [
        {
          "internalType": "address",
          "name": "newOwner",
          "type": "address"
        }
      ],
      "name": "transferOwnership",
      "outputs": [],
      "stateMutability": "nonpayable",
      "type": "function"
    },
    {
      "inputs": [],
      "name": "withdrawFees",
      "outputs": [],
      "stateMutability": "nonpayable",
      "type": "function"
    }
  ],
  "bytecode": "0x60a06040523480156200001157600080fd5b506040516200349d3803806200349d8339810160408190526200003491620000a9565b600080546001600160a01b0319166001600160a01b03841690811782556040518492907f8be0079c531659141344cd1fd0a4f28419497f9722a3daafe3b4186f6b6457e0908290a3506001600160a01b031660805250620000e8565b6001600160a01b0381168114620000a657600080fd5b50565b60008060408385031215620000bd57600080fd5b8251620000ca8162000090565b6020840151909250620000dd8162000090565b809150509250929050565b6080516133926200010b60003960008181610292015261090201526133926000f3fe6080604052600436106100e85760003560e01c80639b46c29f1161008a578063f11c801c11610059578063f11c801c146102e1578063f2c565db14610302578063f2fde38b14610343578063f746f01f1461036357600080fd5b80639b46c29f14610240578063cfd88a3614610260578063d9b5c4a514610280578063e2892087146102b457600080fd5b806322a5c8d0116100c657806322a5c8d0146101aa57806336de9742146101cc578063476343ee1461020b5780638da5cb5b1461022057600080fd5b80630b63fd62146100ed5780630c8caf9a14610123578063161822931461017c575b600080fd5b3480156100f957600080fd5b5061010d610108366004611c50565b610483565b60405161011a9190611ccc565b60405180910390f35b34801561012f57600080fd5b5061016461013e366004611d01565b60046020908152600092835260408084209091529082529020546001600160a01b031681565b6040516001600160a01b03909116815260200161011a565b34801561018857600080fd5b506005546101979061ffff1681565b60405161ffff909116815260200161011a565b3480156101b657600080fd5b506101ca6101c5366004611d3a565b61099b565b005b3480156101d857600080fd5b506101ec6101e7366004611dd7565b610c74565b604080516001600160a01b03909316835260208301919091520161011a565b34801561021757600080fd5b506101ca610de8565b34801561022c57600080fd5b50600054610164906001600160a01b031681565b34801561024c57600080fd5b5061010d61025b366004611d01565b610e5f565b34801561026c57600080fd5b506101ca61027b366004611e0c565b610f04565b34801561028c57600080fd5b506101647f000000000000000000000000000000000000000000000000000000000000000081565b3480156102c057600080fd5b506102d46102cf366004611c50565b610fdc565b60405161011a9190611fb8565b6102f46102ef366004611fdc565b611250565b60405190815260200161011a565b34801561030e57600080fd5b5061016461031d366004611d01565b60036020908152600092835260408084209091529082529020546001600160a01b031681565b34801561034f57600080fd5b506101ca61035e366004612023565b611670565b34801561036f57600080fd5b5061041561037e366004611d01565b60016020818152600093845260408085209091529183529120805491015463ffffffff8083169261ffff64010000000080830482169460ff660100000000000085048116956701000000000000008604821695680100000000000000008104909216946001600160a01b03690100000000000000000084041694600160e81b90930416929081169167ffffffffffffffff91041689565b6040805163ffffffff9a8b16815261ffff998a16602082015297151590880152941515606087015260ff9390931660808601526001600160a01b039190911660a085015290931660c08301529190921660e083015267ffffffffffffffff166101008201526101200161011a565b6040516305b5acb960e31b8152600481018290526060906000906001600160a01b03851690632dad65c890602401602060405180830381865afa1580156104ce573d6000803e3d6000fd5b505050506040513d601f19601f820116820180604052508101906104f29190612040565b604051633aa9eee560e21b8152600481018590529091506000906001600160a01b0386169063eaa7bb9490602401602060405180830381865afa15801561053d573d6000803e3d6000fd5b505050506040513d601f19601f82011682018060405250810190610561919061205d565b6040517fef65403c00000000000000000000000000000000000000000000000000000000815261ffff841660048201529091506000906001600160a01b0387169063ef65403c9060240160c060405180830381865afa1580156105c8573d6000803e3d6000fd5b505050506040513d601f19601f820116820180604052508101906105ec9190612157565b905060006105fa8787610fdc565b90506000826040015167ffffffffffffffff16600014610665576106298469ffffffffffffffffffff16611711565b610640846040015167ffffffffffffffff16611711565b60405160200161065192919061221e565b60405160208183030381529060405261067a565b61067a8469ffffffffffffffffffff16611711565b9050600081836080015160008560e0015151116106a657604051806020016040528060008152506106c2565b60405180604001604052806002815260200161016160f51b8152505b6040516020016106d493929190612276565b604051602081830303815290604052905060005b8360e00151518110156107aa578160008211610713576040518060200160405280600081525061072f565b60405180604001604052806002815260200161016160f51b8152505b8560e00151838151811061074557610745612367565b6020026020010151600001518660e00151848151811061076757610767612367565b602002602001015160200151604051602001610786949392919061237d565b604051602081830303815290604052915080806107a29061244d565b9150506106e8565b5060408051808201909152600181527f5b00000000000000000000000000000000000000000000000000000000000000602082015260005b8460c00151518110156108bf578161081a8660c00151838151811061080957610809612367565b602002602001015161ffff16611711565b60018760c001515161082c9190612466565b83146108525760405180604001604052806002815260200161016160f51b815250610889565b6040518060400160405280600181526020017f5d000000000000000000000000000000000000000000000000000000000000008152505b60405160200161089b93929190612479565b604051602081830303815290604052915080806108b79061244d565b9150506107e2565b5060008460000151848660200151876040015188606001516040516020016108eb9594939291906124bc565b6040516020818303038152906040529050806109317f00000000000000000000000000000000000000000000000000000000000000006001600160a01b0316601461181a565b86608001518760a0015185876040516020016109529695949392919061262a565b604051602081830303815290604052905061096c816119e8565b60405160200161097c91906127c8565b6040516020818303038152906040529850505050505050505092915050565b6000806109aa83850185612bff565b60a082015182519294509092506001600160a01b03161563ffffffff9091161514610a01576040517ff1c970d100000000000000000000000000000000000000000000000000000000815260040160405180910390fd5b612710826020015161ffff161115610a45576040517f2568952000000000000000000000000000000000000000000000000000000000815260040160405180910390fd5b60055461ffff1660c0830152604051610a7a90610a66908390602001612cf3565b604051602081830303815290604052611b3b565b33600081815260046020908152604080832061ffff808d1680865291845282852080546001600160a01b0398891673ffffffffffffffffffffffffffffffffffffffff1990911617905585855260018085528386209286529184529382902088518154948a01518a85015160608c015160808d015160a08e015160c08f01518b16600160e81b027fff0000ffffffffffffffffffffffffffffffffffffffffffffffffffffffffff91909d166901000000000000000000027fffffff0000000000000000000000000000000000000000ffffffffffffffffff60ff939093166801000000000000000002929092167fffffff000000000000000000000000000000000000000000ffffffffffffffff9315156701000000000000000267ff00000000000000199515156601000000000000029590951667ffff0000000000001996909c1664010000000090810265ffffffffffff19909c1663ffffffff988916179b909b17959095169a909a17929092171691909117179590951696909617865560e08801519501805461010089015167ffffffffffffffff169093026bffffffffffffffffffffffff19909316959093169490941717905590517f8a7bcc8e1b1d4759df53c1eb54c615accefa6bb993f57ee484a246b56225b46991610c649189908690612d55565b60405180910390a1505050505050565b6000806000856001600160a01b0316632dad65c8866040518263ffffffff1660e01b8152600401610ca791815260200190565b602060405180830381865afa158015610cc4573d6000803e3d6000fd5b505050506040513d601f19601f82011682018060405250810190610ce89190612040565b6001600160a01b03878116600090815260016020818152604080842061ffff878116865290835293819020815161012081018352815463ffffffff808216835264010000000080830489169684018790526601000000000000830460ff908116151596850196909652670100000000000000830486161515606085015268010000000000000000830490951660808401526901000000000000000000820490981660a08301819052600160e81b90910490961660c082015293015494851660e084015290930467ffffffffffffffff166101008201529293509061271090610dd09088612e1c565b610dda9190612e49565b935093505050935093915050565b600080546040516001600160a01b039091169047908381818185875af1925050503d8060008114610e35576040519150601f19603f3d011682016040523d82523d6000602084013e610e3a565b606091505b5050905080610e5c57604051634917cec360e11b815260040160405180910390fd5b50565b600260209081526000928352604080842090915290825290208054610e8390612e5d565b80601f0160208091040260200160405190810160405280929190818152602001828054610eaf90612e5d565b8015610efc5780601f10610ed157610100808354040283529160200191610efc565b820191906000526020600020905b815481529060010190602001808311610edf57829003601f168201915b505050505081565b6000546001600160a01b03163314610f525760405162461bcd60e51b815260206004820152600c60248201526b15539055551213d49256915160a21b60448201526064015b60405180910390fd5b6127108161ffff161115610f92576040517f62ce3dcd00000000000000000000000000000000000000000000000000000000815260040160405180910390fd5b6005805461ffff191661ffff83169081179091556040519081527fc26f8db1267f65723040652d335ca099d7f37fb82ee03cb67ee19bc815b5fd959060200160405180910390a150565b61102460405180610100016040528060608152602001606081526020016060815260200160608152602001606081526020016060815260200160608152602001606081525090565b6040516305b5acb960e31b8152600481018390526000906001600160a01b03851690632dad65c890602401602060405180830381865afa15801561106c573d6000803e3d6000fd5b505050506040513d601f19601f820116820180604052508101906110909190612040565b604051633aa9eee560e21b8152600481018590529091506000906001600160a01b0386169063eaa7bb9490602401602060405180830381865afa1580156110db573d6000803e3d6000fd5b505050506040513d601f19601f820116820180604052508101906110ff919061205d565b6001600160a01b03808716600090815260046020908152604080832061ffff88168452909152812054929350916111369116611bec565b806020019051810190611149919061301f565b90506000815160018461115c919061320f565b69ffffffffffffffffffff166111729190613239565b6001600160a01b038816600090815260016020908152604080832061ffff89168452909152902054909150670100000000000000900460ff161561122a5781516040516bffffffffffffffffffffffff1960608a901b1660208201527fffffffffffffffffffff0000000000000000000000000000000000000000000060b086901b166034820152603e8101889052605e016040516020818303038152906040528051906020012060001c6112279190613239565b90505b81818151811061123c5761123c612367565b602002602001015194505050505092915050565b6001600160a01b038316600090815260016020908152604080832061ffff86168452909152812080546601000000000000900460ff161580156112935750333214155b156112ca576040517ff000bcf600000000000000000000000000000000000000000000000000000000815260040160405180910390fd5b805468010000000000000000900460ff16158015906112fc5750805460ff680100000000000000009091048116908416115b15611333576040517fccfad01800000000000000000000000000000000000000000000000000000000815260040160405180910390fd5b6001810154600090640100000000900467ffffffffffffffff16421061135a57600061137c565b600182015461137c904290640100000000900467ffffffffffffffff1661324d565b60018301548354919250600091620151809167ffffffffffffffff85169163ffffffff918216916113b591655af3107a40009116612e1c565b6113bf9190612e1c565b6113c99190612e1c565b6113d39190612e49565b835490915060009082906113f490655af3107a40009063ffffffff16612e1c565b6113fe919061326e565b9050600061140f60ff881683612e1c565b90508034101561144b576040517f6992e1ff00000000000000000000000000000000000000000000000000000000815260040160405180910390fd5b60005b8760ff16811015611511576040517f6342747b00000000000000000000000000000000000000000000000000000000815233600482015261ffff8a1660248201526000906001600160a01b038c1690636342747b906044016020604051808303816000875af11580156114c5573d6000803e3d6000fd5b505050506040513d601f19601f820116820180604052508101906114e99190613281565b9050876000036114f957806114fb565b875b97505080806115099061244d565b91505061144e565b5084546000906127109061153090600160e81b900461ffff1684612e1c565b61153a9190612e49565b6115449083612466565b90506000823411611556576000611560565b6115608334612466565b905080156115d357604051600090339083908381818185875af1925050503d80600081146115aa576040519150601f19603f3d011682016040523d82523d6000602084013e6115af565b606091505b50509050806115d157604051634917cec360e11b815260040160405180910390fd5b505b865463ffffffff1615611662578654604051600091690100000000000000000090046001600160a01b03169084908381818185875af1925050503d8060008114611639576040519150601f19603f3d011682016040523d82523d6000602084013e61163e565b606091505b505090508061166057604051634917cec360e11b815260040160405180910390fd5b505b505050505050509392505050565b6000546001600160a01b031633146116b95760405162461bcd60e51b815260206004820152600c60248201526b15539055551213d49256915160a21b6044820152606401610f49565b6000805473ffffffffffffffffffffffffffffffffffffffff19166001600160a01b0383169081178255604051909133917f8be0079c531659141344cd1fd0a4f28419497f9722a3daafe3b4186f6b6457e09190a350565b6060816000036117385750506040805180820190915260018152600360fc1b602082015290565b8160005b8115611762578061174c8161244d565b915061175b9050600a83612e49565b915061173c565b60008167ffffffffffffffff81111561177d5761177d612089565b6040519080825280601f01601f1916602001820160405280156117a7576020820181803683370190505b5090505b8415611812576117bc600183612466565b91506117c9600a86613239565b6117d490603061326e565b60f81b8183815181106117e9576117e9612367565b60200101906001600160f81b031916908160001a90535061180b600a86612e49565b94506117ab565b949350505050565b60606000611829836002612e1c565b61183490600261326e565b67ffffffffffffffff81111561184c5761184c612089565b6040519080825280601f01601f191660200182016040528015611876576020820181803683370190505b509050600360fc1b8160008151811061189157611891612367565b60200101906001600160f81b031916908160001a9053507f7800000000000000000000000000000000000000000000000000000000000000816001815181106118dc576118dc612367565b60200101906001600160f81b031916908160001a9053506000611900846002612e1c565b61190b90600161326e565b90505b6001811115611990577f303132333435363738396162636465660000000000000000000000000000000085600f166010811061194c5761194c612367565b1a60f81b82828151811061196257611962612367565b60200101906001600160f81b031916908160001a90535060049490941c936119898161329a565b905061190e565b5083156119df5760405162461bcd60e51b815260206004820181905260248201527f537472696e67733a20686578206c656e67746820696e73756666696369656e746044820152606401610f49565b90505b92915050565b60608151600003611a0757505060408051602081019091526000815290565b600060405180606001604052806040815260200161331d6040913990506000600384516002611a36919061326e565b611a409190612e49565b611a4b906004612e1c565b67ffffffffffffffff811115611a6357611a63612089565b6040519080825280601f01601f191660200182016040528015611a8d576020820181803683370190505b509050600182016020820185865187015b80821015611af9576003820191508151603f8160121c168501518453600184019350603f81600c1c168501518453600184019350603f8160061c168501518453600184019350603f8116850151845350600183019250611a9e565b5050600386510660018114611b155760028114611b2857611b30565b603d6001830353603d6002830353611b30565b603d60018303535b509195945050505050565b60008082604051602001611b4f91906132b1565b6040516020818303038152906040529050600081604051602001611b7391906132d7565b60405160208183030381529060405290508051602082016000f092506001600160a01b038316611be55760405162461bcd60e51b815260206004820152601160248201527f4445504c4f594d454e545f4641494c45440000000000000000000000000000006044820152606401610f49565b5050919050565b60606119e2826001611c08816001600160a01b0384163b612466565b60408051603f8301601f19168101909152818152818360208301863c9392505050565b6001600160a01b0381168114610e5c57600080fd5b8035611c4b81611c2b565b919050565b60008060408385031215611c6357600080fd5b8235611c6e81611c2b565b946020939093013593505050565b60005b83811015611c97578181015183820152602001611c7f565b50506000910152565b60008151808452611cb8816020860160208601611c7c565b601f01601f19169290920160200192915050565b602081526000611cdf6020830184611ca0565b9392505050565b61ffff81168114610e5c57600080fd5b8035611c4b81611ce6565b60008060408385031215611d1457600080fd5b8235611d1f81611c2b565b91506020830135611d2f81611ce6565b809150509250929050565b600080600080848603610100811215611d5257600080fd5b8535611d5d81611ce6565b945060c0601f1982011215611d7157600080fd5b5060208501925060e085013567ffffffffffffffff80821115611d9357600080fd5b818701915087601f830112611da757600080fd5b813581811115611db657600080fd5b886020828501011115611dc857600080fd5b95989497505060200194505050565b600080600060608486031215611dec57600080fd5b8335611df781611c2b565b95602085013595506040909401359392505050565b600060208284031215611e1e57600080fd5b81356119df81611ce6565b600081518084526020808501945080840160005b83811015611e5d57815161ffff1687529582019590820190600101611e3d565b509495945050505050565b600081518084526020808501808196508360051b8101915082860160005b85811015611ed6578284038952815160408151818752611ea882880182611ca0565b91505086820151915085810387870152611ec28183611ca0565b9a87019a9550505090840190600101611e86565b5091979650505050505050565b60006101008251818552611ef982860182611ca0565b91505060208301518482036020860152611f138282611ca0565b91505060408301518482036040860152611f2d8282611ca0565b91505060608301518482036060860152611f478282611ca0565b91505060808301518482036080860152611f618282611ca0565b91505060a083015184820360a0860152611f7b8282611ca0565b91505060c083015184820360c0860152611f958282611e29565b91505060e083015184820360e0860152611faf8282611e68565b95945050505050565b602081526000611cdf6020830184611ee3565b803560ff81168114611c4b57600080fd5b600080600060608486031215611ff157600080fd5b8335611ffc81611c2b565b9250602084013561200c81611ce6565b915061201a60408501611fcb565b90509250925092565b60006020828403121561203557600080fd5b81356119df81611c2b565b60006020828403121561205257600080fd5b81516119df81611ce6565b60006020828403121561206f57600080fd5b815169ffffffffffffffffffff811681146119df57600080fd5b634e487b7160e01b600052604160045260246000fd5b6040805190810167ffffffffffffffff811182821017156120c2576120c2612089565b60405290565b604051610100810167ffffffffffffffff811182821017156120c2576120c2612089565b604051610120810167ffffffffffffffff811182821017156120c2576120c2612089565b604051601f8201601f1916810167ffffffffffffffff8111828210171561213957612139612089565b604052919050565b67ffffffffffffffff81168114610e5c57600080fd5b600060c0828403121561216957600080fd5b60405160c0810181811067ffffffffffffffff8211171561218c5761218c612089565b604052825161219a81612141565b815260208301516121aa81612141565b602082015260408301516121bd81612141565b604082015260608301516121d081612141565b606082015260808301516121e381611c2b565b608082015260a08301516121f681612141565b60a08201529392505050565b60008151612214818560208601611c7c565b9290920192915050565b60008351612230818460208801611c7c565b7f2f00000000000000000000000000000000000000000000000000000000000000908301908152835161226a816001840160208801611c7c565b01600101949350505050565b7f7b2274726169745f74797065223a20225265636f72642045646974696f6e222c81527f202276616c7565223a20220000000000000000000000000000000000000000006020820152600084516122d481602b850160208901611c7c565b7f227d2c207b2274726169745f74797065223a20225265636f7264205661726961602b918401918201527f6e74222c202276616c7565223a20220000000000000000000000000000000000604b820152845161233781605a840160208901611c7c565b61227d60f01b605a9290910191820152835161235a81605c840160208801611c7c565b01605c0195945050505050565b634e487b7160e01b600052603260045260246000fd5b6000855161238f818460208a01611c7c565b8551908301906123a3818360208a01611c7c565b7f7b2274726169745f74797065223a202200000000000000000000000000000000910190815284516123dc816010840160208901611c7c565b7f222c202276616c7565223a20220000000000000000000000000000000000000060109290910191820152835161241a81601d840160208801611c7c565b61227d60f01b601d9290910191820152601f019695505050505050565b634e487b7160e01b600052601160045260246000fd5b60006001820161245f5761245f612437565b5060010190565b818103818111156119e2576119e2612437565b6000845161248b818460208901611c7c565b84519083019061249f818360208901611c7c565b84519101906124b2818360208801611c7c565b0195945050505050565b7f7b226e616d65223a2200000000000000000000000000000000000000000000008152600086516124f4816009850160208b01611c7c565b7f2000000000000000000000000000000000000000000000000000000000000000600991840191820152865161253181600a840160208b01611c7c565b7f222c20226465736372697074696f6e223a220000000000000000000000000000600a9290910191820152855161256f81601c840160208a01611c7c565b7f222c2022696d616765223a202200000000000000000000000000000000000000601c929091019182015284516125ad816029840160208901611c7c565b7f222c202265787465726e616c5f75726c223a20220000000000000000000000006029929091019182015283516125eb81603d840160208801611c7c565b61261d603d828401017f222c200000000000000000000000000000000000000000000000000000000000815260030190565b9998505050505050505050565b60008751602061263d8285838d01611c7c565b7f226d6574616c6162656c223a207b20226e6f64655f72656769737472795f61649184019182527f6472657373223a2022000000000000000000000000000000000000000000000081830152885161269b81602985018c8501611c7c565b7f222c20227265636f72645f76617269616e745f6e616d65223a202200000000006029939091019283015287516126d88160448501848c01611c7c565b7f222c202272656c656173655f6d657461646174615f757269223a2022000000006044939091019283015286516127158160608501848b01611c7c565b7f222c20227265636f72645f636f6e74656e7473223a20000000000000000000006060939091019283015285516127528160768501848a01611c7c565b6127b961279061278a6076848701017f7d2c202261747472696275746573223a205b0000000000000000000000000000815260120190565b88612202565b7f5d7d000000000000000000000000000000000000000000000000000000000000815260020190565b9b9a5050505050505050505050565b7f646174613a6170706c69636174696f6e2f6a736f6e3b6261736536342c00000081526000825161280081601d850160208701611c7c565b91909101601d0192915050565b803563ffffffff81168114611c4b57600080fd5b80358015158114611c4b57600080fd5b8035611c4b81612141565b600067ffffffffffffffff82111561285657612856612089565b5060051b60200190565b600067ffffffffffffffff82111561287a5761287a612089565b50601f01601f191660200190565b600082601f83011261289957600080fd5b81356128ac6128a782612860565b612110565b8181528460208386010111156128c157600080fd5b816020850160208301376000918101602001919091529392505050565b600082601f8301126128ef57600080fd5b813560206128ff6128a78361283c565b82815260059290921b8401810191818101908684111561291e57600080fd5b8286015b8481101561294257803561293581611ce6565b8352918301918301612922565b509695505050505050565b600082601f83011261295e57600080fd5b8135602061296e6128a78361283c565b82815260059290921b8401810191818101908684111561298d57600080fd5b8286015b8481101561294257803567ffffffffffffffff808211156129b25760008081fd5b908801906040828b03601f19018113156129cc5760008081fd5b6129d461209f565b87840135838111156129e65760008081fd5b6129f48d8a83880101612888565b825250908301359082821115612a0a5760008081fd5b612a188c8984870101612888565b818901528652505050918301918301612991565b600082601f830112612a3d57600080fd5b81356020612a4d6128a78361283c565b82815260059290921b84018101918181019086841115612a6c57600080fd5b8286015b8481101561294257803567ffffffffffffffff80821115612a915760008081fd5b90880190610100828b03601f1901811315612aac5760008081fd5b612ab46120c8565b8784013583811115612ac65760008081fd5b612ad48d8a83880101612888565b82525060408085013584811115612aeb5760008081fd5b612af98e8b83890101612888565b8a8401525060608086013585811115612b125760008081fd5b612b208f8c838a0101612888565b8385015250608091508186013585811115612b3b5760008081fd5b612b498f8c838a0101612888565b82850152505060a08086013585811115612b635760008081fd5b612b718f8c838a0101612888565b838501525060c091508186013585811115612b8c5760008081fd5b612b9a8f8c838a0101612888565b82850152505060e08086013585811115612bb45760008081fd5b612bc28f8c838a01016128de565b8484015250928501359284841115612bdc57600091508182fd5b612bea8e8b8689010161294d565b90830152508652505050918301918301612a70565b600080828403610140811215612c1457600080fd5b61012080821215612c2457600080fd5b612c2c6120ec565b9150612c378561280d565b8252612c4560208601611cf6565b6020830152612c5660408601612821565b6040830152612c6760608601612821565b6060830152612c7860808601611fcb565b6080830152612c8960a08601611c40565b60a0830152612c9a60c08601611cf6565b60c0830152612cab60e0860161280d565b60e0830152610100612cbe818701612831565b9083015290925083013567ffffffffffffffff811115612cdd57600080fd5b612ce985828601612a2c565b9150509250929050565b6000602080830181845280855180835260408601915060408160051b870101925083870160005b82811015612d4857603f19888603018452612d36858351611ee3565b94509285019290850190600101612d1a565b5092979650505050505050565b6000610160820190506001600160a01b038516825261ffff808516602084015263ffffffff8451166040840152806020850151166060840152506040830151612da2608084018215159052565b50606083015180151560a084015250608083015160ff811660c08401525060a08301516001600160a01b03811660e08401525060c0830151610100612dec8185018361ffff169052565b60e085015163ffffffff166101208501529093015167ffffffffffffffff16610140909201919091529392505050565b80820281158282048414176119e2576119e2612437565b634e487b7160e01b600052601260045260246000fd5b600082612e5857612e58612e33565b500490565b600181811c90821680612e7157607f821691505b602082108103612e9157634e487b7160e01b600052602260045260246000fd5b50919050565b600082601f830112612ea857600080fd5b8151612eb66128a782612860565b818152846020838601011115612ecb57600080fd5b611812826020830160208701611c7c565b600082601f830112612eed57600080fd5b81516020612efd6128a78361283c565b82815260059290921b84018101918181019086841115612f1c57600080fd5b8286015b84811015612942578051612f3381611ce6565b8352918301918301612f20565b600082601f830112612f5157600080fd5b81516020612f616128a78361283c565b82815260059290921b84018101918181019086841115612f8057600080fd5b8286015b8481101561294257805167ffffffffffffffff80821115612fa55760008081fd5b908801906040828b03601f1901811315612fbf5760008081fd5b612fc761209f565b8784015183811115612fd95760008081fd5b612fe78d8a83880101612e97565b825250908301519082821115612ffd5760008081fd5b61300b8c8984870101612e97565b818901528652505050918301918301612f84565b6000602080838503121561303257600080fd5b825167ffffffffffffffff8082111561304a57600080fd5b818501915085601f83011261305e57600080fd5b815161306c6128a78261283c565b81815260059190911b8301840190848101908883111561308b57600080fd5b8585015b83811015613202578051858111156130a657600080fd5b8601610100818c03601f19018113156130be57600080fd5b6130c66120c8565b89830151888111156130d757600080fd5b6130e58e8c83870101612e97565b8252506040830151888111156130fa57600080fd5b6131088e8c83870101612e97565b8b8301525060608301518881111561311f57600080fd5b61312d8e8c83870101612e97565b60408301525060808301518881111561314557600080fd5b6131538e8c83870101612e97565b60608301525060a08301518881111561316b57600080fd5b6131798e8c83870101612e97565b60808301525060c0830151888111156131925760008081fd5b6131a08e8c83870101612e97565b60a08301525060e080840151898111156131ba5760008081fd5b6131c88f8d83880101612edc565b60c0840152509183015191888311156131e15760008081fd5b6131ef8e8c85870101612f40565b908201528552505091860191860161308f565b5098975050505050505050565b69ffffffffffffffffffff82811682821603908082111561323257613232612437565b5092915050565b60008261324857613248612e33565b500690565b67ffffffffffffffff82811682821603908082111561323257613232612437565b808201808211156119e2576119e2612437565b60006020828403121561329357600080fd5b5051919050565b6000816132a9576132a9612437565b506000190190565b60008152600082516132ca816001850160208701611c7c565b9190910160010192915050565b7f600b5981380380925939f300000000000000000000000000000000000000000081526000825161330f81600b850160208701611c7c565b91909101600b019291505056fe4142434445464748494a4b4c4d4e4f505152535455565758595a6162636465666768696a6b6c6d6e6f707172737475767778797a303132333435363738392b2fa2646970667358221220934a10908a4324ae2b842c81b3b36b511ce46678d70c9530a33245e7fc06210b64736f6c63430008110033",
  "linkReferences": {},
  "deployedLinkReferences": {}
}