{
  "_format": "hh-sol-artifact-1",
  "contractName": "DropEngineV2",
  "sourceName": "contracts/engines/DropEngineV2.sol",
  "abi": [
    {
      "inputs": [
        {
          "internalType": "address",
          "name": "_contractOwner",
          "type": "address"
        },
        {
          "internalType": "contract INodeRegistry",
          "name": "_nodeRegistry",
          "type": "address"
        }
      ],
      "stateMutability": "nonpayable",
      "type": "constructor"
    },
    {
      "inputs": [],
      "name": "CouldNotTransferEth",
      "type": "error"
    },
    {
      "inputs": [],
      "name": "IncorrectPaymentAmount",
      "type": "error"
    },
    {
      "inputs": [],
      "name": "InvalidMintAmount",
      "type": "error"
    },
    {
      "inputs": [],
      "name": "InvalidPriceDecayConfig",
      "type": "error"
    },
    {
      "inputs": [],
      "name": "InvalidPriceOrRecipient",
      "type": "error"
    },
    {
      "inputs": [],
      "name": "InvalidPrimarySaleFee",
      "type": "error"
    },
    {
      "inputs": [],
      "name": "InvalidRoyaltyBps",
      "type": "error"
    },
    {
      "inputs": [],
      "name": "MinterMustBeEOA",
      "type": "error"
    },
    {
      "anonymous": false,
      "inputs": [
        {
          "indexed": false,
          "internalType": "address",
          "name": "collection",
          "type": "address"
        },
        {
          "indexed": false,
          "internalType": "uint16",
          "name": "sequenceId",
          "type": "uint16"
        },
        {
          "components": [
            {
              "internalType": "uint96",
              "name": "price",
              "type": "uint96"
            },
            {
              "internalType": "uint16",
              "name": "royaltyBps",
              "type": "uint16"
            },
            {
              "internalType": "bool",
              "name": "allowContractMints",
              "type": "bool"
            },
            {
              "internalType": "bool",
              "name": "randomizeMetadataVariants",
              "type": "bool"
            },
            {
              "internalType": "uint8",
              "name": "maxRecordsPerTransaction",
              "type": "uint8"
            },
            {
              "internalType": "address",
              "name": "revenueRecipient",
              "type": "address"
            },
            {
              "internalType": "uint16",
              "name": "primarySaleFeeBps",
              "type": "uint16"
            },
            {
              "internalType": "uint96",
              "name": "priceDecayPerDay",
              "type": "uint96"
            },
            {
              "internalType": "uint64",
              "name": "decayStopTimestamp",
              "type": "uint64"
            }
          ],
          "indexed": false,
          "internalType": "struct DropData",
          "name": "dropData",
          "type": "tuple"
        }
      ],
      "name": "DropCreated",
      "type": "event"
    },
    {
      "anonymous": false,
      "inputs": [
        {
          "indexed": true,
          "internalType": "address",
          "name": "user",
          "type": "address"
        },
        {
          "indexed": true,
          "internalType": "address",
          "name": "newOwner",
          "type": "address"
        }
      ],
      "name": "OwnershipTransferred",
      "type": "event"
    },
    {
      "anonymous": false,
      "inputs": [
        {
          "indexed": false,
          "internalType": "uint16",
          "name": "primarySaleFeeBps",
          "type": "uint16"
        }
      ],
      "name": "PrimarySaleFeeSet",
      "type": "event"
    },
    {
      "inputs": [
        {
          "internalType": "address",
          "name": "",
          "type": "address"
        },
        {
          "internalType": "uint16",
          "name": "",
          "type": "uint16"
        }
      ],
      "name": "baseTokenURIs",
      "outputs": [
        {
          "internalType": "string",
          "name": "",
          "type": "string"
        }
      ],
      "stateMutability": "view",
      "type": "function"
    },
    {
      "inputs": [
        {
          "internalType": "uint16",
          "name": "sequenceId",
          "type": "uint16"
        },
        {
          "components": [
            {
              "internalType": "uint64",
              "name": "sealedBeforeTimestamp",
              "type": "uint64"
            },
            {
              "internalType": "uint64",
              "name": "sealedAfterTimestamp",
              "type": "uint64"
            },
            {
              "internalType": "uint64",
              "name": "maxSupply",
              "type": "uint64"
            },
            {
              "internalType": "uint64",
              "name": "minted",
              "type": "uint64"
            },
            {
              "internalType": "contract IEngine",
              "name": "engine",
              "type": "address"
            },
            {
              "internalType": "uint64",
              "name": "dropNodeId",
              "type": "uint64"
            }
          ],
          "internalType": "struct SequenceData",
          "name": "",
          "type": "tuple"
        },
        {
          "internalType": "bytes",
          "name": "engineData",
          "type": "bytes"
        }
      ],
      "name": "configureSequence",
      "outputs": [],
      "stateMutability": "nonpayable",
      "type": "function"
    },
    {
      "inputs": [
        {
          "internalType": "contract ICollection",
          "name": "collection",
          "type": "address"
        },
        {
          "internalType": "uint16",
          "name": "sequenceId",
          "type": "uint16"
        }
      ],
      "name": "currentPrice",
      "outputs": [
        {
          "internalType": "uint256",
          "name": "unitPrice",
          "type": "uint256"
        }
      ],
      "stateMutability": "view",
      "type": "function"
    },
    {
      "inputs": [
        {
          "internalType": "address",
          "name": "",
          "type": "address"
        },
        {
          "internalType": "uint16",
          "name": "",
          "type": "uint16"
        }
      ],
      "name": "drops",
      "outputs": [
        {
          "internalType": "uint96",
          "name": "price",
          "type": "uint96"
        },
        {
          "internalType": "uint16",
          "name": "royaltyBps",
          "type": "uint16"
        },
        {
          "internalType": "bool",
          "name": "allowContractMints",
          "type": "bool"
        },
        {
          "internalType": "bool",
          "name": "randomizeMetadataVariants",
          "type": "bool"
        },
        {
          "internalType": "uint8",
          "name": "maxRecordsPerTransaction",
          "type": "uint8"
        },
        {
          "internalType": "address",
          "name": "revenueRecipient",
          "type": "address"
        },
        {
          "internalType": "uint16",
          "name": "primarySaleFeeBps",
          "type": "uint16"
        },
        {
          "internalType": "uint96",
          "name": "priceDecayPerDay",
          "type": "uint96"
        },
        {
          "internalType": "uint64",
          "name": "decayStopTimestamp",
          "type": "uint64"
        }
      ],
      "stateMutability": "view",
      "type": "function"
    },
    {
      "inputs": [
        {
          "internalType": "address",
          "name": "collection",
          "type": "address"
        },
        {
          "internalType": "uint256",
          "name": "tokenId",
          "type": "uint256"
        },
        {
          "internalType": "uint256",
          "name": "salePrice",
          "type": "uint256"
        }
      ],
      "name": "getRoyaltyInfo",
      "outputs": [
        {
          "internalType": "address",
          "name": "",
          "type": "address"
        },
        {
          "internalType": "uint256",
          "name": "",
          "type": "uint256"
        }
      ],
      "stateMutability": "view",
      "type": "function"
    },
    {
      "inputs": [
        {
          "internalType": "address",
          "name": "collection",
          "type": "address"
        },
        {
          "internalType": "uint256",
          "name": "tokenId",
          "type": "uint256"
        }
      ],
      "name": "getStoredMetadataVariant",
      "outputs": [
        {
          "components": [
            {
              "internalType": "string",
              "name": "name",
              "type": "string"
            },
            {
              "internalType": "string",
              "name": "description",
              "type": "string"
            },
            {
              "internalType": "string",
              "name": "image",
              "type": "string"
            },
            {
              "internalType": "string",
              "name": "external_url",
              "type": "string"
            },
            {
              "internalType": "string",
              "name": "metalabel_record_variant_name",
              "type": "string"
            },
            {
              "internalType": "string",
              "name": "metalabel_release_metadata_uri",
              "type": "string"
            },
            {
              "internalType": "uint16[]",
              "name": "metalabel_record_contents",
              "type": "uint16[]"
            },
            {
              "components": [
                {
                  "internalType": "string",
                  "name": "trait_type",
                  "type": "string"
                },
                {
                  "internalType": "string",
                  "name": "value",
                  "type": "string"
                }
              ],
              "internalType": "struct NFTMetadataAttribute[]",
              "name": "attributes",
              "type": "tuple[]"
            }
          ],
          "internalType": "struct NFTMetadata",
          "name": "metadata",
          "type": "tuple"
        }
      ],
      "stateMutability": "view",
      "type": "function"
    },
    {
      "inputs": [
        {
          "internalType": "address",
          "name": "collection",
          "type": "address"
        },
        {
          "internalType": "uint256",
          "name": "tokenId",
          "type": "uint256"
        }
      ],
      "name": "getTokenURI",
      "outputs": [
        {
          "internalType": "string",
          "name": "tokenURI",
          "type": "string"
        }
      ],
      "stateMutability": "view",
      "type": "function"
    },
    {
      "inputs": [
        {
          "internalType": "address",
          "name": "",
          "type": "address"
        },
        {
          "internalType": "uint16",
          "name": "",
          "type": "uint16"
        }
      ],
      "name": "metadataStoragePointers",
      "outputs": [
        {
          "internalType": "address",
          "name": "",
          "type": "address"
        }
      ],
      "stateMutability": "view",
      "type": "function"
    },
    {
      "inputs": [
        {
          "internalType": "contract ICollection",
          "name": "collection",
          "type": "address"
        },
        {
          "internalType": "uint16",
          "name": "sequenceId",
          "type": "uint16"
        },
        {
          "internalType": "uint8",
          "name": "count",
          "type": "uint8"
        }
      ],
      "name": "mint",
      "outputs": [
        {
          "internalType": "uint256",
          "name": "tokenId",
          "type": "uint256"
        }
      ],
      "stateMutability": "payable",
      "type": "function"
    },
    {
      "inputs": [
        {
          "internalType": "address",
          "name": "",
          "type": "address"
        },
        {
          "internalType": "uint16",
          "name": "",
          "type": "uint16"
        }
      ],
      "name": "mintAuthorities",
      "outputs": [
        {
          "internalType": "address",
          "name": "",
          "type": "address"
        }
      ],
      "stateMutability": "view",
      "type": "function"
    },
    {
      "inputs": [],
      "name": "nodeRegistry",
      "outputs": [
        {
          "internalType": "contract INodeRegistry",
          "name": "",
          "type": "address"
        }
      ],
      "stateMutability": "view",
      "type": "function"
    },
    {
      "inputs": [],
      "name": "owner",
      "outputs": [
        {
          "internalType": "address",
          "name": "",
          "type": "address"
        }
      ],
      "stateMutability": "view",
      "type": "function"
    },
    {
      "inputs": [],
      "name": "primarySaleFeeBps",
      "outputs": [
        {
          "internalType": "uint16",
          "name": "",
          "type": "uint16"
        }
      ],
      "stateMutability": "view",
      "type": "function"
    },
    {
      "inputs": [
        {
          "internalType": "uint16",
          "name": "fee",
          "type": "uint16"
        }
      ],
      "name": "setPrimarySaleFeeBps",
      "outputs": [],
      "stateMutability": "nonpayable",
      "type": "function"
    },
    {
      "inputs": [],
      "name": "transferFeesToOwner",
      "outputs": [],
      "stateMutability": "nonpayable",
      "type": "function"
    },
    {
      "inputs": [
        {
          "internalType": "address",
          "name": "newOwner",
          "type": "address"
        }
      ],
      "name": "transferOwnership",
      "outputs": [],
      "stateMutability": "nonpayable",
      "type": "function"
    }
  ],
  "bytecode": "0x60a06040523480156200001157600080fd5b5060405162003570380380620035708339810160408190526200003491620000a9565b600080546001600160a01b0319166001600160a01b03841690811782556040518492907f8be0079c531659141344cd1fd0a4f28419497f9722a3daafe3b4186f6b6457e0908290a3506001600160a01b031660805250620000e8565b6001600160a01b0381168114620000a657600080fd5b50565b60008060408385031215620000bd57600080fd5b8251620000ca8162000090565b6020840151909250620000dd8162000090565b809150509250929050565b6080516134656200010b600039600081816102cb015261092e01526134656000f3fe6080604052600436106100f35760003560e01c8063b1e8d9701161008a578063f11c801c11610059578063f11c801c1461031a578063f2c565db1461032d578063f2fde38b1461036e578063f746f01f1461038e57600080fd5b8063b1e8d97014610284578063cfd88a3614610299578063d9b5c4a5146102b9578063e2892087146102ed57600080fd5b806336de9742116100c657806336de9742146101d7578063502493c1146102165780638da5cb5b146102445780639b46c29f1461026457600080fd5b80630b63fd62146100f85780630c8caf9a1461012e578063161822931461018757806322a5c8d0146101b5575b600080fd5b34801561010457600080fd5b50610118610113366004611d0b565b6104af565b6040516101259190611d87565b60405180910390f35b34801561013a57600080fd5b5061016f610149366004611dbc565b60046020908152600092835260408084209091529082529020546001600160a01b031681565b6040516001600160a01b039091168152602001610125565b34801561019357600080fd5b506005546101a29061ffff1681565b60405161ffff9091168152602001610125565b3480156101c157600080fd5b506101d56101d0366004611df5565b6109c7565b005b3480156101e357600080fd5b506101f76101f2366004611e92565b610d27565b604080516001600160a01b039093168352602083019190915201610125565b34801561022257600080fd5b50610236610231366004611dbc565b610e90565b604051908152602001610125565b34801561025057600080fd5b5060005461016f906001600160a01b031681565b34801561027057600080fd5b5061011861027f366004611dbc565b610f62565b34801561029057600080fd5b506101d5611007565b3480156102a557600080fd5b506101d56102b4366004611ec7565b61107e565b3480156102c557600080fd5b5061016f7f000000000000000000000000000000000000000000000000000000000000000081565b3480156102f957600080fd5b5061030d610308366004611d0b565b611156565b6040516101259190612073565b610236610328366004612097565b6113e7565b34801561033957600080fd5b5061016f610348366004611dbc565b60036020908152600092835260408084209091529082529020546001600160a01b031681565b34801561037a57600080fd5b506101d56103893660046120de565b61172b565b34801561039a57600080fd5b506104396103a9366004611dbc565b600160208181526000938452604080852090915291835291208054918101546002909101546bffffffffffffffffffffffff8084169361ffff600160601b80830482169560ff600160701b8504811696600160781b8604821696600160801b909604909116946001600160a01b03831694600160a01b909304909216929181169167ffffffffffffffff91041689565b604080516bffffffffffffffffffffffff9a8b16815261ffff998a16602082015297151590880152941515606087015260ff9390931660808601526001600160a01b039190911660a085015290931660c08301529190921660e083015267ffffffffffffffff1661010082015261012001610125565b6040516305b5acb960e31b8152600481018290526060906000906001600160a01b03851690632dad65c890602401602060405180830381865afa1580156104fa573d6000803e3d6000fd5b505050506040513d601f19601f8201168201806040525081019061051e91906120fb565b604051633aa9eee560e21b8152600481018590529091506000906001600160a01b0386169063eaa7bb9490602401602060405180830381865afa158015610569573d6000803e3d6000fd5b505050506040513d601f19601f8201168201806040525081019061058d9190612118565b6040517fef65403c00000000000000000000000000000000000000000000000000000000815261ffff841660048201529091506000906001600160a01b0387169063ef65403c9060240160c060405180830381865afa1580156105f4573d6000803e3d6000fd5b505050506040513d601f19601f820116820180604052508101906106189190612212565b905060006106268787611156565b90506000826040015167ffffffffffffffff16600014610691576106558469ffffffffffffffffffff166117cc565b61066c846040015167ffffffffffffffff166117cc565b60405160200161067d9291906122d9565b6040516020818303038152906040526106a6565b6106a68469ffffffffffffffffffff166117cc565b9050600081836080015160008560e0015151116106d257604051806020016040528060008152506106ee565b60405180604001604052806002815260200161016160f51b8152505b60405160200161070093929190612331565b604051602081830303815290604052905060005b8360e00151518110156107d657816000821161073f576040518060200160405280600081525061075b565b60405180604001604052806002815260200161016160f51b8152505b8560e00151838151811061077157610771612422565b6020026020010151600001518660e00151848151811061079357610793612422565b6020026020010151602001516040516020016107b29493929190612438565b604051602081830303815290604052915080806107ce90612508565b915050610714565b5060408051808201909152600181527f5b00000000000000000000000000000000000000000000000000000000000000602082015260005b8460c00151518110156108eb57816108468660c00151838151811061083557610835612422565b602002602001015161ffff166117cc565b60018760c00151516108589190612521565b831461087e5760405180604001604052806002815260200161016160f51b8152506108b5565b6040518060400160405280600181526020017f5d000000000000000000000000000000000000000000000000000000000000008152505b6040516020016108c793929190612534565b604051602081830303815290604052915080806108e390612508565b91505061080e565b506000846000015184866020015187604001518860600151604051602001610917959493929190612577565b60405160208183030381529060405290508061095d7f00000000000000000000000000000000000000000000000000000000000000006001600160a01b031660146118d5565b86608001518760a00151858760405160200161097e969594939291906126e5565b604051602081830303815290604052905061099881611aa3565b6040516020016109a89190612883565b6040516020818303038152906040529850505050505050505092915050565b6000806109d683850185612cc2565b60a082015182519294509092506001600160a01b0316156bffffffffffffffffffffffff9091161514610a35576040517ff1c970d100000000000000000000000000000000000000000000000000000000815260040160405180910390fd5b61010082015167ffffffffffffffff1615801590610a6157504282610100015167ffffffffffffffff16105b15610a7f5760405163564646d560e11b815260040160405180910390fd5b60e082015161010083015167ffffffffffffffff16156bffffffffffffffffffffffff9091161514610ac45760405163564646d560e11b815260040160405180910390fd5b612710826020015161ffff161115610b08576040517f2568952000000000000000000000000000000000000000000000000000000000815260040160405180910390fd5b60055461ffff1660c0830152604051610b3d90610b29908390602001612db6565b604051602081830303815290604052611bf6565b33600081815260046020908152604080832061ffff808d1680865291845282852080546001600160a01b0398891673ffffffffffffffffffffffffffffffffffffffff199182161790915586865260018086528487209387529285529483902089518154958b01518b86015160608d015160808e015160ff16600160801b027fffffffffffffffffffffffffffffff00ffffffffffffffffffffffffffffffff911515600160781b027fffffffffffffffffffffffffffffffff00ffffffffffffffffffffffffffffff931515600160701b02939093167fffffffffffffffffffffffffffffffff0000ffffffffffffffffffffffffffff948816600160601b9081026dffffffffffffffffffffffffffff19909c166bffffffffffffffffffffffff978816179b909b179490941693909317919091171617825560a08b0151938201805460c08d0151909416600160a01b0275ffffffffffffffffffffffffffffffffffffffffffff1990941694909916939093179190911790965560e0880151600290960180546101008a015167ffffffffffffffff169094029390941695169490941717905590517fc64b0f1a277fb0efdf2ed63e3c5a529f5c80920863464b9b44695ad9c041fa0a91610d179189908690612e18565b60405180910390a1505050505050565b6000806000856001600160a01b0316632dad65c8866040518263ffffffff1660e01b8152600401610d5a91815260200190565b602060405180830381865afa158015610d77573d6000803e3d6000fd5b505050506040513d601f19601f82011682018060405250810190610d9b91906120fb565b6001600160a01b03878116600090815260016020818152604080842061ffff87811686529083529381902081516101208101835281546bffffffffffffffffffffffff8082168352600160601b8083048916968401879052600160701b830460ff908116151596850196909652600160781b8304861615156060850152600160801b90920490941660808301529482015496871660a08201819052600160a01b90970490951660c08601526002015490811660e08501529190910467ffffffffffffffff166101008301529293509161271090610e789088612eef565b610e829190612f1c565b935093505050935093915050565b6001600160a01b038216600090815260016020908152604080832061ffff85168452909152812060028101548290600160601b900467ffffffffffffffff164210610edc576000610efd565b6002820154610efd904290600160601b900467ffffffffffffffff16612f30565b60028301549091506000906201518090610f309067ffffffffffffffff8516906bffffffffffffffffffffffff16612eef565b610f3a9190612f1c565b8354909150610f589082906bffffffffffffffffffffffff16612f58565b9695505050505050565b600260209081526000928352604080842090915290825290208054610f8690612f6b565b80601f0160208091040260200160405190810160405280929190818152602001828054610fb290612f6b565b8015610fff5780601f10610fd457610100808354040283529160200191610fff565b820191906000526020600020905b815481529060010190602001808311610fe257829003601f168201915b505050505081565b600080546040516001600160a01b039091169047908381818185875af1925050503d8060008114611054576040519150601f19603f3d011682016040523d82523d6000602084013e611059565b606091505b505090508061107b57604051634917cec360e11b815260040160405180910390fd5b50565b6000546001600160a01b031633146110cc5760405162461bcd60e51b815260206004820152600c60248201526b15539055551213d49256915160a21b60448201526064015b60405180910390fd5b6127108161ffff16111561110c576040517f62ce3dcd00000000000000000000000000000000000000000000000000000000815260040160405180910390fd5b6005805461ffff191661ffff83169081179091556040519081527fc26f8db1267f65723040652d335ca099d7f37fb82ee03cb67ee19bc815b5fd959060200160405180910390a150565b61119e60405180610100016040528060608152602001606081526020016060815260200160608152602001606081526020016060815260200160608152602001606081525090565b6040516305b5acb960e31b8152600481018390526000906001600160a01b03851690632dad65c890602401602060405180830381865afa1580156111e6573d6000803e3d6000fd5b505050506040513d601f19601f8201168201806040525081019061120a91906120fb565b604051633aa9eee560e21b8152600481018590529091506000906001600160a01b0386169063eaa7bb9490602401602060405180830381865afa158015611255573d6000803e3d6000fd5b505050506040513d601f19601f820116820180604052508101906112799190612118565b6001600160a01b03808716600090815260046020908152604080832061ffff88168452909152812054929350916112b09116611ca7565b8060200190518101906112c3919061312d565b9050600081516001846112d6919061331d565b69ffffffffffffffffffff166112ec9190613340565b6001600160a01b038816600090815260016020908152604080832061ffff89168452909152902054909150600160781b900460ff16156113c15781516040805160608a811b6bffffffffffffffffffffffff1916602083015260f088901b7fffff00000000000000000000000000000000000000000000000000000000000016603483015260b087901b75ffffffffffffffffffffffffffffffffffffffffffff19166036830152918101899052016040516020818303038152906040528051906020012060001c6113be9190613340565b90505b8181815181106113d3576113d3612422565b602002602001015194505050505092915050565b6001600160a01b038316600090815260016020908152604080832061ffff8616845290915281208054600160701b900460ff161580156114275750333214155b1561145e576040517ff000bcf600000000000000000000000000000000000000000000000000000000815260040160405180910390fd5b8054600160801b900460ff16158015906114865750805460ff600160801b9091048116908416115b156114bd576040517fccfad01800000000000000000000000000000000000000000000000000000000815260040160405180910390fd5b60006114c98686610e90565b905060006114da60ff861683612eef565b905080341015611516576040517f6992e1ff00000000000000000000000000000000000000000000000000000000815260040160405180910390fd5b60005b8560ff168110156115dc576040517f6342747b00000000000000000000000000000000000000000000000000000000815233600482015261ffff881660248201526000906001600160a01b038a1690636342747b906044016020604051808303816000875af1158015611590573d6000803e3d6000fd5b505050506040513d601f19601f820116820180604052508101906115b49190613354565b9050856000036115c457806115c6565b855b95505080806115d490612508565b915050611519565b506001830154600090612710906115fe90600160a01b900461ffff1684612eef565b6116089190612f1c565b6116129083612521565b9050600082341161162457600061162e565b61162e8334612521565b905080156116a157604051600090339083908381818185875af1925050503d8060008114611678576040519150601f19603f3d011682016040523d82523d6000602084013e61167d565b606091505b505090508061169f57604051634917cec360e11b815260040160405180910390fd5b505b811561171f5760018501546040516000916001600160a01b03169084908381818185875af1925050503d80600081146116f6576040519150601f19603f3d011682016040523d82523d6000602084013e6116fb565b606091505b505090508061171d57604051634917cec360e11b815260040160405180910390fd5b505b50505050509392505050565b6000546001600160a01b031633146117745760405162461bcd60e51b815260206004820152600c60248201526b15539055551213d49256915160a21b60448201526064016110c3565b6000805473ffffffffffffffffffffffffffffffffffffffff19166001600160a01b0383169081178255604051909133917f8be0079c531659141344cd1fd0a4f28419497f9722a3daafe3b4186f6b6457e09190a350565b6060816000036117f35750506040805180820190915260018152600360fc1b602082015290565b8160005b811561181d578061180781612508565b91506118169050600a83612f1c565b91506117f7565b60008167ffffffffffffffff81111561183857611838612144565b6040519080825280601f01601f191660200182016040528015611862576020820181803683370190505b5090505b84156118cd57611877600183612521565b9150611884600a86613340565b61188f906030612f58565b60f81b8183815181106118a4576118a4612422565b60200101906001600160f81b031916908160001a9053506118c6600a86612f1c565b9450611866565b949350505050565b606060006118e4836002612eef565b6118ef906002612f58565b67ffffffffffffffff81111561190757611907612144565b6040519080825280601f01601f191660200182016040528015611931576020820181803683370190505b509050600360fc1b8160008151811061194c5761194c612422565b60200101906001600160f81b031916908160001a9053507f78000000000000000000000000000000000000000000000000000000000000008160018151811061199757611997612422565b60200101906001600160f81b031916908160001a90535060006119bb846002612eef565b6119c6906001612f58565b90505b6001811115611a4b577f303132333435363738396162636465660000000000000000000000000000000085600f1660108110611a0757611a07612422565b1a60f81b828281518110611a1d57611a1d612422565b60200101906001600160f81b031916908160001a90535060049490941c93611a448161336d565b90506119c9565b508315611a9a5760405162461bcd60e51b815260206004820181905260248201527f537472696e67733a20686578206c656e67746820696e73756666696369656e7460448201526064016110c3565b90505b92915050565b60608151600003611ac257505060408051602081019091526000815290565b60006040518060600160405280604081526020016133f06040913990506000600384516002611af19190612f58565b611afb9190612f1c565b611b06906004612eef565b67ffffffffffffffff811115611b1e57611b1e612144565b6040519080825280601f01601f191660200182016040528015611b48576020820181803683370190505b509050600182016020820185865187015b80821015611bb4576003820191508151603f8160121c168501518453600184019350603f81600c1c168501518453600184019350603f8160061c168501518453600184019350603f8116850151845350600183019250611b59565b5050600386510660018114611bd05760028114611be357611beb565b603d6001830353603d6002830353611beb565b603d60018303535b509195945050505050565b60008082604051602001611c0a9190613384565b6040516020818303038152906040529050600081604051602001611c2e91906133aa565b60405160208183030381529060405290508051602082016000f092506001600160a01b038316611ca05760405162461bcd60e51b815260206004820152601160248201527f4445504c4f594d454e545f4641494c454400000000000000000000000000000060448201526064016110c3565b5050919050565b6060611a9d826001611cc3816001600160a01b0384163b612521565b60408051603f8301601f19168101909152818152818360208301863c9392505050565b6001600160a01b038116811461107b57600080fd5b8035611d0681611ce6565b919050565b60008060408385031215611d1e57600080fd5b8235611d2981611ce6565b946020939093013593505050565b60005b83811015611d52578181015183820152602001611d3a565b50506000910152565b60008151808452611d73816020860160208601611d37565b601f01601f19169290920160200192915050565b602081526000611d9a6020830184611d5b565b9392505050565b61ffff8116811461107b57600080fd5b8035611d0681611da1565b60008060408385031215611dcf57600080fd5b8235611dda81611ce6565b91506020830135611dea81611da1565b809150509250929050565b600080600080848603610100811215611e0d57600080fd5b8535611e1881611da1565b945060c0601f1982011215611e2c57600080fd5b5060208501925060e085013567ffffffffffffffff80821115611e4e57600080fd5b818701915087601f830112611e6257600080fd5b813581811115611e7157600080fd5b886020828501011115611e8357600080fd5b95989497505060200194505050565b600080600060608486031215611ea757600080fd5b8335611eb281611ce6565b95602085013595506040909401359392505050565b600060208284031215611ed957600080fd5b8135611a9a81611da1565b600081518084526020808501945080840160005b83811015611f1857815161ffff1687529582019590820190600101611ef8565b509495945050505050565b600081518084526020808501808196508360051b8101915082860160005b85811015611f91578284038952815160408151818752611f6382880182611d5b565b91505086820151915085810387870152611f7d8183611d5b565b9a87019a9550505090840190600101611f41565b5091979650505050505050565b60006101008251818552611fb482860182611d5b565b91505060208301518482036020860152611fce8282611d5b565b91505060408301518482036040860152611fe88282611d5b565b915050606083015184820360608601526120028282611d5b565b9150506080830151848203608086015261201c8282611d5b565b91505060a083015184820360a08601526120368282611d5b565b91505060c083015184820360c08601526120508282611ee4565b91505060e083015184820360e086015261206a8282611f23565b95945050505050565b602081526000611d9a6020830184611f9e565b803560ff81168114611d0657600080fd5b6000806000606084860312156120ac57600080fd5b83356120b781611ce6565b925060208401356120c781611da1565b91506120d560408501612086565b90509250925092565b6000602082840312156120f057600080fd5b8135611a9a81611ce6565b60006020828403121561210d57600080fd5b8151611a9a81611da1565b60006020828403121561212a57600080fd5b815169ffffffffffffffffffff81168114611a9a57600080fd5b634e487b7160e01b600052604160045260246000fd5b6040805190810167ffffffffffffffff8111828210171561217d5761217d612144565b60405290565b604051610100810167ffffffffffffffff8111828210171561217d5761217d612144565b604051610120810167ffffffffffffffff8111828210171561217d5761217d612144565b604051601f8201601f1916810167ffffffffffffffff811182821017156121f4576121f4612144565b604052919050565b67ffffffffffffffff8116811461107b57600080fd5b600060c0828403121561222457600080fd5b60405160c0810181811067ffffffffffffffff8211171561224757612247612144565b6040528251612255816121fc565b81526020830151612265816121fc565b60208201526040830151612278816121fc565b6040820152606083015161228b816121fc565b6060820152608083015161229e81611ce6565b608082015260a08301516122b1816121fc565b60a08201529392505050565b600081516122cf818560208601611d37565b9290920192915050565b600083516122eb818460208801611d37565b7f2f000000000000000000000000000000000000000000000000000000000000009083019081528351612325816001840160208801611d37565b01600101949350505050565b7f7b2274726169745f74797065223a20225265636f72642045646974696f6e222c81527f202276616c7565223a202200000000000000000000000000000000000000000060208201526000845161238f81602b850160208901611d37565b7f227d2c207b2274726169745f74797065223a20225265636f7264205661726961602b918401918201527f6e74222c202276616c7565223a20220000000000000000000000000000000000604b82015284516123f281605a840160208901611d37565b61227d60f01b605a9290910191820152835161241581605c840160208801611d37565b01605c0195945050505050565b634e487b7160e01b600052603260045260246000fd5b6000855161244a818460208a01611d37565b85519083019061245e818360208a01611d37565b7f7b2274726169745f74797065223a20220000000000000000000000000000000091019081528451612497816010840160208901611d37565b7f222c202276616c7565223a2022000000000000000000000000000000000000006010929091019182015283516124d581601d840160208801611d37565b61227d60f01b601d9290910191820152601f019695505050505050565b634e487b7160e01b600052601160045260246000fd5b60006001820161251a5761251a6124f2565b5060010190565b81810381811115611a9d57611a9d6124f2565b60008451612546818460208901611d37565b84519083019061255a818360208901611d37565b845191019061256d818360208801611d37565b0195945050505050565b7f7b226e616d65223a2200000000000000000000000000000000000000000000008152600086516125af816009850160208b01611d37565b7f200000000000000000000000000000000000000000000000000000000000000060099184019182015286516125ec81600a840160208b01611d37565b7f222c20226465736372697074696f6e223a220000000000000000000000000000600a9290910191820152855161262a81601c840160208a01611d37565b7f222c2022696d616765223a202200000000000000000000000000000000000000601c92909101918201528451612668816029840160208901611d37565b7f222c202265787465726e616c5f75726c223a20220000000000000000000000006029929091019182015283516126a681603d840160208801611d37565b6126d8603d828401017f222c200000000000000000000000000000000000000000000000000000000000815260030190565b9998505050505050505050565b6000875160206126f88285838d01611d37565b7f226d6574616c6162656c223a207b20226e6f64655f72656769737472795f61649184019182527f6472657373223a2022000000000000000000000000000000000000000000000081830152885161275681602985018c8501611d37565b7f222c20227265636f72645f76617269616e745f6e616d65223a202200000000006029939091019283015287516127938160448501848c01611d37565b7f222c202272656c656173655f6d657461646174615f757269223a2022000000006044939091019283015286516127d08160608501848b01611d37565b7f222c20227265636f72645f636f6e74656e7473223a200000000000000000000060609390910192830152855161280d8160768501848a01611d37565b61287461284b6128456076848701017f7d2c202261747472696275746573223a205b0000000000000000000000000000815260120190565b886122bd565b7f5d7d000000000000000000000000000000000000000000000000000000000000815260020190565b9b9a5050505050505050505050565b7f646174613a6170706c69636174696f6e2f6a736f6e3b6261736536342c0000008152600082516128bb81601d850160208701611d37565b91909101601d0192915050565b80356bffffffffffffffffffffffff81168114611d0657600080fd5b80358015158114611d0657600080fd5b8035611d06816121fc565b600067ffffffffffffffff82111561291957612919612144565b5060051b60200190565b600067ffffffffffffffff82111561293d5761293d612144565b50601f01601f191660200190565b600082601f83011261295c57600080fd5b813561296f61296a82612923565b6121cb565b81815284602083860101111561298457600080fd5b816020850160208301376000918101602001919091529392505050565b600082601f8301126129b257600080fd5b813560206129c261296a836128ff565b82815260059290921b840181019181810190868411156129e157600080fd5b8286015b84811015612a055780356129f881611da1565b83529183019183016129e5565b509695505050505050565b600082601f830112612a2157600080fd5b81356020612a3161296a836128ff565b82815260059290921b84018101918181019086841115612a5057600080fd5b8286015b84811015612a0557803567ffffffffffffffff80821115612a755760008081fd5b908801906040828b03601f1901811315612a8f5760008081fd5b612a9761215a565b8784013583811115612aa95760008081fd5b612ab78d8a8388010161294b565b825250908301359082821115612acd5760008081fd5b612adb8c898487010161294b565b818901528652505050918301918301612a54565b600082601f830112612b0057600080fd5b81356020612b1061296a836128ff565b82815260059290921b84018101918181019086841115612b2f57600080fd5b8286015b84811015612a0557803567ffffffffffffffff80821115612b545760008081fd5b90880190610100828b03601f1901811315612b6f5760008081fd5b612b77612183565b8784013583811115612b895760008081fd5b612b978d8a8388010161294b565b82525060408085013584811115612bae5760008081fd5b612bbc8e8b8389010161294b565b8a8401525060608086013585811115612bd55760008081fd5b612be38f8c838a010161294b565b8385015250608091508186013585811115612bfe5760008081fd5b612c0c8f8c838a010161294b565b82850152505060a08086013585811115612c265760008081fd5b612c348f8c838a010161294b565b838501525060c091508186013585811115612c4f5760008081fd5b612c5d8f8c838a010161294b565b82850152505060e08086013585811115612c775760008081fd5b612c858f8c838a01016129a1565b8484015250928501359284841115612c9f57600091508182fd5b612cad8e8b86890101612a10565b90830152508652505050918301918301612b33565b600080828403610140811215612cd757600080fd5b61012080821215612ce757600080fd5b612cef6121a7565b9150612cfa856128c8565b8252612d0860208601611db1565b6020830152612d19604086016128e4565b6040830152612d2a606086016128e4565b6060830152612d3b60808601612086565b6080830152612d4c60a08601611cfb565b60a0830152612d5d60c08601611db1565b60c0830152612d6e60e086016128c8565b60e0830152610100612d818187016128f4565b9083015290925083013567ffffffffffffffff811115612da057600080fd5b612dac85828601612aef565b9150509250929050565b6000602080830181845280855180835260408601915060408160051b870101925083870160005b82811015612e0b57603f19888603018452612df9858351611f9e565b94509285019290850190600101612ddd565b5092979650505050505050565b6000610160820190506001600160a01b038516825261ffff80851660208401526bffffffffffffffffffffffff8451166040840152806020850151166060840152506040830151612e6d608084018215159052565b50606083015180151560a084015250608083015160ff811660c08401525060a08301516001600160a01b03811660e08401525060c0830151610100612eb78185018361ffff169052565b60e08501516bffffffffffffffffffffffff166101208501529093015167ffffffffffffffff16610140909201919091529392505050565b8082028115828204841417611a9d57611a9d6124f2565b634e487b7160e01b600052601260045260246000fd5b600082612f2b57612f2b612f06565b500490565b67ffffffffffffffff828116828216039080821115612f5157612f516124f2565b5092915050565b80820180821115611a9d57611a9d6124f2565b600181811c90821680612f7f57607f821691505b602082108103612f9f57634e487b7160e01b600052602260045260246000fd5b50919050565b600082601f830112612fb657600080fd5b8151612fc461296a82612923565b818152846020838601011115612fd957600080fd5b6118cd826020830160208701611d37565b600082601f830112612ffb57600080fd5b8151602061300b61296a836128ff565b82815260059290921b8401810191818101908684111561302a57600080fd5b8286015b84811015612a0557805161304181611da1565b835291830191830161302e565b600082601f83011261305f57600080fd5b8151602061306f61296a836128ff565b82815260059290921b8401810191818101908684111561308e57600080fd5b8286015b84811015612a0557805167ffffffffffffffff808211156130b35760008081fd5b908801906040828b03601f19018113156130cd5760008081fd5b6130d561215a565b87840151838111156130e75760008081fd5b6130f58d8a83880101612fa5565b82525090830151908282111561310b5760008081fd5b6131198c8984870101612fa5565b818901528652505050918301918301613092565b6000602080838503121561314057600080fd5b825167ffffffffffffffff8082111561315857600080fd5b818501915085601f83011261316c57600080fd5b815161317a61296a826128ff565b81815260059190911b8301840190848101908883111561319957600080fd5b8585015b83811015613310578051858111156131b457600080fd5b8601610100818c03601f19018113156131cc57600080fd5b6131d4612183565b89830151888111156131e557600080fd5b6131f38e8c83870101612fa5565b82525060408301518881111561320857600080fd5b6132168e8c83870101612fa5565b8b8301525060608301518881111561322d57600080fd5b61323b8e8c83870101612fa5565b60408301525060808301518881111561325357600080fd5b6132618e8c83870101612fa5565b60608301525060a08301518881111561327957600080fd5b6132878e8c83870101612fa5565b60808301525060c0830151888111156132a05760008081fd5b6132ae8e8c83870101612fa5565b60a08301525060e080840151898111156132c85760008081fd5b6132d68f8d83880101612fea565b60c0840152509183015191888311156132ef5760008081fd5b6132fd8e8c8587010161304e565b908201528552505091860191860161319d565b5098975050505050505050565b69ffffffffffffffffffff828116828216039080821115612f5157612f516124f2565b60008261334f5761334f612f06565b500690565b60006020828403121561336657600080fd5b5051919050565b60008161337c5761337c6124f2565b506000190190565b600081526000825161339d816001850160208701611d37565b9190910160010192915050565b7f600b5981380380925939f30000000000000000000000000000000000000000008152600082516133e281600b850160208701611d37565b91909101600b019291505056fe4142434445464748494a4b4c4d4e4f505152535455565758595a6162636465666768696a6b6c6d6e6f707172737475767778797a303132333435363738392b2fa264697066735822122097726fbe7b5ed5aa09bafe650516b40ec4122037d715b83e145c64c74709c7f464736f6c63430008110033",
  "linkReferences": {},
  "deployedLinkReferences": {}
}