{
  "_format": "hh-sol-artifact-1",
  "contractName": "DropEngineV2",
  "sourceName": "contracts/engines/DropEngineV2.sol",
  "abi": [
    {
      "inputs": [
        {
          "internalType": "address",
          "name": "_contractOwner",
          "type": "address"
        },
        {
          "internalType": "contract INodeRegistry",
          "name": "_nodeRegistry",
          "type": "address"
        }
      ],
      "stateMutability": "nonpayable",
      "type": "constructor"
    },
    {
      "inputs": [],
      "name": "CouldNotTransferEth",
      "type": "error"
    },
    {
      "inputs": [],
      "name": "IncorrectPaymentAmount",
      "type": "error"
    },
    {
      "inputs": [],
      "name": "InvalidMintAmount",
      "type": "error"
    },
    {
      "inputs": [],
      "name": "InvalidPriceDecayConfig",
      "type": "error"
    },
    {
      "inputs": [],
      "name": "InvalidPriceOrRecipient",
      "type": "error"
    },
    {
      "inputs": [],
      "name": "InvalidPrimarySaleFee",
      "type": "error"
    },
    {
      "inputs": [],
      "name": "InvalidRoyaltyBps",
      "type": "error"
    },
    {
      "inputs": [],
      "name": "MinterMustBeEOA",
      "type": "error"
    },
    {
      "anonymous": false,
      "inputs": [
        {
          "indexed": false,
          "internalType": "address",
          "name": "collection",
          "type": "address"
        },
        {
          "indexed": false,
          "internalType": "uint16",
          "name": "sequenceId",
          "type": "uint16"
        },
        {
          "components": [
            {
              "internalType": "uint32",
              "name": "priceUnits",
              "type": "uint32"
            },
            {
              "internalType": "uint16",
              "name": "royaltyBps",
              "type": "uint16"
            },
            {
              "internalType": "bool",
              "name": "allowContractMints",
              "type": "bool"
            },
            {
              "internalType": "bool",
              "name": "randomizeMetadataVariants",
              "type": "bool"
            },
            {
              "internalType": "uint8",
              "name": "maxRecordsPerTransaction",
              "type": "uint8"
            },
            {
              "internalType": "address",
              "name": "revenueRecipient",
              "type": "address"
            },
            {
              "internalType": "uint16",
              "name": "primarySaleFeeBps",
              "type": "uint16"
            },
            {
              "internalType": "uint32",
              "name": "priceUnitsDecayPerDay",
              "type": "uint32"
            },
            {
              "internalType": "uint64",
              "name": "decayStopTimestamp",
              "type": "uint64"
            }
          ],
          "indexed": false,
          "internalType": "struct DropData",
          "name": "dropData",
          "type": "tuple"
        }
      ],
      "name": "DropCreated",
      "type": "event"
    },
    {
      "anonymous": false,
      "inputs": [
        {
          "indexed": true,
          "internalType": "address",
          "name": "user",
          "type": "address"
        },
        {
          "indexed": true,
          "internalType": "address",
          "name": "newOwner",
          "type": "address"
        }
      ],
      "name": "OwnershipTransferred",
      "type": "event"
    },
    {
      "anonymous": false,
      "inputs": [
        {
          "indexed": false,
          "internalType": "uint16",
          "name": "primarySaleFeeBps",
          "type": "uint16"
        }
      ],
      "name": "PrimarySaleFeeSet",
      "type": "event"
    },
    {
      "inputs": [
        {
          "internalType": "address",
          "name": "",
          "type": "address"
        },
        {
          "internalType": "uint16",
          "name": "",
          "type": "uint16"
        }
      ],
      "name": "baseTokenURIs",
      "outputs": [
        {
          "internalType": "string",
          "name": "",
          "type": "string"
        }
      ],
      "stateMutability": "view",
      "type": "function"
    },
    {
      "inputs": [
        {
          "internalType": "uint16",
          "name": "sequenceId",
          "type": "uint16"
        },
        {
          "components": [
            {
              "internalType": "uint64",
              "name": "sealedBeforeTimestamp",
              "type": "uint64"
            },
            {
              "internalType": "uint64",
              "name": "sealedAfterTimestamp",
              "type": "uint64"
            },
            {
              "internalType": "uint64",
              "name": "maxSupply",
              "type": "uint64"
            },
            {
              "internalType": "uint64",
              "name": "minted",
              "type": "uint64"
            },
            {
              "internalType": "contract IEngine",
              "name": "engine",
              "type": "address"
            },
            {
              "internalType": "uint64",
              "name": "dropNodeId",
              "type": "uint64"
            }
          ],
          "internalType": "struct SequenceData",
          "name": "",
          "type": "tuple"
        },
        {
          "internalType": "bytes",
          "name": "engineData",
          "type": "bytes"
        }
      ],
      "name": "configureSequence",
      "outputs": [],
      "stateMutability": "nonpayable",
      "type": "function"
    },
    {
      "inputs": [
        {
          "internalType": "contract ICollection",
          "name": "collection",
          "type": "address"
        },
        {
          "internalType": "uint16",
          "name": "sequenceId",
          "type": "uint16"
        }
      ],
      "name": "currentPrice",
      "outputs": [
        {
          "internalType": "uint256",
          "name": "unitPrice",
          "type": "uint256"
        }
      ],
      "stateMutability": "view",
      "type": "function"
    },
    {
      "inputs": [
        {
          "internalType": "address",
          "name": "",
          "type": "address"
        },
        {
          "internalType": "uint16",
          "name": "",
          "type": "uint16"
        }
      ],
      "name": "drops",
      "outputs": [
        {
          "internalType": "uint32",
          "name": "priceUnits",
          "type": "uint32"
        },
        {
          "internalType": "uint16",
          "name": "royaltyBps",
          "type": "uint16"
        },
        {
          "internalType": "bool",
          "name": "allowContractMints",
          "type": "bool"
        },
        {
          "internalType": "bool",
          "name": "randomizeMetadataVariants",
          "type": "bool"
        },
        {
          "internalType": "uint8",
          "name": "maxRecordsPerTransaction",
          "type": "uint8"
        },
        {
          "internalType": "address",
          "name": "revenueRecipient",
          "type": "address"
        },
        {
          "internalType": "uint16",
          "name": "primarySaleFeeBps",
          "type": "uint16"
        },
        {
          "internalType": "uint32",
          "name": "priceUnitsDecayPerDay",
          "type": "uint32"
        },
        {
          "internalType": "uint64",
          "name": "decayStopTimestamp",
          "type": "uint64"
        }
      ],
      "stateMutability": "view",
      "type": "function"
    },
    {
      "inputs": [
        {
          "internalType": "address",
          "name": "collection",
          "type": "address"
        },
        {
          "internalType": "uint256",
          "name": "tokenId",
          "type": "uint256"
        },
        {
          "internalType": "uint256",
          "name": "salePrice",
          "type": "uint256"
        }
      ],
      "name": "getRoyaltyInfo",
      "outputs": [
        {
          "internalType": "address",
          "name": "",
          "type": "address"
        },
        {
          "internalType": "uint256",
          "name": "",
          "type": "uint256"
        }
      ],
      "stateMutability": "view",
      "type": "function"
    },
    {
      "inputs": [
        {
          "internalType": "address",
          "name": "collection",
          "type": "address"
        },
        {
          "internalType": "uint256",
          "name": "tokenId",
          "type": "uint256"
        }
      ],
      "name": "getStoredMetadataVariant",
      "outputs": [
        {
          "components": [
            {
              "internalType": "string",
              "name": "name",
              "type": "string"
            },
            {
              "internalType": "string",
              "name": "description",
              "type": "string"
            },
            {
              "internalType": "string",
              "name": "image",
              "type": "string"
            },
            {
              "internalType": "string",
              "name": "external_url",
              "type": "string"
            },
            {
              "internalType": "string",
              "name": "metalabel_record_variant_name",
              "type": "string"
            },
            {
              "internalType": "string",
              "name": "metalabel_release_metadata_uri",
              "type": "string"
            },
            {
              "internalType": "uint16[]",
              "name": "metalabel_record_contents",
              "type": "uint16[]"
            },
            {
              "components": [
                {
                  "internalType": "string",
                  "name": "trait_type",
                  "type": "string"
                },
                {
                  "internalType": "string",
                  "name": "value",
                  "type": "string"
                }
              ],
              "internalType": "struct NFTMetadataAttribute[]",
              "name": "attributes",
              "type": "tuple[]"
            }
          ],
          "internalType": "struct NFTMetadata",
          "name": "metadata",
          "type": "tuple"
        }
      ],
      "stateMutability": "view",
      "type": "function"
    },
    {
      "inputs": [
        {
          "internalType": "address",
          "name": "collection",
          "type": "address"
        },
        {
          "internalType": "uint256",
          "name": "tokenId",
          "type": "uint256"
        }
      ],
      "name": "getTokenURI",
      "outputs": [
        {
          "internalType": "string",
          "name": "tokenURI",
          "type": "string"
        }
      ],
      "stateMutability": "view",
      "type": "function"
    },
    {
      "inputs": [
        {
          "internalType": "address",
          "name": "",
          "type": "address"
        },
        {
          "internalType": "uint16",
          "name": "",
          "type": "uint16"
        }
      ],
      "name": "metadataStoragePointers",
      "outputs": [
        {
          "internalType": "address",
          "name": "",
          "type": "address"
        }
      ],
      "stateMutability": "view",
      "type": "function"
    },
    {
      "inputs": [
        {
          "internalType": "contract ICollection",
          "name": "collection",
          "type": "address"
        },
        {
          "internalType": "uint16",
          "name": "sequenceId",
          "type": "uint16"
        },
        {
          "internalType": "uint8",
          "name": "count",
          "type": "uint8"
        }
      ],
      "name": "mint",
      "outputs": [
        {
          "internalType": "uint256",
          "name": "tokenId",
          "type": "uint256"
        }
      ],
      "stateMutability": "payable",
      "type": "function"
    },
    {
      "inputs": [
        {
          "internalType": "address",
          "name": "",
          "type": "address"
        },
        {
          "internalType": "uint16",
          "name": "",
          "type": "uint16"
        }
      ],
      "name": "mintAuthorities",
      "outputs": [
        {
          "internalType": "address",
          "name": "",
          "type": "address"
        }
      ],
      "stateMutability": "view",
      "type": "function"
    },
    {
      "inputs": [],
      "name": "nodeRegistry",
      "outputs": [
        {
          "internalType": "contract INodeRegistry",
          "name": "",
          "type": "address"
        }
      ],
      "stateMutability": "view",
      "type": "function"
    },
    {
      "inputs": [],
      "name": "owner",
      "outputs": [
        {
          "internalType": "address",
          "name": "",
          "type": "address"
        }
      ],
      "stateMutability": "view",
      "type": "function"
    },
    {
      "inputs": [],
      "name": "primarySaleFeeBps",
      "outputs": [
        {
          "internalType": "uint16",
          "name": "",
          "type": "uint16"
        }
      ],
      "stateMutability": "view",
      "type": "function"
    },
    {
      "inputs": [
        {
          "internalType": "uint16",
          "name": "fee",
          "type": "uint16"
        }
      ],
      "name": "setPrimarySaleFeeBps",
      "outputs": [],
      "stateMutability": "nonpayable",
      "type": "function"
    },
    {
      "inputs": [],
      "name": "transferFeesToOwner",
      "outputs": [],
      "stateMutability": "nonpayable",
      "type": "function"
    },
    {
      "inputs": [
        {
          "internalType": "address",
          "name": "newOwner",
          "type": "address"
        }
      ],
      "name": "transferOwnership",
      "outputs": [],
      "stateMutability": "nonpayable",
      "type": "function"
    }
  ],
  "bytecode": "0x60a06040523480156200001157600080fd5b5060405162003597380380620035978339810160408190526200003491620000a9565b600080546001600160a01b0319166001600160a01b03841690811782556040518492907f8be0079c531659141344cd1fd0a4f28419497f9722a3daafe3b4186f6b6457e0908290a3506001600160a01b031660805250620000e8565b6001600160a01b0381168114620000a657600080fd5b50565b60008060408385031215620000bd57600080fd5b8251620000ca8162000090565b6020840151909250620000dd8162000090565b809150509250929050565b60805161348c6200010b600039600081816102cb015261092d015261348c6000f3fe6080604052600436106100f35760003560e01c8063b1e8d9701161008a578063f11c801c11610059578063f11c801c1461031a578063f2c565db1461032d578063f2fde38b1461036e578063f746f01f1461038e57600080fd5b8063b1e8d97014610284578063cfd88a3614610299578063d9b5c4a5146102b9578063e2892087146102ed57600080fd5b806336de9742116100c657806336de9742146101d7578063502493c1146102165780638da5cb5b146102445780639b46c29f1461026457600080fd5b80630b63fd62146100f85780630c8caf9a1461012e578063161822931461018757806322a5c8d0146101b5575b600080fd5b34801561010457600080fd5b50610118610113366004611d4a565b6104ae565b6040516101259190611dc6565b60405180910390f35b34801561013a57600080fd5b5061016f610149366004611dfb565b60046020908152600092835260408084209091529082529020546001600160a01b031681565b6040516001600160a01b039091168152602001610125565b34801561019357600080fd5b506005546101a29061ffff1681565b60405161ffff9091168152602001610125565b3480156101c157600080fd5b506101d56101d0366004611e34565b6109c6565b005b3480156101e357600080fd5b506101f76101f2366004611ed1565b610d26565b604080516001600160a01b039093168352602083019190915201610125565b34801561022257600080fd5b50610236610231366004611dfb565b610e9a565b604051908152602001610125565b34801561025057600080fd5b5060005461016f906001600160a01b031681565b34801561027057600080fd5b5061011861027f366004611dfb565b610f80565b34801561029057600080fd5b506101d5611025565b3480156102a557600080fd5b506101d56102b4366004611f06565b61109c565b3480156102c557600080fd5b5061016f7f000000000000000000000000000000000000000000000000000000000000000081565b3480156102f957600080fd5b5061030d610308366004611d4a565b611174565b60405161012591906120b2565b6102366103283660046120d6565b611412565b34801561033957600080fd5b5061016f610348366004611dfb565b60036020908152600092835260408084209091529082529020546001600160a01b031681565b34801561037a57600080fd5b506101d561038936600461211d565b61176a565b34801561039a57600080fd5b506104406103a9366004611dfb565b60016020818152600093845260408085209091529183529120805491015463ffffffff8083169261ffff64010000000080830482169460ff660100000000000085048116956701000000000000008604821695680100000000000000008104909216946001600160a01b03690100000000000000000084041694600160e81b90930416929081169167ffffffffffffffff91041689565b6040805163ffffffff9a8b16815261ffff998a16602082015297151590880152941515606087015260ff9390931660808601526001600160a01b039190911660a085015290931660c08301529190921660e083015267ffffffffffffffff1661010082015261012001610125565b6040516305b5acb960e31b8152600481018290526060906000906001600160a01b03851690632dad65c890602401602060405180830381865afa1580156104f9573d6000803e3d6000fd5b505050506040513d601f19601f8201168201806040525081019061051d919061213a565b604051633aa9eee560e21b8152600481018590529091506000906001600160a01b0386169063eaa7bb9490602401602060405180830381865afa158015610568573d6000803e3d6000fd5b505050506040513d601f19601f8201168201806040525081019061058c9190612157565b6040517fef65403c00000000000000000000000000000000000000000000000000000000815261ffff841660048201529091506000906001600160a01b0387169063ef65403c9060240160c060405180830381865afa1580156105f3573d6000803e3d6000fd5b505050506040513d601f19601f820116820180604052508101906106179190612251565b905060006106258787611174565b90506000826040015167ffffffffffffffff16600014610690576106548469ffffffffffffffffffff1661180b565b61066b846040015167ffffffffffffffff1661180b565b60405160200161067c929190612318565b6040516020818303038152906040526106a5565b6106a58469ffffffffffffffffffff1661180b565b9050600081836080015160008560e0015151116106d157604051806020016040528060008152506106ed565b60405180604001604052806002815260200161016160f51b8152505b6040516020016106ff93929190612370565b604051602081830303815290604052905060005b8360e00151518110156107d557816000821161073e576040518060200160405280600081525061075a565b60405180604001604052806002815260200161016160f51b8152505b8560e00151838151811061077057610770612461565b6020026020010151600001518660e00151848151811061079257610792612461565b6020026020010151602001516040516020016107b19493929190612477565b604051602081830303815290604052915080806107cd90612547565b915050610713565b5060408051808201909152600181527f5b00000000000000000000000000000000000000000000000000000000000000602082015260005b8460c00151518110156108ea57816108458660c00151838151811061083457610834612461565b602002602001015161ffff1661180b565b60018760c00151516108579190612560565b831461087d5760405180604001604052806002815260200161016160f51b8152506108b4565b6040518060400160405280600181526020017f5d000000000000000000000000000000000000000000000000000000000000008152505b6040516020016108c693929190612573565b604051602081830303815290604052915080806108e290612547565b91505061080d565b5060008460000151848660200151876040015188606001516040516020016109169594939291906125b6565b60405160208183030381529060405290508061095c7f00000000000000000000000000000000000000000000000000000000000000006001600160a01b03166014611914565b86608001518760a00151858760405160200161097d96959493929190612724565b604051602081830303815290604052905061099781611ae2565b6040516020016109a791906128c2565b6040516020818303038152906040529850505050505050505092915050565b6000806109d583850185612cf9565b60a082015182519294509092506001600160a01b03161563ffffffff9091161514610a2c576040517ff1c970d100000000000000000000000000000000000000000000000000000000815260040160405180910390fd5b61010082015167ffffffffffffffff1615801590610a5857504282610100015167ffffffffffffffff16105b15610a765760405163564646d560e11b815260040160405180910390fd5b60e082015161010083015167ffffffffffffffff161563ffffffff9091161514610ab35760405163564646d560e11b815260040160405180910390fd5b612710826020015161ffff161115610af7576040517f2568952000000000000000000000000000000000000000000000000000000000815260040160405180910390fd5b60055461ffff1660c0830152604051610b2c90610b18908390602001612ded565b604051602081830303815290604052611c35565b33600081815260046020908152604080832061ffff808d1680865291845282852080546001600160a01b0398891673ffffffffffffffffffffffffffffffffffffffff1990911617905585855260018085528386209286529184529382902088518154948a01518a85015160608c015160808d015160a08e015160c08f01518b16600160e81b027fff0000ffffffffffffffffffffffffffffffffffffffffffffffffffffffffff91909d166901000000000000000000027fffffff0000000000000000000000000000000000000000ffffffffffffffffff60ff939093166801000000000000000002929092167fffffff000000000000000000000000000000000000000000ffffffffffffffff9315156701000000000000000267ff00000000000000199515156601000000000000029590951667ffff0000000000001996909c1664010000000090810265ffffffffffff19909c1663ffffffff988916179b909b17959095169a909a17929092171691909117179590951696909617865560e08801519501805461010089015167ffffffffffffffff169093026bffffffffffffffffffffffff19909316959093169490941717905590517f8a7bcc8e1b1d4759df53c1eb54c615accefa6bb993f57ee484a246b56225b46991610d169189908690612e4f565b60405180910390a1505050505050565b6000806000856001600160a01b0316632dad65c8866040518263ffffffff1660e01b8152600401610d5991815260200190565b602060405180830381865afa158015610d76573d6000803e3d6000fd5b505050506040513d601f19601f82011682018060405250810190610d9a919061213a565b6001600160a01b03878116600090815260016020818152604080842061ffff878116865290835293819020815161012081018352815463ffffffff808216835264010000000080830489169684018790526601000000000000830460ff908116151596850196909652670100000000000000830486161515606085015268010000000000000000830490951660808401526901000000000000000000820490981660a08301819052600160e81b90910490961660c082015293015494851660e084015290930467ffffffffffffffff166101008201529293509061271090610e829088612f16565b610e8c9190612f43565b935093505050935093915050565b6001600160a01b038216600090815260016020818152604080842061ffff861685529091528220908101548290640100000000900467ffffffffffffffff164210610ee6576000610f08565b6001820154610f08904290640100000000900467ffffffffffffffff16612f57565b6001830154909150600090620151809067ffffffffffffffff841690610f3a9063ffffffff16655af3107a4000612f16565b610f449190612f16565b610f4e9190612f43565b83549091508190610f6c90655af3107a40009063ffffffff16612f16565b610f769190612f7f565b9695505050505050565b600260209081526000928352604080842090915290825290208054610fa490612f92565b80601f0160208091040260200160405190810160405280929190818152602001828054610fd090612f92565b801561101d5780601f10610ff25761010080835404028352916020019161101d565b820191906000526020600020905b81548152906001019060200180831161100057829003601f168201915b505050505081565b600080546040516001600160a01b039091169047908381818185875af1925050503d8060008114611072576040519150601f19603f3d011682016040523d82523d6000602084013e611077565b606091505b505090508061109957604051634917cec360e11b815260040160405180910390fd5b50565b6000546001600160a01b031633146110ea5760405162461bcd60e51b815260206004820152600c60248201526b15539055551213d49256915160a21b60448201526064015b60405180910390fd5b6127108161ffff16111561112a576040517f62ce3dcd00000000000000000000000000000000000000000000000000000000815260040160405180910390fd5b6005805461ffff191661ffff83169081179091556040519081527fc26f8db1267f65723040652d335ca099d7f37fb82ee03cb67ee19bc815b5fd959060200160405180910390a150565b6111bc60405180610100016040528060608152602001606081526020016060815260200160608152602001606081526020016060815260200160608152602001606081525090565b6040516305b5acb960e31b8152600481018390526000906001600160a01b03851690632dad65c890602401602060405180830381865afa158015611204573d6000803e3d6000fd5b505050506040513d601f19601f82011682018060405250810190611228919061213a565b604051633aa9eee560e21b8152600481018590529091506000906001600160a01b0386169063eaa7bb9490602401602060405180830381865afa158015611273573d6000803e3d6000fd5b505050506040513d601f19601f820116820180604052508101906112979190612157565b6001600160a01b03808716600090815260046020908152604080832061ffff88168452909152812054929350916112ce9116611ce6565b8060200190518101906112e19190613154565b9050600081516001846112f49190613344565b69ffffffffffffffffffff1661130a9190613367565b6001600160a01b038816600090815260016020908152604080832061ffff89168452909152902054909150670100000000000000900460ff16156113ec5781516040805160608a811b6bffffffffffffffffffffffff1916602083015260f088901b7fffff00000000000000000000000000000000000000000000000000000000000016603483015260b087901b7fffffffffffffffffffff00000000000000000000000000000000000000000000166036830152918101899052016040516020818303038152906040528051906020012060001c6113e99190613367565b90505b8181815181106113fe576113fe612461565b602002602001015194505050505092915050565b6001600160a01b038316600090815260016020908152604080832061ffff86168452909152812080546601000000000000900460ff161580156114555750333214155b1561148c576040517ff000bcf600000000000000000000000000000000000000000000000000000000815260040160405180910390fd5b805468010000000000000000900460ff16158015906114be5750805460ff680100000000000000009091048116908416115b156114f5576040517fccfad01800000000000000000000000000000000000000000000000000000000815260040160405180910390fd5b60006115018686610e9a565b9050600061151260ff861683612f16565b90508034101561154e576040517f6992e1ff00000000000000000000000000000000000000000000000000000000815260040160405180910390fd5b60005b8560ff16811015611614576040517f6342747b00000000000000000000000000000000000000000000000000000000815233600482015261ffff881660248201526000906001600160a01b038a1690636342747b906044016020604051808303816000875af11580156115c8573d6000803e3d6000fd5b505050506040513d601f19601f820116820180604052508101906115ec919061337b565b9050856000036115fc57806115fe565b855b955050808061160c90612547565b915050611551565b5082546000906127109061163390600160e81b900461ffff1684612f16565b61163d9190612f43565b6116479083612560565b90506000823411611659576000611663565b6116638334612560565b905080156116d657604051600090339083908381818185875af1925050503d80600081146116ad576040519150601f19603f3d011682016040523d82523d6000602084013e6116b2565b606091505b50509050806116d457604051634917cec360e11b815260040160405180910390fd5b505b811561175e578454604051600091690100000000000000000090046001600160a01b03169084908381818185875af1925050503d8060008114611735576040519150601f19603f3d011682016040523d82523d6000602084013e61173a565b606091505b505090508061175c57604051634917cec360e11b815260040160405180910390fd5b505b50505050509392505050565b6000546001600160a01b031633146117b35760405162461bcd60e51b815260206004820152600c60248201526b15539055551213d49256915160a21b60448201526064016110e1565b6000805473ffffffffffffffffffffffffffffffffffffffff19166001600160a01b0383169081178255604051909133917f8be0079c531659141344cd1fd0a4f28419497f9722a3daafe3b4186f6b6457e09190a350565b6060816000036118325750506040805180820190915260018152600360fc1b602082015290565b8160005b811561185c578061184681612547565b91506118559050600a83612f43565b9150611836565b60008167ffffffffffffffff81111561187757611877612183565b6040519080825280601f01601f1916602001820160405280156118a1576020820181803683370190505b5090505b841561190c576118b6600183612560565b91506118c3600a86613367565b6118ce906030612f7f565b60f81b8183815181106118e3576118e3612461565b60200101906001600160f81b031916908160001a905350611905600a86612f43565b94506118a5565b949350505050565b60606000611923836002612f16565b61192e906002612f7f565b67ffffffffffffffff81111561194657611946612183565b6040519080825280601f01601f191660200182016040528015611970576020820181803683370190505b509050600360fc1b8160008151811061198b5761198b612461565b60200101906001600160f81b031916908160001a9053507f7800000000000000000000000000000000000000000000000000000000000000816001815181106119d6576119d6612461565b60200101906001600160f81b031916908160001a90535060006119fa846002612f16565b611a05906001612f7f565b90505b6001811115611a8a577f303132333435363738396162636465660000000000000000000000000000000085600f1660108110611a4657611a46612461565b1a60f81b828281518110611a5c57611a5c612461565b60200101906001600160f81b031916908160001a90535060049490941c93611a8381613394565b9050611a08565b508315611ad95760405162461bcd60e51b815260206004820181905260248201527f537472696e67733a20686578206c656e67746820696e73756666696369656e7460448201526064016110e1565b90505b92915050565b60608151600003611b0157505060408051602081019091526000815290565b60006040518060600160405280604081526020016134176040913990506000600384516002611b309190612f7f565b611b3a9190612f43565b611b45906004612f16565b67ffffffffffffffff811115611b5d57611b5d612183565b6040519080825280601f01601f191660200182016040528015611b87576020820181803683370190505b509050600182016020820185865187015b80821015611bf3576003820191508151603f8160121c168501518453600184019350603f81600c1c168501518453600184019350603f8160061c168501518453600184019350603f8116850151845350600183019250611b98565b5050600386510660018114611c0f5760028114611c2257611c2a565b603d6001830353603d6002830353611c2a565b603d60018303535b509195945050505050565b60008082604051602001611c4991906133ab565b6040516020818303038152906040529050600081604051602001611c6d91906133d1565b60405160208183030381529060405290508051602082016000f092506001600160a01b038316611cdf5760405162461bcd60e51b815260206004820152601160248201527f4445504c4f594d454e545f4641494c454400000000000000000000000000000060448201526064016110e1565b5050919050565b6060611adc826001611d02816001600160a01b0384163b612560565b60408051603f8301601f19168101909152818152818360208301863c9392505050565b6001600160a01b038116811461109957600080fd5b8035611d4581611d25565b919050565b60008060408385031215611d5d57600080fd5b8235611d6881611d25565b946020939093013593505050565b60005b83811015611d91578181015183820152602001611d79565b50506000910152565b60008151808452611db2816020860160208601611d76565b601f01601f19169290920160200192915050565b602081526000611dd96020830184611d9a565b9392505050565b61ffff8116811461109957600080fd5b8035611d4581611de0565b60008060408385031215611e0e57600080fd5b8235611e1981611d25565b91506020830135611e2981611de0565b809150509250929050565b600080600080848603610100811215611e4c57600080fd5b8535611e5781611de0565b945060c0601f1982011215611e6b57600080fd5b5060208501925060e085013567ffffffffffffffff80821115611e8d57600080fd5b818701915087601f830112611ea157600080fd5b813581811115611eb057600080fd5b886020828501011115611ec257600080fd5b95989497505060200194505050565b600080600060608486031215611ee657600080fd5b8335611ef181611d25565b95602085013595506040909401359392505050565b600060208284031215611f1857600080fd5b8135611ad981611de0565b600081518084526020808501945080840160005b83811015611f5757815161ffff1687529582019590820190600101611f37565b509495945050505050565b600081518084526020808501808196508360051b8101915082860160005b85811015611fd0578284038952815160408151818752611fa282880182611d9a565b91505086820151915085810387870152611fbc8183611d9a565b9a87019a9550505090840190600101611f80565b5091979650505050505050565b60006101008251818552611ff382860182611d9a565b9150506020830151848203602086015261200d8282611d9a565b915050604083015184820360408601526120278282611d9a565b915050606083015184820360608601526120418282611d9a565b9150506080830151848203608086015261205b8282611d9a565b91505060a083015184820360a08601526120758282611d9a565b91505060c083015184820360c086015261208f8282611f23565b91505060e083015184820360e08601526120a98282611f62565b95945050505050565b602081526000611dd96020830184611fdd565b803560ff81168114611d4557600080fd5b6000806000606084860312156120eb57600080fd5b83356120f681611d25565b9250602084013561210681611de0565b9150612114604085016120c5565b90509250925092565b60006020828403121561212f57600080fd5b8135611ad981611d25565b60006020828403121561214c57600080fd5b8151611ad981611de0565b60006020828403121561216957600080fd5b815169ffffffffffffffffffff81168114611ad957600080fd5b634e487b7160e01b600052604160045260246000fd5b6040805190810167ffffffffffffffff811182821017156121bc576121bc612183565b60405290565b604051610100810167ffffffffffffffff811182821017156121bc576121bc612183565b604051610120810167ffffffffffffffff811182821017156121bc576121bc612183565b604051601f8201601f1916810167ffffffffffffffff8111828210171561223357612233612183565b604052919050565b67ffffffffffffffff8116811461109957600080fd5b600060c0828403121561226357600080fd5b60405160c0810181811067ffffffffffffffff8211171561228657612286612183565b60405282516122948161223b565b815260208301516122a48161223b565b602082015260408301516122b78161223b565b604082015260608301516122ca8161223b565b606082015260808301516122dd81611d25565b608082015260a08301516122f08161223b565b60a08201529392505050565b6000815161230e818560208601611d76565b9290920192915050565b6000835161232a818460208801611d76565b7f2f000000000000000000000000000000000000000000000000000000000000009083019081528351612364816001840160208801611d76565b01600101949350505050565b7f7b2274726169745f74797065223a20225265636f72642045646974696f6e222c81527f202276616c7565223a20220000000000000000000000000000000000000000006020820152600084516123ce81602b850160208901611d76565b7f227d2c207b2274726169745f74797065223a20225265636f7264205661726961602b918401918201527f6e74222c202276616c7565223a20220000000000000000000000000000000000604b820152845161243181605a840160208901611d76565b61227d60f01b605a9290910191820152835161245481605c840160208801611d76565b01605c0195945050505050565b634e487b7160e01b600052603260045260246000fd5b60008551612489818460208a01611d76565b85519083019061249d818360208a01611d76565b7f7b2274726169745f74797065223a202200000000000000000000000000000000910190815284516124d6816010840160208901611d76565b7f222c202276616c7565223a20220000000000000000000000000000000000000060109290910191820152835161251481601d840160208801611d76565b61227d60f01b601d9290910191820152601f019695505050505050565b634e487b7160e01b600052601160045260246000fd5b60006001820161255957612559612531565b5060010190565b81810381811115611adc57611adc612531565b60008451612585818460208901611d76565b845190830190612599818360208901611d76565b84519101906125ac818360208801611d76565b0195945050505050565b7f7b226e616d65223a2200000000000000000000000000000000000000000000008152600086516125ee816009850160208b01611d76565b7f2000000000000000000000000000000000000000000000000000000000000000600991840191820152865161262b81600a840160208b01611d76565b7f222c20226465736372697074696f6e223a220000000000000000000000000000600a9290910191820152855161266981601c840160208a01611d76565b7f222c2022696d616765223a202200000000000000000000000000000000000000601c929091019182015284516126a7816029840160208901611d76565b7f222c202265787465726e616c5f75726c223a20220000000000000000000000006029929091019182015283516126e581603d840160208801611d76565b612717603d828401017f222c200000000000000000000000000000000000000000000000000000000000815260030190565b9998505050505050505050565b6000875160206127378285838d01611d76565b7f226d6574616c6162656c223a207b20226e6f64655f72656769737472795f61649184019182527f6472657373223a2022000000000000000000000000000000000000000000000081830152885161279581602985018c8501611d76565b7f222c20227265636f72645f76617269616e745f6e616d65223a202200000000006029939091019283015287516127d28160448501848c01611d76565b7f222c202272656c656173655f6d657461646174615f757269223a20220000000060449390910192830152865161280f8160608501848b01611d76565b7f222c20227265636f72645f636f6e74656e7473223a200000000000000000000060609390910192830152855161284c8160768501848a01611d76565b6128b361288a6128846076848701017f7d2c202261747472696275746573223a205b0000000000000000000000000000815260120190565b886122fc565b7f5d7d000000000000000000000000000000000000000000000000000000000000815260020190565b9b9a5050505050505050505050565b7f646174613a6170706c69636174696f6e2f6a736f6e3b6261736536342c0000008152600082516128fa81601d850160208701611d76565b91909101601d0192915050565b803563ffffffff81168114611d4557600080fd5b80358015158114611d4557600080fd5b8035611d458161223b565b600067ffffffffffffffff82111561295057612950612183565b5060051b60200190565b600067ffffffffffffffff82111561297457612974612183565b50601f01601f191660200190565b600082601f83011261299357600080fd5b81356129a66129a18261295a565b61220a565b8181528460208386010111156129bb57600080fd5b816020850160208301376000918101602001919091529392505050565b600082601f8301126129e957600080fd5b813560206129f96129a183612936565b82815260059290921b84018101918181019086841115612a1857600080fd5b8286015b84811015612a3c578035612a2f81611de0565b8352918301918301612a1c565b509695505050505050565b600082601f830112612a5857600080fd5b81356020612a686129a183612936565b82815260059290921b84018101918181019086841115612a8757600080fd5b8286015b84811015612a3c57803567ffffffffffffffff80821115612aac5760008081fd5b908801906040828b03601f1901811315612ac65760008081fd5b612ace612199565b8784013583811115612ae05760008081fd5b612aee8d8a83880101612982565b825250908301359082821115612b045760008081fd5b612b128c8984870101612982565b818901528652505050918301918301612a8b565b600082601f830112612b3757600080fd5b81356020612b476129a183612936565b82815260059290921b84018101918181019086841115612b6657600080fd5b8286015b84811015612a3c57803567ffffffffffffffff80821115612b8b5760008081fd5b90880190610100828b03601f1901811315612ba65760008081fd5b612bae6121c2565b8784013583811115612bc05760008081fd5b612bce8d8a83880101612982565b82525060408085013584811115612be55760008081fd5b612bf38e8b83890101612982565b8a8401525060608086013585811115612c0c5760008081fd5b612c1a8f8c838a0101612982565b8385015250608091508186013585811115612c355760008081fd5b612c438f8c838a0101612982565b82850152505060a08086013585811115612c5d5760008081fd5b612c6b8f8c838a0101612982565b838501525060c091508186013585811115612c865760008081fd5b612c948f8c838a0101612982565b82850152505060e08086013585811115612cae5760008081fd5b612cbc8f8c838a01016129d8565b8484015250928501359284841115612cd657600091508182fd5b612ce48e8b86890101612a47565b90830152508652505050918301918301612b6a565b600080828403610140811215612d0e57600080fd5b61012080821215612d1e57600080fd5b612d266121e6565b9150612d3185612907565b8252612d3f60208601611df0565b6020830152612d506040860161291b565b6040830152612d616060860161291b565b6060830152612d72608086016120c5565b6080830152612d8360a08601611d3a565b60a0830152612d9460c08601611df0565b60c0830152612da560e08601612907565b60e0830152610100612db881870161292b565b9083015290925083013567ffffffffffffffff811115612dd757600080fd5b612de385828601612b26565b9150509250929050565b6000602080830181845280855180835260408601915060408160051b870101925083870160005b82811015612e4257603f19888603018452612e30858351611fdd565b94509285019290850190600101612e14565b5092979650505050505050565b6000610160820190506001600160a01b038516825261ffff808516602084015263ffffffff8451166040840152806020850151166060840152506040830151612e9c608084018215159052565b50606083015180151560a084015250608083015160ff811660c08401525060a08301516001600160a01b03811660e08401525060c0830151610100612ee68185018361ffff169052565b60e085015163ffffffff166101208501529093015167ffffffffffffffff16610140909201919091529392505050565b8082028115828204841417611adc57611adc612531565b634e487b7160e01b600052601260045260246000fd5b600082612f5257612f52612f2d565b500490565b67ffffffffffffffff828116828216039080821115612f7857612f78612531565b5092915050565b80820180821115611adc57611adc612531565b600181811c90821680612fa657607f821691505b602082108103612fc657634e487b7160e01b600052602260045260246000fd5b50919050565b600082601f830112612fdd57600080fd5b8151612feb6129a18261295a565b81815284602083860101111561300057600080fd5b61190c826020830160208701611d76565b600082601f83011261302257600080fd5b815160206130326129a183612936565b82815260059290921b8401810191818101908684111561305157600080fd5b8286015b84811015612a3c57805161306881611de0565b8352918301918301613055565b600082601f83011261308657600080fd5b815160206130966129a183612936565b82815260059290921b840181019181810190868411156130b557600080fd5b8286015b84811015612a3c57805167ffffffffffffffff808211156130da5760008081fd5b908801906040828b03601f19018113156130f45760008081fd5b6130fc612199565b878401518381111561310e5760008081fd5b61311c8d8a83880101612fcc565b8252509083015190828211156131325760008081fd5b6131408c8984870101612fcc565b8189015286525050509183019183016130b9565b6000602080838503121561316757600080fd5b825167ffffffffffffffff8082111561317f57600080fd5b818501915085601f83011261319357600080fd5b81516131a16129a182612936565b81815260059190911b830184019084810190888311156131c057600080fd5b8585015b83811015613337578051858111156131db57600080fd5b8601610100818c03601f19018113156131f357600080fd5b6131fb6121c2565b898301518881111561320c57600080fd5b61321a8e8c83870101612fcc565b82525060408301518881111561322f57600080fd5b61323d8e8c83870101612fcc565b8b8301525060608301518881111561325457600080fd5b6132628e8c83870101612fcc565b60408301525060808301518881111561327a57600080fd5b6132888e8c83870101612fcc565b60608301525060a0830151888111156132a057600080fd5b6132ae8e8c83870101612fcc565b60808301525060c0830151888111156132c75760008081fd5b6132d58e8c83870101612fcc565b60a08301525060e080840151898111156132ef5760008081fd5b6132fd8f8d83880101613011565b60c0840152509183015191888311156133165760008081fd5b6133248e8c85870101613075565b90820152855250509186019186016131c4565b5098975050505050505050565b69ffffffffffffffffffff828116828216039080821115612f7857612f78612531565b60008261337657613376612f2d565b500690565b60006020828403121561338d57600080fd5b5051919050565b6000816133a3576133a3612531565b506000190190565b60008152600082516133c4816001850160208701611d76565b9190910160010192915050565b7f600b5981380380925939f300000000000000000000000000000000000000000081526000825161340981600b850160208701611d76565b91909101600b019291505056fe4142434445464748494a4b4c4d4e4f505152535455565758595a6162636465666768696a6b6c6d6e6f707172737475767778797a303132333435363738392b2fa2646970667358221220b1ead80c826dbb0f47d06721cf70afb3d58769ee55aeda61b3e55eb95de677e764736f6c63430008110033",
  "linkReferences": {},
  "deployedLinkReferences": {}
}