{
  "_format": "hh-sol-artifact-1",
  "contractName": "Memberships",
  "sourceName": "contracts/Memberships.sol",
  "abi": [
    {
      "inputs": [],
      "stateMutability": "nonpayable",
      "type": "constructor"
    },
    {
      "inputs": [],
      "name": "AlreadyInitialized",
      "type": "error"
    },
    {
      "inputs": [],
      "name": "InvalidBurn",
      "type": "error"
    },
    {
      "inputs": [],
      "name": "InvalidMint",
      "type": "error"
    },
    {
      "inputs": [],
      "name": "InvalidTransfer",
      "type": "error"
    },
    {
      "inputs": [],
      "name": "NotAuthorized",
      "type": "error"
    },
    {
      "inputs": [],
      "name": "TransferNotAllowed",
      "type": "error"
    },
    {
      "anonymous": false,
      "inputs": [
        {
          "indexed": true,
          "internalType": "address",
          "name": "owner",
          "type": "address"
        },
        {
          "indexed": true,
          "internalType": "address",
          "name": "spender",
          "type": "address"
        },
        {
          "indexed": true,
          "internalType": "uint256",
          "name": "id",
          "type": "uint256"
        }
      ],
      "name": "Approval",
      "type": "event"
    },
    {
      "anonymous": false,
      "inputs": [
        {
          "indexed": true,
          "internalType": "address",
          "name": "owner",
          "type": "address"
        },
        {
          "indexed": true,
          "internalType": "address",
          "name": "operator",
          "type": "address"
        },
        {
          "indexed": false,
          "internalType": "bool",
          "name": "approved",
          "type": "bool"
        }
      ],
      "name": "ApprovalForAll",
      "type": "event"
    },
    {
      "anonymous": false,
      "inputs": [
        {
          "indexed": false,
          "internalType": "string",
          "name": "topic",
          "type": "string"
        },
        {
          "indexed": false,
          "internalType": "string",
          "name": "message",
          "type": "string"
        }
      ],
      "name": "Broadcast",
      "type": "event"
    },
    {
      "anonymous": false,
      "inputs": [
        {
          "indexed": false,
          "internalType": "contract ICustomMetadataResolver",
          "name": "resolver",
          "type": "address"
        }
      ],
      "name": "CustomMetadataResolverUpdated",
      "type": "event"
    },
    {
      "anonymous": false,
      "inputs": [
        {
          "indexed": true,
          "internalType": "uint256",
          "name": "tokenId",
          "type": "uint256"
        },
        {
          "indexed": false,
          "internalType": "uint16",
          "name": "sequenceId",
          "type": "uint16"
        },
        {
          "indexed": false,
          "internalType": "uint80",
          "name": "timestamp",
          "type": "uint80"
        }
      ],
      "name": "MembershipCreated",
      "type": "event"
    },
    {
      "anonymous": false,
      "inputs": [
        {
          "indexed": false,
          "internalType": "bytes32",
          "name": "root",
          "type": "bytes32"
        }
      ],
      "name": "MembershipListRootUpdated",
      "type": "event"
    },
    {
      "anonymous": false,
      "inputs": [
        {
          "indexed": true,
          "internalType": "address",
          "name": "previousOwner",
          "type": "address"
        },
        {
          "indexed": true,
          "internalType": "address",
          "name": "newOwner",
          "type": "address"
        }
      ],
      "name": "OwnershipTransferred",
      "type": "event"
    },
    {
      "anonymous": false,
      "inputs": [
        {
          "indexed": true,
          "internalType": "address",
          "name": "from",
          "type": "address"
        },
        {
          "indexed": true,
          "internalType": "address",
          "name": "to",
          "type": "address"
        },
        {
          "indexed": true,
          "internalType": "uint256",
          "name": "id",
          "type": "uint256"
        }
      ],
      "name": "Transfer",
      "type": "event"
    },
    {
      "inputs": [],
      "name": "accessControl",
      "outputs": [
        {
          "internalType": "contract INodeRegistry",
          "name": "nodeRegistry",
          "type": "address"
        },
        {
          "internalType": "uint64",
          "name": "controlNodeId",
          "type": "uint64"
        }
      ],
      "stateMutability": "view",
      "type": "function"
    },
    {
      "inputs": [
        {
          "internalType": "address",
          "name": "from",
          "type": "address"
        },
        {
          "internalType": "address",
          "name": "to",
          "type": "address"
        },
        {
          "internalType": "uint256",
          "name": "id",
          "type": "uint256"
        }
      ],
      "name": "adminTransferFrom",
      "outputs": [],
      "stateMutability": "nonpayable",
      "type": "function"
    },
    {
      "inputs": [
        {
          "internalType": "address",
          "name": "spender",
          "type": "address"
        },
        {
          "internalType": "uint256",
          "name": "id",
          "type": "uint256"
        }
      ],
      "name": "approve",
      "outputs": [],
      "stateMutability": "nonpayable",
      "type": "function"
    },
    {
      "inputs": [
        {
          "internalType": "address",
          "name": "owner",
          "type": "address"
        }
      ],
      "name": "balanceOf",
      "outputs": [
        {
          "internalType": "uint256",
          "name": "",
          "type": "uint256"
        }
      ],
      "stateMutability": "view",
      "type": "function"
    },
    {
      "inputs": [
        {
          "components": [
            {
              "internalType": "address",
              "name": "to",
              "type": "address"
            },
            {
              "internalType": "uint16",
              "name": "sequenceId",
              "type": "uint16"
            }
          ],
          "internalType": "struct AdminMembershipMint[]",
          "name": "mints",
          "type": "tuple[]"
        },
        {
          "internalType": "uint256[]",
          "name": "burns",
          "type": "uint256[]"
        }
      ],
      "name": "batchMintAndBurn",
      "outputs": [],
      "stateMutability": "nonpayable",
      "type": "function"
    },
    {
      "inputs": [
        {
          "internalType": "string",
          "name": "topic",
          "type": "string"
        },
        {
          "internalType": "string",
          "name": "message",
          "type": "string"
        }
      ],
      "name": "broadcast",
      "outputs": [],
      "stateMutability": "nonpayable",
      "type": "function"
    },
    {
      "inputs": [
        {
          "internalType": "uint256",
          "name": "tokenId",
          "type": "uint256"
        }
      ],
      "name": "burnMembership",
      "outputs": [],
      "stateMutability": "nonpayable",
      "type": "function"
    },
    {
      "inputs": [],
      "name": "contractURI",
      "outputs": [
        {
          "internalType": "string",
          "name": "uri",
          "type": "string"
        }
      ],
      "stateMutability": "view",
      "type": "function"
    },
    {
      "inputs": [],
      "name": "controlNode",
      "outputs": [
        {
          "internalType": "uint64",
          "name": "nodeId",
          "type": "uint64"
        }
      ],
      "stateMutability": "view",
      "type": "function"
    },
    {
      "inputs": [],
      "name": "customMetadataResolver",
      "outputs": [
        {
          "internalType": "contract ICustomMetadataResolver",
          "name": "",
          "type": "address"
        }
      ],
      "stateMutability": "view",
      "type": "function"
    },
    {
      "inputs": [
        {
          "internalType": "uint256",
          "name": "",
          "type": "uint256"
        }
      ],
      "name": "getApproved",
      "outputs": [
        {
          "internalType": "address",
          "name": "",
          "type": "address"
        }
      ],
      "stateMutability": "view",
      "type": "function"
    },
    {
      "inputs": [
        {
          "internalType": "uint256",
          "name": "id",
          "type": "uint256"
        }
      ],
      "name": "getTokenData",
      "outputs": [
        {
          "components": [
            {
              "internalType": "address",
              "name": "owner",
              "type": "address"
            },
            {
              "internalType": "uint16",
              "name": "sequenceId",
              "type": "uint16"
            },
            {
              "internalType": "uint80",
              "name": "data",
              "type": "uint80"
            }
          ],
          "internalType": "struct TokenData",
          "name": "",
          "type": "tuple"
        }
      ],
      "stateMutability": "view",
      "type": "function"
    },
    {
      "inputs": [
        {
          "internalType": "address",
          "name": "_owner",
          "type": "address"
        },
        {
          "components": [
            {
              "internalType": "contract INodeRegistry",
              "name": "nodeRegistry",
              "type": "address"
            },
            {
              "internalType": "uint64",
              "name": "controlNodeId",
              "type": "uint64"
            }
          ],
          "internalType": "struct AccessControlData",
          "name": "_accessControl",
          "type": "tuple"
        },
        {
          "internalType": "string",
          "name": "_metadata",
          "type": "string"
        },
        {
          "components": [
            {
              "internalType": "string",
              "name": "name",
              "type": "string"
            },
            {
              "internalType": "string",
              "name": "symbol",
              "type": "string"
            },
            {
              "internalType": "string",
              "name": "baseURI",
              "type": "string"
            }
          ],
          "internalType": "struct ImmutableCollectionData",
          "name": "_data",
          "type": "tuple"
        }
      ],
      "name": "init",
      "outputs": [],
      "stateMutability": "nonpayable",
      "type": "function"
    },
    {
      "inputs": [
        {
          "internalType": "address",
          "name": "",
          "type": "address"
        },
        {
          "internalType": "address",
          "name": "",
          "type": "address"
        }
      ],
      "name": "isApprovedForAll",
      "outputs": [
        {
          "internalType": "bool",
          "name": "",
          "type": "bool"
        }
      ],
      "stateMutability": "view",
      "type": "function"
    },
    {
      "inputs": [
        {
          "internalType": "address",
          "name": "subject",
          "type": "address"
        }
      ],
      "name": "isAuthorized",
      "outputs": [
        {
          "internalType": "bool",
          "name": "authorized",
          "type": "bool"
        }
      ],
      "stateMutability": "view",
      "type": "function"
    },
    {
      "inputs": [],
      "name": "membershipListRoot",
      "outputs": [
        {
          "internalType": "bytes32",
          "name": "",
          "type": "bytes32"
        }
      ],
      "stateMutability": "view",
      "type": "function"
    },
    {
      "inputs": [
        {
          "components": [
            {
              "internalType": "address",
              "name": "to",
              "type": "address"
            },
            {
              "internalType": "uint16",
              "name": "sequenceId",
              "type": "uint16"
            },
            {
              "internalType": "bytes32[]",
              "name": "proof",
              "type": "bytes32[]"
            }
          ],
          "internalType": "struct MembershipMint[]",
          "name": "mints",
          "type": "tuple[]"
        }
      ],
      "name": "mintMemberships",
      "outputs": [],
      "stateMutability": "nonpayable",
      "type": "function"
    },
    {
      "inputs": [],
      "name": "name",
      "outputs": [
        {
          "internalType": "string",
          "name": "value",
          "type": "string"
        }
      ],
      "stateMutability": "view",
      "type": "function"
    },
    {
      "inputs": [],
      "name": "nodeRegistry",
      "outputs": [
        {
          "internalType": "contract INodeRegistry",
          "name": "",
          "type": "address"
        }
      ],
      "stateMutability": "view",
      "type": "function"
    },
    {
      "inputs": [],
      "name": "owner",
      "outputs": [
        {
          "internalType": "address",
          "name": "",
          "type": "address"
        }
      ],
      "stateMutability": "view",
      "type": "function"
    },
    {
      "inputs": [
        {
          "internalType": "uint256",
          "name": "id",
          "type": "uint256"
        }
      ],
      "name": "ownerOf",
      "outputs": [
        {
          "internalType": "address",
          "name": "owner",
          "type": "address"
        }
      ],
      "stateMutability": "view",
      "type": "function"
    },
    {
      "inputs": [
        {
          "internalType": "address",
          "name": "from",
          "type": "address"
        },
        {
          "internalType": "address",
          "name": "to",
          "type": "address"
        },
        {
          "internalType": "uint256",
          "name": "id",
          "type": "uint256"
        }
      ],
      "name": "safeTransferFrom",
      "outputs": [],
      "stateMutability": "nonpayable",
      "type": "function"
    },
    {
      "inputs": [
        {
          "internalType": "address",
          "name": "from",
          "type": "address"
        },
        {
          "internalType": "address",
          "name": "to",
          "type": "address"
        },
        {
          "internalType": "uint256",
          "name": "id",
          "type": "uint256"
        },
        {
          "internalType": "bytes",
          "name": "data",
          "type": "bytes"
        }
      ],
      "name": "safeTransferFrom",
      "outputs": [],
      "stateMutability": "nonpayable",
      "type": "function"
    },
    {
      "inputs": [
        {
          "internalType": "address",
          "name": "operator",
          "type": "address"
        },
        {
          "internalType": "bool",
          "name": "approved",
          "type": "bool"
        }
      ],
      "name": "setApprovalForAll",
      "outputs": [],
      "stateMutability": "nonpayable",
      "type": "function"
    },
    {
      "inputs": [
        {
          "internalType": "contract ICustomMetadataResolver",
          "name": "_resolver",
          "type": "address"
        }
      ],
      "name": "setCustomMetadataResolver",
      "outputs": [],
      "stateMutability": "nonpayable",
      "type": "function"
    },
    {
      "inputs": [
        {
          "internalType": "bytes32",
          "name": "_root",
          "type": "bytes32"
        }
      ],
      "name": "setMembershipListRoot",
      "outputs": [],
      "stateMutability": "nonpayable",
      "type": "function"
    },
    {
      "inputs": [
        {
          "internalType": "address",
          "name": "_owner",
          "type": "address"
        }
      ],
      "name": "setOwner",
      "outputs": [],
      "stateMutability": "nonpayable",
      "type": "function"
    },
    {
      "inputs": [
        {
          "internalType": "bytes4",
          "name": "interfaceId",
          "type": "bytes4"
        }
      ],
      "name": "supportsInterface",
      "outputs": [
        {
          "internalType": "bool",
          "name": "",
          "type": "bool"
        }
      ],
      "stateMutability": "view",
      "type": "function"
    },
    {
      "inputs": [],
      "name": "symbol",
      "outputs": [
        {
          "internalType": "string",
          "name": "value",
          "type": "string"
        }
      ],
      "stateMutability": "view",
      "type": "function"
    },
    {
      "inputs": [
        {
          "internalType": "uint256",
          "name": "tokenId",
          "type": "uint256"
        }
      ],
      "name": "tokenMintTimestamp",
      "outputs": [
        {
          "internalType": "uint80",
          "name": "timestamp",
          "type": "uint80"
        }
      ],
      "stateMutability": "view",
      "type": "function"
    },
    {
      "inputs": [
        {
          "internalType": "uint256",
          "name": "tokenId",
          "type": "uint256"
        }
      ],
      "name": "tokenSequenceId",
      "outputs": [
        {
          "internalType": "uint16",
          "name": "sequenceId",
          "type": "uint16"
        }
      ],
      "stateMutability": "view",
      "type": "function"
    },
    {
      "inputs": [
        {
          "internalType": "uint256",
          "name": "tokenId",
          "type": "uint256"
        }
      ],
      "name": "tokenURI",
      "outputs": [
        {
          "internalType": "string",
          "name": "uri",
          "type": "string"
        }
      ],
      "stateMutability": "view",
      "type": "function"
    },
    {
      "inputs": [],
      "name": "totalMinted",
      "outputs": [
        {
          "internalType": "uint256",
          "name": "",
          "type": "uint256"
        }
      ],
      "stateMutability": "view",
      "type": "function"
    },
    {
      "inputs": [],
      "name": "totalSupply",
      "outputs": [
        {
          "internalType": "uint256",
          "name": "",
          "type": "uint256"
        }
      ],
      "stateMutability": "view",
      "type": "function"
    },
    {
      "inputs": [
        {
          "internalType": "address",
          "name": "",
          "type": "address"
        },
        {
          "internalType": "address",
          "name": "",
          "type": "address"
        },
        {
          "internalType": "uint256",
          "name": "",
          "type": "uint256"
        }
      ],
      "name": "transferFrom",
      "outputs": [],
      "stateMutability": "pure",
      "type": "function"
    },
    {
      "inputs": [
        {
          "internalType": "bytes32",
          "name": "_root",
          "type": "bytes32"
        },
        {
          "components": [
            {
              "internalType": "address",
              "name": "to",
              "type": "address"
            },
            {
              "internalType": "uint16",
              "name": "sequenceId",
              "type": "uint16"
            }
          ],
          "internalType": "struct AdminMembershipMint[]",
          "name": "mints",
          "type": "tuple[]"
        },
        {
          "internalType": "uint256[]",
          "name": "burns",
          "type": "uint256[]"
        }
      ],
      "name": "updateMemberships",
      "outputs": [],
      "stateMutability": "nonpayable",
      "type": "function"
    }
  ],
  "bytecode": "0x60806040523480156200001157600080fd5b5060408051608081018252600060608201818152825282516020818101855282825280840191909152835180820185529182528284019190915291516200007f926200005f929101620001a7565b604051602081830303815290604052620000a560201b62001aa71760201c565b600980546001600160a01b0319166001600160a01b03929092169190911790556200026c565b60008082604051602001620000bb91906200020e565b6040516020818303038152906040529050600081604051602001620000e1919062000236565b60405160208183030381529060405290508051602082016000f092506001600160a01b0383166200014c5760405162461bcd60e51b81526020600482015260116024820152701111541313d65351539517d19052531151607a1b604482015260640160405180910390fd5b5050919050565b60005b838110156200017057818101518382015260200162000156565b50506000910152565b600081518084526200019381602086016020860162000153565b601f01601f19169290920160200192915050565b602081526000825160606020840152620001c5608084018262000179565b90506020840151601f1980858403016040860152620001e5838362000179565b925060408601519150808584030160608601525062000205828262000179565b95945050505050565b60008152600082516200022981600185016020870162000153565b9190910160010192915050565b6a600b5981380380925939f360a81b815281516000906200025f81600b85016020870162000153565b91909101600b0192915050565b61310a806200027c6000396000f3fe608060405234801561001057600080fd5b506004361061025c5760003560e01c80638da5cb5b11610145578063cba74df7116100bd578063e59617541161008c578063e985e9c511610071578063e985e9c5146105fc578063f8ca7b281461062a578063fe9fbb801461063d57600080fd5b8063e5961754146105e1578063e8a3d485146105f457600080fd5b8063cba74df7146105a1578063cc308ef7146105aa578063d9b5c4a5146105bd578063e112c5cc146105ce57600080fd5b8063b09afec111610114578063b2b66227116100f9578063b2b6622714610568578063b88d4fde1461057b578063c87b56dd1461058e57600080fd5b8063b09afec114610507578063b1197a371461055557600080fd5b80638da5cb5b146104c157806395d89b41146104d4578063a22cb465146104dc578063a2309ff8146104ef57600080fd5b80632dad65c8116101d857806342842e0e116101a75780636698f26d1161018c5780636698f26d1461048857806370a082311461049b5780637aa66a00146104ae57600080fd5b806342842e0e146104625780636352211e1461047557600080fd5b80632dad65c8146103b05780633246d699146103ee5780633b9af5e9146104015780633d5ba3d71461044f57600080fd5b806313007d551161022f5780631616d249116102145780631616d2491461035557806318160ddd1461038257806323b872dd1461039d57600080fd5b806313007d55146102f457806313af40351461034257600080fd5b806301ffc9a71461026157806306fdde0314610289578063081812fc1461029e578063095ea7b3146102df575b600080fd5b61027461026f36600461242a565b610650565b60405190151581526020015b60405180910390f35b6102916106ed565b604051610280919061246b565b6102c76102ac36600461249e565b6002602052600090815260409020546001600160a01b031681565b6040516001600160a01b039091168152602001610280565b6102f26102ed3660046124cc565b6106fd565b005b60045461031a906001600160a01b03811690600160a01b900467ffffffffffffffff1682565b604080516001600160a01b03909316835267ffffffffffffffff909116602083015201610280565b6102f26103503660046124f8565b6107f3565b600454600160a01b900467ffffffffffffffff1660405167ffffffffffffffff9091168152602001610280565b6008546001600160801b03165b604051908152602001610280565b6102f26103ab366004612515565b6108e5565b6103db6103be36600461249e565b600090815260208190526040902054600160a01b900461ffff1690565b60405161ffff9091168152602001610280565b6102f26103fc3660046125e7565b610917565b61043461040f36600461249e565b600090815260208190526040902054600160b01b900469ffffffffffffffffffff1690565b60405169ffffffffffffffffffff9091168152602001610280565b6007546102c7906001600160a01b031681565b6102f2610470366004612515565b610a4c565b6102c761048336600461249e565b610b51565b6102f261049636600461249e565b610ba8565b61038f6104a93660046124f8565b610c84565b6102f26104bc3660046124f8565b610cf8565b6005546102c7906001600160a01b031681565b610291610de6565b6102f26104ea366004612661565b610df9565b600854600160801b90046001600160801b031661038f565b61051a61051536600461249e565b610e65565b6040805182516001600160a01b0316815260208084015161ffff16908201529181015169ffffffffffffffffffff1690820152606001610280565b6102f2610563366004612515565b610f0e565b6102f261057636600461269a565b6110c4565b6102f2610589366004612756565b6111f4565b61029161059c36600461249e565b6112e2565b61038f60065481565b6102f26105b83660046127b8565b6113cc565b6004546001600160a01b03166102c7565b6102f26105dc3660046127fa565b6116b9565b6102f26105ef36600461249e565b6117cd565b610291611861565b61027461060a36600461289a565b600360209081526000928352604080842090915290825290205460ff1681565b6102f26106383660046128c8565b61193b565b61027461064b3660046124f8565b611a1e565b60007f01ffc9a7000000000000000000000000000000000000000000000000000000006001600160e01b0319831614806106b357507f80ac58cd000000000000000000000000000000000000000000000000000000006001600160e01b03198316145b806106e757507f5b5e139f000000000000000000000000000000000000000000000000000000006001600160e01b03198316145b92915050565b60606106f7611b58565b51919050565b6000818152602081905260409020546001600160a01b03163381148061074657506001600160a01b038116600090815260036020908152604080832033845290915290205460ff165b6107975760405162461bcd60e51b815260206004820152600e60248201527f4e4f545f415554484f52495a454400000000000000000000000000000000000060448201526064015b60405180910390fd5b60008281526002602052604080822080546001600160a01b0319166001600160a01b0387811691821790925591518593918516917f8c5be1e5ebec7d5bd14f71427d1e84f3dd0314c0f7b2291e5b200ac8c7c3b92591a4505050565b60048054604051632565da5f60e11b8152600160a01b820467ffffffffffffffff16928101929092523360248301526001600160a01b031690634acbb4be90604401602060405180830381865afa158015610852573d6000803e3d6000fd5b505050506040513d601f19601f820116820180604052508101906108769190612928565b6108935760405163ea8e4eb560e01b815260040160405180910390fd5b600580546001600160a01b038381166001600160a01b0319831681179093556040519116919082907f8be0079c531659141344cd1fd0a4f28419497f9722a3daafe3b4186f6b6457e090600090a35050565b6040517f8cd22d1900000000000000000000000000000000000000000000000000000000815260040160405180910390fd5b60048054604051632565da5f60e11b8152600160a01b820467ffffffffffffffff16928101929092523360248301526001600160a01b031690634acbb4be90604401602060405180830381865afa158015610976573d6000803e3d6000fd5b505050506040513d601f19601f8201168201806040525081019061099a9190612928565b6109b75760405163ea8e4eb560e01b815260040160405180910390fd5b610a468484808060200260200160405190810160405280939291908181526020016000905b82821015610a08576109f960408302860136819003810190612996565b815260200190600101906109dc565b5050505050838380806020026020016040519081016040528093929190818152602001838360200280828437600092019190915250611ba492505050565b50505050565b610a578383836108e5565b6001600160a01b0382163b1580610b005750604051630a85bd0160e11b8082523360048301526001600160a01b03858116602484015260448301849052608060648401526000608484015290919084169063150b7a029060a4016020604051808303816000875af1158015610ad0573d6000803e3d6000fd5b505050506040513d601f19601f82011682018060405250810190610af491906129f3565b6001600160e01b031916145b610b4c5760405162461bcd60e51b815260206004820152601060248201527f554e534146455f524543495049454e5400000000000000000000000000000000604482015260640161078e565b505050565b6000818152602081905260409020546001600160a01b031680610ba35760405162461bcd60e51b815260206004820152600a6024820152691393d517d3525395115160b21b604482015260640161078e565b919050565b60048054604051632565da5f60e11b8152600160a01b820467ffffffffffffffff16928101929092523360248301526001600160a01b031690634acbb4be90604401602060405180830381865afa158015610c07573d6000803e3d6000fd5b505050506040513d601f19601f82011682018060405250810190610c2b9190612928565b610c485760405163ea8e4eb560e01b815260040160405180910390fd5b60068190556040518181527f7cd190a0d2794c2f49abc7014f0acbb67d25d1e0f3f32c10d066c0c823297537906020015b60405180910390a150565b60006001600160a01b038216610cdc5760405162461bcd60e51b815260206004820152600c60248201527f5a45524f5f414444524553530000000000000000000000000000000000000000604482015260640161078e565b506001600160a01b031660009081526001602052604090205490565b60048054604051632565da5f60e11b8152600160a01b820467ffffffffffffffff16928101929092523360248301526001600160a01b031690634acbb4be90604401602060405180830381865afa158015610d57573d6000803e3d6000fd5b505050506040513d601f19601f82011682018060405250810190610d7b9190612928565b610d985760405163ea8e4eb560e01b815260040160405180910390fd5b600780546001600160a01b0319166001600160a01b0383169081179091556040519081527fd654e361816982497f3ce0c7ce7752838944156cd5c6023663a16a744e8de6b890602001610c79565b6060610df0611b58565b60200151905090565b3360008181526003602090815260408083206001600160a01b03871680855290835292819020805460ff191686151590811790915590519081529192917f17307eab39ab6107e8899845ad3d59bd9653f200f220920489ca2b5937696c31910160405180910390a35050565b604080516060810182526000808252602082018190529181019190915260008281526020818152604091829020825160608101845290546001600160a01b038116808352600160a01b820461ffff1693830193909352600160b01b900469ffffffffffffffffffff16928101929092526106e75760405162461bcd60e51b815260206004820152600a6024820152691393d517d3525395115160b21b604482015260640161078e565b60048054604051632565da5f60e11b8152600160a01b820467ffffffffffffffff16928101929092523360248301526001600160a01b031690634acbb4be90604401602060405180830381865afa158015610f6d573d6000803e3d6000fd5b505050506040513d601f19601f82011682018060405250810190610f919190612928565b610fae5760405163ea8e4eb560e01b815260040160405180910390fd5b6001600160a01b038216610fd557604051632f35253160e01b815260040160405180910390fd5b610fde82610c84565b15610ffc57604051632f35253160e01b815260040160405180910390fd5b6000818152602081905260409020546001600160a01b0384811691161461103657604051632f35253160e01b815260040160405180910390fd5b6001600160a01b0380841660008181526001602081815260408084208054600019019055948716808452858420805490930190925585835282815284832080546001600160a01b031990811684179091556002909152848320805490911690559251849392917fddf252ad1be2c89b69c2b068fc378daa952ba7f163c4a11628f55a4df523b3ef91a4505050565b60048054604051632565da5f60e11b8152600160a01b820467ffffffffffffffff16928101929092523360248301526001600160a01b031690634acbb4be90604401602060405180830381865afa158015611123573d6000803e3d6000fd5b505050506040513d601f19601f820116820180604052508101906111479190612928565b6111645760405163ea8e4eb560e01b815260040160405180910390fd5b60068590556040518581527f7cd190a0d2794c2f49abc7014f0acbb67d25d1e0f3f32c10d066c0c8232975379060200160405180910390a16111ed8484808060200260200160405190810160405280939291908181526020016000905b82821015610a08576111de60408302860136819003810190612996565b815260200190600101906111c1565b5050505050565b6111ff8585856108e5565b6001600160a01b0384163b15806112965750604051630a85bd0160e11b808252906001600160a01b0386169063150b7a02906112479033908a90899089908990600401612a39565b6020604051808303816000875af1158015611266573d6000803e3d6000fd5b505050506040513d601f19601f8201168201806040525081019061128a91906129f3565b6001600160e01b031916145b6111ed5760405162461bcd60e51b815260206004820152601060248201527f554e534146455f524543495049454e5400000000000000000000000000000000604482015260640161078e565b6007546060906001600160a01b031615611386576007546040517fe9dc6375000000000000000000000000000000000000000000000000000000008152306004820152602481018490526001600160a01b039091169063e9dc637590604401600060405180830381865afa15801561135e573d6000803e3d6000fd5b505050506040513d6000823e601f3d908101601f191682016040526106e79190810190612aff565b61138e611b58565b6040015161139b30611e37565b6113a484611e4d565b6040516020016113b693929190612b34565b6040516020818303038152906040529050919050565b600880546001600160801b03600160801b82048116911660005b8481101561168b5760006114fd87878481811061140557611405612bca565b90506020028101906114179190612be0565b611425906040810190612c00565b6006548a8a8781811061143a5761143a612bca565b905060200281019061144c9190612be0565b61145a9060208101906124f8565b8b8b8881811061146c5761146c612bca565b905060200281019061147e9190612be0565b61148f906040810190602001612c4a565b6040516020016114e292919060609290921b6bffffffffffffffffffffffff1916825260f01b7fffff00000000000000000000000000000000000000000000000000000000000016601482015260160190565b60405160208183030381529060405280519060200120611f56565b90508015806115405750600061153e88888581811061151e5761151e612bca565b90506020028101906115309190612be0565b6104a99060208101906124f8565b115b1561155e5760405163201dc6f560e01b815260040160405180910390fd5b6115e387878481811061157357611573612bca565b90506020028101906115859190612be0565b6115939060208101906124f8565b61159c86612c7b565b9550856001600160801b03168989868181106115ba576115ba612bca565b90506020028101906115cc9190612be0565b6115dd906040810190602001612c4a565b42611f90565b836001600160801b03167f391c403938fc06625e9983c6117a6a837a930a7212ea9e234b1ecd9b0f6a3a7088888581811061162057611620612bca565b90506020028101906116329190612be0565b611643906040810190602001612c4a565b6040805161ffff909216825269ffffffffffffffffffff421660208301520160405180910390a28261167481612c7b565b93505050808061168390612ca1565b9150506113e6565b506001600160801b039081169116600160801b026fffffffffffffffffffffffffffffffff19161790555050565b6009546001600160a01b0316156116fc576040517f0dc149f000000000000000000000000000000000000000000000000000000000815260040160405180910390fd5b611724816040516020016117109190612d00565b604051602081830303815290604052611aa7565b600980546001600160a01b039283166001600160a01b0319918216179091556005805492881692909116821790556040516000907f8be0079c531659141344cd1fd0a4f28419497f9722a3daafe3b4186f6b6457e0908290a383600461178a8282612d76565b9050507f297aa6cf51bb39507374bfcb61edead3172fc87755dea183d848c3a23c70496783836040516117be929190612df2565b60405180910390a15050505050565b336117d782610b51565b6001600160a01b031614611817576040517feeddf6ab00000000000000000000000000000000000000000000000000000000815260040160405180910390fd5b6118208161213d565b600880546001600160801b031690600061183983612e3a565b91906101000a8154816001600160801b0302191690836001600160801b031602179055505050565b6007546060906001600160a01b031615611901576007546040517e844d130000000000000000000000000000000000000000000000000000000081523060048201526001600160a01b039091169062844d1390602401600060405180830381865afa1580156118d4573d6000803e3d6000fd5b505050506040513d6000823e601f3d908101601f191682016040526118fc9190810190612aff565b905090565b611909611b58565b6040015161191630611e37565b604051602001611927929190612e5d565b604051602081830303815290604052905090565b60048054604051632565da5f60e11b8152600160a01b820467ffffffffffffffff16928101929092523360248301526001600160a01b031690634acbb4be90604401602060405180830381865afa15801561199a573d6000803e3d6000fd5b505050506040513d601f19601f820116820180604052508101906119be9190612928565b6119db5760405163ea8e4eb560e01b815260040160405180910390fd5b7f297aa6cf51bb39507374bfcb61edead3172fc87755dea183d848c3a23c70496784848484604051611a109493929190612eb4565b60405180910390a150505050565b60048054604051632565da5f60e11b8152600160a01b820467ffffffffffffffff16928101929092526001600160a01b038381166024840152600092911690634acbb4be90604401602060405180830381865afa158015611a83573d6000803e3d6000fd5b505050506040513d601f19601f820116820180604052508101906106e79190612928565b60008082604051602001611abb9190612edb565b6040516020818303038152906040529050600081604051602001611adf9190612f01565b60405160208183030381529060405290508051602082016000f092506001600160a01b038316611b515760405162461bcd60e51b815260206004820152601160248201527f4445504c4f594d454e545f4641494c4544000000000000000000000000000000604482015260640161078e565b5050919050565b611b7c60405180606001604052806060815260200160608152602001606081525090565b600954611b91906001600160a01b0316612201565b8060200190518101906118fc9190612f46565b60048054604051632565da5f60e11b8152600160a01b820467ffffffffffffffff16928101929092523360248301526001600160a01b031690634acbb4be90604401602060405180830381865afa158015611c03573d6000803e3d6000fd5b505050506040513d601f19601f82011682018060405250810190611c279190612928565b611c445760405163ea8e4eb560e01b815260040160405180910390fd5b60088054600160801b90046001600160801b031660005b8451811015611d93576000611c8c868381518110611c7b57611c7b612bca565b602002602001015160000151610c84565b1115611cab5760405163201dc6f560e01b815260040160405180910390fd5b611d06858281518110611cc057611cc0612bca565b60200260200101516000015183611cd690612c7b565b9350836001600160801b0316878481518110611cf457611cf4612bca565b60200260200101516020015142611f90565b816001600160801b03167f391c403938fc06625e9983c6117a6a837a930a7212ea9e234b1ecd9b0f6a3a70868381518110611d4357611d43612bca565b60200260200101516020015142604051611d7992919061ffff92909216825269ffffffffffffffffffff16602082015260400190565b60405180910390a280611d8b81612ca1565b915050611c5b565b5060005b8351811015611dd457611dc2848281518110611db557611db5612bca565b602002602001015161213d565b80611dcc81612ca1565b915050611d97565b5081546001600160801b03908116600160801b838316028181178555855187519093611e039391921617612ffb565b611e0d9190613022565b82546fffffffffffffffffffffffffffffffff19166001600160801b039190911617909155505050565b60606106e76001600160a01b0383166014612222565b606081600003611e745750506040805180820190915260018152600360fc1b602082015290565b8160005b8115611e9e5780611e8881612ca1565b9150611e979050600a83613058565b9150611e78565b60008167ffffffffffffffff811115611eb957611eb9612945565b6040519080825280601f01601f191660200182016040528015611ee3576020820181803683370190505b5090505b8415611f4e57611ef860018361306c565b9150611f05600a8661307f565b611f10906030613093565b60f81b818381518110611f2557611f25612bca565b60200101906001600160f81b031916908160001a905350611f47600a86613058565b9450611ee7565b949350505050565b60008315611f88578360051b8501855b803580851160051b94855260209485185260406000209301818110611f665750505b501492915050565b6001600160a01b038416611fe65760405162461bcd60e51b815260206004820152601160248201527f494e56414c49445f524543495049454e54000000000000000000000000000000604482015260640161078e565b6000838152602081905260409020546001600160a01b03161561204b5760405162461bcd60e51b815260206004820152600e60248201527f414c52454144595f4d494e544544000000000000000000000000000000000000604482015260640161078e565b6001600160a01b0384811660008181526001602081815260408084208054909301909255815160608101835284815261ffff88811682840190815269ffffffffffffffffffff8981168487019081528c885294879052858720935184549251955199167fffffffffffffffffffff0000000000000000000000000000000000000000000090921691909117600160a01b94909216939093021775ffffffffffffffffffffffffffffffffffffffffffff16600160b01b96909216959095021790935591518592907fddf252ad1be2c89b69c2b068fc378daa952ba7f163c4a11628f55a4df523b3ef908290a450505050565b6000818152602081905260409020546001600160a01b03168061218f5760405162461bcd60e51b815260206004820152600a6024820152691393d517d3525395115160b21b604482015260640161078e565b6001600160a01b03811660008181526001602090815260408083208054600019019055858352828252808320839055600290915280822080546001600160a01b0319169055518492907fddf252ad1be2c89b69c2b068fc378daa952ba7f163c4a11628f55a4df523b3ef908390a45050565b60606106e782600161221d816001600160a01b0384163b61306c565b6123ee565b606060006122318360026130a6565b61223c906002613093565b67ffffffffffffffff81111561225457612254612945565b6040519080825280601f01601f19166020018201604052801561227e576020820181803683370190505b509050600360fc1b8160008151811061229957612299612bca565b60200101906001600160f81b031916908160001a9053507f7800000000000000000000000000000000000000000000000000000000000000816001815181106122e4576122e4612bca565b60200101906001600160f81b031916908160001a90535060006123088460026130a6565b612313906001613093565b90505b6001811115612398577f303132333435363738396162636465660000000000000000000000000000000085600f166010811061235457612354612bca565b1a60f81b82828151811061236a5761236a612bca565b60200101906001600160f81b031916908160001a90535060049490941c93612391816130bd565b9050612316565b5083156123e75760405162461bcd60e51b815260206004820181905260248201527f537472696e67733a20686578206c656e67746820696e73756666696369656e74604482015260640161078e565b9392505050565b60408051603f8301601f19168101909152818152818360208301863c9392505050565b6001600160e01b03198116811461242757600080fd5b50565b60006020828403121561243c57600080fd5b81356123e781612411565b60005b8381101561246257818101518382015260200161244a565b50506000910152565b602081526000825180602084015261248a816040850160208701612447565b601f01601f19169190910160400192915050565b6000602082840312156124b057600080fd5b5035919050565b6001600160a01b038116811461242757600080fd5b600080604083850312156124df57600080fd5b82356124ea816124b7565b946020939093013593505050565b60006020828403121561250a57600080fd5b81356123e7816124b7565b60008060006060848603121561252a57600080fd5b8335612535816124b7565b92506020840135612545816124b7565b929592945050506040919091013590565b60008083601f84011261256857600080fd5b50813567ffffffffffffffff81111561258057600080fd5b6020830191508360208260061b850101111561259b57600080fd5b9250929050565b60008083601f8401126125b457600080fd5b50813567ffffffffffffffff8111156125cc57600080fd5b6020830191508360208260051b850101111561259b57600080fd5b600080600080604085870312156125fd57600080fd5b843567ffffffffffffffff8082111561261557600080fd5b61262188838901612556565b9096509450602087013591508082111561263a57600080fd5b50612647878288016125a2565b95989497509550505050565b801515811461242757600080fd5b6000806040838503121561267457600080fd5b823561267f816124b7565b9150602083013561268f81612653565b809150509250929050565b6000806000806000606086880312156126b257600080fd5b85359450602086013567ffffffffffffffff808211156126d157600080fd5b6126dd89838a01612556565b909650945060408801359150808211156126f657600080fd5b50612703888289016125a2565b969995985093965092949392505050565b60008083601f84011261272657600080fd5b50813567ffffffffffffffff81111561273e57600080fd5b60208301915083602082850101111561259b57600080fd5b60008060008060006080868803121561276e57600080fd5b8535612779816124b7565b94506020860135612789816124b7565b935060408601359250606086013567ffffffffffffffff8111156127ac57600080fd5b61270388828901612714565b600080602083850312156127cb57600080fd5b823567ffffffffffffffff8111156127e257600080fd5b6127ee858286016125a2565b90969095509350505050565b600080600080600085870360a081121561281357600080fd5b863561281e816124b7565b95506040601f198201121561283257600080fd5b50602086019350606086013567ffffffffffffffff8082111561285457600080fd5b61286089838a01612714565b9095509350608088013591508082111561287957600080fd5b5086016060818903121561288c57600080fd5b809150509295509295909350565b600080604083850312156128ad57600080fd5b82356128b8816124b7565b9150602083013561268f816124b7565b600080600080604085870312156128de57600080fd5b843567ffffffffffffffff808211156128f657600080fd5b61290288838901612714565b9096509450602087013591508082111561291b57600080fd5b5061264787828801612714565b60006020828403121561293a57600080fd5b81516123e781612653565b634e487b7160e01b600052604160045260246000fd5b6040516060810167ffffffffffffffff8111828210171561297e5761297e612945565b60405290565b803561ffff81168114610ba357600080fd5b6000604082840312156129a857600080fd5b6040516040810181811067ffffffffffffffff821117156129cb576129cb612945565b60405282356129d9816124b7565b81526129e760208401612984565b60208201529392505050565b600060208284031215612a0557600080fd5b81516123e781612411565b81835281816020850137506000828201602090810191909152601f909101601f19169091010190565b60006001600160a01b03808816835280871660208401525084604083015260806060830152612a6c608083018486612a10565b979650505050505050565b600082601f830112612a8857600080fd5b815167ffffffffffffffff80821115612aa357612aa3612945565b604051601f8301601f19908116603f01168101908282118183101715612acb57612acb612945565b81604052838152866020858801011115612ae457600080fd5b612af5846020830160208901612447565b9695505050505050565b600060208284031215612b1157600080fd5b815167ffffffffffffffff811115612b2857600080fd5b611f4e84828501612a77565b60008451612b46818460208901612447565b845190830190612b5a818360208901612447565b7f2f0000000000000000000000000000000000000000000000000000000000000091019081528351612b93816001840160208801612447565b7f2e6a736f6e0000000000000000000000000000000000000000000000000000006001929091019182015260060195945050505050565b634e487b7160e01b600052603260045260246000fd5b60008235605e19833603018112612bf657600080fd5b9190910192915050565b6000808335601e19843603018112612c1757600080fd5b83018035915067ffffffffffffffff821115612c3257600080fd5b6020019150600581901b360382131561259b57600080fd5b600060208284031215612c5c57600080fd5b6123e782612984565b634e487b7160e01b600052601160045260246000fd5b60006001600160801b03808316818103612c9757612c97612c65565b6001019392505050565b600060018201612cb357612cb3612c65565b5060010190565b6000808335601e19843603018112612cd157600080fd5b830160208101925035905067ffffffffffffffff811115612cf157600080fd5b80360382131561259b57600080fd5b602081526000612d108384612cba565b60606020850152612d25608085018284612a10565b915050612d356020850185612cba565b601f1980868503016040870152612d4d848385612a10565b9350612d5c6040880188612cba565b935091508086850301606087015250612af5838383612a10565b8135612d81816124b7565b6001600160a01b03811690508154816001600160a01b03198216178355602084013567ffffffffffffffff81168114612db957600080fd5b7bffffffffffffffff00000000000000000000000000000000000000008160a01b16836001600160e01b03198416171784555050505050565b60408152600860408201527f6d657461646174610000000000000000000000000000000000000000000000006060820152608060208201526000611f4e608083018486612a10565b60006001600160801b03821680612e5357612e53612c65565b6000190192915050565b60008351612e6f818460208801612447565b835190830190612e83818360208801612447565b7f2f636f6c6c656374696f6e2e6a736f6e000000000000000000000000000000009101908152601001949350505050565b604081526000612ec8604083018688612a10565b8281036020840152612a6c818587612a10565b6000815260008251612ef4816001850160208701612447565b9190910160010192915050565b7f600b5981380380925939f3000000000000000000000000000000000000000000815260008251612f3981600b850160208701612447565b91909101600b0192915050565b600060208284031215612f5857600080fd5b815167ffffffffffffffff80821115612f7057600080fd5b9083019060608286031215612f8457600080fd5b612f8c61295b565b825182811115612f9b57600080fd5b612fa787828601612a77565b825250602083015182811115612fbc57600080fd5b612fc887828601612a77565b602083015250604083015182811115612fe057600080fd5b612fec87828601612a77565b60408301525095945050505050565b6001600160801b0381811683821601908082111561301b5761301b612c65565b5092915050565b6001600160801b0382811682821603908082111561301b5761301b612c65565b634e487b7160e01b600052601260045260246000fd5b60008261306757613067613042565b500490565b818103818111156106e7576106e7612c65565b60008261308e5761308e613042565b500690565b808201808211156106e7576106e7612c65565b80820281158282048414176106e7576106e7612c65565b6000816130cc576130cc612c65565b50600019019056fea264697066735822122083ec1dc262cdca0b041ad6f84e7edc22b8e2c891d6d3904b6e264999b93aee5964736f6c63430008110033",
  "linkReferences": {},
  "deployedLinkReferences": {}
}