{
  "_format": "hh-sol-artifact-1",
  "contractName": "MembershipsFactory",
  "sourceName": "contracts/MembershipsFactory.sol",
  "abi": [
    {
      "inputs": [
        {
          "internalType": "contract INodeRegistry",
          "name": "_nodeRegistry",
          "type": "address"
        },
        {
          "internalType": "contract Memberships",
          "name": "_implementation",
          "type": "address"
        }
      ],
      "stateMutability": "nonpayable",
      "type": "constructor"
    },
    {
      "inputs": [],
      "name": "NotAuthorized",
      "type": "error"
    },
    {
      "anonymous": false,
      "inputs": [
        {
          "indexed": true,
          "internalType": "contract Memberships",
          "name": "memberships",
          "type": "address"
        }
      ],
      "name": "MembershipsCreated",
      "type": "event"
    },
    {
      "inputs": [
        {
          "components": [
            {
              "internalType": "string",
              "name": "name",
              "type": "string"
            },
            {
              "internalType": "string",
              "name": "symbol",
              "type": "string"
            },
            {
              "internalType": "string",
              "name": "baseURI",
              "type": "string"
            },
            {
              "internalType": "address",
              "name": "owner",
              "type": "address"
            },
            {
              "internalType": "uint64",
              "name": "controlNodeId",
              "type": "uint64"
            },
            {
              "internalType": "string",
              "name": "metadata",
              "type": "string"
            }
          ],
          "internalType": "struct CreateMembershipsConfig",
          "name": "config",
          "type": "tuple"
        }
      ],
      "name": "createMemberships",
      "outputs": [
        {
          "internalType": "contract Memberships",
          "name": "memberships",
          "type": "address"
        }
      ],
      "stateMutability": "nonpayable",
      "type": "function"
    },
    {
      "inputs": [],
      "name": "implementation",
      "outputs": [
        {
          "internalType": "contract Memberships",
          "name": "",
          "type": "address"
        }
      ],
      "stateMutability": "view",
      "type": "function"
    },
    {
      "inputs": [],
      "name": "nodeRegistry",
      "outputs": [
        {
          "internalType": "contract INodeRegistry",
          "name": "",
          "type": "address"
        }
      ],
      "stateMutability": "view",
      "type": "function"
    }
  ],
  "bytecode": "0x60c060405234801561001057600080fd5b506040516107dc3803806107dc83398101604081905261002f9161005e565b6001600160a01b039081166080521660a052610098565b6001600160a01b038116811461005b57600080fd5b50565b6000806040838503121561007157600080fd5b825161007c81610046565b602084015190925061008d81610046565b809150509250929050565b60805160a05161070d6100cf6000396000818160a10152818160cf015261021f015260008181607a01526101c6015261070d6000f3fe608060405234801561001057600080fd5b50600436106100415760003560e01c80634fffb7d0146100465780635c60da1b14610075578063d9b5c4a51461009c575b600080fd5b6100596100543660046104cb565b6100c3565b6040516001600160a01b03909116815260200160405180910390f35b6100597f000000000000000000000000000000000000000000000000000000000000000081565b6100597f000000000000000000000000000000000000000000000000000000000000000081565b60006001600160a01b037f000000000000000000000000000000000000000000000000000000000000000016634acbb4be61010460a085016080860161050d565b6040517fffffffff0000000000000000000000000000000000000000000000000000000060e084901b16815267ffffffffffffffff9091166004820152336024820152604401602060405180830381865afa158015610167573d6000803e3d6000fd5b505050506040513d601f19601f8201168201806040525081019061018b9190610537565b6101c1576040517fea8e4eb500000000000000000000000000000000000000000000000000000000815260040160405180910390fd5b6101ea7f00000000000000000000000000000000000000000000000000000000000000006103f2565b90506001600160a01b03811663e112c5cc61020b6080850160608601610559565b604080518082019091526001600160a01b037f00000000000000000000000000000000000000000000000000000000000000001681526020810161025560a088016080890161050d565b67ffffffffffffffff16905261026e60a0870187610582565b6040805160608101909152806102848a80610582565b8080601f0160208091040260200160405190810160405280939291908181526020018383808284376000920191909152505050908252506020908101906102cd908b018b610582565b8080601f01602080910402602001604051908101604052809392919081815260200183838082843760009201919091525050509082525060200161031460408b018b610582565b8080601f01602080910402602001604051908101604052809392919081815260200183838082843760009201919091525050509152506040517fffffffff0000000000000000000000000000000000000000000000000000000060e088901b168152610387959493929190600401610616565b600060405180830381600087803b1580156103a157600080fd5b505af11580156103b5573d6000803e3d6000fd5b50506040516001600160a01b03841692507f050438eeced10ef34b97e26b0aa606e1139b9d470013eb9c99558fd24c8123939150600090a2919050565b60006040517f3d602d80600a3d3981f3363d3d373d3d3d363d7300000000000000000000000081528260601b60148201527f5af43d82803e903d91602b57fd5bf3000000000000000000000000000000000060288201526037816000f09150506001600160a01b0381166104c6576040517f08c379a000000000000000000000000000000000000000000000000000000000815260206004820152601660248201527f455243313136373a20637265617465206661696c656400000000000000000000604482015260640160405180910390fd5b919050565b6000602082840312156104dd57600080fd5b813567ffffffffffffffff8111156104f457600080fd5b820160c0818503121561050657600080fd5b9392505050565b60006020828403121561051f57600080fd5b813567ffffffffffffffff8116811461050657600080fd5b60006020828403121561054957600080fd5b8151801515811461050657600080fd5b60006020828403121561056b57600080fd5b81356001600160a01b038116811461050657600080fd5b6000808335601e1984360301811261059957600080fd5b83018035915067ffffffffffffffff8211156105b457600080fd5b6020019150368190038213156105c957600080fd5b9250929050565b6000815180845260005b818110156105f6576020818501810151868301820152016105da565b506000602082860101526020601f19601f83011685010191505092915050565b60006001600160a01b0380881683528087511660208401525067ffffffffffffffff602087015116604083015260a060608301528360a0830152838560c0840137600060c08584010152601f19601f850116820160c08382030160808401528351606060c083015261068c6101208301826105d0565b9050602085015160bf19808484030160e08501526106aa83836105d0565b9250604087015191508084840301610100850152506106c982826105d0565b9a995050505050505050505056fea2646970667358221220fbb360287b4aad4ea5705408e8191419e4ca3db4a3138cbb1d3762f9aef47b4764736f6c63430008110033",
  "linkReferences": {},
  "deployedLinkReferences": {}
}