{
  "_format": "hh-sol-artifact-1",
  "contractName": "Memberships",
  "sourceName": "contracts/Memberships.sol",
  "abi": [
    {
      "inputs": [],
      "stateMutability": "nonpayable",
      "type": "constructor"
    },
    {
      "inputs": [],
      "name": "AlreadyInitialized",
      "type": "error"
    },
    {
      "inputs": [],
      "name": "InvalidBurn",
      "type": "error"
    },
    {
      "inputs": [],
      "name": "InvalidMint",
      "type": "error"
    },
    {
      "inputs": [],
      "name": "InvalidTransfer",
      "type": "error"
    },
    {
      "inputs": [],
      "name": "NotAuthorized",
      "type": "error"
    },
    {
      "inputs": [],
      "name": "TransferNotAllowed",
      "type": "error"
    },
    {
      "anonymous": false,
      "inputs": [
        {
          "indexed": true,
          "internalType": "address",
          "name": "owner",
          "type": "address"
        },
        {
          "indexed": true,
          "internalType": "address",
          "name": "spender",
          "type": "address"
        },
        {
          "indexed": true,
          "internalType": "uint256",
          "name": "id",
          "type": "uint256"
        }
      ],
      "name": "Approval",
      "type": "event"
    },
    {
      "anonymous": false,
      "inputs": [
        {
          "indexed": true,
          "internalType": "address",
          "name": "owner",
          "type": "address"
        },
        {
          "indexed": true,
          "internalType": "address",
          "name": "operator",
          "type": "address"
        },
        {
          "indexed": false,
          "internalType": "bool",
          "name": "approved",
          "type": "bool"
        }
      ],
      "name": "ApprovalForAll",
      "type": "event"
    },
    {
      "anonymous": false,
      "inputs": [
        {
          "indexed": false,
          "internalType": "string",
          "name": "topic",
          "type": "string"
        },
        {
          "indexed": false,
          "internalType": "string",
          "name": "message",
          "type": "string"
        }
      ],
      "name": "Broadcast",
      "type": "event"
    },
    {
      "anonymous": false,
      "inputs": [
        {
          "indexed": false,
          "internalType": "contract ICustomMetadataResolver",
          "name": "resolver",
          "type": "address"
        }
      ],
      "name": "CustomMetadataResolverUpdated",
      "type": "event"
    },
    {
      "anonymous": false,
      "inputs": [
        {
          "indexed": true,
          "internalType": "uint256",
          "name": "tokenId",
          "type": "uint256"
        },
        {
          "indexed": false,
          "internalType": "uint16",
          "name": "sequenceId",
          "type": "uint16"
        },
        {
          "indexed": false,
          "internalType": "uint80",
          "name": "timestamp",
          "type": "uint80"
        }
      ],
      "name": "MembershipCreated",
      "type": "event"
    },
    {
      "anonymous": false,
      "inputs": [
        {
          "indexed": false,
          "internalType": "bytes32",
          "name": "root",
          "type": "bytes32"
        }
      ],
      "name": "MembershipListRootUpdated",
      "type": "event"
    },
    {
      "anonymous": false,
      "inputs": [
        {
          "indexed": true,
          "internalType": "address",
          "name": "previousOwner",
          "type": "address"
        },
        {
          "indexed": true,
          "internalType": "address",
          "name": "newOwner",
          "type": "address"
        }
      ],
      "name": "OwnershipTransferred",
      "type": "event"
    },
    {
      "anonymous": false,
      "inputs": [
        {
          "indexed": true,
          "internalType": "address",
          "name": "from",
          "type": "address"
        },
        {
          "indexed": true,
          "internalType": "address",
          "name": "to",
          "type": "address"
        },
        {
          "indexed": true,
          "internalType": "uint256",
          "name": "id",
          "type": "uint256"
        }
      ],
      "name": "Transfer",
      "type": "event"
    },
    {
      "inputs": [],
      "name": "accessControl",
      "outputs": [
        {
          "internalType": "contract INodeRegistry",
          "name": "nodeRegistry",
          "type": "address"
        },
        {
          "internalType": "uint64",
          "name": "controlNodeId",
          "type": "uint64"
        }
      ],
      "stateMutability": "view",
      "type": "function"
    },
    {
      "inputs": [
        {
          "internalType": "address",
          "name": "from",
          "type": "address"
        },
        {
          "internalType": "address",
          "name": "to",
          "type": "address"
        },
        {
          "internalType": "uint256",
          "name": "id",
          "type": "uint256"
        }
      ],
      "name": "adminTransferFrom",
      "outputs": [],
      "stateMutability": "nonpayable",
      "type": "function"
    },
    {
      "inputs": [
        {
          "internalType": "address",
          "name": "spender",
          "type": "address"
        },
        {
          "internalType": "uint256",
          "name": "id",
          "type": "uint256"
        }
      ],
      "name": "approve",
      "outputs": [],
      "stateMutability": "nonpayable",
      "type": "function"
    },
    {
      "inputs": [
        {
          "internalType": "address",
          "name": "owner",
          "type": "address"
        }
      ],
      "name": "balanceOf",
      "outputs": [
        {
          "internalType": "uint256",
          "name": "",
          "type": "uint256"
        }
      ],
      "stateMutability": "view",
      "type": "function"
    },
    {
      "inputs": [
        {
          "components": [
            {
              "internalType": "address",
              "name": "to",
              "type": "address"
            },
            {
              "internalType": "uint16",
              "name": "sequenceId",
              "type": "uint16"
            }
          ],
          "internalType": "struct AdminMembershipMint[]",
          "name": "mints",
          "type": "tuple[]"
        },
        {
          "internalType": "uint256[]",
          "name": "burns",
          "type": "uint256[]"
        }
      ],
      "name": "batchMintAndBurn",
      "outputs": [],
      "stateMutability": "nonpayable",
      "type": "function"
    },
    {
      "inputs": [
        {
          "internalType": "string",
          "name": "topic",
          "type": "string"
        },
        {
          "internalType": "string",
          "name": "message",
          "type": "string"
        }
      ],
      "name": "broadcast",
      "outputs": [],
      "stateMutability": "nonpayable",
      "type": "function"
    },
    {
      "inputs": [
        {
          "internalType": "uint256",
          "name": "tokenId",
          "type": "uint256"
        }
      ],
      "name": "burnMembership",
      "outputs": [],
      "stateMutability": "nonpayable",
      "type": "function"
    },
    {
      "inputs": [],
      "name": "contractURI",
      "outputs": [
        {
          "internalType": "string",
          "name": "uri",
          "type": "string"
        }
      ],
      "stateMutability": "view",
      "type": "function"
    },
    {
      "inputs": [],
      "name": "controlNode",
      "outputs": [
        {
          "internalType": "uint64",
          "name": "nodeId",
          "type": "uint64"
        }
      ],
      "stateMutability": "view",
      "type": "function"
    },
    {
      "inputs": [],
      "name": "customMetadataResolver",
      "outputs": [
        {
          "internalType": "contract ICustomMetadataResolver",
          "name": "",
          "type": "address"
        }
      ],
      "stateMutability": "view",
      "type": "function"
    },
    {
      "inputs": [
        {
          "internalType": "uint256",
          "name": "",
          "type": "uint256"
        }
      ],
      "name": "getApproved",
      "outputs": [
        {
          "internalType": "address",
          "name": "",
          "type": "address"
        }
      ],
      "stateMutability": "view",
      "type": "function"
    },
    {
      "inputs": [
        {
          "internalType": "uint256",
          "name": "id",
          "type": "uint256"
        }
      ],
      "name": "getTokenData",
      "outputs": [
        {
          "components": [
            {
              "internalType": "address",
              "name": "owner",
              "type": "address"
            },
            {
              "internalType": "uint16",
              "name": "sequenceId",
              "type": "uint16"
            },
            {
              "internalType": "uint80",
              "name": "data",
              "type": "uint80"
            }
          ],
          "internalType": "struct TokenData",
          "name": "",
          "type": "tuple"
        }
      ],
      "stateMutability": "view",
      "type": "function"
    },
    {
      "inputs": [
        {
          "internalType": "address",
          "name": "_owner",
          "type": "address"
        },
        {
          "components": [
            {
              "internalType": "contract INodeRegistry",
              "name": "nodeRegistry",
              "type": "address"
            },
            {
              "internalType": "uint64",
              "name": "controlNodeId",
              "type": "uint64"
            }
          ],
          "internalType": "struct AccessControlData",
          "name": "_accessControl",
          "type": "tuple"
        },
        {
          "internalType": "string",
          "name": "_metadata",
          "type": "string"
        },
        {
          "components": [
            {
              "internalType": "string",
              "name": "name",
              "type": "string"
            },
            {
              "internalType": "string",
              "name": "symbol",
              "type": "string"
            },
            {
              "internalType": "string",
              "name": "baseURI",
              "type": "string"
            }
          ],
          "internalType": "struct ImmutableCollectionData",
          "name": "_data",
          "type": "tuple"
        }
      ],
      "name": "init",
      "outputs": [],
      "stateMutability": "nonpayable",
      "type": "function"
    },
    {
      "inputs": [
        {
          "internalType": "address",
          "name": "",
          "type": "address"
        },
        {
          "internalType": "address",
          "name": "",
          "type": "address"
        }
      ],
      "name": "isApprovedForAll",
      "outputs": [
        {
          "internalType": "bool",
          "name": "",
          "type": "bool"
        }
      ],
      "stateMutability": "view",
      "type": "function"
    },
    {
      "inputs": [
        {
          "internalType": "address",
          "name": "subject",
          "type": "address"
        }
      ],
      "name": "isAuthorized",
      "outputs": [
        {
          "internalType": "bool",
          "name": "authorized",
          "type": "bool"
        }
      ],
      "stateMutability": "view",
      "type": "function"
    },
    {
      "inputs": [],
      "name": "membershipListRoot",
      "outputs": [
        {
          "internalType": "bytes32",
          "name": "",
          "type": "bytes32"
        }
      ],
      "stateMutability": "view",
      "type": "function"
    },
    {
      "inputs": [
        {
          "components": [
            {
              "internalType": "address",
              "name": "to",
              "type": "address"
            },
            {
              "internalType": "uint16",
              "name": "sequenceId",
              "type": "uint16"
            },
            {
              "internalType": "bytes32[]",
              "name": "proof",
              "type": "bytes32[]"
            }
          ],
          "internalType": "struct MembershipMint[]",
          "name": "mints",
          "type": "tuple[]"
        }
      ],
      "name": "mintMemberships",
      "outputs": [],
      "stateMutability": "nonpayable",
      "type": "function"
    },
    {
      "inputs": [],
      "name": "name",
      "outputs": [
        {
          "internalType": "string",
          "name": "value",
          "type": "string"
        }
      ],
      "stateMutability": "view",
      "type": "function"
    },
    {
      "inputs": [],
      "name": "nodeRegistry",
      "outputs": [
        {
          "internalType": "contract INodeRegistry",
          "name": "",
          "type": "address"
        }
      ],
      "stateMutability": "view",
      "type": "function"
    },
    {
      "inputs": [],
      "name": "owner",
      "outputs": [
        {
          "internalType": "address",
          "name": "",
          "type": "address"
        }
      ],
      "stateMutability": "view",
      "type": "function"
    },
    {
      "inputs": [
        {
          "internalType": "uint256",
          "name": "id",
          "type": "uint256"
        }
      ],
      "name": "ownerOf",
      "outputs": [
        {
          "internalType": "address",
          "name": "owner",
          "type": "address"
        }
      ],
      "stateMutability": "view",
      "type": "function"
    },
    {
      "inputs": [
        {
          "internalType": "address",
          "name": "from",
          "type": "address"
        },
        {
          "internalType": "address",
          "name": "to",
          "type": "address"
        },
        {
          "internalType": "uint256",
          "name": "id",
          "type": "uint256"
        }
      ],
      "name": "safeTransferFrom",
      "outputs": [],
      "stateMutability": "nonpayable",
      "type": "function"
    },
    {
      "inputs": [
        {
          "internalType": "address",
          "name": "from",
          "type": "address"
        },
        {
          "internalType": "address",
          "name": "to",
          "type": "address"
        },
        {
          "internalType": "uint256",
          "name": "id",
          "type": "uint256"
        },
        {
          "internalType": "bytes",
          "name": "data",
          "type": "bytes"
        }
      ],
      "name": "safeTransferFrom",
      "outputs": [],
      "stateMutability": "nonpayable",
      "type": "function"
    },
    {
      "inputs": [
        {
          "internalType": "address",
          "name": "operator",
          "type": "address"
        },
        {
          "internalType": "bool",
          "name": "approved",
          "type": "bool"
        }
      ],
      "name": "setApprovalForAll",
      "outputs": [],
      "stateMutability": "nonpayable",
      "type": "function"
    },
    {
      "inputs": [
        {
          "internalType": "contract ICustomMetadataResolver",
          "name": "_resolver",
          "type": "address"
        }
      ],
      "name": "setCustomMetadataResolver",
      "outputs": [],
      "stateMutability": "nonpayable",
      "type": "function"
    },
    {
      "inputs": [
        {
          "internalType": "bytes32",
          "name": "_root",
          "type": "bytes32"
        }
      ],
      "name": "setMembershipListRoot",
      "outputs": [],
      "stateMutability": "nonpayable",
      "type": "function"
    },
    {
      "inputs": [
        {
          "internalType": "address",
          "name": "_owner",
          "type": "address"
        }
      ],
      "name": "setOwner",
      "outputs": [],
      "stateMutability": "nonpayable",
      "type": "function"
    },
    {
      "inputs": [
        {
          "internalType": "bytes4",
          "name": "interfaceId",
          "type": "bytes4"
        }
      ],
      "name": "supportsInterface",
      "outputs": [
        {
          "internalType": "bool",
          "name": "",
          "type": "bool"
        }
      ],
      "stateMutability": "view",
      "type": "function"
    },
    {
      "inputs": [],
      "name": "symbol",
      "outputs": [
        {
          "internalType": "string",
          "name": "value",
          "type": "string"
        }
      ],
      "stateMutability": "view",
      "type": "function"
    },
    {
      "inputs": [
        {
          "internalType": "uint256",
          "name": "tokenId",
          "type": "uint256"
        }
      ],
      "name": "tokenMintTimestamp",
      "outputs": [
        {
          "internalType": "uint80",
          "name": "timestamp",
          "type": "uint80"
        }
      ],
      "stateMutability": "view",
      "type": "function"
    },
    {
      "inputs": [
        {
          "internalType": "uint256",
          "name": "tokenId",
          "type": "uint256"
        }
      ],
      "name": "tokenSequenceId",
      "outputs": [
        {
          "internalType": "uint16",
          "name": "sequenceId",
          "type": "uint16"
        }
      ],
      "stateMutability": "view",
      "type": "function"
    },
    {
      "inputs": [
        {
          "internalType": "uint256",
          "name": "tokenId",
          "type": "uint256"
        }
      ],
      "name": "tokenURI",
      "outputs": [
        {
          "internalType": "string",
          "name": "uri",
          "type": "string"
        }
      ],
      "stateMutability": "view",
      "type": "function"
    },
    {
      "inputs": [],
      "name": "totalMinted",
      "outputs": [
        {
          "internalType": "uint256",
          "name": "",
          "type": "uint256"
        }
      ],
      "stateMutability": "view",
      "type": "function"
    },
    {
      "inputs": [],
      "name": "totalSupply",
      "outputs": [
        {
          "internalType": "uint256",
          "name": "",
          "type": "uint256"
        }
      ],
      "stateMutability": "view",
      "type": "function"
    },
    {
      "inputs": [
        {
          "internalType": "address",
          "name": "",
          "type": "address"
        },
        {
          "internalType": "address",
          "name": "",
          "type": "address"
        },
        {
          "internalType": "uint256",
          "name": "",
          "type": "uint256"
        }
      ],
      "name": "transferFrom",
      "outputs": [],
      "stateMutability": "pure",
      "type": "function"
    },
    {
      "inputs": [
        {
          "internalType": "bytes32",
          "name": "_root",
          "type": "bytes32"
        },
        {
          "components": [
            {
              "internalType": "address",
              "name": "to",
              "type": "address"
            },
            {
              "internalType": "uint16",
              "name": "sequenceId",
              "type": "uint16"
            }
          ],
          "internalType": "struct AdminMembershipMint[]",
          "name": "mints",
          "type": "tuple[]"
        },
        {
          "internalType": "uint256[]",
          "name": "burns",
          "type": "uint256[]"
        }
      ],
      "name": "updateMemberships",
      "outputs": [],
      "stateMutability": "nonpayable",
      "type": "function"
    }
  ],
  "bytecode": "0x60806040523480156200001157600080fd5b5060408051608081018252600060608201818152825282516020818101855282825280840191909152835180820185529182528284019190915291516200007f926200005f929101620001a7565b604051602081830303815290604052620000a560201b62001ae31760201c565b600980546001600160a01b0319166001600160a01b03929092169190911790556200026c565b60008082604051602001620000bb91906200020e565b6040516020818303038152906040529050600081604051602001620000e1919062000236565b60405160208183030381529060405290508051602082016000f092506001600160a01b0383166200014c5760405162461bcd60e51b81526020600482015260116024820152701111541313d65351539517d19052531151607a1b604482015260640160405180910390fd5b5050919050565b60005b838110156200017057818101518382015260200162000156565b50506000910152565b600081518084526200019381602086016020860162000153565b601f01601f19169290920160200192915050565b602081526000825160606020840152620001c5608084018262000179565b90506020840151601f1980858403016040860152620001e5838362000179565b925060408601519150808584030160608601525062000205828262000179565b95945050505050565b60008152600082516200022981600185016020870162000153565b9190910160010192915050565b6a600b5981380380925939f360a81b815281516000906200025f81600b85016020870162000153565b91909101600b0192915050565b6130a6806200027c6000396000f3fe608060405234801561001057600080fd5b506004361061025c5760003560e01c80638da5cb5b11610145578063cba74df7116100bd578063e59617541161008c578063e985e9c511610071578063e985e9c5146105fc578063f8ca7b281461062a578063fe9fbb801461063d57600080fd5b8063e5961754146105e1578063e8a3d485146105f457600080fd5b8063cba74df7146105a1578063cc308ef7146105aa578063d9b5c4a5146105bd578063e112c5cc146105ce57600080fd5b8063b09afec111610114578063b2b66227116100f9578063b2b6622714610568578063b88d4fde1461057b578063c87b56dd1461058e57600080fd5b8063b09afec114610507578063b1197a371461055557600080fd5b80638da5cb5b146104c157806395d89b41146104d4578063a22cb465146104dc578063a2309ff8146104ef57600080fd5b80632dad65c8116101d857806342842e0e116101a75780636698f26d1161018c5780636698f26d1461048857806370a082311461049b5780637aa66a00146104ae57600080fd5b806342842e0e146104625780636352211e1461047557600080fd5b80632dad65c8146103b05780633246d699146103ee5780633b9af5e9146104015780633d5ba3d71461044f57600080fd5b806313007d551161022f5780631616d249116102145780631616d2491461035557806318160ddd1461038257806323b872dd1461039d57600080fd5b806313007d55146102f457806313af40351461034257600080fd5b806301ffc9a71461026157806306fdde0314610289578063081812fc1461029e578063095ea7b3146102df575b600080fd5b61027461026f3660046123c6565b610650565b60405190151581526020015b60405180910390f35b6102916106ed565b6040516102809190612407565b6102c76102ac36600461243a565b6002602052600090815260409020546001600160a01b031681565b6040516001600160a01b039091168152602001610280565b6102f26102ed366004612468565b6106fd565b005b60045461031a906001600160a01b03811690600160a01b900467ffffffffffffffff1682565b604080516001600160a01b03909316835267ffffffffffffffff909116602083015201610280565b6102f2610350366004612494565b6107f3565b600454600160a01b900467ffffffffffffffff1660405167ffffffffffffffff9091168152602001610280565b6008546001600160801b03165b604051908152602001610280565b6102f26103ab3660046124b1565b6108e5565b6103db6103be36600461243a565b600090815260208190526040902054600160a01b900461ffff1690565b60405161ffff9091168152602001610280565b6102f26103fc366004612583565b610917565b61043461040f36600461243a565b600090815260208190526040902054600160b01b900469ffffffffffffffffffff1690565b60405169ffffffffffffffffffff9091168152602001610280565b6007546102c7906001600160a01b031681565b6102f26104703660046124b1565b610a4c565b6102c761048336600461243a565b610b51565b6102f261049636600461243a565b610ba8565b61038f6104a9366004612494565b610c84565b6102f26104bc366004612494565b610cf8565b6005546102c7906001600160a01b031681565b610291610de6565b6102f26104ea3660046125fd565b610df9565b600854600160801b90046001600160801b031661038f565b61051a61051536600461243a565b610e65565b6040805182516001600160a01b0316815260208084015161ffff16908201529181015169ffffffffffffffffffff1690820152606001610280565b6102f26105633660046124b1565b610f0e565b6102f2610576366004612636565b6110eb565b6102f26105893660046126f2565b61121b565b61029161059c36600461243a565b611309565b61038f60065481565b6102f26105b8366004612754565b6113f3565b6004546001600160a01b03166102c7565b6102f26105dc366004612796565b6116f5565b6102f26105ef36600461243a565b611809565b61029161189d565b61027461060a366004612836565b600360209081526000928352604080842090915290825290205460ff1681565b6102f2610638366004612864565b611977565b61027461064b366004612494565b611a5a565b60007f01ffc9a7000000000000000000000000000000000000000000000000000000006001600160e01b0319831614806106b357507f80ac58cd000000000000000000000000000000000000000000000000000000006001600160e01b03198316145b806106e757507f5b5e139f000000000000000000000000000000000000000000000000000000006001600160e01b03198316145b92915050565b60606106f7611b94565b51919050565b6000818152602081905260409020546001600160a01b03163381148061074657506001600160a01b038116600090815260036020908152604080832033845290915290205460ff165b6107975760405162461bcd60e51b815260206004820152600e60248201527f4e4f545f415554484f52495a454400000000000000000000000000000000000060448201526064015b60405180910390fd5b60008281526002602052604080822080546001600160a01b0319166001600160a01b0387811691821790925591518593918516917f8c5be1e5ebec7d5bd14f71427d1e84f3dd0314c0f7b2291e5b200ac8c7c3b92591a4505050565b60048054604051632565da5f60e11b8152600160a01b820467ffffffffffffffff16928101929092523360248301526001600160a01b031690634acbb4be90604401602060405180830381865afa158015610852573d6000803e3d6000fd5b505050506040513d601f19601f8201168201806040525081019061087691906128c4565b6108935760405163ea8e4eb560e01b815260040160405180910390fd5b600580546001600160a01b038381166001600160a01b0319831681179093556040519116919082907f8be0079c531659141344cd1fd0a4f28419497f9722a3daafe3b4186f6b6457e090600090a35050565b6040517f8cd22d1900000000000000000000000000000000000000000000000000000000815260040160405180910390fd5b60048054604051632565da5f60e11b8152600160a01b820467ffffffffffffffff16928101929092523360248301526001600160a01b031690634acbb4be90604401602060405180830381865afa158015610976573d6000803e3d6000fd5b505050506040513d601f19601f8201168201806040525081019061099a91906128c4565b6109b75760405163ea8e4eb560e01b815260040160405180910390fd5b610a468484808060200260200160405190810160405280939291908181526020016000905b82821015610a08576109f960408302860136819003810190612932565b815260200190600101906109dc565b5050505050838380806020026020016040519081016040528093929190818152602001838360200280828437600092019190915250611be092505050565b50505050565b610a578383836108e5565b6001600160a01b0382163b1580610b005750604051630a85bd0160e11b8082523360048301526001600160a01b03858116602484015260448301849052608060648401526000608484015290919084169063150b7a029060a4016020604051808303816000875af1158015610ad0573d6000803e3d6000fd5b505050506040513d601f19601f82011682018060405250810190610af4919061298f565b6001600160e01b031916145b610b4c5760405162461bcd60e51b815260206004820152601060248201527f554e534146455f524543495049454e5400000000000000000000000000000000604482015260640161078e565b505050565b6000818152602081905260409020546001600160a01b031680610ba35760405162461bcd60e51b815260206004820152600a6024820152691393d517d3525395115160b21b604482015260640161078e565b919050565b60048054604051632565da5f60e11b8152600160a01b820467ffffffffffffffff16928101929092523360248301526001600160a01b031690634acbb4be90604401602060405180830381865afa158015610c07573d6000803e3d6000fd5b505050506040513d601f19601f82011682018060405250810190610c2b91906128c4565b610c485760405163ea8e4eb560e01b815260040160405180910390fd5b60068190556040518181527f7cd190a0d2794c2f49abc7014f0acbb67d25d1e0f3f32c10d066c0c823297537906020015b60405180910390a150565b60006001600160a01b038216610cdc5760405162461bcd60e51b815260206004820152600c60248201527f5a45524f5f414444524553530000000000000000000000000000000000000000604482015260640161078e565b506001600160a01b031660009081526001602052604090205490565b60048054604051632565da5f60e11b8152600160a01b820467ffffffffffffffff16928101929092523360248301526001600160a01b031690634acbb4be90604401602060405180830381865afa158015610d57573d6000803e3d6000fd5b505050506040513d601f19601f82011682018060405250810190610d7b91906128c4565b610d985760405163ea8e4eb560e01b815260040160405180910390fd5b600780546001600160a01b0319166001600160a01b0383169081179091556040519081527fd654e361816982497f3ce0c7ce7752838944156cd5c6023663a16a744e8de6b890602001610c79565b6060610df0611b94565b60200151905090565b3360008181526003602090815260408083206001600160a01b03871680855290835292819020805460ff191686151590811790915590519081529192917f17307eab39ab6107e8899845ad3d59bd9653f200f220920489ca2b5937696c31910160405180910390a35050565b604080516060810182526000808252602082018190529181019190915260008281526020818152604091829020825160608101845290546001600160a01b038116808352600160a01b820461ffff1693830193909352600160b01b900469ffffffffffffffffffff16928101929092526106e75760405162461bcd60e51b815260206004820152600a6024820152691393d517d3525395115160b21b604482015260640161078e565b60048054604051632565da5f60e11b8152600160a01b820467ffffffffffffffff16928101929092523360248301526001600160a01b031690634acbb4be90604401602060405180830381865afa158015610f6d573d6000803e3d6000fd5b505050506040513d601f19601f82011682018060405250810190610f9191906128c4565b610fae5760405163ea8e4eb560e01b815260040160405180910390fd5b6001600160a01b038316610fd557604051632f35253160e01b815260040160405180910390fd5b6001600160a01b038216610ffc57604051632f35253160e01b815260040160405180910390fd5b61100582610c84565b1561102357604051632f35253160e01b815260040160405180910390fd5b6000818152602081905260409020546001600160a01b0384811691161461105d57604051632f35253160e01b815260040160405180910390fd5b6001600160a01b0380841660008181526001602081815260408084208054600019019055948716808452858420805490930190925585835282815284832080546001600160a01b031990811684179091556002909152848320805490911690559251849392917fddf252ad1be2c89b69c2b068fc378daa952ba7f163c4a11628f55a4df523b3ef91a4505050565b60048054604051632565da5f60e11b8152600160a01b820467ffffffffffffffff16928101929092523360248301526001600160a01b031690634acbb4be90604401602060405180830381865afa15801561114a573d6000803e3d6000fd5b505050506040513d601f19601f8201168201806040525081019061116e91906128c4565b61118b5760405163ea8e4eb560e01b815260040160405180910390fd5b60068590556040518581527f7cd190a0d2794c2f49abc7014f0acbb67d25d1e0f3f32c10d066c0c8232975379060200160405180910390a16112148484808060200260200160405190810160405280939291908181526020016000905b82821015610a085761120560408302860136819003810190612932565b815260200190600101906111e8565b5050505050565b6112268585856108e5565b6001600160a01b0384163b15806112bd5750604051630a85bd0160e11b808252906001600160a01b0386169063150b7a029061126e9033908a908990899089906004016129d5565b6020604051808303816000875af115801561128d573d6000803e3d6000fd5b505050506040513d601f19601f820116820180604052508101906112b1919061298f565b6001600160e01b031916145b6112145760405162461bcd60e51b815260206004820152601060248201527f554e534146455f524543495049454e5400000000000000000000000000000000604482015260640161078e565b6007546060906001600160a01b0316156113ad576007546040517fe9dc6375000000000000000000000000000000000000000000000000000000008152306004820152602481018490526001600160a01b039091169063e9dc637590604401600060405180830381865afa158015611385573d6000803e3d6000fd5b505050506040513d6000823e601f3d908101601f191682016040526106e79190810190612a9b565b6113b5611b94565b604001516113c230611dd3565b6113cb84611de9565b6040516020016113dd93929190612ad0565b6040516020818303038152906040529050919050565b600880546001600160801b03600160801b82048116911660005b848110156116c757600061144c87878481811061142c5761142c612b66565b905060200281019061143e9190612b7c565b6104a9906020810190612494565b111561146b5760405163201dc6f560e01b815260040160405180910390fd5b600061157a87878481811061148257611482612b66565b90506020028101906114949190612b7c565b6114a2906040810190612b9c565b6006548a8a878181106114b7576114b7612b66565b90506020028101906114c99190612b7c565b6114d7906020810190612494565b8b8b888181106114e9576114e9612b66565b90506020028101906114fb9190612b7c565b61150c906040810190602001612be6565b60405160200161155f92919060609290921b6bffffffffffffffffffffffff1916825260f01b7fffff00000000000000000000000000000000000000000000000000000000000016601482015260160190565b60405160208183030381529060405280519060200120611ef2565b90508061159a5760405163201dc6f560e01b815260040160405180910390fd5b61161f8787848181106115af576115af612b66565b90506020028101906115c19190612b7c565b6115cf906020810190612494565b6115d886612c17565b9550856001600160801b03168989868181106115f6576115f6612b66565b90506020028101906116089190612b7c565b611619906040810190602001612be6565b42611f2c565b836001600160801b03167f391c403938fc06625e9983c6117a6a837a930a7212ea9e234b1ecd9b0f6a3a7088888581811061165c5761165c612b66565b905060200281019061166e9190612b7c565b61167f906040810190602001612be6565b6040805161ffff909216825269ffffffffffffffffffff421660208301520160405180910390a2826116b081612c17565b9350505080806116bf90612c3d565b91505061140d565b506001600160801b039081169116600160801b026fffffffffffffffffffffffffffffffff19161790555050565b6009546001600160a01b031615611738576040517f0dc149f000000000000000000000000000000000000000000000000000000000815260040160405180910390fd5b6117608160405160200161174c9190612c9c565b604051602081830303815290604052611ae3565b600980546001600160a01b039283166001600160a01b0319918216179091556005805492881692909116821790556040516000907f8be0079c531659141344cd1fd0a4f28419497f9722a3daafe3b4186f6b6457e0908290a38360046117c68282612d12565b9050507f297aa6cf51bb39507374bfcb61edead3172fc87755dea183d848c3a23c70496783836040516117fa929190612d8e565b60405180910390a15050505050565b3361181382610b51565b6001600160a01b031614611853576040517feeddf6ab00000000000000000000000000000000000000000000000000000000815260040160405180910390fd5b61185c816120d9565b600880546001600160801b031690600061187583612dd6565b91906101000a8154816001600160801b0302191690836001600160801b031602179055505050565b6007546060906001600160a01b03161561193d576007546040517e844d130000000000000000000000000000000000000000000000000000000081523060048201526001600160a01b039091169062844d1390602401600060405180830381865afa158015611910573d6000803e3d6000fd5b505050506040513d6000823e601f3d908101601f191682016040526119389190810190612a9b565b905090565b611945611b94565b6040015161195230611dd3565b604051602001611963929190612df9565b604051602081830303815290604052905090565b60048054604051632565da5f60e11b8152600160a01b820467ffffffffffffffff16928101929092523360248301526001600160a01b031690634acbb4be90604401602060405180830381865afa1580156119d6573d6000803e3d6000fd5b505050506040513d601f19601f820116820180604052508101906119fa91906128c4565b611a175760405163ea8e4eb560e01b815260040160405180910390fd5b7f297aa6cf51bb39507374bfcb61edead3172fc87755dea183d848c3a23c70496784848484604051611a4c9493929190612e50565b60405180910390a150505050565b60048054604051632565da5f60e11b8152600160a01b820467ffffffffffffffff16928101929092526001600160a01b038381166024840152600092911690634acbb4be90604401602060405180830381865afa158015611abf573d6000803e3d6000fd5b505050506040513d601f19601f820116820180604052508101906106e791906128c4565b60008082604051602001611af79190612e77565b6040516020818303038152906040529050600081604051602001611b1b9190612e9d565b60405160208183030381529060405290508051602082016000f092506001600160a01b038316611b8d5760405162461bcd60e51b815260206004820152601160248201527f4445504c4f594d454e545f4641494c4544000000000000000000000000000000604482015260640161078e565b5050919050565b611bb860405180606001604052806060815260200160608152602001606081525090565b600954611bcd906001600160a01b031661219d565b8060200190518101906119389190612ee2565b60088054600160801b90046001600160801b031660005b8451811015611d2f576000611c28868381518110611c1757611c17612b66565b602002602001015160000151610c84565b1115611c475760405163201dc6f560e01b815260040160405180910390fd5b611ca2858281518110611c5c57611c5c612b66565b60200260200101516000015183611c7290612c17565b9350836001600160801b0316878481518110611c9057611c90612b66565b60200260200101516020015142611f2c565b816001600160801b03167f391c403938fc06625e9983c6117a6a837a930a7212ea9e234b1ecd9b0f6a3a70868381518110611cdf57611cdf612b66565b60200260200101516020015142604051611d1592919061ffff92909216825269ffffffffffffffffffff16602082015260400190565b60405180910390a280611d2781612c3d565b915050611bf7565b5060005b8351811015611d7057611d5e848281518110611d5157611d51612b66565b60200260200101516120d9565b80611d6881612c3d565b915050611d33565b5081546001600160801b03908116600160801b838316028181178555855187519093611d9f9391921617612f97565b611da99190612fbe565b82546fffffffffffffffffffffffffffffffff19166001600160801b039190911617909155505050565b60606106e76001600160a01b03831660146121be565b606081600003611e105750506040805180820190915260018152600360fc1b602082015290565b8160005b8115611e3a5780611e2481612c3d565b9150611e339050600a83612ff4565b9150611e14565b60008167ffffffffffffffff811115611e5557611e556128e1565b6040519080825280601f01601f191660200182016040528015611e7f576020820181803683370190505b5090505b8415611eea57611e94600183613008565b9150611ea1600a8661301b565b611eac90603061302f565b60f81b818381518110611ec157611ec1612b66565b60200101906001600160f81b031916908160001a905350611ee3600a86612ff4565b9450611e83565b949350505050565b60008315611f24578360051b8501855b803580851160051b94855260209485185260406000209301818110611f025750505b501492915050565b6001600160a01b038416611f825760405162461bcd60e51b815260206004820152601160248201527f494e56414c49445f524543495049454e54000000000000000000000000000000604482015260640161078e565b6000838152602081905260409020546001600160a01b031615611fe75760405162461bcd60e51b815260206004820152600e60248201527f414c52454144595f4d494e544544000000000000000000000000000000000000604482015260640161078e565b6001600160a01b0384811660008181526001602081815260408084208054909301909255815160608101835284815261ffff88811682840190815269ffffffffffffffffffff8981168487019081528c885294879052858720935184549251955199167fffffffffffffffffffff0000000000000000000000000000000000000000000090921691909117600160a01b94909216939093021775ffffffffffffffffffffffffffffffffffffffffffff16600160b01b96909216959095021790935591518592907fddf252ad1be2c89b69c2b068fc378daa952ba7f163c4a11628f55a4df523b3ef908290a450505050565b6000818152602081905260409020546001600160a01b03168061212b5760405162461bcd60e51b815260206004820152600a6024820152691393d517d3525395115160b21b604482015260640161078e565b6001600160a01b03811660008181526001602090815260408083208054600019019055858352828252808320839055600290915280822080546001600160a01b0319169055518492907fddf252ad1be2c89b69c2b068fc378daa952ba7f163c4a11628f55a4df523b3ef908390a45050565b60606106e78260016121b9816001600160a01b0384163b613008565b61238a565b606060006121cd836002613042565b6121d890600261302f565b67ffffffffffffffff8111156121f0576121f06128e1565b6040519080825280601f01601f19166020018201604052801561221a576020820181803683370190505b509050600360fc1b8160008151811061223557612235612b66565b60200101906001600160f81b031916908160001a9053507f78000000000000000000000000000000000000000000000000000000000000008160018151811061228057612280612b66565b60200101906001600160f81b031916908160001a90535060006122a4846002613042565b6122af90600161302f565b90505b6001811115612334577f303132333435363738396162636465660000000000000000000000000000000085600f16601081106122f0576122f0612b66565b1a60f81b82828151811061230657612306612b66565b60200101906001600160f81b031916908160001a90535060049490941c9361232d81613059565b90506122b2565b5083156123835760405162461bcd60e51b815260206004820181905260248201527f537472696e67733a20686578206c656e67746820696e73756666696369656e74604482015260640161078e565b9392505050565b60408051603f8301601f19168101909152818152818360208301863c9392505050565b6001600160e01b0319811681146123c357600080fd5b50565b6000602082840312156123d857600080fd5b8135612383816123ad565b60005b838110156123fe5781810151838201526020016123e6565b50506000910152565b60208152600082518060208401526124268160408501602087016123e3565b601f01601f19169190910160400192915050565b60006020828403121561244c57600080fd5b5035919050565b6001600160a01b03811681146123c357600080fd5b6000806040838503121561247b57600080fd5b823561248681612453565b946020939093013593505050565b6000602082840312156124a657600080fd5b813561238381612453565b6000806000606084860312156124c657600080fd5b83356124d181612453565b925060208401356124e181612453565b929592945050506040919091013590565b60008083601f84011261250457600080fd5b50813567ffffffffffffffff81111561251c57600080fd5b6020830191508360208260061b850101111561253757600080fd5b9250929050565b60008083601f84011261255057600080fd5b50813567ffffffffffffffff81111561256857600080fd5b6020830191508360208260051b850101111561253757600080fd5b6000806000806040858703121561259957600080fd5b843567ffffffffffffffff808211156125b157600080fd5b6125bd888389016124f2565b909650945060208701359150808211156125d657600080fd5b506125e38782880161253e565b95989497509550505050565b80151581146123c357600080fd5b6000806040838503121561261057600080fd5b823561261b81612453565b9150602083013561262b816125ef565b809150509250929050565b60008060008060006060868803121561264e57600080fd5b85359450602086013567ffffffffffffffff8082111561266d57600080fd5b61267989838a016124f2565b9096509450604088013591508082111561269257600080fd5b5061269f8882890161253e565b969995985093965092949392505050565b60008083601f8401126126c257600080fd5b50813567ffffffffffffffff8111156126da57600080fd5b60208301915083602082850101111561253757600080fd5b60008060008060006080868803121561270a57600080fd5b853561271581612453565b9450602086013561272581612453565b935060408601359250606086013567ffffffffffffffff81111561274857600080fd5b61269f888289016126b0565b6000806020838503121561276757600080fd5b823567ffffffffffffffff81111561277e57600080fd5b61278a8582860161253e565b90969095509350505050565b600080600080600085870360a08112156127af57600080fd5b86356127ba81612453565b95506040601f19820112156127ce57600080fd5b50602086019350606086013567ffffffffffffffff808211156127f057600080fd5b6127fc89838a016126b0565b9095509350608088013591508082111561281557600080fd5b5086016060818903121561282857600080fd5b809150509295509295909350565b6000806040838503121561284957600080fd5b823561285481612453565b9150602083013561262b81612453565b6000806000806040858703121561287a57600080fd5b843567ffffffffffffffff8082111561289257600080fd5b61289e888389016126b0565b909650945060208701359150808211156128b757600080fd5b506125e3878288016126b0565b6000602082840312156128d657600080fd5b8151612383816125ef565b634e487b7160e01b600052604160045260246000fd5b6040516060810167ffffffffffffffff8111828210171561291a5761291a6128e1565b60405290565b803561ffff81168114610ba357600080fd5b60006040828403121561294457600080fd5b6040516040810181811067ffffffffffffffff82111715612967576129676128e1565b604052823561297581612453565b815261298360208401612920565b60208201529392505050565b6000602082840312156129a157600080fd5b8151612383816123ad565b81835281816020850137506000828201602090810191909152601f909101601f19169091010190565b60006001600160a01b03808816835280871660208401525084604083015260806060830152612a086080830184866129ac565b979650505050505050565b600082601f830112612a2457600080fd5b815167ffffffffffffffff80821115612a3f57612a3f6128e1565b604051601f8301601f19908116603f01168101908282118183101715612a6757612a676128e1565b81604052838152866020858801011115612a8057600080fd5b612a918460208301602089016123e3565b9695505050505050565b600060208284031215612aad57600080fd5b815167ffffffffffffffff811115612ac457600080fd5b611eea84828501612a13565b60008451612ae28184602089016123e3565b845190830190612af68183602089016123e3565b7f2f0000000000000000000000000000000000000000000000000000000000000091019081528351612b2f8160018401602088016123e3565b7f2e6a736f6e0000000000000000000000000000000000000000000000000000006001929091019182015260060195945050505050565b634e487b7160e01b600052603260045260246000fd5b60008235605e19833603018112612b9257600080fd5b9190910192915050565b6000808335601e19843603018112612bb357600080fd5b83018035915067ffffffffffffffff821115612bce57600080fd5b6020019150600581901b360382131561253757600080fd5b600060208284031215612bf857600080fd5b61238382612920565b634e487b7160e01b600052601160045260246000fd5b60006001600160801b03808316818103612c3357612c33612c01565b6001019392505050565b600060018201612c4f57612c4f612c01565b5060010190565b6000808335601e19843603018112612c6d57600080fd5b830160208101925035905067ffffffffffffffff811115612c8d57600080fd5b80360382131561253757600080fd5b602081526000612cac8384612c56565b60606020850152612cc16080850182846129ac565b915050612cd16020850185612c56565b601f1980868503016040870152612ce98483856129ac565b9350612cf86040880188612c56565b935091508086850301606087015250612a918383836129ac565b8135612d1d81612453565b6001600160a01b03811690508154816001600160a01b03198216178355602084013567ffffffffffffffff81168114612d5557600080fd5b7bffffffffffffffff00000000000000000000000000000000000000008160a01b16836001600160e01b03198416171784555050505050565b60408152600860408201527f6d657461646174610000000000000000000000000000000000000000000000006060820152608060208201526000611eea6080830184866129ac565b60006001600160801b03821680612def57612def612c01565b6000190192915050565b60008351612e0b8184602088016123e3565b835190830190612e1f8183602088016123e3565b7f2f636f6c6c656374696f6e2e6a736f6e000000000000000000000000000000009101908152601001949350505050565b604081526000612e646040830186886129ac565b8281036020840152612a088185876129ac565b6000815260008251612e908160018501602087016123e3565b9190910160010192915050565b7f600b5981380380925939f3000000000000000000000000000000000000000000815260008251612ed581600b8501602087016123e3565b91909101600b0192915050565b600060208284031215612ef457600080fd5b815167ffffffffffffffff80821115612f0c57600080fd5b9083019060608286031215612f2057600080fd5b612f286128f7565b825182811115612f3757600080fd5b612f4387828601612a13565b825250602083015182811115612f5857600080fd5b612f6487828601612a13565b602083015250604083015182811115612f7c57600080fd5b612f8887828601612a13565b60408301525095945050505050565b6001600160801b03818116838216019080821115612fb757612fb7612c01565b5092915050565b6001600160801b03828116828216039080821115612fb757612fb7612c01565b634e487b7160e01b600052601260045260246000fd5b60008261300357613003612fde565b500490565b818103818111156106e7576106e7612c01565b60008261302a5761302a612fde565b500690565b808201808211156106e7576106e7612c01565b80820281158282048414176106e7576106e7612c01565b60008161306857613068612c01565b50600019019056fea26469706673582212202291c687dcf366315e861a27e9fed36906e634179c068b1449ea62276871a8a664736f6c63430008110033",
  "linkReferences": {},
  "deployedLinkReferences": {}
}