{
  "_format": "hh-sol-artifact-1",
  "contractName": "Memberships",
  "sourceName": "contracts/Memberships.sol",
  "abi": [
    {
      "inputs": [],
      "stateMutability": "nonpayable",
      "type": "constructor"
    },
    {
      "inputs": [],
      "name": "AlreadyInitialized",
      "type": "error"
    },
    {
      "inputs": [],
      "name": "InvalidBurn",
      "type": "error"
    },
    {
      "inputs": [],
      "name": "InvalidMint",
      "type": "error"
    },
    {
      "inputs": [],
      "name": "InvalidTransfer",
      "type": "error"
    },
    {
      "inputs": [],
      "name": "NotAuthorized",
      "type": "error"
    },
    {
      "inputs": [],
      "name": "TransferNotAllowed",
      "type": "error"
    },
    {
      "anonymous": false,
      "inputs": [
        {
          "indexed": true,
          "internalType": "address",
          "name": "owner",
          "type": "address"
        },
        {
          "indexed": true,
          "internalType": "address",
          "name": "spender",
          "type": "address"
        },
        {
          "indexed": true,
          "internalType": "uint256",
          "name": "id",
          "type": "uint256"
        }
      ],
      "name": "Approval",
      "type": "event"
    },
    {
      "anonymous": false,
      "inputs": [
        {
          "indexed": true,
          "internalType": "address",
          "name": "owner",
          "type": "address"
        },
        {
          "indexed": true,
          "internalType": "address",
          "name": "operator",
          "type": "address"
        },
        {
          "indexed": false,
          "internalType": "bool",
          "name": "approved",
          "type": "bool"
        }
      ],
      "name": "ApprovalForAll",
      "type": "event"
    },
    {
      "anonymous": false,
      "inputs": [
        {
          "indexed": false,
          "internalType": "string",
          "name": "topic",
          "type": "string"
        },
        {
          "indexed": false,
          "internalType": "string",
          "name": "message",
          "type": "string"
        }
      ],
      "name": "Broadcast",
      "type": "event"
    },
    {
      "anonymous": false,
      "inputs": [
        {
          "indexed": false,
          "internalType": "contract ICustomMetadataResolver",
          "name": "resolver",
          "type": "address"
        }
      ],
      "name": "CustomMetadataResolverUpdated",
      "type": "event"
    },
    {
      "anonymous": false,
      "inputs": [
        {
          "indexed": true,
          "internalType": "uint256",
          "name": "tokenId",
          "type": "uint256"
        },
        {
          "indexed": false,
          "internalType": "uint16",
          "name": "sequenceId",
          "type": "uint16"
        },
        {
          "indexed": false,
          "internalType": "uint80",
          "name": "timestamp",
          "type": "uint80"
        }
      ],
      "name": "MembershipCreated",
      "type": "event"
    },
    {
      "anonymous": false,
      "inputs": [
        {
          "indexed": false,
          "internalType": "bytes32",
          "name": "root",
          "type": "bytes32"
        }
      ],
      "name": "MembershipListRootUpdated",
      "type": "event"
    },
    {
      "anonymous": false,
      "inputs": [
        {
          "indexed": true,
          "internalType": "address",
          "name": "previousOwner",
          "type": "address"
        },
        {
          "indexed": true,
          "internalType": "address",
          "name": "newOwner",
          "type": "address"
        }
      ],
      "name": "OwnershipTransferred",
      "type": "event"
    },
    {
      "anonymous": false,
      "inputs": [
        {
          "indexed": true,
          "internalType": "address",
          "name": "from",
          "type": "address"
        },
        {
          "indexed": true,
          "internalType": "address",
          "name": "to",
          "type": "address"
        },
        {
          "indexed": true,
          "internalType": "uint256",
          "name": "id",
          "type": "uint256"
        }
      ],
      "name": "Transfer",
      "type": "event"
    },
    {
      "inputs": [],
      "name": "accessControl",
      "outputs": [
        {
          "internalType": "contract INodeRegistry",
          "name": "nodeRegistry",
          "type": "address"
        },
        {
          "internalType": "uint64",
          "name": "controlNodeId",
          "type": "uint64"
        }
      ],
      "stateMutability": "view",
      "type": "function"
    },
    {
      "inputs": [
        {
          "internalType": "address",
          "name": "from",
          "type": "address"
        },
        {
          "internalType": "address",
          "name": "to",
          "type": "address"
        },
        {
          "internalType": "uint256",
          "name": "id",
          "type": "uint256"
        }
      ],
      "name": "adminTransferFrom",
      "outputs": [],
      "stateMutability": "nonpayable",
      "type": "function"
    },
    {
      "inputs": [
        {
          "internalType": "address",
          "name": "spender",
          "type": "address"
        },
        {
          "internalType": "uint256",
          "name": "id",
          "type": "uint256"
        }
      ],
      "name": "approve",
      "outputs": [],
      "stateMutability": "nonpayable",
      "type": "function"
    },
    {
      "inputs": [
        {
          "internalType": "address",
          "name": "owner",
          "type": "address"
        }
      ],
      "name": "balanceOf",
      "outputs": [
        {
          "internalType": "uint256",
          "name": "",
          "type": "uint256"
        }
      ],
      "stateMutability": "view",
      "type": "function"
    },
    {
      "inputs": [
        {
          "components": [
            {
              "internalType": "address",
              "name": "to",
              "type": "address"
            },
            {
              "internalType": "uint16",
              "name": "sequenceId",
              "type": "uint16"
            }
          ],
          "internalType": "struct AdminMembershipMint[]",
          "name": "mints",
          "type": "tuple[]"
        },
        {
          "internalType": "uint256[]",
          "name": "burns",
          "type": "uint256[]"
        }
      ],
      "name": "batchMintAndBurn",
      "outputs": [],
      "stateMutability": "nonpayable",
      "type": "function"
    },
    {
      "inputs": [
        {
          "internalType": "string",
          "name": "topic",
          "type": "string"
        },
        {
          "internalType": "string",
          "name": "message",
          "type": "string"
        }
      ],
      "name": "broadcast",
      "outputs": [],
      "stateMutability": "nonpayable",
      "type": "function"
    },
    {
      "inputs": [
        {
          "internalType": "string",
          "name": "topic",
          "type": "string"
        },
        {
          "internalType": "string",
          "name": "message",
          "type": "string"
        }
      ],
      "name": "broadcastAndStore",
      "outputs": [],
      "stateMutability": "nonpayable",
      "type": "function"
    },
    {
      "inputs": [
        {
          "internalType": "uint256",
          "name": "tokenId",
          "type": "uint256"
        }
      ],
      "name": "burnMembership",
      "outputs": [],
      "stateMutability": "nonpayable",
      "type": "function"
    },
    {
      "inputs": [],
      "name": "contractURI",
      "outputs": [
        {
          "internalType": "string",
          "name": "uri",
          "type": "string"
        }
      ],
      "stateMutability": "view",
      "type": "function"
    },
    {
      "inputs": [],
      "name": "controlNode",
      "outputs": [
        {
          "internalType": "uint64",
          "name": "nodeId",
          "type": "uint64"
        }
      ],
      "stateMutability": "view",
      "type": "function"
    },
    {
      "inputs": [],
      "name": "customMetadataResolver",
      "outputs": [
        {
          "internalType": "contract ICustomMetadataResolver",
          "name": "",
          "type": "address"
        }
      ],
      "stateMutability": "view",
      "type": "function"
    },
    {
      "inputs": [
        {
          "internalType": "uint256",
          "name": "",
          "type": "uint256"
        }
      ],
      "name": "getApproved",
      "outputs": [
        {
          "internalType": "address",
          "name": "",
          "type": "address"
        }
      ],
      "stateMutability": "view",
      "type": "function"
    },
    {
      "inputs": [
        {
          "internalType": "uint256",
          "name": "id",
          "type": "uint256"
        }
      ],
      "name": "getTokenData",
      "outputs": [
        {
          "components": [
            {
              "internalType": "address",
              "name": "owner",
              "type": "address"
            },
            {
              "internalType": "uint16",
              "name": "sequenceId",
              "type": "uint16"
            },
            {
              "internalType": "uint80",
              "name": "data",
              "type": "uint80"
            }
          ],
          "internalType": "struct TokenData",
          "name": "",
          "type": "tuple"
        }
      ],
      "stateMutability": "view",
      "type": "function"
    },
    {
      "inputs": [
        {
          "internalType": "address",
          "name": "_owner",
          "type": "address"
        },
        {
          "components": [
            {
              "internalType": "contract INodeRegistry",
              "name": "nodeRegistry",
              "type": "address"
            },
            {
              "internalType": "uint64",
              "name": "controlNodeId",
              "type": "uint64"
            }
          ],
          "internalType": "struct AccessControlData",
          "name": "_accessControl",
          "type": "tuple"
        },
        {
          "internalType": "string",
          "name": "_metadata",
          "type": "string"
        },
        {
          "components": [
            {
              "internalType": "string",
              "name": "name",
              "type": "string"
            },
            {
              "internalType": "string",
              "name": "symbol",
              "type": "string"
            },
            {
              "internalType": "string",
              "name": "baseURI",
              "type": "string"
            }
          ],
          "internalType": "struct ImmutableCollectionData",
          "name": "_data",
          "type": "tuple"
        }
      ],
      "name": "init",
      "outputs": [],
      "stateMutability": "nonpayable",
      "type": "function"
    },
    {
      "inputs": [
        {
          "internalType": "address",
          "name": "",
          "type": "address"
        },
        {
          "internalType": "address",
          "name": "",
          "type": "address"
        }
      ],
      "name": "isApprovedForAll",
      "outputs": [
        {
          "internalType": "bool",
          "name": "",
          "type": "bool"
        }
      ],
      "stateMutability": "view",
      "type": "function"
    },
    {
      "inputs": [
        {
          "internalType": "address",
          "name": "subject",
          "type": "address"
        }
      ],
      "name": "isAuthorized",
      "outputs": [
        {
          "internalType": "bool",
          "name": "authorized",
          "type": "bool"
        }
      ],
      "stateMutability": "view",
      "type": "function"
    },
    {
      "inputs": [],
      "name": "membershipListRoot",
      "outputs": [
        {
          "internalType": "bytes32",
          "name": "",
          "type": "bytes32"
        }
      ],
      "stateMutability": "view",
      "type": "function"
    },
    {
      "inputs": [
        {
          "internalType": "string",
          "name": "",
          "type": "string"
        }
      ],
      "name": "messageStorage",
      "outputs": [
        {
          "internalType": "string",
          "name": "",
          "type": "string"
        }
      ],
      "stateMutability": "view",
      "type": "function"
    },
    {
      "inputs": [
        {
          "components": [
            {
              "internalType": "address",
              "name": "to",
              "type": "address"
            },
            {
              "internalType": "uint16",
              "name": "sequenceId",
              "type": "uint16"
            },
            {
              "internalType": "bytes32[]",
              "name": "proof",
              "type": "bytes32[]"
            }
          ],
          "internalType": "struct MembershipMint[]",
          "name": "mints",
          "type": "tuple[]"
        }
      ],
      "name": "mintMemberships",
      "outputs": [],
      "stateMutability": "nonpayable",
      "type": "function"
    },
    {
      "inputs": [],
      "name": "name",
      "outputs": [
        {
          "internalType": "string",
          "name": "value",
          "type": "string"
        }
      ],
      "stateMutability": "view",
      "type": "function"
    },
    {
      "inputs": [],
      "name": "nodeRegistry",
      "outputs": [
        {
          "internalType": "contract INodeRegistry",
          "name": "",
          "type": "address"
        }
      ],
      "stateMutability": "view",
      "type": "function"
    },
    {
      "inputs": [],
      "name": "owner",
      "outputs": [
        {
          "internalType": "address",
          "name": "",
          "type": "address"
        }
      ],
      "stateMutability": "view",
      "type": "function"
    },
    {
      "inputs": [
        {
          "internalType": "uint256",
          "name": "id",
          "type": "uint256"
        }
      ],
      "name": "ownerOf",
      "outputs": [
        {
          "internalType": "address",
          "name": "owner",
          "type": "address"
        }
      ],
      "stateMutability": "view",
      "type": "function"
    },
    {
      "inputs": [
        {
          "internalType": "address",
          "name": "from",
          "type": "address"
        },
        {
          "internalType": "address",
          "name": "to",
          "type": "address"
        },
        {
          "internalType": "uint256",
          "name": "id",
          "type": "uint256"
        }
      ],
      "name": "safeTransferFrom",
      "outputs": [],
      "stateMutability": "nonpayable",
      "type": "function"
    },
    {
      "inputs": [
        {
          "internalType": "address",
          "name": "from",
          "type": "address"
        },
        {
          "internalType": "address",
          "name": "to",
          "type": "address"
        },
        {
          "internalType": "uint256",
          "name": "id",
          "type": "uint256"
        },
        {
          "internalType": "bytes",
          "name": "data",
          "type": "bytes"
        }
      ],
      "name": "safeTransferFrom",
      "outputs": [],
      "stateMutability": "nonpayable",
      "type": "function"
    },
    {
      "inputs": [
        {
          "internalType": "address",
          "name": "operator",
          "type": "address"
        },
        {
          "internalType": "bool",
          "name": "approved",
          "type": "bool"
        }
      ],
      "name": "setApprovalForAll",
      "outputs": [],
      "stateMutability": "nonpayable",
      "type": "function"
    },
    {
      "inputs": [
        {
          "internalType": "contract ICustomMetadataResolver",
          "name": "_resolver",
          "type": "address"
        }
      ],
      "name": "setCustomMetadataResolver",
      "outputs": [],
      "stateMutability": "nonpayable",
      "type": "function"
    },
    {
      "inputs": [
        {
          "internalType": "bytes32",
          "name": "_root",
          "type": "bytes32"
        }
      ],
      "name": "setMembershipListRoot",
      "outputs": [],
      "stateMutability": "nonpayable",
      "type": "function"
    },
    {
      "inputs": [
        {
          "internalType": "address",
          "name": "_owner",
          "type": "address"
        }
      ],
      "name": "setOwner",
      "outputs": [],
      "stateMutability": "nonpayable",
      "type": "function"
    },
    {
      "inputs": [
        {
          "internalType": "bytes4",
          "name": "interfaceId",
          "type": "bytes4"
        }
      ],
      "name": "supportsInterface",
      "outputs": [
        {
          "internalType": "bool",
          "name": "",
          "type": "bool"
        }
      ],
      "stateMutability": "view",
      "type": "function"
    },
    {
      "inputs": [],
      "name": "symbol",
      "outputs": [
        {
          "internalType": "string",
          "name": "value",
          "type": "string"
        }
      ],
      "stateMutability": "view",
      "type": "function"
    },
    {
      "inputs": [
        {
          "internalType": "uint256",
          "name": "tokenId",
          "type": "uint256"
        }
      ],
      "name": "tokenMintTimestamp",
      "outputs": [
        {
          "internalType": "uint80",
          "name": "timestamp",
          "type": "uint80"
        }
      ],
      "stateMutability": "view",
      "type": "function"
    },
    {
      "inputs": [
        {
          "internalType": "uint256",
          "name": "tokenId",
          "type": "uint256"
        }
      ],
      "name": "tokenSequenceId",
      "outputs": [
        {
          "internalType": "uint16",
          "name": "sequenceId",
          "type": "uint16"
        }
      ],
      "stateMutability": "view",
      "type": "function"
    },
    {
      "inputs": [
        {
          "internalType": "uint256",
          "name": "tokenId",
          "type": "uint256"
        }
      ],
      "name": "tokenURI",
      "outputs": [
        {
          "internalType": "string",
          "name": "uri",
          "type": "string"
        }
      ],
      "stateMutability": "view",
      "type": "function"
    },
    {
      "inputs": [],
      "name": "totalMinted",
      "outputs": [
        {
          "internalType": "uint256",
          "name": "",
          "type": "uint256"
        }
      ],
      "stateMutability": "view",
      "type": "function"
    },
    {
      "inputs": [],
      "name": "totalSupply",
      "outputs": [
        {
          "internalType": "uint256",
          "name": "",
          "type": "uint256"
        }
      ],
      "stateMutability": "view",
      "type": "function"
    },
    {
      "inputs": [
        {
          "internalType": "address",
          "name": "",
          "type": "address"
        },
        {
          "internalType": "address",
          "name": "",
          "type": "address"
        },
        {
          "internalType": "uint256",
          "name": "",
          "type": "uint256"
        }
      ],
      "name": "transferFrom",
      "outputs": [],
      "stateMutability": "pure",
      "type": "function"
    },
    {
      "inputs": [
        {
          "internalType": "bytes32",
          "name": "_root",
          "type": "bytes32"
        },
        {
          "components": [
            {
              "internalType": "address",
              "name": "to",
              "type": "address"
            },
            {
              "internalType": "uint16",
              "name": "sequenceId",
              "type": "uint16"
            }
          ],
          "internalType": "struct AdminMembershipMint[]",
          "name": "mints",
          "type": "tuple[]"
        },
        {
          "internalType": "uint256[]",
          "name": "burns",
          "type": "uint256[]"
        }
      ],
      "name": "updateMemberships",
      "outputs": [],
      "stateMutability": "nonpayable",
      "type": "function"
    }
  ],
  "bytecode": "0x60806040523480156200001157600080fd5b5060408051608081018252600060608201818152825282516020818101855282825280840191909152835180820185529182528284019190915291516200007f926200005f929101620001a7565b604051602081830303815290604052620000a560201b62001ca11760201c565b600a80546001600160a01b0319166001600160a01b03929092169190911790556200026c565b60008082604051602001620000bb91906200020e565b6040516020818303038152906040529050600081604051602001620000e1919062000236565b60405160208183030381529060405290508051602082016000f092506001600160a01b0383166200014c5760405162461bcd60e51b81526020600482015260116024820152701111541313d65351539517d19052531151607a1b604482015260640160405180910390fd5b5050919050565b60005b838110156200017057818101518382015260200162000156565b50506000910152565b600081518084526200019381602086016020860162000153565b601f01601f19169290920160200192915050565b602081526000825160606020840152620001c5608084018262000179565b90506020840151601f1980858403016040860152620001e5838362000179565b925060408601519150808584030160608601525062000205828262000179565b95945050505050565b60008152600082516200022981600185016020870162000153565b9190910160010192915050565b6a600b5981380380925939f360a81b815281516000906200025f81600b85016020870162000153565b91909101600b0192915050565b6134fb806200027c6000396000f3fe608060405234801561001057600080fd5b50600436106102925760003560e01c80638da5cb5b11610160578063c87b56dd116100d8578063e59617541161008c578063e985e9c511610071578063e985e9c514610658578063f8ca7b2814610686578063fe9fbb801461069957600080fd5b8063e59617541461063d578063e8a3d4851461065057600080fd5b8063cc308ef7116100bd578063cc308ef714610606578063d9b5c4a514610619578063e112c5cc1461062a57600080fd5b8063c87b56dd146105ea578063cba74df7146105fd57600080fd5b8063aa2eb2c31161012f578063b1197a3711610114578063b1197a37146105b1578063b2b66227146105c4578063b88d4fde146105d757600080fd5b8063aa2eb2c314610550578063b09afec11461056357600080fd5b80638da5cb5b1461050a57806395d89b411461051d578063a22cb46514610525578063a2309ff81461053857600080fd5b80632dad65c81161020e57806342842e0e116101c25780636698f26d116101a75780636698f26d146104d157806370a08231146104e45780637aa66a00146104f757600080fd5b806342842e0e146104ab5780636352211e146104be57600080fd5b80633b9af5e9116101f35780633b9af5e9146104375780633d5ba3d714610485578063418267f91461049857600080fd5b80632dad65c8146103e65780633246d6991461042457600080fd5b806313007d55116102655780631616d2491161024a5780631616d2491461038b57806318160ddd146103b857806323b872dd146103d357600080fd5b806313007d551461032a57806313af40351461037857600080fd5b806301ffc9a71461029757806306fdde03146102bf578063081812fc146102d4578063095ea7b314610315575b600080fd5b6102aa6102a5366004612623565b6106ac565b60405190151581526020015b60405180910390f35b6102c7610749565b6040516102b69190612664565b6102fd6102e2366004612697565b6002602052600090815260409020546001600160a01b031681565b6040516001600160a01b0390911681526020016102b6565b6103286103233660046126c5565b610759565b005b600554610350906001600160a01b03811690600160a01b900467ffffffffffffffff1682565b604080516001600160a01b03909316835267ffffffffffffffff9091166020830152016102b6565b6103286103863660046126f1565b61084f565b600554600160a01b900467ffffffffffffffff1660405167ffffffffffffffff90911681526020016102b6565b6009546001600160801b03165b6040519081526020016102b6565b6103286103e136600461270e565b610940565b6104116103f4366004612697565b600090815260208190526040902054600160a01b900461ffff1690565b60405161ffff90911681526020016102b6565b6103286104323660046127e0565b610972565b61046a610445366004612697565b600090815260208190526040902054600160b01b900469ffffffffffffffffffff1690565b60405169ffffffffffffffffffff90911681526020016102b6565b6008546102fd906001600160a01b031681565b6103286104a636600461288e565b610aa6565b6103286104b936600461270e565b610bb8565b6102fd6104cc366004612697565b610cbd565b6103286104df366004612697565b610d14565b6103c56104f23660046126f1565b610def565b6103286105053660046126f1565b610e63565b6006546102fd906001600160a01b031681565b6102c7610f50565b6103286105333660046128fc565b610f63565b600954600160801b90046001600160801b03166103c5565b6102c761055e3660046129cd565b610fcf565b610576610571366004612697565b611074565b6040805182516001600160a01b0316815260208084015161ffff16908201529181015169ffffffffffffffffffff16908201526060016102b6565b6103286105bf36600461270e565b61111d565b6103286105d2366004612a4d565b6112d2565b6103286105e5366004612ac7565b611401565b6102c76105f8366004612697565b6114ef565b6103c560075481565b610328610614366004612b29565b6115d9565b6005546001600160a01b03166102fd565b610328610638366004612b6b565b6118c6565b61032861064b366004612697565b6119da565b6102c7611a6e565b6102aa610666366004612c0b565b600360209081526000928352604080842090915290825290205460ff1681565b61032861069436600461288e565b611b48565b6102aa6106a73660046126f1565b611c1c565b60007f01ffc9a7000000000000000000000000000000000000000000000000000000006001600160e01b03198316148061070f57507f80ac58cd000000000000000000000000000000000000000000000000000000006001600160e01b03198316145b8061074357507f5b5e139f000000000000000000000000000000000000000000000000000000006001600160e01b03198316145b92915050565b6060610753611d52565b51919050565b6000818152602081905260409020546001600160a01b0316338114806107a257506001600160a01b038116600090815260036020908152604080832033845290915290205460ff165b6107f35760405162461bcd60e51b815260206004820152600e60248201527f4e4f545f415554484f52495a454400000000000000000000000000000000000060448201526064015b60405180910390fd5b60008281526002602052604080822080546001600160a01b0319166001600160a01b0387811691821790925591518593918516917f8c5be1e5ebec7d5bd14f71427d1e84f3dd0314c0f7b2291e5b200ac8c7c3b92591a4505050565b600554604051632565da5f60e11b8152600160a01b820467ffffffffffffffff1660048201523360248201526001600160a01b0390911690634acbb4be90604401602060405180830381865afa1580156108ad573d6000803e3d6000fd5b505050506040513d601f19601f820116820180604052508101906108d19190612c39565b6108ee5760405163ea8e4eb560e01b815260040160405180910390fd5b600680546001600160a01b038381166001600160a01b0319831681179093556040519116919082907f8be0079c531659141344cd1fd0a4f28419497f9722a3daafe3b4186f6b6457e090600090a35050565b6040517f8cd22d1900000000000000000000000000000000000000000000000000000000815260040160405180910390fd5b600554604051632565da5f60e11b8152600160a01b820467ffffffffffffffff1660048201523360248201526001600160a01b0390911690634acbb4be90604401602060405180830381865afa1580156109d0573d6000803e3d6000fd5b505050506040513d601f19601f820116820180604052508101906109f49190612c39565b610a115760405163ea8e4eb560e01b815260040160405180910390fd5b610aa08484808060200260200160405190810160405280939291908181526020016000905b82821015610a6257610a5360408302860136819003810190612c68565b81526020019060010190610a36565b5050505050838380806020026020016040519081016040528093929190818152602001838360200280828437600092019190915250611d9e92505050565b50505050565b600554604051632565da5f60e11b8152600160a01b820467ffffffffffffffff1660048201523360248201526001600160a01b0390911690634acbb4be90604401602060405180830381865afa158015610b04573d6000803e3d6000fd5b505050506040513d601f19601f82011682018060405250810190610b289190612c39565b610b455760405163ea8e4eb560e01b815260040160405180910390fd5b818160048686604051610b59929190612cc5565b90815260200160405180910390209182610b74929190612d5d565b507f297aa6cf51bb39507374bfcb61edead3172fc87755dea183d848c3a23c70496784848484604051610baa9493929190612e46565b60405180910390a150505050565b610bc3838383610940565b6001600160a01b0382163b1580610c6c5750604051630a85bd0160e11b8082523360048301526001600160a01b03858116602484015260448301849052608060648401526000608484015290919084169063150b7a029060a4016020604051808303816000875af1158015610c3c573d6000803e3d6000fd5b505050506040513d601f19601f82011682018060405250810190610c609190612e78565b6001600160e01b031916145b610cb85760405162461bcd60e51b815260206004820152601060248201527f554e534146455f524543495049454e540000000000000000000000000000000060448201526064016107ea565b505050565b6000818152602081905260409020546001600160a01b031680610d0f5760405162461bcd60e51b815260206004820152600a6024820152691393d517d3525395115160b21b60448201526064016107ea565b919050565b600554604051632565da5f60e11b8152600160a01b820467ffffffffffffffff1660048201523360248201526001600160a01b0390911690634acbb4be90604401602060405180830381865afa158015610d72573d6000803e3d6000fd5b505050506040513d601f19601f82011682018060405250810190610d969190612c39565b610db35760405163ea8e4eb560e01b815260040160405180910390fd5b60078190556040518181527f7cd190a0d2794c2f49abc7014f0acbb67d25d1e0f3f32c10d066c0c823297537906020015b60405180910390a150565b60006001600160a01b038216610e475760405162461bcd60e51b815260206004820152600c60248201527f5a45524f5f41444452455353000000000000000000000000000000000000000060448201526064016107ea565b506001600160a01b031660009081526001602052604090205490565b600554604051632565da5f60e11b8152600160a01b820467ffffffffffffffff1660048201523360248201526001600160a01b0390911690634acbb4be90604401602060405180830381865afa158015610ec1573d6000803e3d6000fd5b505050506040513d601f19601f82011682018060405250810190610ee59190612c39565b610f025760405163ea8e4eb560e01b815260040160405180910390fd5b600880546001600160a01b0319166001600160a01b0383169081179091556040519081527fd654e361816982497f3ce0c7ce7752838944156cd5c6023663a16a744e8de6b890602001610de4565b6060610f5a611d52565b60200151905090565b3360008181526003602090815260408083206001600160a01b03871680855290835292819020805460ff191686151590811790915590519081529192917f17307eab39ab6107e8899845ad3d59bd9653f200f220920489ca2b5937696c31910160405180910390a35050565b805160208183018101805160048252928201919093012091528054610ff390612cd5565b80601f016020809104026020016040519081016040528092919081815260200182805461101f90612cd5565b801561106c5780601f106110415761010080835404028352916020019161106c565b820191906000526020600020905b81548152906001019060200180831161104f57829003601f168201915b505050505081565b604080516060810182526000808252602082018190529181019190915260008281526020818152604091829020825160608101845290546001600160a01b038116808352600160a01b820461ffff1693830193909352600160b01b900469ffffffffffffffffffff16928101929092526107435760405162461bcd60e51b815260206004820152600a6024820152691393d517d3525395115160b21b60448201526064016107ea565b600554604051632565da5f60e11b8152600160a01b820467ffffffffffffffff1660048201523360248201526001600160a01b0390911690634acbb4be90604401602060405180830381865afa15801561117b573d6000803e3d6000fd5b505050506040513d601f19601f8201168201806040525081019061119f9190612c39565b6111bc5760405163ea8e4eb560e01b815260040160405180910390fd5b6001600160a01b0382166111e357604051632f35253160e01b815260040160405180910390fd5b6111ec82610def565b1561120a57604051632f35253160e01b815260040160405180910390fd5b6000818152602081905260409020546001600160a01b0384811691161461124457604051632f35253160e01b815260040160405180910390fd5b6001600160a01b0380841660008181526001602081815260408084208054600019019055948716808452858420805490930190925585835282815284832080546001600160a01b031990811684179091556002909152848320805490911690559251849392917fddf252ad1be2c89b69c2b068fc378daa952ba7f163c4a11628f55a4df523b3ef91a4505050565b600554604051632565da5f60e11b8152600160a01b820467ffffffffffffffff1660048201523360248201526001600160a01b0390911690634acbb4be90604401602060405180830381865afa158015611330573d6000803e3d6000fd5b505050506040513d601f19601f820116820180604052508101906113549190612c39565b6113715760405163ea8e4eb560e01b815260040160405180910390fd5b60078590556040518581527f7cd190a0d2794c2f49abc7014f0acbb67d25d1e0f3f32c10d066c0c8232975379060200160405180910390a16113fa8484808060200260200160405190810160405280939291908181526020016000905b82821015610a62576113eb60408302860136819003810190612c68565b815260200190600101906113ce565b5050505050565b61140c858585610940565b6001600160a01b0384163b15806114a35750604051630a85bd0160e11b808252906001600160a01b0386169063150b7a02906114549033908a90899089908990600401612e95565b6020604051808303816000875af1158015611473573d6000803e3d6000fd5b505050506040513d601f19601f820116820180604052508101906114979190612e78565b6001600160e01b031916145b6113fa5760405162461bcd60e51b815260206004820152601060248201527f554e534146455f524543495049454e540000000000000000000000000000000060448201526064016107ea565b6008546060906001600160a01b031615611593576008546040517fe9dc6375000000000000000000000000000000000000000000000000000000008152306004820152602481018490526001600160a01b039091169063e9dc637590604401600060405180830381865afa15801561156b573d6000803e3d6000fd5b505050506040513d6000823e601f3d908101601f191682016040526107439190810190612f0d565b61159b611d52565b604001516115a830612030565b6115b184612046565b6040516020016115c393929190612f42565b6040516020818303038152906040529050919050565b600980546001600160801b03600160801b82048116911660005b8481101561189857600061170a87878481811061161257611612612fd8565b90506020028101906116249190612fee565b61163290604081019061300e565b6007548a8a8781811061164757611647612fd8565b90506020028101906116599190612fee565b6116679060208101906126f1565b8b8b8881811061167957611679612fd8565b905060200281019061168b9190612fee565b61169c906040810190602001613058565b6040516020016116ef92919060609290921b6bffffffffffffffffffffffff1916825260f01b7fffff00000000000000000000000000000000000000000000000000000000000016601482015260160190565b6040516020818303038152906040528051906020012061214f565b905080158061174d5750600061174b88888581811061172b5761172b612fd8565b905060200281019061173d9190612fee565b6104f29060208101906126f1565b115b1561176b5760405163201dc6f560e01b815260040160405180910390fd5b6117f087878481811061178057611780612fd8565b90506020028101906117929190612fee565b6117a09060208101906126f1565b6117a986613089565b9550856001600160801b03168989868181106117c7576117c7612fd8565b90506020028101906117d99190612fee565b6117ea906040810190602001613058565b42612189565b836001600160801b03167f391c403938fc06625e9983c6117a6a837a930a7212ea9e234b1ecd9b0f6a3a7088888581811061182d5761182d612fd8565b905060200281019061183f9190612fee565b611850906040810190602001613058565b6040805161ffff909216825269ffffffffffffffffffff421660208301520160405180910390a28261188181613089565b935050508080611890906130af565b9150506115f3565b506001600160801b039081169116600160801b026fffffffffffffffffffffffffffffffff19161790555050565b600a546001600160a01b031615611909576040517f0dc149f000000000000000000000000000000000000000000000000000000000815260040160405180910390fd5b6119318160405160200161191d919061310e565b604051602081830303815290604052611ca1565b600a80546001600160a01b039283166001600160a01b0319918216179091556006805492881692909116821790556040516000907f8be0079c531659141344cd1fd0a4f28419497f9722a3daafe3b4186f6b6457e0908290a3836005611997828261318e565b9050507f297aa6cf51bb39507374bfcb61edead3172fc87755dea183d848c3a23c70496783836040516119cb92919061320a565b60405180910390a15050505050565b336119e482610cbd565b6001600160a01b031614611a24576040517feeddf6ab00000000000000000000000000000000000000000000000000000000815260040160405180910390fd5b611a2d81612336565b600980546001600160801b0316906000611a4683613252565b91906101000a8154816001600160801b0302191690836001600160801b031602179055505050565b6008546060906001600160a01b031615611b0e576008546040517e844d130000000000000000000000000000000000000000000000000000000081523060048201526001600160a01b039091169062844d1390602401600060405180830381865afa158015611ae1573d6000803e3d6000fd5b505050506040513d6000823e601f3d908101601f19168201604052611b099190810190612f0d565b905090565b611b16611d52565b60400151611b2330612030565b604051602001611b34929190613275565b604051602081830303815290604052905090565b600554604051632565da5f60e11b8152600160a01b820467ffffffffffffffff1660048201523360248201526001600160a01b0390911690634acbb4be90604401602060405180830381865afa158015611ba6573d6000803e3d6000fd5b505050506040513d601f19601f82011682018060405250810190611bca9190612c39565b611be75760405163ea8e4eb560e01b815260040160405180910390fd5b7f297aa6cf51bb39507374bfcb61edead3172fc87755dea183d848c3a23c70496784848484604051610baa9493929190612e46565b600554604051632565da5f60e11b8152600160a01b820467ffffffffffffffff1660048201526001600160a01b0383811660248301526000921690634acbb4be90604401602060405180830381865afa158015611c7d573d6000803e3d6000fd5b505050506040513d601f19601f820116820180604052508101906107439190612c39565b60008082604051602001611cb591906132cc565b6040516020818303038152906040529050600081604051602001611cd991906132f2565b60405160208183030381529060405290508051602082016000f092506001600160a01b038316611d4b5760405162461bcd60e51b815260206004820152601160248201527f4445504c4f594d454e545f4641494c454400000000000000000000000000000060448201526064016107ea565b5050919050565b611d7660405180606001604052806060815260200160608152602001606081525090565b600a54611d8b906001600160a01b03166123fa565b806020019051810190611b099190613337565b600554604051632565da5f60e11b8152600160a01b820467ffffffffffffffff1660048201523360248201526001600160a01b0390911690634acbb4be90604401602060405180830381865afa158015611dfc573d6000803e3d6000fd5b505050506040513d601f19601f82011682018060405250810190611e209190612c39565b611e3d5760405163ea8e4eb560e01b815260040160405180910390fd5b60098054600160801b90046001600160801b031660005b8451811015611f8c576000611e85868381518110611e7457611e74612fd8565b602002602001015160000151610def565b1115611ea45760405163201dc6f560e01b815260040160405180910390fd5b611eff858281518110611eb957611eb9612fd8565b60200260200101516000015183611ecf90613089565b9350836001600160801b0316878481518110611eed57611eed612fd8565b60200260200101516020015142612189565b816001600160801b03167f391c403938fc06625e9983c6117a6a837a930a7212ea9e234b1ecd9b0f6a3a70868381518110611f3c57611f3c612fd8565b60200260200101516020015142604051611f7292919061ffff92909216825269ffffffffffffffffffff16602082015260400190565b60405180910390a280611f84816130af565b915050611e54565b5060005b8351811015611fcd57611fbb848281518110611fae57611fae612fd8565b6020026020010151612336565b80611fc5816130af565b915050611f90565b5081546001600160801b03908116600160801b838316028181178555855187519093611ffc93919216176133ec565b6120069190613413565b82546fffffffffffffffffffffffffffffffff19166001600160801b039190911617909155505050565b60606107436001600160a01b038316601461241b565b60608160000361206d5750506040805180820190915260018152600360fc1b602082015290565b8160005b81156120975780612081816130af565b91506120909050600a83613449565b9150612071565b60008167ffffffffffffffff8111156120b2576120b2612935565b6040519080825280601f01601f1916602001820160405280156120dc576020820181803683370190505b5090505b8415612147576120f160018361345d565b91506120fe600a86613470565b612109906030613484565b60f81b81838151811061211e5761211e612fd8565b60200101906001600160f81b031916908160001a905350612140600a86613449565b94506120e0565b949350505050565b60008315612181578360051b8501855b803580851160051b9485526020948518526040600020930181811061215f5750505b501492915050565b6001600160a01b0384166121df5760405162461bcd60e51b815260206004820152601160248201527f494e56414c49445f524543495049454e5400000000000000000000000000000060448201526064016107ea565b6000838152602081905260409020546001600160a01b0316156122445760405162461bcd60e51b815260206004820152600e60248201527f414c52454144595f4d494e54454400000000000000000000000000000000000060448201526064016107ea565b6001600160a01b0384811660008181526001602081815260408084208054909301909255815160608101835284815261ffff88811682840190815269ffffffffffffffffffff8981168487019081528c885294879052858720935184549251955199167fffffffffffffffffffff0000000000000000000000000000000000000000000090921691909117600160a01b94909216939093021775ffffffffffffffffffffffffffffffffffffffffffff16600160b01b96909216959095021790935591518592907fddf252ad1be2c89b69c2b068fc378daa952ba7f163c4a11628f55a4df523b3ef908290a450505050565b6000818152602081905260409020546001600160a01b0316806123885760405162461bcd60e51b815260206004820152600a6024820152691393d517d3525395115160b21b60448201526064016107ea565b6001600160a01b03811660008181526001602090815260408083208054600019019055858352828252808320839055600290915280822080546001600160a01b0319169055518492907fddf252ad1be2c89b69c2b068fc378daa952ba7f163c4a11628f55a4df523b3ef908390a45050565b6060610743826001612416816001600160a01b0384163b61345d565b6125e7565b6060600061242a836002613497565b612435906002613484565b67ffffffffffffffff81111561244d5761244d612935565b6040519080825280601f01601f191660200182016040528015612477576020820181803683370190505b509050600360fc1b8160008151811061249257612492612fd8565b60200101906001600160f81b031916908160001a9053507f7800000000000000000000000000000000000000000000000000000000000000816001815181106124dd576124dd612fd8565b60200101906001600160f81b031916908160001a9053506000612501846002613497565b61250c906001613484565b90505b6001811115612591577f303132333435363738396162636465660000000000000000000000000000000085600f166010811061254d5761254d612fd8565b1a60f81b82828151811061256357612563612fd8565b60200101906001600160f81b031916908160001a90535060049490941c9361258a816134ae565b905061250f565b5083156125e05760405162461bcd60e51b815260206004820181905260248201527f537472696e67733a20686578206c656e67746820696e73756666696369656e7460448201526064016107ea565b9392505050565b60408051603f8301601f19168101909152818152818360208301863c9392505050565b6001600160e01b03198116811461262057600080fd5b50565b60006020828403121561263557600080fd5b81356125e08161260a565b60005b8381101561265b578181015183820152602001612643565b50506000910152565b6020815260008251806020840152612683816040850160208701612640565b601f01601f19169190910160400192915050565b6000602082840312156126a957600080fd5b5035919050565b6001600160a01b038116811461262057600080fd5b600080604083850312156126d857600080fd5b82356126e3816126b0565b946020939093013593505050565b60006020828403121561270357600080fd5b81356125e0816126b0565b60008060006060848603121561272357600080fd5b833561272e816126b0565b9250602084013561273e816126b0565b929592945050506040919091013590565b60008083601f84011261276157600080fd5b50813567ffffffffffffffff81111561277957600080fd5b6020830191508360208260061b850101111561279457600080fd5b9250929050565b60008083601f8401126127ad57600080fd5b50813567ffffffffffffffff8111156127c557600080fd5b6020830191508360208260051b850101111561279457600080fd5b600080600080604085870312156127f657600080fd5b843567ffffffffffffffff8082111561280e57600080fd5b61281a8883890161274f565b9096509450602087013591508082111561283357600080fd5b506128408782880161279b565b95989497509550505050565b60008083601f84011261285e57600080fd5b50813567ffffffffffffffff81111561287657600080fd5b60208301915083602082850101111561279457600080fd5b600080600080604085870312156128a457600080fd5b843567ffffffffffffffff808211156128bc57600080fd5b6128c88883890161284c565b909650945060208701359150808211156128e157600080fd5b506128408782880161284c565b801515811461262057600080fd5b6000806040838503121561290f57600080fd5b823561291a816126b0565b9150602083013561292a816128ee565b809150509250929050565b634e487b7160e01b600052604160045260246000fd5b6040516060810167ffffffffffffffff8111828210171561296e5761296e612935565b60405290565b604051601f8201601f1916810167ffffffffffffffff8111828210171561299d5761299d612935565b604052919050565b600067ffffffffffffffff8211156129bf576129bf612935565b50601f01601f191660200190565b6000602082840312156129df57600080fd5b813567ffffffffffffffff8111156129f657600080fd5b8201601f81018413612a0757600080fd5b8035612a1a612a15826129a5565b612974565b818152856020838501011115612a2f57600080fd5b81602084016020830137600091810160200191909152949350505050565b600080600080600060608688031215612a6557600080fd5b85359450602086013567ffffffffffffffff80821115612a8457600080fd5b612a9089838a0161274f565b90965094506040880135915080821115612aa957600080fd5b50612ab68882890161279b565b969995985093965092949392505050565b600080600080600060808688031215612adf57600080fd5b8535612aea816126b0565b94506020860135612afa816126b0565b935060408601359250606086013567ffffffffffffffff811115612b1d57600080fd5b612ab68882890161284c565b60008060208385031215612b3c57600080fd5b823567ffffffffffffffff811115612b5357600080fd5b612b5f8582860161279b565b90969095509350505050565b600080600080600085870360a0811215612b8457600080fd5b8635612b8f816126b0565b95506040601f1982011215612ba357600080fd5b50602086019350606086013567ffffffffffffffff80821115612bc557600080fd5b612bd189838a0161284c565b90955093506080880135915080821115612bea57600080fd5b50860160608189031215612bfd57600080fd5b809150509295509295909350565b60008060408385031215612c1e57600080fd5b8235612c29816126b0565b9150602083013561292a816126b0565b600060208284031215612c4b57600080fd5b81516125e0816128ee565b803561ffff81168114610d0f57600080fd5b600060408284031215612c7a57600080fd5b6040516040810181811067ffffffffffffffff82111715612c9d57612c9d612935565b6040528235612cab816126b0565b8152612cb960208401612c56565b60208201529392505050565b8183823760009101908152919050565b600181811c90821680612ce957607f821691505b602082108103612d0957634e487b7160e01b600052602260045260246000fd5b50919050565b601f821115610cb857600081815260208120601f850160051c81016020861015612d365750805b601f850160051c820191505b81811015612d5557828155600101612d42565b505050505050565b67ffffffffffffffff831115612d7557612d75612935565b612d8983612d838354612cd5565b83612d0f565b6000601f841160018114612dbd5760008515612da55750838201355b600019600387901b1c1916600186901b1783556113fa565b600083815260209020601f19861690835b82811015612dee5786850135825560209485019460019092019101612dce565b5086821015612e0b5760001960f88860031b161c19848701351681555b505060018560011b0183555050505050565b81835281816020850137506000828201602090810191909152601f909101601f19169091010190565b604081526000612e5a604083018688612e1d565b8281036020840152612e6d818587612e1d565b979650505050505050565b600060208284031215612e8a57600080fd5b81516125e08161260a565b60006001600160a01b03808816835280871660208401525084604083015260806060830152612e6d608083018486612e1d565b600082601f830112612ed957600080fd5b8151612ee7612a15826129a5565b818152846020838601011115612efc57600080fd5b612147826020830160208701612640565b600060208284031215612f1f57600080fd5b815167ffffffffffffffff811115612f3657600080fd5b61214784828501612ec8565b60008451612f54818460208901612640565b845190830190612f68818360208901612640565b7f2f0000000000000000000000000000000000000000000000000000000000000091019081528351612fa1816001840160208801612640565b7f2e6a736f6e0000000000000000000000000000000000000000000000000000006001929091019182015260060195945050505050565b634e487b7160e01b600052603260045260246000fd5b60008235605e1983360301811261300457600080fd5b9190910192915050565b6000808335601e1984360301811261302557600080fd5b83018035915067ffffffffffffffff82111561304057600080fd5b6020019150600581901b360382131561279457600080fd5b60006020828403121561306a57600080fd5b6125e082612c56565b634e487b7160e01b600052601160045260246000fd5b60006001600160801b038083168181036130a5576130a5613073565b6001019392505050565b6000600182016130c1576130c1613073565b5060010190565b6000808335601e198436030181126130df57600080fd5b830160208101925035905067ffffffffffffffff8111156130ff57600080fd5b80360382131561279457600080fd5b60208152600061311e83846130c8565b60606020850152613133608085018284612e1d565b91505061314360208501856130c8565b601f198086850301604087015261315b848385612e1d565b935061316a60408801886130c8565b935091508086850301606087015250613184838383612e1d565b9695505050505050565b8135613199816126b0565b6001600160a01b03811690508154816001600160a01b03198216178355602084013567ffffffffffffffff811681146131d157600080fd5b7bffffffffffffffff00000000000000000000000000000000000000008160a01b16836001600160e01b03198416171784555050505050565b60408152600860408201527f6d657461646174610000000000000000000000000000000000000000000000006060820152608060208201526000612147608083018486612e1d565b60006001600160801b0382168061326b5761326b613073565b6000190192915050565b60008351613287818460208801612640565b83519083019061329b818360208801612640565b7f2f636f6c6c656374696f6e2e6a736f6e000000000000000000000000000000009101908152601001949350505050565b60008152600082516132e5816001850160208701612640565b9190910160010192915050565b7f600b5981380380925939f300000000000000000000000000000000000000000081526000825161332a81600b850160208701612640565b91909101600b0192915050565b60006020828403121561334957600080fd5b815167ffffffffffffffff8082111561336157600080fd5b908301906060828603121561337557600080fd5b61337d61294b565b82518281111561338c57600080fd5b61339887828601612ec8565b8252506020830151828111156133ad57600080fd5b6133b987828601612ec8565b6020830152506040830151828111156133d157600080fd5b6133dd87828601612ec8565b60408301525095945050505050565b6001600160801b0381811683821601908082111561340c5761340c613073565b5092915050565b6001600160801b0382811682821603908082111561340c5761340c613073565b634e487b7160e01b600052601260045260246000fd5b60008261345857613458613433565b500490565b8181038181111561074357610743613073565b60008261347f5761347f613433565b500690565b8082018082111561074357610743613073565b808202811582820484141761074357610743613073565b6000816134bd576134bd613073565b50600019019056fea264697066735822122004449cf7e2b17794690d53a39668c3f2da8a16e7e8444330f1dd03aa4769a55564736f6c63430008110033",
  "linkReferences": {},
  "deployedLinkReferences": {}
}