{
  "_format": "hh-sol-artifact-1",
  "contractName": "NodeRegistry",
  "sourceName": "contracts/NodeRegistry.sol",
  "abi": [
    {
      "inputs": [
        {
          "internalType": "contract AccountRegistry",
          "name": "_accounts",
          "type": "address"
        }
      ],
      "stateMutability": "nonpayable",
      "type": "constructor"
    },
    {
      "inputs": [],
      "name": "InvalidNodeCreate",
      "type": "error"
    },
    {
      "inputs": [],
      "name": "NotAuthorizedForNode",
      "type": "error"
    },
    {
      "anonymous": false,
      "inputs": [
        {
          "indexed": true,
          "internalType": "uint64",
          "name": "id",
          "type": "uint64"
        },
        {
          "indexed": false,
          "internalType": "string",
          "name": "topic",
          "type": "string"
        },
        {
          "indexed": false,
          "internalType": "string",
          "name": "message",
          "type": "string"
        }
      ],
      "name": "NodeBroadcast",
      "type": "event"
    },
    {
      "anonymous": false,
      "inputs": [
        {
          "indexed": true,
          "internalType": "uint64",
          "name": "id",
          "type": "uint64"
        },
        {
          "indexed": true,
          "internalType": "address",
          "name": "controller",
          "type": "address"
        },
        {
          "indexed": false,
          "internalType": "bool",
          "name": "isAuthorized",
          "type": "bool"
        }
      ],
      "name": "NodeControllerSet",
      "type": "event"
    },
    {
      "anonymous": false,
      "inputs": [
        {
          "indexed": true,
          "internalType": "uint64",
          "name": "id",
          "type": "uint64"
        },
        {
          "indexed": true,
          "internalType": "uint16",
          "name": "nodeType",
          "type": "uint16"
        },
        {
          "indexed": true,
          "internalType": "uint64",
          "name": "owner",
          "type": "uint64"
        },
        {
          "indexed": false,
          "internalType": "uint64",
          "name": "parent",
          "type": "uint64"
        },
        {
          "indexed": false,
          "internalType": "uint64",
          "name": "groupNode",
          "type": "uint64"
        },
        {
          "indexed": false,
          "internalType": "string",
          "name": "metadata",
          "type": "string"
        }
      ],
      "name": "NodeCreated",
      "type": "event"
    },
    {
      "anonymous": false,
      "inputs": [
        {
          "indexed": true,
          "internalType": "uint64",
          "name": "id",
          "type": "uint64"
        },
        {
          "indexed": true,
          "internalType": "uint64",
          "name": "groupNode",
          "type": "uint64"
        }
      ],
      "name": "NodeGroupNodeSet",
      "type": "event"
    },
    {
      "anonymous": false,
      "inputs": [
        {
          "indexed": true,
          "internalType": "uint64",
          "name": "id",
          "type": "uint64"
        },
        {
          "indexed": true,
          "internalType": "uint64",
          "name": "owner",
          "type": "uint64"
        }
      ],
      "name": "NodeOwnerSet",
      "type": "event"
    },
    {
      "anonymous": false,
      "inputs": [
        {
          "indexed": true,
          "internalType": "uint64",
          "name": "id",
          "type": "uint64"
        },
        {
          "indexed": true,
          "internalType": "uint64",
          "name": "pendingOwner",
          "type": "uint64"
        }
      ],
      "name": "NodeOwnerTransferPending",
      "type": "event"
    },
    {
      "anonymous": false,
      "inputs": [
        {
          "indexed": true,
          "internalType": "uint64",
          "name": "id",
          "type": "uint64"
        },
        {
          "indexed": true,
          "internalType": "uint64",
          "name": "parent",
          "type": "uint64"
        }
      ],
      "name": "NodeParentSet",
      "type": "event"
    },
    {
      "inputs": [],
      "name": "accounts",
      "outputs": [
        {
          "internalType": "contract AccountRegistry",
          "name": "",
          "type": "address"
        }
      ],
      "stateMutability": "view",
      "type": "function"
    },
    {
      "inputs": [
        {
          "internalType": "uint64",
          "name": "id",
          "type": "uint64"
        },
        {
          "internalType": "string",
          "name": "topic",
          "type": "string"
        },
        {
          "internalType": "string",
          "name": "message",
          "type": "string"
        }
      ],
      "name": "broadcast",
      "outputs": [],
      "stateMutability": "nonpayable",
      "type": "function"
    },
    {
      "inputs": [
        {
          "internalType": "uint64",
          "name": "id",
          "type": "uint64"
        },
        {
          "internalType": "string",
          "name": "topic",
          "type": "string"
        },
        {
          "internalType": "string",
          "name": "message",
          "type": "string"
        }
      ],
      "name": "broadcastAndStore",
      "outputs": [],
      "stateMutability": "nonpayable",
      "type": "function"
    },
    {
      "inputs": [
        {
          "internalType": "uint64",
          "name": "id",
          "type": "uint64"
        }
      ],
      "name": "completeNodeOwnerTransfer",
      "outputs": [],
      "stateMutability": "nonpayable",
      "type": "function"
    },
    {
      "inputs": [
        {
          "internalType": "uint64",
          "name": "",
          "type": "uint64"
        },
        {
          "internalType": "address",
          "name": "",
          "type": "address"
        }
      ],
      "name": "controllers",
      "outputs": [
        {
          "internalType": "bool",
          "name": "",
          "type": "bool"
        }
      ],
      "stateMutability": "view",
      "type": "function"
    },
    {
      "inputs": [
        {
          "internalType": "uint16",
          "name": "nodeType",
          "type": "uint16"
        },
        {
          "internalType": "uint64",
          "name": "owner",
          "type": "uint64"
        },
        {
          "internalType": "uint64",
          "name": "parent",
          "type": "uint64"
        },
        {
          "internalType": "uint64",
          "name": "groupNode",
          "type": "uint64"
        },
        {
          "internalType": "address[]",
          "name": "initialControllers",
          "type": "address[]"
        },
        {
          "internalType": "string",
          "name": "metadata",
          "type": "string"
        }
      ],
      "name": "createNode",
      "outputs": [
        {
          "internalType": "uint64",
          "name": "id",
          "type": "uint64"
        }
      ],
      "stateMutability": "nonpayable",
      "type": "function"
    },
    {
      "inputs": [
        {
          "internalType": "uint64",
          "name": "id",
          "type": "uint64"
        }
      ],
      "name": "groupNodeOf",
      "outputs": [
        {
          "internalType": "uint64",
          "name": "",
          "type": "uint64"
        }
      ],
      "stateMutability": "view",
      "type": "function"
    },
    {
      "inputs": [
        {
          "internalType": "uint64",
          "name": "node",
          "type": "uint64"
        },
        {
          "internalType": "uint64",
          "name": "account",
          "type": "uint64"
        }
      ],
      "name": "isAuthorizedAccountForNode",
      "outputs": [
        {
          "internalType": "bool",
          "name": "isAuthorized",
          "type": "bool"
        }
      ],
      "stateMutability": "view",
      "type": "function"
    },
    {
      "inputs": [
        {
          "internalType": "uint64",
          "name": "node",
          "type": "uint64"
        },
        {
          "internalType": "address",
          "name": "subject",
          "type": "address"
        }
      ],
      "name": "isAuthorizedAddressForNode",
      "outputs": [
        {
          "internalType": "bool",
          "name": "isAuthorized",
          "type": "bool"
        }
      ],
      "stateMutability": "view",
      "type": "function"
    },
    {
      "inputs": [
        {
          "internalType": "uint64",
          "name": "",
          "type": "uint64"
        },
        {
          "internalType": "string",
          "name": "",
          "type": "string"
        }
      ],
      "name": "messageStorage",
      "outputs": [
        {
          "internalType": "string",
          "name": "",
          "type": "string"
        }
      ],
      "stateMutability": "view",
      "type": "function"
    },
    {
      "inputs": [
        {
          "internalType": "uint64",
          "name": "",
          "type": "uint64"
        }
      ],
      "name": "nodes",
      "outputs": [
        {
          "internalType": "uint16",
          "name": "nodeType",
          "type": "uint16"
        },
        {
          "internalType": "uint64",
          "name": "owner",
          "type": "uint64"
        },
        {
          "internalType": "uint64",
          "name": "parent",
          "type": "uint64"
        },
        {
          "internalType": "uint64",
          "name": "groupNode",
          "type": "uint64"
        }
      ],
      "stateMutability": "view",
      "type": "function"
    },
    {
      "inputs": [
        {
          "internalType": "uint64",
          "name": "id",
          "type": "uint64"
        }
      ],
      "name": "ownerOf",
      "outputs": [
        {
          "internalType": "uint64",
          "name": "",
          "type": "uint64"
        }
      ],
      "stateMutability": "view",
      "type": "function"
    },
    {
      "inputs": [
        {
          "internalType": "uint64",
          "name": "id",
          "type": "uint64"
        }
      ],
      "name": "parentOf",
      "outputs": [
        {
          "internalType": "uint64",
          "name": "",
          "type": "uint64"
        }
      ],
      "stateMutability": "view",
      "type": "function"
    },
    {
      "inputs": [
        {
          "internalType": "uint64",
          "name": "",
          "type": "uint64"
        }
      ],
      "name": "pendingNodeOwnerTransfers",
      "outputs": [
        {
          "internalType": "uint64",
          "name": "",
          "type": "uint64"
        }
      ],
      "stateMutability": "view",
      "type": "function"
    },
    {
      "inputs": [
        {
          "internalType": "uint64",
          "name": "id",
          "type": "uint64"
        }
      ],
      "name": "removeNodeOwner",
      "outputs": [],
      "stateMutability": "nonpayable",
      "type": "function"
    },
    {
      "inputs": [
        {
          "internalType": "uint64",
          "name": "node",
          "type": "uint64"
        },
        {
          "internalType": "address",
          "name": "controller",
          "type": "address"
        },
        {
          "internalType": "bool",
          "name": "isAuthorized",
          "type": "bool"
        }
      ],
      "name": "setController",
      "outputs": [],
      "stateMutability": "nonpayable",
      "type": "function"
    },
    {
      "inputs": [
        {
          "internalType": "uint64",
          "name": "id",
          "type": "uint64"
        },
        {
          "internalType": "uint64",
          "name": "groupNode",
          "type": "uint64"
        }
      ],
      "name": "setNodeGroupNode",
      "outputs": [],
      "stateMutability": "nonpayable",
      "type": "function"
    },
    {
      "inputs": [
        {
          "internalType": "uint64",
          "name": "id",
          "type": "uint64"
        },
        {
          "internalType": "uint64",
          "name": "parent",
          "type": "uint64"
        }
      ],
      "name": "setParentNode",
      "outputs": [],
      "stateMutability": "nonpayable",
      "type": "function"
    },
    {
      "inputs": [
        {
          "internalType": "uint64",
          "name": "id",
          "type": "uint64"
        },
        {
          "internalType": "uint64",
          "name": "newOwner",
          "type": "uint64"
        }
      ],
      "name": "startNodeOwnerTransfer",
      "outputs": [],
      "stateMutability": "nonpayable",
      "type": "function"
    },
    {
      "inputs": [],
      "name": "totalNodeCount",
      "outputs": [
        {
          "internalType": "uint64",
          "name": "",
          "type": "uint64"
        }
      ],
      "stateMutability": "view",
      "type": "function"
    }
  ],
  "bytecode": "0x60a060405234801561001057600080fd5b50604051611b77380380611b7783398101604081905261002f91610040565b6001600160a01b0316608052610070565b60006020828403121561005257600080fd5b81516001600160a01b038116811461006957600080fd5b9392505050565b608051611ac26100b5600039600081816102990152818161044b01528181610714015281816109d701528181610f18015281816110e901526112540152611ac26000f3fe608060405234801561001057600080fd5b506004361061012c5760003560e01c80637903a617116100ad578063b7306f1411610071578063b7306f1414610384578063c999fea314610397578063de0133c3146103aa578063deb6465d146103d8578063f5bfd7c6146103eb57600080fd5b80637903a61714610306578063a453375614610338578063ac3531741461034b578063af2d91b81461035e578063b5e4c2e81461037157600080fd5b8063563c2738116100f4578063563c2738146101b857806359ca4af3146101e35780636579b6fe1461026157806368cd03f6146102945780636bf1e676146102d357600080fd5b806305f5ca4e14610131578063237e91751461014657806325b86f13146101595780634acbb4be146101825780635477b578146101a5575b600080fd5b61014461013f3660046114e0565b610414565b005b61014461015436600461154c565b61056b565b61016c610167366004611683565b6105e2565b604051610179919061171f565b60405180910390f35b61019561019036600461174e565b610698565b6040519015158152602001610179565b6101956101b3366004611783565b6108a9565b6101cb6101c63660046117bc565b610988565b6040516001600160401b039091168152602001610179565b61022d6101f13660046114e0565b60016020526000908152604090205461ffff8116906001600160401b03620100008204811691600160501b8104821691600160901b9091041684565b6040805161ffff90951685526001600160401b03938416602086015291831691840191909152166060820152608001610179565b6101cb61026f3660046114e0565b6001600160401b03908116600090815260016020526040902054600160501b90041690565b6102bb7f000000000000000000000000000000000000000000000000000000000000000081565b6040516001600160a01b039091168152602001610179565b6101cb6102e13660046114e0565b6001600160401b03908116600090815260016020526040902054600160901b90041690565b6101cb6103143660046114e0565b6001600160401b039081166000908152600160205260409020546201000090041690565b610144610346366004611783565b610d45565b610144610359366004611783565b610df8565b61014461036c366004611783565b610eab565b61014461037f3660046118dc565b6110c6565b6101446103923660046114e0565b6111e7565b6000546101cb906001600160401b031681565b6101956103b836600461174e565b600260209081526000928352604080842090915290825290205460ff1681565b6101446103e636600461154c565b611370565b6101cb6103f93660046114e0565b6004602052600090815260409020546001600160401b031681565b6001600160401b03818116600090815260046020819052604080832054905163641f2bad60e01b81523392810192909252909216917f00000000000000000000000000000000000000000000000000000000000000006001600160a01b03169063641f2bad90602401602060405180830381865afa15801561049a573d6000803e3d6000fd5b505050506040513d601f19601f820116820180604052508101906104be919061192a565b9050806001600160401b0316826001600160401b0316146104f25760405163444a90d360e01b815260040160405180910390fd5b6001600160401b038381166000818152600160209081526040808320805469ffffffffffffffff00001916620100009689169687021790556004909152808220805467ffffffffffffffff19169055517fb16d66fea344456db6f5ffa8f0dc5fa208c98be672df819ff3ca44863a5358ad9190a3505050565b846105768133610698565b6105935760405163444a90d360e01b815260040160405180910390fd5b856001600160401b03167fbdf912301251108e1ce48c21891c6b55ef5b631e74813780d1e9b17840fa24b2868686866040516105d29493929190611970565b60405180910390a2505050505050565b6003602090815260009283526040909220815180830184018051928152908401929093019190912091528054610617906119a2565b80601f0160208091040260200160405190810160405280929190818152602001828054610643906119a2565b80156106905780601f1061066557610100808354040283529160200191610690565b820191906000526020600020905b81548152906001019060200180831161067357829003601f168201915b505050505081565b6001600160401b0382811660009081526001602090815260408083208151608081018352905461ffff81168252620100008104861693820193909352600160501b8304851681830152600160901b9092049093166060820152915163641f2bad60e01b81526001600160a01b03848116600483015291929183917f00000000000000000000000000000000000000000000000000000000000000009091169063641f2bad90602401602060405180830381865afa15801561075d573d6000803e3d6000fd5b505050506040513d601f19601f82011682018060405250810190610781919061192a565b9050846001600160401b031660000361079d57600092506108a1565b806001600160401b031682602001516001600160401b03161480156107ca57506001600160401b03811615155b156107d857600192506108a1565b60608201516001600160401b03908116600090815260016020526040902054620100009004811690821614801561081757506001600160401b03811615155b1561082557600192506108a1565b6001600160401b03851660009081526002602090815260408083206001600160a01b038816845290915290205460ff161561086357600192506108a1565b60608201516001600160401b031660009081526002602090815260408083206001600160a01b038816845290915290205460ff16156108a157600192505b505092915050565b6001600160401b0380831660009081526001602090815260408083208151608081018352905461ffff81168252620100008104861693820193909352600160501b8304851691810191909152600160901b909104831660608201529091831615806109175750805161ffff16155b156109255760009150610981565b826001600160401b031681602001516001600160401b03160361094b5760019150610981565b60608101516001600160401b03908116600090815260016020526040902054818516620100009091049091160361098157600191505b5092915050565b60008661ffff166000036109af57604051633498a04f60e11b815260040160405180910390fd5b6001600160401b03861615801590610a60575060405163641f2bad60e01b81523360048201527f00000000000000000000000000000000000000000000000000000000000000006001600160a01b03169063641f2bad90602401602060405180830381865afa158015610a26573d6000803e3d6000fd5b505050506040513d601f19601f82011682018060405250810190610a4a919061192a565b6001600160401b0316866001600160401b031614155b15610a7e5760405163444a90d360e01b815260040160405180910390fd5b6001600160401b03851615610af0576001600160401b03851660009081526001602052604081205461ffff169003610ac957604051633498a04f60e11b815260040160405180910390fd5b610ad38533610698565b610af05760405163444a90d360e01b815260040160405180910390fd5b6001600160401b03841615610b62576001600160401b03841660009081526001602052604081205461ffff169003610b3b57604051633498a04f60e11b815260040160405180910390fd5b610b458433610698565b610b625760405163444a90d360e01b815260040160405180910390fd5b600080548190610b7a906001600160401b03166119f2565b82546101009290920a6001600160401b0381810219909316828416918202179093556040805160808101825261ffff8c81168083528c861660208085018281528e89168688019081528e8a166060880190815260008c815260019094529288902096518754925191519351961669ffffffffffffffffffff199092169190911762010000918a1691909102176fffffffffffffffffffffffffffffffff60501b1916600160501b9189169190910267ffffffffffffffff60901b191617600160901b939097169290920295909517909155905191945092907f080f6751e6344c8338f449a4a1c915c11064c6a0bce07592b6d771e1c27ed2be90610c83908a908a908990611a18565b60405180910390a460005b8351811015610d3a576000848281518110610cab57610cab611a4d565b6020908102919091018101516001600160401b03851660008181526002845260408082206001600160a01b03851680845290865291819020805460ff1916600190811790915590519081529294509290917f5fe1326a5161ca47042a7f643842e04356c668a48c8495cb0ffdbc707c17bebf910160405180910390a35080610d3281611a63565b915050610c8e565b509695505050505050565b81610d508133610698565b610d6d5760405163444a90d360e01b815260040160405180910390fd5b81610d788133610698565b610d955760405163444a90d360e01b815260040160405180910390fd5b6001600160401b03848116600081815260016020526040808220805467ffffffffffffffff60501b1916600160501b958916958602179055517fefe6261643d8594688953ec1ce3942cbfa085d68b01bd112804fc838e727bc139190a350505050565b81610e038133610698565b610e205760405163444a90d360e01b815260040160405180910390fd5b81610e2b8133610698565b610e485760405163444a90d360e01b815260040160405180910390fd5b6001600160401b03848116600081815260016020526040808220805467ffffffffffffffff60901b1916600160901b958916958602179055517fadf1166ba1a525a18888a2322ec587b5a566aee20f79a712e16f9dc2453349589190a350505050565b6001600160401b0382811660009081526001602090815260408083208151608081018352905461ffff81168252620100008104861693820193909352600160501b8304851681830152600160901b9092049093166060820152915163641f2bad60e01b81523360048201527f00000000000000000000000000000000000000000000000000000000000000006001600160a01b03169063641f2bad90602401602060405180830381865afa158015610f67573d6000803e3d6000fd5b505050506040513d601f19601f82011682018060405250810190610f8b919061192a565b905081602001516001600160401b0316600014158015610fc15750806001600160401b031682602001516001600160401b031614155b15610fdf5760405163444a90d360e01b815260040160405180910390fd5b60208201516001600160401b0316158015611037575060608201516001600160401b03161580611037575060608201516001600160401b03908116600090815260016020526040902054620100009004811690821614155b156110555760405163444a90d360e01b815260040160405180910390fd5b826001600160401b0316846001600160401b03167fd5edc069d80f1d422b948ce36edf9eac1fa25836bd5f8db9198429017f86202860405160405180910390a350506001600160401b039182166000908152600460205260409020805467ffffffffffffffff191691909216179055565b60405163641f2bad60e01b81523360048201526111549084906001600160a01b037f0000000000000000000000000000000000000000000000000000000000000000169063641f2bad90602401602060405180830381865afa158015611130573d6000803e3d6000fd5b505050506040513d601f19601f820116820180604052508101906101b3919061192a565b6111715760405163444a90d360e01b815260040160405180910390fd5b6001600160401b03831660008181526002602090815260408083206001600160a01b03871680855290835292819020805460ff191686151590811790915590519081529192917f5fe1326a5161ca47042a7f643842e04356c668a48c8495cb0ffdbc707c17bebf910160405180910390a3505050565b6001600160401b0381811660009081526001602090815260408083208151608081018352905461ffff81168252620100008104861693820193909352600160501b8304851681830152600160901b9092049093166060820152915163641f2bad60e01b81523360048201527f00000000000000000000000000000000000000000000000000000000000000006001600160a01b03169063641f2bad90602401602060405180830381865afa1580156112a3573d6000803e3d6000fd5b505050506040513d601f19601f820116820180604052508101906112c7919061192a565b9050806001600160401b031682602001516001600160401b0316146112ff5760405163444a90d360e01b815260040160405180910390fd5b6001600160401b0383166000818152600160209081526040808320805469ffffffffffffffff0000191690556004909152808220805467ffffffffffffffff19169055519091907fb16d66fea344456db6f5ffa8f0dc5fa208c98be672df819ff3ca44863a5358ad908390a3505050565b8461137b8133610698565b6113985760405163444a90d360e01b815260040160405180910390fd5b856001600160401b03167fbdf912301251108e1ce48c21891c6b55ef5b631e74813780d1e9b17840fa24b2868686866040516113d79493929190611970565b60405180910390a26001600160401b0386166000908152600360205260409081902090518491849161140c9089908990611a7c565b90815260405190819003602001902061142692909161142f565b50505050505050565b82805461143b906119a2565b90600052602060002090601f01602090048101928261145d57600085556114a3565b82601f106114765782800160ff198235161785556114a3565b828001600101855582156114a3579182015b828111156114a3578235825591602001919060010190611488565b506114af9291506114b3565b5090565b5b808211156114af57600081556001016114b4565b6001600160401b03811681146114dd57600080fd5b50565b6000602082840312156114f257600080fd5b81356114fd816114c8565b9392505050565b60008083601f84011261151657600080fd5b5081356001600160401b0381111561152d57600080fd5b60208301915083602082850101111561154557600080fd5b9250929050565b60008060008060006060868803121561156457600080fd5b853561156f816114c8565b945060208601356001600160401b038082111561158b57600080fd5b61159789838a01611504565b909650945060408801359150808211156115b057600080fd5b506115bd88828901611504565b969995985093965092949392505050565b634e487b7160e01b600052604160045260246000fd5b604051601f8201601f191681016001600160401b038111828210171561160c5761160c6115ce565b604052919050565b600082601f83011261162557600080fd5b81356001600160401b0381111561163e5761163e6115ce565b611651601f8201601f19166020016115e4565b81815284602083860101111561166657600080fd5b816020850160208301376000918101602001919091529392505050565b6000806040838503121561169657600080fd5b82356116a1816114c8565b915060208301356001600160401b038111156116bc57600080fd5b6116c885828601611614565b9150509250929050565b6000815180845260005b818110156116f8576020818501810151868301820152016116dc565b8181111561170a576000602083870101525b50601f01601f19169290920160200192915050565b6020815260006114fd60208301846116d2565b80356001600160a01b038116811461174957600080fd5b919050565b6000806040838503121561176157600080fd5b823561176c816114c8565b915061177a60208401611732565b90509250929050565b6000806040838503121561179657600080fd5b82356117a1816114c8565b915060208301356117b1816114c8565b809150509250929050565b60008060008060008060c087890312156117d557600080fd5b863561ffff811681146117e757600080fd5b95506020878101356117f8816114c8565b95506040880135611808816114c8565b94506060880135611818816114c8565b935060808801356001600160401b038082111561183457600080fd5b818a0191508a601f83011261184857600080fd5b81358181111561185a5761185a6115ce565b8060051b6118698582016115e4565b918252838101850191858101908e84111561188357600080fd5b948601945b838610156118a85761189986611732565b82529486019490860190611888565b975050505060a08a01359250808311156118c157600080fd5b50506118cf89828a01611614565b9150509295509295509295565b6000806000606084860312156118f157600080fd5b83356118fc816114c8565b925061190a60208501611732565b91506040840135801515811461191f57600080fd5b809150509250925092565b60006020828403121561193c57600080fd5b81516114fd816114c8565b81835281816020850137506000828201602090810191909152601f909101601f19169091010190565b604081526000611984604083018688611947565b8281036020840152611997818587611947565b979650505050505050565b600181811c908216806119b657607f821691505b6020821081036119d657634e487b7160e01b600052602260045260246000fd5b50919050565b634e487b7160e01b600052601160045260246000fd5b60006001600160401b03808316818103611a0e57611a0e6119dc565b6001019392505050565b60006001600160401b03808616835280851660208401525060606040830152611a4460608301846116d2565b95945050505050565b634e487b7160e01b600052603260045260246000fd5b600060018201611a7557611a756119dc565b5060010190565b818382376000910190815291905056fea2646970667358221220f7a021355c8490343bbe08a951b8a2a00df881e4d7447376ed2c82ac1e2f8a8164736f6c634300080d0033",
  "linkReferences": {},
  "deployedLinkReferences": {}
}