{
  "_format": "hh-sol-artifact-1",
  "contractName": "NodeRegistry",
  "sourceName": "contracts/NodeRegistry.sol",
  "abi": [
    {
      "inputs": [
        {
          "internalType": "contract AccountRegistry",
          "name": "_accounts",
          "type": "address"
        }
      ],
      "stateMutability": "nonpayable",
      "type": "constructor"
    },
    {
      "inputs": [],
      "name": "InvalidNodeCreate",
      "type": "error"
    },
    {
      "inputs": [],
      "name": "NotAuthorizedForNode",
      "type": "error"
    },
    {
      "anonymous": false,
      "inputs": [
        {
          "indexed": true,
          "internalType": "uint64",
          "name": "id",
          "type": "uint64"
        },
        {
          "indexed": false,
          "internalType": "string",
          "name": "topic",
          "type": "string"
        },
        {
          "indexed": false,
          "internalType": "string",
          "name": "message",
          "type": "string"
        }
      ],
      "name": "NodeBroadcast",
      "type": "event"
    },
    {
      "anonymous": false,
      "inputs": [
        {
          "indexed": true,
          "internalType": "uint64",
          "name": "id",
          "type": "uint64"
        },
        {
          "indexed": true,
          "internalType": "address",
          "name": "controller",
          "type": "address"
        },
        {
          "indexed": false,
          "internalType": "bool",
          "name": "isAuthorized",
          "type": "bool"
        }
      ],
      "name": "NodeControllerSet",
      "type": "event"
    },
    {
      "anonymous": false,
      "inputs": [
        {
          "indexed": true,
          "internalType": "uint64",
          "name": "id",
          "type": "uint64"
        },
        {
          "indexed": true,
          "internalType": "uint16",
          "name": "nodeType",
          "type": "uint16"
        },
        {
          "indexed": true,
          "internalType": "uint64",
          "name": "owner",
          "type": "uint64"
        },
        {
          "indexed": false,
          "internalType": "uint64",
          "name": "parent",
          "type": "uint64"
        },
        {
          "indexed": false,
          "internalType": "uint64",
          "name": "groupNode",
          "type": "uint64"
        },
        {
          "indexed": false,
          "internalType": "string",
          "name": "metadata",
          "type": "string"
        }
      ],
      "name": "NodeCreated",
      "type": "event"
    },
    {
      "anonymous": false,
      "inputs": [
        {
          "indexed": true,
          "internalType": "uint64",
          "name": "id",
          "type": "uint64"
        },
        {
          "indexed": true,
          "internalType": "uint64",
          "name": "groupNode",
          "type": "uint64"
        }
      ],
      "name": "NodeGroupNodeSet",
      "type": "event"
    },
    {
      "anonymous": false,
      "inputs": [
        {
          "indexed": true,
          "internalType": "uint64",
          "name": "id",
          "type": "uint64"
        },
        {
          "indexed": true,
          "internalType": "uint64",
          "name": "owner",
          "type": "uint64"
        }
      ],
      "name": "NodeOwnerSet",
      "type": "event"
    },
    {
      "anonymous": false,
      "inputs": [
        {
          "indexed": true,
          "internalType": "uint64",
          "name": "id",
          "type": "uint64"
        },
        {
          "indexed": true,
          "internalType": "uint64",
          "name": "pendingOwner",
          "type": "uint64"
        }
      ],
      "name": "NodeOwnerTransferPending",
      "type": "event"
    },
    {
      "anonymous": false,
      "inputs": [
        {
          "indexed": true,
          "internalType": "uint64",
          "name": "id",
          "type": "uint64"
        },
        {
          "indexed": true,
          "internalType": "uint64",
          "name": "parent",
          "type": "uint64"
        }
      ],
      "name": "NodeParentSet",
      "type": "event"
    },
    {
      "inputs": [],
      "name": "accounts",
      "outputs": [
        {
          "internalType": "contract AccountRegistry",
          "name": "",
          "type": "address"
        }
      ],
      "stateMutability": "view",
      "type": "function"
    },
    {
      "inputs": [
        {
          "internalType": "uint64",
          "name": "id",
          "type": "uint64"
        },
        {
          "internalType": "string",
          "name": "topic",
          "type": "string"
        },
        {
          "internalType": "string",
          "name": "message",
          "type": "string"
        }
      ],
      "name": "broadcast",
      "outputs": [],
      "stateMutability": "nonpayable",
      "type": "function"
    },
    {
      "inputs": [
        {
          "internalType": "uint64",
          "name": "id",
          "type": "uint64"
        },
        {
          "internalType": "string",
          "name": "topic",
          "type": "string"
        },
        {
          "internalType": "string",
          "name": "message",
          "type": "string"
        }
      ],
      "name": "broadcastAndStore",
      "outputs": [],
      "stateMutability": "nonpayable",
      "type": "function"
    },
    {
      "inputs": [
        {
          "internalType": "uint64",
          "name": "id",
          "type": "uint64"
        }
      ],
      "name": "completeNodeOwnerTransfer",
      "outputs": [],
      "stateMutability": "nonpayable",
      "type": "function"
    },
    {
      "inputs": [
        {
          "internalType": "uint64",
          "name": "",
          "type": "uint64"
        },
        {
          "internalType": "address",
          "name": "",
          "type": "address"
        }
      ],
      "name": "controllers",
      "outputs": [
        {
          "internalType": "bool",
          "name": "",
          "type": "bool"
        }
      ],
      "stateMutability": "view",
      "type": "function"
    },
    {
      "inputs": [
        {
          "internalType": "uint16",
          "name": "nodeType",
          "type": "uint16"
        },
        {
          "internalType": "uint64",
          "name": "owner",
          "type": "uint64"
        },
        {
          "internalType": "uint64",
          "name": "parent",
          "type": "uint64"
        },
        {
          "internalType": "uint64",
          "name": "groupNode",
          "type": "uint64"
        },
        {
          "internalType": "address[]",
          "name": "initialControllers",
          "type": "address[]"
        },
        {
          "internalType": "string",
          "name": "metadata",
          "type": "string"
        }
      ],
      "name": "createNode",
      "outputs": [
        {
          "internalType": "uint64",
          "name": "id",
          "type": "uint64"
        }
      ],
      "stateMutability": "nonpayable",
      "type": "function"
    },
    {
      "inputs": [
        {
          "internalType": "uint64",
          "name": "id",
          "type": "uint64"
        }
      ],
      "name": "groupNodeOf",
      "outputs": [
        {
          "internalType": "uint64",
          "name": "",
          "type": "uint64"
        }
      ],
      "stateMutability": "view",
      "type": "function"
    },
    {
      "inputs": [
        {
          "internalType": "uint64",
          "name": "node",
          "type": "uint64"
        },
        {
          "internalType": "uint64",
          "name": "account",
          "type": "uint64"
        }
      ],
      "name": "isAuthorizedAccountForNode",
      "outputs": [
        {
          "internalType": "bool",
          "name": "isAuthorized",
          "type": "bool"
        }
      ],
      "stateMutability": "view",
      "type": "function"
    },
    {
      "inputs": [
        {
          "internalType": "uint64",
          "name": "node",
          "type": "uint64"
        },
        {
          "internalType": "address",
          "name": "subject",
          "type": "address"
        }
      ],
      "name": "isAuthorizedAddressForNode",
      "outputs": [
        {
          "internalType": "bool",
          "name": "isAuthorized",
          "type": "bool"
        }
      ],
      "stateMutability": "view",
      "type": "function"
    },
    {
      "inputs": [
        {
          "internalType": "uint64",
          "name": "",
          "type": "uint64"
        },
        {
          "internalType": "string",
          "name": "",
          "type": "string"
        }
      ],
      "name": "messageStorage",
      "outputs": [
        {
          "internalType": "string",
          "name": "",
          "type": "string"
        }
      ],
      "stateMutability": "view",
      "type": "function"
    },
    {
      "inputs": [
        {
          "internalType": "uint64",
          "name": "",
          "type": "uint64"
        }
      ],
      "name": "nodes",
      "outputs": [
        {
          "internalType": "uint16",
          "name": "nodeType",
          "type": "uint16"
        },
        {
          "internalType": "uint64",
          "name": "owner",
          "type": "uint64"
        },
        {
          "internalType": "uint64",
          "name": "parent",
          "type": "uint64"
        },
        {
          "internalType": "uint64",
          "name": "groupNode",
          "type": "uint64"
        }
      ],
      "stateMutability": "view",
      "type": "function"
    },
    {
      "inputs": [
        {
          "internalType": "uint64",
          "name": "id",
          "type": "uint64"
        }
      ],
      "name": "ownerOf",
      "outputs": [
        {
          "internalType": "uint64",
          "name": "",
          "type": "uint64"
        }
      ],
      "stateMutability": "view",
      "type": "function"
    },
    {
      "inputs": [
        {
          "internalType": "uint64",
          "name": "id",
          "type": "uint64"
        }
      ],
      "name": "parentOf",
      "outputs": [
        {
          "internalType": "uint64",
          "name": "",
          "type": "uint64"
        }
      ],
      "stateMutability": "view",
      "type": "function"
    },
    {
      "inputs": [
        {
          "internalType": "uint64",
          "name": "",
          "type": "uint64"
        }
      ],
      "name": "pendingNodeOwnerTransfers",
      "outputs": [
        {
          "internalType": "uint64",
          "name": "",
          "type": "uint64"
        }
      ],
      "stateMutability": "view",
      "type": "function"
    },
    {
      "inputs": [
        {
          "internalType": "uint64",
          "name": "node",
          "type": "uint64"
        },
        {
          "internalType": "address",
          "name": "controller",
          "type": "address"
        },
        {
          "internalType": "bool",
          "name": "isAuthorized",
          "type": "bool"
        }
      ],
      "name": "setController",
      "outputs": [],
      "stateMutability": "nonpayable",
      "type": "function"
    },
    {
      "inputs": [
        {
          "internalType": "uint64",
          "name": "id",
          "type": "uint64"
        },
        {
          "internalType": "uint64",
          "name": "groupNode",
          "type": "uint64"
        }
      ],
      "name": "setNodeGroupNode",
      "outputs": [],
      "stateMutability": "nonpayable",
      "type": "function"
    },
    {
      "inputs": [
        {
          "internalType": "uint64",
          "name": "id",
          "type": "uint64"
        },
        {
          "internalType": "uint64",
          "name": "parent",
          "type": "uint64"
        }
      ],
      "name": "setParentNode",
      "outputs": [],
      "stateMutability": "nonpayable",
      "type": "function"
    },
    {
      "inputs": [
        {
          "internalType": "uint64",
          "name": "id",
          "type": "uint64"
        },
        {
          "internalType": "uint64",
          "name": "newOwner",
          "type": "uint64"
        }
      ],
      "name": "startNodeOwnerTransfer",
      "outputs": [],
      "stateMutability": "nonpayable",
      "type": "function"
    },
    {
      "inputs": [],
      "name": "totalNodeCount",
      "outputs": [
        {
          "internalType": "uint64",
          "name": "",
          "type": "uint64"
        }
      ],
      "stateMutability": "view",
      "type": "function"
    }
  ],
  "bytecode": "0x60a060405234801561001057600080fd5b506040516119c93803806119c983398101604081905261002f91610040565b6001600160a01b0316608052610070565b60006020828403121561005257600080fd5b81516001600160a01b038116811461006957600080fd5b9392505050565b60805161191b6100ae6000396000818161028e0152818161042d015281816106f6015281816109b901528181610efa01526110cb015261191b6000f3fe608060405234801561001057600080fd5b50600436106101215760003560e01c80636bf1e676116100ad578063b5e4c2e811610071578063b5e4c2e814610366578063c999fea314610379578063de0133c31461038c578063deb6465d146103ba578063f5bfd7c6146103cd57600080fd5b80636bf1e676146102c85780637903a617146102fb578063a45337561461032d578063ac35317414610340578063af2d91b81461035357600080fd5b80635477b578116100f45780635477b5781461019a578063563c2738146101ad57806359ca4af3146101d85780636579b6fe1461025657806368cd03f61461028957600080fd5b806305f5ca4e14610126578063237e91751461013b57806325b86f131461014e5780634acbb4be14610177575b600080fd5b610139610134366004611339565b6103f6565b005b6101396101493660046113a5565b61054d565b61016161015c3660046114dc565b6105c4565b60405161016e9190611578565b60405180910390f35b61018a6101853660046115a7565b61067a565b604051901515815260200161016e565b61018a6101a83660046115dc565b61088b565b6101c06101bb366004611615565b61096a565b6040516001600160401b03909116815260200161016e565b6102226101e6366004611339565b60016020526000908152604090205461ffff8116906001600160401b03620100008204811691600160501b8104821691600160901b9091041684565b6040805161ffff90951685526001600160401b0393841660208601529183169184019190915216606082015260800161016e565b6101c0610264366004611339565b6001600160401b03908116600090815260016020526040902054600160501b90041690565b6102b07f000000000000000000000000000000000000000000000000000000000000000081565b6040516001600160a01b03909116815260200161016e565b6101c06102d6366004611339565b6001600160401b03908116600090815260016020526040902054600160901b90041690565b6101c0610309366004611339565b6001600160401b039081166000908152600160205260409020546201000090041690565b61013961033b3660046115dc565b610d27565b61013961034e3660046115dc565b610dda565b6101396103613660046115dc565b610e8d565b610139610374366004611735565b6110a8565b6000546101c0906001600160401b031681565b61018a61039a3660046115a7565b600260209081526000928352604080842090915290825290205460ff1681565b6101396103c83660046113a5565b6111c9565b6101c06103db366004611339565b6004602052600090815260409020546001600160401b031681565b6001600160401b03818116600090815260046020819052604080832054905163641f2bad60e01b81523392810192909252909216917f00000000000000000000000000000000000000000000000000000000000000006001600160a01b03169063641f2bad90602401602060405180830381865afa15801561047c573d6000803e3d6000fd5b505050506040513d601f19601f820116820180604052508101906104a09190611783565b9050806001600160401b0316826001600160401b0316146104d45760405163444a90d360e01b815260040160405180910390fd5b6001600160401b038381166000818152600160209081526040808320805469ffffffffffffffff00001916620100009689169687021790556004909152808220805467ffffffffffffffff19169055517fb16d66fea344456db6f5ffa8f0dc5fa208c98be672df819ff3ca44863a5358ad9190a3505050565b84610558813361067a565b6105755760405163444a90d360e01b815260040160405180910390fd5b856001600160401b03167fbdf912301251108e1ce48c21891c6b55ef5b631e74813780d1e9b17840fa24b2868686866040516105b494939291906117c9565b60405180910390a2505050505050565b60036020908152600092835260409092208151808301840180519281529084019290930191909120915280546105f9906117fb565b80601f0160208091040260200160405190810160405280929190818152602001828054610625906117fb565b80156106725780601f1061064757610100808354040283529160200191610672565b820191906000526020600020905b81548152906001019060200180831161065557829003601f168201915b505050505081565b6001600160401b0382811660009081526001602090815260408083208151608081018352905461ffff81168252620100008104861693820193909352600160501b8304851681830152600160901b9092049093166060820152915163641f2bad60e01b81526001600160a01b03848116600483015291929183917f00000000000000000000000000000000000000000000000000000000000000009091169063641f2bad90602401602060405180830381865afa15801561073f573d6000803e3d6000fd5b505050506040513d601f19601f820116820180604052508101906107639190611783565b9050846001600160401b031660000361077f5760009250610883565b806001600160401b031682602001516001600160401b03161480156107ac57506001600160401b03811615155b156107ba5760019250610883565b60608201516001600160401b0390811660009081526001602052604090205462010000900481169082161480156107f957506001600160401b03811615155b156108075760019250610883565b6001600160401b03851660009081526002602090815260408083206001600160a01b038816845290915290205460ff16156108455760019250610883565b60608201516001600160401b031660009081526002602090815260408083206001600160a01b038816845290915290205460ff161561088357600192505b505092915050565b6001600160401b0380831660009081526001602090815260408083208151608081018352905461ffff81168252620100008104861693820193909352600160501b8304851691810191909152600160901b909104831660608201529091831615806108f95750805161ffff16155b156109075760009150610963565b826001600160401b031681602001516001600160401b03160361092d5760019150610963565b60608101516001600160401b03908116600090815260016020526040902054818516620100009091049091160361096357600191505b5092915050565b60008661ffff1660000361099157604051633498a04f60e11b815260040160405180910390fd5b6001600160401b03861615801590610a42575060405163641f2bad60e01b81523360048201527f00000000000000000000000000000000000000000000000000000000000000006001600160a01b03169063641f2bad90602401602060405180830381865afa158015610a08573d6000803e3d6000fd5b505050506040513d601f19601f82011682018060405250810190610a2c9190611783565b6001600160401b0316866001600160401b031614155b15610a605760405163444a90d360e01b815260040160405180910390fd5b6001600160401b03851615610ad2576001600160401b03851660009081526001602052604081205461ffff169003610aab57604051633498a04f60e11b815260040160405180910390fd5b610ab5853361067a565b610ad25760405163444a90d360e01b815260040160405180910390fd5b6001600160401b03841615610b44576001600160401b03841660009081526001602052604081205461ffff169003610b1d57604051633498a04f60e11b815260040160405180910390fd5b610b27843361067a565b610b445760405163444a90d360e01b815260040160405180910390fd5b600080548190610b5c906001600160401b031661184b565b82546101009290920a6001600160401b0381810219909316828416918202179093556040805160808101825261ffff8c81168083528c861660208085018281528e89168688019081528e8a166060880190815260008c815260019094529288902096518754925191519351961669ffffffffffffffffffff199092169190911762010000918a1691909102176fffffffffffffffffffffffffffffffff60501b1916600160501b9189169190910267ffffffffffffffff60901b191617600160901b939097169290920295909517909155905191945092907f080f6751e6344c8338f449a4a1c915c11064c6a0bce07592b6d771e1c27ed2be90610c65908a908a908990611871565b60405180910390a460005b8351811015610d1c576000848281518110610c8d57610c8d6118a6565b6020908102919091018101516001600160401b03851660008181526002845260408082206001600160a01b03851680845290865291819020805460ff1916600190811790915590519081529294509290917f5fe1326a5161ca47042a7f643842e04356c668a48c8495cb0ffdbc707c17bebf910160405180910390a35080610d14816118bc565b915050610c70565b509695505050505050565b81610d32813361067a565b610d4f5760405163444a90d360e01b815260040160405180910390fd5b81610d5a813361067a565b610d775760405163444a90d360e01b815260040160405180910390fd5b6001600160401b03848116600081815260016020526040808220805467ffffffffffffffff60501b1916600160501b958916958602179055517fefe6261643d8594688953ec1ce3942cbfa085d68b01bd112804fc838e727bc139190a350505050565b81610de5813361067a565b610e025760405163444a90d360e01b815260040160405180910390fd5b81610e0d813361067a565b610e2a5760405163444a90d360e01b815260040160405180910390fd5b6001600160401b03848116600081815260016020526040808220805467ffffffffffffffff60901b1916600160901b958916958602179055517fadf1166ba1a525a18888a2322ec587b5a566aee20f79a712e16f9dc2453349589190a350505050565b6001600160401b0382811660009081526001602090815260408083208151608081018352905461ffff81168252620100008104861693820193909352600160501b8304851681830152600160901b9092049093166060820152915163641f2bad60e01b81523360048201527f00000000000000000000000000000000000000000000000000000000000000006001600160a01b03169063641f2bad90602401602060405180830381865afa158015610f49573d6000803e3d6000fd5b505050506040513d601f19601f82011682018060405250810190610f6d9190611783565b905081602001516001600160401b0316600014158015610fa35750806001600160401b031682602001516001600160401b031614155b15610fc15760405163444a90d360e01b815260040160405180910390fd5b60208201516001600160401b0316158015611019575060608201516001600160401b03161580611019575060608201516001600160401b03908116600090815260016020526040902054620100009004811690821614155b156110375760405163444a90d360e01b815260040160405180910390fd5b826001600160401b0316846001600160401b03167fd5edc069d80f1d422b948ce36edf9eac1fa25836bd5f8db9198429017f86202860405160405180910390a350506001600160401b039182166000908152600460205260409020805467ffffffffffffffff191691909216179055565b60405163641f2bad60e01b81523360048201526111369084906001600160a01b037f0000000000000000000000000000000000000000000000000000000000000000169063641f2bad90602401602060405180830381865afa158015611112573d6000803e3d6000fd5b505050506040513d601f19601f820116820180604052508101906101a89190611783565b6111535760405163444a90d360e01b815260040160405180910390fd5b6001600160401b03831660008181526002602090815260408083206001600160a01b03871680855290835292819020805460ff191686151590811790915590519081529192917f5fe1326a5161ca47042a7f643842e04356c668a48c8495cb0ffdbc707c17bebf910160405180910390a3505050565b846111d4813361067a565b6111f15760405163444a90d360e01b815260040160405180910390fd5b856001600160401b03167fbdf912301251108e1ce48c21891c6b55ef5b631e74813780d1e9b17840fa24b28686868660405161123094939291906117c9565b60405180910390a26001600160401b0386166000908152600360205260409081902090518491849161126590899089906118d5565b90815260405190819003602001902061127f929091611288565b50505050505050565b828054611294906117fb565b90600052602060002090601f0160209004810192826112b657600085556112fc565b82601f106112cf5782800160ff198235161785556112fc565b828001600101855582156112fc579182015b828111156112fc5782358255916020019190600101906112e1565b5061130892915061130c565b5090565b5b80821115611308576000815560010161130d565b6001600160401b038116811461133657600080fd5b50565b60006020828403121561134b57600080fd5b813561135681611321565b9392505050565b60008083601f84011261136f57600080fd5b5081356001600160401b0381111561138657600080fd5b60208301915083602082850101111561139e57600080fd5b9250929050565b6000806000806000606086880312156113bd57600080fd5b85356113c881611321565b945060208601356001600160401b03808211156113e457600080fd5b6113f089838a0161135d565b9096509450604088013591508082111561140957600080fd5b506114168882890161135d565b969995985093965092949392505050565b634e487b7160e01b600052604160045260246000fd5b604051601f8201601f191681016001600160401b038111828210171561146557611465611427565b604052919050565b600082601f83011261147e57600080fd5b81356001600160401b0381111561149757611497611427565b6114aa601f8201601f191660200161143d565b8181528460208386010111156114bf57600080fd5b816020850160208301376000918101602001919091529392505050565b600080604083850312156114ef57600080fd5b82356114fa81611321565b915060208301356001600160401b0381111561151557600080fd5b6115218582860161146d565b9150509250929050565b6000815180845260005b8181101561155157602081850181015186830182015201611535565b81811115611563576000602083870101525b50601f01601f19169290920160200192915050565b602081526000611356602083018461152b565b80356001600160a01b03811681146115a257600080fd5b919050565b600080604083850312156115ba57600080fd5b82356115c581611321565b91506115d36020840161158b565b90509250929050565b600080604083850312156115ef57600080fd5b82356115fa81611321565b9150602083013561160a81611321565b809150509250929050565b60008060008060008060c0878903121561162e57600080fd5b863561ffff8116811461164057600080fd5b955060208781013561165181611321565b9550604088013561166181611321565b9450606088013561167181611321565b935060808801356001600160401b038082111561168d57600080fd5b818a0191508a601f8301126116a157600080fd5b8135818111156116b3576116b3611427565b8060051b6116c285820161143d565b918252838101850191858101908e8411156116dc57600080fd5b948601945b83861015611701576116f28661158b565b825294860194908601906116e1565b975050505060a08a013592508083111561171a57600080fd5b505061172889828a0161146d565b9150509295509295509295565b60008060006060848603121561174a57600080fd5b833561175581611321565b92506117636020850161158b565b91506040840135801515811461177857600080fd5b809150509250925092565b60006020828403121561179557600080fd5b815161135681611321565b81835281816020850137506000828201602090810191909152601f909101601f19169091010190565b6040815260006117dd6040830186886117a0565b82810360208401526117f08185876117a0565b979650505050505050565b600181811c9082168061180f57607f821691505b60208210810361182f57634e487b7160e01b600052602260045260246000fd5b50919050565b634e487b7160e01b600052601160045260246000fd5b60006001600160401b0380831681810361186757611867611835565b6001019392505050565b60006001600160401b0380861683528085166020840152506060604083015261189d606083018461152b565b95945050505050565b634e487b7160e01b600052603260045260246000fd5b6000600182016118ce576118ce611835565b5060010190565b818382376000910190815291905056fea26469706673582212202c6e733caed1ab2848801c38a2f506c5ddd35d43d94c263cf58838dc1c16008c64736f6c634300080d0033",
  "linkReferences": {},
  "deployedLinkReferences": {}
}