{
  "_format": "hh-sol-artifact-1",
  "contractName": "NodeRegistry",
  "sourceName": "contracts/NodeRegistry.sol",
  "abi": [
    {
      "inputs": [
        {
          "internalType": "contract IAccountRegistry",
          "name": "_accounts",
          "type": "address"
        }
      ],
      "stateMutability": "nonpayable",
      "type": "constructor"
    },
    {
      "inputs": [],
      "name": "NotAuthorizedForNode",
      "type": "error"
    },
    {
      "anonymous": false,
      "inputs": [
        {
          "indexed": true,
          "internalType": "uint80",
          "name": "id",
          "type": "uint80"
        },
        {
          "indexed": true,
          "internalType": "address",
          "name": "manager",
          "type": "address"
        },
        {
          "indexed": false,
          "internalType": "bool",
          "name": "isAuthorized",
          "type": "bool"
        }
      ],
      "name": "AuthorizedManagerSet",
      "type": "event"
    },
    {
      "anonymous": false,
      "inputs": [
        {
          "indexed": true,
          "internalType": "uint80",
          "name": "id",
          "type": "uint80"
        },
        {
          "indexed": true,
          "internalType": "uint80",
          "name": "accessNode",
          "type": "uint80"
        }
      ],
      "name": "NodeAccessNodeSet",
      "type": "event"
    },
    {
      "anonymous": false,
      "inputs": [
        {
          "indexed": true,
          "internalType": "uint80",
          "name": "id",
          "type": "uint80"
        },
        {
          "indexed": false,
          "internalType": "string",
          "name": "topic",
          "type": "string"
        },
        {
          "indexed": false,
          "internalType": "string",
          "name": "message",
          "type": "string"
        }
      ],
      "name": "NodeBroadcast",
      "type": "event"
    },
    {
      "anonymous": false,
      "inputs": [
        {
          "indexed": true,
          "internalType": "uint80",
          "name": "id",
          "type": "uint80"
        },
        {
          "indexed": true,
          "internalType": "uint16",
          "name": "nodeType",
          "type": "uint16"
        },
        {
          "indexed": true,
          "internalType": "uint80",
          "name": "owner",
          "type": "uint80"
        },
        {
          "indexed": false,
          "internalType": "uint80",
          "name": "parent",
          "type": "uint80"
        },
        {
          "indexed": false,
          "internalType": "uint80",
          "name": "accessNode",
          "type": "uint80"
        },
        {
          "indexed": false,
          "internalType": "string",
          "name": "metadata",
          "type": "string"
        }
      ],
      "name": "NodeCreated",
      "type": "event"
    },
    {
      "anonymous": false,
      "inputs": [
        {
          "indexed": true,
          "internalType": "uint80",
          "name": "id",
          "type": "uint80"
        },
        {
          "indexed": true,
          "internalType": "uint80",
          "name": "owner",
          "type": "uint80"
        }
      ],
      "name": "NodeOwnerSet",
      "type": "event"
    },
    {
      "inputs": [
        {
          "internalType": "uint80",
          "name": "id",
          "type": "uint80"
        }
      ],
      "name": "accessNodeOf",
      "outputs": [
        {
          "internalType": "uint80",
          "name": "",
          "type": "uint80"
        }
      ],
      "stateMutability": "view",
      "type": "function"
    },
    {
      "inputs": [],
      "name": "accounts",
      "outputs": [
        {
          "internalType": "contract IAccountRegistry",
          "name": "",
          "type": "address"
        }
      ],
      "stateMutability": "view",
      "type": "function"
    },
    {
      "inputs": [
        {
          "internalType": "uint80",
          "name": "",
          "type": "uint80"
        },
        {
          "internalType": "address",
          "name": "",
          "type": "address"
        }
      ],
      "name": "authorizedNodeManagers",
      "outputs": [
        {
          "internalType": "bool",
          "name": "",
          "type": "bool"
        }
      ],
      "stateMutability": "view",
      "type": "function"
    },
    {
      "inputs": [
        {
          "internalType": "uint80",
          "name": "id",
          "type": "uint80"
        },
        {
          "internalType": "string",
          "name": "topic",
          "type": "string"
        },
        {
          "internalType": "string",
          "name": "message",
          "type": "string"
        }
      ],
      "name": "broadcast",
      "outputs": [],
      "stateMutability": "nonpayable",
      "type": "function"
    },
    {
      "inputs": [
        {
          "internalType": "uint16",
          "name": "nodeType",
          "type": "uint16"
        },
        {
          "internalType": "uint80",
          "name": "owner",
          "type": "uint80"
        },
        {
          "internalType": "uint80",
          "name": "parent",
          "type": "uint80"
        },
        {
          "internalType": "uint80",
          "name": "accessNode",
          "type": "uint80"
        },
        {
          "internalType": "string",
          "name": "metadata",
          "type": "string"
        }
      ],
      "name": "createNode",
      "outputs": [
        {
          "internalType": "uint80",
          "name": "id",
          "type": "uint80"
        }
      ],
      "stateMutability": "nonpayable",
      "type": "function"
    },
    {
      "inputs": [
        {
          "internalType": "uint80",
          "name": "node",
          "type": "uint80"
        },
        {
          "internalType": "uint80",
          "name": "account",
          "type": "uint80"
        }
      ],
      "name": "isAuthorizedAccountForNode",
      "outputs": [
        {
          "internalType": "bool",
          "name": "isAuthorized",
          "type": "bool"
        }
      ],
      "stateMutability": "view",
      "type": "function"
    },
    {
      "inputs": [
        {
          "internalType": "uint80",
          "name": "node",
          "type": "uint80"
        },
        {
          "internalType": "address",
          "name": "subject",
          "type": "address"
        }
      ],
      "name": "isAuthorizedAddressForNode",
      "outputs": [
        {
          "internalType": "bool",
          "name": "isAuthorized",
          "type": "bool"
        }
      ],
      "stateMutability": "view",
      "type": "function"
    },
    {
      "inputs": [
        {
          "internalType": "uint80",
          "name": "",
          "type": "uint80"
        }
      ],
      "name": "nodes",
      "outputs": [
        {
          "internalType": "uint16",
          "name": "nodeType",
          "type": "uint16"
        },
        {
          "internalType": "uint80",
          "name": "owner",
          "type": "uint80"
        },
        {
          "internalType": "uint80",
          "name": "parent",
          "type": "uint80"
        },
        {
          "internalType": "uint80",
          "name": "accessNode",
          "type": "uint80"
        }
      ],
      "stateMutability": "view",
      "type": "function"
    },
    {
      "inputs": [
        {
          "internalType": "uint80",
          "name": "id",
          "type": "uint80"
        }
      ],
      "name": "ownerOf",
      "outputs": [
        {
          "internalType": "uint80",
          "name": "",
          "type": "uint80"
        }
      ],
      "stateMutability": "view",
      "type": "function"
    },
    {
      "inputs": [
        {
          "internalType": "uint80",
          "name": "node",
          "type": "uint80"
        },
        {
          "internalType": "address",
          "name": "manager",
          "type": "address"
        },
        {
          "internalType": "bool",
          "name": "isAuthorized",
          "type": "bool"
        }
      ],
      "name": "setAuthorizedNodeManager",
      "outputs": [],
      "stateMutability": "nonpayable",
      "type": "function"
    },
    {
      "inputs": [
        {
          "internalType": "uint80",
          "name": "id",
          "type": "uint80"
        },
        {
          "internalType": "uint80",
          "name": "accessNode",
          "type": "uint80"
        }
      ],
      "name": "setNodeAccessNode",
      "outputs": [],
      "stateMutability": "nonpayable",
      "type": "function"
    },
    {
      "inputs": [
        {
          "internalType": "uint80",
          "name": "id",
          "type": "uint80"
        },
        {
          "internalType": "uint80",
          "name": "owner",
          "type": "uint80"
        }
      ],
      "name": "setNodeOwner",
      "outputs": [],
      "stateMutability": "nonpayable",
      "type": "function"
    },
    {
      "inputs": [],
      "name": "totalNodeCount",
      "outputs": [
        {
          "internalType": "uint80",
          "name": "",
          "type": "uint80"
        }
      ],
      "stateMutability": "view",
      "type": "function"
    }
  ],
  "bytecode": "0x60a060405234801561001057600080fd5b5060405161109138038061109183398101604081905261002f91610040565b6001600160a01b0316608052610070565b60006020828403121561005257600080fd5b81516001600160a01b038116811461006957600080fd5b9392505050565b608051610fea6100a7600039600081816101ae0152818161030d01528181610487015281816108160152610a940152610fea6000f3fe608060405234801561001057600080fd5b50600436106100ce5760003560e01c8063a6601ff81161008c578063cb951d7911610066578063cb951d791461025f578063de84826714610272578063e007fd95146102a4578063e1fb9142146102d757600080fd5b8063a6601ff81461020e578063aa633af314610221578063c999fea31461023457600080fd5b80629b6f07146100d357806321bff1d214610156578063508b56fc1461019457806368cd03f6146101a95780637c35c5a0146101e85780638421a9a5146101fb575b600080fd5b61011d6100e1366004610bb5565b60016020526000908152604090205461ffff8116906001600160501b03620100008204811691600160601b8104821691600160b01b9091041684565b6040805161ffff90951685526001600160501b039384166020860152918316918401919091521660608201526080015b60405180910390f35b610184610164366004610bf5565b600260209081526000928352604080842090915290825290205460ff1681565b604051901515815260200161014d565b6101a76101a2366004610c2a565b6102ea565b005b6101d07f000000000000000000000000000000000000000000000000000000000000000081565b6040516001600160a01b03909116815260200161014d565b6101846101f6366004610bf5565b61040b565b6101a7610209366004610c78565b6105fb565b61018461021c366004610c78565b61067e565b6101a761022f366004610cfa565b61075d565b600054610247906001600160501b031681565b6040516001600160501b03909116815260200161014d565b61024761026d366004610d93565b6107d2565b610247610280366004610bb5565b6001600160501b039081166000908152600160205260409020546201000090041690565b6102476102b2366004610bb5565b6001600160501b03908116600090815260016020526040902054600160b01b90041690565b6101a76102e5366004610c78565b610a56565b60405163641f2bad60e01b81523360048201526103789084906001600160a01b037f0000000000000000000000000000000000000000000000000000000000000000169063641f2bad90602401602060405180830381865afa158015610354573d6000803e3d6000fd5b505050506040513d601f19601f8201168201806040525081019061021c9190610e96565b6103955760405163444a90d360e01b815260040160405180910390fd5b6001600160501b03831660008181526002602090815260408083206001600160a01b03871680855290835292819020805460ff191686151590811790915590519081529192917fc3234338f4e02da702bf5a92c53c36435839058fb70285aadd18fe94fc4eca55910160405180910390a3505050565b6001600160501b0382811660009081526001602090815260408083208151608081018352905461ffff81168252620100008104861693820193909352600160601b8304851681830152600160b01b9092049093166060820152915163641f2bad60e01b81526001600160a01b03848116600483015291929183917f00000000000000000000000000000000000000000000000000000000000000009091169063641f2bad90602401602060405180830381865afa1580156104d0573d6000803e3d6000fd5b505050506040513d601f19601f820116820180604052508101906104f49190610e96565b9050806001600160501b031682602001516001600160501b031614801561052357506001600160501b03811615155b1561053157600192506105f3565b60608201516001600160501b03908116600090815260016020526040902054620100009004811690821614801561057057506001600160501b03811615155b1561057e57600192506105f3565b60608201516001600160501b031660009081526002602090815260408083206001600160a01b038816845290915290205460ff16156105c057600192506105f3565b6001600160501b03851660009081526002602090815260408083206001600160a01b038816845290915290205460ff1692505b505092915050565b610605823361040b565b6106225760405163444a90d360e01b815260040160405180910390fd5b6001600160501b0382811660008181526001602052604080822080546001600160b01b0316600160b01b958716958602179055517fc7dd1415b115bc2fdd7645c57704f8dd7fe85ec390fcddb9e12faa7af89cdf299190a35050565b6001600160501b0380831660009081526001602090815260408083208151608081018352905461ffff81168252620100008104861693820193909352600160601b8304851691810191909152600160b01b909104831660608201529091831615806106ec5750805161ffff16155b156106fa5760009150610756565b826001600160501b031681602001516001600160501b0316036107205760019150610756565b60608101516001600160501b03908116600090815260016020526040902054818516620100009091049091160361075657600191505b5092915050565b610767853361040b565b6107845760405163444a90d360e01b815260040160405180910390fd5b846001600160501b03167f17c8085537ddf643f170a0d51b3d5128c448780d4397c324ba6ed6ca030dcee0858585856040516107c39493929190610edc565b60405180910390a25050505050565b6000836001600160501b03166000036108b8576001600160501b0385161580610895575060405163641f2bad60e01b81523360048201526001600160501b038616907f00000000000000000000000000000000000000000000000000000000000000006001600160a01b03169063641f2bad90602401602060405180830381865afa158015610865573d6000803e3d6000fd5b505050506040513d601f19601f820116820180604052508101906108899190610e96565b6001600160501b031614155b156108b35760405163444a90d360e01b815260040160405180910390fd5b6108df565b6108c2843361040b565b6108df5760405163444a90d360e01b815260040160405180910390fd5b6001600160501b0383161580159061091157506001600160501b03831660009081526001602052604090205461ffff16155b1561092f5760405163444a90d360e01b815260040160405180910390fd5b600080548190610947906001600160501b0316610f0e565b82546101009290920a6001600160501b0381810219909316828416918202179093556040805160808101825261ffff8b81168083528b861660208085018281528d89168688019081528d8a166060880190815260008c81526001909452928890209651875492519151935196166bffffffffffffffffffffffff199092169190911762010000918a1691909102176bffffffffffffffffffffffff16600160601b918916919091026001600160b01b031617600160b01b939097169290920295909517909155905191945092907fbe9f2345d2514120ab73ed7863ac1c6bbc3a40f777cdd49dfa93b86f5f7d727490610a4590899089908990610f42565b60405180910390a495945050505050565b6001600160501b0380831660009081526001602052604090205462010000900416801580610b1d575060405163641f2bad60e01b81523360048201527f00000000000000000000000000000000000000000000000000000000000000006001600160a01b03169063641f2bad90602401602060405180830381865afa158015610ae3573d6000803e3d6000fd5b505050506040513d601f19601f82011682018060405250810190610b079190610e96565b6001600160501b0316816001600160501b031614155b15610b3b5760405163444a90d360e01b815260040160405180910390fd5b6001600160501b0383811660008181526001602052604080822080546bffffffffffffffffffff0000191662010000958816958602179055517fb973b7999195a015e4ef905f3144ad6759453b712b25d42c325b2cd8347939019190a3505050565b6001600160501b0381168114610bb257600080fd5b50565b600060208284031215610bc757600080fd5b8135610bd281610b9d565b9392505050565b80356001600160a01b0381168114610bf057600080fd5b919050565b60008060408385031215610c0857600080fd5b8235610c1381610b9d565b9150610c2160208401610bd9565b90509250929050565b600080600060608486031215610c3f57600080fd5b8335610c4a81610b9d565b9250610c5860208501610bd9565b915060408401358015158114610c6d57600080fd5b809150509250925092565b60008060408385031215610c8b57600080fd5b8235610c9681610b9d565b91506020830135610ca681610b9d565b809150509250929050565b60008083601f840112610cc357600080fd5b50813567ffffffffffffffff811115610cdb57600080fd5b602083019150836020828501011115610cf357600080fd5b9250929050565b600080600080600060608688031215610d1257600080fd5b8535610d1d81610b9d565b9450602086013567ffffffffffffffff80821115610d3a57600080fd5b610d4689838a01610cb1565b90965094506040880135915080821115610d5f57600080fd5b50610d6c88828901610cb1565b969995985093965092949392505050565b634e487b7160e01b600052604160045260246000fd5b600080600080600060a08688031215610dab57600080fd5b853561ffff81168114610dbd57600080fd5b94506020860135610dcd81610b9d565b93506040860135610ddd81610b9d565b92506060860135610ded81610b9d565b9150608086013567ffffffffffffffff80821115610e0a57600080fd5b818801915088601f830112610e1e57600080fd5b813581811115610e3057610e30610d7d565b604051601f8201601f19908116603f01168101908382118183101715610e5857610e58610d7d565b816040528281528b6020848701011115610e7157600080fd5b8260208601602083013760006020848301015280955050505050509295509295909350565b600060208284031215610ea857600080fd5b8151610bd281610b9d565b81835281816020850137506000828201602090810191909152601f909101601f19169091010190565b604081526000610ef0604083018688610eb3565b8281036020840152610f03818587610eb3565b979650505050505050565b60006001600160501b03808316818103610f3857634e487b7160e01b600052601160045260246000fd5b6001019392505050565b60006001600160501b038086168352602081861681850152606060408501528451915081606085015260005b82811015610f8a57858101820151858201608001528101610f6e565b82811115610f9c576000608084870101525b5050601f01601f19169190910160800194935050505056fea264697066735822122087d84903c914ee180fd9298c01881529e6b59d1f975d9bad819782715efd86de64736f6c634300080d0033",
  "linkReferences": {},
  "deployedLinkReferences": {}
}