{
  "_format": "hh-sol-artifact-1",
  "contractName": "NodeRegistry",
  "sourceName": "contracts/NodeRegistry.sol",
  "abi": [
    {
      "inputs": [
        {
          "internalType": "contract AccountRegistry",
          "name": "_accounts",
          "type": "address"
        }
      ],
      "stateMutability": "nonpayable",
      "type": "constructor"
    },
    {
      "inputs": [],
      "name": "InvalidNodeCreate",
      "type": "error"
    },
    {
      "inputs": [],
      "name": "NotAuthorizedForNode",
      "type": "error"
    },
    {
      "anonymous": false,
      "inputs": [
        {
          "indexed": true,
          "internalType": "uint64",
          "name": "id",
          "type": "uint64"
        },
        {
          "indexed": false,
          "internalType": "string",
          "name": "topic",
          "type": "string"
        },
        {
          "indexed": false,
          "internalType": "string",
          "name": "message",
          "type": "string"
        }
      ],
      "name": "NodeBroadcast",
      "type": "event"
    },
    {
      "anonymous": false,
      "inputs": [
        {
          "indexed": true,
          "internalType": "uint64",
          "name": "id",
          "type": "uint64"
        },
        {
          "indexed": true,
          "internalType": "address",
          "name": "controller",
          "type": "address"
        },
        {
          "indexed": false,
          "internalType": "bool",
          "name": "isAuthorized",
          "type": "bool"
        }
      ],
      "name": "NodeControllerSet",
      "type": "event"
    },
    {
      "anonymous": false,
      "inputs": [
        {
          "indexed": true,
          "internalType": "uint64",
          "name": "id",
          "type": "uint64"
        },
        {
          "indexed": true,
          "internalType": "enum NodeType",
          "name": "nodeType",
          "type": "uint8"
        },
        {
          "indexed": true,
          "internalType": "uint64",
          "name": "owner",
          "type": "uint64"
        },
        {
          "indexed": false,
          "internalType": "uint64",
          "name": "parent",
          "type": "uint64"
        },
        {
          "indexed": false,
          "internalType": "uint64",
          "name": "groupNode",
          "type": "uint64"
        },
        {
          "indexed": false,
          "internalType": "string",
          "name": "metadata",
          "type": "string"
        }
      ],
      "name": "NodeCreated",
      "type": "event"
    },
    {
      "anonymous": false,
      "inputs": [
        {
          "indexed": true,
          "internalType": "uint64",
          "name": "id",
          "type": "uint64"
        },
        {
          "indexed": true,
          "internalType": "uint64",
          "name": "groupNode",
          "type": "uint64"
        }
      ],
      "name": "NodeGroupNodeSet",
      "type": "event"
    },
    {
      "anonymous": false,
      "inputs": [
        {
          "indexed": true,
          "internalType": "uint64",
          "name": "id",
          "type": "uint64"
        },
        {
          "indexed": true,
          "internalType": "uint64",
          "name": "owner",
          "type": "uint64"
        }
      ],
      "name": "NodeOwnerSet",
      "type": "event"
    },
    {
      "anonymous": false,
      "inputs": [
        {
          "indexed": true,
          "internalType": "uint64",
          "name": "id",
          "type": "uint64"
        },
        {
          "indexed": true,
          "internalType": "uint64",
          "name": "pendingOwner",
          "type": "uint64"
        }
      ],
      "name": "NodeOwnerTransferPending",
      "type": "event"
    },
    {
      "anonymous": false,
      "inputs": [
        {
          "indexed": true,
          "internalType": "uint64",
          "name": "id",
          "type": "uint64"
        },
        {
          "indexed": true,
          "internalType": "uint64",
          "name": "parent",
          "type": "uint64"
        }
      ],
      "name": "NodeParentSet",
      "type": "event"
    },
    {
      "inputs": [],
      "name": "accounts",
      "outputs": [
        {
          "internalType": "contract AccountRegistry",
          "name": "",
          "type": "address"
        }
      ],
      "stateMutability": "view",
      "type": "function"
    },
    {
      "inputs": [
        {
          "internalType": "uint64",
          "name": "id",
          "type": "uint64"
        },
        {
          "internalType": "string",
          "name": "topic",
          "type": "string"
        },
        {
          "internalType": "string",
          "name": "message",
          "type": "string"
        }
      ],
      "name": "broadcast",
      "outputs": [],
      "stateMutability": "nonpayable",
      "type": "function"
    },
    {
      "inputs": [
        {
          "internalType": "uint64",
          "name": "id",
          "type": "uint64"
        }
      ],
      "name": "completeNodeOwnerTransfer",
      "outputs": [],
      "stateMutability": "nonpayable",
      "type": "function"
    },
    {
      "inputs": [
        {
          "internalType": "uint64",
          "name": "",
          "type": "uint64"
        },
        {
          "internalType": "address",
          "name": "",
          "type": "address"
        }
      ],
      "name": "controllers",
      "outputs": [
        {
          "internalType": "bool",
          "name": "",
          "type": "bool"
        }
      ],
      "stateMutability": "view",
      "type": "function"
    },
    {
      "inputs": [
        {
          "internalType": "enum NodeType",
          "name": "nodeType",
          "type": "uint8"
        },
        {
          "internalType": "uint64",
          "name": "owner",
          "type": "uint64"
        },
        {
          "internalType": "uint64",
          "name": "parent",
          "type": "uint64"
        },
        {
          "internalType": "uint64",
          "name": "groupNode",
          "type": "uint64"
        },
        {
          "internalType": "address[]",
          "name": "initialControllers",
          "type": "address[]"
        },
        {
          "internalType": "string",
          "name": "metadata",
          "type": "string"
        }
      ],
      "name": "createNode",
      "outputs": [
        {
          "internalType": "uint64",
          "name": "id",
          "type": "uint64"
        }
      ],
      "stateMutability": "nonpayable",
      "type": "function"
    },
    {
      "inputs": [
        {
          "internalType": "uint64",
          "name": "id",
          "type": "uint64"
        }
      ],
      "name": "groupNodeOf",
      "outputs": [
        {
          "internalType": "uint64",
          "name": "",
          "type": "uint64"
        }
      ],
      "stateMutability": "view",
      "type": "function"
    },
    {
      "inputs": [
        {
          "internalType": "uint64",
          "name": "node",
          "type": "uint64"
        },
        {
          "internalType": "uint64",
          "name": "account",
          "type": "uint64"
        }
      ],
      "name": "isAuthorizedAccountForNode",
      "outputs": [
        {
          "internalType": "bool",
          "name": "isAuthorized",
          "type": "bool"
        }
      ],
      "stateMutability": "view",
      "type": "function"
    },
    {
      "inputs": [
        {
          "internalType": "uint64",
          "name": "node",
          "type": "uint64"
        },
        {
          "internalType": "address",
          "name": "subject",
          "type": "address"
        }
      ],
      "name": "isAuthorizedAddressForNode",
      "outputs": [
        {
          "internalType": "bool",
          "name": "isAuthorized",
          "type": "bool"
        }
      ],
      "stateMutability": "view",
      "type": "function"
    },
    {
      "inputs": [
        {
          "internalType": "uint64",
          "name": "",
          "type": "uint64"
        }
      ],
      "name": "nodes",
      "outputs": [
        {
          "internalType": "enum NodeType",
          "name": "nodeType",
          "type": "uint8"
        },
        {
          "internalType": "uint64",
          "name": "owner",
          "type": "uint64"
        },
        {
          "internalType": "uint64",
          "name": "parent",
          "type": "uint64"
        },
        {
          "internalType": "uint64",
          "name": "groupNode",
          "type": "uint64"
        }
      ],
      "stateMutability": "view",
      "type": "function"
    },
    {
      "inputs": [
        {
          "internalType": "uint64",
          "name": "id",
          "type": "uint64"
        }
      ],
      "name": "ownerOf",
      "outputs": [
        {
          "internalType": "uint64",
          "name": "",
          "type": "uint64"
        }
      ],
      "stateMutability": "view",
      "type": "function"
    },
    {
      "inputs": [
        {
          "internalType": "uint64",
          "name": "id",
          "type": "uint64"
        }
      ],
      "name": "parentOf",
      "outputs": [
        {
          "internalType": "uint64",
          "name": "",
          "type": "uint64"
        }
      ],
      "stateMutability": "view",
      "type": "function"
    },
    {
      "inputs": [
        {
          "internalType": "uint64",
          "name": "",
          "type": "uint64"
        }
      ],
      "name": "pendingNodeOwnerTransfers",
      "outputs": [
        {
          "internalType": "uint64",
          "name": "",
          "type": "uint64"
        }
      ],
      "stateMutability": "view",
      "type": "function"
    },
    {
      "inputs": [
        {
          "internalType": "uint64",
          "name": "id",
          "type": "uint64"
        }
      ],
      "name": "removeNodeOwner",
      "outputs": [],
      "stateMutability": "nonpayable",
      "type": "function"
    },
    {
      "inputs": [
        {
          "internalType": "uint64",
          "name": "node",
          "type": "uint64"
        },
        {
          "internalType": "address",
          "name": "controller",
          "type": "address"
        },
        {
          "internalType": "bool",
          "name": "isAuthorized",
          "type": "bool"
        }
      ],
      "name": "setController",
      "outputs": [],
      "stateMutability": "nonpayable",
      "type": "function"
    },
    {
      "inputs": [
        {
          "internalType": "uint64",
          "name": "id",
          "type": "uint64"
        },
        {
          "internalType": "uint64",
          "name": "groupNode",
          "type": "uint64"
        }
      ],
      "name": "setNodeGroupNode",
      "outputs": [],
      "stateMutability": "nonpayable",
      "type": "function"
    },
    {
      "inputs": [
        {
          "internalType": "uint64",
          "name": "id",
          "type": "uint64"
        },
        {
          "internalType": "uint64",
          "name": "parent",
          "type": "uint64"
        }
      ],
      "name": "setParentNode",
      "outputs": [],
      "stateMutability": "nonpayable",
      "type": "function"
    },
    {
      "inputs": [
        {
          "internalType": "uint64",
          "name": "id",
          "type": "uint64"
        },
        {
          "internalType": "uint64",
          "name": "newOwner",
          "type": "uint64"
        }
      ],
      "name": "startNodeOwnerTransfer",
      "outputs": [],
      "stateMutability": "nonpayable",
      "type": "function"
    },
    {
      "inputs": [],
      "name": "totalNodeCount",
      "outputs": [
        {
          "internalType": "uint64",
          "name": "",
          "type": "uint64"
        }
      ],
      "stateMutability": "view",
      "type": "function"
    }
  ],
  "bytecode": "0x60a060405234801561001057600080fd5b50604051611a7f380380611a7f83398101604081905261002f91610040565b6001600160a01b0316608052610070565b60006020828403121561005257600080fd5b81516001600160a01b038116811461006957600080fd5b9392505050565b6080516119ca6100b560003960008181610259015281816103f20152818161056b01528181610ae101528181610fb60152818161117e015261132401526119ca6000f3fe608060405234801561001057600080fd5b50600436106101365760003560e01c80637903a617116100b2578063b5e4c2e811610081578063c999fea311610066578063c999fea314610356578063de0133c314610369578063f5bfd7c61461039757600080fd5b8063b5e4c2e814610330578063b7306f141461034357600080fd5b80637903a617146102c6578063a4533756146102f7578063ac3531741461030a578063af2d91b81461031d57600080fd5b80635477b578116101095780636579b6fe116100ee5780636579b6fe1461022157806368cd03f6146102545780636bf1e6761461029357600080fd5b80635477b578146101b657806359ca4af3146101c957600080fd5b806305f5ca4e1461013b5780630fe2757714610150578063237e9175146101805780634acbb4be14610193575b600080fd5b61014e61014936600461144f565b6103c0565b005b61016361015e366004611544565b610510565b6040516001600160401b0390911681526020015b60405180910390f35b61014e61018e3660046116a9565b6109a3565b6101a66101a136600461172b565b610a1a565b6040519015158152602001610177565b6101a66101c4366004611760565b610c73565b6102116101d736600461144f565b60016020526000908152604090205460ff8116906001600160401b036101008204811691600160481b8104821691600160881b9091041684565b60405161017794939291906117af565b61016361022f36600461144f565b6001600160401b03908116600090815260016020526040902054600160481b90041690565b61027b7f000000000000000000000000000000000000000000000000000000000000000081565b6040516001600160a01b039091168152602001610177565b6101636102a136600461144f565b6001600160401b03908116600090815260016020526040902054600160881b90041690565b6101636102d436600461144f565b6001600160401b0390811660009081526001602052604090205461010090041690565b61014e610305366004611760565b610d8e565b61014e610318366004611760565b610e47565b61014e61032b366004611760565b610f0e565b61014e61033e3660046117f8565b61115b565b61014e61035136600461144f565b61127c565b600054610163906001600160401b031681565b6101a661037736600461172b565b600260209081526000928352604080842090915290825290205460ff1681565b6101636103a536600461144f565b6003602052600090815260409020546001600160401b031681565b6001600160401b0381811660009081526003602052604080822054905163641f2bad60e01b81523360048201529216917f00000000000000000000000000000000000000000000000000000000000000006001600160a01b03169063641f2bad90602401602060405180830381865afa158015610441573d6000803e3d6000fd5b505050506040513d601f19601f820116820180604052508101906104659190611846565b9050806001600160401b0316826001600160401b0316146104995760405163444a90d360e01b815260040160405180910390fd5b6001600160401b038381166000818152600160209081526040808320805468ffffffffffffffff0019166101009689169687021790556003909152808220805467ffffffffffffffff19169055517fb16d66fea344456db6f5ffa8f0dc5fa208c98be672df819ff3ca44863a5358ad9190a3505050565b60008087600281111561052557610525611799565b0361054357604051633498a04f60e11b815260040160405180910390fd5b6001600160401b038616158015906105f4575060405163641f2bad60e01b81523360048201527f00000000000000000000000000000000000000000000000000000000000000006001600160a01b03169063641f2bad90602401602060405180830381865afa1580156105ba573d6000803e3d6000fd5b505050506040513d601f19601f820116820180604052508101906105de9190611846565b6001600160401b0316866001600160401b031614155b156106125760405163444a90d360e01b815260040160405180910390fd5b6001600160401b03851615610693576001600160401b03851660009081526001602052604081205460ff16600281111561064e5761064e611799565b0361066c57604051633498a04f60e11b815260040160405180910390fd5b6106768533610a1a565b6106935760405163444a90d360e01b815260040160405180910390fd5b6001600160401b03841615610714576001600160401b03841660009081526001602052604081205460ff1660028111156106cf576106cf611799565b036106ed57604051633498a04f60e11b815260040160405180910390fd5b6106f78433610a1a565b6107145760405163444a90d360e01b815260040160405180910390fd5b60008054819061072c906001600160401b0316611879565b91906101000a8154816001600160401b0302191690836001600160401b0316021790559050604051806080016040528088600281111561076e5761076e611799565b8152602001876001600160401b03168152602001866001600160401b03168152602001856001600160401b031681525060016000836001600160401b03166001600160401b0316815260200190815260200160002060008201518160000160006101000a81548160ff021916908360028111156107ed576107ed611799565b02179055506020820151815460408401516060909401517fffffffffffffffffffffffffffffff00000000000000000000000000000000ff9091166101006001600160401b039384160270ffffffffffffffff000000000000000000191617600160481b94831694909402939093177fffffffffffffff0000000000000000ffffffffffffffffffffffffffffffffff16600160881b9382169390930292909217905586168760028111156108a4576108a4611799565b826001600160401b03167fa9fa87f158c16d47abbd8c5e1e09a1215dfce4a2bcaa1e0e1538ff7478880b788888876040516108e19392919061189f565b60405180910390a460005b83518110156109985760008482815181106109095761090961190a565b6020908102919091018101516001600160401b03851660008181526002845260408082206001600160a01b03851680845290865291819020805460ff1916600190811790915590519081529294509290917f5fe1326a5161ca47042a7f643842e04356c668a48c8495cb0ffdbc707c17bebf910160405180910390a3508061099081611920565b9150506108ec565b509695505050505050565b846109ae8133610a1a565b6109cb5760405163444a90d360e01b815260040160405180910390fd5b856001600160401b03167fbdf912301251108e1ce48c21891c6b55ef5b631e74813780d1e9b17840fa24b286868686604051610a0a9493929190611962565b60405180910390a2505050505050565b6001600160401b038216600090815260016020526040808220815160808101909252805483929190829060ff166002811115610a5857610a58611799565b6002811115610a6957610a69611799565b815290546001600160401b03610100820481166020840152600160481b82048116604080850191909152600160881b90920416606090920191909152517fc9d571070000000000000000000000000000000000000000000000000000000081526001600160a01b0385811660048301529192506000917f0000000000000000000000000000000000000000000000000000000000000000169063c9d5710790602401602060405180830381865afa158015610b28573d6000803e3d6000fd5b505050506040513d601f19601f82011682018060405250810190610b4c9190611846565b9050846001600160401b0316600003610b685760009250610c6b565b806001600160401b031682602001516001600160401b0316148015610b9557506001600160401b03811615155b15610ba35760019250610c6b565b60608201516001600160401b0390811660009081526001602052604090205461010090048116908216148015610be157506001600160401b03811615155b15610bef5760019250610c6b565b6001600160401b03851660009081526002602090815260408083206001600160a01b038816845290915290205460ff1615610c2d5760019250610c6b565b60608201516001600160401b031660009081526002602090815260408083206001600160a01b038816845290915290205460ff1615610c6b57600192505b505092915050565b6001600160401b038216600090815260016020526040808220815160808101909252805483929190829060ff166002811115610cb157610cb1611799565b6002811115610cc257610cc2611799565b815290546001600160401b03610100820481166020840152600160481b820481166040840152600160881b909104811660609092019190915290915083161580610d1e5750600081516002811115610d1c57610d1c611799565b145b15610d2c5760009150610d87565b826001600160401b031681602001516001600160401b031603610d525760019150610d87565b60608101516001600160401b0390811660009081526001602052604090205481851661010090910490911603610d8757600191505b5092915050565b81610d998133610a1a565b610db65760405163444a90d360e01b815260040160405180910390fd5b81610dc18133610a1a565b610dde5760405163444a90d360e01b815260040160405180910390fd5b6001600160401b03848116600081815260016020526040808220805470ffffffffffffffff0000000000000000001916600160481b958916958602179055517fefe6261643d8594688953ec1ce3942cbfa085d68b01bd112804fc838e727bc139190a350505050565b81610e528133610a1a565b610e6f5760405163444a90d360e01b815260040160405180910390fd5b81610e7a8133610a1a565b610e975760405163444a90d360e01b815260040160405180910390fd5b6001600160401b0384811660008181526001602052604080822080547fffffffffffffff0000000000000000ffffffffffffffffffffffffffffffffff16600160881b958916958602179055517fadf1166ba1a525a18888a2322ec587b5a566aee20f79a712e16f9dc2453349589190a350505050565b6001600160401b0382166000908152600160205260408082208151608081019092528054829060ff166002811115610f4857610f48611799565b6002811115610f5957610f59611799565b815290546001600160401b03610100820481166020840152600160481b82048116604080850191909152600160881b909204166060909201919091525163641f2bad60e01b81523360048201529091506000906001600160a01b037f0000000000000000000000000000000000000000000000000000000000000000169063641f2bad90602401602060405180830381865afa158015610ffd573d6000803e3d6000fd5b505050506040513d601f19601f820116820180604052508101906110219190611846565b905081602001516001600160401b03166000141580156110575750806001600160401b031682602001516001600160401b031614155b156110755760405163444a90d360e01b815260040160405180910390fd5b60208201516001600160401b03161580156110cc575060608201516001600160401b031615806110cc575060608201516001600160401b039081166000908152600160205260409020546101009004811690821614155b156110ea5760405163444a90d360e01b815260040160405180910390fd5b826001600160401b0316846001600160401b03167fd5edc069d80f1d422b948ce36edf9eac1fa25836bd5f8db9198429017f86202860405160405180910390a350506001600160401b039182166000908152600360205260409020805467ffffffffffffffff191691909216179055565b60405163641f2bad60e01b81523360048201526111e99084906001600160a01b037f0000000000000000000000000000000000000000000000000000000000000000169063641f2bad90602401602060405180830381865afa1580156111c5573d6000803e3d6000fd5b505050506040513d601f19601f820116820180604052508101906101c49190611846565b6112065760405163444a90d360e01b815260040160405180910390fd5b6001600160401b03831660008181526002602090815260408083206001600160a01b03871680855290835292819020805460ff191686151590811790915590519081529192917f5fe1326a5161ca47042a7f643842e04356c668a48c8495cb0ffdbc707c17bebf910160405180910390a3505050565b6001600160401b0381166000908152600160205260408082208151608081019092528054829060ff1660028111156112b6576112b6611799565b60028111156112c7576112c7611799565b815290546001600160401b03610100820481166020840152600160481b82048116604080850191909152600160881b909204166060909201919091525163641f2bad60e01b81523360048201529091506000906001600160a01b037f0000000000000000000000000000000000000000000000000000000000000000169063641f2bad90602401602060405180830381865afa15801561136b573d6000803e3d6000fd5b505050506040513d601f19601f8201168201806040525081019061138f9190611846565b9050806001600160401b031682602001516001600160401b0316146113c75760405163444a90d360e01b815260040160405180910390fd5b6001600160401b0383166000818152600160209081526040808320805468ffffffffffffffff00191690556003909152808220805467ffffffffffffffff19169055519091907fb16d66fea344456db6f5ffa8f0dc5fa208c98be672df819ff3ca44863a5358ad908390a3505050565b6001600160401b038116811461144c57600080fd5b50565b60006020828403121561146157600080fd5b813561146c81611437565b9392505050565b634e487b7160e01b600052604160045260246000fd5b604051601f8201601f191681016001600160401b03811182821017156114b1576114b1611473565b604052919050565b80356001600160a01b03811681146114d057600080fd5b919050565b600082601f8301126114e657600080fd5b81356001600160401b038111156114ff576114ff611473565b611512601f8201601f1916602001611489565b81815284602083860101111561152757600080fd5b816020850160208301376000918101602001919091529392505050565b60008060008060008060c0878903121561155d57600080fd5b86356003811061156c57600080fd5b955060208781013561157d81611437565b9550604088013561158d81611437565b9450606088013561159d81611437565b935060808801356001600160401b03808211156115b957600080fd5b818a0191508a601f8301126115cd57600080fd5b8135818111156115df576115df611473565b8060051b6115ee858201611489565b918252838101850191858101908e84111561160857600080fd5b948601945b8386101561162d5761161e866114b9565b8252948601949086019061160d565b975050505060a08a013592508083111561164657600080fd5b505061165489828a016114d5565b9150509295509295509295565b60008083601f84011261167357600080fd5b5081356001600160401b0381111561168a57600080fd5b6020830191508360208285010111156116a257600080fd5b9250929050565b6000806000806000606086880312156116c157600080fd5b85356116cc81611437565b945060208601356001600160401b03808211156116e857600080fd5b6116f489838a01611661565b9096509450604088013591508082111561170d57600080fd5b5061171a88828901611661565b969995985093965092949392505050565b6000806040838503121561173e57600080fd5b823561174981611437565b9150611757602084016114b9565b90509250929050565b6000806040838503121561177357600080fd5b823561177e81611437565b9150602083013561178e81611437565b809150509250929050565b634e487b7160e01b600052602160045260246000fd5b60808101600386106117d157634e487b7160e01b600052602160045260246000fd5b9481526001600160401b039384166020820152918316604083015290911660609091015290565b60008060006060848603121561180d57600080fd5b833561181881611437565b9250611826602085016114b9565b91506040840135801515811461183b57600080fd5b809150509250925092565b60006020828403121561185857600080fd5b815161146c81611437565b634e487b7160e01b600052601160045260246000fd5b60006001600160401b0380831681810361189557611895611863565b6001019392505050565b60006001600160401b038086168352602081861681850152606060408501528451915081606085015260005b828110156118e7578581018201518582016080015281016118cb565b50506000608082850101526080601f19601f830116840101915050949350505050565b634e487b7160e01b600052603260045260246000fd5b60006001820161193257611932611863565b5060010190565b81835281816020850137506000828201602090810191909152601f909101601f19169091010190565b604081526000611976604083018688611939565b8281036020840152611989818587611939565b97965050505050505056fea2646970667358221220aa42842b8eaa420b5f7b5f116bf3d96bb4766159d0606831589328fd450eb43964736f6c63430008110033",
  "linkReferences": {},
  "deployedLinkReferences": {}
}