{
  "_format": "hh-sol-artifact-1",
  "contractName": "NodeRegistry",
  "sourceName": "contracts/NodeRegistry.sol",
  "abi": [
    {
      "inputs": [
        {
          "internalType": "contract AccountRegistry",
          "name": "_accounts",
          "type": "address"
        }
      ],
      "stateMutability": "nonpayable",
      "type": "constructor"
    },
    {
      "inputs": [],
      "name": "NotAuthorizedForNode",
      "type": "error"
    },
    {
      "anonymous": false,
      "inputs": [
        {
          "indexed": true,
          "internalType": "uint64",
          "name": "id",
          "type": "uint64"
        },
        {
          "indexed": false,
          "internalType": "string",
          "name": "topic",
          "type": "string"
        },
        {
          "indexed": false,
          "internalType": "string",
          "name": "message",
          "type": "string"
        }
      ],
      "name": "NodeBroadcast",
      "type": "event"
    },
    {
      "anonymous": false,
      "inputs": [
        {
          "indexed": true,
          "internalType": "uint64",
          "name": "id",
          "type": "uint64"
        },
        {
          "indexed": true,
          "internalType": "address",
          "name": "controller",
          "type": "address"
        },
        {
          "indexed": false,
          "internalType": "bool",
          "name": "isAuthorized",
          "type": "bool"
        }
      ],
      "name": "NodeControllerSet",
      "type": "event"
    },
    {
      "anonymous": false,
      "inputs": [
        {
          "indexed": true,
          "internalType": "uint64",
          "name": "id",
          "type": "uint64"
        },
        {
          "indexed": true,
          "internalType": "uint16",
          "name": "nodeType",
          "type": "uint16"
        },
        {
          "indexed": true,
          "internalType": "uint64",
          "name": "owner",
          "type": "uint64"
        },
        {
          "indexed": false,
          "internalType": "uint64",
          "name": "parent",
          "type": "uint64"
        },
        {
          "indexed": false,
          "internalType": "uint64",
          "name": "groupNode",
          "type": "uint64"
        },
        {
          "indexed": false,
          "internalType": "string",
          "name": "metadata",
          "type": "string"
        }
      ],
      "name": "NodeCreated",
      "type": "event"
    },
    {
      "anonymous": false,
      "inputs": [
        {
          "indexed": true,
          "internalType": "uint64",
          "name": "id",
          "type": "uint64"
        },
        {
          "indexed": true,
          "internalType": "uint64",
          "name": "groupNode",
          "type": "uint64"
        }
      ],
      "name": "NodeGroupNodeSet",
      "type": "event"
    },
    {
      "anonymous": false,
      "inputs": [
        {
          "indexed": true,
          "internalType": "uint64",
          "name": "id",
          "type": "uint64"
        },
        {
          "indexed": true,
          "internalType": "uint64",
          "name": "owner",
          "type": "uint64"
        }
      ],
      "name": "NodeOwnerSet",
      "type": "event"
    },
    {
      "inputs": [],
      "name": "accounts",
      "outputs": [
        {
          "internalType": "contract AccountRegistry",
          "name": "",
          "type": "address"
        }
      ],
      "stateMutability": "view",
      "type": "function"
    },
    {
      "inputs": [
        {
          "internalType": "uint64",
          "name": "id",
          "type": "uint64"
        },
        {
          "internalType": "string",
          "name": "topic",
          "type": "string"
        },
        {
          "internalType": "string",
          "name": "message",
          "type": "string"
        }
      ],
      "name": "broadcast",
      "outputs": [],
      "stateMutability": "nonpayable",
      "type": "function"
    },
    {
      "inputs": [
        {
          "internalType": "uint64",
          "name": "",
          "type": "uint64"
        },
        {
          "internalType": "address",
          "name": "",
          "type": "address"
        }
      ],
      "name": "controllers",
      "outputs": [
        {
          "internalType": "bool",
          "name": "",
          "type": "bool"
        }
      ],
      "stateMutability": "view",
      "type": "function"
    },
    {
      "inputs": [
        {
          "internalType": "uint16",
          "name": "nodeType",
          "type": "uint16"
        },
        {
          "internalType": "uint64",
          "name": "owner",
          "type": "uint64"
        },
        {
          "internalType": "uint64",
          "name": "parent",
          "type": "uint64"
        },
        {
          "internalType": "uint64",
          "name": "groupNode",
          "type": "uint64"
        },
        {
          "internalType": "string",
          "name": "metadata",
          "type": "string"
        }
      ],
      "name": "createNode",
      "outputs": [
        {
          "internalType": "uint64",
          "name": "id",
          "type": "uint64"
        }
      ],
      "stateMutability": "nonpayable",
      "type": "function"
    },
    {
      "inputs": [
        {
          "internalType": "uint64",
          "name": "id",
          "type": "uint64"
        }
      ],
      "name": "groupNodeOf",
      "outputs": [
        {
          "internalType": "uint64",
          "name": "",
          "type": "uint64"
        }
      ],
      "stateMutability": "view",
      "type": "function"
    },
    {
      "inputs": [
        {
          "internalType": "uint64",
          "name": "node",
          "type": "uint64"
        },
        {
          "internalType": "uint64",
          "name": "account",
          "type": "uint64"
        }
      ],
      "name": "isAuthorizedAccountForNode",
      "outputs": [
        {
          "internalType": "bool",
          "name": "isAuthorized",
          "type": "bool"
        }
      ],
      "stateMutability": "view",
      "type": "function"
    },
    {
      "inputs": [
        {
          "internalType": "uint64",
          "name": "node",
          "type": "uint64"
        },
        {
          "internalType": "address",
          "name": "subject",
          "type": "address"
        }
      ],
      "name": "isAuthorizedAddressForNode",
      "outputs": [
        {
          "internalType": "bool",
          "name": "isAuthorized",
          "type": "bool"
        }
      ],
      "stateMutability": "view",
      "type": "function"
    },
    {
      "inputs": [
        {
          "internalType": "uint64",
          "name": "",
          "type": "uint64"
        }
      ],
      "name": "nodes",
      "outputs": [
        {
          "internalType": "uint16",
          "name": "nodeType",
          "type": "uint16"
        },
        {
          "internalType": "uint64",
          "name": "owner",
          "type": "uint64"
        },
        {
          "internalType": "uint64",
          "name": "parent",
          "type": "uint64"
        },
        {
          "internalType": "uint64",
          "name": "groupNode",
          "type": "uint64"
        }
      ],
      "stateMutability": "view",
      "type": "function"
    },
    {
      "inputs": [
        {
          "internalType": "uint64",
          "name": "id",
          "type": "uint64"
        }
      ],
      "name": "ownerOf",
      "outputs": [
        {
          "internalType": "uint64",
          "name": "",
          "type": "uint64"
        }
      ],
      "stateMutability": "view",
      "type": "function"
    },
    {
      "inputs": [
        {
          "internalType": "uint64",
          "name": "node",
          "type": "uint64"
        },
        {
          "internalType": "address",
          "name": "controller",
          "type": "address"
        },
        {
          "internalType": "bool",
          "name": "isAuthorized",
          "type": "bool"
        }
      ],
      "name": "setController",
      "outputs": [],
      "stateMutability": "nonpayable",
      "type": "function"
    },
    {
      "inputs": [
        {
          "internalType": "uint64",
          "name": "id",
          "type": "uint64"
        },
        {
          "internalType": "uint64",
          "name": "groupNode",
          "type": "uint64"
        }
      ],
      "name": "setNodeGroupNode",
      "outputs": [],
      "stateMutability": "nonpayable",
      "type": "function"
    },
    {
      "inputs": [
        {
          "internalType": "uint64",
          "name": "id",
          "type": "uint64"
        },
        {
          "internalType": "uint64",
          "name": "newOwner",
          "type": "uint64"
        }
      ],
      "name": "setNodeOwner",
      "outputs": [],
      "stateMutability": "nonpayable",
      "type": "function"
    },
    {
      "inputs": [],
      "name": "totalNodeCount",
      "outputs": [
        {
          "internalType": "uint64",
          "name": "",
          "type": "uint64"
        }
      ],
      "stateMutability": "view",
      "type": "function"
    }
  ],
  "bytecode": "0x60a060405234801561001057600080fd5b5060405161116a38038061116a83398101604081905261002f91610040565b6001600160a01b0316608052610070565b60006020828403121561005257600080fd5b81516001600160a01b038116811461006957600080fd5b9392505050565b6080516110c36100a7600039600081816101ba015281816103cd015281816105e7015281816108ec0152610a2e01526110c36000f3fe608060405234801561001057600080fd5b50600436106100cf5760003560e01c80636bf1e6761161008c578063b5e4c2e811610066578063b5e4c2e814610284578063c999fea314610297578063cd6bc6b8146102aa578063de0133c3146102bd57600080fd5b80636bf1e676146101f45780637903a6171461023f578063ac3531741461027157600080fd5b8063237e9175146100d45780633b9a460a146100e95780634acbb4be146100fc5780635477b5781461012457806359ca4af31461013757806368cd03f6146101b5575b600080fd5b6100e76100e2366004610cd9565b6102eb565b005b6100e76100f7366004610d5b565b610360565b61010f61010a366004610db0565b61056b565b60405190151581526020015b60405180910390f35b61010f610132366004610d5b565b610762565b610181610145366004610de5565b60016020526000908152604090205461ffff8116906001600160401b03620100008204811691600160501b8104821691600160901b9091041684565b6040805161ffff90951685526001600160401b0393841660208601529183169184019190915216606082015260800161011b565b6101dc7f000000000000000000000000000000000000000000000000000000000000000081565b6040516001600160a01b03909116815260200161011b565b610227610202366004610de5565b6001600160401b03908116600090815260016020526040902054600160901b90041690565b6040516001600160401b03909116815260200161011b565b61022761024d366004610de5565b6001600160401b039081166000908152600160205260409020546201000090041690565b6100e761027f366004610d5b565b610841565b6100e7610292366004610e09565b6108c9565b600054610227906001600160401b031681565b6102276102b8366004610e6d565b6109ea565b61010f6102cb366004610db0565b600260209081526000928352604080842090915290825290205460ff1681565b6102f5853361056b565b6103125760405163444a90d360e01b815260040160405180910390fd5b846001600160401b03167fbdf912301251108e1ce48c21891c6b55ef5b631e74813780d1e9b17840fa24b2858585856040516103519493929190610f98565b60405180910390a25050505050565b6001600160401b0382811660009081526001602090815260408083208151608081018352905461ffff81168252620100008104861693820193909352600160501b8304851681830152600160901b9092049093166060820152915163641f2bad60e01b81523360048201527f00000000000000000000000000000000000000000000000000000000000000006001600160a01b03169063641f2bad90602401602060405180830381865afa15801561041c573d6000803e3d6000fd5b505050506040513d601f19601f820116820180604052508101906104409190610fca565b905081602001516001600160401b03166000141580156104765750806001600160401b031682602001516001600160401b031614155b156104945760405163444a90d360e01b815260040160405180910390fd5b60208201516001600160401b03161580156104ec575060608201516001600160401b031615806104ec575060608201516001600160401b03908116600090815260016020526040902054620100009004811690821614155b1561050a5760405163444a90d360e01b815260040160405180910390fd5b6001600160401b03848116600081815260016020526040808220805469ffffffffffffffff0000191662010000958916958602179055517fb16d66fea344456db6f5ffa8f0dc5fa208c98be672df819ff3ca44863a5358ad9190a350505050565b6001600160401b0382811660009081526001602090815260408083208151608081018352905461ffff81168252620100008104861693820193909352600160501b8304851681830152600160901b9092049093166060820152915163641f2bad60e01b81526001600160a01b03848116600483015291929183917f00000000000000000000000000000000000000000000000000000000000000009091169063641f2bad90602401602060405180830381865afa158015610630573d6000803e3d6000fd5b505050506040513d601f19601f820116820180604052508101906106549190610fca565b9050806001600160401b031682602001516001600160401b031614801561068357506001600160401b03811615155b15610691576001925061075a565b60608201516001600160401b0390811660009081526001602052604090205462010000900481169082161480156106d057506001600160401b03811615155b156106de576001925061075a565b6001600160401b03851660009081526002602090815260408083206001600160a01b038816845290915290205460ff161561071c576001925061075a565b60608201516001600160401b031660009081526002602090815260408083206001600160a01b038816845290915290205460ff161561075a57600192505b505092915050565b6001600160401b0380831660009081526001602090815260408083208151608081018352905461ffff81168252620100008104861693820193909352600160501b8304851691810191909152600160901b909104831660608201529091831615806107d05750805161ffff16155b156107de576000915061083a565b826001600160401b031681602001516001600160401b031603610804576001915061083a565b60608101516001600160401b03908116600090815260016020526040902054818516620100009091049091160361083a57600191505b5092915050565b61084b823361056b565b6108685760405163444a90d360e01b815260040160405180910390fd5b6001600160401b03828116600081815260016020526040808220805467ffffffffffffffff60901b1916600160901b958716958602179055517fadf1166ba1a525a18888a2322ec587b5a566aee20f79a712e16f9dc2453349589190a35050565b60405163641f2bad60e01b81523360048201526109579084906001600160a01b037f0000000000000000000000000000000000000000000000000000000000000000169063641f2bad90602401602060405180830381865afa158015610933573d6000803e3d6000fd5b505050506040513d601f19601f820116820180604052508101906101329190610fca565b6109745760405163444a90d360e01b815260040160405180910390fd5b6001600160401b03831660008181526002602090815260408083206001600160a01b03871680855290835292819020805460ff191686151590811790915590519081529192917f5fe1326a5161ca47042a7f643842e04356c668a48c8495cb0ffdbc707c17bebf910160405180910390a3505050565b6000836001600160401b0316600003610ad0576001600160401b0385161580610aad575060405163641f2bad60e01b81523360048201526001600160401b038616907f00000000000000000000000000000000000000000000000000000000000000006001600160a01b03169063641f2bad90602401602060405180830381865afa158015610a7d573d6000803e3d6000fd5b505050506040513d601f19601f82011682018060405250810190610aa19190610fca565b6001600160401b031614155b15610acb5760405163444a90d360e01b815260040160405180910390fd5b610af7565b610ada843361056b565b610af75760405163444a90d360e01b815260040160405180910390fd5b6001600160401b03831615801590610b2957506001600160401b03831660009081526001602052604090205461ffff16155b15610b475760405163444a90d360e01b815260040160405180910390fd5b600080548190610b5f906001600160401b0316610fe7565b82546101009290920a6001600160401b0381810219909316828416918202179093556040805160808101825261ffff8b81168083528b861660208085018281528d89168688019081528d8a166060880190815260008c815260019094529288902096518754925191519351961669ffffffffffffffffffff199092169190911762010000918a1691909102176fffffffffffffffffffffffffffffffff60501b1916600160501b9189169190910267ffffffffffffffff60901b191617600160901b939097169290920295909517909155905191945092907f080f6751e6344c8338f449a4a1c915c11064c6a0bce07592b6d771e1c27ed2be90610c689089908990899061101b565b60405180910390a495945050505050565b6001600160401b0381168114610c8e57600080fd5b50565b60008083601f840112610ca357600080fd5b5081356001600160401b03811115610cba57600080fd5b602083019150836020828501011115610cd257600080fd5b9250929050565b600080600080600060608688031215610cf157600080fd5b8535610cfc81610c79565b945060208601356001600160401b0380821115610d1857600080fd5b610d2489838a01610c91565b90965094506040880135915080821115610d3d57600080fd5b50610d4a88828901610c91565b969995985093965092949392505050565b60008060408385031215610d6e57600080fd5b8235610d7981610c79565b91506020830135610d8981610c79565b809150509250929050565b80356001600160a01b0381168114610dab57600080fd5b919050565b60008060408385031215610dc357600080fd5b8235610dce81610c79565b9150610ddc60208401610d94565b90509250929050565b600060208284031215610df757600080fd5b8135610e0281610c79565b9392505050565b600080600060608486031215610e1e57600080fd5b8335610e2981610c79565b9250610e3760208501610d94565b915060408401358015158114610e4c57600080fd5b809150509250925092565b634e487b7160e01b600052604160045260246000fd5b600080600080600060a08688031215610e8557600080fd5b853561ffff81168114610e9757600080fd5b94506020860135610ea781610c79565b93506040860135610eb781610c79565b92506060860135610ec781610c79565b915060808601356001600160401b0380821115610ee357600080fd5b818801915088601f830112610ef757600080fd5b813581811115610f0957610f09610e57565b604051601f8201601f19908116603f01168101908382118183101715610f3157610f31610e57565b816040528281528b6020848701011115610f4a57600080fd5b8260208601602083013760006020848301015280955050505050509295509295909350565b81835281816020850137506000828201602090810191909152601f909101601f19169091010190565b604081526000610fac604083018688610f6f565b8281036020840152610fbf818587610f6f565b979650505050505050565b600060208284031215610fdc57600080fd5b8151610e0281610c79565b60006001600160401b0380831681810361101157634e487b7160e01b600052601160045260246000fd5b6001019392505050565b60006001600160401b038086168352602081861681850152606060408501528451915081606085015260005b8281101561106357858101820151858201608001528101611047565b82811115611075576000608084870101525b5050601f01601f19169190910160800194935050505056fea264697066735822122055460975bb90dc4322a49a3a7dd9fd786486f68738e7d31833a7136e7aec1dab64736f6c634300080d0033",
  "linkReferences": {},
  "deployedLinkReferences": {}
}