{
  "_format": "hh-sol-artifact-1",
  "contractName": "NodeRegistry",
  "sourceName": "contracts/NodeRegistry.sol",
  "abi": [
    {
      "inputs": [
        {
          "internalType": "contract AccountRegistry",
          "name": "_accounts",
          "type": "address"
        }
      ],
      "stateMutability": "nonpayable",
      "type": "constructor"
    },
    {
      "inputs": [],
      "name": "InvalidNodeCreate",
      "type": "error"
    },
    {
      "inputs": [],
      "name": "NotAuthorizedForNode",
      "type": "error"
    },
    {
      "anonymous": false,
      "inputs": [
        {
          "indexed": true,
          "internalType": "uint64",
          "name": "id",
          "type": "uint64"
        },
        {
          "indexed": false,
          "internalType": "string",
          "name": "topic",
          "type": "string"
        },
        {
          "indexed": false,
          "internalType": "string",
          "name": "message",
          "type": "string"
        }
      ],
      "name": "NodeBroadcast",
      "type": "event"
    },
    {
      "anonymous": false,
      "inputs": [
        {
          "indexed": true,
          "internalType": "uint64",
          "name": "id",
          "type": "uint64"
        },
        {
          "indexed": true,
          "internalType": "address",
          "name": "controller",
          "type": "address"
        },
        {
          "indexed": false,
          "internalType": "bool",
          "name": "isAuthorized",
          "type": "bool"
        }
      ],
      "name": "NodeControllerSet",
      "type": "event"
    },
    {
      "anonymous": false,
      "inputs": [
        {
          "indexed": true,
          "internalType": "uint64",
          "name": "id",
          "type": "uint64"
        },
        {
          "indexed": true,
          "internalType": "enum NodeType",
          "name": "nodeType",
          "type": "uint8"
        },
        {
          "indexed": true,
          "internalType": "uint64",
          "name": "owner",
          "type": "uint64"
        },
        {
          "indexed": false,
          "internalType": "uint64",
          "name": "parent",
          "type": "uint64"
        },
        {
          "indexed": false,
          "internalType": "uint64",
          "name": "groupNode",
          "type": "uint64"
        },
        {
          "indexed": false,
          "internalType": "string",
          "name": "metadata",
          "type": "string"
        }
      ],
      "name": "NodeCreated",
      "type": "event"
    },
    {
      "anonymous": false,
      "inputs": [
        {
          "indexed": true,
          "internalType": "uint64",
          "name": "id",
          "type": "uint64"
        },
        {
          "indexed": true,
          "internalType": "uint64",
          "name": "groupNode",
          "type": "uint64"
        }
      ],
      "name": "NodeGroupNodeSet",
      "type": "event"
    },
    {
      "anonymous": false,
      "inputs": [
        {
          "indexed": true,
          "internalType": "uint64",
          "name": "id",
          "type": "uint64"
        },
        {
          "indexed": true,
          "internalType": "uint64",
          "name": "owner",
          "type": "uint64"
        }
      ],
      "name": "NodeOwnerSet",
      "type": "event"
    },
    {
      "anonymous": false,
      "inputs": [
        {
          "indexed": true,
          "internalType": "uint64",
          "name": "id",
          "type": "uint64"
        },
        {
          "indexed": true,
          "internalType": "uint64",
          "name": "pendingOwner",
          "type": "uint64"
        }
      ],
      "name": "NodeOwnerTransferPending",
      "type": "event"
    },
    {
      "anonymous": false,
      "inputs": [
        {
          "indexed": true,
          "internalType": "uint64",
          "name": "id",
          "type": "uint64"
        },
        {
          "indexed": true,
          "internalType": "uint64",
          "name": "parent",
          "type": "uint64"
        }
      ],
      "name": "NodeParentSet",
      "type": "event"
    },
    {
      "inputs": [],
      "name": "accounts",
      "outputs": [
        {
          "internalType": "contract AccountRegistry",
          "name": "",
          "type": "address"
        }
      ],
      "stateMutability": "view",
      "type": "function"
    },
    {
      "inputs": [
        {
          "internalType": "uint64",
          "name": "id",
          "type": "uint64"
        },
        {
          "internalType": "string",
          "name": "topic",
          "type": "string"
        },
        {
          "internalType": "string",
          "name": "message",
          "type": "string"
        }
      ],
      "name": "broadcast",
      "outputs": [],
      "stateMutability": "nonpayable",
      "type": "function"
    },
    {
      "inputs": [
        {
          "internalType": "uint64",
          "name": "id",
          "type": "uint64"
        },
        {
          "internalType": "string",
          "name": "topic",
          "type": "string"
        },
        {
          "internalType": "string",
          "name": "message",
          "type": "string"
        }
      ],
      "name": "broadcastAndStore",
      "outputs": [],
      "stateMutability": "nonpayable",
      "type": "function"
    },
    {
      "inputs": [
        {
          "internalType": "uint64",
          "name": "id",
          "type": "uint64"
        }
      ],
      "name": "completeNodeOwnerTransfer",
      "outputs": [],
      "stateMutability": "nonpayable",
      "type": "function"
    },
    {
      "inputs": [
        {
          "internalType": "uint64",
          "name": "",
          "type": "uint64"
        },
        {
          "internalType": "address",
          "name": "",
          "type": "address"
        }
      ],
      "name": "controllers",
      "outputs": [
        {
          "internalType": "bool",
          "name": "",
          "type": "bool"
        }
      ],
      "stateMutability": "view",
      "type": "function"
    },
    {
      "inputs": [
        {
          "internalType": "enum NodeType",
          "name": "nodeType",
          "type": "uint8"
        },
        {
          "internalType": "uint64",
          "name": "owner",
          "type": "uint64"
        },
        {
          "internalType": "uint64",
          "name": "parent",
          "type": "uint64"
        },
        {
          "internalType": "uint64",
          "name": "groupNode",
          "type": "uint64"
        },
        {
          "internalType": "address[]",
          "name": "initialControllers",
          "type": "address[]"
        },
        {
          "internalType": "string",
          "name": "metadata",
          "type": "string"
        }
      ],
      "name": "createNode",
      "outputs": [
        {
          "internalType": "uint64",
          "name": "id",
          "type": "uint64"
        }
      ],
      "stateMutability": "nonpayable",
      "type": "function"
    },
    {
      "inputs": [
        {
          "internalType": "uint64",
          "name": "id",
          "type": "uint64"
        }
      ],
      "name": "groupNodeOf",
      "outputs": [
        {
          "internalType": "uint64",
          "name": "",
          "type": "uint64"
        }
      ],
      "stateMutability": "view",
      "type": "function"
    },
    {
      "inputs": [
        {
          "internalType": "uint64",
          "name": "node",
          "type": "uint64"
        },
        {
          "internalType": "uint64",
          "name": "account",
          "type": "uint64"
        }
      ],
      "name": "isAuthorizedAccountForNode",
      "outputs": [
        {
          "internalType": "bool",
          "name": "isAuthorized",
          "type": "bool"
        }
      ],
      "stateMutability": "view",
      "type": "function"
    },
    {
      "inputs": [
        {
          "internalType": "uint64",
          "name": "node",
          "type": "uint64"
        },
        {
          "internalType": "address",
          "name": "subject",
          "type": "address"
        }
      ],
      "name": "isAuthorizedAddressForNode",
      "outputs": [
        {
          "internalType": "bool",
          "name": "isAuthorized",
          "type": "bool"
        }
      ],
      "stateMutability": "view",
      "type": "function"
    },
    {
      "inputs": [
        {
          "internalType": "uint64",
          "name": "",
          "type": "uint64"
        },
        {
          "internalType": "string",
          "name": "",
          "type": "string"
        }
      ],
      "name": "messageStorage",
      "outputs": [
        {
          "internalType": "string",
          "name": "",
          "type": "string"
        }
      ],
      "stateMutability": "view",
      "type": "function"
    },
    {
      "inputs": [
        {
          "internalType": "uint64",
          "name": "",
          "type": "uint64"
        }
      ],
      "name": "nodes",
      "outputs": [
        {
          "internalType": "enum NodeType",
          "name": "nodeType",
          "type": "uint8"
        },
        {
          "internalType": "uint64",
          "name": "owner",
          "type": "uint64"
        },
        {
          "internalType": "uint64",
          "name": "parent",
          "type": "uint64"
        },
        {
          "internalType": "uint64",
          "name": "groupNode",
          "type": "uint64"
        }
      ],
      "stateMutability": "view",
      "type": "function"
    },
    {
      "inputs": [
        {
          "internalType": "uint64",
          "name": "id",
          "type": "uint64"
        }
      ],
      "name": "ownerOf",
      "outputs": [
        {
          "internalType": "uint64",
          "name": "",
          "type": "uint64"
        }
      ],
      "stateMutability": "view",
      "type": "function"
    },
    {
      "inputs": [
        {
          "internalType": "uint64",
          "name": "id",
          "type": "uint64"
        }
      ],
      "name": "parentOf",
      "outputs": [
        {
          "internalType": "uint64",
          "name": "",
          "type": "uint64"
        }
      ],
      "stateMutability": "view",
      "type": "function"
    },
    {
      "inputs": [
        {
          "internalType": "uint64",
          "name": "",
          "type": "uint64"
        }
      ],
      "name": "pendingNodeOwnerTransfers",
      "outputs": [
        {
          "internalType": "uint64",
          "name": "",
          "type": "uint64"
        }
      ],
      "stateMutability": "view",
      "type": "function"
    },
    {
      "inputs": [
        {
          "internalType": "uint64",
          "name": "id",
          "type": "uint64"
        }
      ],
      "name": "removeNodeOwner",
      "outputs": [],
      "stateMutability": "nonpayable",
      "type": "function"
    },
    {
      "inputs": [
        {
          "internalType": "uint64",
          "name": "node",
          "type": "uint64"
        },
        {
          "internalType": "address",
          "name": "controller",
          "type": "address"
        },
        {
          "internalType": "bool",
          "name": "isAuthorized",
          "type": "bool"
        }
      ],
      "name": "setController",
      "outputs": [],
      "stateMutability": "nonpayable",
      "type": "function"
    },
    {
      "inputs": [
        {
          "internalType": "uint64",
          "name": "id",
          "type": "uint64"
        },
        {
          "internalType": "uint64",
          "name": "groupNode",
          "type": "uint64"
        }
      ],
      "name": "setNodeGroupNode",
      "outputs": [],
      "stateMutability": "nonpayable",
      "type": "function"
    },
    {
      "inputs": [
        {
          "internalType": "uint64",
          "name": "id",
          "type": "uint64"
        },
        {
          "internalType": "uint64",
          "name": "parent",
          "type": "uint64"
        }
      ],
      "name": "setParentNode",
      "outputs": [],
      "stateMutability": "nonpayable",
      "type": "function"
    },
    {
      "inputs": [
        {
          "internalType": "uint64",
          "name": "id",
          "type": "uint64"
        },
        {
          "internalType": "uint64",
          "name": "newOwner",
          "type": "uint64"
        }
      ],
      "name": "startNodeOwnerTransfer",
      "outputs": [],
      "stateMutability": "nonpayable",
      "type": "function"
    },
    {
      "inputs": [],
      "name": "totalNodeCount",
      "outputs": [
        {
          "internalType": "uint64",
          "name": "",
          "type": "uint64"
        }
      ],
      "stateMutability": "view",
      "type": "function"
    }
  ],
  "bytecode": "0x60a060405234801561001057600080fd5b50604051611e2e380380611e2e83398101604081905261002f91610040565b6001600160a01b0316608052610070565b60006020828403121561005257600080fd5b81516001600160a01b038116811461006957600080fd5b9392505050565b608051611d796100b5600039600081816102af01528181610460015281816105d901528181610c05015281816110da015281816112a201526114480152611d796000f3fe608060405234801561001057600080fd5b506004361061016c5760003560e01c80637903a617116100cd578063b7306f1411610081578063de0133c311610066578063de0133c3146103bf578063deb6465d146103ed578063f5bfd7c61461040057600080fd5b8063b7306f1414610399578063c999fea3146103ac57600080fd5b8063ac353174116100b2578063ac35317414610360578063af2d91b814610373578063b5e4c2e81461038657600080fd5b80637903a6171461031c578063a45337561461034d57600080fd5b80635477b578116101245780636579b6fe116101095780636579b6fe1461027757806368cd03f6146102aa5780636bf1e676146102e957600080fd5b80635477b5781461020c57806359ca4af31461021f57600080fd5b8063237e917511610155578063237e9175146101b657806325b86f13146101c95780634acbb4be146101e957600080fd5b806305f5ca4e146101715780630fe2757714610186575b600080fd5b61018461017f366004611633565b610429565b005b610199610194366004611728565b61057e565b6040516001600160401b0390911681526020015b60405180910390f35b6101846101c436600461188d565b610a11565b6101dc6101d736600461190f565b610a88565b6040516101ad91906119a4565b6101fc6101f73660046119b7565b610b3e565b60405190151581526020016101ad565b6101fc61021a3660046119ec565b610d97565b61026761022d366004611633565b60016020526000908152604090205460ff8116906001600160401b036101008204811691600160481b8104821691600160881b9091041684565b6040516101ad9493929190611a3b565b610199610285366004611633565b6001600160401b03908116600090815260016020526040902054600160481b90041690565b6102d17f000000000000000000000000000000000000000000000000000000000000000081565b6040516001600160a01b0390911681526020016101ad565b6101996102f7366004611633565b6001600160401b03908116600090815260016020526040902054600160881b90041690565b61019961032a366004611633565b6001600160401b0390811660009081526001602052604090205461010090041690565b61018461035b3660046119ec565b610eb2565b61018461036e3660046119ec565b610f6b565b6101846103813660046119ec565b611032565b610184610394366004611a84565b61127f565b6101846103a7366004611633565b6113a0565b600054610199906001600160401b031681565b6101fc6103cd3660046119b7565b600260209081526000928352604080842090915290825290205460ff1681565b6101846103fb36600461188d565b61155b565b61019961040e366004611633565b6004602052600090815260409020546001600160401b031681565b6001600160401b03818116600090815260046020819052604080832054905163641f2bad60e01b81523392810192909252909216917f00000000000000000000000000000000000000000000000000000000000000006001600160a01b03169063641f2bad90602401602060405180830381865afa1580156104af573d6000803e3d6000fd5b505050506040513d601f19601f820116820180604052508101906104d39190611ad2565b9050806001600160401b0316826001600160401b0316146105075760405163444a90d360e01b815260040160405180910390fd5b6001600160401b038381166000818152600160209081526040808320805468ffffffffffffffff0019166101009689169687021790556004909152808220805467ffffffffffffffff19169055517fb16d66fea344456db6f5ffa8f0dc5fa208c98be672df819ff3ca44863a5358ad9190a3505050565b60008087600281111561059357610593611a25565b036105b157604051633498a04f60e11b815260040160405180910390fd5b6001600160401b03861615801590610662575060405163641f2bad60e01b81523360048201527f00000000000000000000000000000000000000000000000000000000000000006001600160a01b03169063641f2bad90602401602060405180830381865afa158015610628573d6000803e3d6000fd5b505050506040513d601f19601f8201168201806040525081019061064c9190611ad2565b6001600160401b0316866001600160401b031614155b156106805760405163444a90d360e01b815260040160405180910390fd5b6001600160401b03851615610701576001600160401b03851660009081526001602052604081205460ff1660028111156106bc576106bc611a25565b036106da57604051633498a04f60e11b815260040160405180910390fd5b6106e48533610b3e565b6107015760405163444a90d360e01b815260040160405180910390fd5b6001600160401b03841615610782576001600160401b03841660009081526001602052604081205460ff16600281111561073d5761073d611a25565b0361075b57604051633498a04f60e11b815260040160405180910390fd5b6107658433610b3e565b6107825760405163444a90d360e01b815260040160405180910390fd5b60008054819061079a906001600160401b0316611b05565b91906101000a8154816001600160401b0302191690836001600160401b031602179055905060405180608001604052808860028111156107dc576107dc611a25565b8152602001876001600160401b03168152602001866001600160401b03168152602001856001600160401b031681525060016000836001600160401b03166001600160401b0316815260200190815260200160002060008201518160000160006101000a81548160ff0219169083600281111561085b5761085b611a25565b02179055506020820151815460408401516060909401517fffffffffffffffffffffffffffffff00000000000000000000000000000000ff9091166101006001600160401b039384160270ffffffffffffffff000000000000000000191617600160481b94831694909402939093177fffffffffffffff0000000000000000ffffffffffffffffffffffffffffffffff16600160881b93821693909302929092179055861687600281111561091257610912611a25565b826001600160401b03167fa9fa87f158c16d47abbd8c5e1e09a1215dfce4a2bcaa1e0e1538ff7478880b7888888760405161094f93929190611b2b565b60405180910390a460005b8351811015610a0657600084828151811061097757610977611b60565b6020908102919091018101516001600160401b03851660008181526002845260408082206001600160a01b03851680845290865291819020805460ff1916600190811790915590519081529294509290917f5fe1326a5161ca47042a7f643842e04356c668a48c8495cb0ffdbc707c17bebf910160405180910390a350806109fe81611b76565b91505061095a565b509695505050505050565b84610a1c8133610b3e565b610a395760405163444a90d360e01b815260040160405180910390fd5b856001600160401b03167fbdf912301251108e1ce48c21891c6b55ef5b631e74813780d1e9b17840fa24b286868686604051610a789493929190611bb8565b60405180910390a2505050505050565b6003602090815260009283526040909220815180830184018051928152908401929093019190912091528054610abd90611bea565b80601f0160208091040260200160405190810160405280929190818152602001828054610ae990611bea565b8015610b365780601f10610b0b57610100808354040283529160200191610b36565b820191906000526020600020905b815481529060010190602001808311610b1957829003601f168201915b505050505081565b6001600160401b038216600090815260016020526040808220815160808101909252805483929190829060ff166002811115610b7c57610b7c611a25565b6002811115610b8d57610b8d611a25565b815290546001600160401b03610100820481166020840152600160481b82048116604080850191909152600160881b90920416606090920191909152517fc9d571070000000000000000000000000000000000000000000000000000000081526001600160a01b0385811660048301529192506000917f0000000000000000000000000000000000000000000000000000000000000000169063c9d5710790602401602060405180830381865afa158015610c4c573d6000803e3d6000fd5b505050506040513d601f19601f82011682018060405250810190610c709190611ad2565b9050846001600160401b0316600003610c8c5760009250610d8f565b806001600160401b031682602001516001600160401b0316148015610cb957506001600160401b03811615155b15610cc75760019250610d8f565b60608201516001600160401b0390811660009081526001602052604090205461010090048116908216148015610d0557506001600160401b03811615155b15610d135760019250610d8f565b6001600160401b03851660009081526002602090815260408083206001600160a01b038816845290915290205460ff1615610d515760019250610d8f565b60608201516001600160401b031660009081526002602090815260408083206001600160a01b038816845290915290205460ff1615610d8f57600192505b505092915050565b6001600160401b038216600090815260016020526040808220815160808101909252805483929190829060ff166002811115610dd557610dd5611a25565b6002811115610de657610de6611a25565b815290546001600160401b03610100820481166020840152600160481b820481166040840152600160881b909104811660609092019190915290915083161580610e425750600081516002811115610e4057610e40611a25565b145b15610e505760009150610eab565b826001600160401b031681602001516001600160401b031603610e765760019150610eab565b60608101516001600160401b0390811660009081526001602052604090205481851661010090910490911603610eab57600191505b5092915050565b81610ebd8133610b3e565b610eda5760405163444a90d360e01b815260040160405180910390fd5b81610ee58133610b3e565b610f025760405163444a90d360e01b815260040160405180910390fd5b6001600160401b03848116600081815260016020526040808220805470ffffffffffffffff0000000000000000001916600160481b958916958602179055517fefe6261643d8594688953ec1ce3942cbfa085d68b01bd112804fc838e727bc139190a350505050565b81610f768133610b3e565b610f935760405163444a90d360e01b815260040160405180910390fd5b81610f9e8133610b3e565b610fbb5760405163444a90d360e01b815260040160405180910390fd5b6001600160401b0384811660008181526001602052604080822080547fffffffffffffff0000000000000000ffffffffffffffffffffffffffffffffff16600160881b958916958602179055517fadf1166ba1a525a18888a2322ec587b5a566aee20f79a712e16f9dc2453349589190a350505050565b6001600160401b0382166000908152600160205260408082208151608081019092528054829060ff16600281111561106c5761106c611a25565b600281111561107d5761107d611a25565b815290546001600160401b03610100820481166020840152600160481b82048116604080850191909152600160881b909204166060909201919091525163641f2bad60e01b81523360048201529091506000906001600160a01b037f0000000000000000000000000000000000000000000000000000000000000000169063641f2bad90602401602060405180830381865afa158015611121573d6000803e3d6000fd5b505050506040513d601f19601f820116820180604052508101906111459190611ad2565b905081602001516001600160401b031660001415801561117b5750806001600160401b031682602001516001600160401b031614155b156111995760405163444a90d360e01b815260040160405180910390fd5b60208201516001600160401b03161580156111f0575060608201516001600160401b031615806111f0575060608201516001600160401b039081166000908152600160205260409020546101009004811690821614155b1561120e5760405163444a90d360e01b815260040160405180910390fd5b826001600160401b0316846001600160401b03167fd5edc069d80f1d422b948ce36edf9eac1fa25836bd5f8db9198429017f86202860405160405180910390a350506001600160401b039182166000908152600460205260409020805467ffffffffffffffff191691909216179055565b60405163641f2bad60e01b815233600482015261130d9084906001600160a01b037f0000000000000000000000000000000000000000000000000000000000000000169063641f2bad90602401602060405180830381865afa1580156112e9573d6000803e3d6000fd5b505050506040513d601f19601f8201168201806040525081019061021a9190611ad2565b61132a5760405163444a90d360e01b815260040160405180910390fd5b6001600160401b03831660008181526002602090815260408083206001600160a01b03871680855290835292819020805460ff191686151590811790915590519081529192917f5fe1326a5161ca47042a7f643842e04356c668a48c8495cb0ffdbc707c17bebf910160405180910390a3505050565b6001600160401b0381166000908152600160205260408082208151608081019092528054829060ff1660028111156113da576113da611a25565b60028111156113eb576113eb611a25565b815290546001600160401b03610100820481166020840152600160481b82048116604080850191909152600160881b909204166060909201919091525163641f2bad60e01b81523360048201529091506000906001600160a01b037f0000000000000000000000000000000000000000000000000000000000000000169063641f2bad90602401602060405180830381865afa15801561148f573d6000803e3d6000fd5b505050506040513d601f19601f820116820180604052508101906114b39190611ad2565b9050806001600160401b031682602001516001600160401b0316146114eb5760405163444a90d360e01b815260040160405180910390fd5b6001600160401b0383166000818152600160209081526040808320805468ffffffffffffffff00191690556004909152808220805467ffffffffffffffff19169055519091907fb16d66fea344456db6f5ffa8f0dc5fa208c98be672df819ff3ca44863a5358ad908390a3505050565b846115668133610b3e565b6115835760405163444a90d360e01b815260040160405180910390fd5b856001600160401b03167fbdf912301251108e1ce48c21891c6b55ef5b631e74813780d1e9b17840fa24b2868686866040516115c29493929190611bb8565b60405180910390a26001600160401b038616600090815260036020526040908190209051849184916115f79089908990611c24565b90815260200160405180910390209182611612929190611c83565b50505050505050565b6001600160401b038116811461163057600080fd5b50565b60006020828403121561164557600080fd5b81356116508161161b565b9392505050565b634e487b7160e01b600052604160045260246000fd5b604051601f8201601f191681016001600160401b038111828210171561169557611695611657565b604052919050565b80356001600160a01b03811681146116b457600080fd5b919050565b600082601f8301126116ca57600080fd5b81356001600160401b038111156116e3576116e3611657565b6116f6601f8201601f191660200161166d565b81815284602083860101111561170b57600080fd5b816020850160208301376000918101602001919091529392505050565b60008060008060008060c0878903121561174157600080fd5b86356003811061175057600080fd5b95506020878101356117618161161b565b955060408801356117718161161b565b945060608801356117818161161b565b935060808801356001600160401b038082111561179d57600080fd5b818a0191508a601f8301126117b157600080fd5b8135818111156117c3576117c3611657565b8060051b6117d285820161166d565b918252838101850191858101908e8411156117ec57600080fd5b948601945b83861015611811576118028661169d565b825294860194908601906117f1565b975050505060a08a013592508083111561182a57600080fd5b505061183889828a016116b9565b9150509295509295509295565b60008083601f84011261185757600080fd5b5081356001600160401b0381111561186e57600080fd5b60208301915083602082850101111561188657600080fd5b9250929050565b6000806000806000606086880312156118a557600080fd5b85356118b08161161b565b945060208601356001600160401b03808211156118cc57600080fd5b6118d889838a01611845565b909650945060408801359150808211156118f157600080fd5b506118fe88828901611845565b969995985093965092949392505050565b6000806040838503121561192257600080fd5b823561192d8161161b565b915060208301356001600160401b0381111561194857600080fd5b611954858286016116b9565b9150509250929050565b6000815180845260005b8181101561198457602081850181015186830182015201611968565b506000602082860101526020601f19601f83011685010191505092915050565b602081526000611650602083018461195e565b600080604083850312156119ca57600080fd5b82356119d58161161b565b91506119e36020840161169d565b90509250929050565b600080604083850312156119ff57600080fd5b8235611a0a8161161b565b91506020830135611a1a8161161b565b809150509250929050565b634e487b7160e01b600052602160045260246000fd5b6080810160038610611a5d57634e487b7160e01b600052602160045260246000fd5b9481526001600160401b039384166020820152918316604083015290911660609091015290565b600080600060608486031215611a9957600080fd5b8335611aa48161161b565b9250611ab26020850161169d565b915060408401358015158114611ac757600080fd5b809150509250925092565b600060208284031215611ae457600080fd5b81516116508161161b565b634e487b7160e01b600052601160045260246000fd5b60006001600160401b03808316818103611b2157611b21611aef565b6001019392505050565b60006001600160401b03808616835280851660208401525060606040830152611b57606083018461195e565b95945050505050565b634e487b7160e01b600052603260045260246000fd5b600060018201611b8857611b88611aef565b5060010190565b81835281816020850137506000828201602090810191909152601f909101601f19169091010190565b604081526000611bcc604083018688611b8f565b8281036020840152611bdf818587611b8f565b979650505050505050565b600181811c90821680611bfe57607f821691505b602082108103611c1e57634e487b7160e01b600052602260045260246000fd5b50919050565b8183823760009101908152919050565b601f821115611c7e57600081815260208120601f850160051c81016020861015611c5b5750805b601f850160051c820191505b81811015611c7a57828155600101611c67565b5050505b505050565b6001600160401b03831115611c9a57611c9a611657565b611cae83611ca88354611bea565b83611c34565b6000601f841160018114611ce25760008515611cca5750838201355b600019600387901b1c1916600186901b178355611d3c565b600083815260209020601f19861690835b82811015611d135786850135825560209485019460019092019101611cf3565b5086821015611d305760001960f88860031b161c19848701351681555b505060018560011b0183555b505050505056fea2646970667358221220d2ae8e172a740bdf1b574855c47ef8856d3695b0e9660c7a805f80a3ba270d4564736f6c63430008110033",
  "linkReferences": {},
  "deployedLinkReferences": {}
}