{
  "_format": "hh-sol-artifact-1",
  "contractName": "NodeRegistry",
  "sourceName": "contracts/NodeRegistry.sol",
  "abi": [
    {
      "inputs": [
        {
          "internalType": "contract AccountRegistry",
          "name": "_accounts",
          "type": "address"
        }
      ],
      "stateMutability": "nonpayable",
      "type": "constructor"
    },
    {
      "inputs": [],
      "name": "NotAuthorizedForNode",
      "type": "error"
    },
    {
      "anonymous": false,
      "inputs": [
        {
          "indexed": true,
          "internalType": "uint64",
          "name": "id",
          "type": "uint64"
        },
        {
          "indexed": false,
          "internalType": "string",
          "name": "topic",
          "type": "string"
        },
        {
          "indexed": false,
          "internalType": "string",
          "name": "message",
          "type": "string"
        }
      ],
      "name": "NodeBroadcast",
      "type": "event"
    },
    {
      "anonymous": false,
      "inputs": [
        {
          "indexed": true,
          "internalType": "uint64",
          "name": "id",
          "type": "uint64"
        },
        {
          "indexed": true,
          "internalType": "address",
          "name": "controller",
          "type": "address"
        },
        {
          "indexed": false,
          "internalType": "bool",
          "name": "isAuthorized",
          "type": "bool"
        }
      ],
      "name": "NodeControllerSet",
      "type": "event"
    },
    {
      "anonymous": false,
      "inputs": [
        {
          "indexed": true,
          "internalType": "uint64",
          "name": "id",
          "type": "uint64"
        },
        {
          "indexed": true,
          "internalType": "uint16",
          "name": "nodeType",
          "type": "uint16"
        },
        {
          "indexed": true,
          "internalType": "uint64",
          "name": "owner",
          "type": "uint64"
        },
        {
          "indexed": false,
          "internalType": "uint64",
          "name": "parent",
          "type": "uint64"
        },
        {
          "indexed": false,
          "internalType": "uint64",
          "name": "groupNode",
          "type": "uint64"
        },
        {
          "indexed": false,
          "internalType": "string",
          "name": "metadata",
          "type": "string"
        }
      ],
      "name": "NodeCreated",
      "type": "event"
    },
    {
      "anonymous": false,
      "inputs": [
        {
          "indexed": true,
          "internalType": "uint64",
          "name": "id",
          "type": "uint64"
        },
        {
          "indexed": true,
          "internalType": "uint64",
          "name": "groupNode",
          "type": "uint64"
        }
      ],
      "name": "NodeGroupNodeSet",
      "type": "event"
    },
    {
      "anonymous": false,
      "inputs": [
        {
          "indexed": true,
          "internalType": "uint64",
          "name": "id",
          "type": "uint64"
        },
        {
          "indexed": true,
          "internalType": "uint64",
          "name": "owner",
          "type": "uint64"
        }
      ],
      "name": "NodeOwnerSet",
      "type": "event"
    },
    {
      "anonymous": false,
      "inputs": [
        {
          "indexed": true,
          "internalType": "uint64",
          "name": "id",
          "type": "uint64"
        },
        {
          "indexed": true,
          "internalType": "uint64",
          "name": "parent",
          "type": "uint64"
        }
      ],
      "name": "NodeParentSet",
      "type": "event"
    },
    {
      "inputs": [],
      "name": "accounts",
      "outputs": [
        {
          "internalType": "contract AccountRegistry",
          "name": "",
          "type": "address"
        }
      ],
      "stateMutability": "view",
      "type": "function"
    },
    {
      "inputs": [
        {
          "internalType": "uint64",
          "name": "id",
          "type": "uint64"
        },
        {
          "internalType": "string",
          "name": "topic",
          "type": "string"
        },
        {
          "internalType": "string",
          "name": "message",
          "type": "string"
        }
      ],
      "name": "broadcast",
      "outputs": [],
      "stateMutability": "nonpayable",
      "type": "function"
    },
    {
      "inputs": [
        {
          "internalType": "uint64",
          "name": "id",
          "type": "uint64"
        },
        {
          "internalType": "string",
          "name": "topic",
          "type": "string"
        },
        {
          "internalType": "string",
          "name": "message",
          "type": "string"
        }
      ],
      "name": "broadcastAndStore",
      "outputs": [],
      "stateMutability": "nonpayable",
      "type": "function"
    },
    {
      "inputs": [
        {
          "internalType": "uint64",
          "name": "",
          "type": "uint64"
        },
        {
          "internalType": "address",
          "name": "",
          "type": "address"
        }
      ],
      "name": "controllers",
      "outputs": [
        {
          "internalType": "bool",
          "name": "",
          "type": "bool"
        }
      ],
      "stateMutability": "view",
      "type": "function"
    },
    {
      "inputs": [
        {
          "internalType": "uint16",
          "name": "nodeType",
          "type": "uint16"
        },
        {
          "internalType": "uint64",
          "name": "owner",
          "type": "uint64"
        },
        {
          "internalType": "uint64",
          "name": "parent",
          "type": "uint64"
        },
        {
          "internalType": "uint64",
          "name": "groupNode",
          "type": "uint64"
        },
        {
          "internalType": "address[]",
          "name": "initialControllers",
          "type": "address[]"
        },
        {
          "internalType": "string",
          "name": "metadata",
          "type": "string"
        }
      ],
      "name": "createNode",
      "outputs": [
        {
          "internalType": "uint64",
          "name": "id",
          "type": "uint64"
        }
      ],
      "stateMutability": "nonpayable",
      "type": "function"
    },
    {
      "inputs": [
        {
          "internalType": "uint64",
          "name": "id",
          "type": "uint64"
        }
      ],
      "name": "groupNodeOf",
      "outputs": [
        {
          "internalType": "uint64",
          "name": "",
          "type": "uint64"
        }
      ],
      "stateMutability": "view",
      "type": "function"
    },
    {
      "inputs": [
        {
          "internalType": "uint64",
          "name": "node",
          "type": "uint64"
        },
        {
          "internalType": "uint64",
          "name": "account",
          "type": "uint64"
        }
      ],
      "name": "isAuthorizedAccountForNode",
      "outputs": [
        {
          "internalType": "bool",
          "name": "isAuthorized",
          "type": "bool"
        }
      ],
      "stateMutability": "view",
      "type": "function"
    },
    {
      "inputs": [
        {
          "internalType": "uint64",
          "name": "node",
          "type": "uint64"
        },
        {
          "internalType": "address",
          "name": "subject",
          "type": "address"
        }
      ],
      "name": "isAuthorizedAddressForNode",
      "outputs": [
        {
          "internalType": "bool",
          "name": "isAuthorized",
          "type": "bool"
        }
      ],
      "stateMutability": "view",
      "type": "function"
    },
    {
      "inputs": [
        {
          "internalType": "uint64",
          "name": "",
          "type": "uint64"
        },
        {
          "internalType": "string",
          "name": "",
          "type": "string"
        }
      ],
      "name": "messageStorage",
      "outputs": [
        {
          "internalType": "string",
          "name": "",
          "type": "string"
        }
      ],
      "stateMutability": "view",
      "type": "function"
    },
    {
      "inputs": [
        {
          "internalType": "uint64",
          "name": "",
          "type": "uint64"
        }
      ],
      "name": "nodes",
      "outputs": [
        {
          "internalType": "uint16",
          "name": "nodeType",
          "type": "uint16"
        },
        {
          "internalType": "uint64",
          "name": "owner",
          "type": "uint64"
        },
        {
          "internalType": "uint64",
          "name": "parent",
          "type": "uint64"
        },
        {
          "internalType": "uint64",
          "name": "groupNode",
          "type": "uint64"
        }
      ],
      "stateMutability": "view",
      "type": "function"
    },
    {
      "inputs": [
        {
          "internalType": "uint64",
          "name": "id",
          "type": "uint64"
        }
      ],
      "name": "ownerOf",
      "outputs": [
        {
          "internalType": "uint64",
          "name": "",
          "type": "uint64"
        }
      ],
      "stateMutability": "view",
      "type": "function"
    },
    {
      "inputs": [
        {
          "internalType": "uint64",
          "name": "id",
          "type": "uint64"
        }
      ],
      "name": "parentOf",
      "outputs": [
        {
          "internalType": "uint64",
          "name": "",
          "type": "uint64"
        }
      ],
      "stateMutability": "view",
      "type": "function"
    },
    {
      "inputs": [
        {
          "internalType": "uint64",
          "name": "node",
          "type": "uint64"
        },
        {
          "internalType": "address",
          "name": "controller",
          "type": "address"
        },
        {
          "internalType": "bool",
          "name": "isAuthorized",
          "type": "bool"
        }
      ],
      "name": "setController",
      "outputs": [],
      "stateMutability": "nonpayable",
      "type": "function"
    },
    {
      "inputs": [
        {
          "internalType": "uint64",
          "name": "id",
          "type": "uint64"
        },
        {
          "internalType": "uint64",
          "name": "groupNode",
          "type": "uint64"
        }
      ],
      "name": "setNodeGroupNode",
      "outputs": [],
      "stateMutability": "nonpayable",
      "type": "function"
    },
    {
      "inputs": [
        {
          "internalType": "uint64",
          "name": "id",
          "type": "uint64"
        },
        {
          "internalType": "uint64",
          "name": "newOwner",
          "type": "uint64"
        }
      ],
      "name": "setNodeOwner",
      "outputs": [],
      "stateMutability": "nonpayable",
      "type": "function"
    },
    {
      "inputs": [
        {
          "internalType": "uint64",
          "name": "id",
          "type": "uint64"
        },
        {
          "internalType": "uint64",
          "name": "parent",
          "type": "uint64"
        }
      ],
      "name": "setParentNode",
      "outputs": [],
      "stateMutability": "nonpayable",
      "type": "function"
    },
    {
      "inputs": [],
      "name": "totalNodeCount",
      "outputs": [
        {
          "internalType": "uint64",
          "name": "",
          "type": "uint64"
        }
      ],
      "stateMutability": "view",
      "type": "function"
    }
  ],
  "bytecode": "0x60a060405234801561001057600080fd5b5060405161176338038061176383398101604081905261002f91610040565b6001600160a01b0316608052610070565b60006020828403121561005257600080fd5b81516001600160a01b038116811461006957600080fd5b9392505050565b6080516116bc6100a7600039600081816102780152818161053e0152818161075801528181610a100152610e6c01526116bc6000f3fe608060405234801561001057600080fd5b506004361061010b5760003560e01c806368cd03f6116100a2578063ac35317411610071578063ac3531741461032a578063b5e4c2e81461033d578063c999fea314610350578063de0133c314610363578063deb6465d1461039157600080fd5b806368cd03f6146102735780636bf1e676146102b25780637903a617146102e5578063a45337561461031757600080fd5b80635477b578116100de5780635477b57814610184578063563c27381461019757806359ca4af3146101c25780636579b6fe1461024057600080fd5b8063237e91751461011057806325b86f13146101255780633b9a460a1461014e5780634acbb4be14610161575b600080fd5b61012361011e366004611122565b6103a4565b005b610138610133366004611259565b61041b565b60405161014591906112f5565b60405180910390f35b61012361015c36600461130f565b6104d1565b61017461016f366004611364565b6106dc565b6040519015158152602001610145565b61017461019236600461130f565b6108ed565b6101aa6101a5366004611399565b6109cc565b6040516001600160401b039091168152602001610145565b61020c6101d03660046114b9565b60016020526000908152604090205461ffff8116906001600160401b03620100008204811691600160501b8104821691600160901b9091041684565b6040805161ffff90951685526001600160401b03938416602086015291831691840191909152166060820152608001610145565b6101aa61024e3660046114b9565b6001600160401b03908116600090815260016020526040902054600160501b90041690565b61029a7f000000000000000000000000000000000000000000000000000000000000000081565b6040516001600160a01b039091168152602001610145565b6101aa6102c03660046114b9565b6001600160401b03908116600090815260016020526040902054600160901b90041690565b6101aa6102f33660046114b9565b6001600160401b039081166000908152600160205260409020546201000090041690565b61012361032536600461130f565b610d0c565b61012361033836600461130f565b610dbf565b61012361034b3660046114d6565b610e49565b6000546101aa906001600160401b031681565b610174610371366004611364565b600260209081526000928352604080842090915290825290205460ff1681565b61012361039f366004611122565b610f6a565b846103af81336106dc565b6103cc5760405163444a90d360e01b815260040160405180910390fd5b856001600160401b03167fbdf912301251108e1ce48c21891c6b55ef5b631e74813780d1e9b17840fa24b28686868660405161040b949392919061154d565b60405180910390a2505050505050565b60036020908152600092835260409092208151808301840180519281529084019290930191909120915280546104509061157f565b80601f016020809104026020016040519081016040528092919081815260200182805461047c9061157f565b80156104c95780601f1061049e576101008083540402835291602001916104c9565b820191906000526020600020905b8154815290600101906020018083116104ac57829003601f168201915b505050505081565b6001600160401b0382811660009081526001602090815260408083208151608081018352905461ffff81168252620100008104861693820193909352600160501b8304851681830152600160901b9092049093166060820152915163641f2bad60e01b81523360048201527f00000000000000000000000000000000000000000000000000000000000000006001600160a01b03169063641f2bad90602401602060405180830381865afa15801561058d573d6000803e3d6000fd5b505050506040513d601f19601f820116820180604052508101906105b191906115b9565b905081602001516001600160401b03166000141580156105e75750806001600160401b031682602001516001600160401b031614155b156106055760405163444a90d360e01b815260040160405180910390fd5b60208201516001600160401b031615801561065d575060608201516001600160401b0316158061065d575060608201516001600160401b03908116600090815260016020526040902054620100009004811690821614155b1561067b5760405163444a90d360e01b815260040160405180910390fd5b6001600160401b03848116600081815260016020526040808220805469ffffffffffffffff0000191662010000958916958602179055517fb16d66fea344456db6f5ffa8f0dc5fa208c98be672df819ff3ca44863a5358ad9190a350505050565b6001600160401b0382811660009081526001602090815260408083208151608081018352905461ffff81168252620100008104861693820193909352600160501b8304851681830152600160901b9092049093166060820152915163641f2bad60e01b81526001600160a01b03848116600483015291929183917f00000000000000000000000000000000000000000000000000000000000000009091169063641f2bad90602401602060405180830381865afa1580156107a1573d6000803e3d6000fd5b505050506040513d601f19601f820116820180604052508101906107c591906115b9565b9050846001600160401b03166000036107e157600092506108e5565b806001600160401b031682602001516001600160401b031614801561080e57506001600160401b03811615155b1561081c57600192506108e5565b60608201516001600160401b03908116600090815260016020526040902054620100009004811690821614801561085b57506001600160401b03811615155b1561086957600192506108e5565b6001600160401b03851660009081526002602090815260408083206001600160a01b038816845290915290205460ff16156108a757600192506108e5565b60608201516001600160401b031660009081526002602090815260408083206001600160a01b038816845290915290205460ff16156108e557600192505b505092915050565b6001600160401b0380831660009081526001602090815260408083208151608081018352905461ffff81168252620100008104861693820193909352600160501b8304851691810191909152600160901b9091048316606082015290918316158061095b5750805161ffff16155b1561096957600091506109c5565b826001600160401b031681602001516001600160401b03160361098f57600191506109c5565b60608101516001600160401b0390811660009081526001602052604090205481851662010000909104909116036109c557600191505b5092915050565b6000846001600160401b0316600003610ab2576001600160401b0386161580610a8f575060405163641f2bad60e01b81523360048201526001600160401b038716907f00000000000000000000000000000000000000000000000000000000000000006001600160a01b03169063641f2bad90602401602060405180830381865afa158015610a5f573d6000803e3d6000fd5b505050506040513d601f19601f82011682018060405250810190610a8391906115b9565b6001600160401b031614155b15610aad5760405163444a90d360e01b815260040160405180910390fd5b610ad9565b610abc85336106dc565b610ad95760405163444a90d360e01b815260040160405180910390fd5b6001600160401b03841615801590610b0b57506001600160401b03841660009081526001602052604090205461ffff16155b15610b295760405163444a90d360e01b815260040160405180910390fd5b600080548190610b41906001600160401b03166115ec565b82546101009290920a6001600160401b0381810219909316828416918202179093556040805160808101825261ffff8c81168083528c861660208085018281528e89168688019081528e8a166060880190815260008c815260019094529288902096518754925191519351961669ffffffffffffffffffff199092169190911762010000918a1691909102176fffffffffffffffffffffffffffffffff60501b1916600160501b9189169190910267ffffffffffffffff60901b191617600160901b939097169290920295909517909155905191945092907f080f6751e6344c8338f449a4a1c915c11064c6a0bce07592b6d771e1c27ed2be90610c4a908a908a908990611612565b60405180910390a460005b8351811015610d01576000848281518110610c7257610c72611647565b6020908102919091018101516001600160401b03851660008181526002845260408082206001600160a01b03851680845290865291819020805460ff1916600190811790915590519081529294509290917f5fe1326a5161ca47042a7f643842e04356c668a48c8495cb0ffdbc707c17bebf910160405180910390a35080610cf98161165d565b915050610c55565b509695505050505050565b81610d1781336106dc565b610d345760405163444a90d360e01b815260040160405180910390fd5b81610d3f81336106dc565b610d5c5760405163444a90d360e01b815260040160405180910390fd5b6001600160401b03848116600081815260016020526040808220805467ffffffffffffffff60501b1916600160501b958916958602179055517fefe6261643d8594688953ec1ce3942cbfa085d68b01bd112804fc838e727bc139190a350505050565b81610dca81336106dc565b610de75760405163444a90d360e01b815260040160405180910390fd5b6001600160401b03838116600081815260016020526040808220805467ffffffffffffffff60901b1916600160901b958816958602179055517fadf1166ba1a525a18888a2322ec587b5a566aee20f79a712e16f9dc2453349589190a3505050565b60405163641f2bad60e01b8152336004820152610ed79084906001600160a01b037f0000000000000000000000000000000000000000000000000000000000000000169063641f2bad90602401602060405180830381865afa158015610eb3573d6000803e3d6000fd5b505050506040513d601f19601f8201168201806040525081019061019291906115b9565b610ef45760405163444a90d360e01b815260040160405180910390fd5b6001600160401b03831660008181526002602090815260408083206001600160a01b03871680855290835292819020805460ff191686151590811790915590519081529192917f5fe1326a5161ca47042a7f643842e04356c668a48c8495cb0ffdbc707c17bebf910160405180910390a3505050565b84610f7581336106dc565b610f925760405163444a90d360e01b815260040160405180910390fd5b856001600160401b03167fbdf912301251108e1ce48c21891c6b55ef5b631e74813780d1e9b17840fa24b286868686604051610fd1949392919061154d565b60405180910390a26001600160401b038616600090815260036020526040908190209051849184916110069089908990611676565b908152604051908190036020019020611020929091611029565b50505050505050565b8280546110359061157f565b90600052602060002090601f016020900481019282611057576000855561109d565b82601f106110705782800160ff1982351617855561109d565b8280016001018555821561109d579182015b8281111561109d578235825591602001919060010190611082565b506110a99291506110ad565b5090565b5b808211156110a957600081556001016110ae565b6001600160401b03811681146110d757600080fd5b50565b60008083601f8401126110ec57600080fd5b5081356001600160401b0381111561110357600080fd5b60208301915083602082850101111561111b57600080fd5b9250929050565b60008060008060006060868803121561113a57600080fd5b8535611145816110c2565b945060208601356001600160401b038082111561116157600080fd5b61116d89838a016110da565b9096509450604088013591508082111561118657600080fd5b50611193888289016110da565b969995985093965092949392505050565b634e487b7160e01b600052604160045260246000fd5b604051601f8201601f191681016001600160401b03811182821017156111e2576111e26111a4565b604052919050565b600082601f8301126111fb57600080fd5b81356001600160401b03811115611214576112146111a4565b611227601f8201601f19166020016111ba565b81815284602083860101111561123c57600080fd5b816020850160208301376000918101602001919091529392505050565b6000806040838503121561126c57600080fd5b8235611277816110c2565b915060208301356001600160401b0381111561129257600080fd5b61129e858286016111ea565b9150509250929050565b6000815180845260005b818110156112ce576020818501810151868301820152016112b2565b818111156112e0576000602083870101525b50601f01601f19169290920160200192915050565b60208152600061130860208301846112a8565b9392505050565b6000806040838503121561132257600080fd5b823561132d816110c2565b9150602083013561133d816110c2565b809150509250929050565b80356001600160a01b038116811461135f57600080fd5b919050565b6000806040838503121561137757600080fd5b8235611382816110c2565b915061139060208401611348565b90509250929050565b60008060008060008060c087890312156113b257600080fd5b863561ffff811681146113c457600080fd5b95506020878101356113d5816110c2565b955060408801356113e5816110c2565b945060608801356113f5816110c2565b935060808801356001600160401b038082111561141157600080fd5b818a0191508a601f83011261142557600080fd5b813581811115611437576114376111a4565b8060051b6114468582016111ba565b918252838101850191858101908e84111561146057600080fd5b948601945b838610156114855761147686611348565b82529486019490860190611465565b975050505060a08a013592508083111561149e57600080fd5b50506114ac89828a016111ea565b9150509295509295509295565b6000602082840312156114cb57600080fd5b8135611308816110c2565b6000806000606084860312156114eb57600080fd5b83356114f6816110c2565b925061150460208501611348565b91506040840135801515811461151957600080fd5b809150509250925092565b81835281816020850137506000828201602090810191909152601f909101601f19169091010190565b604081526000611561604083018688611524565b8281036020840152611574818587611524565b979650505050505050565b600181811c9082168061159357607f821691505b6020821081036115b357634e487b7160e01b600052602260045260246000fd5b50919050565b6000602082840312156115cb57600080fd5b8151611308816110c2565b634e487b7160e01b600052601160045260246000fd5b60006001600160401b03808316818103611608576116086115d6565b6001019392505050565b60006001600160401b0380861683528085166020840152506060604083015261163e60608301846112a8565b95945050505050565b634e487b7160e01b600052603260045260246000fd5b60006001820161166f5761166f6115d6565b5060010190565b818382376000910190815291905056fea26469706673582212206137425ba7b2995eb87ca442378679c5e11defafb2d742c7a1d4ba8f19e7b5f764736f6c634300080d0033",
  "linkReferences": {},
  "deployedLinkReferences": {}
}