{
  "_format": "hh-sol-artifact-1",
  "contractName": "NodeRegistry",
  "sourceName": "contracts/NodeRegistry.sol",
  "abi": [
    {
      "inputs": [
        {
          "internalType": "contract AccountRegistry",
          "name": "_accounts",
          "type": "address"
        }
      ],
      "stateMutability": "nonpayable",
      "type": "constructor"
    },
    {
      "inputs": [],
      "name": "NotAuthorizedForNode",
      "type": "error"
    },
    {
      "anonymous": false,
      "inputs": [
        {
          "indexed": true,
          "internalType": "uint64",
          "name": "id",
          "type": "uint64"
        },
        {
          "indexed": false,
          "internalType": "string",
          "name": "topic",
          "type": "string"
        },
        {
          "indexed": false,
          "internalType": "string",
          "name": "message",
          "type": "string"
        }
      ],
      "name": "NodeBroadcast",
      "type": "event"
    },
    {
      "anonymous": false,
      "inputs": [
        {
          "indexed": true,
          "internalType": "uint64",
          "name": "id",
          "type": "uint64"
        },
        {
          "indexed": true,
          "internalType": "address",
          "name": "controller",
          "type": "address"
        },
        {
          "indexed": false,
          "internalType": "bool",
          "name": "isAuthorized",
          "type": "bool"
        }
      ],
      "name": "NodeControllerSet",
      "type": "event"
    },
    {
      "anonymous": false,
      "inputs": [
        {
          "indexed": true,
          "internalType": "uint64",
          "name": "id",
          "type": "uint64"
        },
        {
          "indexed": true,
          "internalType": "uint16",
          "name": "nodeType",
          "type": "uint16"
        },
        {
          "indexed": true,
          "internalType": "uint64",
          "name": "owner",
          "type": "uint64"
        },
        {
          "indexed": false,
          "internalType": "uint64",
          "name": "parent",
          "type": "uint64"
        },
        {
          "indexed": false,
          "internalType": "uint64",
          "name": "groupNode",
          "type": "uint64"
        },
        {
          "indexed": false,
          "internalType": "string",
          "name": "metadata",
          "type": "string"
        }
      ],
      "name": "NodeCreated",
      "type": "event"
    },
    {
      "anonymous": false,
      "inputs": [
        {
          "indexed": true,
          "internalType": "uint64",
          "name": "id",
          "type": "uint64"
        },
        {
          "indexed": true,
          "internalType": "uint64",
          "name": "groupNode",
          "type": "uint64"
        }
      ],
      "name": "NodeGroupNodeSet",
      "type": "event"
    },
    {
      "anonymous": false,
      "inputs": [
        {
          "indexed": true,
          "internalType": "uint64",
          "name": "id",
          "type": "uint64"
        },
        {
          "indexed": true,
          "internalType": "uint64",
          "name": "owner",
          "type": "uint64"
        }
      ],
      "name": "NodeOwnerSet",
      "type": "event"
    },
    {
      "anonymous": false,
      "inputs": [
        {
          "indexed": true,
          "internalType": "uint64",
          "name": "id",
          "type": "uint64"
        },
        {
          "indexed": true,
          "internalType": "uint64",
          "name": "parent",
          "type": "uint64"
        }
      ],
      "name": "NodeParentSet",
      "type": "event"
    },
    {
      "inputs": [],
      "name": "accounts",
      "outputs": [
        {
          "internalType": "contract AccountRegistry",
          "name": "",
          "type": "address"
        }
      ],
      "stateMutability": "view",
      "type": "function"
    },
    {
      "inputs": [
        {
          "internalType": "uint64",
          "name": "id",
          "type": "uint64"
        },
        {
          "internalType": "string",
          "name": "topic",
          "type": "string"
        },
        {
          "internalType": "string",
          "name": "message",
          "type": "string"
        }
      ],
      "name": "broadcast",
      "outputs": [],
      "stateMutability": "nonpayable",
      "type": "function"
    },
    {
      "inputs": [
        {
          "internalType": "uint64",
          "name": "id",
          "type": "uint64"
        },
        {
          "internalType": "string",
          "name": "topic",
          "type": "string"
        },
        {
          "internalType": "string",
          "name": "message",
          "type": "string"
        }
      ],
      "name": "broadcastAndStore",
      "outputs": [],
      "stateMutability": "nonpayable",
      "type": "function"
    },
    {
      "inputs": [
        {
          "internalType": "uint64",
          "name": "",
          "type": "uint64"
        },
        {
          "internalType": "address",
          "name": "",
          "type": "address"
        }
      ],
      "name": "controllers",
      "outputs": [
        {
          "internalType": "bool",
          "name": "",
          "type": "bool"
        }
      ],
      "stateMutability": "view",
      "type": "function"
    },
    {
      "inputs": [
        {
          "internalType": "uint16",
          "name": "nodeType",
          "type": "uint16"
        },
        {
          "internalType": "uint64",
          "name": "owner",
          "type": "uint64"
        },
        {
          "internalType": "uint64",
          "name": "parent",
          "type": "uint64"
        },
        {
          "internalType": "uint64",
          "name": "groupNode",
          "type": "uint64"
        },
        {
          "internalType": "address[]",
          "name": "initialControllers",
          "type": "address[]"
        },
        {
          "internalType": "string",
          "name": "metadata",
          "type": "string"
        }
      ],
      "name": "createNode",
      "outputs": [
        {
          "internalType": "uint64",
          "name": "id",
          "type": "uint64"
        }
      ],
      "stateMutability": "nonpayable",
      "type": "function"
    },
    {
      "inputs": [
        {
          "internalType": "uint64",
          "name": "id",
          "type": "uint64"
        }
      ],
      "name": "groupNodeOf",
      "outputs": [
        {
          "internalType": "uint64",
          "name": "",
          "type": "uint64"
        }
      ],
      "stateMutability": "view",
      "type": "function"
    },
    {
      "inputs": [
        {
          "internalType": "uint64",
          "name": "node",
          "type": "uint64"
        },
        {
          "internalType": "uint64",
          "name": "account",
          "type": "uint64"
        }
      ],
      "name": "isAuthorizedAccountForNode",
      "outputs": [
        {
          "internalType": "bool",
          "name": "isAuthorized",
          "type": "bool"
        }
      ],
      "stateMutability": "view",
      "type": "function"
    },
    {
      "inputs": [
        {
          "internalType": "uint64",
          "name": "node",
          "type": "uint64"
        },
        {
          "internalType": "address",
          "name": "subject",
          "type": "address"
        }
      ],
      "name": "isAuthorizedAddressForNode",
      "outputs": [
        {
          "internalType": "bool",
          "name": "isAuthorized",
          "type": "bool"
        }
      ],
      "stateMutability": "view",
      "type": "function"
    },
    {
      "inputs": [
        {
          "internalType": "uint64",
          "name": "",
          "type": "uint64"
        },
        {
          "internalType": "string",
          "name": "",
          "type": "string"
        }
      ],
      "name": "messageStorage",
      "outputs": [
        {
          "internalType": "string",
          "name": "",
          "type": "string"
        }
      ],
      "stateMutability": "view",
      "type": "function"
    },
    {
      "inputs": [
        {
          "internalType": "uint64",
          "name": "",
          "type": "uint64"
        }
      ],
      "name": "nodes",
      "outputs": [
        {
          "internalType": "uint16",
          "name": "nodeType",
          "type": "uint16"
        },
        {
          "internalType": "uint64",
          "name": "owner",
          "type": "uint64"
        },
        {
          "internalType": "uint64",
          "name": "parent",
          "type": "uint64"
        },
        {
          "internalType": "uint64",
          "name": "groupNode",
          "type": "uint64"
        }
      ],
      "stateMutability": "view",
      "type": "function"
    },
    {
      "inputs": [
        {
          "internalType": "uint64",
          "name": "id",
          "type": "uint64"
        }
      ],
      "name": "ownerOf",
      "outputs": [
        {
          "internalType": "uint64",
          "name": "",
          "type": "uint64"
        }
      ],
      "stateMutability": "view",
      "type": "function"
    },
    {
      "inputs": [
        {
          "internalType": "uint64",
          "name": "id",
          "type": "uint64"
        }
      ],
      "name": "parentOf",
      "outputs": [
        {
          "internalType": "uint64",
          "name": "",
          "type": "uint64"
        }
      ],
      "stateMutability": "view",
      "type": "function"
    },
    {
      "inputs": [
        {
          "internalType": "uint64",
          "name": "node",
          "type": "uint64"
        },
        {
          "internalType": "address",
          "name": "controller",
          "type": "address"
        },
        {
          "internalType": "bool",
          "name": "isAuthorized",
          "type": "bool"
        }
      ],
      "name": "setController",
      "outputs": [],
      "stateMutability": "nonpayable",
      "type": "function"
    },
    {
      "inputs": [
        {
          "internalType": "uint64",
          "name": "id",
          "type": "uint64"
        },
        {
          "internalType": "uint64",
          "name": "groupNode",
          "type": "uint64"
        }
      ],
      "name": "setNodeGroupNode",
      "outputs": [],
      "stateMutability": "nonpayable",
      "type": "function"
    },
    {
      "inputs": [
        {
          "internalType": "uint64",
          "name": "id",
          "type": "uint64"
        },
        {
          "internalType": "uint64",
          "name": "newOwner",
          "type": "uint64"
        }
      ],
      "name": "setNodeOwner",
      "outputs": [],
      "stateMutability": "nonpayable",
      "type": "function"
    },
    {
      "inputs": [
        {
          "internalType": "uint64",
          "name": "id",
          "type": "uint64"
        },
        {
          "internalType": "uint64",
          "name": "parent",
          "type": "uint64"
        }
      ],
      "name": "setParentNode",
      "outputs": [],
      "stateMutability": "nonpayable",
      "type": "function"
    },
    {
      "inputs": [],
      "name": "totalNodeCount",
      "outputs": [
        {
          "internalType": "uint64",
          "name": "",
          "type": "uint64"
        }
      ],
      "stateMutability": "view",
      "type": "function"
    }
  ],
  "bytecode": "0x60a060405234801561001057600080fd5b5060405161174938038061174983398101604081905261002f91610040565b6001600160a01b0316608052610070565b60006020828403121561005257600080fd5b81516001600160a01b038116811461006957600080fd5b9392505050565b6080516116a26100a7600039600081816102780152818161053e01528181610758015281816109f60152610e5201526116a26000f3fe608060405234801561001057600080fd5b506004361061010b5760003560e01c806368cd03f6116100a2578063ac35317411610071578063ac3531741461032a578063b5e4c2e81461033d578063c999fea314610350578063de0133c314610363578063deb6465d1461039157600080fd5b806368cd03f6146102735780636bf1e676146102b25780637903a617146102e5578063a45337561461031757600080fd5b80635477b578116100de5780635477b57814610184578063563c27381461019757806359ca4af3146101c25780636579b6fe1461024057600080fd5b8063237e91751461011057806325b86f13146101255780633b9a460a1461014e5780634acbb4be14610161575b600080fd5b61012361011e366004611108565b6103a4565b005b61013861013336600461123f565b61041b565b60405161014591906112db565b60405180910390f35b61012361015c3660046112f5565b6104d1565b61017461016f36600461134a565b6106dc565b6040519015158152602001610145565b6101746101923660046112f5565b6108d3565b6101aa6101a536600461137f565b6109b2565b6040516001600160401b039091168152602001610145565b61020c6101d036600461149f565b60016020526000908152604090205461ffff8116906001600160401b03620100008204811691600160501b8104821691600160901b9091041684565b6040805161ffff90951685526001600160401b03938416602086015291831691840191909152166060820152608001610145565b6101aa61024e36600461149f565b6001600160401b03908116600090815260016020526040902054600160501b90041690565b61029a7f000000000000000000000000000000000000000000000000000000000000000081565b6040516001600160a01b039091168152602001610145565b6101aa6102c036600461149f565b6001600160401b03908116600090815260016020526040902054600160901b90041690565b6101aa6102f336600461149f565b6001600160401b039081166000908152600160205260409020546201000090041690565b6101236103253660046112f5565b610cf2565b6101236103383660046112f5565b610da5565b61012361034b3660046114bc565b610e2f565b6000546101aa906001600160401b031681565b61017461037136600461134a565b600260209081526000928352604080842090915290825290205460ff1681565b61012361039f366004611108565b610f50565b846103af81336106dc565b6103cc5760405163444a90d360e01b815260040160405180910390fd5b856001600160401b03167fbdf912301251108e1ce48c21891c6b55ef5b631e74813780d1e9b17840fa24b28686868660405161040b9493929190611533565b60405180910390a2505050505050565b600360209081526000928352604090922081518083018401805192815290840192909301919091209152805461045090611565565b80601f016020809104026020016040519081016040528092919081815260200182805461047c90611565565b80156104c95780601f1061049e576101008083540402835291602001916104c9565b820191906000526020600020905b8154815290600101906020018083116104ac57829003601f168201915b505050505081565b6001600160401b0382811660009081526001602090815260408083208151608081018352905461ffff81168252620100008104861693820193909352600160501b8304851681830152600160901b9092049093166060820152915163641f2bad60e01b81523360048201527f00000000000000000000000000000000000000000000000000000000000000006001600160a01b03169063641f2bad90602401602060405180830381865afa15801561058d573d6000803e3d6000fd5b505050506040513d601f19601f820116820180604052508101906105b1919061159f565b905081602001516001600160401b03166000141580156105e75750806001600160401b031682602001516001600160401b031614155b156106055760405163444a90d360e01b815260040160405180910390fd5b60208201516001600160401b031615801561065d575060608201516001600160401b0316158061065d575060608201516001600160401b03908116600090815260016020526040902054620100009004811690821614155b1561067b5760405163444a90d360e01b815260040160405180910390fd5b6001600160401b03848116600081815260016020526040808220805469ffffffffffffffff0000191662010000958916958602179055517fb16d66fea344456db6f5ffa8f0dc5fa208c98be672df819ff3ca44863a5358ad9190a350505050565b6001600160401b0382811660009081526001602090815260408083208151608081018352905461ffff81168252620100008104861693820193909352600160501b8304851681830152600160901b9092049093166060820152915163641f2bad60e01b81526001600160a01b03848116600483015291929183917f00000000000000000000000000000000000000000000000000000000000000009091169063641f2bad90602401602060405180830381865afa1580156107a1573d6000803e3d6000fd5b505050506040513d601f19601f820116820180604052508101906107c5919061159f565b9050806001600160401b031682602001516001600160401b03161480156107f457506001600160401b03811615155b1561080257600192506108cb565b60608201516001600160401b03908116600090815260016020526040902054620100009004811690821614801561084157506001600160401b03811615155b1561084f57600192506108cb565b6001600160401b03851660009081526002602090815260408083206001600160a01b038816845290915290205460ff161561088d57600192506108cb565b60608201516001600160401b031660009081526002602090815260408083206001600160a01b038816845290915290205460ff16156108cb57600192505b505092915050565b6001600160401b0380831660009081526001602090815260408083208151608081018352905461ffff81168252620100008104861693820193909352600160501b8304851691810191909152600160901b909104831660608201529091831615806109415750805161ffff16155b1561094f57600091506109ab565b826001600160401b031681602001516001600160401b03160361097557600191506109ab565b60608101516001600160401b0390811660009081526001602052604090205481851662010000909104909116036109ab57600191505b5092915050565b6000846001600160401b0316600003610a98576001600160401b0386161580610a75575060405163641f2bad60e01b81523360048201526001600160401b038716907f00000000000000000000000000000000000000000000000000000000000000006001600160a01b03169063641f2bad90602401602060405180830381865afa158015610a45573d6000803e3d6000fd5b505050506040513d601f19601f82011682018060405250810190610a69919061159f565b6001600160401b031614155b15610a935760405163444a90d360e01b815260040160405180910390fd5b610abf565b610aa285336106dc565b610abf5760405163444a90d360e01b815260040160405180910390fd5b6001600160401b03841615801590610af157506001600160401b03841660009081526001602052604090205461ffff16155b15610b0f5760405163444a90d360e01b815260040160405180910390fd5b600080548190610b27906001600160401b03166115d2565b82546101009290920a6001600160401b0381810219909316828416918202179093556040805160808101825261ffff8c81168083528c861660208085018281528e89168688019081528e8a166060880190815260008c815260019094529288902096518754925191519351961669ffffffffffffffffffff199092169190911762010000918a1691909102176fffffffffffffffffffffffffffffffff60501b1916600160501b9189169190910267ffffffffffffffff60901b191617600160901b939097169290920295909517909155905191945092907f080f6751e6344c8338f449a4a1c915c11064c6a0bce07592b6d771e1c27ed2be90610c30908a908a9089906115f8565b60405180910390a460005b8351811015610ce7576000848281518110610c5857610c5861162d565b6020908102919091018101516001600160401b03851660008181526002845260408082206001600160a01b03851680845290865291819020805460ff1916600190811790915590519081529294509290917f5fe1326a5161ca47042a7f643842e04356c668a48c8495cb0ffdbc707c17bebf910160405180910390a35080610cdf81611643565b915050610c3b565b509695505050505050565b81610cfd81336106dc565b610d1a5760405163444a90d360e01b815260040160405180910390fd5b81610d2581336106dc565b610d425760405163444a90d360e01b815260040160405180910390fd5b6001600160401b03848116600081815260016020526040808220805467ffffffffffffffff60501b1916600160501b958916958602179055517fefe6261643d8594688953ec1ce3942cbfa085d68b01bd112804fc838e727bc139190a350505050565b81610db081336106dc565b610dcd5760405163444a90d360e01b815260040160405180910390fd5b6001600160401b03838116600081815260016020526040808220805467ffffffffffffffff60901b1916600160901b958816958602179055517fadf1166ba1a525a18888a2322ec587b5a566aee20f79a712e16f9dc2453349589190a3505050565b60405163641f2bad60e01b8152336004820152610ebd9084906001600160a01b037f0000000000000000000000000000000000000000000000000000000000000000169063641f2bad90602401602060405180830381865afa158015610e99573d6000803e3d6000fd5b505050506040513d601f19601f82011682018060405250810190610192919061159f565b610eda5760405163444a90d360e01b815260040160405180910390fd5b6001600160401b03831660008181526002602090815260408083206001600160a01b03871680855290835292819020805460ff191686151590811790915590519081529192917f5fe1326a5161ca47042a7f643842e04356c668a48c8495cb0ffdbc707c17bebf910160405180910390a3505050565b84610f5b81336106dc565b610f785760405163444a90d360e01b815260040160405180910390fd5b856001600160401b03167fbdf912301251108e1ce48c21891c6b55ef5b631e74813780d1e9b17840fa24b286868686604051610fb79493929190611533565b60405180910390a26001600160401b03861660009081526003602052604090819020905184918491610fec908990899061165c565b90815260405190819003602001902061100692909161100f565b50505050505050565b82805461101b90611565565b90600052602060002090601f01602090048101928261103d5760008555611083565b82601f106110565782800160ff19823516178555611083565b82800160010185558215611083579182015b82811115611083578235825591602001919060010190611068565b5061108f929150611093565b5090565b5b8082111561108f5760008155600101611094565b6001600160401b03811681146110bd57600080fd5b50565b60008083601f8401126110d257600080fd5b5081356001600160401b038111156110e957600080fd5b60208301915083602082850101111561110157600080fd5b9250929050565b60008060008060006060868803121561112057600080fd5b853561112b816110a8565b945060208601356001600160401b038082111561114757600080fd5b61115389838a016110c0565b9096509450604088013591508082111561116c57600080fd5b50611179888289016110c0565b969995985093965092949392505050565b634e487b7160e01b600052604160045260246000fd5b604051601f8201601f191681016001600160401b03811182821017156111c8576111c861118a565b604052919050565b600082601f8301126111e157600080fd5b81356001600160401b038111156111fa576111fa61118a565b61120d601f8201601f19166020016111a0565b81815284602083860101111561122257600080fd5b816020850160208301376000918101602001919091529392505050565b6000806040838503121561125257600080fd5b823561125d816110a8565b915060208301356001600160401b0381111561127857600080fd5b611284858286016111d0565b9150509250929050565b6000815180845260005b818110156112b457602081850181015186830182015201611298565b818111156112c6576000602083870101525b50601f01601f19169290920160200192915050565b6020815260006112ee602083018461128e565b9392505050565b6000806040838503121561130857600080fd5b8235611313816110a8565b91506020830135611323816110a8565b809150509250929050565b80356001600160a01b038116811461134557600080fd5b919050565b6000806040838503121561135d57600080fd5b8235611368816110a8565b91506113766020840161132e565b90509250929050565b60008060008060008060c0878903121561139857600080fd5b863561ffff811681146113aa57600080fd5b95506020878101356113bb816110a8565b955060408801356113cb816110a8565b945060608801356113db816110a8565b935060808801356001600160401b03808211156113f757600080fd5b818a0191508a601f83011261140b57600080fd5b81358181111561141d5761141d61118a565b8060051b61142c8582016111a0565b918252838101850191858101908e84111561144657600080fd5b948601945b8386101561146b5761145c8661132e565b8252948601949086019061144b565b975050505060a08a013592508083111561148457600080fd5b505061149289828a016111d0565b9150509295509295509295565b6000602082840312156114b157600080fd5b81356112ee816110a8565b6000806000606084860312156114d157600080fd5b83356114dc816110a8565b92506114ea6020850161132e565b9150604084013580151581146114ff57600080fd5b809150509250925092565b81835281816020850137506000828201602090810191909152601f909101601f19169091010190565b60408152600061154760408301868861150a565b828103602084015261155a81858761150a565b979650505050505050565b600181811c9082168061157957607f821691505b60208210810361159957634e487b7160e01b600052602260045260246000fd5b50919050565b6000602082840312156115b157600080fd5b81516112ee816110a8565b634e487b7160e01b600052601160045260246000fd5b60006001600160401b038083168181036115ee576115ee6115bc565b6001019392505050565b60006001600160401b03808616835280851660208401525060606040830152611624606083018461128e565b95945050505050565b634e487b7160e01b600052603260045260246000fd5b600060018201611655576116556115bc565b5060010190565b818382376000910190815291905056fea26469706673582212203861a55dfdff93815783d1f3a5f6169ddbe46e3c2fe47dc73f5fb1b28cf095e364736f6c634300080d0033",
  "linkReferences": {},
  "deployedLinkReferences": {}
}