{
  "_format": "hh-sol-artifact-1",
  "contractName": "NodeRegistry",
  "sourceName": "contracts/NodeRegistry.sol",
  "abi": [
    {
      "inputs": [
        {
          "internalType": "contract IAccountRegistry",
          "name": "_accounts",
          "type": "address"
        }
      ],
      "stateMutability": "nonpayable",
      "type": "constructor"
    },
    {
      "inputs": [],
      "name": "NotAuthorizedForNode",
      "type": "error"
    },
    {
      "anonymous": false,
      "inputs": [
        {
          "indexed": true,
          "internalType": "uint80",
          "name": "id",
          "type": "uint80"
        },
        {
          "indexed": true,
          "internalType": "address",
          "name": "manager",
          "type": "address"
        },
        {
          "indexed": false,
          "internalType": "bool",
          "name": "isAuthorized",
          "type": "bool"
        }
      ],
      "name": "AuthorizedManagerSet",
      "type": "event"
    },
    {
      "anonymous": false,
      "inputs": [
        {
          "indexed": true,
          "internalType": "uint80",
          "name": "id",
          "type": "uint80"
        },
        {
          "indexed": true,
          "internalType": "uint16",
          "name": "nodeType",
          "type": "uint16"
        },
        {
          "indexed": true,
          "internalType": "uint80",
          "name": "owner",
          "type": "uint80"
        },
        {
          "indexed": false,
          "internalType": "uint80",
          "name": "parent",
          "type": "uint80"
        },
        {
          "indexed": false,
          "internalType": "uint80",
          "name": "accessNode",
          "type": "uint80"
        }
      ],
      "name": "NodeCreated",
      "type": "event"
    },
    {
      "anonymous": false,
      "inputs": [
        {
          "indexed": true,
          "internalType": "uint80",
          "name": "id",
          "type": "uint80"
        },
        {
          "indexed": false,
          "internalType": "string",
          "name": "metadata",
          "type": "string"
        }
      ],
      "name": "NodeMetadata",
      "type": "event"
    },
    {
      "inputs": [],
      "name": "accounts",
      "outputs": [
        {
          "internalType": "contract IAccountRegistry",
          "name": "",
          "type": "address"
        }
      ],
      "stateMutability": "view",
      "type": "function"
    },
    {
      "inputs": [
        {
          "internalType": "uint80",
          "name": "",
          "type": "uint80"
        },
        {
          "internalType": "address",
          "name": "",
          "type": "address"
        }
      ],
      "name": "authorizedNodeManagers",
      "outputs": [
        {
          "internalType": "bool",
          "name": "",
          "type": "bool"
        }
      ],
      "stateMutability": "view",
      "type": "function"
    },
    {
      "inputs": [
        {
          "internalType": "uint80",
          "name": "id",
          "type": "uint80"
        },
        {
          "internalType": "string",
          "name": "metadata",
          "type": "string"
        }
      ],
      "name": "broadcastMetadata",
      "outputs": [],
      "stateMutability": "nonpayable",
      "type": "function"
    },
    {
      "inputs": [
        {
          "internalType": "uint16",
          "name": "nodeType",
          "type": "uint16"
        },
        {
          "internalType": "uint80",
          "name": "owner",
          "type": "uint80"
        },
        {
          "internalType": "uint80",
          "name": "parent",
          "type": "uint80"
        },
        {
          "internalType": "uint80",
          "name": "accessNode",
          "type": "uint80"
        },
        {
          "internalType": "string",
          "name": "metadata",
          "type": "string"
        }
      ],
      "name": "createNode",
      "outputs": [
        {
          "internalType": "uint80",
          "name": "id",
          "type": "uint80"
        }
      ],
      "stateMutability": "nonpayable",
      "type": "function"
    },
    {
      "inputs": [
        {
          "internalType": "uint80",
          "name": "node",
          "type": "uint80"
        },
        {
          "internalType": "uint80",
          "name": "account",
          "type": "uint80"
        }
      ],
      "name": "isAuthorizedAccountForNode",
      "outputs": [
        {
          "internalType": "bool",
          "name": "isAuthorized",
          "type": "bool"
        }
      ],
      "stateMutability": "view",
      "type": "function"
    },
    {
      "inputs": [
        {
          "internalType": "uint80",
          "name": "node",
          "type": "uint80"
        },
        {
          "internalType": "address",
          "name": "subject",
          "type": "address"
        }
      ],
      "name": "isAuthorizedAddressForNode",
      "outputs": [
        {
          "internalType": "bool",
          "name": "isAuthorized",
          "type": "bool"
        }
      ],
      "stateMutability": "view",
      "type": "function"
    },
    {
      "inputs": [
        {
          "internalType": "uint80",
          "name": "",
          "type": "uint80"
        }
      ],
      "name": "nodes",
      "outputs": [
        {
          "internalType": "uint16",
          "name": "nodeType",
          "type": "uint16"
        },
        {
          "internalType": "uint80",
          "name": "owner",
          "type": "uint80"
        },
        {
          "internalType": "uint80",
          "name": "parent",
          "type": "uint80"
        },
        {
          "internalType": "uint80",
          "name": "accessNode",
          "type": "uint80"
        }
      ],
      "stateMutability": "view",
      "type": "function"
    },
    {
      "inputs": [
        {
          "internalType": "uint80",
          "name": "node",
          "type": "uint80"
        },
        {
          "internalType": "address",
          "name": "manager",
          "type": "address"
        },
        {
          "internalType": "bool",
          "name": "isAuthorized",
          "type": "bool"
        }
      ],
      "name": "setAuthorizedNodeManager",
      "outputs": [],
      "stateMutability": "nonpayable",
      "type": "function"
    },
    {
      "inputs": [],
      "name": "totalNodeCount",
      "outputs": [
        {
          "internalType": "uint80",
          "name": "",
          "type": "uint80"
        }
      ],
      "stateMutability": "view",
      "type": "function"
    }
  ],
  "bytecode": "0x60a060405234801561001057600080fd5b50604051610d5e380380610d5e83398101604081905261002f91610040565b6001600160a01b0316608052610070565b60006020828403121561005257600080fd5b81516001600160a01b038116811461006957600080fd5b9392505050565b608051610cbe6100a060003960008181610185015281816102b20152818161042c01526106c30152610cbe6000f3fe608060405234801561001057600080fd5b50600436106100925760003560e01c806368cd03f61161006657806368cd03f6146101805780637c35c5a0146101bf578063a6601ff8146101d2578063c999fea3146101e5578063cb951d791461021057600080fd5b80629b6f071461009757806321bff1d21461011a5780633b27057714610158578063508b56fc1461016d575b600080fd5b6100e16100a5366004610964565b60016020526000908152604090205461ffff8116906001600160501b03620100008204811691600160601b8104821691600160b01b9091041684565b6040805161ffff90951685526001600160501b039384166020860152918316918401919091521660608201526080015b60405180910390f35b6101486101283660046109a4565b600260209081526000928352604080842090915290825290205460ff1681565b6040519015158152602001610111565b61016b610166366004610a7c565b610223565b005b61016b61017b366004610acc565b61028f565b6101a77f000000000000000000000000000000000000000000000000000000000000000081565b6040516001600160a01b039091168152602001610111565b6101486101cd3660046109a4565b6103b0565b6101486101e0366004610b1a565b6105a0565b6000546101f8906001600160501b031681565b6040516001600160501b039091168152602001610111565b6101f861021e366004610b53565b61067f565b61022d82336103b0565b61024a5760405163444a90d360e01b815260040160405180910390fd5b816001600160501b03167f8e7fde9cb7d4699e77445422070e2285198d541965d738e86f5b6fddf9139022826040516102839190610be2565b60405180910390a25050565b60405163641f2bad60e01b815233600482015261031d9084906001600160a01b037f0000000000000000000000000000000000000000000000000000000000000000169063641f2bad90602401602060405180830381865afa1580156102f9573d6000803e3d6000fd5b505050506040513d601f19601f820116820180604052508101906101e09190610c37565b61033a5760405163444a90d360e01b815260040160405180910390fd5b6001600160501b03831660008181526002602090815260408083206001600160a01b03871680855290835292819020805460ff191686151590811790915590519081529192917fc3234338f4e02da702bf5a92c53c36435839058fb70285aadd18fe94fc4eca55910160405180910390a3505050565b6001600160501b0382811660009081526001602090815260408083208151608081018352905461ffff81168252620100008104861693820193909352600160601b8304851681830152600160b01b9092049093166060820152915163641f2bad60e01b81526001600160a01b03848116600483015291929183917f00000000000000000000000000000000000000000000000000000000000000009091169063641f2bad90602401602060405180830381865afa158015610475573d6000803e3d6000fd5b505050506040513d601f19601f820116820180604052508101906104999190610c37565b9050806001600160501b031682602001516001600160501b03161480156104c857506001600160501b03811615155b156104d65760019250610598565b60608201516001600160501b03908116600090815260016020526040902054620100009004811690821614801561051557506001600160501b03811615155b156105235760019250610598565b60608201516001600160501b031660009081526002602090815260408083206001600160a01b038816845290915290205460ff16156105655760019250610598565b6001600160501b03851660009081526002602090815260408083206001600160a01b038816845290915290205460ff1692505b505092915050565b6001600160501b0380831660009081526001602090815260408083208151608081018352905461ffff81168252620100008104861693820193909352600160601b8304851691810191909152600160b01b9091048316606082015290918316158061060e5750805161ffff16155b1561061c5760009150610678565b826001600160501b031681602001516001600160501b0316036106425760019150610678565b60608101516001600160501b03908116600090815260016020526040902054818516620100009091049091160361067857600191505b5092915050565b6000836001600160501b0316600003610765576001600160501b0385161580610742575060405163641f2bad60e01b81523360048201526001600160501b038616907f00000000000000000000000000000000000000000000000000000000000000006001600160a01b03169063641f2bad90602401602060405180830381865afa158015610712573d6000803e3d6000fd5b505050506040513d601f19601f820116820180604052508101906107369190610c37565b6001600160501b031614155b156107605760405163444a90d360e01b815260040160405180910390fd5b61078c565b61076f84336103b0565b61078c5760405163444a90d360e01b815260040160405180910390fd5b6001600160501b038316158015906107be57506001600160501b03831660009081526001602052604090205461ffff16155b156107dc5760405163444a90d360e01b815260040160405180910390fd5b6000805481906107f4906001600160501b0316610c54565b82546101009290920a6001600160501b0381810219909316828416918202179093556040805160808101825261ffff8b81168083528b861660208085018281528d89168688018181528e8b166060890181815260008e8152600187528b902099518a5495519351915199166bffffffffffffffffffffffff199095169490941762010000928d1692909202919091176bffffffffffffffffffffffff16600160601b938c16939093026001600160b01b031692909217600160b01b96909a16959095029890981790945584519283529282019590955292955093917f6ba48f242e360abd31e542a6943c51523a2c468943548d92587cd51593b628e0910160405180910390a481511561094357806001600160501b03167f8e7fde9cb7d4699e77445422070e2285198d541965d738e86f5b6fddf91390228360405161093a9190610be2565b60405180910390a25b95945050505050565b6001600160501b038116811461096157600080fd5b50565b60006020828403121561097657600080fd5b81356109818161094c565b9392505050565b80356001600160a01b038116811461099f57600080fd5b919050565b600080604083850312156109b757600080fd5b82356109c28161094c565b91506109d060208401610988565b90509250929050565b634e487b7160e01b600052604160045260246000fd5b600082601f830112610a0057600080fd5b813567ffffffffffffffff80821115610a1b57610a1b6109d9565b604051601f8301601f19908116603f01168101908282118183101715610a4357610a436109d9565b81604052838152866020858801011115610a5c57600080fd5b836020870160208301376000602085830101528094505050505092915050565b60008060408385031215610a8f57600080fd5b8235610a9a8161094c565b9150602083013567ffffffffffffffff811115610ab657600080fd5b610ac2858286016109ef565b9150509250929050565b600080600060608486031215610ae157600080fd5b8335610aec8161094c565b9250610afa60208501610988565b915060408401358015158114610b0f57600080fd5b809150509250925092565b60008060408385031215610b2d57600080fd5b8235610b388161094c565b91506020830135610b488161094c565b809150509250929050565b600080600080600060a08688031215610b6b57600080fd5b853561ffff81168114610b7d57600080fd5b94506020860135610b8d8161094c565b93506040860135610b9d8161094c565b92506060860135610bad8161094c565b9150608086013567ffffffffffffffff811115610bc957600080fd5b610bd5888289016109ef565b9150509295509295909350565b600060208083528351808285015260005b81811015610c0f57858101830151858201604001528201610bf3565b81811115610c21576000604083870101525b50601f01601f1916929092016040019392505050565b600060208284031215610c4957600080fd5b81516109818161094c565b60006001600160501b03808316818103610c7e57634e487b7160e01b600052601160045260246000fd5b600101939250505056fea2646970667358221220bdf3f553e6d485736b803ae8cb80e79af17a7026a1174546b4308c4c58d51a1b64736f6c634300080d0033",
  "linkReferences": {},
  "deployedLinkReferences": {}
}