{
  "_format": "hh-sol-artifact-1",
  "contractName": "Registry",
  "sourceName": "contracts/Registry.sol",
  "abi": [
    {
      "inputs": [
        {
          "internalType": "contract Core",
          "name": "_core",
          "type": "address"
        }
      ],
      "stateMutability": "nonpayable",
      "type": "constructor"
    },
    {
      "inputs": [],
      "name": "NotAuthorized",
      "type": "error"
    },
    {
      "inputs": [],
      "name": "core",
      "outputs": [
        {
          "internalType": "contract Core",
          "name": "",
          "type": "address"
        }
      ],
      "stateMutability": "view",
      "type": "function"
    },
    {
      "inputs": [
        {
          "internalType": "uint256",
          "name": "metalabelId",
          "type": "uint256"
        },
        {
          "internalType": "string",
          "name": "metadataUri",
          "type": "string"
        }
      ],
      "name": "createReleaseAndDrop",
      "outputs": [],
      "stateMutability": "nonpayable",
      "type": "function"
    },
    {
      "inputs": [
        {
          "internalType": "address",
          "name": "admin",
          "type": "address"
        },
        {
          "internalType": "string",
          "name": "metadataUri",
          "type": "string"
        }
      ],
      "name": "launchMetalabelAndSquad",
      "outputs": [],
      "stateMutability": "nonpayable",
      "type": "function"
    }
  ],
  "bytecode": "0x60a060405234801561001057600080fd5b5060405161044038038061044083398101604081905261002f91610040565b6001600160a01b0316608052610070565b60006020828403121561005257600080fd5b81516001600160a01b038116811461006957600080fd5b9392505050565b6080516103a96100976000396000818160600152818160c8015261016101526103a96000f3fe608060405234801561001057600080fd5b50600436106100415760003560e01c8063542649f514610046578063f2f4eb261461005b578063ff6655351461009e575b600080fd5b610059610054366004610226565b6100b1565b005b6100827f000000000000000000000000000000000000000000000000000000000000000081565b6040516001600160a01b03909116815260200160405180910390f35b6100596100ac366004610287565b61014a565b6040516340c3656560e11b81526001600160a01b037f00000000000000000000000000000000000000000000000000000000000000001690638186caca90610101908690869086906004016102e3565b6020604051808303816000875af1158015610120573d6000803e3d6000fd5b505050506040513d601f19601f820116820180604052508101906101449190610311565b50505050565b60405163e348cf4760e01b81526001600160a01b037f0000000000000000000000000000000000000000000000000000000000000000169063e348cf479061019a9086908690869060040161032a565b6020604051808303816000875af11580156101b9573d6000803e3d6000fd5b505050506040513d601f19601f820116820180604052508101906101449190610344565b60008083601f8401126101ef57600080fd5b50813567ffffffffffffffff81111561020757600080fd5b60208301915083602082850101111561021f57600080fd5b9250929050565b60008060006040848603121561023b57600080fd5b83356001600160a01b038116811461025257600080fd5b9250602084013567ffffffffffffffff81111561026e57600080fd5b61027a868287016101dd565b9497909650939450505050565b60008060006040848603121561029c57600080fd5b83359250602084013567ffffffffffffffff81111561026e57600080fd5b81835281816020850137506000828201602090810191909152601f909101601f19169091010190565b6001600160a01b038416815260406020820181905260009061030890830184866102ba565b95945050505050565b60006020828403121561032357600080fd5b5051919050565b8381526040602082015260006103086040830184866102ba565b60006020828403121561035657600080fd5b815165ffffffffffff8116811461036c57600080fd5b939250505056fea264697066735822122059d612dadc82a472b3c09dbeb9e64da635c19247474747642c395800badc213064736f6c634300080d0033",
  "linkReferences": {},
  "deployedLinkReferences": {}
}