{
  "_format": "hh-sol-artifact-1",
  "contractName": "RevenueModuleFactory",
  "sourceName": "contracts/RevenueModuleFactory.sol",
  "abi": [
    {
      "inputs": [
        {
          "internalType": "contract INodeRegistry",
          "name": "_nodeRegistry",
          "type": "address"
        },
        {
          "internalType": "contract ISplitMain",
          "name": "_splits",
          "type": "address"
        },
        {
          "internalType": "contract IWaterfallModuleFactory",
          "name": "_waterfallFactory",
          "type": "address"
        }
      ],
      "stateMutability": "nonpayable",
      "type": "constructor"
    },
    {
      "inputs": [],
      "name": "NotAuthorized",
      "type": "error"
    },
    {
      "anonymous": false,
      "inputs": [
        {
          "indexed": true,
          "internalType": "address",
          "name": "resource",
          "type": "address"
        },
        {
          "indexed": false,
          "internalType": "string",
          "name": "topic",
          "type": "string"
        },
        {
          "indexed": false,
          "internalType": "string",
          "name": "message",
          "type": "string"
        }
      ],
      "name": "ResourceBroadcast",
      "type": "event"
    },
    {
      "anonymous": false,
      "inputs": [
        {
          "indexed": true,
          "internalType": "address",
          "name": "waterfall",
          "type": "address"
        },
        {
          "indexed": true,
          "internalType": "address",
          "name": "split",
          "type": "address"
        },
        {
          "components": [
            {
              "internalType": "address",
              "name": "token",
              "type": "address"
            },
            {
              "internalType": "address[]",
              "name": "waterfallRecipients",
              "type": "address[]"
            },
            {
              "internalType": "uint256[]",
              "name": "waterfallThresholds",
              "type": "uint256[]"
            },
            {
              "internalType": "address[]",
              "name": "splitRecipients",
              "type": "address[]"
            },
            {
              "internalType": "uint32[]",
              "name": "splitPercentAllocations",
              "type": "uint32[]"
            },
            {
              "internalType": "uint32",
              "name": "splitDistributorFee",
              "type": "uint32"
            },
            {
              "internalType": "uint64",
              "name": "controlNodeId",
              "type": "uint64"
            },
            {
              "internalType": "string",
              "name": "metadata",
              "type": "string"
            }
          ],
          "indexed": false,
          "internalType": "struct DeployRevenueModuleConfig",
          "name": "config",
          "type": "tuple"
        }
      ],
      "name": "RevenueModuleDeployed",
      "type": "event"
    },
    {
      "inputs": [
        {
          "internalType": "address",
          "name": "resource",
          "type": "address"
        },
        {
          "internalType": "string",
          "name": "topic",
          "type": "string"
        },
        {
          "internalType": "string",
          "name": "message",
          "type": "string"
        }
      ],
      "name": "broadcast",
      "outputs": [],
      "stateMutability": "nonpayable",
      "type": "function"
    },
    {
      "inputs": [
        {
          "internalType": "address",
          "name": "resource",
          "type": "address"
        },
        {
          "internalType": "string",
          "name": "topic",
          "type": "string"
        },
        {
          "internalType": "string",
          "name": "message",
          "type": "string"
        }
      ],
      "name": "broadcastAndStore",
      "outputs": [],
      "stateMutability": "nonpayable",
      "type": "function"
    },
    {
      "inputs": [
        {
          "internalType": "address",
          "name": "",
          "type": "address"
        }
      ],
      "name": "controlNode",
      "outputs": [
        {
          "internalType": "uint64",
          "name": "",
          "type": "uint64"
        }
      ],
      "stateMutability": "view",
      "type": "function"
    },
    {
      "inputs": [
        {
          "components": [
            {
              "internalType": "address",
              "name": "token",
              "type": "address"
            },
            {
              "internalType": "address[]",
              "name": "waterfallRecipients",
              "type": "address[]"
            },
            {
              "internalType": "uint256[]",
              "name": "waterfallThresholds",
              "type": "uint256[]"
            },
            {
              "internalType": "address[]",
              "name": "splitRecipients",
              "type": "address[]"
            },
            {
              "internalType": "uint32[]",
              "name": "splitPercentAllocations",
              "type": "uint32[]"
            },
            {
              "internalType": "uint32",
              "name": "splitDistributorFee",
              "type": "uint32"
            },
            {
              "internalType": "uint64",
              "name": "controlNodeId",
              "type": "uint64"
            },
            {
              "internalType": "string",
              "name": "metadata",
              "type": "string"
            }
          ],
          "internalType": "struct DeployRevenueModuleConfig",
          "name": "config",
          "type": "tuple"
        }
      ],
      "name": "deployRevenueModule",
      "outputs": [
        {
          "internalType": "address",
          "name": "waterfall",
          "type": "address"
        },
        {
          "internalType": "address",
          "name": "split",
          "type": "address"
        }
      ],
      "stateMutability": "nonpayable",
      "type": "function"
    },
    {
      "inputs": [
        {
          "internalType": "address",
          "name": "",
          "type": "address"
        },
        {
          "internalType": "string",
          "name": "",
          "type": "string"
        }
      ],
      "name": "messageStorage",
      "outputs": [
        {
          "internalType": "string",
          "name": "",
          "type": "string"
        }
      ],
      "stateMutability": "view",
      "type": "function"
    },
    {
      "inputs": [],
      "name": "nodeRegistry",
      "outputs": [
        {
          "internalType": "contract INodeRegistry",
          "name": "",
          "type": "address"
        }
      ],
      "stateMutability": "view",
      "type": "function"
    },
    {
      "inputs": [],
      "name": "splits",
      "outputs": [
        {
          "internalType": "contract ISplitMain",
          "name": "",
          "type": "address"
        }
      ],
      "stateMutability": "view",
      "type": "function"
    },
    {
      "inputs": [],
      "name": "waterfallFactory",
      "outputs": [
        {
          "internalType": "contract IWaterfallModuleFactory",
          "name": "",
          "type": "address"
        }
      ],
      "stateMutability": "view",
      "type": "function"
    }
  ],
  "bytecode": "0x60e060405234801561001057600080fd5b5060405161132338038061132383398101604081905261002f91610064565b6001600160a01b0392831660805290821660a0521660c0526100b1565b6001600160a01b038116811461006157600080fd5b50565b60008060006060848603121561007957600080fd5b83516100848161004c565b60208501519093506100958161004c565b60408501519092506100a68161004c565b809150509250925092565b60805160a05160c0516112216101026000396000818161017401526104ad01526000818160df01526102cd01526000818161019b015281816101ea01528181610632015261079e01526112216000f3fe608060405234801561001057600080fd5b50600436106100885760003560e01c8063b929a8ae1161005b578063b929a8ae1461012c578063c38b12591461016f578063d9b5c4a514610196578063f1c1f059146101bd57600080fd5b80630edf76c71461008d5780634fd8ae89146100c55780636cbdec7d146100da5780636dbb47b514610119575b600080fd5b6100a061009b366004610918565b6101dd565b604080516001600160a01b039384168152929091166020830152015b60405180910390f35b6100d86100d33660046109cc565b6105ef565b005b6101017f000000000000000000000000000000000000000000000000000000000000000081565b6040516001600160a01b0390911681526020016100bc565b6100d86101273660046109cc565b61075b565b61015661013a366004610a4f565b60016020526000908152604090205467ffffffffffffffff1681565b60405167ffffffffffffffff90911681526020016100bc565b6101017f000000000000000000000000000000000000000000000000000000000000000081565b6101017f000000000000000000000000000000000000000000000000000000000000000081565b6101d06101cb366004610a82565b610865565b6040516100bc9190610b46565b6000806001600160a01b037f000000000000000000000000000000000000000000000000000000000000000016634acbb4be61021f60e0860160c08701610bac565b6040517fffffffff0000000000000000000000000000000000000000000000000000000060e084901b16815267ffffffffffffffff9091166004820152336024820152604401602060405180830381865afa158015610282573d6000803e3d6000fd5b505050506040513d601f19601f820116820180604052508101906102a69190610bc7565b6102c35760405163ea8e4eb560e01b815260040160405180910390fd5b6001600160a01b037f000000000000000000000000000000000000000000000000000000000000000016637601f7826102ff6060860186610be9565b61030c6080880188610be9565b61031c60c08a0160a08b01610c47565b60006040518763ffffffff1660e01b815260040161033f96959493929190610ce4565b6020604051808303816000875af115801561035e573d6000803e3d6000fd5b505050506040513d601f19601f820116820180604052508101906103829190610d34565b905060006103936020850185610be9565b61039f91506001610d67565b67ffffffffffffffff8111156103b7576103b7610a6c565b6040519080825280602002602001820160405280156103e0578160200160208202803683370190505b50905060005b6103f36020860186610be9565b905081101561046a576104096020860186610be9565b8281811061041957610419610d80565b905060200201602081019061042e9190610a4f565b82828151811061044057610440610d80565b6001600160a01b03909216602092830291909101909101528061046281610d96565b9150506103e6565b5081816001835161047b9190610daf565b8151811061048b5761048b610d80565b60200260200101906001600160a01b031690816001600160a01b0316815250507f00000000000000000000000000000000000000000000000000000000000000006001600160a01b031663c93793f38560000160208101906104ed9190610a4f565b84846104fc60408a018a610be9565b6040518663ffffffff1660e01b815260040161051c959493929190610e0d565b6020604051808303816000875af115801561053b573d6000803e3d6000fd5b505050506040513d601f19601f8201168201806040525081019061055f9190610d34565b925061057160e0850160c08601610bac565b6001600160a01b0384811660008181526001602052604090819020805467ffffffffffffffff191667ffffffffffffffff9590951694909417909355915190841691907f3099cd8e4377ae77043ad3eaf9b8378b4821c82145cc78c0525c6164717a401c906105e1908890610f3e565b60405180910390a350915091565b6001600160a01b0385811660009081526001602052604090819020549051632565da5f60e11b815267ffffffffffffffff909116600482015233602482015286917f00000000000000000000000000000000000000000000000000000000000000001690634acbb4be90604401602060405180830381865afa158015610679573d6000803e3d6000fd5b505050506040513d601f19601f8201168201806040525081019061069d9190610bc7565b6106ba5760405163ea8e4eb560e01b815260040160405180910390fd5b8282600080896001600160a01b03166001600160a01b0316815260200190815260200160002087876040516106f092919061106a565b9081526020016040518091039020918261070b929190611103565b50856001600160a01b03167f091d81fa1963b57ce1a1e48a7c007897995d20188e9ef8657cf6ab13e8cc61858686868660405161074b94939291906111c4565b60405180910390a2505050505050565b6001600160a01b0385811660009081526001602052604090819020549051632565da5f60e11b815267ffffffffffffffff909116600482015233602482015286917f00000000000000000000000000000000000000000000000000000000000000001690634acbb4be90604401602060405180830381865afa1580156107e5573d6000803e3d6000fd5b505050506040513d601f19601f820116820180604052508101906108099190610bc7565b6108265760405163ea8e4eb560e01b815260040160405180910390fd5b856001600160a01b03167f091d81fa1963b57ce1a1e48a7c007897995d20188e9ef8657cf6ab13e8cc61858686868660405161074b94939291906111c4565b60006020818152928152604090208151808301840180519281529084019290930191909120915280546108979061107a565b80601f01602080910402602001604051908101604052809291908181526020018280546108c39061107a565b80156109105780601f106108e557610100808354040283529160200191610910565b820191906000526020600020905b8154815290600101906020018083116108f357829003601f168201915b505050505081565b60006020828403121561092a57600080fd5b813567ffffffffffffffff81111561094157600080fd5b8201610100818503121561095457600080fd5b9392505050565b6001600160a01b038116811461097057600080fd5b50565b803561097e8161095b565b919050565b60008083601f84011261099557600080fd5b50813567ffffffffffffffff8111156109ad57600080fd5b6020830191508360208285010111156109c557600080fd5b9250929050565b6000806000806000606086880312156109e457600080fd5b85356109ef8161095b565b9450602086013567ffffffffffffffff80821115610a0c57600080fd5b610a1889838a01610983565b90965094506040880135915080821115610a3157600080fd5b50610a3e88828901610983565b969995985093965092949392505050565b600060208284031215610a6157600080fd5b81356109548161095b565b634e487b7160e01b600052604160045260246000fd5b60008060408385031215610a9557600080fd5b8235610aa08161095b565b9150602083013567ffffffffffffffff80821115610abd57600080fd5b818501915085601f830112610ad157600080fd5b813581811115610ae357610ae3610a6c565b604051601f8201601f19908116603f01168101908382118183101715610b0b57610b0b610a6c565b81604052828152886020848701011115610b2457600080fd5b8260208601602083013760006020848301015280955050505050509250929050565b600060208083528351808285015260005b81811015610b7357858101830151858201604001528201610b57565b506000604082860101526040601f19601f8301168501019250505092915050565b803567ffffffffffffffff8116811461097e57600080fd5b600060208284031215610bbe57600080fd5b61095482610b94565b600060208284031215610bd957600080fd5b8151801515811461095457600080fd5b6000808335601e19843603018112610c0057600080fd5b83018035915067ffffffffffffffff821115610c1b57600080fd5b6020019150600581901b36038213156109c557600080fd5b803563ffffffff8116811461097e57600080fd5b600060208284031215610c5957600080fd5b61095482610c33565b8183526000602080850194508260005b85811015610ca0578135610c858161095b565b6001600160a01b031687529582019590820190600101610c72565b509495945050505050565b8183526000602080850194508260005b85811015610ca05763ffffffff610cd183610c33565b1687529582019590820190600101610cbb565b608081526000610cf860808301888a610c62565b8281036020840152610d0b818789610cab565b91505063ffffffff841660408301526001600160a01b0383166060830152979650505050505050565b600060208284031215610d4657600080fd5b81516109548161095b565b634e487b7160e01b600052601160045260246000fd5b80820180821115610d7a57610d7a610d51565b92915050565b634e487b7160e01b600052603260045260246000fd5b600060018201610da857610da8610d51565b5060010190565b81810381811115610d7a57610d7a610d51565b81835260007f07ffffffffffffffffffffffffffffffffffffffffffffffffffffffffffffff831115610df457600080fd5b8260051b80836020870137939093016020019392505050565b6000608082016001600160a01b0380891684526020818916818601526080604086015282885180855260a087019150828a01945060005b81811015610e62578551851683529483019491830191600101610e44565b50508581036060870152610e7781888a610dc2565b9b9a5050505050505050505050565b6000808335601e19843603018112610e9d57600080fd5b830160208101925035905067ffffffffffffffff811115610ebd57600080fd5b8060051b36038213156109c557600080fd5b6000808335601e19843603018112610ee657600080fd5b830160208101925035905067ffffffffffffffff811115610f0657600080fd5b8036038213156109c557600080fd5b81835281816020850137506000828201602090810191909152601f909101601f19169091010190565b60208152610f5f60208201610f5284610973565b6001600160a01b03169052565b6000610f6e6020840184610e86565b610100806040860152610f8661012086018385610c62565b9250610f956040870187610e86565b9250601f1980878603016060880152610faf858584610dc2565b9450610fbe6060890189610e86565b9450915080878603016080880152610fd7858584610c62565b9450610fe66080890189610e86565b94509150808786030160a0880152610fff858584610cab565b945061100d60a08901610c33565b63ffffffff811660c0890152935061102760c08901610b94565b67ffffffffffffffff811660e0890152935061104660e0890189610ecf565b945091508087860301838801525061105f848483610f15565b979650505050505050565b8183823760009101908152919050565b600181811c9082168061108e57607f821691505b6020821081036110ae57634e487b7160e01b600052602260045260246000fd5b50919050565b601f8211156110fe57600081815260208120601f850160051c810160208610156110db5750805b601f850160051c820191505b818110156110fa578281556001016110e7565b5050505b505050565b67ffffffffffffffff83111561111b5761111b610a6c565b61112f83611129835461107a565b836110b4565b6000601f841160018114611163576000851561114b5750838201355b600019600387901b1c1916600186901b1783556111bd565b600083815260209020601f19861690835b828110156111945786850135825560209485019460019092019101611174565b50868210156111b15760001960f88860031b161c19848701351681555b505060018560011b0183555b5050505050565b6040815260006111d8604083018688610f15565b828103602084015261105f818587610f1556fea2646970667358221220403a7cab608fb20efc172c16a8b810f243c787be9140dfbc744bac91a1b8899d64736f6c63430008110033",
  "linkReferences": {},
  "deployedLinkReferences": {}
}