{
  "_format": "hh-sol-artifact-1",
  "contractName": "SimpleNameAuthority",
  "sourceName": "contracts/SimpleNameAuthority.sol",
  "abi": [
    {
      "inputs": [
        {
          "internalType": "contract IAccountRegistry",
          "name": "_accounts",
          "type": "address"
        }
      ],
      "stateMutability": "nonpayable",
      "type": "constructor"
    },
    {
      "inputs": [],
      "name": "NameAlreadyExists",
      "type": "error"
    },
    {
      "inputs": [],
      "name": "NotAuthorized",
      "type": "error"
    },
    {
      "anonymous": false,
      "inputs": [
        {
          "indexed": false,
          "internalType": "string",
          "name": "name",
          "type": "string"
        },
        {
          "indexed": false,
          "internalType": "uint64",
          "name": "id",
          "type": "uint64"
        }
      ],
      "name": "NameRegistered",
      "type": "event"
    },
    {
      "inputs": [
        {
          "internalType": "string",
          "name": "oldName",
          "type": "string"
        },
        {
          "internalType": "string",
          "name": "newName",
          "type": "string"
        }
      ],
      "name": "changeName",
      "outputs": [],
      "stateMutability": "nonpayable",
      "type": "function"
    },
    {
      "inputs": [
        {
          "internalType": "string",
          "name": "name",
          "type": "string"
        },
        {
          "internalType": "string",
          "name": "metadata",
          "type": "string"
        }
      ],
      "name": "createAccountWithName",
      "outputs": [
        {
          "internalType": "uint64",
          "name": "id",
          "type": "uint64"
        }
      ],
      "stateMutability": "nonpayable",
      "type": "function"
    },
    {
      "inputs": [
        {
          "internalType": "string",
          "name": "",
          "type": "string"
        }
      ],
      "name": "names",
      "outputs": [
        {
          "internalType": "uint64",
          "name": "",
          "type": "uint64"
        }
      ],
      "stateMutability": "view",
      "type": "function"
    }
  ],
  "bytecode": "0x60a060405234801561001057600080fd5b5060405161066538038061066583398101604081905261002f91610040565b6001600160a01b0316608052610070565b60006020828403121561005257600080fd5b81516001600160a01b038116811461006957600080fd5b9392505050565b6080516105d46100916000396000818160d801526101fe01526105d46000f3fe608060405234801561001057600080fd5b50600436106100415760003560e01c8063822fbf581461004657806386575e40146100985780638a78805c146100ad575b600080fd5b61007b610054366004610372565b805160208183018101805160008252928201919093012091525467ffffffffffffffff1681565b60405167ffffffffffffffff909116815260200160405180910390f35b6100ab6100a636600461046c565b6100c0565b005b61007b6100bb36600461046c565b6101e4565b60405163641f2bad60e01b81523360048201526000907f00000000000000000000000000000000000000000000000000000000000000006001600160a01b03169063641f2bad90602401602060405180830381865afa158015610127573d6000803e3d6000fd5b505050506040513d601f19601f8201168201806040525081019061014b91906104d8565b90508067ffffffffffffffff166000868660405161016a929190610509565b9081526040519081900360200190205467ffffffffffffffff16146101a25760405163ea8e4eb560e01b815260040160405180910390fd5b600085856040516101b4929190610509565b908152604051908190036020019020805467ffffffffffffffff191690556101dd83838361028f565b5050505050565b6040516309967ce560e21b81526000906001600160a01b037f00000000000000000000000000000000000000000000000000000000000000001690632659f3949061023790339087908790600401610542565b6020604051808303816000875af1158015610256573d6000803e3d6000fd5b505050506040513d601f19601f8201168201806040525081019061027a91906104d8565b905061028785858361028f565b949350505050565b600083836040516102a1929190610509565b9081526040519081900360200190205467ffffffffffffffff16156102d957604051633480a50360e21b815260040160405180910390fd5b80600084846040516102ec929190610509565b908152604051908190036020018120805467ffffffffffffffff9390931667ffffffffffffffff19909316929092179091557f1ff190b6440faf90f6bc79e90263ca4104a892dc7ca6c25d2928345183867e029061034f90859085908590610570565b60405180910390a1505050565b634e487b7160e01b600052604160045260246000fd5b60006020828403121561038457600080fd5b813567ffffffffffffffff8082111561039c57600080fd5b818401915084601f8301126103b057600080fd5b8135818111156103c2576103c261035c565b604051601f8201601f19908116603f011681019083821181831017156103ea576103ea61035c565b8160405282815287602084870101111561040357600080fd5b826020860160208301376000928101602001929092525095945050505050565b60008083601f84011261043557600080fd5b50813567ffffffffffffffff81111561044d57600080fd5b60208301915083602082850101111561046557600080fd5b9250929050565b6000806000806040858703121561048257600080fd5b843567ffffffffffffffff8082111561049a57600080fd5b6104a688838901610423565b909650945060208701359150808211156104bf57600080fd5b506104cc87828801610423565b95989497509550505050565b6000602082840312156104ea57600080fd5b815167ffffffffffffffff8116811461050257600080fd5b9392505050565b8183823760009101908152919050565b81835281816020850137506000828201602090810191909152601f909101601f19169091010190565b6001600160a01b03841681526040602082018190526000906105679083018486610519565b95945050505050565b604081526000610584604083018587610519565b905067ffffffffffffffff8316602083015294935050505056fea264697066735822122001063ba2fee35961a5411fb67ebbfe7a3d67d3328dc41f2b66be0c0b4e5d1e7364736f6c634300080d0033",
  "linkReferences": {},
  "deployedLinkReferences": {}
}