{
  "_format": "hh-sol-artifact-1",
  "contractName": "SimpleNameAuthority",
  "sourceName": "contracts/SimpleNameAuthority.sol",
  "abi": [
    {
      "inputs": [
        {
          "internalType": "contract IAccountRegistry",
          "name": "_accounts",
          "type": "address"
        }
      ],
      "stateMutability": "nonpayable",
      "type": "constructor"
    },
    {
      "inputs": [],
      "name": "NameAlreadyExists",
      "type": "error"
    },
    {
      "inputs": [],
      "name": "NotAuthorized",
      "type": "error"
    },
    {
      "anonymous": false,
      "inputs": [
        {
          "indexed": false,
          "internalType": "string",
          "name": "name",
          "type": "string"
        },
        {
          "indexed": false,
          "internalType": "uint80",
          "name": "id",
          "type": "uint80"
        }
      ],
      "name": "NameRegistered",
      "type": "event"
    },
    {
      "inputs": [
        {
          "internalType": "string",
          "name": "oldName",
          "type": "string"
        },
        {
          "internalType": "string",
          "name": "newName",
          "type": "string"
        }
      ],
      "name": "changeName",
      "outputs": [],
      "stateMutability": "nonpayable",
      "type": "function"
    },
    {
      "inputs": [
        {
          "internalType": "string",
          "name": "name",
          "type": "string"
        }
      ],
      "name": "createAccountWithName",
      "outputs": [
        {
          "internalType": "uint80",
          "name": "id",
          "type": "uint80"
        }
      ],
      "stateMutability": "nonpayable",
      "type": "function"
    },
    {
      "inputs": [
        {
          "internalType": "string",
          "name": "",
          "type": "string"
        }
      ],
      "name": "names",
      "outputs": [
        {
          "internalType": "uint80",
          "name": "",
          "type": "uint80"
        }
      ],
      "stateMutability": "view",
      "type": "function"
    }
  ],
  "bytecode": "0x60a060405234801561001057600080fd5b5060405161065638038061065683398101604081905261002f91610040565b6001600160a01b0316608052610070565b60006020828403121561005257600080fd5b81516001600160a01b038116811461006957600080fd5b9392505050565b6080516105c56100916000396000818160d6015261017601526105c56000f3fe608060405234801561001057600080fd5b50600436106100415760003560e01c806320f7d9ec14610046578063822fbf581461007557806386575e40146100a9575b600080fd5b610059610054366004610398565b6100be565b6040516001600160501b03909116815260200160405180910390f35b6100596100833660046103f0565b80516020818301810180516000825292820191909301209152546001600160501b031681565b6100bc6100b73660046104a1565b61015e565b005b604051639859387b60e01b81523360048201526000907f00000000000000000000000000000000000000000000000000000000000000006001600160a01b031690639859387b906024016020604051808303816000875af1158015610127573d6000803e3d6000fd5b505050506040513d601f19601f8201168201806040525081019061014b919061050d565b9050610158838383610282565b92915050565b60405163641f2bad60e01b81523360048201526000907f00000000000000000000000000000000000000000000000000000000000000006001600160a01b03169063641f2bad90602401602060405180830381865afa1580156101c5573d6000803e3d6000fd5b505050506040513d601f19601f820116820180604052508101906101e9919061050d565b9050806001600160501b03166000868660405161020792919061053d565b908152604051908190036020019020546001600160501b03161461023e5760405163ea8e4eb560e01b815260040160405180910390fd5b6000858560405161025092919061053d565b908152604051908190036020019020805469ffffffffffffffffffff1916905561027b838383610282565b5050505050565b6000838360405161029492919061053d565b908152604051908190036020019020546001600160501b0316156102cb57604051633480a50360e21b815260040160405180910390fd5b80600084846040516102de92919061053d565b90815260405190819003602001812080546001600160501b039390931669ffffffffffffffffffff19909316929092179091557ffd79ffeef153fc10c349368c80dd25c57495a5132b992526edc6a4d205e49d9c906103429085908590859061054d565b60405180910390a1505050565b60008083601f84011261036157600080fd5b50813567ffffffffffffffff81111561037957600080fd5b60208301915083602082850101111561039157600080fd5b9250929050565b600080602083850312156103ab57600080fd5b823567ffffffffffffffff8111156103c257600080fd5b6103ce8582860161034f565b90969095509350505050565b634e487b7160e01b600052604160045260246000fd5b60006020828403121561040257600080fd5b813567ffffffffffffffff8082111561041a57600080fd5b818401915084601f83011261042e57600080fd5b813581811115610440576104406103da565b604051601f8201601f19908116603f01168101908382118183101715610468576104686103da565b8160405282815287602084870101111561048157600080fd5b826020860160208301376000928101602001929092525095945050505050565b600080600080604085870312156104b757600080fd5b843567ffffffffffffffff808211156104cf57600080fd5b6104db8883890161034f565b909650945060208701359150808211156104f457600080fd5b506105018782880161034f565b95989497509550505050565b60006020828403121561051f57600080fd5b81516001600160501b038116811461053657600080fd5b9392505050565b8183823760009101908152919050565b604081528260408201528284606083013760006060848301015260006060601f19601f86011683010190506001600160501b038316602083015294935050505056fea2646970667358221220c21e22e4fcd98fd50801639f84af706f3da8b9689598aa7198a8590a51e6220464736f6c634300080d0033",
  "linkReferences": {},
  "deployedLinkReferences": {}
}