{
  "_format": "hh-sol-artifact-1",
  "contractName": "SimpleNameAuthority",
  "sourceName": "contracts/SimpleNameAuthority.sol",
  "abi": [
    {
      "inputs": [
        {
          "internalType": "contract IAccountRegistry",
          "name": "_accounts",
          "type": "address"
        }
      ],
      "stateMutability": "nonpayable",
      "type": "constructor"
    },
    {
      "inputs": [],
      "name": "NameAlreadyExists",
      "type": "error"
    },
    {
      "inputs": [],
      "name": "NotAuthorized",
      "type": "error"
    },
    {
      "anonymous": false,
      "inputs": [
        {
          "indexed": false,
          "internalType": "string",
          "name": "name",
          "type": "string"
        },
        {
          "indexed": false,
          "internalType": "uint80",
          "name": "id",
          "type": "uint80"
        }
      ],
      "name": "NameRegistered",
      "type": "event"
    },
    {
      "inputs": [
        {
          "internalType": "string",
          "name": "oldName",
          "type": "string"
        },
        {
          "internalType": "string",
          "name": "newName",
          "type": "string"
        }
      ],
      "name": "changeName",
      "outputs": [],
      "stateMutability": "nonpayable",
      "type": "function"
    },
    {
      "inputs": [
        {
          "internalType": "string",
          "name": "name",
          "type": "string"
        },
        {
          "internalType": "string",
          "name": "metadata",
          "type": "string"
        }
      ],
      "name": "createAccountWithName",
      "outputs": [
        {
          "internalType": "uint80",
          "name": "id",
          "type": "uint80"
        }
      ],
      "stateMutability": "nonpayable",
      "type": "function"
    },
    {
      "inputs": [
        {
          "internalType": "string",
          "name": "",
          "type": "string"
        }
      ],
      "name": "names",
      "outputs": [
        {
          "internalType": "uint80",
          "name": "",
          "type": "uint80"
        }
      ],
      "stateMutability": "view",
      "type": "function"
    }
  ],
  "bytecode": "0x60a060405234801561001057600080fd5b5060405161066138038061066183398101604081905261002f91610040565b6001600160a01b0316608052610070565b60006020828403121561005257600080fd5b81516001600160a01b038116811461006957600080fd5b9392505050565b6080516105d06100916000396000818160d601526101fc01526105d06000f3fe608060405234801561001057600080fd5b50600436106100415760003560e01c8063822fbf581461004657806386575e40146100965780638a78805c146100ab575b600080fd5b61007a610054366004610370565b80516020818301810180516000825292820191909301209152546001600160501b031681565b6040516001600160501b03909116815260200160405180910390f35b6100a96100a436600461046a565b6100be565b005b61007a6100b936600461046a565b6101e2565b60405163641f2bad60e01b81523360048201526000907f00000000000000000000000000000000000000000000000000000000000000006001600160a01b03169063641f2bad90602401602060405180830381865afa158015610125573d6000803e3d6000fd5b505050506040513d601f19601f8201168201806040525081019061014991906104d6565b9050806001600160501b031660008686604051610167929190610506565b908152604051908190036020019020546001600160501b03161461019e5760405163ea8e4eb560e01b815260040160405180910390fd5b600085856040516101b0929190610506565b908152604051908190036020019020805469ffffffffffffffffffff191690556101db83838361028d565b5050505050565b6040516309967ce560e21b81526000906001600160a01b037f00000000000000000000000000000000000000000000000000000000000000001690632659f394906102359033908790879060040161053f565b6020604051808303816000875af1158015610254573d6000803e3d6000fd5b505050506040513d601f19601f8201168201806040525081019061027891906104d6565b905061028585858361028d565b949350505050565b6000838360405161029f929190610506565b908152604051908190036020019020546001600160501b0316156102d657604051633480a50360e21b815260040160405180910390fd5b80600084846040516102e9929190610506565b90815260405190819003602001812080546001600160501b039390931669ffffffffffffffffffff19909316929092179091557ffd79ffeef153fc10c349368c80dd25c57495a5132b992526edc6a4d205e49d9c9061034d9085908590859061056d565b60405180910390a1505050565b634e487b7160e01b600052604160045260246000fd5b60006020828403121561038257600080fd5b813567ffffffffffffffff8082111561039a57600080fd5b818401915084601f8301126103ae57600080fd5b8135818111156103c0576103c061035a565b604051601f8201601f19908116603f011681019083821181831017156103e8576103e861035a565b8160405282815287602084870101111561040157600080fd5b826020860160208301376000928101602001929092525095945050505050565b60008083601f84011261043357600080fd5b50813567ffffffffffffffff81111561044b57600080fd5b60208301915083602082850101111561046357600080fd5b9250929050565b6000806000806040858703121561048057600080fd5b843567ffffffffffffffff8082111561049857600080fd5b6104a488838901610421565b909650945060208701359150808211156104bd57600080fd5b506104ca87828801610421565b95989497509550505050565b6000602082840312156104e857600080fd5b81516001600160501b03811681146104ff57600080fd5b9392505050565b8183823760009101908152919050565b81835281816020850137506000828201602090810191909152601f909101601f19169091010190565b6001600160a01b03841681526040602082018190526000906105649083018486610516565b95945050505050565b604081526000610581604083018587610516565b90506001600160501b038316602083015294935050505056fea2646970667358221220e9c65e1ea780407aaf7cf32627f336117d0b3740f0186cab3fee79db4b3a0b0564736f6c634300080d0033",
  "linkReferences": {},
  "deployedLinkReferences": {}
}