{
  "_format": "hh-sol-artifact-1",
  "contractName": "SplitFactory",
  "sourceName": "contracts/SplitFactory.sol",
  "abi": [
    {
      "inputs": [
        {
          "internalType": "contract INodeRegistry",
          "name": "_nodeRegsitry",
          "type": "address"
        },
        {
          "internalType": "contract ISplitMain",
          "name": "_splits",
          "type": "address"
        }
      ],
      "stateMutability": "nonpayable",
      "type": "constructor"
    },
    {
      "inputs": [],
      "name": "NotAuthorized",
      "type": "error"
    },
    {
      "anonymous": false,
      "inputs": [
        {
          "indexed": true,
          "internalType": "address",
          "name": "resource",
          "type": "address"
        },
        {
          "indexed": false,
          "internalType": "string",
          "name": "topic",
          "type": "string"
        },
        {
          "indexed": false,
          "internalType": "string",
          "name": "message",
          "type": "string"
        }
      ],
      "name": "ResourceBroadcast",
      "type": "event"
    },
    {
      "anonymous": false,
      "inputs": [
        {
          "indexed": true,
          "internalType": "address",
          "name": "split",
          "type": "address"
        },
        {
          "indexed": false,
          "internalType": "uint64",
          "name": "nodeId",
          "type": "uint64"
        },
        {
          "indexed": false,
          "internalType": "address[]",
          "name": "accounts",
          "type": "address[]"
        },
        {
          "indexed": false,
          "internalType": "uint32[]",
          "name": "percentAllocations",
          "type": "uint32[]"
        },
        {
          "indexed": false,
          "internalType": "string",
          "name": "metadata",
          "type": "string"
        }
      ],
      "name": "SplitCreated",
      "type": "event"
    },
    {
      "inputs": [
        {
          "internalType": "address",
          "name": "split",
          "type": "address"
        },
        {
          "internalType": "string",
          "name": "topic",
          "type": "string"
        },
        {
          "internalType": "string",
          "name": "message",
          "type": "string"
        }
      ],
      "name": "broadcast",
      "outputs": [],
      "stateMutability": "nonpayable",
      "type": "function"
    },
    {
      "inputs": [
        {
          "internalType": "address",
          "name": "split",
          "type": "address"
        },
        {
          "internalType": "string",
          "name": "topic",
          "type": "string"
        },
        {
          "internalType": "string",
          "name": "message",
          "type": "string"
        }
      ],
      "name": "broadcastAndStore",
      "outputs": [],
      "stateMutability": "nonpayable",
      "type": "function"
    },
    {
      "inputs": [
        {
          "internalType": "address",
          "name": "",
          "type": "address"
        }
      ],
      "name": "controlNode",
      "outputs": [
        {
          "internalType": "uint64",
          "name": "",
          "type": "uint64"
        }
      ],
      "stateMutability": "view",
      "type": "function"
    },
    {
      "inputs": [
        {
          "internalType": "address[]",
          "name": "accounts",
          "type": "address[]"
        },
        {
          "internalType": "uint32[]",
          "name": "percentAllocations",
          "type": "uint32[]"
        },
        {
          "internalType": "uint32",
          "name": "distributorFee",
          "type": "uint32"
        },
        {
          "internalType": "uint64",
          "name": "controlNodeId",
          "type": "uint64"
        },
        {
          "internalType": "string",
          "name": "metadata",
          "type": "string"
        }
      ],
      "name": "createSplit",
      "outputs": [
        {
          "internalType": "address",
          "name": "split",
          "type": "address"
        }
      ],
      "stateMutability": "nonpayable",
      "type": "function"
    },
    {
      "inputs": [
        {
          "internalType": "address",
          "name": "",
          "type": "address"
        },
        {
          "internalType": "string",
          "name": "",
          "type": "string"
        }
      ],
      "name": "messageStorage",
      "outputs": [
        {
          "internalType": "string",
          "name": "",
          "type": "string"
        }
      ],
      "stateMutability": "view",
      "type": "function"
    },
    {
      "inputs": [],
      "name": "nodeRegistry",
      "outputs": [
        {
          "internalType": "contract INodeRegistry",
          "name": "",
          "type": "address"
        }
      ],
      "stateMutability": "view",
      "type": "function"
    },
    {
      "inputs": [],
      "name": "splits",
      "outputs": [
        {
          "internalType": "contract ISplitMain",
          "name": "",
          "type": "address"
        }
      ],
      "stateMutability": "view",
      "type": "function"
    }
  ],
  "bytecode": "0x60c060405234801561001057600080fd5b50604051610d99380380610d9983398101604081905261002f9161005e565b6001600160a01b039081166080521660a052610098565b6001600160a01b038116811461005b57600080fd5b50565b6000806040838503121561007157600080fd5b825161007c81610046565b602084015190925061008d81610046565b809150509250929050565b60805160a051610cc16100d860003960008181610149015281816101b3015281816103a5015261050601526000818160cc015261025a0152610cc16000f3fe608060405234801561001057600080fd5b506004361061007d5760003560e01c80636dbb47b51161005b5780636dbb47b5146100ee578063b929a8ae14610101578063d9b5c4a514610144578063f1c1f0591461016b57600080fd5b80632a45a9f9146100825780634fd8ae89146100b25780636cbdec7d146100c7575b600080fd5b6100956100903660046107c5565b61018b565b6040516001600160a01b0390911681526020015b60405180910390f35b6100c56100c03660046108a4565b610364565b005b6100957f000000000000000000000000000000000000000000000000000000000000000081565b6100c56100fc3660046108a4565b6104c5565b61012b61010f366004610927565b60006020819052908152604090205467ffffffffffffffff1681565b60405167ffffffffffffffff90911681526020016100a9565b6100957f000000000000000000000000000000000000000000000000000000000000000081565b61017e610179366004610961565b6105cf565b6040516100a99190610a25565b604051632565da5f60e11b815267ffffffffffffffff841660048201523360248201526000907f00000000000000000000000000000000000000000000000000000000000000006001600160a01b031690634acbb4be90604401602060405180830381865afa158015610202573d6000803e3d6000fd5b505050506040513d601f19601f820116820180604052508101906102269190610a7a565b6102435760405163ea8e4eb560e01b815260040160405180910390fd5b604051633b00fbc160e11b81526001600160a01b037f00000000000000000000000000000000000000000000000000000000000000001690637601f7829061029a908c908c908c908c908c90600090600401610b1e565b6020604051808303816000875af11580156102b9573d6000803e3d6000fd5b505050506040513d601f19601f820116820180604052508101906102dd9190610b6f565b6001600160a01b03811660008181526020819052604090819020805467ffffffffffffffff191667ffffffffffffffff891617905551919250907fd11e6b0a978bde400e413e81c3adbc60bab157ea9d7aa56e7341add1216fda86906103509087908d908d908d908d908b908b90610bb5565b60405180910390a298975050505050505050565b6001600160a01b0385811660009081526020819052604090819020549051632565da5f60e11b815267ffffffffffffffff90911660048201523360248201527f000000000000000000000000000000000000000000000000000000000000000090911690634acbb4be90604401602060405180830381865afa1580156103ee573d6000803e3d6000fd5b505050506040513d601f19601f820116820180604052508101906104129190610a7a565b61042f5760405163ea8e4eb560e01b815260040160405180910390fd5b6001600160a01b0385166000908152600160205260409081902090518391839161045c9088908890610c0f565b908152604051908190036020019020610476929091610685565b50846001600160a01b03167f091d81fa1963b57ce1a1e48a7c007897995d20188e9ef8657cf6ab13e8cc6185858585856040516104b69493929190610c1f565b60405180910390a25050505050565b6001600160a01b0385811660009081526020819052604090819020549051632565da5f60e11b815267ffffffffffffffff90911660048201523360248201527f000000000000000000000000000000000000000000000000000000000000000090911690634acbb4be90604401602060405180830381865afa15801561054f573d6000803e3d6000fd5b505050506040513d601f19601f820116820180604052508101906105739190610a7a565b6105905760405163ea8e4eb560e01b815260040160405180910390fd5b846001600160a01b03167f091d81fa1963b57ce1a1e48a7c007897995d20188e9ef8657cf6ab13e8cc6185858585856040516104b69493929190610c1f565b600160209081526000928352604090922081518083018401805192815290840192909301919091209152805461060490610c51565b80601f016020809104026020016040519081016040528092919081815260200182805461063090610c51565b801561067d5780601f106106525761010080835404028352916020019161067d565b820191906000526020600020905b81548152906001019060200180831161066057829003601f168201915b505050505081565b82805461069190610c51565b90600052602060002090601f0160209004810192826106b357600085556106f9565b82601f106106cc5782800160ff198235161785556106f9565b828001600101855582156106f9579182015b828111156106f95782358255916020019190600101906106de565b50610705929150610709565b5090565b5b80821115610705576000815560010161070a565b60008083601f84011261073057600080fd5b50813567ffffffffffffffff81111561074857600080fd5b6020830191508360208260051b850101111561076357600080fd5b9250929050565b803563ffffffff8116811461077e57600080fd5b919050565b60008083601f84011261079557600080fd5b50813567ffffffffffffffff8111156107ad57600080fd5b60208301915083602082850101111561076357600080fd5b60008060008060008060008060a0898b0312156107e157600080fd5b883567ffffffffffffffff808211156107f957600080fd5b6108058c838d0161071e565b909a50985060208b013591508082111561081e57600080fd5b61082a8c838d0161071e565b909850965086915061083e60408c0161076a565b955060608b01359150808216821461085557600080fd5b90935060808a0135908082111561086b57600080fd5b506108788b828c01610783565b999c989b5096995094979396929594505050565b6001600160a01b03811681146108a157600080fd5b50565b6000806000806000606086880312156108bc57600080fd5b85356108c78161088c565b9450602086013567ffffffffffffffff808211156108e457600080fd5b6108f089838a01610783565b9096509450604088013591508082111561090957600080fd5b5061091688828901610783565b969995985093965092949392505050565b60006020828403121561093957600080fd5b81356109448161088c565b9392505050565b634e487b7160e01b600052604160045260246000fd5b6000806040838503121561097457600080fd5b823561097f8161088c565b9150602083013567ffffffffffffffff8082111561099c57600080fd5b818501915085601f8301126109b057600080fd5b8135818111156109c2576109c261094b565b604051601f8201601f19908116603f011681019083821181831017156109ea576109ea61094b565b81604052828152886020848701011115610a0357600080fd5b8260208601602083013760006020848301015280955050505050509250929050565b600060208083528351808285015260005b81811015610a5257858101830151858201604001528201610a36565b81811115610a64576000604083870101525b50601f01601f1916929092016040019392505050565b600060208284031215610a8c57600080fd5b8151801515811461094457600080fd5b8183526000602080850194508260005b85811015610ada578135610abf8161088c565b6001600160a01b031687529582019590820190600101610aac565b509495945050505050565b8183526000602080850194508260005b85811015610ada5763ffffffff610b0b8361076a565b1687529582019590820190600101610af5565b608081526000610b3260808301888a610a9c565b8281036020840152610b45818789610ae5565b63ffffffff95909516604084015250506001600160a01b0391909116606090910152949350505050565b600060208284031215610b8157600080fd5b81516109448161088c565b81835281816020850137506000828201602090810191909152601f909101601f19169091010190565b67ffffffffffffffff88168152608060208201526000610bd960808301888a610a9c565b8281036040840152610bec818789610ae5565b90508281036060840152610c01818587610b8c565b9a9950505050505050505050565b8183823760009101908152919050565b604081526000610c33604083018688610b8c565b8281036020840152610c46818587610b8c565b979650505050505050565b600181811c90821680610c6557607f821691505b602082108103610c8557634e487b7160e01b600052602260045260246000fd5b5091905056fea2646970667358221220a9d8c8bb95c2453c5a74ecec9e45248f296959fc0c84a3430ce10397cb5bbb7c64736f6c634300080d0033",
  "linkReferences": {},
  "deployedLinkReferences": {}
}