{
  "_format": "hh-sol-artifact-1",
  "contractName": "SplitFactory",
  "sourceName": "contracts/SplitFactory.sol",
  "abi": [
    {
      "inputs": [
        {
          "internalType": "contract INodeRegistry",
          "name": "_nodeRegistry",
          "type": "address"
        },
        {
          "internalType": "contract ISplitMain",
          "name": "_splits",
          "type": "address"
        }
      ],
      "stateMutability": "nonpayable",
      "type": "constructor"
    },
    {
      "inputs": [],
      "name": "NotAuthorized",
      "type": "error"
    },
    {
      "anonymous": false,
      "inputs": [
        {
          "indexed": true,
          "internalType": "address",
          "name": "resource",
          "type": "address"
        },
        {
          "indexed": false,
          "internalType": "string",
          "name": "topic",
          "type": "string"
        },
        {
          "indexed": false,
          "internalType": "string",
          "name": "message",
          "type": "string"
        }
      ],
      "name": "ResourceBroadcast",
      "type": "event"
    },
    {
      "anonymous": false,
      "inputs": [
        {
          "indexed": true,
          "internalType": "address",
          "name": "split",
          "type": "address"
        },
        {
          "indexed": false,
          "internalType": "uint64",
          "name": "nodeId",
          "type": "uint64"
        },
        {
          "indexed": false,
          "internalType": "address[]",
          "name": "accounts",
          "type": "address[]"
        },
        {
          "indexed": false,
          "internalType": "uint32[]",
          "name": "percentAllocations",
          "type": "uint32[]"
        },
        {
          "indexed": false,
          "internalType": "string",
          "name": "metadata",
          "type": "string"
        }
      ],
      "name": "SplitCreated",
      "type": "event"
    },
    {
      "inputs": [
        {
          "internalType": "address",
          "name": "waterfall",
          "type": "address"
        },
        {
          "internalType": "string",
          "name": "topic",
          "type": "string"
        },
        {
          "internalType": "string",
          "name": "message",
          "type": "string"
        }
      ],
      "name": "broadcast",
      "outputs": [],
      "stateMutability": "nonpayable",
      "type": "function"
    },
    {
      "inputs": [
        {
          "internalType": "address",
          "name": "waterfall",
          "type": "address"
        },
        {
          "internalType": "string",
          "name": "topic",
          "type": "string"
        },
        {
          "internalType": "string",
          "name": "message",
          "type": "string"
        }
      ],
      "name": "broadcastAndStore",
      "outputs": [],
      "stateMutability": "nonpayable",
      "type": "function"
    },
    {
      "inputs": [
        {
          "internalType": "address",
          "name": "",
          "type": "address"
        }
      ],
      "name": "controlNode",
      "outputs": [
        {
          "internalType": "uint64",
          "name": "",
          "type": "uint64"
        }
      ],
      "stateMutability": "view",
      "type": "function"
    },
    {
      "inputs": [
        {
          "internalType": "address[]",
          "name": "accounts",
          "type": "address[]"
        },
        {
          "internalType": "uint32[]",
          "name": "percentAllocations",
          "type": "uint32[]"
        },
        {
          "internalType": "uint32",
          "name": "distributorFee",
          "type": "uint32"
        },
        {
          "internalType": "uint64",
          "name": "controlNodeId",
          "type": "uint64"
        },
        {
          "internalType": "string",
          "name": "metadata",
          "type": "string"
        }
      ],
      "name": "createSplit",
      "outputs": [
        {
          "internalType": "address",
          "name": "split",
          "type": "address"
        }
      ],
      "stateMutability": "nonpayable",
      "type": "function"
    },
    {
      "inputs": [
        {
          "internalType": "address",
          "name": "",
          "type": "address"
        },
        {
          "internalType": "string",
          "name": "",
          "type": "string"
        }
      ],
      "name": "messageStorage",
      "outputs": [
        {
          "internalType": "string",
          "name": "",
          "type": "string"
        }
      ],
      "stateMutability": "view",
      "type": "function"
    },
    {
      "inputs": [],
      "name": "nodeRegistry",
      "outputs": [
        {
          "internalType": "contract INodeRegistry",
          "name": "",
          "type": "address"
        }
      ],
      "stateMutability": "view",
      "type": "function"
    },
    {
      "inputs": [],
      "name": "splits",
      "outputs": [
        {
          "internalType": "contract ISplitMain",
          "name": "",
          "type": "address"
        }
      ],
      "stateMutability": "view",
      "type": "function"
    }
  ],
  "bytecode": "0x60c060405234801561001057600080fd5b50604051610da0380380610da083398101604081905261002f9161005e565b6001600160a01b039182166080521660a052610098565b6001600160a01b038116811461005b57600080fd5b50565b6000806040838503121561007157600080fd5b825161007c81610046565b602084015190925061008d81610046565b809150509250929050565b60805160a051610cc86100d86000396000818160cc015261025a015260008181610149015281816101b3015281816103a701526105120152610cc86000f3fe608060405234801561001057600080fd5b506004361061007d5760003560e01c80636dbb47b51161005b5780636dbb47b5146100ee578063b929a8ae14610101578063d9b5c4a514610144578063f1c1f0591461016b57600080fd5b80632a45a9f9146100825780634fd8ae89146100b25780636cbdec7d146100c7575b600080fd5b6100956100903660046107cc565b61018b565b6040516001600160a01b0390911681526020015b60405180910390f35b6100c56100c03660046108ab565b610364565b005b6100957f000000000000000000000000000000000000000000000000000000000000000081565b6100c56100fc3660046108ab565b6104cf565b61012b61010f36600461092e565b60016020526000908152604090205467ffffffffffffffff1681565b60405167ffffffffffffffff90911681526020016100a9565b6100957f000000000000000000000000000000000000000000000000000000000000000081565b61017e610179366004610968565b6105d9565b6040516100a99190610a2c565b604051632565da5f60e11b815267ffffffffffffffff841660048201523360248201526000907f00000000000000000000000000000000000000000000000000000000000000006001600160a01b031690634acbb4be90604401602060405180830381865afa158015610202573d6000803e3d6000fd5b505050506040513d601f19601f820116820180604052508101906102269190610a81565b6102435760405163ea8e4eb560e01b815260040160405180910390fd5b604051633b00fbc160e11b81526001600160a01b037f00000000000000000000000000000000000000000000000000000000000000001690637601f7829061029a908c908c908c908c908c90600090600401610b25565b6020604051808303816000875af11580156102b9573d6000803e3d6000fd5b505050506040513d601f19601f820116820180604052508101906102dd9190610b76565b6001600160a01b03811660008181526001602052604090819020805467ffffffffffffffff191667ffffffffffffffff891617905551919250907fd11e6b0a978bde400e413e81c3adbc60bab157ea9d7aa56e7341add1216fda86906103509087908d908d908d908d908b908b90610bbc565b60405180910390a298975050505050505050565b6001600160a01b0385811660009081526001602052604090819020549051632565da5f60e11b815267ffffffffffffffff909116600482015233602482015286917f00000000000000000000000000000000000000000000000000000000000000001690634acbb4be90604401602060405180830381865afa1580156103ee573d6000803e3d6000fd5b505050506040513d601f19601f820116820180604052508101906104129190610a81565b61042f5760405163ea8e4eb560e01b815260040160405180910390fd5b8282600080896001600160a01b03166001600160a01b031681526020019081526020016000208787604051610465929190610c16565b90815260405190819003602001902061047f92909161068c565b50856001600160a01b03167f091d81fa1963b57ce1a1e48a7c007897995d20188e9ef8657cf6ab13e8cc6185868686866040516104bf9493929190610c26565b60405180910390a2505050505050565b6001600160a01b0385811660009081526001602052604090819020549051632565da5f60e11b815267ffffffffffffffff909116600482015233602482015286917f00000000000000000000000000000000000000000000000000000000000000001690634acbb4be90604401602060405180830381865afa158015610559573d6000803e3d6000fd5b505050506040513d601f19601f8201168201806040525081019061057d9190610a81565b61059a5760405163ea8e4eb560e01b815260040160405180910390fd5b856001600160a01b03167f091d81fa1963b57ce1a1e48a7c007897995d20188e9ef8657cf6ab13e8cc6185868686866040516104bf9493929190610c26565b600060208181529281526040902081518083018401805192815290840192909301919091209152805461060b90610c58565b80601f016020809104026020016040519081016040528092919081815260200182805461063790610c58565b80156106845780601f1061065957610100808354040283529160200191610684565b820191906000526020600020905b81548152906001019060200180831161066757829003601f168201915b505050505081565b82805461069890610c58565b90600052602060002090601f0160209004810192826106ba5760008555610700565b82601f106106d35782800160ff19823516178555610700565b82800160010185558215610700579182015b828111156107005782358255916020019190600101906106e5565b5061070c929150610710565b5090565b5b8082111561070c5760008155600101610711565b60008083601f84011261073757600080fd5b50813567ffffffffffffffff81111561074f57600080fd5b6020830191508360208260051b850101111561076a57600080fd5b9250929050565b803563ffffffff8116811461078557600080fd5b919050565b60008083601f84011261079c57600080fd5b50813567ffffffffffffffff8111156107b457600080fd5b60208301915083602082850101111561076a57600080fd5b60008060008060008060008060a0898b0312156107e857600080fd5b883567ffffffffffffffff8082111561080057600080fd5b61080c8c838d01610725565b909a50985060208b013591508082111561082557600080fd5b6108318c838d01610725565b909850965086915061084560408c01610771565b955060608b01359150808216821461085c57600080fd5b90935060808a0135908082111561087257600080fd5b5061087f8b828c0161078a565b999c989b5096995094979396929594505050565b6001600160a01b03811681146108a857600080fd5b50565b6000806000806000606086880312156108c357600080fd5b85356108ce81610893565b9450602086013567ffffffffffffffff808211156108eb57600080fd5b6108f789838a0161078a565b9096509450604088013591508082111561091057600080fd5b5061091d8882890161078a565b969995985093965092949392505050565b60006020828403121561094057600080fd5b813561094b81610893565b9392505050565b634e487b7160e01b600052604160045260246000fd5b6000806040838503121561097b57600080fd5b823561098681610893565b9150602083013567ffffffffffffffff808211156109a357600080fd5b818501915085601f8301126109b757600080fd5b8135818111156109c9576109c9610952565b604051601f8201601f19908116603f011681019083821181831017156109f1576109f1610952565b81604052828152886020848701011115610a0a57600080fd5b8260208601602083013760006020848301015280955050505050509250929050565b600060208083528351808285015260005b81811015610a5957858101830151858201604001528201610a3d565b81811115610a6b576000604083870101525b50601f01601f1916929092016040019392505050565b600060208284031215610a9357600080fd5b8151801515811461094b57600080fd5b8183526000602080850194508260005b85811015610ae1578135610ac681610893565b6001600160a01b031687529582019590820190600101610ab3565b509495945050505050565b8183526000602080850194508260005b85811015610ae15763ffffffff610b1283610771565b1687529582019590820190600101610afc565b608081526000610b3960808301888a610aa3565b8281036020840152610b4c818789610aec565b63ffffffff95909516604084015250506001600160a01b0391909116606090910152949350505050565b600060208284031215610b8857600080fd5b815161094b81610893565b81835281816020850137506000828201602090810191909152601f909101601f19169091010190565b67ffffffffffffffff88168152608060208201526000610be060808301888a610aa3565b8281036040840152610bf3818789610aec565b90508281036060840152610c08818587610b93565b9a9950505050505050505050565b8183823760009101908152919050565b604081526000610c3a604083018688610b93565b8281036020840152610c4d818587610b93565b979650505050505050565b600181811c90821680610c6c57607f821691505b602082108103610c8c57634e487b7160e01b600052602260045260246000fd5b5091905056fea264697066735822122058a4e1481b904bd295b716b50eebc543f511b03f2aa7db1ec0af3f64c91f862864736f6c634300080d0033",
  "linkReferences": {},
  "deployedLinkReferences": {}
}