{
  "_format": "hh-sol-artifact-1",
  "contractName": "SplitFactory",
  "sourceName": "contracts/SplitFactory.sol",
  "abi": [
    {
      "inputs": [
        {
          "internalType": "contract INodeRegistry",
          "name": "_nodeRegsitry",
          "type": "address"
        },
        {
          "internalType": "contract ISplitMain",
          "name": "_splits",
          "type": "address"
        }
      ],
      "stateMutability": "nonpayable",
      "type": "constructor"
    },
    {
      "inputs": [],
      "name": "NotAuthorized",
      "type": "error"
    },
    {
      "anonymous": false,
      "inputs": [
        {
          "indexed": true,
          "internalType": "address",
          "name": "split",
          "type": "address"
        },
        {
          "indexed": false,
          "internalType": "uint80",
          "name": "nodeId",
          "type": "uint80"
        },
        {
          "indexed": false,
          "internalType": "address[]",
          "name": "accounts",
          "type": "address[]"
        },
        {
          "indexed": false,
          "internalType": "uint32[]",
          "name": "percentAllocations",
          "type": "uint32[]"
        },
        {
          "indexed": false,
          "internalType": "string",
          "name": "metadata",
          "type": "string"
        }
      ],
      "name": "SplitCreated",
      "type": "event"
    },
    {
      "inputs": [
        {
          "internalType": "address[]",
          "name": "accounts",
          "type": "address[]"
        },
        {
          "internalType": "uint32[]",
          "name": "percentAllocations",
          "type": "uint32[]"
        },
        {
          "internalType": "uint32",
          "name": "distributorFee",
          "type": "uint32"
        },
        {
          "internalType": "uint80",
          "name": "controlNodeId",
          "type": "uint80"
        },
        {
          "internalType": "string",
          "name": "metadata",
          "type": "string"
        }
      ],
      "name": "createSplit",
      "outputs": [
        {
          "internalType": "address",
          "name": "split",
          "type": "address"
        }
      ],
      "stateMutability": "nonpayable",
      "type": "function"
    },
    {
      "inputs": [
        {
          "internalType": "address",
          "name": "",
          "type": "address"
        }
      ],
      "name": "deployedSplits",
      "outputs": [
        {
          "internalType": "uint80",
          "name": "",
          "type": "uint80"
        }
      ],
      "stateMutability": "view",
      "type": "function"
    },
    {
      "inputs": [],
      "name": "nodeRegistry",
      "outputs": [
        {
          "internalType": "contract INodeRegistry",
          "name": "",
          "type": "address"
        }
      ],
      "stateMutability": "view",
      "type": "function"
    },
    {
      "inputs": [],
      "name": "splits",
      "outputs": [
        {
          "internalType": "contract ISplitMain",
          "name": "",
          "type": "address"
        }
      ],
      "stateMutability": "view",
      "type": "function"
    }
  ],
  "bytecode": "0x60c060405234801561001057600080fd5b5060405161070538038061070583398101604081905261002f9161005e565b6001600160a01b039081166080521660a052610098565b6001600160a01b038116811461005b57600080fd5b50565b6000806040838503121561007157600080fd5b825161007c81610046565b602084015190925061008d81610046565b809150509250929050565b60805160a05161063c6100c96000396000818160ad0152610137015260008181608601526101de015261063c6000f3fe608060405234801561001057600080fd5b506004361061004c5760003560e01c8063350de618146100515780636cbdec7d14610081578063d9b5c4a5146100a8578063e5fb43e3146100cf575b600080fd5b61006461005f36600461034e565b610110565b6040516001600160a01b0390911681526020015b60405180910390f35b6100647f000000000000000000000000000000000000000000000000000000000000000081565b6100647f000000000000000000000000000000000000000000000000000000000000000081565b6100f86100dd366004610461565b6000602081905290815260409020546001600160501b031681565b6040516001600160501b039091168152602001610078565b6040516303e1ae2d60e51b81526001600160501b03841660048201523360248201526000907f00000000000000000000000000000000000000000000000000000000000000006001600160a01b031690637c35c5a090604401602060405180830381865afa158015610186573d6000803e3d6000fd5b505050506040513d601f19601f820116820180604052508101906101aa9190610485565b6101c75760405163ea8e4eb560e01b815260040160405180910390fd5b604051633b00fbc160e11b81526001600160a01b037f00000000000000000000000000000000000000000000000000000000000000001690637601f7829061021e908c908c908c908c908c90600090600401610529565b6020604051808303816000875af115801561023d573d6000803e3d6000fd5b505050506040513d601f19601f82011682018060405250810190610261919061057a565b6001600160a01b03811660008181526020819052604090819020805469ffffffffffffffffffff19166001600160501b03891617905551919250907f6a2682b3e9a4d155161d15b89c0a2aa09e58da54edbf21e3b0bf425cb93e4c82906102d59087908d908d908d908d908b908b90610597565b60405180910390a298975050505050505050565b60008083601f8401126102fb57600080fd5b50813567ffffffffffffffff81111561031357600080fd5b6020830191508360208260051b850101111561032e57600080fd5b9250929050565b803563ffffffff8116811461034957600080fd5b919050565b60008060008060008060008060a0898b03121561036a57600080fd5b883567ffffffffffffffff8082111561038257600080fd5b61038e8c838d016102e9565b909a50985060208b01359150808211156103a757600080fd5b6103b38c838d016102e9565b90985096508691506103c760408c01610335565b955060608b013591506001600160501b03821682146103e557600080fd5b90935060808a013590808211156103fb57600080fd5b818b0191508b601f83011261040f57600080fd5b81358181111561041e57600080fd5b8c602082850101111561043057600080fd5b6020830194508093505050509295985092959890939650565b6001600160a01b038116811461045e57600080fd5b50565b60006020828403121561047357600080fd5b813561047e81610449565b9392505050565b60006020828403121561049757600080fd5b8151801515811461047e57600080fd5b8183526000602080850194508260005b858110156104e55781356104ca81610449565b6001600160a01b0316875295820195908201906001016104b7565b509495945050505050565b8183526000602080850194508260005b858110156104e55763ffffffff61051683610335565b1687529582019590820190600101610500565b60808152600061053d60808301888a6104a7565b82810360208401526105508187896104f0565b63ffffffff95909516604084015250506001600160a01b0391909116606090910152949350505050565b60006020828403121561058c57600080fd5b815161047e81610449565b6001600160501b03881681526080602082015260006105ba60808301888a6104a7565b82810360408401526105cd8187896104f0565b90508281036060840152838152838560208301376000602085830101526020601f19601f8601168201019150509897505050505050505056fea2646970667358221220cf4b9d397aa1eefc7b4248a675c2604053aedb74fda3932cad987c723975dfe864736f6c634300080d0033",
  "linkReferences": {},
  "deployedLinkReferences": {}
}