{
  "_format": "hh-sol-artifact-1",
  "contractName": "SplitMain",
  "sourceName": "@metalabel/splits-contracts/contracts/SplitMain.sol",
  "abi": [
    {
      "inputs": [],
      "stateMutability": "nonpayable",
      "type": "constructor"
    },
    {
      "inputs": [],
      "name": "Create2Error",
      "type": "error"
    },
    {
      "inputs": [],
      "name": "CreateError",
      "type": "error"
    },
    {
      "inputs": [
        {
          "internalType": "address",
          "name": "newController",
          "type": "address"
        }
      ],
      "name": "InvalidNewController",
      "type": "error"
    },
    {
      "inputs": [
        {
          "internalType": "uint256",
          "name": "accountsLength",
          "type": "uint256"
        },
        {
          "internalType": "uint256",
          "name": "allocationsLength",
          "type": "uint256"
        }
      ],
      "name": "InvalidSplit__AccountsAndAllocationsMismatch",
      "type": "error"
    },
    {
      "inputs": [
        {
          "internalType": "uint256",
          "name": "index",
          "type": "uint256"
        }
      ],
      "name": "InvalidSplit__AccountsOutOfOrder",
      "type": "error"
    },
    {
      "inputs": [
        {
          "internalType": "uint256",
          "name": "index",
          "type": "uint256"
        }
      ],
      "name": "InvalidSplit__AllocationMustBePositive",
      "type": "error"
    },
    {
      "inputs": [
        {
          "internalType": "uint32",
          "name": "allocationsSum",
          "type": "uint32"
        }
      ],
      "name": "InvalidSplit__InvalidAllocationsSum",
      "type": "error"
    },
    {
      "inputs": [
        {
          "internalType": "uint32",
          "name": "distributorFee",
          "type": "uint32"
        }
      ],
      "name": "InvalidSplit__InvalidDistributorFee",
      "type": "error"
    },
    {
      "inputs": [
        {
          "internalType": "bytes32",
          "name": "hash",
          "type": "bytes32"
        }
      ],
      "name": "InvalidSplit__InvalidHash",
      "type": "error"
    },
    {
      "inputs": [
        {
          "internalType": "uint256",
          "name": "accountsLength",
          "type": "uint256"
        }
      ],
      "name": "InvalidSplit__TooFewAccounts",
      "type": "error"
    },
    {
      "inputs": [
        {
          "internalType": "address",
          "name": "sender",
          "type": "address"
        }
      ],
      "name": "Unauthorized",
      "type": "error"
    },
    {
      "anonymous": false,
      "inputs": [
        {
          "indexed": true,
          "internalType": "address",
          "name": "split",
          "type": "address"
        }
      ],
      "name": "CancelControlTransfer",
      "type": "event"
    },
    {
      "anonymous": false,
      "inputs": [
        {
          "indexed": true,
          "internalType": "address",
          "name": "split",
          "type": "address"
        },
        {
          "indexed": true,
          "internalType": "address",
          "name": "previousController",
          "type": "address"
        },
        {
          "indexed": true,
          "internalType": "address",
          "name": "newController",
          "type": "address"
        }
      ],
      "name": "ControlTransfer",
      "type": "event"
    },
    {
      "anonymous": false,
      "inputs": [
        {
          "indexed": true,
          "internalType": "address",
          "name": "split",
          "type": "address"
        }
      ],
      "name": "CreateSplit",
      "type": "event"
    },
    {
      "anonymous": false,
      "inputs": [
        {
          "indexed": true,
          "internalType": "address",
          "name": "split",
          "type": "address"
        },
        {
          "indexed": true,
          "internalType": "contract ERC20",
          "name": "token",
          "type": "address"
        },
        {
          "indexed": false,
          "internalType": "uint256",
          "name": "amount",
          "type": "uint256"
        },
        {
          "indexed": true,
          "internalType": "address",
          "name": "distributorAddress",
          "type": "address"
        }
      ],
      "name": "DistributeERC20",
      "type": "event"
    },
    {
      "anonymous": false,
      "inputs": [
        {
          "indexed": true,
          "internalType": "address",
          "name": "split",
          "type": "address"
        },
        {
          "indexed": false,
          "internalType": "uint256",
          "name": "amount",
          "type": "uint256"
        },
        {
          "indexed": true,
          "internalType": "address",
          "name": "distributorAddress",
          "type": "address"
        }
      ],
      "name": "DistributeETH",
      "type": "event"
    },
    {
      "anonymous": false,
      "inputs": [
        {
          "indexed": true,
          "internalType": "address",
          "name": "split",
          "type": "address"
        },
        {
          "indexed": true,
          "internalType": "address",
          "name": "newPotentialController",
          "type": "address"
        }
      ],
      "name": "InitiateControlTransfer",
      "type": "event"
    },
    {
      "anonymous": false,
      "inputs": [
        {
          "indexed": true,
          "internalType": "address",
          "name": "split",
          "type": "address"
        }
      ],
      "name": "UpdateSplit",
      "type": "event"
    },
    {
      "anonymous": false,
      "inputs": [
        {
          "indexed": true,
          "internalType": "address",
          "name": "account",
          "type": "address"
        },
        {
          "indexed": false,
          "internalType": "uint256",
          "name": "ethAmount",
          "type": "uint256"
        },
        {
          "indexed": false,
          "internalType": "contract ERC20[]",
          "name": "tokens",
          "type": "address[]"
        },
        {
          "indexed": false,
          "internalType": "uint256[]",
          "name": "tokenAmounts",
          "type": "uint256[]"
        }
      ],
      "name": "Withdrawal",
      "type": "event"
    },
    {
      "inputs": [],
      "name": "PERCENTAGE_SCALE",
      "outputs": [
        {
          "internalType": "uint256",
          "name": "",
          "type": "uint256"
        }
      ],
      "stateMutability": "view",
      "type": "function"
    },
    {
      "inputs": [
        {
          "internalType": "address",
          "name": "split",
          "type": "address"
        }
      ],
      "name": "acceptControl",
      "outputs": [],
      "stateMutability": "nonpayable",
      "type": "function"
    },
    {
      "inputs": [
        {
          "internalType": "address",
          "name": "split",
          "type": "address"
        }
      ],
      "name": "cancelControlTransfer",
      "outputs": [],
      "stateMutability": "nonpayable",
      "type": "function"
    },
    {
      "inputs": [
        {
          "internalType": "address[]",
          "name": "accounts",
          "type": "address[]"
        },
        {
          "internalType": "uint32[]",
          "name": "percentAllocations",
          "type": "uint32[]"
        },
        {
          "internalType": "uint32",
          "name": "distributorFee",
          "type": "uint32"
        },
        {
          "internalType": "address",
          "name": "controller",
          "type": "address"
        }
      ],
      "name": "createSplit",
      "outputs": [
        {
          "internalType": "address",
          "name": "split",
          "type": "address"
        }
      ],
      "stateMutability": "nonpayable",
      "type": "function"
    },
    {
      "inputs": [
        {
          "internalType": "address",
          "name": "split",
          "type": "address"
        },
        {
          "internalType": "contract ERC20",
          "name": "token",
          "type": "address"
        },
        {
          "internalType": "address[]",
          "name": "accounts",
          "type": "address[]"
        },
        {
          "internalType": "uint32[]",
          "name": "percentAllocations",
          "type": "uint32[]"
        },
        {
          "internalType": "uint32",
          "name": "distributorFee",
          "type": "uint32"
        },
        {
          "internalType": "address",
          "name": "distributorAddress",
          "type": "address"
        }
      ],
      "name": "distributeERC20",
      "outputs": [],
      "stateMutability": "nonpayable",
      "type": "function"
    },
    {
      "inputs": [
        {
          "internalType": "address",
          "name": "split",
          "type": "address"
        },
        {
          "internalType": "address[]",
          "name": "accounts",
          "type": "address[]"
        },
        {
          "internalType": "uint32[]",
          "name": "percentAllocations",
          "type": "uint32[]"
        },
        {
          "internalType": "uint32",
          "name": "distributorFee",
          "type": "uint32"
        },
        {
          "internalType": "address",
          "name": "distributorAddress",
          "type": "address"
        }
      ],
      "name": "distributeETH",
      "outputs": [],
      "stateMutability": "nonpayable",
      "type": "function"
    },
    {
      "inputs": [
        {
          "internalType": "address",
          "name": "split",
          "type": "address"
        }
      ],
      "name": "getController",
      "outputs": [
        {
          "internalType": "address",
          "name": "",
          "type": "address"
        }
      ],
      "stateMutability": "view",
      "type": "function"
    },
    {
      "inputs": [
        {
          "internalType": "address",
          "name": "account",
          "type": "address"
        },
        {
          "internalType": "contract ERC20",
          "name": "token",
          "type": "address"
        }
      ],
      "name": "getERC20Balance",
      "outputs": [
        {
          "internalType": "uint256",
          "name": "",
          "type": "uint256"
        }
      ],
      "stateMutability": "view",
      "type": "function"
    },
    {
      "inputs": [
        {
          "internalType": "address",
          "name": "account",
          "type": "address"
        }
      ],
      "name": "getETHBalance",
      "outputs": [
        {
          "internalType": "uint256",
          "name": "",
          "type": "uint256"
        }
      ],
      "stateMutability": "view",
      "type": "function"
    },
    {
      "inputs": [
        {
          "internalType": "address",
          "name": "split",
          "type": "address"
        }
      ],
      "name": "getHash",
      "outputs": [
        {
          "internalType": "bytes32",
          "name": "",
          "type": "bytes32"
        }
      ],
      "stateMutability": "view",
      "type": "function"
    },
    {
      "inputs": [
        {
          "internalType": "address",
          "name": "split",
          "type": "address"
        }
      ],
      "name": "getNewPotentialController",
      "outputs": [
        {
          "internalType": "address",
          "name": "",
          "type": "address"
        }
      ],
      "stateMutability": "view",
      "type": "function"
    },
    {
      "inputs": [
        {
          "internalType": "address",
          "name": "split",
          "type": "address"
        }
      ],
      "name": "makeSplitImmutable",
      "outputs": [],
      "stateMutability": "nonpayable",
      "type": "function"
    },
    {
      "inputs": [
        {
          "internalType": "address[]",
          "name": "accounts",
          "type": "address[]"
        },
        {
          "internalType": "uint32[]",
          "name": "percentAllocations",
          "type": "uint32[]"
        },
        {
          "internalType": "uint32",
          "name": "distributorFee",
          "type": "uint32"
        }
      ],
      "name": "predictImmutableSplitAddress",
      "outputs": [
        {
          "internalType": "address",
          "name": "split",
          "type": "address"
        }
      ],
      "stateMutability": "view",
      "type": "function"
    },
    {
      "inputs": [
        {
          "internalType": "address",
          "name": "split",
          "type": "address"
        },
        {
          "internalType": "address",
          "name": "newController",
          "type": "address"
        }
      ],
      "name": "transferControl",
      "outputs": [],
      "stateMutability": "nonpayable",
      "type": "function"
    },
    {
      "inputs": [
        {
          "internalType": "address",
          "name": "split",
          "type": "address"
        },
        {
          "internalType": "contract ERC20",
          "name": "token",
          "type": "address"
        },
        {
          "internalType": "address[]",
          "name": "accounts",
          "type": "address[]"
        },
        {
          "internalType": "uint32[]",
          "name": "percentAllocations",
          "type": "uint32[]"
        },
        {
          "internalType": "uint32",
          "name": "distributorFee",
          "type": "uint32"
        },
        {
          "internalType": "address",
          "name": "distributorAddress",
          "type": "address"
        }
      ],
      "name": "updateAndDistributeERC20",
      "outputs": [],
      "stateMutability": "nonpayable",
      "type": "function"
    },
    {
      "inputs": [
        {
          "internalType": "address",
          "name": "split",
          "type": "address"
        },
        {
          "internalType": "address[]",
          "name": "accounts",
          "type": "address[]"
        },
        {
          "internalType": "uint32[]",
          "name": "percentAllocations",
          "type": "uint32[]"
        },
        {
          "internalType": "uint32",
          "name": "distributorFee",
          "type": "uint32"
        },
        {
          "internalType": "address",
          "name": "distributorAddress",
          "type": "address"
        }
      ],
      "name": "updateAndDistributeETH",
      "outputs": [],
      "stateMutability": "nonpayable",
      "type": "function"
    },
    {
      "inputs": [
        {
          "internalType": "address",
          "name": "split",
          "type": "address"
        },
        {
          "internalType": "address[]",
          "name": "accounts",
          "type": "address[]"
        },
        {
          "internalType": "uint32[]",
          "name": "percentAllocations",
          "type": "uint32[]"
        },
        {
          "internalType": "uint32",
          "name": "distributorFee",
          "type": "uint32"
        }
      ],
      "name": "updateSplit",
      "outputs": [],
      "stateMutability": "nonpayable",
      "type": "function"
    },
    {
      "inputs": [],
      "name": "walletImplementation",
      "outputs": [
        {
          "internalType": "address",
          "name": "",
          "type": "address"
        }
      ],
      "stateMutability": "view",
      "type": "function"
    },
    {
      "inputs": [
        {
          "internalType": "address",
          "name": "account",
          "type": "address"
        },
        {
          "internalType": "uint256",
          "name": "withdrawETH",
          "type": "uint256"
        },
        {
          "internalType": "contract ERC20[]",
          "name": "tokens",
          "type": "address[]"
        }
      ],
      "name": "withdraw",
      "outputs": [],
      "stateMutability": "nonpayable",
      "type": "function"
    },
    {
      "stateMutability": "payable",
      "type": "receive"
    }
  ],
  "bytecode": "0x60a06040523480156200001157600080fd5b50604051620000209062000050565b604051809103906000f0801580156200003d573d6000803e3d6000fd5b506001600160a01b03166080526200005e565b6103598062002eae83390190565b608051612e1f6200008f600039600081816102b001528181610ba801528181610f960152610fc70152612e1f6000f3fe6080604052600436106101185760003560e01c806377b1e4e9116100a0578063c7de644011610064578063c7de64401461034e578063d0e4b2f41461036e578063e10e51d61461038e578063e61cb05e146103cb578063ecef0ace146103eb57600080fd5b806377b1e4e91461027e5780638117abc11461029e57806388c662aa146102d2578063a5e3909e1461030e578063c3a8962c1461032e57600080fd5b80633bb66a7b116100e75780633bb66a7b146101cf5780633f26479e146101ef57806352844dd3146102065780636e5f69191461023e5780637601f7821461025e57600080fd5b80631267c6da146101245780631581130214610146578063189cbaa0146101665780631da0b8fc1461018657600080fd5b3661011f57005b600080fd5b34801561013057600080fd5b5061014461013f366004612806565b61040b565b005b34801561015257600080fd5b50610144610161366004612883565b6104a6565b34801561017257600080fd5b50610144610181366004612806565b6107e0565b34801561019257600080fd5b506101bc6101a1366004612806565b6001600160a01b031660009081526002602052604090205490565b6040519081526020015b60405180910390f35b3480156101db57600080fd5b506101bc6101ea366004612806565b6108ab565b3480156101fb57600080fd5b506101bc620f424081565b34801561021257600080fd5b5061022661022136600461293d565b610906565b6040516001600160a01b0390911681526020016101c6565b34801561024a57600080fd5b506101446102593660046129be565b610bdb565b34801561026a57600080fd5b50610226610279366004612a1a565b610ce6565b34801561028a57600080fd5b50610144610299366004612883565b61106e565b3480156102aa57600080fd5b506102267f000000000000000000000000000000000000000000000000000000000000000081565b3480156102de57600080fd5b506102266102ed366004612806565b6001600160a01b039081166000908152600260205260409020600101541690565b34801561031a57600080fd5b50610144610329366004612aae565b611377565b34801561033a57600080fd5b506101bc610349366004612b56565b611660565b34801561035a57600080fd5b50610144610369366004612806565b611727565b34801561037a57600080fd5b50610144610389366004612b56565b6117f6565b34801561039a57600080fd5b506102266103a9366004612806565b6001600160a01b03908116600090815260026020819052604090912001541690565b3480156103d757600080fd5b506101446103e6366004612aae565b6118c8565b3480156103f757600080fd5b50610144610406366004612b8f565b611bde565b6001600160a01b0381811660009081526002602052604090206001015482911633146104515760405163472511eb60e11b81523360048201526024015b60405180910390fd5b6001600160a01b038216600081815260026020819052604080832090910180546001600160a01b0319169055517f6c2460a415b84be3720c209fe02f2cad7a6bcba21e8637afe8957b7ec4b6ef879190a25050565b85858080602002602001604051908101604052809392919081815260200183836020028082843760009201919091525050604080516020808902828101820190935288825290935088925087918291850190849080828437600092019190915250508351869250600211159050610535578251604051630e8c626560e41b815260040161044891815260200190565b8151835114610564578251825160405163b34f351d60e01b815260048101929092526024820152604401610448565b620f424061057183611e55565b63ffffffff16146105a75761058582611e55565b60405163fcc487c160e01b815263ffffffff9091166004820152602401610448565b82516000190160005b81811015610673578481600101815181106105cd576105cd612c21565b60200260200101516001600160a01b03168582815181106105f0576105f0612c21565b60200260200101516001600160a01b0316106106225760405163ac6bd23360e01b815260048101829052602401610448565b600063ffffffff1684828151811061063c5761063c612c21565b602002602001015163ffffffff160361066b57604051630db7e4c760e01b815260048101829052602401610448565b6001016105b0565b50600063ffffffff1683828151811061068e5761068e612c21565b602002602001015163ffffffff16036106bd57604051630db7e4c760e01b815260048101829052602401610448565b50620186a08163ffffffff1611156106f05760405163308440e360e21b815263ffffffff82166004820152602401610448565b6107608b8a8a8080602002602001604051908101604052809392919081815260200183836020028082843760009201919091525050604080516020808e0282810182019093528d82529093508d92508c9182918501908490808284376000920191909152508b9250611e9a915050565b6107d38b8b8b8b8080602002602001604051908101604052809392919081815260200183836020028082843760009201919091525050604080516020808f0282810182019093528e82529093508e92508d9182918501908490808284376000920191909152508c92508b9150611eec9050565b5050505050505050505050565b6001600160a01b0381811660009081526002602052604090206001015482911633146108215760405163472511eb60e11b8152336004820152602401610448565b6001600160a01b03808316600081815260026020819052604080832091820180546001600160a01b0319169055600190910154905191931691907f943d69cf2bbe08a9d44b3c4ce6da17d939d758739370620871ce99a6437866d0908490a4506001600160a01b0316600090815260026020526040902060010180546001600160a01b0319169055565b6001600160a01b03811660009081526002602052604081205481036108d15760006108dd565b816001600160a01b0316315b6001600160a01b0383166000908152602081905260409020546109009190612c4d565b92915050565b600085858080602002602001604051908101604052809392919081815260200183836020028082843760009201919091525050604080516020808902828101820190935288825290935088925087918291850190849080828437600092019190915250508351869250600211159050610997578251604051630e8c626560e41b815260040161044891815260200190565b81518351146109c6578251825160405163b34f351d60e01b815260048101929092526024820152604401610448565b620f42406109d383611e55565b63ffffffff16146109e75761058582611e55565b82516000190160005b81811015610ab357848160010181518110610a0d57610a0d612c21565b60200260200101516001600160a01b0316858281518110610a3057610a30612c21565b60200260200101516001600160a01b031610610a625760405163ac6bd23360e01b815260048101829052602401610448565b600063ffffffff16848281518110610a7c57610a7c612c21565b602002602001015163ffffffff1603610aab57604051630db7e4c760e01b815260048101829052602401610448565b6001016109f0565b50600063ffffffff16838281518110610ace57610ace612c21565b602002602001015163ffffffff1603610afd57604051630db7e4c760e01b815260048101829052602401610448565b50620186a08163ffffffff161115610b305760405163308440e360e21b815263ffffffff82166004820152602401610448565b6000610ba18a8a8080602002602001604051908101604052809392919081815260200183836020028082843760009201919091525050604080516020808e0282810182019093528d82529093508d92508c9182918501908490808284376000920191909152508b925061219b915050565b9050610bcd7f0000000000000000000000000000000000000000000000000000000000000000826121d1565b9a9950505050505050505050565b60008167ffffffffffffffff811115610bf657610bf6612c65565b604051908082528060200260200182016040528015610c1f578160200160208202803683370190505b50905060008415610c3657610c3386612276565b90505b60005b83811015610c9657610c7187868684818110610c5757610c57612c21565b9050602002016020810190610c6c9190612806565b6122c9565b838281518110610c8357610c83612c21565b6020908102919091010152600101610c39565b50856001600160a01b03167fa9e30bf144f83390a4fe47562a4e16892108102221c674ff538da0b72a83d17482868686604051610cd69493929190612c7b565b60405180910390a2505050505050565b600086868080602002602001604051908101604052809392919081815260200183836020028082843760009201919091525050604080516020808a02828101820190935289825290935089925088918291850190849080828437600092019190915250508351879250600211159050610d77578251604051630e8c626560e41b815260040161044891815260200190565b8151835114610da6578251825160405163b34f351d60e01b815260048101929092526024820152604401610448565b620f4240610db383611e55565b63ffffffff1614610dc75761058582611e55565b82516000190160005b81811015610e9357848160010181518110610ded57610ded612c21565b60200260200101516001600160a01b0316858281518110610e1057610e10612c21565b60200260200101516001600160a01b031610610e425760405163ac6bd23360e01b815260048101829052602401610448565b600063ffffffff16848281518110610e5c57610e5c612c21565b602002602001015163ffffffff1603610e8b57604051630db7e4c760e01b815260048101829052602401610448565b600101610dd0565b50600063ffffffff16838281518110610eae57610eae612c21565b602002602001015163ffffffff1603610edd57604051630db7e4c760e01b815260048101829052602401610448565b50620186a08163ffffffff161115610f105760405163308440e360e21b815263ffffffff82166004820152602401610448565b6000610f818b8b8080602002602001604051908101604052809392919081815260200183836020028082843760009201919091525050604080516020808f0282810182019093528e82529093508e92508d9182918501908490808284376000920191909152508c925061219b915050565b90506001600160a01b038616610fc257610fbb7f000000000000000000000000000000000000000000000000000000000000000082612335565b945061101f565b610feb7f00000000000000000000000000000000000000000000000000000000000000006123e5565b6001600160a01b03818116600090815260026020526040902060010180546001600160a01b03191691891691909117905594505b6001600160a01b038516600081815260026020526040808220849055517f8d5f9943c664a3edaf4d3eb18cc5e2c45a7d2dc5869be33d33bbc0fff9bc25909190a2505050509695505050505050565b6001600160a01b0388811660009081526002602052604090206001015489911633146110af5760405163472511eb60e11b8152336004820152602401610448565b86868080602002602001604051908101604052809392919081815260200183836020028082843760009201919091525050604080516020808a0282810182019093528982529093508992508891829185019084908082843760009201919091525050835187925060021115905061113e578251604051630e8c626560e41b815260040161044891815260200190565b815183511461116d578251825160405163b34f351d60e01b815260048101929092526024820152604401610448565b620f424061117a83611e55565b63ffffffff161461118e5761058582611e55565b82516000190160005b8181101561125a578481600101815181106111b4576111b4612c21565b60200260200101516001600160a01b03168582815181106111d7576111d7612c21565b60200260200101516001600160a01b0316106112095760405163ac6bd23360e01b815260048101829052602401610448565b600063ffffffff1684828151811061122357611223612c21565b602002602001015163ffffffff160361125257604051630db7e4c760e01b815260048101829052602401610448565b600101611197565b50600063ffffffff1683828151811061127557611275612c21565b602002602001015163ffffffff16036112a457604051630db7e4c760e01b815260048101829052602401610448565b50620186a08163ffffffff1611156112d75760405163308440e360e21b815263ffffffff82166004820152602401610448565b6112e58c8b8b8b8b8b612494565b6113698c8c8c8c80806020026020016040519081016040528093929190818152602001838360200280828437600081840152601f19601f820116905080830192505050505050508b8b808060200260200160405190810160405280939291908181526020018383602002808284376000920191909152508d92508c9150611eec9050565b505050505050505050505050565b6001600160a01b0387811660009081526002602052604090206001015488911633146113b85760405163472511eb60e11b8152336004820152602401610448565b86868080602002602001604051908101604052809392919081815260200183836020028082843760009201919091525050604080516020808a02828101820190935289825290935089925088918291850190849080828437600092019190915250508351879250600211159050611447578251604051630e8c626560e41b815260040161044891815260200190565b8151835114611476578251825160405163b34f351d60e01b815260048101929092526024820152604401610448565b620f424061148383611e55565b63ffffffff16146114975761058582611e55565b82516000190160005b81811015611563578481600101815181106114bd576114bd612c21565b60200260200101516001600160a01b03168582815181106114e0576114e0612c21565b60200260200101516001600160a01b0316106115125760405163ac6bd23360e01b815260048101829052602401610448565b600063ffffffff1684828151811061152c5761152c612c21565b602002602001015163ffffffff160361155b57604051630db7e4c760e01b815260048101829052602401610448565b6001016114a0565b50600063ffffffff1683828151811061157e5761157e612c21565b602002602001015163ffffffff16036115ad57604051630db7e4c760e01b815260048101829052602401610448565b50620186a08163ffffffff1611156115e05760405163308440e360e21b815263ffffffff82166004820152602401610448565b6115ee8b8b8b8b8b8b612494565b6107d38b8b8b8080602002602001604051908101604052809392919081815260200183836020028082843760009201919091525050604080516020808f0282810182019093528e82529093508e92508d9182918501908490808284376000920191909152508c92508b91506125549050565b6001600160a01b03821660009081526002602052604081205481036116865760006116f0565b6040516370a0823160e01b81526001600160a01b0384811660048301528316906370a0823190602401602060405180830381865afa1580156116cc573d6000803e3d6000fd5b505050506040513d601f19601f820116820180604052508101906116f09190612d0c565b6001600160a01b038084166000908152600160209081526040808320938816835292905220546117209190612c4d565b9392505050565b6001600160a01b038181166000908152600260208190526040909120015482911633146117695760405163472511eb60e11b8152336004820152602401610448565b6001600160a01b03808316600081815260026020819052604080832091820180546001600160a01b0319169055600190910154905133949190911692917f943d69cf2bbe08a9d44b3c4ce6da17d939d758739370620871ce99a6437866d091a4506001600160a01b0316600090815260026020526040902060010180546001600160a01b03191633179055565b6001600160a01b0382811660009081526002602052604090206001015483911633146118375760405163472511eb60e11b8152336004820152602401610448565b816001600160a01b03811661186a5760405163c369130760e01b81526001600160a01b0382166004820152602401610448565b6001600160a01b03848116600081815260026020819052604080832090910180546001600160a01b0319169488169485179055517f107cf6ea8668d533df1aab5bb8b6315bb0c25f0b6c955558d09368f290668fc79190a350505050565b85858080602002602001604051908101604052809392919081815260200183836020028082843760009201919091525050604080516020808902828101820190935288825290935088925087918291850190849080828437600092019190915250508351869250600211159050611957578251604051630e8c626560e41b815260040161044891815260200190565b8151835114611986578251825160405163b34f351d60e01b815260048101929092526024820152604401610448565b620f424061199383611e55565b63ffffffff16146119a75761058582611e55565b82516000190160005b81811015611a73578481600101815181106119cd576119cd612c21565b60200260200101516001600160a01b03168582815181106119f0576119f0612c21565b60200260200101516001600160a01b031610611a225760405163ac6bd23360e01b815260048101829052602401610448565b600063ffffffff16848281518110611a3c57611a3c612c21565b602002602001015163ffffffff1603611a6b57604051630db7e4c760e01b815260048101829052602401610448565b6001016119b0565b50600063ffffffff16838281518110611a8e57611a8e612c21565b602002602001015163ffffffff1603611abd57604051630db7e4c760e01b815260048101829052602401610448565b50620186a08163ffffffff161115611af05760405163308440e360e21b815263ffffffff82166004820152602401610448565b611b608a8a8a8080602002602001604051908101604052809392919081815260200183836020028082843760009201919091525050604080516020808e0282810182019093528d82529093508d92508c9182918501908490808284376000920191909152508b9250611e9a915050565b611bd28a8a8a8080602002602001604051908101604052809392919081815260200183836020028082843760009201919091525050604080516020808e0282810182019093528d82529093508d92508c9182918501908490808284376000920191909152508b92508a91506125549050565b50505050505050505050565b6001600160a01b038681166000908152600260205260409020600101548791163314611c1f5760405163472511eb60e11b8152336004820152602401610448565b85858080602002602001604051908101604052809392919081815260200183836020028082843760009201919091525050604080516020808902828101820190935288825290935088925087918291850190849080828437600092019190915250508351869250600211159050611cae578251604051630e8c626560e41b815260040161044891815260200190565b8151835114611cdd578251825160405163b34f351d60e01b815260048101929092526024820152604401610448565b620f4240611cea83611e55565b63ffffffff1614611cfe5761058582611e55565b82516000190160005b81811015611dca57848160010181518110611d2457611d24612c21565b60200260200101516001600160a01b0316858281518110611d4757611d47612c21565b60200260200101516001600160a01b031610611d795760405163ac6bd23360e01b815260048101829052602401610448565b600063ffffffff16848281518110611d9357611d93612c21565b602002602001015163ffffffff1603611dc257604051630db7e4c760e01b815260048101829052602401610448565b600101611d07565b50600063ffffffff16838281518110611de557611de5612c21565b602002602001015163ffffffff1603611e1457604051630db7e4c760e01b815260048101829052602401610448565b50620186a08163ffffffff161115611e475760405163308440e360e21b815263ffffffff82166004820152602401610448565b611bd28a8a8a8a8a8a612494565b8051600090815b81811015611e9357838181518110611e7657611e76612c21565b602002602001015183611e899190612d25565b9250600101611e5c565b5050919050565b6000611ea784848461219b565b6001600160a01b0386166000908152600260205260409020549091508114611ee55760405163dd5ff45760e01b815260048101829052602401610448565b5050505050565b6001600160a01b038581166000818152600160209081526040808320948b16808452949091528082205490516370a0823160e01b815260048101949094529092909183916370a0823190602401602060405180830381865afa158015611f56573d6000803e3d6000fd5b505050506040513d601f19601f82011682018060405250810190611f7a9190612d0c565b90508015611f8757600019015b8115611f94576001820391505b81810192508115611fc8576001600160a01b038089166000908152600160208181526040808420948e168452939052919020555b836001600160a01b0316886001600160a01b03168a6001600160a01b03167fb5ee5dc3d2c31a019bbf2c787e0e9c97971c96aceea1c38c12fc8fd25c536d468660405161201791815260200190565b60405180910390a463ffffffff851615612089576001600160a01b038881166000908152600160205260408120620f424063ffffffff89168702049283929088166120625733612064565b875b6001600160a01b03168152602081019190915260400160002080549091019055909203915b865160005b81811015612125576120c4858983815181106120ac576120ac612c21565b602002602001015163ffffffff16620f424091020490565b6001600160a01b038b1660009081526001602052604081208b519091908c90859081106120f3576120f3612c21565b6020908102919091018101516001600160a01b031682528101919091526040016000208054909101905560010161208e565b5050801561219057604051633e0f9fff60e11b81526001600160a01b038981166004830152602482018390528a1690637c1f3ffe90604401600060405180830381600087803b15801561217757600080fd5b505af115801561218b573d6000803e3d6000fd5b505050505b505050505050505050565b60008383836040516020016121b293929190612d4d565b6040516020818303038152906040528051906020012090509392505050565b6000611720838330604051723d605d80600a3d3981f336603057343d52307f60681b81527f830d2d700a97af574b186c80d40429385d24241565b08a7c559ba283a964d9b160138201527260203da23d3df35b3d3d3d3d363d3d37363d7360681b6033820152606093841b60468201526d5af43d3d93803e605b57fd5bf3ff60901b605a820152921b6068830152607c8201526067808220609c830152605591012090565b6001600160a01b03811660009081526020819052604081205461229b90600190612dd2565b6001600160a01b0383166000818152602081905260409020600190559091506122c4908261271a565b919050565b6001600160a01b03808216600090815260016020818152604080842094871684529390529181205490916122fc91612dd2565b6001600160a01b038084166000818152600160208181526040808420958a16845294905292902091909155909150610900908483612770565b6000604051723d605d80600a3d3981f336603057343d52307f60681b81527f830d2d700a97af574b186c80d40429385d24241565b08a7c559ba283a964d9b160138201527260203da23d3df35b3d3d3d3d363d3d37363d7360681b60338201528360601b60468201526c5af43d3d93803e605b57fd5bf360981b605a820152826067826000f59150506001600160a01b0381166109005760405163380bbe1360e01b815260040160405180910390fd5b6000604051723d605d80600a3d3981f336603057343d52307f60681b81527f830d2d700a97af574b186c80d40429385d24241565b08a7c559ba283a964d9b160138201527260203da23d3df35b3d3d3d3d363d3d37363d7360681b60338201528260601b60468201526c5af43d3d93803e605b57fd5bf360981b605a8201526067816000f09150506001600160a01b0381166122c457604051630985da9b60e41b815260040160405180910390fd5b600061250586868080602002602001604051908101604052809392919081815260200183836020028082843760009201919091525050604080516020808a0282810182019093528982529093508992508891829185019084908082843760009201919091525087925061219b915050565b6001600160a01b0388166000818152600260205260408082208490555192935090917f45e1e99513dd915ac128b94953ca64c6375717ea1894b3114db08cdca51debd29190a250505050505050565b6001600160a01b038516600081815260208190526040812054913190821561257d576001830392505b5081810182156125a4576001600160a01b0388166000908152602081905260409020600190555b836001600160a01b0316886001600160a01b03167f87c3ca0a87d9b82033e4bc55e6d30621f8d7e0c9d8ca7988edfde8932787b77b836040516125e991815260200190565b60405180910390a363ffffffff85161561264857620f424063ffffffff8616820204806000806001600160a01b0388166126235733612625565b875b6001600160a01b0316815260208101919091526040016000208054909101905590035b865160005b818110156126b25761266b838983815181106120ac576120ac612c21565b6000808b848151811061268057612680612c21565b6020908102919091018101516001600160a01b031682528101919091526040016000208054909101905560010161264d565b5050811561271057604051632ac3affd60e21b8152600481018390526001600160a01b0389169063ab0ebff490602401600060405180830381600087803b1580156126fc57600080fd5b505af1158015611369573d6000803e3d6000fd5b5050505050505050565b600080600080600085875af190508061276b5760405162461bcd60e51b815260206004820152601360248201527211551217d514905394d1915497d19052531151606a1b6044820152606401610448565b505050565b600060405163a9059cbb60e01b8152836004820152826024820152602060006044836000895af13d15601f3d11600160005114161716915050806127e85760405162461bcd60e51b815260206004820152600f60248201526e1514905394d1915497d19052531151608a1b6044820152606401610448565b50505050565b6001600160a01b038116811461280357600080fd5b50565b60006020828403121561281857600080fd5b8135611720816127ee565b60008083601f84011261283557600080fd5b50813567ffffffffffffffff81111561284d57600080fd5b6020830191508360208260051b850101111561286857600080fd5b9250929050565b803563ffffffff811681146122c457600080fd5b60008060008060008060008060c0898b03121561289f57600080fd5b88356128aa816127ee565b975060208901356128ba816127ee565b9650604089013567ffffffffffffffff808211156128d757600080fd5b6128e38c838d01612823565b909850965060608b01359150808211156128fc57600080fd5b506129098b828c01612823565b909550935061291c905060808a0161286f565b915060a089013561292c816127ee565b809150509295985092959890939650565b60008060008060006060868803121561295557600080fd5b853567ffffffffffffffff8082111561296d57600080fd5b61297989838a01612823565b9097509550602088013591508082111561299257600080fd5b5061299f88828901612823565b90945092506129b290506040870161286f565b90509295509295909350565b600080600080606085870312156129d457600080fd5b84356129df816127ee565b935060208501359250604085013567ffffffffffffffff811115612a0257600080fd5b612a0e87828801612823565b95989497509550505050565b60008060008060008060808789031215612a3357600080fd5b863567ffffffffffffffff80821115612a4b57600080fd5b612a578a838b01612823565b90985096506020890135915080821115612a7057600080fd5b50612a7d89828a01612823565b9095509350612a9090506040880161286f565b91506060870135612aa0816127ee565b809150509295509295509295565b600080600080600080600060a0888a031215612ac957600080fd5b8735612ad4816127ee565b9650602088013567ffffffffffffffff80821115612af157600080fd5b612afd8b838c01612823565b909850965060408a0135915080821115612b1657600080fd5b50612b238a828b01612823565b9095509350612b3690506060890161286f565b91506080880135612b46816127ee565b8091505092959891949750929550565b60008060408385031215612b6957600080fd5b8235612b74816127ee565b91506020830135612b84816127ee565b809150509250929050565b60008060008060008060808789031215612ba857600080fd5b8635612bb3816127ee565b9550602087013567ffffffffffffffff80821115612bd057600080fd5b612bdc8a838b01612823565b90975095506040890135915080821115612bf557600080fd5b50612c0289828a01612823565b9094509250612c1590506060880161286f565b90509295509295509295565b634e487b7160e01b600052603260045260246000fd5b634e487b7160e01b600052601160045260246000fd5b60008219821115612c6057612c60612c37565b500190565b634e487b7160e01b600052604160045260246000fd5b84815260606020808301829052908201849052600090859060808401835b87811015612cc7578335612cac816127ee565b6001600160a01b031682529282019290820190600101612c99565b508481036040860152855180825290820192508186019060005b81811015612cfd57825185529383019391830191600101612ce1565b50929998505050505050505050565b600060208284031215612d1e57600080fd5b5051919050565b600063ffffffff808316818516808303821115612d4457612d44612c37565b01949350505050565b835160009082906020808801845b83811015612d805781516001600160a01b031685529382019390820190600101612d5b565b5050865181880193925060005b81811015612daf57845163ffffffff1684529382019392820192600101612d8d565b50505060e09490941b6001600160e01b0319168452505060049091019392505050565b600082821015612de457612de4612c37565b50039056fea2646970667358221220013865f22086ddc797d08167a500a993bbbb68a8c848fdd61adfa051a6b2b93464736f6c634300080d003360a060405234801561001057600080fd5b503360805260805161030f61004a60003960008181604b0152818160bc015281816101080152818161013c0152610186015261030f6000f3fe6080604052600436106100345760003560e01c80630e769b2b146100395780637c1f3ffe14610089578063ab0ebff41461009e575b600080fd5b34801561004557600080fd5b5061006d7f000000000000000000000000000000000000000000000000000000000000000081565b6040516001600160a01b03909116815260200160405180910390f35b61009c610097366004610288565b6100b1565b005b61009c6100ac3660046102c0565b610131565b336001600160a01b037f000000000000000000000000000000000000000000000000000000000000000016146100f9576040516282b42960e81b815260040160405180910390fd5b61012d6001600160a01b0383167f0000000000000000000000000000000000000000000000000000000000000000836101af565b5050565b336001600160a01b037f00000000000000000000000000000000000000000000000000000000000000001614610179576040516282b42960e81b815260040160405180910390fd5b6101ac6001600160a01b037f00000000000000000000000000000000000000000000000000000000000000001682610232565b50565b600060405163a9059cbb60e01b8152836004820152826024820152602060006044836000895af13d15601f3d116001600051141617169150508061022c5760405162461bcd60e51b815260206004820152600f60248201526e1514905394d1915497d19052531151608a1b60448201526064015b60405180910390fd5b50505050565b600080600080600085875af19050806102835760405162461bcd60e51b815260206004820152601360248201527211551217d514905394d1915497d19052531151606a1b6044820152606401610223565b505050565b6000806040838503121561029b57600080fd5b82356001600160a01b03811681146102b257600080fd5b946020939093013593505050565b6000602082840312156102d257600080fd5b503591905056fea2646970667358221220dc27310c95d3e469e0c55a73abfd4358c28bfdfc1c474249a2520b2ee174c59d64736f6c634300080d0033",
  "linkReferences": {},
  "deployedLinkReferences": {}
}